{
  "contractName": "BatchCreatePairs",
  "abi": [
    {
      "inputs": [
        {
          "internalType": "address",
          "name": "_boboRouter",
          "type": "address"
        },
        {
          "internalType": "address",
          "name": "_factory",
          "type": "address"
        },
        {
          "internalType": "address",
          "name": "_farmer",
          "type": "address"
        },
        {
          "internalType": "address",
          "name": "_exManager",
          "type": "address"
        },
        {
          "internalType": "address",
          "name": "_orderNFT",
          "type": "address"
        },
        {
          "internalType": "address",
          "name": "_orderDetailNFT",
          "type": "address"
        }
      ],
      "stateMutability": "nonpayable",
      "type": "constructor"
    },
    {
      "inputs": [],
      "name": "USDC",
      "outputs": [
        {
          "internalType": "address",
          "name": "",
          "type": "address"
        }
      ],
      "stateMutability": "view",
      "type": "function"
    },
    {
      "inputs": [
        {
          "internalType": "uint256",
          "name": "",
          "type": "uint256"
        }
      ],
      "name": "USDC_PEERS",
      "outputs": [
        {
          "internalType": "address",
          "name": "",
          "type": "address"
        }
      ],
      "stateMutability": "view",
      "type": "function"
    },
    {
      "inputs": [],
      "name": "USDT",
      "outputs": [
        {
          "internalType": "address",
          "name": "",
          "type": "address"
        }
      ],
      "stateMutability": "view",
      "type": "function"
    },
    {
      "inputs": [
        {
          "internalType": "uint256",
          "name": "",
          "type": "uint256"
        }
      ],
      "name": "USDT_PEERS",
      "outputs": [
        {
          "internalType": "address",
          "name": "",
          "type": "address"
        }
      ],
      "stateMutability": "view",
      "type": "function"
    },
    {
      "inputs": [],
      "name": "WMATIC",
      "outputs": [
        {
          "internalType": "address",
          "name": "",
          "type": "address"
        }
      ],
      "stateMutability": "view",
      "type": "function"
    },
    {
      "inputs": [],
      "name": "boboFactory",
      "outputs": [
        {
          "internalType": "contract BoboFactory",
          "name": "",
          "type": "address"
        }
      ],
      "stateMutability": "view",
      "type": "function"
    },
    {
      "inputs": [],
      "name": "boboFarmer",
      "outputs": [
        {
          "internalType": "contract BoboFarmer",
          "name": "",
          "type": "address"
        }
      ],
      "stateMutability": "view",
      "type": "function"
    },
    {
      "inputs": [],
      "name": "boboRouter",
      "outputs": [
        {
          "internalType": "address",
          "name": "",
          "type": "address"
        }
      ],
      "stateMutability": "view",
      "type": "function"
    },
    {
      "inputs": [],
      "name": "exManager",
      "outputs": [
        {
          "internalType": "contract EXManager",
          "name": "",
          "type": "address"
        }
      ],
      "stateMutability": "view",
      "type": "function"
    },
    {
      "inputs": [],
      "name": "orderDetailNFT",
      "outputs": [
        {
          "internalType": "contract OrderDetailNFT",
          "name": "",
          "type": "address"
        }
      ],
      "stateMutability": "view",
      "type": "function"
    },
    {
      "inputs": [],
      "name": "orderNFT",
      "outputs": [
        {
          "internalType": "contract OrderNFT",
          "name": "",
          "type": "address"
        }
      ],
      "stateMutability": "view",
      "type": "function"
    },
    {
      "inputs": [],
      "name": "strat",
      "outputs": [
        {
          "internalType": "contract StratMaticSushi",
          "name": "",
          "type": "address"
        }
      ],
      "stateMutability": "view",
      "type": "function"
    },
    {
      "inputs": [
        {
          "internalType": "address",
          "name": "_boboRouter",
          "type": "address"
        },
        {
          "internalType": "address",
          "name": "_factory",
          "type": "address"
        },
        {
          "internalType": "address",
          "name": "_farmer",
          "type": "address"
        },
        {
          "internalType": "address",
          "name": "_exManager",
          "type": "address"
        },
        {
          "internalType": "address",
          "name": "_orderNFT",
          "type": "address"
        },
        {
          "internalType": "address",
          "name": "_orderDetailNFT",
          "type": "address"
        }
      ],
      "name": "setAddrs",
      "outputs": [],
      "stateMutability": "nonpayable",
      "type": "function"
    },
    {
      "inputs": [
        {
          "internalType": "address",
          "name": "_factory",
          "type": "address"
        }
      ],
      "name": "setFactory",
      "outputs": [],
      "stateMutability": "nonpayable",
      "type": "function"
    },
    {
      "inputs": [
        {
          "internalType": "address",
          "name": "_quoteToken",
          "type": "address"
        },
        {
          "internalType": "address",
          "name": "_baseToken",
          "type": "address"
        }
      ],
      "name": "creatOnePair",
      "outputs": [],
      "stateMutability": "nonpayable",
      "type": "function"
    },
    {
      "inputs": [
        {
          "internalType": "uint256",
          "name": "_fromIndex",
          "type": "uint256"
        },
        {
          "internalType": "uint256",
          "name": "_toIndex",
          "type": "uint256"
        }
      ],
      "name": "creatUSDTPeers",
      "outputs": [],
      "stateMutability": "nonpayable",
      "type": "function"
    },
    {
      "inputs": [
        {
          "internalType": "uint256",
          "name": "_fromIndex",
          "type": "uint256"
        },
        {
          "internalType": "uint256",
          "name": "_toIndex",
          "type": "uint256"
        }
      ],
      "name": "creatUSDCPeers",
      "outputs": [],
      "stateMutability": "nonpayable",
      "type": "function"
    },
    {
      "inputs": [
        {
          "internalType": "address",
          "name": "_newOwner",
          "type": "address"
        }
      ],
      "name": "transferAllOwner",
      "outputs": [],
      "stateMutability": "nonpayable",
      "type": "function"
    },
    {
      "inputs": [],
      "name": "getOwners",
      "outputs": [
        {
          "internalType": "address[]",
          "name": "ownerAddrs",
          "type": "address[]"
        }
      ],
      "stateMutability": "view",
      "type": "function"
    }
  ],
  "bytecode": "0x6101a0604052730d500b1d8e8ef31e21c99d1db9a6444d3adf12706080908152737ceb23fd6bc0add59e62ac25578270cff1b9f61960a052731bfd67037b42cf73acf2047067bd4f2c47d9bfd660c052732791bca1f2de4661ed88a30c99a7a9449aa8417460e052738f3cf7ad23cd3cadbd9735aff958023239c6a063610100527353e0bca35ec356bd5dddfebbd1fc0fd03fabad3961012052739c2c5fd7b07e95ee044ddeba0e97a665f142394f6101405273b33eaad8d922b1083446dc23f610c2567fb5180f6101605273d6df932a45c0f255f85145f286ea0b292b21c90b61018052620000f490600090600962000365565b506040805161010081018252730d500b1d8e8ef31e21c99d1db9a6444d3adf12708152737ceb23fd6bc0add59e62ac25578270cff1b9f6196020820152731bfd67037b42cf73acf2047067bd4f2c47d9bfd691810191909152738f3cf7ad23cd3cadbd9735aff958023239c6a06360608201527353e0bca35ec356bd5dddfebbd1fc0fd03fabad396080820152739c2c5fd7b07e95ee044ddeba0e97a665f142394f60a082015273b33eaad8d922b1083446dc23f610c2567fb5180f60c082015273d6df932a45c0f255f85145f286ea0b292b21c90b60e0820152620001df90600190600862000365565b50600280546001600160a01b0319908116730326d887a6dde69e874ea70fd842658125eafc411790915560038054821673d79df7ec6ff4f5ddc53a3d60ecaf25316a532bad179055600680548216737a29befcb6d0c6febdd33003fa08b139c63c23671790556007805482167304673384398379a84d05895456ae02fc05b4a509179055600880549091167375508a1de2183a1f2bf1822d6794698c953a17881790553480156200028f57600080fd5b50604051620014b6380380620014b6833981810160405260c0811015620002b557600080fd5b508051602082015160408301516060840151608085015160a0909501519394929391929091620002ea868686868686620002f6565b505050505050620003f0565b600580546001600160a01b03199081166001600160a01b0398891617909155600280548216968816969096179095556003805486169487169490941790935560068054851692861692909217909155600780548416918516919091179055600880549092169216919091179055565b828054828255906000526020600020908101928215620003bd579160200282015b82811115620003bd57825182546001600160a01b0319166001600160a01b0390911617825560209092019160019091019062000386565b50620003cb929150620003cf565b5090565b5b80821115620003cb5780546001600160a01b0319168155600101620003d0565b6110b680620004006000396000f3fe608060405234801561001057600080fd5b50600436106101215760003560e01c80638e80f160116100ad578063acd17aaa11610071578063acd17aaa1461030c578063c54e44eb14610314578063d4d728da1461031c578063d57116a214610324578063fb1157ce1461032c57610121565b80638e80f1601461021e578063941f7cc71461024157806397d873931461028f5780639ccae91714610297578063a0e67e2b146102b457610121565b80634d95cad9116100f45780634d95cad9146101a85780635bb47808146101b057806375970e5b146101d657806389a30271146101f35780638ce6b675146101fb57610121565b8063059b2a1014610126578063155f48e81461014a5780631960e232146101725780632039a7f51461017a575b600080fd5b61012e610334565b604080516001600160a01b039092168252519081900360200190f35b6101706004803603602081101561016057600080fd5b50356001600160a01b0316610343565b005b61012e6107c4565b6101706004803603604081101561019057600080fd5b506001600160a01b03813581169160200135166107d3565b61012e610a45565b610170600480360360208110156101c657600080fd5b50356001600160a01b0316610a5d565b61012e600480360360208110156101ec57600080fd5b5035610a7f565b61012e610aa6565b6101706004803603604081101561021157600080fd5b5080359060200135610abe565b6101706004803603604081101561023457600080fd5b5080359060200135610bb3565b610170600480360360c081101561025757600080fd5b506001600160a01b038135811691602081013582169160408201358116916060810135821691608082013581169160a0013516610ca2565b61012e610d11565b61012e600480360360208110156102ad57600080fd5b5035610d20565b6102bc610d2d565b60408051602080825283518183015283519192839290830191858101910280838360005b838110156102f85781810151838201526020016102e0565b505050509050019250505060405180910390f35b61012e61102c565b61012e61103b565b61012e611053565b61012e611062565b61012e611071565b6004546001600160a01b031681565b60025460408051638da5cb5b60e01b8152905130926001600160a01b031691638da5cb5b916004808301926020929190829003018186803b15801561038757600080fd5b505afa15801561039b573d6000803e3d6000fd5b505050506040513d60208110156103b157600080fd5b50516001600160a01b03161415610429576002546040805163f2fde38b60e01b81526001600160a01b0384811660048301529151919092169163f2fde38b91602480830192600092919082900301818387803b15801561041057600080fd5b505af1158015610424573d6000803e3d6000fd5b505050505b60035460408051638da5cb5b60e01b8152905130926001600160a01b031691638da5cb5b916004808301926020929190829003018186803b15801561046d57600080fd5b505afa158015610481573d6000803e3d6000fd5b505050506040513d602081101561049757600080fd5b50516001600160a01b0316141561050f576003546040805163f2fde38b60e01b81526001600160a01b0384811660048301529151919092169163f2fde38b91602480830192600092919082900301818387803b1580156104f657600080fd5b505af115801561050a573d6000803e3d6000fd5b505050505b60065460408051638da5cb5b60e01b8152905130926001600160a01b031691638da5cb5b916004808301926020929190829003018186803b15801561055357600080fd5b505afa158015610567573d6000803e3d6000fd5b505050506040513d602081101561057d57600080fd5b50516001600160a01b031614156105f5576006546040805163f2fde38b60e01b81526001600160a01b0384811660048301529151919092169163f2fde38b91602480830192600092919082900301818387803b1580156105dc57600080fd5b505af11580156105f0573d6000803e3d6000fd5b505050505b60075460408051638da5cb5b60e01b8152905130926001600160a01b031691638da5cb5b916004808301926020929190829003018186803b15801561063957600080fd5b505afa15801561064d573d6000803e3d6000fd5b505050506040513d602081101561066357600080fd5b50516001600160a01b031614156106db576007546040805163f2fde38b60e01b81526001600160a01b0384811660048301529151919092169163f2fde38b91602480830192600092919082900301818387803b1580156106c257600080fd5b505af11580156106d6573d6000803e3d6000fd5b505050505b60085460408051638da5cb5b60e01b8152905130926001600160a01b031691638da5cb5b916004808301926020929190829003018186803b15801561071f57600080fd5b505afa158015610733573d6000803e3d6000fd5b505050506040513d602081101561074957600080fd5b50516001600160a01b031614156107c1576008546040805163f2fde38b60e01b81526001600160a01b0384811660048301529151919092169163f2fde38b91602480830192600092919082900301818387803b1580156107a857600080fd5b505af11580156107bc573d6000803e3d6000fd5b505050505b50565b6003546001600160a01b031681565b600254604080516364e329cb60e11b81526001600160a01b03858116600483015284811660248301529151600093929092169163c9c653969160448082019260209290919082900301818787803b15801561082d57600080fd5b505af1158015610841573d6000803e3d6000fd5b505050506040513d602081101561085757600080fd5b505160075460408051634c1d96ab60e11b81526001600160a01b038085166004830152915193945091169163983b2d56916024808201926020929091908290030181600087803b1580156108aa57600080fd5b505af11580156108be573d6000803e3d6000fd5b505050506040513d60208110156108d457600080fd5b505060085460408051634c1d96ab60e11b81526001600160a01b0384811660048301529151919092169163983b2d569160248083019260209291908290030181600087803b15801561092557600080fd5b505af1158015610939573d6000803e3d6000fd5b505050506040513d602081101561094f57600080fd5b50506003546040805163678e18b560e11b81526001600160a01b0384811660048301529151919092169163cf1c316a9160248083019260209291908290030181600087803b1580156109a057600080fd5b505af11580156109b4573d6000803e3d6000fd5b505050506040513d60208110156109ca57600080fd5b50506006546040805163678e18b560e11b81526001600160a01b0384811660048301529151919092169163cf1c316a9160248083019260209291908290030181600087803b158015610a1b57600080fd5b505af1158015610a2f573d6000803e3d6000fd5b505050506040513d60208110156107bc57600080fd5b730d500b1d8e8ef31e21c99d1db9a6444d3adf127081565b600280546001600160a01b0319166001600160a01b0392909216919091179055565b60018181548110610a8c57fe5b6000918252602090912001546001600160a01b0316905081565b732791bca1f2de4661ed88a30c99a7a9449aa8417481565b815b81811015610bae57600060018281548110610ad757fe5b60009182526020808320909101546002546040805163e6a4390560e01b81526001600160a01b0393841660048201819052732791bca1f2de4661ed88a30c99a7a9449aa8417460248301529151919650919092169263e6a4390592604480840193829003018186803b158015610b4c57600080fd5b505afa158015610b60573d6000803e3d6000fd5b505050506040513d6020811015610b7657600080fd5b50516001600160a01b03161415610ba557610ba581732791bca1f2de4661ed88a30c99a7a9449aa841746107d3565b50600101610ac0565b505050565b815b81811015610bae576000808281548110610bcb57fe5b60009182526020808320909101546002546040805163e6a4390560e01b81526001600160a01b039384166004820181905273c2132d05d31c914a87c6611c10748aeb04b58e8f60248301529151919650919092169263e6a4390592604480840193829003018186803b158015610c4057600080fd5b505afa158015610c54573d6000803e3d6000fd5b505050506040513d6020811015610c6a57600080fd5b50516001600160a01b03161415610c9957610c998173c2132d05d31c914a87c6611c10748aeb04b58e8f6107d3565b50600101610bb5565b600580546001600160a01b03199081166001600160a01b0398891617909155600280548216968816969096179095556003805486169487169490941790935560068054851692861692909217909155600780548416918516919091179055600880549092169216919091179055565b6006546001600160a01b031681565b60008181548110610a8c57fe5b60408051600580825260c082019092526060916020820160a080368337505060025460408051638da5cb5b60e01b815290519394506001600160a01b0390911692638da5cb5b92506004808301926020929190829003018186803b158015610d9457600080fd5b505afa158015610da8573d6000803e3d6000fd5b505050506040513d6020811015610dbe57600080fd5b505181518290600090610dcd57fe5b6001600160a01b0392831660209182029290920181019190915260035460408051638da5cb5b60e01b815290519190931692638da5cb5b926004808301939192829003018186803b158015610e2157600080fd5b505afa158015610e35573d6000803e3d6000fd5b505050506040513d6020811015610e4b57600080fd5b5051815182906001908110610e5c57fe5b6001600160a01b0392831660209182029290920181019190915260065460408051638da5cb5b60e01b815290519190931692638da5cb5b926004808301939192829003018186803b158015610eb057600080fd5b505afa158015610ec4573d6000803e3d6000fd5b505050506040513d6020811015610eda57600080fd5b5051815182906002908110610eeb57fe5b6001600160a01b0392831660209182029290920181019190915260075460408051638da5cb5b60e01b815290519190931692638da5cb5b926004808301939192829003018186803b158015610f3f57600080fd5b505afa158015610f53573d6000803e3d6000fd5b505050506040513d6020811015610f6957600080fd5b5051815182906003908110610f7a57fe5b6001600160a01b0392831660209182029290920181019190915260085460408051638da5cb5b60e01b815290519190931692638da5cb5b926004808301939192829003018186803b158015610fce57600080fd5b505afa158015610fe2573d6000803e3d6000fd5b505050506040513d6020811015610ff857600080fd5b505181518290600490811061100957fe5b60200260200101906001600160a01b031690816001600160a01b03168152505090565b6005546001600160a01b031681565b73c2132d05d31c914a87c6611c10748aeb04b58e8f81565b6007546001600160a01b031681565b6002546001600160a01b031681565b6008546001600160a01b03168156fea264697066735822122049aae6a9d06953c8f8b47250b7194ee47b4b1b6fc5b44fccc8711412a746ac5564736f6c634300060c0033",
  "immutableReferences": {},
  "source": "// SPDX-License-Identifier: MIT\npragma solidity ^0.6.0;\n\nimport \"./BoboFactory.sol\";\nimport \"./BoboFarmer4HangingOrder.sol\";\nimport \"./BoboRouter.sol\";\nimport \"./BoboPair.sol\";\nimport \"./StratMaticSushi.sol\";\nimport \"./manager/EXManager.sol\";\nimport \"./common/orderNFT.sol\";\nimport \"./common/orderDetailNFT.sol\";\n\n// 0x1393A1581652E2Bf204A5cA55D64dF9Ea89416f4\ncontract BatchCreatePairs {\n    using SafeMath for uint256;\n    using SafeERC20 for IERC20;\n    using EnumerableSet for EnumerableSet.UintSet;\n    using EnumerableSet for EnumerableSet.AddressSet;\n    \n    \n    address public constant USDT = 0xc2132D05D31c914a87C6611C10748AEb04B58e8F;\n    address public constant USDC = 0x2791Bca1f2de4661ED88A30C99A7a9449Aa84174;\n    address public constant WMATIC = 0x0d500B1d8E8eF31E21C99d1Db9A6444d3ADf1270;\n    \n    \n    address[] public USDT_PEERS = [\n                  0x0d500B1d8E8eF31E21C99d1Db9A6444d3ADf1270,\n                  0x7ceB23fD6bC0adD59E62ac25578270cFf1b9f619,\n                  0x1BFD67037B42Cf73acF2047067bd4F2C47D9BfD6, \n                  0x2791Bca1f2de4661ED88A30C99A7a9449Aa84174, \n                  0x8f3Cf7ad23Cd3CaDbD9735AFf958023239c6A063, \n                  0x53E0bca35eC356BD5ddDFebbD1Fc0fD03FaBad39, \n                  0x9c2C5fd7b07E95EE044DDeba0E97a665F142394f, \n                  0xb33EaAd8d922B1083446DC23f610c2567fB5180f,\n                  0xD6DF932A45C0f255f85145f286eA0b292B21C90B\n                ];\n    \n    address[] public USDC_PEERS = [\n                  0x0d500B1d8E8eF31E21C99d1Db9A6444d3ADf1270,\n                  0x7ceB23fD6bC0adD59E62ac25578270cFf1b9f619,\n                  0x1BFD67037B42Cf73acF2047067bd4F2C47D9BfD6, \n                  0x8f3Cf7ad23Cd3CaDbD9735AFf958023239c6A063, \n                  0x53E0bca35eC356BD5ddDFebbD1Fc0fD03FaBad39, \n                  0x9c2C5fd7b07E95EE044DDeba0E97a665F142394f, \n                  0xb33EaAd8d922B1083446DC23f610c2567fB5180f,\n                  0xD6DF932A45C0f255f85145f286eA0b292B21C90B \n                ];\n                \n    BoboFactory public boboFactory = BoboFactory(0x0326D887A6dde69E874EA70Fd842658125Eafc41);\n    BoboFarmer public boboFarmer = BoboFarmer(0xd79Df7Ec6Ff4f5dDc53A3D60ecaf25316a532baD);\n    StratMaticSushi public strat;\n    address public boboRouter;\n    \n    \n    EXManager public exManager = EXManager(0x7a29BefCb6d0c6FEBdD33003Fa08b139C63C2367);\n    OrderNFT public orderNFT = OrderNFT(0x04673384398379a84d05895456AE02fc05B4a509);\n    OrderDetailNFT public orderDetailNFT = OrderDetailNFT(0x75508A1de2183a1F2Bf1822d6794698c953A1788);\n    \n    constructor (address _boboRouter, address _factory, address _farmer, address _exManager, address _orderNFT, address _orderDetailNFT) public {  \n        setAddrs(_boboRouter, _factory, _farmer, _exManager, _orderNFT, _orderDetailNFT);\n    }\n    \n    function setAddrs(address _boboRouter, address _factory, address _farmer, address _exManager, address _orderNFT, address _orderDetailNFT) public {\n        boboRouter = _boboRouter;\n        boboFactory = BoboFactory(_factory);\n        boboFarmer = BoboFarmer(_farmer);\n        exManager = EXManager(_exManager);\n        orderNFT = OrderNFT(_orderNFT);\n        orderDetailNFT = OrderDetailNFT(_orderDetailNFT);\n    }\n\n    function setFactory(address _factory) public {\n        boboFactory = BoboFactory(_factory);\n    }\n    \n    function creatOnePair(address _quoteToken, address _baseToken) public {        \n        address pairAddr = boboFactory.createPair(_quoteToken, _baseToken);\n        \n        orderNFT.addMinter(pairAddr);\n        orderDetailNFT.addMinter(pairAddr);\n        boboFarmer.addAuthorized(pairAddr);\n        EXManager(exManager).addAuthorized(pairAddr);\n    }\n    \n    function creatUSDTPeers(uint256 _fromIndex, uint256 _toIndex) public {\n        for (uint256 i = _fromIndex; i < _toIndex; i++) {\n            address usdtPeer = USDT_PEERS[i];\n            if (boboFactory.getPair(usdtPeer, USDT) == address(0)) {\n                creatOnePair(usdtPeer, USDT);\n            }\n        }\n    }\n    \n    function creatUSDCPeers(uint256 _fromIndex, uint256 _toIndex) public {\n        for (uint256 i = _fromIndex; i < _toIndex; i++) {\n            address usdcPeer = USDC_PEERS[i];\n            if (boboFactory.getPair(usdcPeer, USDC) == address(0)) {\n                creatOnePair(usdcPeer, USDC);\n            }\n        }\n    }\n    \n    function transferAllOwner(address _newOwner) public {\n        if (boboFactory.owner() == address(this))\n            boboFactory.transferOwnership(_newOwner);\n        if (boboFarmer.owner() == address(this))\n            boboFarmer.transferOwnership(_newOwner);\n        if (exManager.owner() == address(this))\n            exManager.transferOwnership(_newOwner);\n        if (orderNFT.owner() == address(this))\n            orderNFT.transferOwnership(_newOwner);\n        if (orderDetailNFT.owner() == address(this))\n            orderDetailNFT.transferOwnership(_newOwner);\n    }\n    \n    function getOwners() view public returns(address[] memory ownerAddrs) {\n        ownerAddrs = new address[](5);\n        ownerAddrs[0] = boboFactory.owner();\n        ownerAddrs[1] = boboFarmer.owner();\n        ownerAddrs[2] = exManager.owner();\n        ownerAddrs[3] = orderNFT.owner();\n        ownerAddrs[4] = orderDetailNFT.owner();\n    }\n}",
  "sourcePath": "/Users/mryu/blockchain/bobo-metaverse/boboswap-contract/contracts/BatchCreatePairs.sol",
  "compiler": {
    "name": "solc",
    "version": "0.6.12+commit.27d51765.Emscripten.clang"
  },
  "schemaVersion": "3.4.3",
  "updatedAt": "2021-10-22T07:48:09.738Z",
  "networkType": "ethereum",
  "devdoc": {
    "kind": "dev",
    "methods": {},
    "version": 1
  },
  "userdoc": {
    "kind": "user",
    "methods": {},
    "version": 1
  }
}