{
  "contractName": "BoboPair",
  "abi": [
    {
      "inputs": [],
      "stateMutability": "nonpayable",
      "type": "constructor"
    },
    {
      "anonymous": false,
      "inputs": [
        {
          "indexed": true,
          "internalType": "uint256",
          "name": "id",
          "type": "uint256"
        },
        {
          "indexed": false,
          "internalType": "uint256",
          "name": "inAmount",
          "type": "uint256"
        },
        {
          "indexed": false,
          "internalType": "uint256",
          "name": "outAmount",
          "type": "uint256"
        }
      ],
      "name": "OrderDealed",
      "type": "event"
    },
    {
      "anonymous": false,
      "inputs": [
        {
          "indexed": true,
          "internalType": "uint256",
          "name": "id",
          "type": "uint256"
        },
        {
          "indexed": true,
          "internalType": "uint256",
          "name": "parentId",
          "type": "uint256"
        },
        {
          "indexed": false,
          "internalType": "bool",
          "name": "_bBuyQuoteToken",
          "type": "bool"
        },
        {
          "indexed": false,
          "internalType": "uint256",
          "name": "spotPrice",
          "type": "uint256"
        },
        {
          "indexed": false,
          "internalType": "uint256",
          "name": "inAmount",
          "type": "uint256"
        }
      ],
      "name": "OrderHanging",
      "type": "event"
    },
    {
      "anonymous": false,
      "inputs": [
        {
          "indexed": true,
          "internalType": "uint256",
          "name": "id",
          "type": "uint256"
        }
      ],
      "name": "OrderManualCanceled",
      "type": "event"
    },
    {
      "anonymous": false,
      "inputs": [
        {
          "indexed": true,
          "internalType": "address",
          "name": "previousOwner",
          "type": "address"
        },
        {
          "indexed": true,
          "internalType": "address",
          "name": "newOwner",
          "type": "address"
        }
      ],
      "name": "OwnershipTransferred",
      "type": "event"
    },
    {
      "anonymous": false,
      "inputs": [
        {
          "indexed": true,
          "internalType": "address",
          "name": "owner",
          "type": "address"
        },
        {
          "indexed": true,
          "internalType": "address",
          "name": "spender",
          "type": "address"
        },
        {
          "indexed": false,
          "internalType": "uint256",
          "name": "value",
          "type": "uint256"
        }
      ],
      "name": "SwapSuccess",
      "type": "event"
    },
    {
      "inputs": [],
      "name": "BaseAmountIn",
      "outputs": [
        {
          "internalType": "uint256",
          "name": "",
          "type": "uint256"
        }
      ],
      "stateMutability": "view",
      "type": "function"
    },
    {
      "inputs": [],
      "name": "BasePercent",
      "outputs": [
        {
          "internalType": "uint256",
          "name": "",
          "type": "uint256"
        }
      ],
      "stateMutability": "view",
      "type": "function"
    },
    {
      "inputs": [],
      "name": "OneDaySeconds",
      "outputs": [
        {
          "internalType": "uint256",
          "name": "",
          "type": "uint256"
        }
      ],
      "stateMutability": "view",
      "type": "function"
    },
    {
      "inputs": [
        {
          "internalType": "address",
          "name": "_authorizedAddr",
          "type": "address"
        }
      ],
      "name": "addAuthorized",
      "outputs": [
        {
          "internalType": "bool",
          "name": "",
          "type": "bool"
        }
      ],
      "stateMutability": "nonpayable",
      "type": "function"
    },
    {
      "inputs": [],
      "name": "baseToken",
      "outputs": [
        {
          "internalType": "address",
          "name": "",
          "type": "address"
        }
      ],
      "stateMutability": "view",
      "type": "function"
    },
    {
      "inputs": [],
      "name": "baseTokenDecimals",
      "outputs": [
        {
          "internalType": "uint256",
          "name": "",
          "type": "uint256"
        }
      ],
      "stateMutability": "view",
      "type": "function"
    },
    {
      "inputs": [],
      "name": "boboFarmer",
      "outputs": [
        {
          "internalType": "contract IBoboFarmer",
          "name": "",
          "type": "address"
        }
      ],
      "stateMutability": "view",
      "type": "function"
    },
    {
      "inputs": [
        {
          "internalType": "address",
          "name": "_authorizedAddr",
          "type": "address"
        }
      ],
      "name": "delAuthorized",
      "outputs": [
        {
          "internalType": "bool",
          "name": "",
          "type": "bool"
        }
      ],
      "stateMutability": "nonpayable",
      "type": "function"
    },
    {
      "inputs": [],
      "name": "exManager",
      "outputs": [
        {
          "internalType": "contract IExchangeManager",
          "name": "",
          "type": "address"
        }
      ],
      "stateMutability": "view",
      "type": "function"
    },
    {
      "inputs": [],
      "name": "factory",
      "outputs": [
        {
          "internalType": "address",
          "name": "",
          "type": "address"
        }
      ],
      "stateMutability": "view",
      "type": "function"
    },
    {
      "inputs": [
        {
          "internalType": "uint256",
          "name": "_index",
          "type": "uint256"
        }
      ],
      "name": "getAuthorized",
      "outputs": [
        {
          "internalType": "address",
          "name": "",
          "type": "address"
        }
      ],
      "stateMutability": "view",
      "type": "function"
    },
    {
      "inputs": [],
      "name": "getAuthorizedLength",
      "outputs": [
        {
          "internalType": "uint256",
          "name": "",
          "type": "uint256"
        }
      ],
      "stateMutability": "view",
      "type": "function"
    },
    {
      "inputs": [
        {
          "internalType": "bool",
          "name": "_bBuy",
          "type": "bool"
        }
      ],
      "name": "getHeaderOrderIndex",
      "outputs": [
        {
          "internalType": "bool",
          "name": "exist",
          "type": "bool"
        },
        {
          "internalType": "uint256",
          "name": "index",
          "type": "uint256"
        }
      ],
      "stateMutability": "view",
      "type": "function"
    },
    {
      "inputs": [
        {
          "internalType": "uint256",
          "name": "_orderId",
          "type": "uint256"
        }
      ],
      "name": "getOrderDetailNumber",
      "outputs": [
        {
          "internalType": "uint256",
          "name": "",
          "type": "uint256"
        }
      ],
      "stateMutability": "view",
      "type": "function"
    },
    {
      "inputs": [
        {
          "internalType": "bool",
          "name": "_bBuy",
          "type": "bool"
        },
        {
          "internalType": "uint256",
          "name": "_fromIndex",
          "type": "uint256"
        },
        {
          "internalType": "uint256",
          "name": "_toIndex",
          "type": "uint256"
        }
      ],
      "name": "getOrderInfos",
      "outputs": [
        {
          "components": [
            {
              "internalType": "uint256",
              "name": "id",
              "type": "uint256"
            },
            {
              "internalType": "uint256",
              "name": "parentId",
              "type": "uint256"
            },
            {
              "internalType": "address",
              "name": "owner",
              "type": "address"
            },
            {
              "internalType": "address",
              "name": "pairAddr",
              "type": "address"
            },
            {
              "internalType": "bool",
              "name": "bBuyQuoteToken",
              "type": "bool"
            },
            {
              "internalType": "uint256",
              "name": "spotPrice",
              "type": "uint256"
            },
            {
              "internalType": "uint256",
              "name": "inAmount",
              "type": "uint256"
            },
            {
              "internalType": "uint256",
              "name": "minOutAmount",
              "type": "uint256"
            },
            {
              "internalType": "uint256",
              "name": "outAmount",
              "type": "uint256"
            },
            {
              "internalType": "enum OrderStatus",
              "name": "status",
              "type": "uint8"
            },
            {
              "internalType": "uint256",
              "name": "delegateTime",
              "type": "uint256"
            },
            {
              "internalType": "uint256",
              "name": "dealedTime",
              "type": "uint256"
            },
            {
              "internalType": "uint256",
              "name": "weight",
              "type": "uint256"
            }
          ],
          "internalType": "struct OrderInfo[]",
          "name": "orderInfos",
          "type": "tuple[]"
        }
      ],
      "stateMutability": "view",
      "type": "function"
    },
    {
      "inputs": [
        {
          "internalType": "enum OrderStatus",
          "name": "_orderStatus",
          "type": "uint8"
        }
      ],
      "name": "getOrderNumber",
      "outputs": [
        {
          "internalType": "uint256",
          "name": "",
          "type": "uint256"
        }
      ],
      "stateMutability": "view",
      "type": "function"
    },
    {
      "inputs": [
        {
          "internalType": "bool",
          "name": "_bBuy",
          "type": "bool"
        }
      ],
      "name": "getTotalOrderNumber",
      "outputs": [
        {
          "internalType": "uint256",
          "name": "",
          "type": "uint256"
        }
      ],
      "stateMutability": "view",
      "type": "function"
    },
    {
      "inputs": [
        {
          "internalType": "address",
          "name": "_userAddr",
          "type": "address"
        }
      ],
      "name": "getUserDealedOrderNumber",
      "outputs": [
        {
          "internalType": "uint256",
          "name": "",
          "type": "uint256"
        }
      ],
      "stateMutability": "view",
      "type": "function"
    },
    {
      "inputs": [
        {
          "internalType": "address",
          "name": "_userAddr",
          "type": "address"
        },
        {
          "internalType": "uint256",
          "name": "_index",
          "type": "uint256"
        }
      ],
      "name": "getUserHangingOrderId",
      "outputs": [
        {
          "internalType": "uint256",
          "name": "",
          "type": "uint256"
        }
      ],
      "stateMutability": "view",
      "type": "function"
    },
    {
      "inputs": [
        {
          "internalType": "address",
          "name": "_userAddr",
          "type": "address"
        },
        {
          "internalType": "uint256",
          "name": "_fromIndex",
          "type": "uint256"
        },
        {
          "internalType": "uint256",
          "name": "_toIndex",
          "type": "uint256"
        }
      ],
      "name": "getUserHangingOrderInfos",
      "outputs": [
        {
          "components": [
            {
              "internalType": "uint256",
              "name": "id",
              "type": "uint256"
            },
            {
              "internalType": "uint256",
              "name": "parentId",
              "type": "uint256"
            },
            {
              "internalType": "address",
              "name": "owner",
              "type": "address"
            },
            {
              "internalType": "address",
              "name": "pairAddr",
              "type": "address"
            },
            {
              "internalType": "bool",
              "name": "bBuyQuoteToken",
              "type": "bool"
            },
            {
              "internalType": "uint256",
              "name": "spotPrice",
              "type": "uint256"
            },
            {
              "internalType": "uint256",
              "name": "inAmount",
              "type": "uint256"
            },
            {
              "internalType": "uint256",
              "name": "minOutAmount",
              "type": "uint256"
            },
            {
              "internalType": "uint256",
              "name": "outAmount",
              "type": "uint256"
            },
            {
              "internalType": "enum OrderStatus",
              "name": "status",
              "type": "uint8"
            },
            {
              "internalType": "uint256",
              "name": "delegateTime",
              "type": "uint256"
            },
            {
              "internalType": "uint256",
              "name": "dealedTime",
              "type": "uint256"
            },
            {
              "internalType": "uint256",
              "name": "weight",
              "type": "uint256"
            }
          ],
          "internalType": "struct OrderInfo[]",
          "name": "orderInfos",
          "type": "tuple[]"
        }
      ],
      "stateMutability": "view",
      "type": "function"
    },
    {
      "inputs": [
        {
          "internalType": "address",
          "name": "_userAddr",
          "type": "address"
        }
      ],
      "name": "getUserHangingOrderNumber",
      "outputs": [
        {
          "internalType": "uint256",
          "name": "",
          "type": "uint256"
        }
      ],
      "stateMutability": "view",
      "type": "function"
    },
    {
      "inputs": [
        {
          "internalType": "address",
          "name": "_userAddr",
          "type": "address"
        }
      ],
      "name": "getUserOrderNumber",
      "outputs": [
        {
          "internalType": "uint256",
          "name": "",
          "type": "uint256"
        }
      ],
      "stateMutability": "view",
      "type": "function"
    },
    {
      "inputs": [
        {
          "internalType": "uint256",
          "name": "_nftId",
          "type": "uint256"
        }
      ],
      "name": "getValue",
      "outputs": [
        {
          "internalType": "uint256",
          "name": "",
          "type": "uint256"
        }
      ],
      "stateMutability": "view",
      "type": "function"
    },
    {
      "inputs": [
        {
          "internalType": "address",
          "name": "_authorizedAddr",
          "type": "address"
        }
      ],
      "name": "isAuthorized",
      "outputs": [
        {
          "internalType": "bool",
          "name": "",
          "type": "bool"
        }
      ],
      "stateMutability": "view",
      "type": "function"
    },
    {
      "inputs": [],
      "name": "lastRecordTime",
      "outputs": [
        {
          "internalType": "uint256",
          "name": "",
          "type": "uint256"
        }
      ],
      "stateMutability": "view",
      "type": "function"
    },
    {
      "inputs": [
        {
          "internalType": "address",
          "name": "",
          "type": "address"
        },
        {
          "internalType": "address",
          "name": "",
          "type": "address"
        },
        {
          "internalType": "uint256",
          "name": "",
          "type": "uint256"
        },
        {
          "internalType": "bytes",
          "name": "",
          "type": "bytes"
        }
      ],
      "name": "onERC721Received",
      "outputs": [
        {
          "internalType": "bytes4",
          "name": "",
          "type": "bytes4"
        }
      ],
      "stateMutability": "nonpayable",
      "type": "function"
    },
    {
      "inputs": [],
      "name": "orderNFT",
      "outputs": [
        {
          "internalType": "contract IOrderNFT",
          "name": "",
          "type": "address"
        }
      ],
      "stateMutability": "view",
      "type": "function"
    },
    {
      "inputs": [],
      "name": "owner",
      "outputs": [
        {
          "internalType": "address",
          "name": "",
          "type": "address"
        }
      ],
      "stateMutability": "view",
      "type": "function"
    },
    {
      "inputs": [],
      "name": "quoteToken",
      "outputs": [
        {
          "internalType": "address",
          "name": "",
          "type": "address"
        }
      ],
      "stateMutability": "view",
      "type": "function"
    },
    {
      "inputs": [],
      "name": "quoteTokenDecimals",
      "outputs": [
        {
          "internalType": "uint256",
          "name": "",
          "type": "uint256"
        }
      ],
      "stateMutability": "view",
      "type": "function"
    },
    {
      "inputs": [],
      "name": "renounceOwnership",
      "outputs": [],
      "stateMutability": "nonpayable",
      "type": "function"
    },
    {
      "inputs": [
        {
          "internalType": "enum OrderStatus",
          "name": "",
          "type": "uint8"
        },
        {
          "internalType": "uint256",
          "name": "",
          "type": "uint256"
        }
      ],
      "name": "sealedOrdersMap",
      "outputs": [
        {
          "internalType": "uint256",
          "name": "",
          "type": "uint256"
        }
      ],
      "stateMutability": "view",
      "type": "function"
    },
    {
      "inputs": [],
      "name": "startTime",
      "outputs": [
        {
          "internalType": "uint256",
          "name": "",
          "type": "uint256"
        }
      ],
      "stateMutability": "view",
      "type": "function"
    },
    {
      "inputs": [],
      "name": "totalVolumn",
      "outputs": [
        {
          "internalType": "uint256",
          "name": "",
          "type": "uint256"
        }
      ],
      "stateMutability": "view",
      "type": "function"
    },
    {
      "inputs": [
        {
          "internalType": "address",
          "name": "newOwner",
          "type": "address"
        }
      ],
      "name": "transferOwnership",
      "outputs": [],
      "stateMutability": "nonpayable",
      "type": "function"
    },
    {
      "inputs": [
        {
          "internalType": "address",
          "name": "",
          "type": "address"
        },
        {
          "internalType": "uint256",
          "name": "",
          "type": "uint256"
        }
      ],
      "name": "userDealedOrdersMap",
      "outputs": [
        {
          "internalType": "uint256",
          "name": "",
          "type": "uint256"
        }
      ],
      "stateMutability": "view",
      "type": "function"
    },
    {
      "inputs": [
        {
          "internalType": "address",
          "name": "",
          "type": "address"
        },
        {
          "internalType": "uint256",
          "name": "",
          "type": "uint256"
        }
      ],
      "name": "userOrdersMap",
      "outputs": [
        {
          "internalType": "uint256",
          "name": "",
          "type": "uint256"
        }
      ],
      "stateMutability": "view",
      "type": "function"
    },
    {
      "inputs": [
        {
          "internalType": "uint256",
          "name": "",
          "type": "uint256"
        }
      ],
      "name": "volumnList",
      "outputs": [
        {
          "internalType": "uint256",
          "name": "",
          "type": "uint256"
        }
      ],
      "stateMutability": "view",
      "type": "function"
    },
    {
      "inputs": [],
      "name": "volumnOf24Hours",
      "outputs": [
        {
          "internalType": "uint256",
          "name": "",
          "type": "uint256"
        }
      ],
      "stateMutability": "view",
      "type": "function"
    },
    {
      "inputs": [
        {
          "internalType": "address",
          "name": "_quoteToken",
          "type": "address"
        },
        {
          "internalType": "address",
          "name": "_baseToken",
          "type": "address"
        },
        {
          "internalType": "address",
          "name": "_authAddr",
          "type": "address"
        },
        {
          "internalType": "address",
          "name": "_boboFarmer",
          "type": "address"
        },
        {
          "internalType": "address",
          "name": "_orderNFT",
          "type": "address"
        }
      ],
      "name": "initialize",
      "outputs": [],
      "stateMutability": "nonpayable",
      "type": "function"
    },
    {
      "inputs": [
        {
          "internalType": "address",
          "name": "_exManager",
          "type": "address"
        }
      ],
      "name": "setExManager",
      "outputs": [],
      "stateMutability": "nonpayable",
      "type": "function"
    },
    {
      "inputs": [],
      "name": "getTokens",
      "outputs": [
        {
          "internalType": "address",
          "name": "",
          "type": "address"
        },
        {
          "internalType": "address",
          "name": "",
          "type": "address"
        }
      ],
      "stateMutability": "view",
      "type": "function"
    },
    {
      "inputs": [
        {
          "internalType": "address",
          "name": "_boboRouter",
          "type": "address"
        },
        {
          "internalType": "bool",
          "name": "_bBuyQuoteToken",
          "type": "bool"
        },
        {
          "internalType": "uint256",
          "name": "_spotPrice",
          "type": "uint256"
        },
        {
          "internalType": "uint256",
          "name": "_amountIn",
          "type": "uint256"
        }
      ],
      "name": "addLimitedOrder",
      "outputs": [],
      "stateMutability": "nonpayable",
      "type": "function"
    },
    {
      "inputs": [
        {
          "internalType": "address",
          "name": "_boboRouter",
          "type": "address"
        },
        {
          "internalType": "bool",
          "name": "_bBuyQuoteToken",
          "type": "bool"
        },
        {
          "internalType": "uint256",
          "name": "_amountIn",
          "type": "uint256"
        },
        {
          "internalType": "uint256",
          "name": "_minOutAmount",
          "type": "uint256"
        }
      ],
      "name": "addMarketOrder",
      "outputs": [],
      "stateMutability": "nonpayable",
      "type": "function"
    },
    {
      "inputs": [
        {
          "internalType": "address",
          "name": "_boboRouter",
          "type": "address"
        }
      ],
      "name": "getCurrentPrice",
      "outputs": [
        {
          "internalType": "uint256",
          "name": "",
          "type": "uint256"
        }
      ],
      "stateMutability": "view",
      "type": "function"
    },
    {
      "inputs": [
        {
          "internalType": "address",
          "name": "_userAddr",
          "type": "address"
        }
      ],
      "name": "getTotalHangingTokenAmount",
      "outputs": [
        {
          "internalType": "uint256",
          "name": "baseTokenAmount",
          "type": "uint256"
        },
        {
          "internalType": "uint256",
          "name": "quoteTokenAmount",
          "type": "uint256"
        }
      ],
      "stateMutability": "view",
      "type": "function"
    },
    {
      "inputs": [
        {
          "internalType": "uint256",
          "name": "_orderId",
          "type": "uint256"
        }
      ],
      "name": "getMaxOutAmountExpected",
      "outputs": [
        {
          "internalType": "uint256",
          "name": "",
          "type": "uint256"
        }
      ],
      "stateMutability": "view",
      "type": "function"
    },
    {
      "inputs": [
        {
          "internalType": "uint256",
          "name": "_orderId",
          "type": "uint256"
        }
      ],
      "name": "cancelOrder",
      "outputs": [
        {
          "internalType": "bool",
          "name": "",
          "type": "bool"
        }
      ],
      "stateMutability": "nonpayable",
      "type": "function"
    }
  ],
  "bytecode": "0x60806040523480156200001157600080fd5b5060006200001e6200009d565b600080546001600160a01b0319166001600160a01b0383169081178255604051929350917f8be0079c531659141344cd1fd0a4f28419497f9722a3daafe3b4186f6b6457e0908290a3506001600955600c80546001600160a01b031916339081179091556200008d90620000a1565b5042601181905560125562000244565b3390565b6000620000ad6200009d565b6000546001600160a01b03908116911614620000e65760405162461bcd60e51b8152600401620000dd90620001b2565b60405180910390fd5b6001600160a01b0382166200010f5760405162461bcd60e51b8152600401620000dd90620001e7565b620001276001836200012d60201b62001f131760201c565b92915050565b600062000144836001600160a01b0384166200014b565b9392505050565b60006200015983836200019a565b620001915750815460018181018455600084815260208082209093018490558454848252828601909352604090209190915562000127565b50600062000127565b60009081526001919091016020526040902054151590565b6020808252818101527f4f776e61626c653a2063616c6c6572206973206e6f7420746865206f776e6572604082015260600190565b60208082526035908201527f4d6978696e417574686f72697a61626c653a205f616464417574686f72697a6560408201527f6420697320746865207a65726f20616464726573730000000000000000000000606082015260800190565b6146a280620002546000396000f3fe608060405234801561001057600080fd5b50600436106102a05760003560e01c806384cc315b11610167578063c63cc564116100ce578063e99d18c811610087578063e99d18c814610565578063ec35214e14610578578063f1f07cc914610599578063f2fde38b146105a1578063f407c2ce146105b4578063fe9fbb80146105c7576102a0565b8063c63cc564146104fe578063cd5a877814610511578063cdd2a4d114610524578063cf1c316a14610537578063d4d728da1461054a578063dd4ee56514610552576102a0565b80639eedc492116101205780639eedc492146104aa578063aa6ca808146104b2578063b35ac8b2146104c8578063c45a0155146104db578063c55dae63146104e3578063c6388845146104eb576102a0565b806384cc315b146104595780638862f2851461046c5780638a2061171461047f5780638da5cb5b14610487578063952c70fb1461048f57806397d87393146104a2576102a0565b80633f2b17f31161020b5780635f0a1feb116101c45780635f0a1feb1461041e5780636b6f132014610431578063715018a61461043957806378e979251461044157806382aa1c88146104495780638342762514610451576102a0565b80633f2b17f3146103915780634b0cd2ab146103a45780634b92031d146103c55780634bba8050146103d8578063514fcac7146103eb57806359fc7223146103fe576102a0565b806327624b071161025d57806327624b07146103335780632d6111311461033b57806331a40b621461034e5780633397e5271461036e578063392da1b0146103765780633c72814d1461037e576102a0565b80630ff4c916146102a55780631459457a146102ce578063150b7a02146102e35780631960e232146103035780631b11481714610318578063217a4b701461032b575b600080fd5b6102b86102b3366004613e22565b6105da565b6040516102c5919061457b565b60405180910390f35b6102e16102dc366004613afd565b61067f565b005b6102f66102f1366004613b6d565b610824565b6040516102c59190614069565b61030b610835565b6040516102c59190613eb7565b6102b8610326366004613c6a565b610844565b61030b610872565b6102b8610881565b6102b8610349366004613ae1565b610887565b61036161035c366004613ae1565b6108a2565b6040516102c59190614036565b6102b8610910565b6102b8610921565b6102b861038c366004613d20565b610927565b6102e161039f366004613c25565b61095b565b6103b76103b2366004613cc9565b610dbd565b6040516102c5929190614041565b6102b86103d3366004613c6a565b610de5565b6102b86103e6366004613e22565b610e0e565b6103616103f9366004613e22565b610e8f565b61041161040c366004613d01565b611168565b6040516102c59190613f4b565b61041161042c366004613c95565b611354565b6102b86114e2565b6102e16114e9565b6102b8611568565b6102b861156e565b6102b8611574565b6102b8610467366004613ae1565b61157c565b6102b861047a366004613c6a565b611632565b6102b861164b565b61030b611651565b6102b861049d366004613d3c565b611660565b61030b611679565b6102b8611688565b6104ba61168e565b6040516102c5929190613f08565b6102b86104d6366004613cc9565b6116a5565b61030b6116bf565b61030b6116ce565b6102b86104f9366004613ae1565b6116dd565b61030b61050c366004613e22565b6116f8565b6102b861051f366004613ae1565b61172f565b6102b8610532366004613e22565b611750565b610361610545366004613ae1565b611919565b61030b611981565b6102b8610560366004613e22565b611990565b6102e1610573366004613ae1565b6119ae565b61058b610586366004613ae1565b6119f5565b6040516102c59291906145e3565b6102b8611aee565b6102e16105af366004613ae1565b611af4565b6102e16105c2366004613c25565b611baa565b6103616105d5366004613ae1565b611f06565b6000816105e95750600061067a565b6105f1613a39565b60035460405163d311636b60e01b81526001600160a01b039091169063d311636b9061062190869060040161457b565b6101a06040518083038186803b15801561063a57600080fd5b505afa15801561064e573d6000803e3d6000fd5b505050506040513d601f19601f820116820180604052508101906106729190613d59565b60a001519150505b919050565b610687611f28565b6000546001600160a01b039081169116146106bd5760405162461bcd60e51b81526004016106b49061435f565b60405180910390fd5b600d80546001600160a01b038088166001600160a01b03199283161792839055600e80548883169316929092179091556040805163313ce56760e01b81529051929091169163313ce56791600480820192602092909190829003018186803b15801561072857600080fd5b505afa15801561073c573d6000803e3d6000fd5b505050506040513d601f19601f820116820180604052508101906107609190613e75565b60ff16600f55600e546040805163313ce56760e01b815290516001600160a01b039092169163313ce56791600480820192602092909190829003018186803b1580156107ab57600080fd5b505afa1580156107bf573d6000803e3d6000fd5b505050506040513d601f19601f820116820180604052508101906107e39190613e75565b60ff166010556107f283611919565b50600b80546001600160a01b039384166001600160a01b03199182161790915560038054929093169116179055505050565b630a85bd0160e11b5b949350505050565b600b546001600160a01b031681565b6005602052816000526040600020818154811061085d57fe5b90600052602060002001600091509150505481565b600d546001600160a01b031681565b600f5481565b6001600160a01b031660009081526005602052604090205490565b60006108ac611f28565b6000546001600160a01b039081169116146108d95760405162461bcd60e51b81526004016106b49061435f565b6001600160a01b0382166108ff5760405162461bcd60e51b81526004016106b4906144d7565b61090a600183611f2c565b92915050565b600061091c6001611f41565b905090565b60135481565b60006008600083600281111561093957fe5b600281111561094457fe5b815260208101919091526040016000205492915050565b6002600954141561097e5760405162461bcd60e51b81526004016106b49061444b565b6002600955600080846109a357600d54600e546001600160a01b0391821691166109b7565b600e54600d546001600160a01b0391821691165b600a54604051633ba7c4f760e11b81529294509092506001600160a01b03169063774f89ee906109eb908590600401613eb7565b60206040518083038186803b158015610a0357600080fd5b505afa158015610a17573d6000803e3d6000fd5b505050506040513d601f19601f82011682018060405250810190610a3b9190613e3a565b841015610a5a5760405162461bcd60e51b81526004016106b490614230565b600a54604051634bbc433d60e11b81526001600160a01b0390911690639778867a90610a8a908990600401613eb7565b60206040518083038186803b158015610aa257600080fd5b505afa158015610ab6573d6000803e3d6000fd5b505050506040513d601f19601f82011682018060405250810190610ada9190613ce5565b610af65760405162461bcd60e51b81526004016106b490614394565b6040516323b872dd60e01b81526001600160a01b038316906323b872dd90610b2690339030908990600401613ecb565b602060405180830381600087803b158015610b4057600080fd5b505af1158015610b54573d6000803e3d6000fd5b505050506040513d601f19601f82011682018060405250810190610b789190613ce5565b50600a54604051633418ea4560e11b81526000916001600160a01b031690636831d48a90610bae90339087908a90600401613ecb565b602060405180830381600087803b158015610bc857600080fd5b505af1158015610bdc573d6000803e3d6000fd5b505050506040513d601f19601f82011682018060405250810190610c009190613e3a565b90508015610c9057600a5460405163a9059cbb60e01b81526001600160a01b038581169263a9059cbb92610c3c92909116908590600401613eef565b602060405180830381600087803b158015610c5657600080fd5b505af1158015610c6a573d6000803e3d6000fd5b505050506040513d601f19601f82011682018060405250810190610c8e9190613ce5565b505b610c9a8582611f4c565b9450600086610cca57610cc586610cbf600f54600a0a88611f8e90919063ffffffff16565b90611fc8565b610ce6565b610ce685610cbf600f54600a0a89611f8e90919063ffffffff16565b90506000610cf8600089848a8a61200a565b9050600080610d0e8b8b8989888e8e600061212e565b915091508160001415610d2b57610d25838261269d565b50610dab565b6000610d378a84611f4c565b6003546040516302d0ce8560e41b81529192506001600160a01b031690632d0ce85090610d6c908790859087906004016145f1565b600060405180830381600087803b158015610d8657600080fd5b505af1158015610d9a573d6000803e3d6000fd5b50505050610da8848361269d565b50505b50506001600955505050505050505050565b80151560009081526007602052604081208190610ddc90826001612895565b91509150915091565b6001600160a01b0382166000908152600660205260408120610e0790836128dc565b9392505050565b6003546040516304bba80560e41b81526000916001600160a01b031690634bba805090610e3f90859060040161457b565b60206040518083038186803b158015610e5757600080fd5b505afa158015610e6b573d6000803e3d6000fd5b505050506040513d601f19601f8201168201806040525081019061090a9190613e3a565b6000610e9a826128e8565b50610ea3613a39565b60035460405163d311636b60e01b81526001600160a01b039091169063d311636b90610ed390869060040161457b565b6101a06040518083038186803b158015610eec57600080fd5b505afa158015610f00573d6000803e3d6000fd5b505050506040513d601f19601f82011682018060405250810190610f249190613d59565b905060008160800151610f4257600d546001600160a01b0316610f4f565b600e546001600160a01b03165b600b5460405163e6a0802560e01b81529192506000916001600160a01b039091169063e6a0802590610f85908590600401613eb7565b60206040518083038186803b158015610f9d57600080fd5b505afa158015610fb1573d6000803e3d6000fd5b505050506040513d601f19601f82011682018060405250810190610fd59190613e3a565b11156110d757600b5460408084015160c08501519151636ce5768960e11b81526001600160a01b039093169263d9caed1292611018928692909190600401613ecb565b600060405180830381600087803b15801561103257600080fd5b505af1158015611046573d6000803e3d6000fd5b50505060408084015160c0850151915163a9059cbb60e01b81526001600160a01b038516935063a9059cbb9261107f9291600401613eef565b602060405180830381600087803b15801561109957600080fd5b505af11580156110ad573d6000803e3d6000fd5b505050506040513d601f19601f820116820180604052508101906110d19190613ce5565b50611161565b806001600160a01b031663a9059cbb83604001518460c001516040518363ffffffff1660e01b815260040161110d929190613eef565b602060405180830381600087803b15801561112757600080fd5b505af115801561113b573d6000803e3d6000fd5b505050506040513d601f19601f8201168201806040525081019061115f9190613ce5565b505b5050919050565b82151560009081526007602052604081206060919061118690612ace565b905080831115611194578092505b8284106111b35760405162461bcd60e51b81526004016106b4906142dc565b83830367ffffffffffffffff811180156111cc57600080fd5b5060405190808252806020026020018201604052801561120657816020015b6111f3613a39565b8152602001906001900390816111eb5790505b508515156000908152600760205260408120919350908190819061122a9082612ad2565b915091505b858310801561123b5750815b1561134957868310156112735787151560009081526007602052604090206112639082612ad2565b600190940193909250905061122f565b61127b613a39565b60035460405163d311636b60e01b81526001600160a01b039091169063d311636b906112ab90859060040161457b565b6101a06040518083038186803b1580156112c457600080fd5b505afa1580156112d8573d6000803e3d6000fd5b505050506040513d601f19601f820116820180604052508101906112fc9190613d59565b905080868986038151811061130d57fe5b60209081029190910181019190915289151560009081526007909152604090206113379083612ad2565b600190950194909350915061122f9050565b505050509392505050565b6001600160a01b03831660009081526006602052604081206060919061137990611f41565b905080831115611387578092505b8284106113a65760405162461bcd60e51b81526004016106b4906142dc565b83830367ffffffffffffffff811180156113bf57600080fd5b506040519080825280602002602001820160405280156113f957816020015b6113e6613a39565b8152602001906001900390816113de5790505b509150835b838110156114d9576001600160a01b038616600090815260066020526040812061142890836128dc565b9050611432613a39565b60035460405163d311636b60e01b81526001600160a01b039091169063d311636b9061146290859060040161457b565b6101a06040518083038186803b15801561147b57600080fd5b505afa15801561148f573d6000803e3d6000fd5b505050506040513d601f19601f820116820180604052508101906114b39190613d59565b90508085888503815181106114c457fe5b602090810291909101015250506001016113fe565b50509392505050565b6201518081565b6114f1611f28565b6000546001600160a01b0390811691161461151e5760405162461bcd60e51b81526004016106b49061435f565b600080546040516001600160a01b03909116907f8be0079c531659141344cd1fd0a4f28419497f9722a3daafe3b4186f6b6457e0908390a3600080546001600160a01b0319169055565b60115481565b60105481565b633b9aca0081565b600e54600d546040516312f69a7760e01b815260009283926001600160a01b03808716936312f69a77936115be93908316921690633b9aca0090600401613ecb565b60206040518083038186803b1580156115d657600080fd5b505afa1580156115ea573d6000803e3d6000fd5b505050506040513d601f19601f8201168201806040525081019061160e9190613e3a565b9050600061082d82610cbf600f54600a0a633b9aca00611f8e90919063ffffffff16565b6004602052816000526040600020818154811061085d57fe5b60125481565b6000546001600160a01b031690565b6008602052816000526040600020818154811061085d57fe5b600a546001600160a01b031681565b61271081565b600d54600e546001600160a01b0391821691169091565b801515600090815260076020526040812061090a90612ace565b600c546001600160a01b031681565b600e546001600160a01b031681565b6001600160a01b031660009081526004602052604090205490565b60006001611704610910565b038211156117245760405162461bcd60e51b81526004016106b4906143d6565b61090a6001836128dc565b6001600160a01b038116600090815260066020526040812061090a90611f41565b600061175a613a39565b60035460405163d311636b60e01b81526001600160a01b039091169063d311636b9061178a90869060040161457b565b6101a06040518083038186803b1580156117a357600080fd5b505afa1580156117b7573d6000803e3d6000fd5b505050506040513d601f19601f820116820180604052508101906117db9190613d59565b90506000816080015161180057600d54600e546001600160a01b039182169116611814565b600e54600d546001600160a01b0391821691165b50600a5460408085015160c08601519151630f74f4f360e11b81529394506000936001600160a01b0390931692631ee9e9e6926118579291879190600401613ecb565b604080518083038186803b15801561186e57600080fd5b505afa158015611882573d6000803e3d6000fd5b505050506040513d601f19601f820116820180604052508101906118a69190613e52565b509050600083608001516118e7576118e2600f54600a0a610cbf8660a001516118dc868960c00151611f4c90919063ffffffff16565b90611f8e565b61190f565b61190f8460a00151610cbf600f54600a0a6118dc868960c00151611f4c90919063ffffffff16565b9695505050505050565b6000611923611f28565b6000546001600160a01b039081169116146119505760405162461bcd60e51b81526004016106b49061435f565b6001600160a01b0382166119765760405162461bcd60e51b81526004016106b490614482565b61090a600183611f13565b6003546001600160a01b031681565b6015818154811061199d57fe5b600091825260209091200154905081565b6119b733611f06565b6119d35760405162461bcd60e51b81526004016106b49061441c565b600a80546001600160a01b0319166001600160a01b0392909216919091179055565b6000806000611a038461172f565b905060005b81811015611ae7576000611a1c8683610de5565b9050611a26613a39565b60035460405163d311636b60e01b81526001600160a01b039091169063d311636b90611a5690859060040161457b565b6101a06040518083038186803b158015611a6f57600080fd5b505afa158015611a83573d6000803e3d6000fd5b505050506040513d601f19601f82011682018060405250810190611aa79190613d59565b9050806080015115611aca5760c0810151611ac3908790612aec565b9550611add565b60c0810151611ada908690612aec565b94505b5050600101611a08565b5050915091565b60145481565b611afc611f28565b6000546001600160a01b03908116911614611b295760405162461bcd60e51b81526004016106b49061435f565b6001600160a01b038116611b4f5760405162461bcd60e51b81526004016106b490614113565b600080546040516001600160a01b03808516939216917f8be0079c531659141344cd1fd0a4f28419497f9722a3daafe3b4186f6b6457e091a3600080546001600160a01b0319166001600160a01b0392909216919091179055565b60026009541415611bcd5760405162461bcd60e51b81526004016106b49061444b565b6002600955600a54604051634bbc433d60e11b81526001600160a01b0390911690639778867a90611c02908790600401613eb7565b60206040518083038186803b158015611c1a57600080fd5b505afa158015611c2e573d6000803e3d6000fd5b505050506040513d601f19601f82011682018060405250810190611c529190613ce5565b611c6e5760405162461bcd60e51b81526004016106b490614394565b60008084611c8e57600d54600e546001600160a01b039182169116611ca2565b600e54600d546001600160a01b0391821691165b6040516323b872dd60e01b815291935091506001600160a01b038316906323b872dd90611cd790339030908890600401613ecb565b602060405180830381600087803b158015611cf157600080fd5b505af1158015611d05573d6000803e3d6000fd5b505050506040513d601f19601f82011682018060405250810190611d299190613ce5565b5060008515611d5557611d4e85610cbf600f54600a0a87611f8e90919063ffffffff16565b9050611d6c565b600f54611d6990600a0a610cbf8688611f8e565b90505b600a54604051633ba7c4f760e11b81526001600160a01b039091169063774f89ee90611d9c908690600401613eb7565b60206040518083038186803b158015611db457600080fd5b505afa158015611dc8573d6000803e3d6000fd5b505050506040513d601f19601f82011682018060405250810190611dec9190613e3a565b841015611e0b5760405162461bcd60e51b81526004016106b490614230565b6000611e1b60008888888661200a565b9050600080611e318a8a88888c8c8a600161212e565b915091508160001415611e4e57611e48838261269d565b50611ef5565b6000611e5a8884611f4c565b90506000611e78858c8c85611e738e610cbf8d84611f8e565b61200a565b9050611e84818461269d565b506003546001600160a01b0316632d0ce8508686611ea28a88611f4c565b6040518463ffffffff1660e01b8152600401611ec0939291906145f1565b600060405180830381600087803b158015611eda57600080fd5b505af1158015611eee573d6000803e3d6000fd5b5050505050505b505060016009555050505050505050565b600061090a600183612b11565b6000610e07836001600160a01b038416612b26565b3390565b6000610e07836001600160a01b038416612b70565b600061090a82612ace565b6000610e0783836040518060400160405280601e81526020017f536166654d6174683a207375627472616374696f6e206f766572666c6f770000815250612c36565b600082611f9d5750600061090a565b82820282848281611faa57fe5b0414610e075760405162461bcd60e51b81526004016106b49061431e565b6000610e0783836040518060400160405280601a81526020017f536166654d6174683a206469766973696f6e206279207a65726f000000000000815250612c62565b600354604051637d4053c360e01b815260009182916001600160a01b0390911690637d4053c39061204b908a90309033908c908c908c908c90600401614584565b602060405180830381600087803b15801561206557600080fd5b505af1158015612079573d6000803e3d6000fd5b505050506040513d601f19601f8201168201806040525081019061209d9190613e3a565b3360009081526005602090815260408220805460018101825590835291200181905590506120cc818787612c99565b503360009081526006602052604090206120e69082612ce0565b5086817f4b979b1464da7a1b42e4c6011e4c35fa824135c1b819f13a5c364a39d2630e1488888860405161211c93929190614051565b60405180910390a39695505050505050565b60008060008a6001600160a01b03166312f69a778a8a896040518463ffffffff1660e01b815260040161216393929190613ecb565b60206040518083038186803b15801561217b57600080fd5b505afa15801561218f573d6000803e3d6000fd5b505050506040513d601f19601f820116820180604052508101906121b39190613e3a565b905084811061245c576040516370a0823160e01b81526000906001600160a01b038a16906370a08231906121eb903090600401613eb7565b60206040518083038186803b15801561220357600080fd5b505afa158015612217573d6000803e3d6000fd5b505050506040513d601f19601f8201168201806040525081019061223b9190613e3a565b60405163095ea7b360e01b81529091506001600160a01b038b169063095ea7b39061226c908f908b90600401613eef565b602060405180830381600087803b15801561228657600080fd5b505af115801561229a573d6000803e3d6000fd5b505050506040513d601f19601f820116820180604052508101906122be9190613ce5565b50604051637f0148ab60e11b81526001600160a01b038d169063fe029156906122f1908d908d908c908c90600401613f22565b600060405180830381600087803b15801561230b57600080fd5b505af115801561231f573d6000803e3d6000fd5b5050505060006123ab828b6001600160a01b03166370a08231306040518263ffffffff1660e01b81526004016123559190613eb7565b60206040518083038186803b15801561236d57600080fd5b505afa158015612381573d6000803e3d6000fd5b505050506040513d601f19601f820116820180604052508101906123a59190613e3a565b90611f4c565b9050868110156123cd5760405162461bcd60e51b81526004016106b490614190565b60405163a9059cbb60e01b81526001600160a01b038b169063a9059cbb906123fb9033908590600401613eef565b602060405180830381600087803b15801561241557600080fd5b505af1158015612429573d6000803e3d6000fd5b505050506040513d601f19601f8201168201806040525081019061244d9190613ce5565b50600094509250612690915050565b60008061246b8c8a8a8a612cec565b909250905081156126845785156126025760008211801561250a5750600b5460405163e6a0802560e01b81526000916001600160a01b03169063e6a08025906124b8908f90600401613eb7565b60206040518083038186803b1580156124d057600080fd5b505afa1580156124e4573d6000803e3d6000fd5b505050506040513d601f19601f820116820180604052508101906125089190613e3a565b115b156125fd57600b5460405163095ea7b360e01b81526001600160a01b038d81169263095ea7b39261254392909116908690600401613eef565b602060405180830381600087803b15801561255d57600080fd5b505af1158015612571573d6000803e3d6000fd5b505050506040513d601f19601f820116820180604052508101906125959190613ce5565b50600b54604051638340f54960e01b81526001600160a01b0390911690638340f549906125ca908e9033908790600401613ecb565b600060405180830381600087803b1580156125e457600080fd5b505af11580156125f8573d6000803e3d6000fd5b505050505b612684565b60405163a9059cbb60e01b81526001600160a01b038c169063a9059cbb906126309033908690600401613eef565b602060405180830381600087803b15801561264a57600080fd5b505af115801561265e573d6000803e3d6000fd5b505050506040513d601f19601f820116820180604052508101906126829190613ce5565b505b90935091506126909050565b9850989650505050505050565b60006126a7613a39565b60035460405163d311636b60e01b81526001600160a01b039091169063d311636b906126d790879060040161457b565b6101a06040518083038186803b1580156126f057600080fd5b505afa158015612704573d6000803e3d6000fd5b505050506040513d601f19601f820116820180604052508101906127289190613d59565b90506000816101200151600281111561273d57fe5b1461275a5760405162461bcd60e51b81526004016106b49061427f565b600354604051631d7c5cab60e11b81526001600160a01b0390911690633af8b9569061278f90879060029088906004016145c0565b600060405180830381600087803b1580156127a957600080fd5b505af11580156127bd573d6000803e3d6000fd5b5050600860209081527f6add646517a5b0f6793cd5891b7937d28a5b2981a5d88ebc7cd776088fea904180546001808201835560009283527f7bf249938c4feef66b9076a9dee14bad2f4e6b5ee27a7222e6020ba7aeaaace49091018990556040868101516001600160a01b03168352600484528220805491820181558252919020018690555061284f905081612df0565b50837fe74a99606e25cc407991d9f54f35c92cbd76ed7eccf3996443b83289e55a02048260c00151856040516128869291906145e3565b60405180910390a25092915050565b6000806128a28585612ee5565b6128b1575060009050806128d4565b505060008281526001848101602090815260408084208515158552909152909120545b935093915050565b6000610e078383612f61565b60006128f2613a39565b60035460405163d311636b60e01b81526001600160a01b039091169063d311636b9061292290869060040161457b565b6101a06040518083038186803b15801561293b57600080fd5b505afa15801561294f573d6000803e3d6000fd5b505050506040513d601f19601f820116820180604052508101906129739190613d59565b60408101519091506001600160a01b031633146129a25760405162461bcd60e51b81526004016106b4906141df565b600081610120015160028111156129b557fe5b146129d25760405162461bcd60e51b81526004016106b49061452c565b600354604051631d7c5cab60e11b81526001600160a01b0390911690633af8b95690612a089086906001906000906004016145c0565b600060405180830381600087803b158015612a2257600080fd5b505af1158015612a36573d6000803e3d6000fd5b5050600860205250507fad67d757c34507f157cacfa2e3153e9f260a2244f30428821be7be64587ac55f80546001810182556000919091527f8048725117155ad5ef9cb75f77fbe235a4558a61159f5364c90d55c3a0d15b7a01839055612a9c81612df0565b5060405183907fca162971a1f1373c213ec7758158db3720c372158b8d5c8480c5d254c3c2db0290600090a250919050565b5490565b600080612ae184846001612895565b915091509250929050565b600082820183811015610e075760405162461bcd60e51b81526004016106b490614159565b6000610e07836001600160a01b038416612fa6565b6000612b328383612fa6565b612b685750815460018181018455600084815260208082209093018490558454848252828601909352604090209190915561090a565b50600061090a565b60008181526001830160205260408120548015612c2c5783546000198083019190810190600090879083908110612ba357fe5b9060005260206000200154905080876000018481548110612bc057fe5b600091825260208083209091019290925582815260018981019092526040902090840190558654879080612bf057fe5b6001900381819060005260206000200160009055905586600101600087815260200190815260200160002060009055600194505050505061090a565b600091505061090a565b60008184841115612c5a5760405162461bcd60e51b81526004016106b4919061407e565b505050900390565b60008183612c835760405162461bcd60e51b81526004016106b4919061407e565b506000838581612c8f57fe5b0495945050505050565b81151560009081526007602052604081208190612cb890308587612fbe565b8415156000908152600760205260409020909150612cd7908287613155565b95945050505050565b6000610e078383612b26565b6000806000612cfb87156116a5565b9050846000805b83811015612de1576060612d1b8b158384600101611168565b90508a8015612d42575080600081518110612d3257fe5b602002602001015160a001518a10155b80612d6e57508a158015612d6e575080600081518110612d5e57fe5b602002602001015160a001518a11155b15612dd257600080612d9483600081518110612d8657fe5b602002602001015187613164565b9092509050612da38683611f4c565b9550612daf8582612aec565b94508985101580612dbe575085155b15612dcb57505050612de1565b5050612dd8565b50612de1565b50600101612d02565b50909890975095505050505050565b600354604080830151835191516323b872dd60e01b81526000936001600160a01b0316926323b872dd92612e2992309290600401613ecb565b600060405180830381600087803b158015612e4357600080fd5b505af1158015612e57573d6000803e3d6000fd5b50505050600860008361012001516002811115612e7057fe5b6002811115612e7b57fe5b81526020808201929092526040908101600090812085518154600181018355918352848320909101558451338252600690935220612eb89161340c565b5081516080830151151560009081526007602052604081209091612edc9190613418565b15159392505050565b60008181526001830160209081526040808320838052909152812054158015612f2857506000828152600180850160209081526040808420928452919052902054155b15612f59576000808052600180850160209081526040808420928452919052902054821415612b685750600161090a565b50600161090a565b81546000908210612f845760405162461bcd60e51b81526004016106b4906140d1565b826000018281548110612f9357fe5b9060005260206000200154905092915050565b60009081526001919091016020526040902054151590565b6000612fc985612ace565b612fd55750600061082d565b6000612fe48660006001612895565b91505082156130a4575b801580159061307857506040516307fa648b60e11b81526001600160a01b03861690630ff4c9169061302490849060040161457b565b60206040518083038186803b15801561303c57600080fd5b505afa158015613050573d6000803e3d6000fd5b505050506040513d601f19601f820116820180604052508101906130749190613e3a565b8411155b1561309f576000908152600180870160209081526040808420928452919052902054612fee565b612cd7565b801580159061312e57506040516307fa648b60e11b81526001600160a01b03861690630ff4c916906130da90849060040161457b565b60206040518083038186803b1580156130f257600080fd5b505afa158015613106573d6000803e3d6000fd5b505050506040513d601f19601f8201168201806040525081019061312a9190613e3a565b8410155b15612cd75760009081526001808701602090815260408084209284529190529020546130a4565b600061082d84848460006134a0565b60008060006131768560000151611750565b905060008086608001511561319d57600d54600e546001600160a01b0391821691166131b1565b600e54600d546001600160a01b0391821691165b915091506000826001600160a01b03166370a08231306040518263ffffffff1660e01b81526004016131e39190613eb7565b60206040518083038186803b1580156131fb57600080fd5b505afa15801561320f573d6000803e3d6000fd5b505050506040513d601f19601f820116820180604052508101906132339190613e3a565b90506000826001600160a01b03166370a08231306040518263ffffffff1660e01b81526004016132639190613eb7565b60206040518083038186803b15801561327b57600080fd5b505afa15801561328f573d6000803e3d6000fd5b505050506040513d601f19601f820116820180604052508101906132b39190613e3a565b90508488106132cf576132c98985858889613514565b506132de565b6132dc8985858b89613514565b505b6040516370a0823160e01b81526000906001600160a01b038516906370a082319061330d903090600401613eb7565b60206040518083038186803b15801561332557600080fd5b505afa158015613339573d6000803e3d6000fd5b505050506040513d601f19601f8201168201806040525081019061335d9190613e3a565b9050600061336b8284611f4c565b90506000866001600160a01b03166370a08231306040518263ffffffff1660e01b815260040161339b9190613eb7565b60206040518083038186803b1580156133b357600080fd5b505afa1580156133c7573d6000803e3d6000fd5b505050506040513d601f19601f820116820180604052508101906133eb9190613e3a565b905060006133f98287611f4c565b9d929c50919a5050505050505050505050565b6000610e078383612b70565b600081158061342e575061342c8383612ee5565b155b1561343b5750600061090a565b60008281526001848101602090815260408084208480529091528083205482845292205461346d92869290919061395b565b50600081815260018381016020908152604080842084805290915280832083905590825281205581546000190190915590565b60006134ac8584612ee5565b1580156134be57506134be8585612ee5565b15613509576000848152600186016020908152604080832085151584529091529020546134ed8686868661395b565b6134f98685838661395b565b505083546001908101855561082d565b506000949350505050565b60008061353283610cbf8960c0015187611f8e90919063ffffffff16565b600a546040808a01519051633418ea4560e11b81529293506000926001600160a01b0390921691636831d48a9161356f918b908790600401613ecb565b602060405180830381600087803b15801561358957600080fd5b505af115801561359d573d6000803e3d6000fd5b505050506040513d601f19601f820116820180604052508101906135c19190613e3a565b600b5460405163e6a0802560e01b81529192506000916001600160a01b039091169063e6a08025906135f7908b90600401613eb7565b60206040518083038186803b15801561360f57600080fd5b505afa158015613623573d6000803e3d6000fd5b505050506040513d601f19601f820116820180604052508101906136479190613e3a565b11156136b857600b546040808a01519051636ce5768960e11b81526001600160a01b039092169163d9caed1291613685918b91908790600401613ecb565b600060405180830381600087803b15801561369f57600080fd5b505af11580156136b3573d6000803e3d6000fd5b505050505b801561374657600a5460405163a9059cbb60e01b81526001600160a01b038981169263a9059cbb926136f292909116908590600401613eef565b602060405180830381600087803b15801561370c57600080fd5b505af1158015613720573d6000803e3d6000fd5b505050506040513d601f19601f820116820180604052508101906137449190613ce5565b505b60006137528383611f4c565b6040808b0151905163a9059cbb60e01b81529192506001600160a01b0389169163a9059cbb91613786918a90600401613eef565b602060405180830381600087803b1580156137a057600080fd5b505af11580156137b4573d6000803e3d6000fd5b505050506040513d601f19601f820116820180604052508101906137d89190613ce5565b5060405163a9059cbb60e01b81526001600160a01b0389169063a9059cbb906138079033908590600401613eef565b602060405180830381600087803b15801561382157600080fd5b505af1158015613835573d6000803e3d6000fd5b505050506040513d601f19601f820116820180604052508101906138599190613ce5565b50828960c001511415613878578851613872908761269d565b50613928565b60006138938a600001518b608001518c60a00151878b61200a565b905061389f818861269d565b506003548a5160c08c01516001600160a01b0390921691632d0ce85091906138c79088611f4c565b60e08e01516138d6908c611f4c565b6040518463ffffffff1660e01b81526004016138f4939291906145f1565b600060405180830381600087803b15801561390e57600080fd5b505af1158015613922573d6000803e3d6000fd5b50505050505b600e5461394e906001600160a01b038a81169116146139475786613949565b815b613990565b5093979650505050505050565b600082815260019094016020818152604080872093158088529382528087208690559486529081528385209115855252912055565b60145461399d9082612aec565b6014556011546012546000916139bc916201518091610cbf9190611f4c565b905060006139da620151806011544203611fc890919063ffffffff16565b905081811115613a2057601380546015805460018101825560009182527f55f448fdea98c4d29eb340757ef0a66cd03dbb9538908a6a81d96026b71ec475019190915590555b601354613a2d9084612aec565b60135550504260125550565b604051806101a00160405280600081526020016000815260200160006001600160a01b0316815260200160006001600160a01b031681526020016000151581526020016000815260200160008152602001600081526020016000815260200160006002811115613aa557fe5b81526020016000815260200160008152602001600081525090565b805161090a81614639565b805161090a81614651565b805161090a8161465f565b600060208284031215613af2578081fd5b8135610e0781614639565b600080600080600060a08688031215613b14578081fd5b8535613b1f81614639565b94506020860135613b2f81614639565b93506040860135613b3f81614639565b92506060860135613b4f81614639565b91506080860135613b5f81614639565b809150509295509295909350565b60008060008060808587031215613b82578384fd5b8435613b8d81614639565b9350602085810135613b9e81614639565b935060408601359250606086013567ffffffffffffffff80821115613bc1578384fd5b818801915088601f830112613bd4578384fd5b813581811115613be2578485fd5b613bf4601f8201601f19168501614607565b91508082528984828501011115613c09578485fd5b8084840185840137810190920192909252939692955090935050565b60008060008060808587031215613c3a578384fd5b8435613c4581614639565b93506020850135613c5581614651565b93969395505050506040820135916060013590565b60008060408385031215613c7c578182fd5b8235613c8781614639565b946020939093013593505050565b600080600060608486031215613ca9578283fd5b8335613cb481614639565b95602085013595506040909401359392505050565b600060208284031215613cda578081fd5b8135610e0781614651565b600060208284031215613cf6578081fd5b8151610e0781614651565b600080600060608486031215613d15578283fd5b8335613cb481614651565b600060208284031215613d31578081fd5b8135610e078161465f565b60008060408385031215613d4e578182fd5b8235613c878161465f565b60006101a0808385031215613d6c578182fd5b613d7581614607565b90508251815260208301516020820152613d928460408501613ac0565b6040820152613da48460608501613ac0565b6060820152613db68460808501613acb565b608082015260a083015160a082015260c083015160c082015260e083015160e0820152610100808401518183015250610120613df485828601613ad6565b9082015261014083810151908201526101608084015190820152610180928301519281019290925250919050565b600060208284031215613e33578081fd5b5035919050565b600060208284031215613e4b578081fd5b5051919050565b60008060408385031215613e64578182fd5b505080516020909101519092909150565b600060208284031215613e86578081fd5b815160ff81168114610e07578182fd5b6001600160a01b03169052565b15159052565b60038110613eb357fe5b9052565b6001600160a01b0391909116815260200190565b6001600160a01b039384168152919092166020820152604081019190915260600190565b6001600160a01b03929092168252602082015260400190565b6001600160a01b0392831681529116602082015260400190565b6001600160a01b0394851681529290931660208301526040820152606081019190915260800190565b602080825282518282018190526000919060409081850190868401855b8281101561402957815180518552868101518786015285810151613f8e87870182613e96565b50606080820151613fa182880182613e96565b5050608080820151613fb582880182613ea3565b505060a0818101519086015260c0808201519086015260e08082015190860152610100808201519086015261012080820151613ff382880182613ea9565b50506101408181015190860152610160808201519086015261018090810151908501526101a09093019290850190600101613f68565b5091979650505050505050565b901515815260200190565b9115158252602082015260400190565b92151583526020830191909152604082015260600190565b6001600160e01b031991909116815260200190565b6000602080835283518082850152825b818110156140aa5785810183015185820160400152820161408e565b818111156140bb5783604083870101525b50601f01601f1916929092016040019392505050565b60208082526022908201527f456e756d657261626c655365743a20696e646578206f7574206f6620626f756e604082015261647360f01b606082015260800190565b60208082526026908201527f4f776e61626c653a206e6577206f776e657220697320746865207a65726f206160408201526564647265737360d01b606082015260800190565b6020808252601b908201527f536166654d6174683a206164646974696f6e206f766572666c6f770000000000604082015260600190565b6020808252602f908201527f426f626f506169723a2074686520616d6f756e74206f66206f7574546f6b656e60408201526e206973204e4f5420656e6f7567682160881b606082015260800190565b60208082526031908201527f4f7264657253746f72653a206f6e6c7920626f6f6b206f776e65722063616e2060408201527031b0b731b2b6103a34329037b93232b91760791b606082015260800190565b6020808252602f908201527f426f626f506169723a20696e416d6f756e74204d555354206c6172676572207460408201526e3430b71036b4b71030b6b7bab73a1760891b606082015260800190565b60208082526038908201527f4f7264657253746f72653a206f6e6c792068616e67696e67206f72646572206360408201527f616e206265636f6d65204465616c6564207374617475732e0000000000000000606082015260800190565b60208082526022908201527f4f7264657253746f72653a20696e646578206973206f7574206f6620626f756e604082015261321760f11b606082015260800190565b60208082526021908201527f536166654d6174683a206d756c7469706c69636174696f6e206f766572666c6f6040820152607760f81b606082015260800190565b6020808252818101527f4f776e61626c653a2063616c6c6572206973206e6f7420746865206f776e6572604082015260600190565b60208082526022908201527f426f626f506169723a20726f75746572204e4f5420696e2077686974656c6973604082015261742160f01b606082015260800190565b60208082526026908201527f4d6978696e417574686f72697a61626c653a20696e646578206f7574206f6620604082015265626f756e647360d01b606082015260800190565b60208082526015908201527414d15391115497d393d517d055551213d492569151605a1b604082015260600190565b6020808252601f908201527f5265656e7472616e637947756172643a207265656e7472616e742063616c6c00604082015260600190565b60208082526035908201527f4d6978696e417574686f72697a61626c653a205f616464417574686f72697a656040820152746420697320746865207a65726f206164647265737360581b606082015260800190565b60208082526035908201527f4d6978696e417574686f72697a61626c653a205f64656c417574686f72697a656040820152746420697320746865207a65726f206164647265737360581b606082015260800190565b6020808252602f908201527f4f7264657253746f72653a206f6e6c792068616e67696e67206f72646572206360408201526e30b71031329031b0b731b2b632b21760891b606082015260800190565b90815260200190565b9687526001600160a01b0395861660208801529390941660408601529015156060850152608084015260a083019190915260c082015260e00190565b838152606081016145d08461462e565b6020830152826040830152949350505050565b918252602082015260400190565b9283526020830191909152604082015260600190565b60405181810167ffffffffffffffff8111828210171561462657600080fd5b604052919050565b806003811061067a57fe5b6001600160a01b038116811461464e57600080fd5b50565b801515811461464e57600080fd5b6003811061464e57600080fdfea264697066735822122051dc42ed76426dbc071072e6c597cefa04ee08f5086b52116e59d36aece04a0e64736f6c634300060c0033",
  "immutableReferences": {},
  "source": "// SPDX-License-Identifier: MIT\npragma solidity ^0.6.0;\npragma experimental ABIEncoderV2;\n\nimport \"./common/OrderStore.sol\";\nimport \"./common/Interfaces.sol\";\nimport \"./common/MixinAuthorizable.sol\";\n\n\n/*\n\n(1) \n(2) AMMAMM\n\n\n(1) \n*/ \n\ncontract BoboPair is MixinAuthorizable, OrderStore, ReentrancyGuard {\n    using SafeMath for uint256;\n    \n    uint256 public constant BasePercent = 10000;\n    uint256 public constant BaseAmountIn = 1e9;\n    \n    IExchangeManager public exManager;\n    IBoboFarmer public boboFarmer;\n    \n    address public factory;\n    address public quoteToken;\n    address public baseToken;\n    uint256 public quoteTokenDecimals;\n    uint256 public baseTokenDecimals;\n    \n    \n    uint256 public constant OneDaySeconds = 24 * 3600;\n    uint256 public startTime;\n    uint256 public lastRecordTime;\n    uint256 public volumnOf24Hours;\n    uint256 public totalVolumn;\n    uint256[] public volumnList;\n\n    event SwapSuccess(address indexed owner, address indexed spender, uint value);\n    \n    constructor () public OrderStore() {  \n        factory = msg.sender;\n        addAuthorized(msg.sender);\n        startTime = now;\n        lastRecordTime = startTime;\n    }\n\n    // called once by the factory at time of deployment\n    function initialize(address _quoteToken, address _baseToken, address _authAddr, address _boboFarmer, address _orderNFT) external onlyOwner {\n        quoteToken = _quoteToken;\n        baseToken = _baseToken;\n        quoteTokenDecimals = ERC20(quoteToken).decimals();\n        baseTokenDecimals = ERC20(baseToken).decimals();\n        addAuthorized(_authAddr);\n        boboFarmer = IBoboFarmer(_boboFarmer);\n        orderNFT = IOrderNFT(_orderNFT);\n    }\n    \n    function setExManager(address _exManager) external onlyAuthorized {\n        exManager = IExchangeManager(_exManager);\n    }\n\n    function getTokens() view public returns(address, address) {\n        return (quoteToken, baseToken);\n    }\n    \n    // AMM\n    // _spotPrice: U10000001U\n    function addLimitedOrder(address _boboRouter, bool _bBuyQuoteToken, uint256 _spotPrice, uint256 _amountIn) public nonReentrant {\n        require(exManager.routerWhiteList(_boboRouter), \"BoboPair: router NOT in whitelist!\");\n        (address inToken, address outToken) = _bBuyQuoteToken ? (baseToken, quoteToken) : (quoteToken, baseToken);\n        ERC20(inToken).transferFrom(msg.sender, address(this), _amountIn);\n        \n        uint256 minOutAmount = 0;\n        if (_bBuyQuoteToken) {\n            minOutAmount = _amountIn.mul(10**quoteTokenDecimals).div(_spotPrice);\n        } else {\n            minOutAmount = _amountIn.mul(_spotPrice).div(10**quoteTokenDecimals);\n        }\n        \n        // \n        require(_amountIn >= exManager.tokenMinAmountMap(inToken), \"BoboPair: inAmount MUST larger than min amount.\");\n        \n        uint256 orderId = addOrder(0, _bBuyQuoteToken, _spotPrice, _amountIn, minOutAmount);\n        \n        (uint256 leftAmountIn, uint256 totalAmountOut) = swap(_boboRouter, _bBuyQuoteToken, inToken, outToken, _spotPrice, _amountIn, minOutAmount, true);\n        if (leftAmountIn == 0) {\n            setDealedOrder(orderId, totalAmountOut);\n        } else {\n            uint256 dealedAmountIn = _amountIn.sub(leftAmountIn);\n            uint256 childOrderId = addOrder(orderId, _bBuyQuoteToken, _spotPrice, dealedAmountIn, minOutAmount.mul(dealedAmountIn).div(_amountIn));\n            setDealedOrder(childOrderId, totalAmountOut);\n            orderNFT.updateOrderAmount(orderId, leftAmountIn, minOutAmount.sub(totalAmountOut));\n        }\n    }\n    \n    // AMM\n    function addMarketOrder(address _boboRouter, bool _bBuyQuoteToken, uint256 _amountIn, uint256 _minOutAmount) public nonReentrant {\n        (address inToken, address outToken) = _bBuyQuoteToken ? (baseToken, quoteToken) : (quoteToken, baseToken);\n        require(_minOutAmount >= 0, \"BoboPair: _minOutAmount should be > 0.\");\n        require(_amountIn >= exManager.tokenMinAmountMap(inToken), \"BoboPair: inAmount MUST larger than min amount.\");\n        require(exManager.routerWhiteList(_boboRouter), \"BoboPair: router NOT in whitelist!\");\n        ERC20(inToken).transferFrom(msg.sender, address(this), _amountIn);  // event 1\n\n        // maker\n        uint256 deductAmount = exManager.deductTradeFee(msg.sender, inToken, _amountIn);\n        if (deductAmount > 0) {\n            ERC20(inToken).transfer(address(exManager), deductAmount);   // event 2\n        }\n        _amountIn = _amountIn.sub(deductAmount);      \n        \n        // \n        uint256 spotPrice = _bBuyQuoteToken ? _amountIn.mul(10**quoteTokenDecimals).div(_minOutAmount) : _minOutAmount.mul(10**quoteTokenDecimals).div(_amountIn);\n        uint256 orderId = addOrder(0, _bBuyQuoteToken, spotPrice, _amountIn, _minOutAmount);  // event 3\n        \n        (uint256 leftAmountIn, uint256 totalAmountOut) = swap(_boboRouter, _bBuyQuoteToken, inToken, outToken, spotPrice, _amountIn, _minOutAmount, false);\n            \n        if (leftAmountIn == 0) {\n            setDealedOrder(orderId, totalAmountOut);\n        } else {\n            uint256 dealedAmountIn = _amountIn.sub(leftAmountIn);\n            orderNFT.updateOrderAmount(orderId, dealedAmountIn, totalAmountOut);\n            setDealedOrder(orderId, totalAmountOut);\n        }\n    }\n\n    function swap(address _boboRouter, bool _bBuyQuoteToken,\n                  address _inToken, address _outToken, uint256 _spotPrice,\n                  uint256 _amountIn, uint256 _minOutAmount, bool _bLimitedOrder) private returns(uint256, uint256) {\n        // 1\n        uint256 amountOut = IBoboRouter(_boboRouter).getBaseAmountOut(_inToken, _outToken, _amountIn);\n        \n        // \n        if (amountOut >= _minOutAmount) {\n            uint256 outTokenAmount = ERC20(_outToken).balanceOf(address(this));\n\n            ERC20(_inToken).approve(_boboRouter, _amountIn);  \n            IBoboRouter(_boboRouter).swap(_inToken, _outToken, _amountIn, _minOutAmount);\n            \n            uint256 totalAmountOut = ERC20(_outToken).balanceOf(address(this)).sub(outTokenAmount);   // outToken\n            require(totalAmountOut >= _minOutAmount, \"BoboPair: the amount of outToken is NOT enough!\");\n            \n            ERC20(_outToken).transfer(msg.sender, totalAmountOut);\n            return (0, totalAmountOut);\n        } else {  // \n            (uint256 leftAmountIn, uint256 totalAmountOut) = batchMatchOrders(_bBuyQuoteToken, _spotPrice, _amountIn, _minOutAmount);\n            if (leftAmountIn > 0) {\n                if (_bLimitedOrder) {\n                    if (leftAmountIn > 0 && boboFarmer.tokenPidMap(_inToken) > 0) {\n                        ERC20(_inToken).approve(address(boboFarmer), leftAmountIn);\n                        boboFarmer.deposit(_inToken, msg.sender, leftAmountIn);\n                    }\n                } else {\n                    ERC20(_inToken).transfer(msg.sender, leftAmountIn);\n                }\n            }\n            return (leftAmountIn, totalAmountOut);\n        }\n    }  \n\n    function batchMatchOrders(bool bBuyQuoteToken, uint256 spotPrice, uint256 amountIn, uint256 minAmountOut) private returns(uint256, uint256) {        \n        uint256 orderNumber = getTotalOrderNumber(!bBuyQuoteToken);\n        uint256 leftAmountIn = amountIn;   // \n        uint256 swappedOutTokenAmount = 0;  // \n        for (uint256 fromIndex = 0; fromIndex < orderNumber; fromIndex += 1) {            \n            OrderInfo[] memory orderInfos = getOrderInfos(!bBuyQuoteToken, fromIndex, fromIndex + 1);\n            \n            if ((bBuyQuoteToken && spotPrice >= orderInfos[0].spotPrice) || (!bBuyQuoteToken && spotPrice <= orderInfos[0].spotPrice)) {  // \n                (uint256 onceSwappedInTokenAmount, uint256 onceSwappedOutTokenAmount) = matchOrder(orderInfos[0], leftAmountIn);\n                leftAmountIn = leftAmountIn.sub(onceSwappedInTokenAmount);\n                swappedOutTokenAmount = swappedOutTokenAmount.add(onceSwappedOutTokenAmount);\n                if (swappedOutTokenAmount >= minAmountOut || leftAmountIn == 0) {\n                    break;\n                }\n            } else {\n                break;\n            }\n        }\n        return (leftAmountIn, swappedOutTokenAmount);\n    }\n\n    function matchOrder(OrderInfo memory hangingOrderInfo, uint256 leftAmountIn) private returns(uint256, uint256) {                            \n        uint256 maxOutAmountExpected = getMaxOutAmountExpected(hangingOrderInfo.id);\n        (address inToken, address outToken) = !hangingOrderInfo.bBuyQuoteToken ? (baseToken, quoteToken) : (quoteToken, baseToken);\n        uint256 preInTokenBalance = ERC20(inToken).balanceOf(address(this));\n        uint256 preSwappedOutTokenAmount = ERC20(outToken).balanceOf(address(this));\n            \n        if (leftAmountIn >= maxOutAmountExpected) {  // inToken\n            swapTokensForExactTokens(hangingOrderInfo, inToken, outToken, maxOutAmountExpected, maxOutAmountExpected);\n        } else {  // \n            swapTokensForExactTokens(hangingOrderInfo, inToken, outToken, leftAmountIn, maxOutAmountExpected);\n        }\n        \n        uint256 newSwappedOutTokenAmount = ERC20(outToken).balanceOf(address(this));   // outToken\n        uint256 swappedOutTokenBalance = newSwappedOutTokenAmount.sub(preSwappedOutTokenAmount);  // token\n\n        uint256 newInTokenBalance = ERC20(inToken).balanceOf(address(this));  // inToken\n        uint256 swappedInTokenBalance = newInTokenBalance.sub(preInTokenBalance);   // token\n        \n        return (swappedInTokenBalance, swappedOutTokenBalance);\n    }\n\n    function swapTokensForExactTokens(OrderInfo memory orderInfo, address inToken, address outToken, uint256 outTokenAmountSwapIn, uint256 maxAmountSwapOut) private returns(uint256) {\n        //(address inToken, address outToken) = orderInfo.bBuyQuoteToken ? (baseToken, quoteToken) : (quoteToken, baseToken);\n        \n        // inTokenmaxAmountSwapOutorderInfo.minOutAmount\n        uint256 inTokenAmountSwapOut = outTokenAmountSwapIn.mul(orderInfo.inAmount).div(maxAmountSwapOut);   \n\n        uint256 tokenAmount4Fee = exManager.deductTradeFee(orderInfo.owner, inToken, inTokenAmountSwapOut);\n                \n        if (boboFarmer.tokenPidMap(inToken) > 0) {\n            boboFarmer.withdraw(inToken, orderInfo.owner, inTokenAmountSwapOut);\n        }\n        if (tokenAmount4Fee > 0) {\n            ERC20(inToken).transfer(address(exManager), tokenAmount4Fee);\n        }\n        uint256 amountIn = inTokenAmountSwapOut.sub(tokenAmount4Fee);\n\n        // outTokenowner\n        ERC20(outToken).transfer(orderInfo.owner, outTokenAmountSwapIn);\n\n        // inTokenmsg.sender\n        ERC20(inToken).transfer(msg.sender, amountIn);\n\n        if(orderInfo.inAmount == inTokenAmountSwapOut) {   // \n            setDealedOrder(orderInfo.id, outTokenAmountSwapIn);\n        } else {\n            uint256 childOrderId = addOrder(orderInfo.id, orderInfo.bBuyQuoteToken, orderInfo.spotPrice, inTokenAmountSwapOut, outTokenAmountSwapIn);\n            setDealedOrder(childOrderId, outTokenAmountSwapIn);\n\n            orderNFT.updateOrderAmount(orderInfo.id, orderInfo.inAmount.sub(inTokenAmountSwapOut), orderInfo.minOutAmount.sub(outTokenAmountSwapIn));  \n        }\n        \n        makeStatistic(inToken == baseToken ? amountIn : outTokenAmountSwapIn);\n        return outTokenAmountSwapIn;\n    }    \n       \n    function makeStatistic(uint256 _amount) private {\n        totalVolumn = totalVolumn.add(_amount);\n        \n        uint256 lastPeriod = lastRecordTime.sub(startTime).div(OneDaySeconds);\n        uint256 currentPeriod = (now - startTime).div(OneDaySeconds);\n        if (currentPeriod > lastPeriod) {\n            volumnList.push(volumnOf24Hours);\n            volumnOf24Hours = 0;\n        }\n        volumnOf24Hours = volumnOf24Hours.add(_amount);\n        lastRecordTime = now;\n    }\n    \n    function getCurrentPrice(address _boboRouter) view public returns(uint256) {\n        uint256 amountOut = IBoboRouter(_boboRouter).getBaseAmountOut(baseToken, quoteToken, BaseAmountIn);\n        uint256 spotPrice = BaseAmountIn.mul(10**quoteTokenDecimals).div(amountOut);\n        return spotPrice;\n    }\n\n    function getTotalHangingTokenAmount(address _userAddr) view public returns(uint256 baseTokenAmount, uint256 quoteTokenAmount) {\n        uint256 length = getUserHangingOrderNumber(_userAddr);\n        for (uint256 i = 0; i < length; i++) {\n            uint256 orderId = getUserHangingOrderId(_userAddr, i);\n            OrderInfo memory orderInfo = orderNFT.getOrderInfo(orderId); \n            if (orderInfo.bBuyQuoteToken) {\n                baseTokenAmount = baseTokenAmount.add(orderInfo.inAmount);\n            } else {\n                quoteTokenAmount = quoteTokenAmount.add(orderInfo.inAmount);\n            }\n        }\n    }     \n \n    // outToken\n    function getMaxOutAmountExpected(uint256 _orderId) view public returns(uint256) {\n        OrderInfo memory orderInfo = orderNFT.getOrderInfo(_orderId); \n        (address inToken, ) = orderInfo.bBuyQuoteToken ? (baseToken, quoteToken) : (quoteToken, baseToken);\n        \n        (uint256 tokenAmount4Fee,) = exManager.evaluateDeductedAmountIn(orderInfo.owner, inToken, orderInfo.inAmount);\n\n        uint256 maxAmountSwapOut = orderInfo.bBuyQuoteToken ? orderInfo.inAmount.sub(tokenAmount4Fee).mul(10**quoteTokenDecimals).div(orderInfo.spotPrice) \n                                                            : orderInfo.inAmount.sub(tokenAmount4Fee).mul(orderInfo.spotPrice).div(10**quoteTokenDecimals);        \n        return maxAmountSwapOut;\n    }\n    \n    function cancelOrder(uint256 _orderId) public returns(bool) {\n        setManualCancelOrder(_orderId); \n\n        OrderInfo memory orderInfo = orderNFT.getOrderInfo(_orderId); \n        address inToken = orderInfo.bBuyQuoteToken ? baseToken : quoteToken;\n        if (boboFarmer.tokenPidMap(inToken) > 0) {\n            boboFarmer.withdraw(inToken, orderInfo.owner, orderInfo.inAmount);\n            ERC20(inToken).transfer(orderInfo.owner, orderInfo.inAmount);\n        } else {\n            ERC20(inToken).transfer(orderInfo.owner, orderInfo.inAmount);\n        }\n    }\n    \n}",
  "sourcePath": "/Users/mryu/blockchain/bobo-metaverse/boboswap-contract/contracts/BoboPair.sol",
  "compiler": {
    "name": "solc",
    "version": "0.6.12+commit.27d51765.Emscripten.clang"
  },
  "schemaVersion": "3.4.3",
  "updatedAt": "2021-11-03T11:07:40.462Z",
  "networkType": "ethereum",
  "devdoc": {
    "kind": "dev",
    "methods": {
      "owner()": {
        "details": "Returns the address of the current owner."
      },
      "renounceOwnership()": {
        "details": "Leaves the contract without owner. It will not be possible to call `onlyOwner` functions anymore. Can only be called by the current owner. NOTE: Renouncing ownership will leave the contract without an owner, thereby removing any functionality that is only available to the owner."
      },
      "transferOwnership(address)": {
        "details": "Transfers ownership of the contract to a new account (`newOwner`). Can only be called by the current owner."
      }
    },
    "version": 1
  },
  "userdoc": {
    "kind": "user",
    "methods": {},
    "version": 1
  }
}