{
  "contractName": "BoboPairHelper",
  "abi": [
    {
      "inputs": [
        {
          "internalType": "contract IBoboPair",
          "name": "_boboPair",
          "type": "address"
        },
        {
          "internalType": "address",
          "name": "_userAddr",
          "type": "address"
        },
        {
          "internalType": "uint256",
          "name": "_startTime",
          "type": "uint256"
        },
        {
          "internalType": "uint256",
          "name": "_endTime",
          "type": "uint256"
        }
      ],
      "name": "getDepositableOrders",
      "outputs": [
        {
          "internalType": "uint256[]",
          "name": "orderIds",
          "type": "uint256[]"
        },
        {
          "internalType": "uint256[]",
          "name": "weights",
          "type": "uint256[]"
        },
        {
          "internalType": "uint256",
          "name": "count",
          "type": "uint256"
        }
      ],
      "stateMutability": "view",
      "type": "function",
      "constant": true
    },
    {
      "inputs": [
        {
          "internalType": "contract IBoboPair",
          "name": "_boboPair",
          "type": "address"
        },
        {
          "internalType": "address",
          "name": "_userAddr",
          "type": "address"
        },
        {
          "internalType": "uint256",
          "name": "_startTime",
          "type": "uint256"
        },
        {
          "internalType": "uint256",
          "name": "_endTime",
          "type": "uint256"
        }
      ],
      "name": "getDepositableOrders_old",
      "outputs": [
        {
          "internalType": "uint256[]",
          "name": "orderIds",
          "type": "uint256[]"
        },
        {
          "internalType": "uint256[]",
          "name": "weights",
          "type": "uint256[]"
        },
        {
          "internalType": "uint256",
          "name": "count",
          "type": "uint256"
        }
      ],
      "stateMutability": "view",
      "type": "function",
      "constant": true
    },
    {
      "inputs": [
        {
          "internalType": "contract IBoboPair",
          "name": "_boboPair",
          "type": "address"
        },
        {
          "internalType": "address",
          "name": "_userAddr",
          "type": "address"
        },
        {
          "internalType": "uint256",
          "name": "_fromIndex",
          "type": "uint256"
        },
        {
          "internalType": "uint256",
          "name": "_pageSize",
          "type": "uint256"
        }
      ],
      "name": "getAllUnhangingOrders",
      "outputs": [
        {
          "components": [
            {
              "internalType": "uint256",
              "name": "id",
              "type": "uint256"
            },
            {
              "internalType": "uint256",
              "name": "parentId",
              "type": "uint256"
            },
            {
              "internalType": "address",
              "name": "owner",
              "type": "address"
            },
            {
              "internalType": "address",
              "name": "pairAddr",
              "type": "address"
            },
            {
              "internalType": "bool",
              "name": "bBuyQuoteToken",
              "type": "bool"
            },
            {
              "internalType": "uint256",
              "name": "spotPrice",
              "type": "uint256"
            },
            {
              "internalType": "uint256",
              "name": "inAmount",
              "type": "uint256"
            },
            {
              "internalType": "uint256",
              "name": "minOutAmount",
              "type": "uint256"
            },
            {
              "internalType": "uint256",
              "name": "outAmount",
              "type": "uint256"
            },
            {
              "internalType": "enum OrderStatus",
              "name": "status",
              "type": "uint8"
            },
            {
              "internalType": "uint256",
              "name": "delegateTime",
              "type": "uint256"
            },
            {
              "internalType": "uint256",
              "name": "dealedTime",
              "type": "uint256"
            },
            {
              "internalType": "uint256",
              "name": "weight",
              "type": "uint256"
            }
          ],
          "internalType": "struct OrderInfo[]",
          "name": "nftInfos",
          "type": "tuple[]"
        },
        {
          "internalType": "uint256",
          "name": "count",
          "type": "uint256"
        }
      ],
      "stateMutability": "view",
      "type": "function",
      "constant": true
    },
    {
      "inputs": [
        {
          "internalType": "contract IBoboPair",
          "name": "_boboPair",
          "type": "address"
        },
        {
          "internalType": "enum OrderStatus",
          "name": "_orderStatus",
          "type": "uint8"
        },
        {
          "internalType": "uint256",
          "name": "_fromIndex",
          "type": "uint256"
        },
        {
          "internalType": "uint256",
          "name": "_pageSize",
          "type": "uint256"
        }
      ],
      "name": "getOneStatusOrders",
      "outputs": [
        {
          "components": [
            {
              "internalType": "uint256",
              "name": "id",
              "type": "uint256"
            },
            {
              "internalType": "uint256",
              "name": "parentId",
              "type": "uint256"
            },
            {
              "internalType": "address",
              "name": "owner",
              "type": "address"
            },
            {
              "internalType": "address",
              "name": "pairAddr",
              "type": "address"
            },
            {
              "internalType": "bool",
              "name": "bBuyQuoteToken",
              "type": "bool"
            },
            {
              "internalType": "uint256",
              "name": "spotPrice",
              "type": "uint256"
            },
            {
              "internalType": "uint256",
              "name": "inAmount",
              "type": "uint256"
            },
            {
              "internalType": "uint256",
              "name": "minOutAmount",
              "type": "uint256"
            },
            {
              "internalType": "uint256",
              "name": "outAmount",
              "type": "uint256"
            },
            {
              "internalType": "enum OrderStatus",
              "name": "status",
              "type": "uint8"
            },
            {
              "internalType": "uint256",
              "name": "delegateTime",
              "type": "uint256"
            },
            {
              "internalType": "uint256",
              "name": "dealedTime",
              "type": "uint256"
            },
            {
              "internalType": "uint256",
              "name": "weight",
              "type": "uint256"
            }
          ],
          "internalType": "struct OrderInfo[]",
          "name": "nftInfos",
          "type": "tuple[]"
        },
        {
          "internalType": "uint256",
          "name": "count",
          "type": "uint256"
        }
      ],
      "stateMutability": "view",
      "type": "function",
      "constant": true
    },
    {
      "inputs": [
        {
          "internalType": "contract IBoboPair",
          "name": "_boboPair",
          "type": "address"
        },
        {
          "internalType": "address",
          "name": "_userAddr",
          "type": "address"
        },
        {
          "internalType": "uint256",
          "name": "_fromIndex",
          "type": "uint256"
        },
        {
          "internalType": "uint256",
          "name": "_pageSize",
          "type": "uint256"
        }
      ],
      "name": "getAllDealedOrders",
      "outputs": [
        {
          "components": [
            {
              "internalType": "uint256",
              "name": "id",
              "type": "uint256"
            },
            {
              "internalType": "uint256",
              "name": "parentId",
              "type": "uint256"
            },
            {
              "internalType": "address",
              "name": "owner",
              "type": "address"
            },
            {
              "internalType": "address",
              "name": "pairAddr",
              "type": "address"
            },
            {
              "internalType": "bool",
              "name": "bBuyQuoteToken",
              "type": "bool"
            },
            {
              "internalType": "uint256",
              "name": "spotPrice",
              "type": "uint256"
            },
            {
              "internalType": "uint256",
              "name": "inAmount",
              "type": "uint256"
            },
            {
              "internalType": "uint256",
              "name": "minOutAmount",
              "type": "uint256"
            },
            {
              "internalType": "uint256",
              "name": "outAmount",
              "type": "uint256"
            },
            {
              "internalType": "enum OrderStatus",
              "name": "status",
              "type": "uint8"
            },
            {
              "internalType": "uint256",
              "name": "delegateTime",
              "type": "uint256"
            },
            {
              "internalType": "uint256",
              "name": "dealedTime",
              "type": "uint256"
            },
            {
              "internalType": "uint256",
              "name": "weight",
              "type": "uint256"
            }
          ],
          "internalType": "struct OrderInfo[]",
          "name": "nftInfos",
          "type": "tuple[]"
        },
        {
          "internalType": "uint256",
          "name": "count",
          "type": "uint256"
        }
      ],
      "stateMutability": "view",
      "type": "function",
      "constant": true
    },
    {
      "inputs": [
        {
          "internalType": "contract IBoboTradeMining",
          "name": "_boboTradeMining",
          "type": "address"
        },
        {
          "internalType": "address",
          "name": "_usderAddr",
          "type": "address"
        }
      ],
      "name": "getAllDepositedOrders",
      "outputs": [
        {
          "components": [
            {
              "internalType": "uint256",
              "name": "id",
              "type": "uint256"
            },
            {
              "internalType": "uint256",
              "name": "parentId",
              "type": "uint256"
            },
            {
              "internalType": "address",
              "name": "owner",
              "type": "address"
            },
            {
              "internalType": "address",
              "name": "pairAddr",
              "type": "address"
            },
            {
              "internalType": "bool",
              "name": "bBuyQuoteToken",
              "type": "bool"
            },
            {
              "internalType": "uint256",
              "name": "spotPrice",
              "type": "uint256"
            },
            {
              "internalType": "uint256",
              "name": "inAmount",
              "type": "uint256"
            },
            {
              "internalType": "uint256",
              "name": "minOutAmount",
              "type": "uint256"
            },
            {
              "internalType": "uint256",
              "name": "outAmount",
              "type": "uint256"
            },
            {
              "internalType": "enum OrderStatus",
              "name": "status",
              "type": "uint8"
            },
            {
              "internalType": "uint256",
              "name": "delegateTime",
              "type": "uint256"
            },
            {
              "internalType": "uint256",
              "name": "dealedTime",
              "type": "uint256"
            },
            {
              "internalType": "uint256",
              "name": "weight",
              "type": "uint256"
            }
          ],
          "internalType": "struct OrderInfo[]",
          "name": "nftInfos",
          "type": "tuple[]"
        }
      ],
      "stateMutability": "view",
      "type": "function",
      "constant": true
    },
    {
      "inputs": [
        {
          "internalType": "address",
          "name": "boboFactory",
          "type": "address"
        },
        {
          "internalType": "address",
          "name": "boboRouter",
          "type": "address"
        },
        {
          "internalType": "address[]",
          "name": "quoteTokenOfUsdt",
          "type": "address[]"
        },
        {
          "internalType": "address",
          "name": "usdtAddr",
          "type": "address"
        },
        {
          "internalType": "address[]",
          "name": "quoteTokenOfUsdc",
          "type": "address[]"
        },
        {
          "internalType": "address",
          "name": "usdcAddr",
          "type": "address"
        }
      ],
      "name": "getPairInfo",
      "outputs": [
        {
          "internalType": "uint256[]",
          "name": "pricesOfUsdt",
          "type": "uint256[]"
        },
        {
          "internalType": "uint256[]",
          "name": "volumnsOfUsdt",
          "type": "uint256[]"
        },
        {
          "internalType": "uint256[]",
          "name": "pricesOfUsdc",
          "type": "uint256[]"
        },
        {
          "internalType": "uint256[]",
          "name": "volumnsOfUsdc",
          "type": "uint256[]"
        }
      ],
      "stateMutability": "view",
      "type": "function",
      "constant": true
    },
    {
      "inputs": [
        {
          "internalType": "address",
          "name": "boboFactory",
          "type": "address"
        },
        {
          "internalType": "address[]",
          "name": "quoteTokenOfUsdt",
          "type": "address[]"
        },
        {
          "internalType": "address",
          "name": "usdtAddr",
          "type": "address"
        },
        {
          "internalType": "address[]",
          "name": "quoteTokenOfUsdc",
          "type": "address[]"
        },
        {
          "internalType": "address",
          "name": "usdcAddr",
          "type": "address"
        }
      ],
      "name": "getPairAddressList",
      "outputs": [
        {
          "internalType": "address[]",
          "name": "pairAddressListOfUsdt",
          "type": "address[]"
        },
        {
          "internalType": "address[]",
          "name": "pairAddressListOfUsdc",
          "type": "address[]"
        }
      ],
      "stateMutability": "view",
      "type": "function",
      "constant": true
    }
  ],
  "bytecode": "0x608060405234801561001057600080fd5b5061235b806100206000396000f3fe608060405234801561001057600080fd5b50600436106100885760003560e01c8063850624121161005b578063850624121461010d578063881de76d1461012d578063b875897414610140578063dd2833f71461015357610088565b80631077dcc11461008d578063139661f5146100b857806339ac5a14146100cb57806368e62084146100ec575b600080fd5b6100a061009b366004611e20565b610176565b6040516100af9392919061223b565b60405180910390f35b6100a06100c6366004611e20565b61055e565b6100de6100d9366004611e20565b61091d565b6040516100af9291906121c1565b6100ff6100fa366004611cf5565b610bd0565b6040516100af929190612180565b61012061011b366004611e95565b610e16565b6040516100af91906121ae565b6100de61013b366004611e20565b6110bf565b6100de61014e366004611e65565b611365565b610166610161366004611c48565b61160b565b6040516100af94939291906121e3565b606080600080876001600160a01b031663d4d728da6040518163ffffffff1660e01b815260040160206040518083038186803b1580156101b557600080fd5b505afa1580156101c9573d6000803e3d6000fd5b505050506040513d601f19601f820116820180604052508101906101ed9190611c25565b90506000886001600160a01b0316632d611131896040518263ffffffff1660e01b815260040161021d9190612118565b60206040518083038186803b15801561023557600080fd5b505afa158015610249573d6000803e3d6000fd5b505050506040513d601f19601f8201168201806040525081019061026d9190611f96565b90506064811161027d5780610280565b60645b6001600160401b038111801561029557600080fd5b506040519080825280602002602001820160405280156102bf578160200160208202803683370190505b509450606481116102d057806102d3565b60645b6001600160401b03811180156102e857600080fd5b50604051908082528060200260200182016040528015610312578160200160208202803683370190505b50935060005b8181101561055157604051631b11481760e01b81526000906001600160a01b038c1690631b11481790610351908d908690600401612167565b60206040518083038186803b15801561036957600080fd5b505afa15801561037d573d6000803e3d6000fd5b505050506040513d601f19601f820116820180604052508101906103a19190611f96565b90506103ab611afb565b60405163d311636b60e01b81526001600160a01b0386169063d311636b906103d79085906004016122a2565b6101a06040518083038186803b1580156103f057600080fd5b505afa158015610404573d6000803e3d6000fd5b505050506040513d601f19601f820116820180604052508101906104289190611ecd565b80516040516331a9108f60e11b81529192506000916001600160a01b03881691636352211e9161045b91906004016122a2565b60206040518083038186803b15801561047357600080fd5b505afa158015610487573d6000803e3d6000fd5b505050506040513d601f19601f820116820180604052508101906104ab9190611c25565b9050600282610120015160028111156104c057fe5b1480156104de57508b6001600160a01b0316816001600160a01b0316145b80156104ef57508a82610160015110155b80156104ff575089826101600151105b156105465761018082015182518a518b908a90811061051a57fe5b6020026020010181815250508089898151811061053357fe5b6020908102919091010152506001909601955b505050600101610318565b5050509450945094915050565b606080600080876001600160a01b031663d4d728da6040518163ffffffff1660e01b815260040160206040518083038186803b15801561059d57600080fd5b505afa1580156105b1573d6000803e3d6000fd5b505050506040513d601f19601f820116820180604052508101906105d59190611c25565b90506000886001600160a01b031663c6388845896040518263ffffffff1660e01b81526004016106059190612118565b60206040518083038186803b15801561061d57600080fd5b505afa158015610631573d6000803e3d6000fd5b505050506040513d601f19601f820116820180604052508101906106559190611f96565b9050606481116106655780610668565b60645b6001600160401b038111801561067d57600080fd5b506040519080825280602002602001820160405280156106a7578160200160208202803683370190505b509450606481116106b857806106bb565b60645b6001600160401b03811180156106d057600080fd5b506040519080825280602002602001820160405280156106fa578160200160208202803683370190505b50935060005b8181101561055157604051638862f28560e01b81526000906001600160a01b038c1690638862f28590610739908d908690600401612167565b60206040518083038186803b15801561075157600080fd5b505afa158015610765573d6000803e3d6000fd5b505050506040513d601f19601f820116820180604052508101906107899190611f96565b9050610793611afb565b60405163d311636b60e01b81526001600160a01b0386169063d311636b906107bf9085906004016122a2565b6101a06040518083038186803b1580156107d857600080fd5b505afa1580156107ec573d6000803e3d6000fd5b505050506040513d601f19601f820116820180604052508101906108109190611ecd565b80516040516331a9108f60e11b81529192506000916001600160a01b03881691636352211e9161084391906004016122a2565b60206040518083038186803b15801561085b57600080fd5b505afa15801561086f573d6000803e3d6000fd5b505050506040513d601f19601f820116820180604052508101906108939190611c25565b90508b6001600160a01b0316816001600160a01b03161480156108bb57508a82610160015110155b80156108cb575089826101600151105b156109125761018082015182518a518b908a9081106108e657fe5b602002602001018181525050808989815181106108ff57fe5b6020908102919091010152506001909601955b505050600101610700565b6060600080866001600160a01b031663c6388845876040518263ffffffff1660e01b815260040161094e9190612118565b60206040518083038186803b15801561096657600080fd5b505afa15801561097a573d6000803e3d6000fd5b505050506040513d601f19601f8201168201806040525081019061099e9190611f96565b9050600181038511610bc65780848601116109b957836109bd565b8481035b9350836001600160401b03811180156109d557600080fd5b50604051908082528060200260200182016040528015610a0f57816020015b6109fc611afb565b8152602001906001900390816109f45790505b5092506000876001600160a01b031663d4d728da6040518163ffffffff1660e01b815260040160206040518083038186803b158015610a4d57600080fd5b505afa158015610a61573d6000803e3d6000fd5b505050506040513d601f19601f82011682018060405250810190610a859190611c25565b9050855b858701811015610bc357604051638862f28560e01b81526000906001600160a01b038b1690638862f28590610ac4908c908690600401612167565b60206040518083038186803b158015610adc57600080fd5b505afa158015610af0573d6000803e3d6000fd5b505050506040513d601f19601f82011682018060405250810190610b149190611f96565b9050610b1e611afb565b60405163d311636b60e01b81526001600160a01b0385169063d311636b90610b4a9085906004016122a2565b6101a06040518083038186803b158015610b6357600080fd5b505afa158015610b77573d6000803e3d6000fd5b505050506040513d601f19601f82011682018060405250810190610b9b9190611ecd565b905080878781518110610baa57fe5b6020908102919091010152505060019384019301610a89565b50505b5094509492505050565b83516060908190806001600160401b0381118015610bed57600080fd5b50604051908082528060200260200182016040528015610c17578160200160208202803683370190505b508551909350806001600160401b0381118015610c3357600080fd5b50604051908082528060200260200182016040528015610c5d578160200160208202803683370190505b50925060005b82811015610d34576000898281518110610c7957fe5b6020026020010151905060008b6001600160a01b031663e6a43905838c6040518363ffffffff1660e01b8152600401610cb392919061212c565b60206040518083038186803b158015610ccb57600080fd5b505afa158015610cdf573d6000803e3d6000fd5b505050506040513d601f19601f82011682018060405250810190610d039190611c25565b905080878481518110610d1257fe5b6001600160a01b03909216602092830291909101909101525050600101610c63565b5060005b81811015610e09576000878281518110610d4e57fe5b6020026020010151905060008b6001600160a01b031663e6a43905838a6040518363ffffffff1660e01b8152600401610d8892919061212c565b60206040518083038186803b158015610da057600080fd5b505afa158015610db4573d6000803e3d6000fd5b505050506040513d601f19601f82011682018060405250810190610dd89190611c25565b905080868481518110610de757fe5b6001600160a01b03909216602092830291909101909101525050600101610d38565b5050509550959350505050565b60606000836001600160a01b0316638eb7e51e846040518263ffffffff1660e01b8152600401610e469190612118565b60206040518083038186803b158015610e5e57600080fd5b505afa158015610e72573d6000803e3d6000fd5b505050506040513d601f19601f82011682018060405250810190610e969190611f96565b90506060846001600160a01b0316632bf258ed856000856040518463ffffffff1660e01b8152600401610ecb93929190612146565b60006040518083038186803b158015610ee357600080fd5b505afa158015610ef7573d6000803e3d6000fd5b505050506040513d6000823e601f3d908101601f19168201604052610f1f9190810190611d91565b9050816001600160401b0381118015610f3757600080fd5b50604051908082528060200260200182016040528015610f7157816020015b610f5e611afb565b815260200190600190039081610f565790505b5092506000856001600160a01b031663d06fcba86040518163ffffffff1660e01b815260040160206040518083038186803b158015610faf57600080fd5b505afa158015610fc3573d6000803e3d6000fd5b505050506040513d601f19601f82011682018060405250810190610fe79190611c25565b905060005b838110156110b557600083828151811061100257fe5b60200260200101519050611014611afb565b60405163d311636b60e01b81526001600160a01b0385169063d311636b906110409085906004016122a2565b6101a06040518083038186803b15801561105957600080fd5b505afa15801561106d573d6000803e3d6000fd5b505050506040513d601f19601f820116820180604052508101906110919190611ecd565b9050808784815181106110a057fe5b60209081029190910101525050600101610fec565b5050505092915050565b6060600080866001600160a01b0316632d611131876040518263ffffffff1660e01b81526004016110f09190612118565b60206040518083038186803b15801561110857600080fd5b505afa15801561111c573d6000803e3d6000fd5b505050506040513d601f19601f820116820180604052508101906111409190611f96565b9050600181038511610bc657808486011161115b578361115f565b8481035b9350836001600160401b038111801561117757600080fd5b506040519080825280602002602001820160405280156111b157816020015b61119e611afb565b8152602001906001900390816111965790505b5092506000876001600160a01b031663d4d728da6040518163ffffffff1660e01b815260040160206040518083038186803b1580156111ef57600080fd5b505afa158015611203573d6000803e3d6000fd5b505050506040513d601f19601f820116820180604052508101906112279190611c25565b9050855b858701811015610bc357604051631b11481760e01b81526000906001600160a01b038b1690631b11481790611266908c908690600401612167565b60206040518083038186803b15801561127e57600080fd5b505afa158015611292573d6000803e3d6000fd5b505050506040513d601f19601f820116820180604052508101906112b69190611f96565b90506112c0611afb565b60405163d311636b60e01b81526001600160a01b0385169063d311636b906112ec9085906004016122a2565b6101a06040518083038186803b15801561130557600080fd5b505afa158015611319573d6000803e3d6000fd5b505050506040513d601f19601f8201168201806040525081019061133d9190611ecd565b90508087878151811061134c57fe5b602090810291909101015250506001938401930161122b565b6060600080866001600160a01b0316633c72814d876040518263ffffffff1660e01b81526004016113969190612271565b60206040518083038186803b1580156113ae57600080fd5b505afa1580156113c2573d6000803e3d6000fd5b505050506040513d601f19601f820116820180604052508101906113e69190611f96565b9050600181038511610bc65780848601116114015783611405565b8481035b9350836001600160401b038111801561141d57600080fd5b5060405190808252806020026020018201604052801561145757816020015b611444611afb565b81526020019060019003908161143c5790505b5092506000876001600160a01b031663d4d728da6040518163ffffffff1660e01b815260040160206040518083038186803b15801561149557600080fd5b505afa1580156114a9573d6000803e3d6000fd5b505050506040513d601f19601f820116820180604052508101906114cd9190611c25565b9050855b858701811015610bc35760405163952c70fb60e01b81526000906001600160a01b038b169063952c70fb9061150c908c908690600401612286565b60206040518083038186803b15801561152457600080fd5b505afa158015611538573d6000803e3d6000fd5b505050506040513d601f19601f8201168201806040525081019061155c9190611f96565b9050611566611afb565b60405163d311636b60e01b81526001600160a01b0385169063d311636b906115929085906004016122a2565b6101a06040518083038186803b1580156115ab57600080fd5b505afa1580156115bf573d6000803e3d6000fd5b505050506040513d601f19601f820116820180604052508101906115e39190611ecd565b9050808787815181106115f257fe5b60209081029190910101525050600193840193016114d1565b606080606080600088519050806001600160401b038111801561162d57600080fd5b50604051908082528060200260200182016040528015611657578160200160208202803683370190505b509450806001600160401b038111801561167057600080fd5b5060405190808252806020026020018201604052801561169a578160200160208202803683370190505b508751909450806001600160401b03811180156116b657600080fd5b506040519080825280602002602001820160405280156116e0578160200160208202803683370190505b509350806001600160401b03811180156116f957600080fd5b50604051908082528060200260200182016040528015611723578160200160208202803683370190505b50925060005b828110156119085760008b828151811061173f57fe5b6020026020010151905060008e6001600160a01b031663e6a43905838e6040518363ffffffff1660e01b815260040161177992919061212c565b60206040518083038186803b15801561179157600080fd5b505afa1580156117a5573d6000803e3d6000fd5b505050506040513d601f19601f820116820180604052508101906117c99190611c25565b90506001600160a01b0381166117e0575050611900565b806001600160a01b03166384cc315b8f6040518263ffffffff1660e01b815260040161180c9190612118565b60206040518083038186803b15801561182457600080fd5b505afa158015611838573d6000803e3d6000fd5b505050506040513d601f19601f8201168201806040525081019061185c9190611f96565b89848151811061186857fe5b602002602001018181525050806001600160a01b031663392da1b06040518163ffffffff1660e01b815260040160206040518083038186803b1580156118ad57600080fd5b505afa1580156118c1573d6000803e3d6000fd5b505050506040513d601f19601f820116820180604052508101906118e59190611f96565b8884815181106118f157fe5b60200260200101818152505050505b600101611729565b5060005b81811015611aeb57600089828151811061192257fe5b6020026020010151905060008e6001600160a01b031663e6a43905838c6040518363ffffffff1660e01b815260040161195c92919061212c565b60206040518083038186803b15801561197457600080fd5b505afa158015611988573d6000803e3d6000fd5b505050506040513d601f19601f820116820180604052508101906119ac9190611c25565b90506001600160a01b0381166119c3575050611ae3565b806001600160a01b03166384cc315b8f6040518263ffffffff1660e01b81526004016119ef9190612118565b60206040518083038186803b158015611a0757600080fd5b505afa158015611a1b573d6000803e3d6000fd5b505050506040513d601f19601f82011682018060405250810190611a3f9190611f96565b878481518110611a4b57fe5b602002602001018181525050806001600160a01b031663392da1b06040518163ffffffff1660e01b815260040160206040518083038186803b158015611a9057600080fd5b505afa158015611aa4573d6000803e3d6000fd5b505050506040513d601f19601f82011682018060405250810190611ac89190611f96565b868481518110611ad457fe5b60200260200101818152505050505b60010161190c565b5050509650965096509692505050565b604051806101a00160405280600081526020016000815260200160006001600160a01b0316815260200160006001600160a01b031681526020016000151581526020016000815260200160008152602001600081526020016000815260200160006002811115611b6757fe5b81526020016000815260200160008152602001600081525090565b8051611b8d81612300565b92915050565b600082601f830112611ba3578081fd5b8135611bb6611bb1826122d1565b6122ab565b818152915060208083019084810181840286018201871015611bd757600080fd5b60005b84811015611bff578135611bed81612300565b84529282019290820190600101611bda565b505050505092915050565b80518015158114611b8d57600080fd5b8051611b8d81612318565b600060208284031215611c36578081fd5b8151611c4181612300565b9392505050565b60008060008060008060c08789031215611c60578182fd5b8635611c6b81612300565b95506020870135611c7b81612300565b945060408701356001600160401b0380821115611c96578384fd5b611ca28a838b01611b93565b955060608901359150611cb482612300565b90935060808801359080821115611cc9578384fd5b50611cd689828a01611b93565b92505060a0870135611ce781612300565b809150509295509295509295565b600080600080600060a08688031215611d0c578081fd5b8535611d1781612300565b945060208601356001600160401b0380821115611d32578283fd5b611d3e89838a01611b93565b955060408801359150611d5082612300565b90935060608701359080821115611d65578283fd5b50611d7288828901611b93565b9250506080860135611d8381612300565b809150509295509295909350565b60006020808385031215611da3578182fd5b82516001600160401b03811115611db8578283fd5b8301601f81018513611dc8578283fd5b8051611dd6611bb1826122d1565b8181528381019083850185840285018601891015611df2578687fd5b8694505b83851015611e14578051835260019490940193918501918501611df6565b50979650505050505050565b60008060008060808587031215611e35578384fd5b8435611e4081612300565b93506020850135611e5081612300565b93969395505050506040820135916060013590565b60008060008060808587031215611e7a578384fd5b8435611e8581612300565b93506020850135611e5081612318565b60008060408385031215611ea7578081fd5b8235611eb281612300565b91506020830135611ec281612300565b809150509250929050565b60006101a0808385031215611ee0578182fd5b611ee9816122ab565b90508251815260208301516020820152611f068460408501611b82565b6040820152611f188460608501611b82565b6060820152611f2a8460808501611c0a565b608082015260a083015160a082015260c083015160c082015260e083015160e0820152610100808401518183015250610120611f6885828601611c1a565b9082015261014083810151908201526101608084015190820152610180928301519281019290925250919050565b600060208284031215611fa7578081fd5b5051919050565b6001600160a01b03169052565b6000815180845260208085019450808401835b83811015611ff35781516001600160a01b031687529582019590820190600101611fce565b509495945050505050565b6000815180845260208085019450808401835b83811015611ff3578151805188528381015184890152604080820151612039828b0182611fae565b505060608082015161204d828b0182611fae565b5050608080820151612061828b0182612104565b505060a0818101519089015260c0808201519089015260e0808201519089015261010080820151908901526101208082015161209f828b018261210a565b50506101408181015190890152610160808201519089015261018090810151908801526101a09096019590820190600101612011565b6000815180845260208085019450808401835b83811015611ff3578151875295820195908201906001016120e8565b15159052565b6003811061211457fe5b9052565b6001600160a01b0391909116815260200190565b6001600160a01b0392831681529116602082015260400190565b6001600160a01b039390931683526020830191909152604082015260600190565b6001600160a01b03929092168252602082015260400190565b6000604082526121936040830185611fbb565b82810360208401526121a58185611fbb565b95945050505050565b600060208252611c416020830184611ffe565b6000604082526121d46040830185611ffe565b90508260208301529392505050565b6000608082526121f660808301876120d5565b828103602084015261220881876120d5565b9050828103604084015261221c81866120d5565b9050828103606084015261223081856120d5565b979650505050505050565b60006060825261224e60608301866120d5565b828103602084015261226081866120d5565b915050826040830152949350505050565b6020810161227e836122f0565b825292915050565b60408101612293846122f0565b82528260208301529392505050565b90815260200190565b6040518181016001600160401b03811182821017156122c957600080fd5b604052919050565b60006001600160401b038211156122e6578081fd5b5060209081020190565b80600381106122fb57fe5b919050565b6001600160a01b038116811461231557600080fd5b50565b6003811061231557600080fdfea26469706673582212205b5c1e103b45629b9666460ca8c6ed47ab6182843c33e3e7e80e371e9256f1f064736f6c634300060c0033",
  "immutableReferences": {},
  "source": "// SPDX-License-Identifier: MIT\npragma solidity ^0.6.0;\npragma experimental ABIEncoderV2;\n\nimport \"./common/BasicStruct.sol\";\n\ninterface IBoboPair {\n    function getUserDealedOrderNumber(address _userAddr) view external returns(uint256);\n    function userDealedOrdersMap(address _userAddr, uint256 _index) view external returns(uint256);\n    function userOrdersMap(address _userAddr, uint256 _index) view external returns(uint256);\n    function orderNFT() view external returns(address);\n    function getUserOrderNumber(address _userAddr) view external returns(uint256);\n    function getOrderNumber(OrderStatus _orderStatus) view external returns(uint256);\n    function sealedOrdersMap(OrderStatus _orderStatus, uint256 _index) view external returns(uint256);\n    function getCurrentPrice(address _boboRouter) view external returns(uint256);\n    function volumnOf24Hours() view external returns(uint256);\n}\n\ninterface IBoboTradeMining {\n    function nftToken() view external returns(address);\n    function getUserNFTNumber(address _user) view external returns(uint256);\n    function getUserNFTIds(address _user, uint256 _fromIndex, uint256 _toIndex) view external returns(uint256[] memory nftIds);\n}\n\ninterface IBoboFactory {\n    function getPair(address tokenA, address tokenB) view external returns(address);\n}\n\n\ncontract BoboPairHelper {\n    function getDepositableOrders(IBoboPair _boboPair, address _userAddr, uint256 _startTime, uint256 _endTime) \n        view public returns(uint256[] memory orderIds, uint256[] memory weights, uint256 count) {\n        \n        IOrderNFT orderNFT = IOrderNFT(_boboPair.orderNFT());\n        uint256 orderNumber = _boboPair.getUserDealedOrderNumber(_userAddr);\n        orderIds = new uint256[](orderNumber > 100 ? 100 : orderNumber);\n        weights = new uint256[](orderNumber > 100 ? 100 : orderNumber);\n        for (uint256 i; i < orderNumber; i++) {\n            uint256 orderId = _boboPair.userDealedOrdersMap(_userAddr, i);\n            OrderInfo memory orderInfo = orderNFT.getOrderInfo(orderId);\n            address ownerAddr = orderNFT.ownerOf(orderInfo.id);\n            if (ownerAddr == _userAddr && orderInfo.dealedTime >= _startTime && orderInfo.dealedTime < _endTime) {\n                uint256 weight = orderInfo.weight;\n                orderIds[count] = orderInfo.id;\n                weights[count] = weight;\n                count++;\n            }\n        }\n    }\n\n    function getDepositableOrders_old(IBoboPair _boboPair, address _userAddr, uint256 _startTime, uint256 _endTime) \n        view public returns(uint256[] memory orderIds, uint256[] memory weights, uint256 count) {\n        \n        IOrderNFT orderNFT = IOrderNFT(_boboPair.orderNFT());\n        uint256 orderNumber = _boboPair.getUserOrderNumber(_userAddr);\n        orderIds = new uint256[](orderNumber > 100 ? 100 : orderNumber);\n        weights = new uint256[](orderNumber > 100 ? 100 : orderNumber);\n        for (uint256 i; i < orderNumber; i++) {\n            uint256 orderId = _boboPair.userOrdersMap(_userAddr, i);\n            OrderInfo memory orderInfo = orderNFT.getOrderInfo(orderId);\n            address ownerAddr = orderNFT.ownerOf(orderInfo.id);   // ownerowner\n            if (orderInfo.status == OrderStatus.Dealed && ownerAddr == _userAddr && orderInfo.dealedTime >= _startTime && orderInfo.dealedTime < _endTime) {\n                uint256 weight = orderInfo.weight;\n                orderIds[count] = orderInfo.id;\n                weights[count] = weight;\n                count++;\n            }\n        }\n    }\n\n    function getAllUnhangingOrders(IBoboPair _boboPair, address _userAddr, uint256 _fromIndex, uint256 _pageSize) \n        view public returns(OrderInfo[] memory nftInfos, uint256 count) {\n        uint256 orderNumber = _boboPair.getUserOrderNumber(_userAddr);\n        if (_fromIndex <= orderNumber - 1) {\n            _pageSize = (_fromIndex + _pageSize) > orderNumber ? (orderNumber - _fromIndex) : _pageSize;\n            nftInfos = new OrderInfo[](_pageSize);\n            IOrderNFT orderNFT = IOrderNFT(_boboPair.orderNFT());\n            for (uint256 i = _fromIndex; i < _fromIndex + _pageSize; i++) {\n                uint256 orderId = _boboPair.userOrdersMap(_userAddr, i);\n                OrderInfo memory orderInfo = orderNFT.getOrderInfo(orderId);\n                nftInfos[count] = orderInfo;\n                count++;\n            } \n        }\n    }\n\n    function getOneStatusOrders(IBoboPair _boboPair, OrderStatus _orderStatus, uint256 _fromIndex, uint256 _pageSize) \n        view public returns(OrderInfo[] memory nftInfos, uint256 count) {\n        uint256 orderNumber = _boboPair.getOrderNumber(_orderStatus);\n        if (_fromIndex <= orderNumber - 1) {\n            _pageSize = (_fromIndex + _pageSize) > orderNumber ? (orderNumber - _fromIndex) : _pageSize;\n            nftInfos = new OrderInfo[](_pageSize);\n            IOrderNFT orderNFT = IOrderNFT(_boboPair.orderNFT());\n            for (uint256 i = _fromIndex; i < _fromIndex + _pageSize; i++) {\n                uint256 orderId = _boboPair.sealedOrdersMap(_orderStatus, i);\n                OrderInfo memory orderInfo = orderNFT.getOrderInfo(orderId);\n                nftInfos[count] = orderInfo;\n                count++;\n            } \n        }\n    }\n\n    function getAllDealedOrders(IBoboPair _boboPair, address _userAddr, uint256 _fromIndex, uint256 _pageSize) \n        view public returns(OrderInfo[] memory nftInfos, uint256 count) {\n        uint256 orderNumber = _boboPair.getUserDealedOrderNumber(_userAddr);\n\n        if (_fromIndex <= orderNumber - 1) {\n            _pageSize = (_fromIndex + _pageSize) > orderNumber ? (orderNumber - _fromIndex) : _pageSize;\n            nftInfos = new OrderInfo[](_pageSize);\n            IOrderNFT orderNFT = IOrderNFT(_boboPair.orderNFT());\n            for (uint256 i = _fromIndex; i < _fromIndex + _pageSize; i++) {\n                uint256 orderId = _boboPair.userDealedOrdersMap(_userAddr, i);\n                OrderInfo memory orderInfo = orderNFT.getOrderInfo(orderId);\n                nftInfos[count] = orderInfo;\n                count++;\n            } \n        }\n    }\n\n    function getAllDepositedOrders(IBoboTradeMining _boboTradeMining, address _usderAddr) view public returns(OrderInfo[] memory nftInfos) {\n        uint256 orderLength = _boboTradeMining.getUserNFTNumber(_usderAddr);\n        uint256[] memory orderIds = _boboTradeMining.getUserNFTIds(_usderAddr, 0, orderLength);\n        nftInfos = new OrderInfo[](orderLength);\n        IOrderNFT orderNFT = IOrderNFT(_boboTradeMining.nftToken());\n        for (uint256 i = 0; i < orderLength; i++) {\n            uint256 orderId = orderIds[i];\n            OrderInfo memory orderInfo = orderNFT.getOrderInfo(orderId);\n            nftInfos[i] = orderInfo;\n        } \n    }\n\n    function getPairInfo(address boboFactory, address boboRouter, address[] memory quoteTokenOfUsdt, address usdtAddr, address[] memory quoteTokenOfUsdc, address usdcAddr) \n        view public returns(uint256[] memory pricesOfUsdt, uint256[] memory volumnsOfUsdt, \n                            uint256[] memory pricesOfUsdc, uint256[] memory volumnsOfUsdc) {\n        \n        uint256 usdtTokenLength = quoteTokenOfUsdt.length;\n        pricesOfUsdt = new uint256[](usdtTokenLength);\n        volumnsOfUsdt = new uint256[](usdtTokenLength);\n\n        uint256 usdcTokenLength = quoteTokenOfUsdc.length;\n        pricesOfUsdc = new uint256[](usdcTokenLength);\n        volumnsOfUsdc = new uint256[](usdcTokenLength);\n\n        for (uint256 i = 0; i < usdtTokenLength; i++) {\n            address quoteTokenAddr = quoteTokenOfUsdt[i];\n            address pairAddr = IBoboFactory(boboFactory).getPair(quoteTokenAddr, usdtAddr);\n            if (pairAddr == address(0)) continue;\n            pricesOfUsdt[i] = IBoboPair(pairAddr).getCurrentPrice(boboRouter);\n            volumnsOfUsdt[i] = IBoboPair(pairAddr).volumnOf24Hours();\n        }\n\n        for (uint256 i = 0; i < usdcTokenLength; i++) {\n            address quoteTokenAddr = quoteTokenOfUsdc[i];\n            address pairAddr = IBoboFactory(boboFactory).getPair(quoteTokenAddr, usdcAddr);\n            if (pairAddr == address(0)) continue;\n            pricesOfUsdc[i] = IBoboPair(pairAddr).getCurrentPrice(boboRouter);\n            volumnsOfUsdc[i] = IBoboPair(pairAddr).volumnOf24Hours();\n        }\n    }\n\n    function getPairAddressList(address boboFactory, address[] memory quoteTokenOfUsdt, address usdtAddr, address[] memory quoteTokenOfUsdc, address usdcAddr) \n        view public returns(address[] memory pairAddressListOfUsdt, address[] memory pairAddressListOfUsdc) {\n        \n        uint256 usdtTokenLength = quoteTokenOfUsdt.length;\n        pairAddressListOfUsdt = new address[](usdtTokenLength);\n\n        uint256 usdcTokenLength = quoteTokenOfUsdc.length;\n        pairAddressListOfUsdc = new address[](usdcTokenLength);\n\n        for (uint256 i = 0; i < usdtTokenLength; i++) {\n            address quoteTokenAddr = quoteTokenOfUsdt[i];\n            address pairAddr = IBoboFactory(boboFactory).getPair(quoteTokenAddr, usdtAddr);\n            pairAddressListOfUsdt[i] = pairAddr;\n        }\n\n        for (uint256 i = 0; i < usdcTokenLength; i++) {\n            address quoteTokenAddr = quoteTokenOfUsdc[i];\n            address pairAddr = IBoboFactory(boboFactory).getPair(quoteTokenAddr, usdcAddr);\n            pairAddressListOfUsdc[i] = pairAddr;\n        }\n    }\n}",
  "sourcePath": "/Users/mryu/blockchain/bobo-metaverse/boboswap-contract/contracts/BoboPairHelper.sol",
  "compiler": {
    "name": "solc",
    "version": "0.6.12+commit.27d51765.Emscripten.clang"
  },
  "schemaVersion": "3.4.3",
  "updatedAt": "2021-10-22T07:21:12.702Z",
  "networkType": "ethereum",
  "devdoc": {
    "kind": "dev",
    "methods": {},
    "version": 1
  },
  "userdoc": {
    "kind": "user",
    "methods": {},
    "version": 1
  }
}