{
  "contractName": "BoboFactory",
  "abi": [
    {
      "inputs": [
        {
          "internalType": "address",
          "name": "_orderNFT",
          "type": "address"
        },
        {
          "internalType": "address",
          "name": "_boboFarmer",
          "type": "address"
        },
        {
          "internalType": "address",
          "name": "_exManager",
          "type": "address"
        }
      ],
      "stateMutability": "nonpayable",
      "type": "constructor"
    },
    {
      "anonymous": false,
      "inputs": [
        {
          "indexed": true,
          "internalType": "address",
          "name": "previousOwner",
          "type": "address"
        },
        {
          "indexed": true,
          "internalType": "address",
          "name": "newOwner",
          "type": "address"
        }
      ],
      "name": "OwnershipTransferred",
      "type": "event"
    },
    {
      "anonymous": false,
      "inputs": [
        {
          "indexed": true,
          "internalType": "address",
          "name": "quoteToken",
          "type": "address"
        },
        {
          "indexed": true,
          "internalType": "address",
          "name": "baseToken",
          "type": "address"
        },
        {
          "indexed": false,
          "internalType": "address",
          "name": "pairAddr",
          "type": "address"
        }
      ],
      "name": "PairCreated",
      "type": "event"
    },
    {
      "inputs": [],
      "name": "USDC",
      "outputs": [
        {
          "internalType": "address",
          "name": "",
          "type": "address"
        }
      ],
      "stateMutability": "view",
      "type": "function",
      "constant": true
    },
    {
      "inputs": [],
      "name": "USDT",
      "outputs": [
        {
          "internalType": "address",
          "name": "",
          "type": "address"
        }
      ],
      "stateMutability": "view",
      "type": "function",
      "constant": true
    },
    {
      "inputs": [],
      "name": "WMATIC",
      "outputs": [
        {
          "internalType": "address",
          "name": "",
          "type": "address"
        }
      ],
      "stateMutability": "view",
      "type": "function",
      "constant": true
    },
    {
      "inputs": [
        {
          "internalType": "uint256",
          "name": "",
          "type": "uint256"
        }
      ],
      "name": "allPairs",
      "outputs": [
        {
          "internalType": "address",
          "name": "",
          "type": "address"
        }
      ],
      "stateMutability": "view",
      "type": "function",
      "constant": true
    },
    {
      "inputs": [
        {
          "internalType": "address",
          "name": "",
          "type": "address"
        },
        {
          "internalType": "uint256",
          "name": "",
          "type": "uint256"
        }
      ],
      "name": "baseTokenPairs",
      "outputs": [
        {
          "internalType": "address",
          "name": "",
          "type": "address"
        }
      ],
      "stateMutability": "view",
      "type": "function",
      "constant": true
    },
    {
      "inputs": [],
      "name": "boboFarmer",
      "outputs": [
        {
          "internalType": "contract IBoboFarmer",
          "name": "",
          "type": "address"
        }
      ],
      "stateMutability": "view",
      "type": "function",
      "constant": true
    },
    {
      "inputs": [],
      "name": "exManager",
      "outputs": [
        {
          "internalType": "address",
          "name": "",
          "type": "address"
        }
      ],
      "stateMutability": "view",
      "type": "function",
      "constant": true
    },
    {
      "inputs": [
        {
          "internalType": "address",
          "name": "",
          "type": "address"
        },
        {
          "internalType": "address",
          "name": "",
          "type": "address"
        }
      ],
      "name": "getPair",
      "outputs": [
        {
          "internalType": "address",
          "name": "",
          "type": "address"
        }
      ],
      "stateMutability": "view",
      "type": "function",
      "constant": true
    },
    {
      "inputs": [],
      "name": "orderNFT",
      "outputs": [
        {
          "internalType": "address",
          "name": "",
          "type": "address"
        }
      ],
      "stateMutability": "view",
      "type": "function",
      "constant": true
    },
    {
      "inputs": [],
      "name": "owner",
      "outputs": [
        {
          "internalType": "address",
          "name": "",
          "type": "address"
        }
      ],
      "stateMutability": "view",
      "type": "function",
      "constant": true
    },
    {
      "inputs": [],
      "name": "renounceOwnership",
      "outputs": [],
      "stateMutability": "nonpayable",
      "type": "function"
    },
    {
      "inputs": [
        {
          "internalType": "address",
          "name": "newOwner",
          "type": "address"
        }
      ],
      "name": "transferOwnership",
      "outputs": [],
      "stateMutability": "nonpayable",
      "type": "function"
    },
    {
      "inputs": [
        {
          "internalType": "address",
          "name": "_boboFarmer",
          "type": "address"
        },
        {
          "internalType": "address",
          "name": "_exManager",
          "type": "address"
        }
      ],
      "name": "setAddresses",
      "outputs": [],
      "stateMutability": "nonpayable",
      "type": "function"
    },
    {
      "inputs": [
        {
          "internalType": "address",
          "name": "_quoteToken",
          "type": "address"
        },
        {
          "internalType": "address",
          "name": "_baseToken",
          "type": "address"
        }
      ],
      "name": "createPair",
      "outputs": [
        {
          "internalType": "address",
          "name": "pairAddr",
          "type": "address"
        }
      ],
      "stateMutability": "nonpayable",
      "type": "function"
    },
    {
      "inputs": [],
      "name": "pairNumber",
      "outputs": [
        {
          "internalType": "uint256",
          "name": "",
          "type": "uint256"
        }
      ],
      "stateMutability": "view",
      "type": "function",
      "constant": true
    },
    {
      "inputs": [
        {
          "internalType": "address",
          "name": "_quoteToken",
          "type": "address"
        },
        {
          "internalType": "address",
          "name": "_baseToken",
          "type": "address"
        },
        {
          "internalType": "address",
          "name": "_auth",
          "type": "address"
        }
      ],
      "name": "addPairAuth",
      "outputs": [],
      "stateMutability": "nonpayable",
      "type": "function"
    },
    {
      "inputs": [
        {
          "internalType": "address",
          "name": "_baseToken",
          "type": "address"
        }
      ],
      "name": "getBaseTokenPairLength",
      "outputs": [
        {
          "internalType": "uint256",
          "name": "",
          "type": "uint256"
        }
      ],
      "stateMutability": "view",
      "type": "function",
      "constant": true
    },
    {
      "inputs": [
        {
          "internalType": "address",
          "name": "_baseToken",
          "type": "address"
        },
        {
          "internalType": "address",
          "name": "_userAddr",
          "type": "address"
        }
      ],
      "name": "getTotalHangingTokenAmount",
      "outputs": [
        {
          "internalType": "uint256",
          "name": "",
          "type": "uint256"
        }
      ],
      "stateMutability": "view",
      "type": "function",
      "constant": true
    },
    {
      "inputs": [
        {
          "internalType": "address",
          "name": "_baseToken",
          "type": "address"
        },
        {
          "internalType": "address",
          "name": "_userAddr",
          "type": "address"
        }
      ],
      "name": "getClaimBaseTokenAmount",
      "outputs": [
        {
          "internalType": "uint256",
          "name": "",
          "type": "uint256"
        }
      ],
      "stateMutability": "view",
      "type": "function",
      "constant": true
    },
    {
      "inputs": [
        {
          "internalType": "address",
          "name": "_baseToken",
          "type": "address"
        }
      ],
      "name": "claimBaseToken",
      "outputs": [],
      "stateMutability": "nonpayable",
      "type": "function"
    },
    {
      "inputs": [
        {
          "internalType": "address",
          "name": "_baseToken",
          "type": "address"
        }
      ],
      "name": "claimBoboToken",
      "outputs": [],
      "stateMutability": "nonpayable",
      "type": "function"
    }
  ],
  "bytecode": "0x608060405234801561001057600080fd5b50604051615d2c380380615d2c8339818101604052606081101561003357600080fd5b5080516020820151604090920151909190600061004e6100da565b600080546001600160a01b0319166001600160a01b0383169081178255604051929350917f8be0079c531659141344cd1fd0a4f28419497f9722a3daafe3b4186f6b6457e0908290a350600580546001600160a01b039485166001600160a01b0319918216179091556004805493851693821693909317909255600680549190931691161790556100de565b3390565b615c3f806100ed6000396000f3fe60806040523480156200001157600080fd5b5060043610620001545760003560e01c80639d919ad911620000c9578063cd0e17de1162000087578063cd0e17de1462000336578063d23adceb1462000367578063d4d728da1462000398578063e6a4390514620003a2578063f08f1ba914620003d3578063f2fde38b14620003dd5762000154565b80639d919ad9146200027a578063aceda55914620002a9578063b8005df314620002d2578063c54e44eb14620002fb578063c9c6539614620003055762000154565b806375b3a1f9116200011757806375b3a1f914620001f057806389a30271146200022b5780638da5cb5b146200023557806390107afe146200023f57806397d8739314620002705762000154565b80631960e23214620001595780631e3dd18b146200017f5780634d95cad9146200019f57806356fb75ea14620001a9578063715018a614620001e6575b600080fd5b6200016362000406565b604080516001600160a01b039092168252519081900360200190f35b62000163600480360360208110156200019757600080fd5b503562000415565b620001636200043d565b620001e460048036036060811015620001c157600080fd5b506001600160a01b03813581169160208101358216916040909101351662000455565b005b620001e4620005b0565b62000219600480360360208110156200020857600080fd5b50356001600160a01b031662000656565b60408051918252519081900360200190f35b6200016362000671565b6200016362000689565b620001e4600480360360408110156200025757600080fd5b506001600160a01b038135811691602001351662000698565b6200016362000750565b62000163600480360360408110156200029257600080fd5b506001600160a01b0381351690602001356200075f565b620001e460048036036020811015620002c157600080fd5b50356001600160a01b031662000795565b620001e460048036036020811015620002ea57600080fd5b50356001600160a01b0316620008aa565b6200016362000b2f565b62000163600480360360408110156200031d57600080fd5b506001600160a01b038135811691602001351662000b47565b62000219600480360360408110156200034e57600080fd5b506001600160a01b038135811691602001351662000ee3565b62000219600480360360408110156200037f57600080fd5b506001600160a01b038135811691602001351662000f93565b62000163620010f3565b6200016360048036036040811015620003ba57600080fd5b506001600160a01b038135811691602001351662001102565b6200021962001128565b620001e460048036036020811015620003f557600080fd5b50356001600160a01b03166200112e565b6004546001600160a01b031681565b600181815481106200042357fe5b6000918252602090912001546001600160a01b0316905081565b730d500b1d8e8ef31e21c99d1db9a6444d3adf127081565b6200045f6200122c565b6000546001600160a01b03908116911614620004b1576040805162461bcd60e51b8152602060048201819052602482015260008051602062005bea833981519152604482015290519081900360640190fd5b6001600160a01b038084166000908152600260209081526040808320868516845290915290205416806200052c576040805162461bcd60e51b815260206004820152601c60248201527f426f626f466163746f72793a20504149525f4e4f545f45584953545300000000604482015290519081900360640190fd5b806001600160a01b031663cf1c316a836040518263ffffffff1660e01b815260040180826001600160a01b03168152602001915050602060405180830381600087803b1580156200057c57600080fd5b505af115801562000591573d6000803e3d6000fd5b505050506040513d6020811015620005a857600080fd5b505050505050565b620005ba6200122c565b6000546001600160a01b039081169116146200060c576040805162461bcd60e51b8152602060048201819052602482015260008051602062005bea833981519152604482015290519081900360640190fd5b600080546040516001600160a01b03909116907f8be0079c531659141344cd1fd0a4f28419497f9722a3daafe3b4186f6b6457e0908390a3600080546001600160a01b0319169055565b6001600160a01b031660009081526003602052604090205490565b732791bca1f2de4661ed88a30c99a7a9449aa8417481565b6000546001600160a01b031690565b620006a26200122c565b6000546001600160a01b03908116911614620006f4576040805162461bcd60e51b8152602060048201819052602482015260008051602062005bea833981519152604482015290519081900360640190fd5b6001600160a01b038216156200072057600480546001600160a01b0319166001600160a01b0384161790555b6001600160a01b038116156200074c57600680546001600160a01b0319166001600160a01b0383161790555b5050565b6006546001600160a01b031681565b600360205281600052604060002081815481106200077957fe5b6000918252602090912001546001600160a01b03169150829050565b6000600460009054906101000a90046001600160a01b03166001600160a01b031663e6a08025836040518263ffffffff1660e01b815260040180826001600160a01b0316815260200191505060206040518083038186803b158015620007fa57600080fd5b505afa1580156200080f573d6000803e3d6000fd5b505050506040513d60208110156200082657600080fd5b50511115620008a7576004805460408051636ce5768960e11b81526001600160a01b03858116948201949094523360248201526000604482018190529151939092169263d9caed1292606480820193929182900301818387803b1580156200088d57600080fd5b505af1158015620008a2573d6000803e3d6000fd5b505050505b50565b6000620008b8823362000ee3565b90506000600460009054906101000a90046001600160a01b03166001600160a01b031663e6a08025846040518263ffffffff1660e01b815260040180826001600160a01b0316815260200191505060206040518083038186803b1580156200091f57600080fd5b505afa15801562000934573d6000803e3d6000fd5b505050506040513d60208110156200094b57600080fd5b505111156200074c576000826001600160a01b03166370a08231306040518263ffffffff1660e01b815260040180826001600160a01b0316815260200191505060206040518083038186803b158015620009a457600080fd5b505afa158015620009b9573d6000803e3d6000fd5b505050506040513d6020811015620009d057600080fd5b50516004805460408051636ce5768960e11b81526001600160a01b038881169482019490945233602482015260448101879052905193945091169163d9caed129160648082019260009290919082900301818387803b15801562000a3357600080fd5b505af115801562000a48573d6000803e3d6000fd5b505050506000836001600160a01b03166370a08231306040518263ffffffff1660e01b815260040180826001600160a01b0316815260200191505060206040518083038186803b15801562000a9c57600080fd5b505afa15801562000ab1573d6000803e3d6000fd5b505050506040513d602081101562000ac857600080fd5b505190506001600160a01b03841663a9059cbb3362000ae8848662001230565b6040518363ffffffff1660e01b815260040180836001600160a01b0316815260200182815260200192505050602060405180830381600087803b1580156200057c57600080fd5b73c2132d05d31c914a87c6611c10748aeb04b58e8f81565b6000816001600160a01b0316836001600160a01b0316141562000bb1576040805162461bcd60e51b815260206004820181905260248201527f426f626f466163746f72793a204944454e544943414c5f414444524553534553604482015290519081900360640190fd5b6001600160a01b03831662000c0d576040805162461bcd60e51b815260206004820152601960248201527f426f626f466163746f72793a205a45524f5f4144445245535300000000000000604482015290519081900360640190fd5b6001600160a01b0383811660009081526002602090815260408083208685168452909152902054161562000c88576040805162461bcd60e51b815260206004820152601860248201527f426f626f466163746f72793a20504149525f4558495354530000000000000000604482015290519081900360640190fd5b60606040518060200162000c9c9062001371565b6020820181038252601f19601f8201166040525090506000848460405160200180836001600160a01b031660601b8152601401826001600160a01b031660601b815260140192505050604051602081830303815290604052805190602001209050808251602084016000f56004805460055460408051630a2ca2bd60e11b81526001600160a01b038b8116958201959095528985166024820152336044820152928416606484015290831660848301525192955090851691631459457a9160a48082019260009290919082900301818387803b15801562000d7c57600080fd5b505af115801562000d91573d6000803e3d6000fd5b505060065460408051631d33a31960e31b81526001600160a01b0392831660048201529051918716935063e99d18c8925060248082019260009290919082900301818387803b15801562000de457600080fd5b505af115801562000df9573d6000803e3d6000fd5b5050506001600160a01b0380871660008181526002602081815260408084208b87168086529083528185208054978c166001600160a01b03199889168117909155938352818520868652835281852080548816851790556001805480820182557fb10e2d527612073b26eecdfd717e6a320cf44b4afac2b0732d9fcbe2b7fa0cf60180548916861790558186526003845282862080549182018155865294839020909401805490961685179095558451918252935191945091927fa92a2b95c8d8436f6ac4c673c61487364f877efb9534d4296fad8ef904546c94928290030190a3505092915050565b600480546040805163d0f2ced160e01b81526001600160a01b0386811694820194909452848416602482015290516000938493169163d0f2ced1916044808301926020929190829003018186803b15801562000f3e57600080fd5b505afa15801562000f53573d6000803e3d6000fd5b505050506040513d602081101562000f6a57600080fd5b50519050600062000f7c858562000f93565b905062000f8a828262001230565b95945050505050565b6001600160a01b0382166000908152600360209081526040808320805482518185028101850190935280835284936060939291908301828280156200100257602002820191906000526020600020905b81546001600160a01b0316815260019091019060200180831162000fe3575b5050505050905060005b8151811015620010e9576000600260008484815181106200102957fe5b6020908102919091018101516001600160a01b03908116835282820193909352604091820160009081208b8516825290915281812054825163761a90a760e11b81528a8516600482015283519190941694509092849263ec35214e92602480840193829003018186803b158015620010a057600080fd5b505afa158015620010b5573d6000803e3d6000fd5b505050506040513d6040811015620010cc57600080fd5b50519050620010dc85826200127b565b945050506001016200100c565b5090949350505050565b6005546001600160a01b031681565b60026020908152600092835260408084209091529082529020546001600160a01b031681565b60015490565b620011386200122c565b6000546001600160a01b039081169116146200118a576040805162461bcd60e51b8152602060048201819052602482015260008051602062005bea833981519152604482015290519081900360640190fd5b6001600160a01b038116620011d15760405162461bcd60e51b815260040180806020018281038252602681526020018062005bc46026913960400191505060405180910390fd5b600080546040516001600160a01b03808516939216917f8be0079c531659141344cd1fd0a4f28419497f9722a3daafe3b4186f6b6457e091a3600080546001600160a01b0319166001600160a01b0392909216919091179055565b3390565b60006200127483836040518060400160405280601e81526020017f536166654d6174683a207375627472616374696f6e206f766572666c6f770000815250620012d6565b9392505050565b60008282018381101562001274576040805162461bcd60e51b815260206004820152601b60248201527f536166654d6174683a206164646974696f6e206f766572666c6f770000000000604482015290519081900360640190fd5b60008184841115620013695760405162461bcd60e51b81526004018080602001828103825283818151815260200191508051906020019080838360005b838110156200132d57818101518382015260200162001313565b50505050905090810190601f1680156200135b5780820380516001836020036101000a031916815260200191505b509250505060405180910390fd5b505050900390565b61484480620013808339019056fe60806040523480156200001157600080fd5b5060006200001e6200009d565b600080546001600160a01b0319166001600160a01b0383169081178255604051929350917f8be0079c531659141344cd1fd0a4f28419497f9722a3daafe3b4186f6b6457e0908290a3506001600955600c80546001600160a01b031916339081179091556200008d90620000a1565b5042601181905560125562000244565b3390565b6000620000ad6200009d565b6000546001600160a01b03908116911614620000e65760405162461bcd60e51b8152600401620000dd90620001b2565b60405180910390fd5b6001600160a01b0382166200010f5760405162461bcd60e51b8152600401620000dd90620001e7565b620001276001836200012d60201b62001f131760201c565b92915050565b600062000144836001600160a01b0384166200014b565b9392505050565b60006200015983836200019a565b620001915750815460018181018455600084815260208082209093018490558454848252828601909352604090209190915562000127565b50600062000127565b60009081526001919091016020526040902054151590565b6020808252818101527f4f776e61626c653a2063616c6c6572206973206e6f7420746865206f776e6572604082015260600190565b60208082526035908201527f4d6978696e417574686f72697a61626c653a205f616464417574686f72697a6560408201527f6420697320746865207a65726f20616464726573730000000000000000000000606082015260800190565b6145f080620002546000396000f3fe608060405234801561001057600080fd5b50600436106102a05760003560e01c806384cc315b11610167578063c63cc564116100ce578063e99d18c811610087578063e99d18c814610565578063ec35214e14610578578063f1f07cc914610599578063f2fde38b146105a1578063f407c2ce146105b4578063fe9fbb80146105c7576102a0565b8063c63cc564146104fe578063cd5a877814610511578063cdd2a4d114610524578063cf1c316a14610537578063d4d728da1461054a578063dd4ee56514610552576102a0565b80639eedc492116101205780639eedc492146104aa578063aa6ca808146104b2578063b35ac8b2146104c8578063c45a0155146104db578063c55dae63146104e3578063c6388845146104eb576102a0565b806384cc315b146104595780638862f2851461046c5780638a2061171461047f5780638da5cb5b14610487578063952c70fb1461048f57806397d87393146104a2576102a0565b80633f2b17f31161020b5780635f0a1feb116101c45780635f0a1feb1461041e5780636b6f132014610431578063715018a61461043957806378e979251461044157806382aa1c88146104495780638342762514610451576102a0565b80633f2b17f3146103915780634b0cd2ab146103a45780634b92031d146103c55780634bba8050146103d8578063514fcac7146103eb57806359fc7223146103fe576102a0565b806327624b071161025d57806327624b07146103335780632d6111311461033b57806331a40b621461034e5780633397e5271461036e578063392da1b0146103765780633c72814d1461037e576102a0565b80630ff4c916146102a55780631459457a146102ce578063150b7a02146102e35780631960e232146103035780631b11481714610318578063217a4b701461032b575b600080fd5b6102b86102b3366004613d79565b6105da565b6040516102c591906144c9565b60405180910390f35b6102e16102dc366004613a54565b61067f565b005b6102f66102f1366004613ac4565b610824565b6040516102c59190613fb7565b61030b610835565b6040516102c59190613e0e565b6102b8610326366004613bc1565b610844565b61030b610872565b6102b8610881565b6102b8610349366004613a38565b610887565b61036161035c366004613a38565b6108a2565b6040516102c59190613f9c565b6102b8610910565b6102b8610921565b6102b861038c366004613c77565b610927565b6102e161039f366004613b7c565b61095b565b6103b76103b2366004613c20565b610dbd565b6040516102c5929190613fa7565b6102b86103d3366004613bc1565b610de5565b6102b86103e6366004613d79565b610e0e565b6103616103f9366004613d79565b610e8f565b61041161040c366004613c58565b611168565b6040516102c59190613eb1565b61041161042c366004613bec565b611354565b6102b86114e2565b6102e16114e9565b6102b8611568565b6102b861156e565b6102b8611574565b6102b8610467366004613a38565b61157c565b6102b861047a366004613bc1565b611632565b6102b861164b565b61030b611651565b6102b861049d366004613c93565b611660565b61030b611679565b6102b8611688565b6104ba61168e565b6040516102c5929190613e5f565b6102b86104d6366004613c20565b6116a5565b61030b6116bf565b61030b6116ce565b6102b86104f9366004613a38565b6116dd565b61030b61050c366004613d79565b6116f8565b6102b861051f366004613a38565b61172f565b6102b8610532366004613d79565b611750565b610361610545366004613a38565b611919565b61030b611981565b6102b8610560366004613d79565b611990565b6102e1610573366004613a38565b6119ae565b61058b610586366004613a38565b6119f5565b6040516102c5929190614531565b6102b8611aee565b6102e16105af366004613a38565b611af4565b6102e16105c2366004613b7c565b611baa565b6103616105d5366004613a38565b611f06565b6000816105e95750600061067a565b6105f1613990565b60035460405163d311636b60e01b81526001600160a01b039091169063d311636b906106219086906004016144c9565b6101a06040518083038186803b15801561063a57600080fd5b505afa15801561064e573d6000803e3d6000fd5b505050506040513d601f19601f820116820180604052508101906106729190613cb0565b60a001519150505b919050565b610687611f28565b6000546001600160a01b039081169116146106bd5760405162461bcd60e51b81526004016106b4906142ad565b60405180910390fd5b600d80546001600160a01b038088166001600160a01b03199283161792839055600e80548883169316929092179091556040805163313ce56760e01b81529051929091169163313ce56791600480820192602092909190829003018186803b15801561072857600080fd5b505afa15801561073c573d6000803e3d6000fd5b505050506040513d601f19601f820116820180604052508101906107609190613dcc565b60ff16600f55600e546040805163313ce56760e01b815290516001600160a01b039092169163313ce56791600480820192602092909190829003018186803b1580156107ab57600080fd5b505afa1580156107bf573d6000803e3d6000fd5b505050506040513d601f19601f820116820180604052508101906107e39190613dcc565b60ff166010556107f283611919565b50600b80546001600160a01b039384166001600160a01b03199182161790915560038054929093169116179055505050565b630a85bd0160e11b5b949350505050565b600b546001600160a01b031681565b6005602052816000526040600020818154811061085d57fe5b90600052602060002001600091509150505481565b600d546001600160a01b031681565b600f5481565b6001600160a01b031660009081526005602052604090205490565b60006108ac611f28565b6000546001600160a01b039081169116146108d95760405162461bcd60e51b81526004016106b4906142ad565b6001600160a01b0382166108ff5760405162461bcd60e51b81526004016106b490614425565b61090a600183611f2c565b92915050565b600061091c6001611f41565b905090565b60135481565b60006008600083600281111561093957fe5b600281111561094457fe5b815260208101919091526040016000205492915050565b6002600954141561097e5760405162461bcd60e51b81526004016106b490614399565b6002600955600080846109a357600d54600e546001600160a01b0391821691166109b7565b600e54600d546001600160a01b0391821691165b600a54604051633ba7c4f760e11b81529294509092506001600160a01b03169063774f89ee906109eb908590600401613e0e565b60206040518083038186803b158015610a0357600080fd5b505afa158015610a17573d6000803e3d6000fd5b505050506040513d601f19601f82011682018060405250810190610a3b9190613d91565b841015610a5a5760405162461bcd60e51b81526004016106b49061417e565b600a54604051634bbc433d60e11b81526001600160a01b0390911690639778867a90610a8a908990600401613e0e565b60206040518083038186803b158015610aa257600080fd5b505afa158015610ab6573d6000803e3d6000fd5b505050506040513d601f19601f82011682018060405250810190610ada9190613c3c565b610af65760405162461bcd60e51b81526004016106b4906142e2565b6040516323b872dd60e01b81526001600160a01b038316906323b872dd90610b2690339030908990600401613e22565b602060405180830381600087803b158015610b4057600080fd5b505af1158015610b54573d6000803e3d6000fd5b505050506040513d601f19601f82011682018060405250810190610b789190613c3c565b50600a54604051633418ea4560e11b81526000916001600160a01b031690636831d48a90610bae90339087908a90600401613e22565b602060405180830381600087803b158015610bc857600080fd5b505af1158015610bdc573d6000803e3d6000fd5b505050506040513d601f19601f82011682018060405250810190610c009190613d91565b90508015610c9057600a5460405163a9059cbb60e01b81526001600160a01b038581169263a9059cbb92610c3c92909116908590600401613e46565b602060405180830381600087803b158015610c5657600080fd5b505af1158015610c6a573d6000803e3d6000fd5b505050506040513d601f19601f82011682018060405250810190610c8e9190613c3c565b505b610c9a8582611f4c565b9450600086610cca57610cc586610cbf600f54600a0a88611f8e90919063ffffffff16565b90611fc8565b610ce6565b610ce685610cbf600f54600a0a89611f8e90919063ffffffff16565b90506000610cf8600089848a8a61200a565b9050600080610d0e8b8b8989888e8e60006120f1565b915091508160001415610d2b57610d258382612664565b50610dab565b6000610d378a84611f4c565b6003546040516302d0ce8560e41b81529192506001600160a01b031690632d0ce85090610d6c9087908590879060040161453f565b600060405180830381600087803b158015610d8657600080fd5b505af1158015610d9a573d6000803e3d6000fd5b50505050610da88483612664565b50505b50506001600955505050505050505050565b80151560009081526007602052604081208190610ddc9082600161281e565b91509150915091565b6001600160a01b0382166000908152600660205260408120610e079083612865565b9392505050565b6003546040516304bba80560e41b81526000916001600160a01b031690634bba805090610e3f9085906004016144c9565b60206040518083038186803b158015610e5757600080fd5b505afa158015610e6b573d6000803e3d6000fd5b505050506040513d601f19601f8201168201806040525081019061090a9190613d91565b6000610e9a82612871565b50610ea3613990565b60035460405163d311636b60e01b81526001600160a01b039091169063d311636b90610ed39086906004016144c9565b6101a06040518083038186803b158015610eec57600080fd5b505afa158015610f00573d6000803e3d6000fd5b505050506040513d601f19601f82011682018060405250810190610f249190613cb0565b905060008160800151610f4257600d546001600160a01b0316610f4f565b600e546001600160a01b03165b600b5460405163e6a0802560e01b81529192506000916001600160a01b039091169063e6a0802590610f85908590600401613e0e565b60206040518083038186803b158015610f9d57600080fd5b505afa158015610fb1573d6000803e3d6000fd5b505050506040513d601f19601f82011682018060405250810190610fd59190613d91565b11156110d757600b5460408084015160c08501519151636ce5768960e11b81526001600160a01b039093169263d9caed1292611018928692909190600401613e22565b600060405180830381600087803b15801561103257600080fd5b505af1158015611046573d6000803e3d6000fd5b50505060408084015160c0850151915163a9059cbb60e01b81526001600160a01b038516935063a9059cbb9261107f9291600401613e46565b602060405180830381600087803b15801561109957600080fd5b505af11580156110ad573d6000803e3d6000fd5b505050506040513d601f19601f820116820180604052508101906110d19190613c3c565b50611161565b806001600160a01b031663a9059cbb83604001518460c001516040518363ffffffff1660e01b815260040161110d929190613e46565b602060405180830381600087803b15801561112757600080fd5b505af115801561113b573d6000803e3d6000fd5b505050506040513d601f19601f8201168201806040525081019061115f9190613c3c565b505b5050919050565b82151560009081526007602052604081206060919061118690612a25565b905080831115611194578092505b8284106111b35760405162461bcd60e51b81526004016106b49061422a565b83830367ffffffffffffffff811180156111cc57600080fd5b5060405190808252806020026020018201604052801561120657816020015b6111f3613990565b8152602001906001900390816111eb5790505b508515156000908152600760205260408120919350908190819061122a9082612a29565b915091505b858310801561123b5750815b1561134957868310156112735787151560009081526007602052604090206112639082612a29565b600190940193909250905061122f565b61127b613990565b60035460405163d311636b60e01b81526001600160a01b039091169063d311636b906112ab9085906004016144c9565b6101a06040518083038186803b1580156112c457600080fd5b505afa1580156112d8573d6000803e3d6000fd5b505050506040513d601f19601f820116820180604052508101906112fc9190613cb0565b905080868986038151811061130d57fe5b60209081029190910181019190915289151560009081526007909152604090206113379083612a29565b600190950194909350915061122f9050565b505050509392505050565b6001600160a01b03831660009081526006602052604081206060919061137990611f41565b905080831115611387578092505b8284106113a65760405162461bcd60e51b81526004016106b49061422a565b83830367ffffffffffffffff811180156113bf57600080fd5b506040519080825280602002602001820160405280156113f957816020015b6113e6613990565b8152602001906001900390816113de5790505b509150835b838110156114d9576001600160a01b03861660009081526006602052604081206114289083612865565b9050611432613990565b60035460405163d311636b60e01b81526001600160a01b039091169063d311636b906114629085906004016144c9565b6101a06040518083038186803b15801561147b57600080fd5b505afa15801561148f573d6000803e3d6000fd5b505050506040513d601f19601f820116820180604052508101906114b39190613cb0565b90508085888503815181106114c457fe5b602090810291909101015250506001016113fe565b50509392505050565b6201518081565b6114f1611f28565b6000546001600160a01b0390811691161461151e5760405162461bcd60e51b81526004016106b4906142ad565b600080546040516001600160a01b03909116907f8be0079c531659141344cd1fd0a4f28419497f9722a3daafe3b4186f6b6457e0908390a3600080546001600160a01b0319169055565b60115481565b60105481565b633b9aca0081565b600e54600d546040516312f69a7760e01b815260009283926001600160a01b03808716936312f69a77936115be93908316921690633b9aca0090600401613e22565b60206040518083038186803b1580156115d657600080fd5b505afa1580156115ea573d6000803e3d6000fd5b505050506040513d601f19601f8201168201806040525081019061160e9190613d91565b9050600061082d82610cbf600f54600a0a633b9aca00611f8e90919063ffffffff16565b6004602052816000526040600020818154811061085d57fe5b60125481565b6000546001600160a01b031690565b6008602052816000526040600020818154811061085d57fe5b600a546001600160a01b031681565b61271081565b600d54600e546001600160a01b0391821691169091565b801515600090815260076020526040812061090a90612a25565b600c546001600160a01b031681565b600e546001600160a01b031681565b6001600160a01b031660009081526004602052604090205490565b60006001611704610910565b038211156117245760405162461bcd60e51b81526004016106b490614324565b61090a600183612865565b6001600160a01b038116600090815260066020526040812061090a90611f41565b600061175a613990565b60035460405163d311636b60e01b81526001600160a01b039091169063d311636b9061178a9086906004016144c9565b6101a06040518083038186803b1580156117a357600080fd5b505afa1580156117b7573d6000803e3d6000fd5b505050506040513d601f19601f820116820180604052508101906117db9190613cb0565b90506000816080015161180057600d54600e546001600160a01b039182169116611814565b600e54600d546001600160a01b0391821691165b50600a5460408085015160c08601519151630f74f4f360e11b81529394506000936001600160a01b0390931692631ee9e9e6926118579291879190600401613e22565b604080518083038186803b15801561186e57600080fd5b505afa158015611882573d6000803e3d6000fd5b505050506040513d601f19601f820116820180604052508101906118a69190613da9565b509050600083608001516118e7576118e2600f54600a0a610cbf8660a001516118dc868960c00151611f4c90919063ffffffff16565b90611f8e565b61190f565b61190f8460a00151610cbf600f54600a0a6118dc868960c00151611f4c90919063ffffffff16565b9695505050505050565b6000611923611f28565b6000546001600160a01b039081169116146119505760405162461bcd60e51b81526004016106b4906142ad565b6001600160a01b0382166119765760405162461bcd60e51b81526004016106b4906143d0565b61090a600183611f13565b6003546001600160a01b031681565b6015818154811061199d57fe5b600091825260209091200154905081565b6119b733611f06565b6119d35760405162461bcd60e51b81526004016106b49061436a565b600a80546001600160a01b0319166001600160a01b0392909216919091179055565b6000806000611a038461172f565b905060005b81811015611ae7576000611a1c8683610de5565b9050611a26613990565b60035460405163d311636b60e01b81526001600160a01b039091169063d311636b90611a569085906004016144c9565b6101a06040518083038186803b158015611a6f57600080fd5b505afa158015611a83573d6000803e3d6000fd5b505050506040513d601f19601f82011682018060405250810190611aa79190613cb0565b9050806080015115611aca5760c0810151611ac3908790612a43565b9550611add565b60c0810151611ada908690612a43565b94505b5050600101611a08565b5050915091565b60145481565b611afc611f28565b6000546001600160a01b03908116911614611b295760405162461bcd60e51b81526004016106b4906142ad565b6001600160a01b038116611b4f5760405162461bcd60e51b81526004016106b490614061565b600080546040516001600160a01b03808516939216917f8be0079c531659141344cd1fd0a4f28419497f9722a3daafe3b4186f6b6457e091a3600080546001600160a01b0319166001600160a01b0392909216919091179055565b60026009541415611bcd5760405162461bcd60e51b81526004016106b490614399565b6002600955600a54604051634bbc433d60e11b81526001600160a01b0390911690639778867a90611c02908790600401613e0e565b60206040518083038186803b158015611c1a57600080fd5b505afa158015611c2e573d6000803e3d6000fd5b505050506040513d601f19601f82011682018060405250810190611c529190613c3c565b611c6e5760405162461bcd60e51b81526004016106b4906142e2565b60008084611c8e57600d54600e546001600160a01b039182169116611ca2565b600e54600d546001600160a01b0391821691165b6040516323b872dd60e01b815291935091506001600160a01b038316906323b872dd90611cd790339030908890600401613e22565b602060405180830381600087803b158015611cf157600080fd5b505af1158015611d05573d6000803e3d6000fd5b505050506040513d601f19601f82011682018060405250810190611d299190613c3c565b5060008515611d5557611d4e85610cbf600f54600a0a87611f8e90919063ffffffff16565b9050611d6c565b600f54611d6990600a0a610cbf8688611f8e565b90505b600a54604051633ba7c4f760e11b81526001600160a01b039091169063774f89ee90611d9c908690600401613e0e565b60206040518083038186803b158015611db457600080fd5b505afa158015611dc8573d6000803e3d6000fd5b505050506040513d601f19601f82011682018060405250810190611dec9190613d91565b841015611e0b5760405162461bcd60e51b81526004016106b49061417e565b6000611e1b60008888888661200a565b9050600080611e318a8a88888c8c8a60016120f1565b915091508160001415611e4e57611e488382612664565b50611ef5565b6000611e5a8884611f4c565b90506000611e78858c8c85611e738e610cbf8d84611f8e565b61200a565b9050611e848184612664565b506003546001600160a01b0316632d0ce8508686611ea28a88611f4c565b6040518463ffffffff1660e01b8152600401611ec09392919061453f565b600060405180830381600087803b158015611eda57600080fd5b505af1158015611eee573d6000803e3d6000fd5b5050505050505b505060016009555050505050505050565b600061090a600183612a68565b6000610e07836001600160a01b038416612a7d565b3390565b6000610e07836001600160a01b038416612ac7565b600061090a82612a25565b6000610e0783836040518060400160405280601e81526020017f536166654d6174683a207375627472616374696f6e206f766572666c6f770000815250612b8d565b600082611f9d5750600061090a565b82820282848281611faa57fe5b0414610e075760405162461bcd60e51b81526004016106b49061426c565b6000610e0783836040518060400160405280601a81526020017f536166654d6174683a206469766973696f6e206279207a65726f000000000000815250612bb9565b600354604051637d4053c360e01b815260009182916001600160a01b0390911690637d4053c39061204b908a90309033908c908c908c908c906004016144d2565b602060405180830381600087803b15801561206557600080fd5b505af1158015612079573d6000803e3d6000fd5b505050506040513d601f19601f8201168201806040525081019061209d9190613d91565b3360009081526005602090815260408220805460018101825590835291200181905590506120cc818787612bf0565b503360009081526006602052604090206120e69082612c37565b509695505050505050565b60008060008a6001600160a01b03166312f69a778a8a896040518463ffffffff1660e01b815260040161212693929190613e22565b60206040518083038186803b15801561213e57600080fd5b505afa158015612152573d6000803e3d6000fd5b505050506040513d601f19601f820116820180604052508101906121769190613d91565b9050848110612423576040516370a0823160e01b81526000906001600160a01b038a16906370a08231906121ae903090600401613e0e565b60206040518083038186803b1580156121c657600080fd5b505afa1580156121da573d6000803e3d6000fd5b505050506040513d601f19601f820116820180604052508101906121fe9190613d91565b60405163095ea7b360e01b81529091506001600160a01b038b169063095ea7b39061222f908f908b90600401613e46565b602060405180830381600087803b15801561224957600080fd5b505af115801561225d573d6000803e3d6000fd5b505050506040513d601f19601f820116820180604052508101906122819190613c3c565b50604051633519e94760e11b81526001600160a01b038d1690636a33d28e906122b8908d908d908c908c9081903390600401613e79565b600060405180830381600087803b1580156122d257600080fd5b505af11580156122e6573d6000803e3d6000fd5b505050506000612372828b6001600160a01b03166370a08231306040518263ffffffff1660e01b815260040161231c9190613e0e565b60206040518083038186803b15801561233457600080fd5b505afa158015612348573d6000803e3d6000fd5b505050506040513d601f19601f8201168201806040525081019061236c9190613d91565b90611f4c565b9050868110156123945760405162461bcd60e51b81526004016106b4906140de565b60405163a9059cbb60e01b81526001600160a01b038b169063a9059cbb906123c29033908590600401613e46565b602060405180830381600087803b1580156123dc57600080fd5b505af11580156123f0573d6000803e3d6000fd5b505050506040513d601f19601f820116820180604052508101906124149190613c3c565b50600094509250612657915050565b6000806124328c8a8a8a612c43565b9092509050811561264b5785156125c9576000821180156124d15750600b5460405163e6a0802560e01b81526000916001600160a01b03169063e6a080259061247f908f90600401613e0e565b60206040518083038186803b15801561249757600080fd5b505afa1580156124ab573d6000803e3d6000fd5b505050506040513d601f19601f820116820180604052508101906124cf9190613d91565b115b156125c457600b5460405163095ea7b360e01b81526001600160a01b038d81169263095ea7b39261250a92909116908690600401613e46565b602060405180830381600087803b15801561252457600080fd5b505af1158015612538573d6000803e3d6000fd5b505050506040513d601f19601f8201168201806040525081019061255c9190613c3c565b50600b54604051638340f54960e01b81526001600160a01b0390911690638340f54990612591908e9033908790600401613e22565b600060405180830381600087803b1580156125ab57600080fd5b505af11580156125bf573d6000803e3d6000fd5b505050505b61264b565b60405163a9059cbb60e01b81526001600160a01b038c169063a9059cbb906125f79033908690600401613e46565b602060405180830381600087803b15801561261157600080fd5b505af1158015612625573d6000803e3d6000fd5b505050506040513d601f19601f820116820180604052508101906126499190613c3c565b505b90935091506126579050565b9850989650505050505050565b600061266e613990565b60035460405163d311636b60e01b81526001600160a01b039091169063d311636b9061269e9087906004016144c9565b6101a06040518083038186803b1580156126b757600080fd5b505afa1580156126cb573d6000803e3d6000fd5b505050506040513d601f19601f820116820180604052508101906126ef9190613cb0565b90506000816101200151600281111561270457fe5b146127215760405162461bcd60e51b81526004016106b4906141cd565b600354604051631d7c5cab60e11b81526001600160a01b0390911690633af8b95690612756908790600290889060040161450e565b600060405180830381600087803b15801561277057600080fd5b505af1158015612784573d6000803e3d6000fd5b5050600860209081527f6add646517a5b0f6793cd5891b7937d28a5b2981a5d88ebc7cd776088fea904180546001808201835560009283527f7bf249938c4feef66b9076a9dee14bad2f4e6b5ee27a7222e6020ba7aeaaace49091018990556040868101516001600160a01b031683526004845282208054918201815582529190200186905550612816905081612d47565b505092915050565b60008061282b8585612e3c565b61283a5750600090508061285d565b505060008281526001848101602090815260408084208515158552909152909120545b935093915050565b6000610e078383612eb8565b600061287b613990565b60035460405163d311636b60e01b81526001600160a01b039091169063d311636b906128ab9086906004016144c9565b6101a06040518083038186803b1580156128c457600080fd5b505afa1580156128d8573d6000803e3d6000fd5b505050506040513d601f19601f820116820180604052508101906128fc9190613cb0565b60408101519091506001600160a01b0316331461292b5760405162461bcd60e51b81526004016106b49061412d565b6000816101200151600281111561293e57fe5b1461295b5760405162461bcd60e51b81526004016106b49061447a565b600354604051631d7c5cab60e11b81526001600160a01b0390911690633af8b9569061299190869060019060009060040161450e565b600060405180830381600087803b1580156129ab57600080fd5b505af11580156129bf573d6000803e3d6000fd5b5050600860205250507fad67d757c34507f157cacfa2e3153e9f260a2244f30428821be7be64587ac55f80546001810182556000919091527f8048725117155ad5ef9cb75f77fbe235a4558a61159f5364c90d55c3a0d15b7a0183905561116181612d47565b5490565b600080612a388484600161281e565b915091509250929050565b600082820183811015610e075760405162461bcd60e51b81526004016106b4906140a7565b6000610e07836001600160a01b038416612efd565b6000612a898383612efd565b612abf5750815460018181018455600084815260208082209093018490558454848252828601909352604090209190915561090a565b50600061090a565b60008181526001830160205260408120548015612b835783546000198083019190810190600090879083908110612afa57fe5b9060005260206000200154905080876000018481548110612b1757fe5b600091825260208083209091019290925582815260018981019092526040902090840190558654879080612b4757fe5b6001900381819060005260206000200160009055905586600101600087815260200190815260200160002060009055600194505050505061090a565b600091505061090a565b60008184841115612bb15760405162461bcd60e51b81526004016106b49190613fcc565b505050900390565b60008183612bda5760405162461bcd60e51b81526004016106b49190613fcc565b506000838581612be657fe5b0495945050505050565b81151560009081526007602052604081208190612c0f90308587612f15565b8415156000908152600760205260409020909150612c2e9082876130ac565b95945050505050565b6000610e078383612a7d565b6000806000612c5287156116a5565b9050846000805b83811015612d38576060612c728b158384600101611168565b90508a8015612c99575080600081518110612c8957fe5b602002602001015160a001518a10155b80612cc557508a158015612cc5575080600081518110612cb557fe5b602002602001015160a001518a11155b15612d2957600080612ceb83600081518110612cdd57fe5b6020026020010151876130bb565b9092509050612cfa8683611f4c565b9550612d068582612a43565b94508985101580612d15575085155b15612d2257505050612d38565b5050612d2f565b50612d38565b50600101612c59565b50909890975095505050505050565b600354604080830151835191516323b872dd60e01b81526000936001600160a01b0316926323b872dd92612d8092309290600401613e22565b600060405180830381600087803b158015612d9a57600080fd5b505af1158015612dae573d6000803e3d6000fd5b50505050600860008361012001516002811115612dc757fe5b6002811115612dd257fe5b81526020808201929092526040908101600090812085518154600181018355918352848320909101558451338252600690935220612e0f91613363565b5081516080830151151560009081526007602052604081209091612e33919061336f565b15159392505050565b60008181526001830160209081526040808320838052909152812054158015612e7f57506000828152600180850160209081526040808420928452919052902054155b15612eb0576000808052600180850160209081526040808420928452919052902054821415612abf5750600161090a565b50600161090a565b81546000908210612edb5760405162461bcd60e51b81526004016106b49061401f565b826000018281548110612eea57fe5b9060005260206000200154905092915050565b60009081526001919091016020526040902054151590565b6000612f2085612a25565b612f2c5750600061082d565b6000612f3b866000600161281e565b9150508215612ffb575b8015801590612fcf57506040516307fa648b60e11b81526001600160a01b03861690630ff4c91690612f7b9084906004016144c9565b60206040518083038186803b158015612f9357600080fd5b505afa158015612fa7573d6000803e3d6000fd5b505050506040513d601f19601f82011682018060405250810190612fcb9190613d91565b8411155b15612ff6576000908152600180870160209081526040808420928452919052902054612f45565b612c2e565b801580159061308557506040516307fa648b60e11b81526001600160a01b03861690630ff4c916906130319084906004016144c9565b60206040518083038186803b15801561304957600080fd5b505afa15801561305d573d6000803e3d6000fd5b505050506040513d601f19601f820116820180604052508101906130819190613d91565b8410155b15612c2e576000908152600180870160209081526040808420928452919052902054612ffb565b600061082d84848460006133f7565b60008060006130cd8560000151611750565b90506000808660800151156130f457600d54600e546001600160a01b039182169116613108565b600e54600d546001600160a01b0391821691165b915091506000826001600160a01b03166370a08231306040518263ffffffff1660e01b815260040161313a9190613e0e565b60206040518083038186803b15801561315257600080fd5b505afa158015613166573d6000803e3d6000fd5b505050506040513d601f19601f8201168201806040525081019061318a9190613d91565b90506000826001600160a01b03166370a08231306040518263ffffffff1660e01b81526004016131ba9190613e0e565b60206040518083038186803b1580156131d257600080fd5b505afa1580156131e6573d6000803e3d6000fd5b505050506040513d601f19601f8201168201806040525081019061320a9190613d91565b905084881061322657613220898585888961346b565b50613235565b6132338985858b8961346b565b505b6040516370a0823160e01b81526000906001600160a01b038516906370a0823190613264903090600401613e0e565b60206040518083038186803b15801561327c57600080fd5b505afa158015613290573d6000803e3d6000fd5b505050506040513d601f19601f820116820180604052508101906132b49190613d91565b905060006132c28284611f4c565b90506000866001600160a01b03166370a08231306040518263ffffffff1660e01b81526004016132f29190613e0e565b60206040518083038186803b15801561330a57600080fd5b505afa15801561331e573d6000803e3d6000fd5b505050506040513d601f19601f820116820180604052508101906133429190613d91565b905060006133508287611f4c565b9d929c50919a5050505050505050505050565b6000610e078383612ac7565b600081158061338557506133838383612e3c565b155b156133925750600061090a565b6000828152600184810160209081526040808420848052909152808320548284529220546133c49286929091906138b2565b50600081815260018381016020908152604080842084805290915280832083905590825281205581546000190190915590565b60006134038584612e3c565b15801561341557506134158585612e3c565b1561346057600084815260018601602090815260408083208515158452909152902054613444868686866138b2565b613450868583866138b2565b505083546001908101855561082d565b506000949350505050565b60008061348983610cbf8960c0015187611f8e90919063ffffffff16565b600a546040808a01519051633418ea4560e11b81529293506000926001600160a01b0390921691636831d48a916134c6918b908790600401613e22565b602060405180830381600087803b1580156134e057600080fd5b505af11580156134f4573d6000803e3d6000fd5b505050506040513d601f19601f820116820180604052508101906135189190613d91565b600b5460405163e6a0802560e01b81529192506000916001600160a01b039091169063e6a080259061354e908b90600401613e0e565b60206040518083038186803b15801561356657600080fd5b505afa15801561357a573d6000803e3d6000fd5b505050506040513d601f19601f8201168201806040525081019061359e9190613d91565b111561360f57600b546040808a01519051636ce5768960e11b81526001600160a01b039092169163d9caed12916135dc918b91908790600401613e22565b600060405180830381600087803b1580156135f657600080fd5b505af115801561360a573d6000803e3d6000fd5b505050505b801561369d57600a5460405163a9059cbb60e01b81526001600160a01b038981169263a9059cbb9261364992909116908590600401613e46565b602060405180830381600087803b15801561366357600080fd5b505af1158015613677573d6000803e3d6000fd5b505050506040513d601f19601f8201168201806040525081019061369b9190613c3c565b505b60006136a98383611f4c565b6040808b0151905163a9059cbb60e01b81529192506001600160a01b0389169163a9059cbb916136dd918a90600401613e46565b602060405180830381600087803b1580156136f757600080fd5b505af115801561370b573d6000803e3d6000fd5b505050506040513d601f19601f8201168201806040525081019061372f9190613c3c565b5060405163a9059cbb60e01b81526001600160a01b0389169063a9059cbb9061375e9033908590600401613e46565b602060405180830381600087803b15801561377857600080fd5b505af115801561378c573d6000803e3d6000fd5b505050506040513d601f19601f820116820180604052508101906137b09190613c3c565b50828960c0015114156137cf5788516137c99087612664565b5061387f565b60006137ea8a600001518b608001518c60a00151878b61200a565b90506137f68188612664565b506003548a5160c08c01516001600160a01b0390921691632d0ce850919061381e9088611f4c565b60e08e015161382d908c611f4c565b6040518463ffffffff1660e01b815260040161384b9392919061453f565b600060405180830381600087803b15801561386557600080fd5b505af1158015613879573d6000803e3d6000fd5b50505050505b600e546138a5906001600160a01b038a811691161461389e57866138a0565b815b6138e7565b5093979650505050505050565b600082815260019094016020818152604080872093158088529382528087208690559486529081528385209115855252912055565b6014546138f49082612a43565b601455601154601254600091613913916201518091610cbf9190611f4c565b90506000613931620151806011544203611fc890919063ffffffff16565b90508181111561397757601380546015805460018101825560009182527f55f448fdea98c4d29eb340757ef0a66cd03dbb9538908a6a81d96026b71ec475019190915590555b6013546139849084612a43565b60135550504260125550565b604051806101a00160405280600081526020016000815260200160006001600160a01b0316815260200160006001600160a01b0316815260200160001515815260200160008152602001600081526020016000815260200160008152602001600060028111156139fc57fe5b81526020016000815260200160008152602001600081525090565b805161090a81614587565b805161090a8161459f565b805161090a816145ad565b600060208284031215613a49578081fd5b8135610e0781614587565b600080600080600060a08688031215613a6b578081fd5b8535613a7681614587565b94506020860135613a8681614587565b93506040860135613a9681614587565b92506060860135613aa681614587565b91506080860135613ab681614587565b809150509295509295909350565b60008060008060808587031215613ad9578384fd5b8435613ae481614587565b9350602085810135613af581614587565b935060408601359250606086013567ffffffffffffffff80821115613b18578384fd5b818801915088601f830112613b2b578384fd5b813581811115613b39578485fd5b613b4b601f8201601f19168501614555565b91508082528984828501011115613b60578485fd5b8084840185840137810190920192909252939692955090935050565b60008060008060808587031215613b91578384fd5b8435613b9c81614587565b93506020850135613bac8161459f565b93969395505050506040820135916060013590565b60008060408385031215613bd3578182fd5b8235613bde81614587565b946020939093013593505050565b600080600060608486031215613c00578283fd5b8335613c0b81614587565b95602085013595506040909401359392505050565b600060208284031215613c31578081fd5b8135610e078161459f565b600060208284031215613c4d578081fd5b8151610e078161459f565b600080600060608486031215613c6c578283fd5b8335613c0b8161459f565b600060208284031215613c88578081fd5b8135610e07816145ad565b60008060408385031215613ca5578182fd5b8235613bde816145ad565b60006101a0808385031215613cc3578182fd5b613ccc81614555565b90508251815260208301516020820152613ce98460408501613a17565b6040820152613cfb8460608501613a17565b6060820152613d0d8460808501613a22565b608082015260a083015160a082015260c083015160c082015260e083015160e0820152610100808401518183015250610120613d4b85828601613a2d565b9082015261014083810151908201526101608084015190820152610180928301519281019290925250919050565b600060208284031215613d8a578081fd5b5035919050565b600060208284031215613da2578081fd5b5051919050565b60008060408385031215613dbb578182fd5b505080516020909101519092909150565b600060208284031215613ddd578081fd5b815160ff81168114610e07578182fd5b6001600160a01b03169052565b15159052565b60038110613e0a57fe5b9052565b6001600160a01b0391909116815260200190565b6001600160a01b039384168152919092166020820152604081019190915260600190565b6001600160a01b03929092168252602082015260400190565b6001600160a01b0392831681529116602082015260400190565b6001600160a01b039687168152948616602086015260408501939093526060840191909152608083015290911660a082015260c00190565b602080825282518282018190526000919060409081850190868401855b82811015613f8f57815180518552868101518786015285810151613ef487870182613ded565b50606080820151613f0782880182613ded565b5050608080820151613f1b82880182613dfa565b505060a0818101519086015260c0808201519086015260e08082015190860152610100808201519086015261012080820151613f5982880182613e00565b50506101408181015190860152610160808201519086015261018090810151908501526101a09093019290850190600101613ece565b5091979650505050505050565b901515815260200190565b9115158252602082015260400190565b6001600160e01b031991909116815260200190565b6000602080835283518082850152825b81811015613ff857858101830151858201604001528201613fdc565b818111156140095783604083870101525b50601f01601f1916929092016040019392505050565b60208082526022908201527f456e756d657261626c655365743a20696e646578206f7574206f6620626f756e604082015261647360f01b606082015260800190565b60208082526026908201527f4f776e61626c653a206e6577206f776e657220697320746865207a65726f206160408201526564647265737360d01b606082015260800190565b6020808252601b908201527f536166654d6174683a206164646974696f6e206f766572666c6f770000000000604082015260600190565b6020808252602f908201527f426f626f506169723a2074686520616d6f756e74206f66206f7574546f6b656e60408201526e206973204e4f5420656e6f7567682160881b606082015260800190565b60208082526031908201527f4f7264657253746f72653a206f6e6c7920626f6f6b206f776e65722063616e2060408201527031b0b731b2b6103a34329037b93232b91760791b606082015260800190565b6020808252602f908201527f426f626f506169723a20696e416d6f756e74204d555354206c6172676572207460408201526e3430b71036b4b71030b6b7bab73a1760891b606082015260800190565b60208082526038908201527f4f7264657253746f72653a206f6e6c792068616e67696e67206f72646572206360408201527f616e206265636f6d65204465616c6564207374617475732e0000000000000000606082015260800190565b60208082526022908201527f4f7264657253746f72653a20696e646578206973206f7574206f6620626f756e604082015261321760f11b606082015260800190565b60208082526021908201527f536166654d6174683a206d756c7469706c69636174696f6e206f766572666c6f6040820152607760f81b606082015260800190565b6020808252818101527f4f776e61626c653a2063616c6c6572206973206e6f7420746865206f776e6572604082015260600190565b60208082526022908201527f426f626f506169723a20726f75746572204e4f5420696e2077686974656c6973604082015261742160f01b606082015260800190565b60208082526026908201527f4d6978696e417574686f72697a61626c653a20696e646578206f7574206f6620604082015265626f756e647360d01b606082015260800190565b60208082526015908201527414d15391115497d393d517d055551213d492569151605a1b604082015260600190565b6020808252601f908201527f5265656e7472616e637947756172643a207265656e7472616e742063616c6c00604082015260600190565b60208082526035908201527f4d6978696e417574686f72697a61626c653a205f616464417574686f72697a656040820152746420697320746865207a65726f206164647265737360581b606082015260800190565b60208082526035908201527f4d6978696e417574686f72697a61626c653a205f64656c417574686f72697a656040820152746420697320746865207a65726f206164647265737360581b606082015260800190565b6020808252602f908201527f4f7264657253746f72653a206f6e6c792068616e67696e67206f72646572206360408201526e30b71031329031b0b731b2b632b21760891b606082015260800190565b90815260200190565b9687526001600160a01b0395861660208801529390941660408601529015156060850152608084015260a083019190915260c082015260e00190565b8381526060810161451e8461457c565b6020830152826040830152949350505050565b918252602082015260400190565b9283526020830191909152604082015260600190565b60405181810167ffffffffffffffff8111828210171561457457600080fd5b604052919050565b806003811061067a57fe5b6001600160a01b038116811461459c57600080fd5b50565b801515811461459c57600080fd5b6003811061459c57600080fdfea26469706673582212202d9c3bd256865374c5eb8847779e9235799a943e1326d71aece89b0eb576050664736f6c634300060c00334f776e61626c653a206e6577206f776e657220697320746865207a65726f20616464726573734f776e61626c653a2063616c6c6572206973206e6f7420746865206f776e6572a26469706673582212200fb32499301e9822d147673f411e66e23e500dae0e4747a942dc34cbdc6d4faa64736f6c634300060c0033",
  "immutableReferences": {},
  "source": "// SPDX-License-Identifier: MIT\npragma solidity ^0.6.0;\n\nimport \"./common/OrderStore.sol\";\nimport \"./BoboPair.sol\";\n\ninterface IMinter {\n    function addMinter(address _addMinter) external returns (bool);\n}\n\ninterface IAuthorizable {\n    function addAuthorized(address _authorizedAddr) external returns (bool);\n    function isAuthorized(address _authorizedAddr) external view returns (bool);\n}\n\ninterface IBoboPair is IAuthorizable {\n    function initialize(address _token0, address _token1, address _authAddr, address _boboFarmer, address _orderNFT) external;\n    function setExManager(address _exManager) external;\n    function getTotalHangingTokenAmount(address _userAddr) view external returns(uint256 baseTokenAmount, uint256 quoteTokenAmount);\n}\n\ncontract BoboFactory is Ownable {\n    using SafeMath for uint256;\n    \n    address public constant USDT = 0xc2132D05D31c914a87C6611C10748AEb04B58e8F;\n    address public constant USDC = 0x2791Bca1f2de4661ED88A30C99A7a9449Aa84174;\n    address public constant WMATIC = 0x0d500B1d8E8eF31E21C99d1Db9A6444d3ADf1270;\n    \n    address[] public allPairs;  // \n    mapping(address => mapping(address => address)) public getPair;\n    mapping(address => address[]) public baseTokenPairs;\n\n    IBoboFarmer public boboFarmer;\n    address public orderNFT;\n    address public exManager;\n    \n    event PairCreated(address indexed quoteToken, address indexed baseToken, address pairAddr);\n    \n    constructor (address _orderNFT, address _boboFarmer, address _exManager) public {  \n        orderNFT = _orderNFT;\n        boboFarmer = IBoboFarmer(_boboFarmer);\n        exManager = _exManager;\n    }\n\n    function setAddresses(address _boboFarmer, address _exManager) public onlyOwner {\n        if (_boboFarmer != address(0))\n            boboFarmer = IBoboFarmer(_boboFarmer);\n        if (_exManager != address(0))\n            exManager = _exManager;\n    }\n    \n    function createPair(address _quoteToken, address _baseToken) public returns (address pairAddr) {\n        require(_quoteToken != _baseToken, \"BoboFactory: IDENTICAL_ADDRESSES\");\n        require(_quoteToken != address(0), \"BoboFactory: ZERO_ADDRESS\");\n        require(getPair[_quoteToken][_baseToken] == address(0), \"BoboFactory: PAIR_EXISTS\"); // single check is sufficient\n        bytes memory bytecode = type(BoboPair).creationCode;\n        bytes32 salt = keccak256(abi.encodePacked(_quoteToken, _baseToken));\n        assembly {\n            pairAddr := create2(0, add(bytecode, 32), mload(bytecode), salt)\n        }\n        IBoboPair(pairAddr).initialize(_quoteToken, _baseToken, msg.sender, address(boboFarmer), orderNFT);\n        IBoboPair(pairAddr).setExManager(exManager);\n        \n        getPair[_quoteToken][_baseToken] = pairAddr;\n        getPair[_baseToken][_quoteToken] = pairAddr; // populate mapping in the reverse direction\n        allPairs.push(pairAddr);\n        baseTokenPairs[_baseToken].push(_quoteToken);\n        emit PairCreated(_quoteToken, _baseToken, pairAddr);\n    }\n    \n    function pairNumber() view public returns(uint256) {\n        return allPairs.length;\n    }\n    \n    function addPairAuth(address _quoteToken, address _baseToken, address _auth) external onlyOwner {\n        address pairAddr = getPair[_quoteToken][_baseToken];\n        require(pairAddr != address(0), 'BoboFactory: PAIR_NOT_EXISTS');\n        IBoboPair(pairAddr).addAuthorized(_auth);\n    }\n\n    function getBaseTokenPairLength(address _baseToken) view external returns(uint256) {\n        return baseTokenPairs[_baseToken].length;\n    }\n\n    // BaseToken\n    function getTotalHangingTokenAmount(address _baseToken, address _userAddr) view public returns(uint256) {\n        uint256 totalBaseTokenAmount;\n        address[] memory quoteTokens = baseTokenPairs[_baseToken];\n        for (uint256 i = 0; i < quoteTokens.length; i++) {\n            address pairAddr = getPair[quoteTokens[i]][_baseToken];\n            (uint256 baseTokenAmount,) = IBoboPair(pairAddr).getTotalHangingTokenAmount(_userAddr);\n            totalBaseTokenAmount = totalBaseTokenAmount.add(baseTokenAmount);\n        }\n        return totalBaseTokenAmount;\n    }\n\n    // BaseToken\n    function getClaimBaseTokenAmount(address _baseToken, address _userAddr) view public returns(uint256) {\n        uint256 hangingBaseTokenAmount = boboFarmer.stakedWantTokens(_baseToken, _userAddr);\n        uint256 baseTokenAmount = getTotalHangingTokenAmount(_baseToken, _userAddr);\n        return hangingBaseTokenAmount.sub(baseTokenAmount);\n    }\n    \n    // baseToken\n    // boboFarmerFactory\n    function claimBaseToken(address _baseToken) public {\n        uint256 amount = getClaimBaseTokenAmount(_baseToken, msg.sender);\n        if (boboFarmer.tokenPidMap(_baseToken) > 0) {\n            uint256 preBaseTokenAmount = IERC20(_baseToken).balanceOf(address(this));\n            boboFarmer.withdraw(_baseToken, msg.sender, amount);\n            uint256 newBaseTokenAmount = IERC20(_baseToken).balanceOf(address(this));\n            IERC20(_baseToken).transfer(msg.sender, newBaseTokenAmount.sub(preBaseTokenAmount));\n        }\n    }\n\n    // Bobo Token\n    function claimBoboToken(address _baseToken) public {\n        if (boboFarmer.tokenPidMap(_baseToken) > 0) {\n            boboFarmer.withdraw(_baseToken, msg.sender, 0);\n        }\n    }\n}",
  "sourcePath": "/Users/mryu/blockchain/bobo-metaverse/boboswap-contract/contracts/BoboFactory.sol",
  "compiler": {
    "name": "solc",
    "version": "0.6.12+commit.27d51765.Emscripten.clang"
  },
  "schemaVersion": "3.4.3",
  "updatedAt": "2021-11-02T10:39:34.537Z",
  "networkType": "ethereum",
  "devdoc": {
    "kind": "dev",
    "methods": {
      "owner()": {
        "details": "Returns the address of the current owner."
      },
      "renounceOwnership()": {
        "details": "Leaves the contract without owner. It will not be possible to call `onlyOwner` functions anymore. Can only be called by the current owner. NOTE: Renouncing ownership will leave the contract without an owner, thereby removing any functionality that is only available to the owner."
      },
      "transferOwnership(address)": {
        "details": "Transfers ownership of the contract to a new account (`newOwner`). Can only be called by the current owner."
      }
    },
    "version": 1
  },
  "userdoc": {
    "kind": "user",
    "methods": {},
    "version": 1
  }
}