{
  "contractName": "BoboPairHelper",
  "abi": [
    {
      "inputs": [
        {
          "internalType": "contract IBoboPair",
          "name": "_boboPair",
          "type": "address"
        },
        {
          "internalType": "address",
          "name": "_userAddr",
          "type": "address"
        },
        {
          "internalType": "uint256",
          "name": "_startTime",
          "type": "uint256"
        },
        {
          "internalType": "uint256",
          "name": "_endTime",
          "type": "uint256"
        }
      ],
      "name": "getDepositableOrders",
      "outputs": [
        {
          "internalType": "uint256[]",
          "name": "orderIds",
          "type": "uint256[]"
        },
        {
          "internalType": "uint256[]",
          "name": "weights",
          "type": "uint256[]"
        },
        {
          "internalType": "uint256",
          "name": "count",
          "type": "uint256"
        }
      ],
      "stateMutability": "view",
      "type": "function",
      "constant": true
    },
    {
      "inputs": [
        {
          "internalType": "contract IBoboPair",
          "name": "_boboPair",
          "type": "address"
        },
        {
          "internalType": "address",
          "name": "_userAddr",
          "type": "address"
        },
        {
          "internalType": "uint256",
          "name": "_startTime",
          "type": "uint256"
        },
        {
          "internalType": "uint256",
          "name": "_endTime",
          "type": "uint256"
        }
      ],
      "name": "getDepositableOrders_old",
      "outputs": [
        {
          "internalType": "uint256[]",
          "name": "orderIds",
          "type": "uint256[]"
        },
        {
          "internalType": "uint256[]",
          "name": "weights",
          "type": "uint256[]"
        },
        {
          "internalType": "uint256",
          "name": "count",
          "type": "uint256"
        }
      ],
      "stateMutability": "view",
      "type": "function",
      "constant": true
    },
    {
      "inputs": [
        {
          "internalType": "contract IBoboPair",
          "name": "_boboPair",
          "type": "address"
        },
        {
          "internalType": "address",
          "name": "_userAddr",
          "type": "address"
        },
        {
          "internalType": "uint256",
          "name": "_fromIndex",
          "type": "uint256"
        },
        {
          "internalType": "uint256",
          "name": "_pageSize",
          "type": "uint256"
        }
      ],
      "name": "getAllUnhangingOrders",
      "outputs": [
        {
          "components": [
            {
              "internalType": "uint256",
              "name": "id",
              "type": "uint256"
            },
            {
              "internalType": "address",
              "name": "owner",
              "type": "address"
            },
            {
              "internalType": "address",
              "name": "pairAddr",
              "type": "address"
            },
            {
              "internalType": "bool",
              "name": "bBuyQuoteToken",
              "type": "bool"
            },
            {
              "internalType": "uint256",
              "name": "spotPrice",
              "type": "uint256"
            },
            {
              "internalType": "uint256",
              "name": "inAmount",
              "type": "uint256"
            },
            {
              "internalType": "uint256",
              "name": "minOutAmount",
              "type": "uint256"
            },
            {
              "internalType": "uint256",
              "name": "outAmount",
              "type": "uint256"
            },
            {
              "internalType": "enum OrderStatus",
              "name": "status",
              "type": "uint8"
            },
            {
              "internalType": "string",
              "name": "comment",
              "type": "string"
            },
            {
              "internalType": "uint256",
              "name": "delegateTime",
              "type": "uint256"
            },
            {
              "internalType": "uint256",
              "name": "dealedTime",
              "type": "uint256"
            },
            {
              "internalType": "uint256",
              "name": "weight",
              "type": "uint256"
            }
          ],
          "internalType": "struct NFTInfo[]",
          "name": "nftInfos",
          "type": "tuple[]"
        },
        {
          "internalType": "uint256",
          "name": "count",
          "type": "uint256"
        }
      ],
      "stateMutability": "view",
      "type": "function",
      "constant": true
    },
    {
      "inputs": [
        {
          "internalType": "contract IBoboPair",
          "name": "_boboPair",
          "type": "address"
        },
        {
          "internalType": "enum OrderStatus",
          "name": "_orderStatus",
          "type": "uint8"
        },
        {
          "internalType": "uint256",
          "name": "_fromIndex",
          "type": "uint256"
        },
        {
          "internalType": "uint256",
          "name": "_pageSize",
          "type": "uint256"
        }
      ],
      "name": "getOneStatusOrders",
      "outputs": [
        {
          "components": [
            {
              "internalType": "uint256",
              "name": "id",
              "type": "uint256"
            },
            {
              "internalType": "address",
              "name": "owner",
              "type": "address"
            },
            {
              "internalType": "address",
              "name": "pairAddr",
              "type": "address"
            },
            {
              "internalType": "bool",
              "name": "bBuyQuoteToken",
              "type": "bool"
            },
            {
              "internalType": "uint256",
              "name": "spotPrice",
              "type": "uint256"
            },
            {
              "internalType": "uint256",
              "name": "inAmount",
              "type": "uint256"
            },
            {
              "internalType": "uint256",
              "name": "minOutAmount",
              "type": "uint256"
            },
            {
              "internalType": "uint256",
              "name": "outAmount",
              "type": "uint256"
            },
            {
              "internalType": "enum OrderStatus",
              "name": "status",
              "type": "uint8"
            },
            {
              "internalType": "string",
              "name": "comment",
              "type": "string"
            },
            {
              "internalType": "uint256",
              "name": "delegateTime",
              "type": "uint256"
            },
            {
              "internalType": "uint256",
              "name": "dealedTime",
              "type": "uint256"
            },
            {
              "internalType": "uint256",
              "name": "weight",
              "type": "uint256"
            }
          ],
          "internalType": "struct NFTInfo[]",
          "name": "nftInfos",
          "type": "tuple[]"
        },
        {
          "internalType": "uint256",
          "name": "count",
          "type": "uint256"
        }
      ],
      "stateMutability": "view",
      "type": "function",
      "constant": true
    },
    {
      "inputs": [
        {
          "internalType": "contract IBoboPair",
          "name": "_boboPair",
          "type": "address"
        },
        {
          "internalType": "address",
          "name": "_userAddr",
          "type": "address"
        },
        {
          "internalType": "uint256",
          "name": "_fromIndex",
          "type": "uint256"
        },
        {
          "internalType": "uint256",
          "name": "_pageSize",
          "type": "uint256"
        }
      ],
      "name": "getAllDealedOrders",
      "outputs": [
        {
          "components": [
            {
              "internalType": "uint256",
              "name": "id",
              "type": "uint256"
            },
            {
              "internalType": "address",
              "name": "owner",
              "type": "address"
            },
            {
              "internalType": "address",
              "name": "pairAddr",
              "type": "address"
            },
            {
              "internalType": "bool",
              "name": "bBuyQuoteToken",
              "type": "bool"
            },
            {
              "internalType": "uint256",
              "name": "spotPrice",
              "type": "uint256"
            },
            {
              "internalType": "uint256",
              "name": "inAmount",
              "type": "uint256"
            },
            {
              "internalType": "uint256",
              "name": "minOutAmount",
              "type": "uint256"
            },
            {
              "internalType": "uint256",
              "name": "outAmount",
              "type": "uint256"
            },
            {
              "internalType": "enum OrderStatus",
              "name": "status",
              "type": "uint8"
            },
            {
              "internalType": "string",
              "name": "comment",
              "type": "string"
            },
            {
              "internalType": "uint256",
              "name": "delegateTime",
              "type": "uint256"
            },
            {
              "internalType": "uint256",
              "name": "dealedTime",
              "type": "uint256"
            },
            {
              "internalType": "uint256",
              "name": "weight",
              "type": "uint256"
            }
          ],
          "internalType": "struct NFTInfo[]",
          "name": "nftInfos",
          "type": "tuple[]"
        },
        {
          "internalType": "uint256",
          "name": "count",
          "type": "uint256"
        }
      ],
      "stateMutability": "view",
      "type": "function",
      "constant": true
    },
    {
      "inputs": [
        {
          "internalType": "contract IBoboTradeMining",
          "name": "_boboTradeMining",
          "type": "address"
        },
        {
          "internalType": "address",
          "name": "_usderAddr",
          "type": "address"
        }
      ],
      "name": "getAllDepositedOrders",
      "outputs": [
        {
          "components": [
            {
              "internalType": "uint256",
              "name": "id",
              "type": "uint256"
            },
            {
              "internalType": "address",
              "name": "owner",
              "type": "address"
            },
            {
              "internalType": "address",
              "name": "pairAddr",
              "type": "address"
            },
            {
              "internalType": "bool",
              "name": "bBuyQuoteToken",
              "type": "bool"
            },
            {
              "internalType": "uint256",
              "name": "spotPrice",
              "type": "uint256"
            },
            {
              "internalType": "uint256",
              "name": "inAmount",
              "type": "uint256"
            },
            {
              "internalType": "uint256",
              "name": "minOutAmount",
              "type": "uint256"
            },
            {
              "internalType": "uint256",
              "name": "outAmount",
              "type": "uint256"
            },
            {
              "internalType": "enum OrderStatus",
              "name": "status",
              "type": "uint8"
            },
            {
              "internalType": "string",
              "name": "comment",
              "type": "string"
            },
            {
              "internalType": "uint256",
              "name": "delegateTime",
              "type": "uint256"
            },
            {
              "internalType": "uint256",
              "name": "dealedTime",
              "type": "uint256"
            },
            {
              "internalType": "uint256",
              "name": "weight",
              "type": "uint256"
            }
          ],
          "internalType": "struct NFTInfo[]",
          "name": "nftInfos",
          "type": "tuple[]"
        }
      ],
      "stateMutability": "view",
      "type": "function",
      "constant": true
    },
    {
      "inputs": [
        {
          "internalType": "address",
          "name": "boboFactory",
          "type": "address"
        },
        {
          "internalType": "address",
          "name": "boboRouter",
          "type": "address"
        },
        {
          "internalType": "address[]",
          "name": "quoteTokenOfUsdt",
          "type": "address[]"
        },
        {
          "internalType": "address",
          "name": "usdtAddr",
          "type": "address"
        },
        {
          "internalType": "address[]",
          "name": "quoteTokenOfUsdc",
          "type": "address[]"
        },
        {
          "internalType": "address",
          "name": "usdcAddr",
          "type": "address"
        }
      ],
      "name": "getPairInfo",
      "outputs": [
        {
          "internalType": "uint256[]",
          "name": "pricesOfUsdt",
          "type": "uint256[]"
        },
        {
          "internalType": "uint256[]",
          "name": "volumnsOfUsdt",
          "type": "uint256[]"
        },
        {
          "internalType": "uint256[]",
          "name": "pricesOfUsdc",
          "type": "uint256[]"
        },
        {
          "internalType": "uint256[]",
          "name": "volumnsOfUsdc",
          "type": "uint256[]"
        }
      ],
      "stateMutability": "view",
      "type": "function",
      "constant": true
    },
    {
      "inputs": [
        {
          "internalType": "address",
          "name": "boboFactory",
          "type": "address"
        },
        {
          "internalType": "address[]",
          "name": "quoteTokenOfUsdt",
          "type": "address[]"
        },
        {
          "internalType": "address",
          "name": "usdtAddr",
          "type": "address"
        },
        {
          "internalType": "address[]",
          "name": "quoteTokenOfUsdc",
          "type": "address[]"
        },
        {
          "internalType": "address",
          "name": "usdcAddr",
          "type": "address"
        }
      ],
      "name": "getPairAddressList",
      "outputs": [
        {
          "internalType": "address[]",
          "name": "pairAddressListOfUsdt",
          "type": "address[]"
        },
        {
          "internalType": "address[]",
          "name": "pairAddressListOfUsdc",
          "type": "address[]"
        }
      ],
      "stateMutability": "view",
      "type": "function",
      "constant": true
    }
  ],
  "bytecode": "0x608060405234801561001057600080fd5b50612590806100206000396000f3fe608060405234801561001057600080fd5b50600436106100885760003560e01c8063850624121161005b578063850624121461010d578063881de76d1461012d578063b875897414610140578063dd2833f71461015357610088565b80631077dcc11461008d578063139661f5146100b857806339ac5a14146100cb57806368e62084146100ec575b600080fd5b6100a061009b366004611f91565b610176565b6040516100af9392919061244c565b60405180910390f35b6100a06100c6366004611f91565b6105dd565b6100de6100d9366004611f91565b610a1b565b6040516100af9291906123d2565b6100ff6100fa366004611e66565b610cd1565b6040516100af929190612391565b61012061011b366004612006565b610f17565b6040516100af91906123bf565b6100de61013b366004611f91565b6111c3565b6100de61014e366004611fd6565b61146c565b610166610161366004611db9565b611715565b6040516100af94939291906123f4565b606080600080876001600160a01b031663d4d728da6040518163ffffffff1660e01b815260040160206040518083038186803b1580156101b557600080fd5b505afa1580156101c9573d6000803e3d6000fd5b505050506040513d601f19601f820116820180604052508101906101ed9190611d96565b90506000886001600160a01b0316632d611131896040518263ffffffff1660e01b815260040161021d9190612329565b60206040518083038186803b15801561023557600080fd5b505afa158015610249573d6000803e3d6000fd5b505050506040513d601f19601f8201168201806040525081019061026d919061214e565b90506064811161027d5780610280565b60645b6001600160401b038111801561029557600080fd5b506040519080825280602002602001820160405280156102bf578160200160208202803683370190505b509450606481116102d057806102d3565b60645b6001600160401b03811180156102e857600080fd5b50604051908082528060200260200182016040528015610312578160200160208202803683370190505b50935060005b818110156105d057604051631b11481760e01b81526000906001600160a01b038c1690631b11481790610351908d908690600401612378565b60206040518083038186803b15801561036957600080fd5b505afa15801561037d573d6000803e3d6000fd5b505050506040513d601f19601f820116820180604052508101906103a1919061214e565b90506103ab611c05565b60405163d311636b60e01b81526001600160a01b0386169063d311636b906103d79085906004016124ad565b60006040518083038186803b1580156103ef57600080fd5b505afa158015610403573d6000803e3d6000fd5b505050506040513d6000823e601f3d908101601f1916820160405261042b919081019061203e565b80516040516331a9108f60e11b81529192506000916001600160a01b03881691636352211e9161045e91906004016124ad565b60206040518083038186803b15801561047657600080fd5b505afa15801561048a573d6000803e3d6000fd5b505050506040513d601f19601f820116820180604052508101906104ae9190611d96565b9050600282610100015160038111156104c357fe5b1480156104e157508b6001600160a01b0316816001600160a01b0316145b80156104f257508a82610160015110155b8015610502575089826101600151105b156105c557815160405163d851fdfd60e01b81526000916001600160a01b0389169163d851fdfd91610536916004016124ad565b60206040518083038186803b15801561054e57600080fd5b505afa158015610562573d6000803e3d6000fd5b505050506040513d601f19601f82011682018060405250810190610586919061214e565b905082600001518a898151811061059957fe5b602002602001018181525050808989815181106105b257fe5b6020908102919091010152506001909601955b505050600101610318565b5050509450945094915050565b606080600080876001600160a01b031663d4d728da6040518163ffffffff1660e01b815260040160206040518083038186803b15801561061c57600080fd5b505afa158015610630573d6000803e3d6000fd5b505050506040513d601f19601f820116820180604052508101906106549190611d96565b90506000886001600160a01b031663c6388845896040518263ffffffff1660e01b81526004016106849190612329565b60206040518083038186803b15801561069c57600080fd5b505afa1580156106b0573d6000803e3d6000fd5b505050506040513d601f19601f820116820180604052508101906106d4919061214e565b9050606481116106e457806106e7565b60645b6001600160401b03811180156106fc57600080fd5b50604051908082528060200260200182016040528015610726578160200160208202803683370190505b50945060648111610737578061073a565b60645b6001600160401b038111801561074f57600080fd5b50604051908082528060200260200182016040528015610779578160200160208202803683370190505b50935060005b818110156105d057604051638862f28560e01b81526000906001600160a01b038c1690638862f285906107b8908d908690600401612378565b60206040518083038186803b1580156107d057600080fd5b505afa1580156107e4573d6000803e3d6000fd5b505050506040513d601f19601f82011682018060405250810190610808919061214e565b9050610812611c05565b60405163d311636b60e01b81526001600160a01b0386169063d311636b9061083e9085906004016124ad565b60006040518083038186803b15801561085657600080fd5b505afa15801561086a573d6000803e3d6000fd5b505050506040513d6000823e601f3d908101601f19168201604052610892919081019061203e565b80516040516331a9108f60e11b81529192506000916001600160a01b03881691636352211e916108c591906004016124ad565b60206040518083038186803b1580156108dd57600080fd5b505afa1580156108f1573d6000803e3d6000fd5b505050506040513d601f19601f820116820180604052508101906109159190611d96565b90508b6001600160a01b0316816001600160a01b031614801561093d57508a82610160015110155b801561094d575089826101600151105b15610a1057815160405163d851fdfd60e01b81526000916001600160a01b0389169163d851fdfd91610981916004016124ad565b60206040518083038186803b15801561099957600080fd5b505afa1580156109ad573d6000803e3d6000fd5b505050506040513d601f19601f820116820180604052508101906109d1919061214e565b905082600001518a89815181106109e457fe5b602002602001018181525050808989815181106109fd57fe5b6020908102919091010152506001909601955b50505060010161077f565b6060600080866001600160a01b031663c6388845876040518263ffffffff1660e01b8152600401610a4c9190612329565b60206040518083038186803b158015610a6457600080fd5b505afa158015610a78573d6000803e3d6000fd5b505050506040513d601f19601f82011682018060405250810190610a9c919061214e565b9050600181038511610cc7578084860111610ab75783610abb565b8481035b9350836001600160401b0381118015610ad357600080fd5b50604051908082528060200260200182016040528015610b0d57816020015b610afa611c05565b815260200190600190039081610af25790505b5092506000876001600160a01b031663d4d728da6040518163ffffffff1660e01b815260040160206040518083038186803b158015610b4b57600080fd5b505afa158015610b5f573d6000803e3d6000fd5b505050506040513d601f19601f82011682018060405250810190610b839190611d96565b9050855b858701811015610cc457604051638862f28560e01b81526000906001600160a01b038b1690638862f28590610bc2908c908690600401612378565b60206040518083038186803b158015610bda57600080fd5b505afa158015610bee573d6000803e3d6000fd5b505050506040513d601f19601f82011682018060405250810190610c12919061214e565b9050610c1c611c05565b60405163d311636b60e01b81526001600160a01b0385169063d311636b90610c489085906004016124ad565b60006040518083038186803b158015610c6057600080fd5b505afa158015610c74573d6000803e3d6000fd5b505050506040513d6000823e601f3d908101601f19168201604052610c9c919081019061203e565b905080878781518110610cab57fe5b6020908102919091010152505060019384019301610b87565b50505b5094509492505050565b83516060908190806001600160401b0381118015610cee57600080fd5b50604051908082528060200260200182016040528015610d18578160200160208202803683370190505b508551909350806001600160401b0381118015610d3457600080fd5b50604051908082528060200260200182016040528015610d5e578160200160208202803683370190505b50925060005b82811015610e35576000898281518110610d7a57fe5b6020026020010151905060008b6001600160a01b031663e6a43905838c6040518363ffffffff1660e01b8152600401610db492919061233d565b60206040518083038186803b158015610dcc57600080fd5b505afa158015610de0573d6000803e3d6000fd5b505050506040513d601f19601f82011682018060405250810190610e049190611d96565b905080878481518110610e1357fe5b6001600160a01b03909216602092830291909101909101525050600101610d64565b5060005b81811015610f0a576000878281518110610e4f57fe5b6020026020010151905060008b6001600160a01b031663e6a43905838a6040518363ffffffff1660e01b8152600401610e8992919061233d565b60206040518083038186803b158015610ea157600080fd5b505afa158015610eb5573d6000803e3d6000fd5b505050506040513d601f19601f82011682018060405250810190610ed99190611d96565b905080868481518110610ee857fe5b6001600160a01b03909216602092830291909101909101525050600101610e39565b5050509550959350505050565b60606000836001600160a01b0316638eb7e51e846040518263ffffffff1660e01b8152600401610f479190612329565b60206040518083038186803b158015610f5f57600080fd5b505afa158015610f73573d6000803e3d6000fd5b505050506040513d601f19601f82011682018060405250810190610f97919061214e565b90506060846001600160a01b0316632bf258ed856000856040518463ffffffff1660e01b8152600401610fcc93929190612357565b60006040518083038186803b158015610fe457600080fd5b505afa158015610ff8573d6000803e3d6000fd5b505050506040513d6000823e601f3d908101601f191682016040526110209190810190611f02565b9050816001600160401b038111801561103857600080fd5b5060405190808252806020026020018201604052801561107257816020015b61105f611c05565b8152602001906001900390816110575790505b5092506000856001600160a01b031663d06fcba86040518163ffffffff1660e01b815260040160206040518083038186803b1580156110b057600080fd5b505afa1580156110c4573d6000803e3d6000fd5b505050506040513d601f19601f820116820180604052508101906110e89190611d96565b905060005b838110156111b957600083828151811061110357fe5b60200260200101519050611115611c05565b60405163d311636b60e01b81526001600160a01b0385169063d311636b906111419085906004016124ad565b60006040518083038186803b15801561115957600080fd5b505afa15801561116d573d6000803e3d6000fd5b505050506040513d6000823e601f3d908101601f19168201604052611195919081019061203e565b9050808784815181106111a457fe5b602090810291909101015250506001016110ed565b5050505092915050565b6060600080866001600160a01b0316632d611131876040518263ffffffff1660e01b81526004016111f49190612329565b60206040518083038186803b15801561120c57600080fd5b505afa158015611220573d6000803e3d6000fd5b505050506040513d601f19601f82011682018060405250810190611244919061214e565b9050600181038511610cc757808486011161125f5783611263565b8481035b9350836001600160401b038111801561127b57600080fd5b506040519080825280602002602001820160405280156112b557816020015b6112a2611c05565b81526020019060019003908161129a5790505b5092506000876001600160a01b031663d4d728da6040518163ffffffff1660e01b815260040160206040518083038186803b1580156112f357600080fd5b505afa158015611307573d6000803e3d6000fd5b505050506040513d601f19601f8201168201806040525081019061132b9190611d96565b9050855b858701811015610cc457604051631b11481760e01b81526000906001600160a01b038b1690631b1148179061136a908c908690600401612378565b60206040518083038186803b15801561138257600080fd5b505afa158015611396573d6000803e3d6000fd5b505050506040513d601f19601f820116820180604052508101906113ba919061214e565b90506113c4611c05565b60405163d311636b60e01b81526001600160a01b0385169063d311636b906113f09085906004016124ad565b60006040518083038186803b15801561140857600080fd5b505afa15801561141c573d6000803e3d6000fd5b505050506040513d6000823e601f3d908101601f19168201604052611444919081019061203e565b90508087878151811061145357fe5b602090810291909101015250506001938401930161132f565b6060600080866001600160a01b0316633c72814d876040518263ffffffff1660e01b815260040161149d9190612482565b60206040518083038186803b1580156114b557600080fd5b505afa1580156114c9573d6000803e3d6000fd5b505050506040513d601f19601f820116820180604052508101906114ed919061214e565b9050600181038511610cc7578084860111611508578361150c565b8481035b9350836001600160401b038111801561152457600080fd5b5060405190808252806020026020018201604052801561155e57816020015b61154b611c05565b8152602001906001900390816115435790505b5092506000876001600160a01b031663d4d728da6040518163ffffffff1660e01b815260040160206040518083038186803b15801561159c57600080fd5b505afa1580156115b0573d6000803e3d6000fd5b505050506040513d601f19601f820116820180604052508101906115d49190611d96565b9050855b858701811015610cc45760405163952c70fb60e01b81526000906001600160a01b038b169063952c70fb90611613908c908690600401612495565b60206040518083038186803b15801561162b57600080fd5b505afa15801561163f573d6000803e3d6000fd5b505050506040513d601f19601f82011682018060405250810190611663919061214e565b905061166d611c05565b60405163d311636b60e01b81526001600160a01b0385169063d311636b906116999085906004016124ad565b60006040518083038186803b1580156116b157600080fd5b505afa1580156116c5573d6000803e3d6000fd5b505050506040513d6000823e601f3d908101601f191682016040526116ed919081019061203e565b9050808787815181106116fc57fe5b60209081029190910101525050600193840193016115d8565b606080606080600088519050806001600160401b038111801561173757600080fd5b50604051908082528060200260200182016040528015611761578160200160208202803683370190505b509450806001600160401b038111801561177a57600080fd5b506040519080825280602002602001820160405280156117a4578160200160208202803683370190505b508751909450806001600160401b03811180156117c057600080fd5b506040519080825280602002602001820160405280156117ea578160200160208202803683370190505b509350806001600160401b038111801561180357600080fd5b5060405190808252806020026020018201604052801561182d578160200160208202803683370190505b50925060005b82811015611a125760008b828151811061184957fe5b6020026020010151905060008e6001600160a01b031663e6a43905838e6040518363ffffffff1660e01b815260040161188392919061233d565b60206040518083038186803b15801561189b57600080fd5b505afa1580156118af573d6000803e3d6000fd5b505050506040513d601f19601f820116820180604052508101906118d39190611d96565b90506001600160a01b0381166118ea575050611a0a565b806001600160a01b03166384cc315b8f6040518263ffffffff1660e01b81526004016119169190612329565b60206040518083038186803b15801561192e57600080fd5b505afa158015611942573d6000803e3d6000fd5b505050506040513d601f19601f82011682018060405250810190611966919061214e565b89848151811061197257fe5b602002602001018181525050806001600160a01b031663392da1b06040518163ffffffff1660e01b815260040160206040518083038186803b1580156119b757600080fd5b505afa1580156119cb573d6000803e3d6000fd5b505050506040513d601f19601f820116820180604052508101906119ef919061214e565b8884815181106119fb57fe5b60200260200101818152505050505b600101611833565b5060005b81811015611bf5576000898281518110611a2c57fe5b6020026020010151905060008e6001600160a01b031663e6a43905838c6040518363ffffffff1660e01b8152600401611a6692919061233d565b60206040518083038186803b158015611a7e57600080fd5b505afa158015611a92573d6000803e3d6000fd5b505050506040513d601f19601f82011682018060405250810190611ab69190611d96565b90506001600160a01b038116611acd575050611bed565b806001600160a01b03166384cc315b8f6040518263ffffffff1660e01b8152600401611af99190612329565b60206040518083038186803b158015611b1157600080fd5b505afa158015611b25573d6000803e3d6000fd5b505050506040513d601f19601f82011682018060405250810190611b49919061214e565b878481518110611b5557fe5b602002602001018181525050806001600160a01b031663392da1b06040518163ffffffff1660e01b815260040160206040518083038186803b158015611b9a57600080fd5b505afa158015611bae573d6000803e3d6000fd5b505050506040513d601f19601f82011682018060405250810190611bd2919061214e565b868481518110611bde57fe5b60200260200101818152505050505b600101611a16565b5050509650965096509692505050565b604051806101a001604052806000815260200160006001600160a01b0316815260200160006001600160a01b031681526020016000151581526020016000815260200160008152602001600081526020016000815260200160006003811115611c6a57fe5b8152602001606081526020016000815260200160008152602001600081525090565b8051611c9781612538565b92915050565b600082601f830112611cad578081fd5b8135611cc0611cbb826124dc565b6124b6565b818152915060208083019084810181840286018201871015611ce157600080fd5b60005b84811015611d09578135611cf781612538565b84529282019290820190600101611ce4565b505050505092915050565b80518015158114611c9757600080fd5b8051611c978161254d565b600082601f830112611d3f578081fd5b81516001600160401b03811115611d54578182fd5b611d67601f8201601f19166020016124b6565b9150808252836020828501011115611d7e57600080fd5b611d8f8160208401602086016124fb565b5092915050565b600060208284031215611da7578081fd5b8151611db281612538565b9392505050565b60008060008060008060c08789031215611dd1578182fd5b8635611ddc81612538565b95506020870135611dec81612538565b945060408701356001600160401b0380821115611e07578384fd5b611e138a838b01611c9d565b955060608901359150611e2582612538565b90935060808801359080821115611e3a578384fd5b50611e4789828a01611c9d565b92505060a0870135611e5881612538565b809150509295509295509295565b600080600080600060a08688031215611e7d578081fd5b8535611e8881612538565b945060208601356001600160401b0380821115611ea3578283fd5b611eaf89838a01611c9d565b955060408801359150611ec182612538565b90935060608701359080821115611ed6578283fd5b50611ee388828901611c9d565b9250506080860135611ef481612538565b809150509295509295909350565b60006020808385031215611f14578182fd5b82516001600160401b03811115611f29578283fd5b8301601f81018513611f39578283fd5b8051611f47611cbb826124dc565b8181528381019083850185840285018601891015611f63578687fd5b8694505b83851015611f85578051835260019490940193918501918501611f67565b50979650505050505050565b60008060008060808587031215611fa6578384fd5b8435611fb181612538565b93506020850135611fc181612538565b93969395505050506040820135916060013590565b60008060008060808587031215611feb578384fd5b8435611ff681612538565b93506020850135611fc18161254d565b60008060408385031215612018578182fd5b823561202381612538565b9150602083013561203381612538565b809150509250929050565b60006020828403121561204f578081fd5b81516001600160401b0380821115612065578283fd5b81840191506101a080838703121561207b578384fd5b612084816124b6565b9050825181526120978660208501611c8c565b60208201526120a98660408501611c8c565b60408201526120bb8660608501611d14565b60608201526080830151608082015260a083015160a082015260c083015160c082015260e083015160e08201526101006120f787828601611d24565b90820152610120838101518381111561210e578586fd5b61211a88828701611d2f565b9183019190915250610140838101519082015261016080840151908201526101809283015192810192909252509392505050565b60006020828403121561215f578081fd5b5051919050565b6001600160a01b03169052565b6000815180845260208085019450808401835b838110156121ab5781516001600160a01b031687529582019590820190600101612186565b509495945050505050565b6000815180845260208085018081965082840281019150828601855b858110156122ae57828403895281516101a081518652868201516121f888880182612166565b5060408083015161220b82890182612166565b505060608083015161221f828901826122ea565b50506080828101519087015260a0808301519087015260c0808301519087015260e080830151908701526101008083015161225c828901826122f0565b5050610120808301518282890152612276838901826122fd565b61014085810151908a015261016080860151908a015261018094850151949098019390935250505097840197908401906001016121d2565b5091979650505050505050565b6000815180845260208085019450808401835b838110156121ab578151875295820195908201906001016122ce565b15159052565b6122f98161252b565b9052565b600081518084526123158160208601602086016124fb565b601f01601f19169290920160200192915050565b6001600160a01b0391909116815260200190565b6001600160a01b0392831681529116602082015260400190565b6001600160a01b039390931683526020830191909152604082015260600190565b6001600160a01b03929092168252602082015260400190565b6000604082526123a46040830185612173565b82810360208401526123b68185612173565b95945050505050565b600060208252611db260208301846121b6565b6000604082526123e560408301856121b6565b90508260208301529392505050565b60006080825261240760808301876122bb565b828103602084015261241981876122bb565b9050828103604084015261242d81866122bb565b9050828103606084015261244181856122bb565b979650505050505050565b60006060825261245f60608301866122bb565b828103602084015261247181866122bb565b915050826040830152949350505050565b6020810161248f8361252b565b91905290565b60408101600484106124a357fe5b9281526020015290565b90815260200190565b6040518181016001600160401b03811182821017156124d457600080fd5b604052919050565b60006001600160401b038211156124f1578081fd5b5060209081020190565b60005b838110156125165781810151838201526020016124fe565b83811115612525576000848401525b50505050565b6004811061253557fe5b50565b6001600160a01b038116811461253557600080fd5b6004811061253557600080fdfea26469706673582212207871af32e3360c68732f0283e88c261bd4be1db4a47e0d8b8228c8cbdfedd7fe64736f6c634300060c0033",
  "immutableReferences": {},
  "source": "// SPDX-License-Identifier: MIT\npragma solidity ^0.6.0;\npragma experimental ABIEncoderV2;\n\nimport \"./common/BasicStruct.sol\";\n\ninterface IBoboPair {\n    function getUserDealedOrderNumber(address _userAddr) view external returns(uint256);\n    function userDealedOrdersMap(address _userAddr, uint256 _index) view external returns(uint256);\n    function userOrdersMap(address _userAddr, uint256 _index) view external returns(uint256);\n    function orderNFT() view external returns(address);\n    function getUserOrderNumber(address _userAddr) view external returns(uint256);\n    function getOrderNumber(OrderStatus _orderStatus) view external returns(uint256);\n    function sealedOrdersMap(OrderStatus _orderStatus, uint256 _index) view external returns(uint256);\n    function getCurrentPrice(address _boboRouter) view external returns(uint256);\n    function volumnOf24Hours() view external returns(uint256);\n}\n\ninterface IBoboTradeMining {\n    function nftToken() view external returns(address);\n    function getUserNFTNumber(address _user) view external returns(uint256);\n    function getUserNFTIds(address _user, uint256 _fromIndex, uint256 _toIndex) view external returns(uint256[] memory nftIds);\n}\n\ninterface IBoboFactory {\n    function getPair(address tokenA, address tokenB) view external returns(address);\n}\n\n\ncontract BoboPairHelper {\n    function getDepositableOrders(IBoboPair _boboPair, address _userAddr, uint256 _startTime, uint256 _endTime) \n        view public returns(uint256[] memory orderIds, uint256[] memory weights, uint256 count) {\n        \n        IOrderNFT orderNFT = IOrderNFT(_boboPair.orderNFT());\n        uint256 orderNumber = _boboPair.getUserDealedOrderNumber(_userAddr);\n        orderIds = new uint256[](orderNumber > 100 ? 100 : orderNumber);\n        weights = new uint256[](orderNumber > 100 ? 100 : orderNumber);\n        for (uint256 i; i < orderNumber; i++) {\n            uint256 orderId = _boboPair.userDealedOrdersMap(_userAddr, i);\n            NFTInfo memory nftInfo = orderNFT.getOrderInfo(orderId);\n            address ownerAddr = orderNFT.ownerOf(nftInfo.id);\n            if (ownerAddr == _userAddr && nftInfo.dealedTime >= _startTime && nftInfo.dealedTime < _endTime) {\n                uint256 weight = orderNFT.getWeight(nftInfo.id);\n                orderIds[count] = nftInfo.id;\n                weights[count] = weight;\n                count++;\n            }\n        }\n    }\n\n    function getDepositableOrders_old(IBoboPair _boboPair, address _userAddr, uint256 _startTime, uint256 _endTime) \n        view public returns(uint256[] memory orderIds, uint256[] memory weights, uint256 count) {\n        \n        IOrderNFT orderNFT = IOrderNFT(_boboPair.orderNFT());\n        uint256 orderNumber = _boboPair.getUserOrderNumber(_userAddr);\n        orderIds = new uint256[](orderNumber > 100 ? 100 : orderNumber);\n        weights = new uint256[](orderNumber > 100 ? 100 : orderNumber);\n        for (uint256 i; i < orderNumber; i++) {\n            uint256 orderId = _boboPair.userOrdersMap(_userAddr, i);\n            NFTInfo memory nftInfo = orderNFT.getOrderInfo(orderId);\n            address ownerAddr = orderNFT.ownerOf(nftInfo.id);   // ownerowner\n            if (nftInfo.status == OrderStatus.AMMDeal && ownerAddr == _userAddr && nftInfo.dealedTime >= _startTime && nftInfo.dealedTime < _endTime) {\n                uint256 weight = orderNFT.getWeight(nftInfo.id);\n                orderIds[count] = nftInfo.id;\n                weights[count] = weight;\n                count++;\n            }\n        }\n    }\n\n    function getAllUnhangingOrders(IBoboPair _boboPair, address _userAddr, uint256 _fromIndex, uint256 _pageSize) \n        view public returns(NFTInfo[] memory nftInfos, uint256 count) {\n        uint256 orderNumber = _boboPair.getUserOrderNumber(_userAddr);\n        if (_fromIndex <= orderNumber - 1) {\n            _pageSize = (_fromIndex + _pageSize) > orderNumber ? (orderNumber - _fromIndex) : _pageSize;\n            nftInfos = new NFTInfo[](_pageSize);\n            IOrderNFT orderNFT = IOrderNFT(_boboPair.orderNFT());\n            for (uint256 i = _fromIndex; i < _fromIndex + _pageSize; i++) {\n                uint256 orderId = _boboPair.userOrdersMap(_userAddr, i);\n                NFTInfo memory nftInfo = orderNFT.getOrderInfo(orderId);\n                nftInfos[count] = nftInfo;\n                count++;\n            } \n        }\n    }\n\n    function getOneStatusOrders(IBoboPair _boboPair, OrderStatus _orderStatus, uint256 _fromIndex, uint256 _pageSize) \n        view public returns(NFTInfo[] memory nftInfos, uint256 count) {\n        uint256 orderNumber = _boboPair.getOrderNumber(_orderStatus);\n        if (_fromIndex <= orderNumber - 1) {\n            _pageSize = (_fromIndex + _pageSize) > orderNumber ? (orderNumber - _fromIndex) : _pageSize;\n            nftInfos = new NFTInfo[](_pageSize);\n            IOrderNFT orderNFT = IOrderNFT(_boboPair.orderNFT());\n            for (uint256 i = _fromIndex; i < _fromIndex + _pageSize; i++) {\n                uint256 orderId = _boboPair.sealedOrdersMap(_orderStatus, i);\n                NFTInfo memory nftInfo = orderNFT.getOrderInfo(orderId);\n                nftInfos[count] = nftInfo;\n                count++;\n            } \n        }\n    }\n\n    function getAllDealedOrders(IBoboPair _boboPair, address _userAddr, uint256 _fromIndex, uint256 _pageSize) \n        view public returns(NFTInfo[] memory nftInfos, uint256 count) {\n        uint256 orderNumber = _boboPair.getUserDealedOrderNumber(_userAddr);\n\n        if (_fromIndex <= orderNumber - 1) {\n            _pageSize = (_fromIndex + _pageSize) > orderNumber ? (orderNumber - _fromIndex) : _pageSize;\n            nftInfos = new NFTInfo[](_pageSize);\n            IOrderNFT orderNFT = IOrderNFT(_boboPair.orderNFT());\n            for (uint256 i = _fromIndex; i < _fromIndex + _pageSize; i++) {\n                uint256 orderId = _boboPair.userDealedOrdersMap(_userAddr, i);\n                NFTInfo memory nftInfo = orderNFT.getOrderInfo(orderId);\n                nftInfos[count] = nftInfo;\n                count++;\n            } \n        }\n    }\n\n    function getAllDepositedOrders(IBoboTradeMining _boboTradeMining, address _usderAddr) view public returns(NFTInfo[] memory nftInfos) {\n        uint256 orderLength = _boboTradeMining.getUserNFTNumber(_usderAddr);\n        uint256[] memory orderIds = _boboTradeMining.getUserNFTIds(_usderAddr, 0, orderLength);\n        nftInfos = new NFTInfo[](orderLength);\n        IOrderNFT orderNFT = IOrderNFT(_boboTradeMining.nftToken());\n        for (uint256 i = 0; i < orderLength; i++) {\n            uint256 orderId = orderIds[i];\n            NFTInfo memory nftInfo = orderNFT.getOrderInfo(orderId);\n            nftInfos[i] = nftInfo;\n        } \n    }\n\n    function getPairInfo(address boboFactory, address boboRouter, address[] memory quoteTokenOfUsdt, address usdtAddr, address[] memory quoteTokenOfUsdc, address usdcAddr) \n        view public returns(uint256[] memory pricesOfUsdt, uint256[] memory volumnsOfUsdt, \n                            uint256[] memory pricesOfUsdc, uint256[] memory volumnsOfUsdc) {\n        \n        uint256 usdtTokenLength = quoteTokenOfUsdt.length;\n        pricesOfUsdt = new uint256[](usdtTokenLength);\n        volumnsOfUsdt = new uint256[](usdtTokenLength);\n\n        uint256 usdcTokenLength = quoteTokenOfUsdc.length;\n        pricesOfUsdc = new uint256[](usdcTokenLength);\n        volumnsOfUsdc = new uint256[](usdcTokenLength);\n\n        for (uint256 i = 0; i < usdtTokenLength; i++) {\n            address quoteTokenAddr = quoteTokenOfUsdt[i];\n            address pairAddr = IBoboFactory(boboFactory).getPair(quoteTokenAddr, usdtAddr);\n            if (pairAddr == address(0)) continue;\n            pricesOfUsdt[i] = IBoboPair(pairAddr).getCurrentPrice(boboRouter);\n            volumnsOfUsdt[i] = IBoboPair(pairAddr).volumnOf24Hours();\n        }\n\n        for (uint256 i = 0; i < usdcTokenLength; i++) {\n            address quoteTokenAddr = quoteTokenOfUsdc[i];\n            address pairAddr = IBoboFactory(boboFactory).getPair(quoteTokenAddr, usdcAddr);\n            if (pairAddr == address(0)) continue;\n            pricesOfUsdc[i] = IBoboPair(pairAddr).getCurrentPrice(boboRouter);\n            volumnsOfUsdc[i] = IBoboPair(pairAddr).volumnOf24Hours();\n        }\n    }\n\n    function getPairAddressList(address boboFactory, address[] memory quoteTokenOfUsdt, address usdtAddr, address[] memory quoteTokenOfUsdc, address usdcAddr) \n        view public returns(address[] memory pairAddressListOfUsdt, address[] memory pairAddressListOfUsdc) {\n        \n        uint256 usdtTokenLength = quoteTokenOfUsdt.length;\n        pairAddressListOfUsdt = new address[](usdtTokenLength);\n\n        uint256 usdcTokenLength = quoteTokenOfUsdc.length;\n        pairAddressListOfUsdc = new address[](usdcTokenLength);\n\n        for (uint256 i = 0; i < usdtTokenLength; i++) {\n            address quoteTokenAddr = quoteTokenOfUsdt[i];\n            address pairAddr = IBoboFactory(boboFactory).getPair(quoteTokenAddr, usdtAddr);\n            pairAddressListOfUsdt[i] = pairAddr;\n        }\n\n        for (uint256 i = 0; i < usdcTokenLength; i++) {\n            address quoteTokenAddr = quoteTokenOfUsdc[i];\n            address pairAddr = IBoboFactory(boboFactory).getPair(quoteTokenAddr, usdcAddr);\n            pairAddressListOfUsdc[i] = pairAddr;\n        }\n    }\n}",
  "sourcePath": "/Users/mryu/blockchain/bobo-metaverse/boboswap-contract/contracts/BoboPairHelper.sol",
  "compiler": {
    "name": "solc",
    "version": "0.6.12+commit.27d51765.Emscripten.clang"
  },
  "schemaVersion": "3.4.3",
  "updatedAt": "2021-09-18T07:52:03.979Z",
  "networkType": "ethereum",
  "devdoc": {
    "kind": "dev",
    "methods": {},
    "version": 1
  },
  "userdoc": {
    "kind": "user",
    "methods": {},
    "version": 1
  }
}