{
  "contractName": "BoboPairHelper",
  "abi": [
    {
      "inputs": [
        {
          "internalType": "contract IBoboPair",
          "name": "_boboPair",
          "type": "address"
        },
        {
          "internalType": "address",
          "name": "_userAddr",
          "type": "address"
        },
        {
          "internalType": "uint256",
          "name": "_startTime",
          "type": "uint256"
        },
        {
          "internalType": "uint256",
          "name": "_endTime",
          "type": "uint256"
        }
      ],
      "name": "getDepositableOrders",
      "outputs": [
        {
          "internalType": "uint256[]",
          "name": "orderIds",
          "type": "uint256[]"
        },
        {
          "internalType": "uint256[]",
          "name": "weights",
          "type": "uint256[]"
        },
        {
          "internalType": "uint256",
          "name": "count",
          "type": "uint256"
        }
      ],
      "stateMutability": "view",
      "type": "function",
      "constant": true
    },
    {
      "inputs": [
        {
          "internalType": "contract IBoboPair",
          "name": "_boboPair",
          "type": "address"
        },
        {
          "internalType": "address",
          "name": "_userAddr",
          "type": "address"
        },
        {
          "internalType": "uint256",
          "name": "_startTime",
          "type": "uint256"
        },
        {
          "internalType": "uint256",
          "name": "_endTime",
          "type": "uint256"
        }
      ],
      "name": "getDepositableOrders_old",
      "outputs": [
        {
          "internalType": "uint256[]",
          "name": "orderIds",
          "type": "uint256[]"
        },
        {
          "internalType": "uint256[]",
          "name": "weights",
          "type": "uint256[]"
        },
        {
          "internalType": "uint256",
          "name": "count",
          "type": "uint256"
        }
      ],
      "stateMutability": "view",
      "type": "function",
      "constant": true
    },
    {
      "inputs": [
        {
          "internalType": "contract IBoboPair",
          "name": "_boboPair",
          "type": "address"
        },
        {
          "internalType": "address",
          "name": "_userAddr",
          "type": "address"
        },
        {
          "internalType": "uint256",
          "name": "_fromIndex",
          "type": "uint256"
        },
        {
          "internalType": "uint256",
          "name": "_pageSize",
          "type": "uint256"
        }
      ],
      "name": "getAllUnhangingOrders",
      "outputs": [
        {
          "components": [
            {
              "internalType": "uint256",
              "name": "id",
              "type": "uint256"
            },
            {
              "internalType": "address",
              "name": "owner",
              "type": "address"
            },
            {
              "internalType": "address",
              "name": "pairAddr",
              "type": "address"
            },
            {
              "internalType": "bool",
              "name": "bBuyQuoteToken",
              "type": "bool"
            },
            {
              "internalType": "uint256",
              "name": "spotPrice",
              "type": "uint256"
            },
            {
              "internalType": "uint256",
              "name": "inAmount",
              "type": "uint256"
            },
            {
              "internalType": "uint256",
              "name": "minOutAmount",
              "type": "uint256"
            },
            {
              "internalType": "uint256",
              "name": "outAmount",
              "type": "uint256"
            },
            {
              "internalType": "enum OrderStatus",
              "name": "status",
              "type": "uint8"
            },
            {
              "internalType": "string",
              "name": "comment",
              "type": "string"
            },
            {
              "internalType": "uint256",
              "name": "delegateTime",
              "type": "uint256"
            },
            {
              "internalType": "uint256",
              "name": "dealedTime",
              "type": "uint256"
            },
            {
              "internalType": "uint256",
              "name": "weight",
              "type": "uint256"
            }
          ],
          "internalType": "struct NFTInfo[]",
          "name": "nftInfos",
          "type": "tuple[]"
        },
        {
          "internalType": "uint256",
          "name": "count",
          "type": "uint256"
        }
      ],
      "stateMutability": "view",
      "type": "function",
      "constant": true
    },
    {
      "inputs": [
        {
          "internalType": "contract IBoboPair",
          "name": "_boboPair",
          "type": "address"
        },
        {
          "internalType": "address",
          "name": "_userAddr",
          "type": "address"
        },
        {
          "internalType": "uint256",
          "name": "_fromIndex",
          "type": "uint256"
        },
        {
          "internalType": "uint256",
          "name": "_pageSize",
          "type": "uint256"
        }
      ],
      "name": "getAllDealedOrders",
      "outputs": [
        {
          "components": [
            {
              "internalType": "uint256",
              "name": "id",
              "type": "uint256"
            },
            {
              "internalType": "address",
              "name": "owner",
              "type": "address"
            },
            {
              "internalType": "address",
              "name": "pairAddr",
              "type": "address"
            },
            {
              "internalType": "bool",
              "name": "bBuyQuoteToken",
              "type": "bool"
            },
            {
              "internalType": "uint256",
              "name": "spotPrice",
              "type": "uint256"
            },
            {
              "internalType": "uint256",
              "name": "inAmount",
              "type": "uint256"
            },
            {
              "internalType": "uint256",
              "name": "minOutAmount",
              "type": "uint256"
            },
            {
              "internalType": "uint256",
              "name": "outAmount",
              "type": "uint256"
            },
            {
              "internalType": "enum OrderStatus",
              "name": "status",
              "type": "uint8"
            },
            {
              "internalType": "string",
              "name": "comment",
              "type": "string"
            },
            {
              "internalType": "uint256",
              "name": "delegateTime",
              "type": "uint256"
            },
            {
              "internalType": "uint256",
              "name": "dealedTime",
              "type": "uint256"
            },
            {
              "internalType": "uint256",
              "name": "weight",
              "type": "uint256"
            }
          ],
          "internalType": "struct NFTInfo[]",
          "name": "nftInfos",
          "type": "tuple[]"
        },
        {
          "internalType": "uint256",
          "name": "count",
          "type": "uint256"
        }
      ],
      "stateMutability": "view",
      "type": "function",
      "constant": true
    },
    {
      "inputs": [
        {
          "internalType": "contract IBoboTradeMining",
          "name": "_boboTradeMining",
          "type": "address"
        },
        {
          "internalType": "address",
          "name": "_usderAddr",
          "type": "address"
        }
      ],
      "name": "getAllDepositedOrders",
      "outputs": [
        {
          "components": [
            {
              "internalType": "uint256",
              "name": "id",
              "type": "uint256"
            },
            {
              "internalType": "address",
              "name": "owner",
              "type": "address"
            },
            {
              "internalType": "address",
              "name": "pairAddr",
              "type": "address"
            },
            {
              "internalType": "bool",
              "name": "bBuyQuoteToken",
              "type": "bool"
            },
            {
              "internalType": "uint256",
              "name": "spotPrice",
              "type": "uint256"
            },
            {
              "internalType": "uint256",
              "name": "inAmount",
              "type": "uint256"
            },
            {
              "internalType": "uint256",
              "name": "minOutAmount",
              "type": "uint256"
            },
            {
              "internalType": "uint256",
              "name": "outAmount",
              "type": "uint256"
            },
            {
              "internalType": "enum OrderStatus",
              "name": "status",
              "type": "uint8"
            },
            {
              "internalType": "string",
              "name": "comment",
              "type": "string"
            },
            {
              "internalType": "uint256",
              "name": "delegateTime",
              "type": "uint256"
            },
            {
              "internalType": "uint256",
              "name": "dealedTime",
              "type": "uint256"
            },
            {
              "internalType": "uint256",
              "name": "weight",
              "type": "uint256"
            }
          ],
          "internalType": "struct NFTInfo[]",
          "name": "nftInfos",
          "type": "tuple[]"
        }
      ],
      "stateMutability": "view",
      "type": "function",
      "constant": true
    }
  ],
  "bytecode": "0x608060405234801561001057600080fd5b50611835806100206000396000f3fe608060405234801561001057600080fd5b50600436106100575760003560e01c80631077dcc11461005c578063139661f51461008757806339ac5a141461009a57806385062412146100bb578063881de76d146100db575b600080fd5b61006f61006a36600461137c565b6100ee565b60405161007e93929190611731565b60405180910390f35b61006f61009536600461137c565b610557565b6100ad6100a836600461137c565b610997565b60405161007e92919061170f565b6100ce6100c93660046113c1565b610c4e565b60405161007e91906116fc565b6100ad6100e936600461137c565b610efb565b606080600080876001600160a01b031663d4d728da6040518163ffffffff1660e01b815260040160206040518083038186803b15801561012d57600080fd5b505afa158015610141573d6000803e3d6000fd5b505050506040513d601f19601f8201168201806040525081019061016591906112c4565b90506000886001600160a01b0316632d611131896040518263ffffffff1660e01b815260040161019591906116ae565b60206040518083038186803b1580156101ad57600080fd5b505afa1580156101c1573d6000803e3d6000fd5b505050506040513d601f19601f820116820180604052508101906101e5919061150a565b9050606481116101f557806101f8565b60645b67ffffffffffffffff8111801561020e57600080fd5b50604051908082528060200260200182016040528015610238578160200160208202803683370190505b50945060648111610249578061024c565b60645b67ffffffffffffffff8111801561026257600080fd5b5060405190808252806020026020018201604052801561028c578160200160208202803683370190505b50935060005b8181101561054a57604051631b11481760e01b81526000906001600160a01b038c1690631b114817906102cb908d9086906004016116e3565b60206040518083038186803b1580156102e357600080fd5b505afa1580156102f7573d6000803e3d6000fd5b505050506040513d601f19601f8201168201806040525081019061031b919061150a565b90506103256111a5565b60405163d311636b60e01b81526001600160a01b0386169063d311636b90610351908590600401611767565b60006040518083038186803b15801561036957600080fd5b505afa15801561037d573d6000803e3d6000fd5b505050506040513d6000823e601f3d908101601f191682016040526103a591908101906113f9565b80516040516331a9108f60e11b81529192506000916001600160a01b03881691636352211e916103d89190600401611767565b60206040518083038186803b1580156103f057600080fd5b505afa158015610404573d6000803e3d6000fd5b505050506040513d601f19601f8201168201806040525081019061042891906112c4565b90506002826101000151600381111561043d57fe5b14801561045b57508b6001600160a01b0316816001600160a01b0316145b801561046c57508a82610160015110155b801561047c575089826101600151105b1561053f57815160405163d851fdfd60e01b81526000916001600160a01b0389169163d851fdfd916104b091600401611767565b60206040518083038186803b1580156104c857600080fd5b505afa1580156104dc573d6000803e3d6000fd5b505050506040513d601f19601f82011682018060405250810190610500919061150a565b905082600001518a898151811061051357fe5b6020026020010181815250508089898151811061052c57fe5b6020908102919091010152506001909601955b505050600101610292565b5050509450945094915050565b606080600080876001600160a01b031663d4d728da6040518163ffffffff1660e01b815260040160206040518083038186803b15801561059657600080fd5b505afa1580156105aa573d6000803e3d6000fd5b505050506040513d601f19601f820116820180604052508101906105ce91906112c4565b90506000886001600160a01b031663c6388845896040518263ffffffff1660e01b81526004016105fe91906116ae565b60206040518083038186803b15801561061657600080fd5b505afa15801561062a573d6000803e3d6000fd5b505050506040513d601f19601f8201168201806040525081019061064e919061150a565b90506064811161065e5780610661565b60645b67ffffffffffffffff8111801561067757600080fd5b506040519080825280602002602001820160405280156106a1578160200160208202803683370190505b509450606481116106b257806106b5565b60645b67ffffffffffffffff811180156106cb57600080fd5b506040519080825280602002602001820160405280156106f5578160200160208202803683370190505b50935060005b8181101561054a57604051638862f28560e01b81526000906001600160a01b038c1690638862f28590610734908d9086906004016116e3565b60206040518083038186803b15801561074c57600080fd5b505afa158015610760573d6000803e3d6000fd5b505050506040513d601f19601f82011682018060405250810190610784919061150a565b905061078e6111a5565b60405163d311636b60e01b81526001600160a01b0386169063d311636b906107ba908590600401611767565b60006040518083038186803b1580156107d257600080fd5b505afa1580156107e6573d6000803e3d6000fd5b505050506040513d6000823e601f3d908101601f1916820160405261080e91908101906113f9565b80516040516331a9108f60e11b81529192506000916001600160a01b03881691636352211e916108419190600401611767565b60206040518083038186803b15801561085957600080fd5b505afa15801561086d573d6000803e3d6000fd5b505050506040513d601f19601f8201168201806040525081019061089191906112c4565b90508b6001600160a01b0316816001600160a01b03161480156108b957508a82610160015110155b80156108c9575089826101600151105b1561098c57815160405163d851fdfd60e01b81526000916001600160a01b0389169163d851fdfd916108fd91600401611767565b60206040518083038186803b15801561091557600080fd5b505afa158015610929573d6000803e3d6000fd5b505050506040513d601f19601f8201168201806040525081019061094d919061150a565b905082600001518a898151811061096057fe5b6020026020010181815250508089898151811061097957fe5b6020908102919091010152506001909601955b5050506001016106fb565b6060600080866001600160a01b031663c6388845876040518263ffffffff1660e01b81526004016109c891906116ae565b60206040518083038186803b1580156109e057600080fd5b505afa1580156109f4573d6000803e3d6000fd5b505050506040513d601f19601f82011682018060405250810190610a18919061150a565b9050600181038511610c44578084860111610a335783610a37565b8481035b93508367ffffffffffffffff81118015610a5057600080fd5b50604051908082528060200260200182016040528015610a8a57816020015b610a776111a5565b815260200190600190039081610a6f5790505b5092506000876001600160a01b031663d4d728da6040518163ffffffff1660e01b815260040160206040518083038186803b158015610ac857600080fd5b505afa158015610adc573d6000803e3d6000fd5b505050506040513d601f19601f82011682018060405250810190610b0091906112c4565b9050855b858701811015610c4157604051638862f28560e01b81526000906001600160a01b038b1690638862f28590610b3f908c9086906004016116e3565b60206040518083038186803b158015610b5757600080fd5b505afa158015610b6b573d6000803e3d6000fd5b505050506040513d601f19601f82011682018060405250810190610b8f919061150a565b9050610b996111a5565b60405163d311636b60e01b81526001600160a01b0385169063d311636b90610bc5908590600401611767565b60006040518083038186803b158015610bdd57600080fd5b505afa158015610bf1573d6000803e3d6000fd5b505050506040513d6000823e601f3d908101601f19168201604052610c1991908101906113f9565b905080878781518110610c2857fe5b6020908102919091010152505060019384019301610b04565b50505b5094509492505050565b60606000836001600160a01b0316638eb7e51e846040518263ffffffff1660e01b8152600401610c7e91906116ae565b60206040518083038186803b158015610c9657600080fd5b505afa158015610caa573d6000803e3d6000fd5b505050506040513d601f19601f82011682018060405250810190610cce919061150a565b90506060846001600160a01b0316632bf258ed856000856040518463ffffffff1660e01b8152600401610d03939291906116c2565b60006040518083038186803b158015610d1b57600080fd5b505afa158015610d2f573d6000803e3d6000fd5b505050506040513d6000823e601f3d908101601f19168201604052610d5791908101906112e7565b90508167ffffffffffffffff81118015610d7057600080fd5b50604051908082528060200260200182016040528015610daa57816020015b610d976111a5565b815260200190600190039081610d8f5790505b5092506000856001600160a01b031663d06fcba86040518163ffffffff1660e01b815260040160206040518083038186803b158015610de857600080fd5b505afa158015610dfc573d6000803e3d6000fd5b505050506040513d601f19601f82011682018060405250810190610e2091906112c4565b905060005b83811015610ef1576000838281518110610e3b57fe5b60200260200101519050610e4d6111a5565b60405163d311636b60e01b81526001600160a01b0385169063d311636b90610e79908590600401611767565b60006040518083038186803b158015610e9157600080fd5b505afa158015610ea5573d6000803e3d6000fd5b505050506040513d6000823e601f3d908101601f19168201604052610ecd91908101906113f9565b905080878481518110610edc57fe5b60209081029190910101525050600101610e25565b5050505092915050565b6060600080866001600160a01b0316632d611131876040518263ffffffff1660e01b8152600401610f2c91906116ae565b60206040518083038186803b158015610f4457600080fd5b505afa158015610f58573d6000803e3d6000fd5b505050506040513d601f19601f82011682018060405250810190610f7c919061150a565b9050600181038511610c44578084860111610f975783610f9b565b8481035b93508367ffffffffffffffff81118015610fb457600080fd5b50604051908082528060200260200182016040528015610fee57816020015b610fdb6111a5565b815260200190600190039081610fd35790505b5092506000876001600160a01b031663d4d728da6040518163ffffffff1660e01b815260040160206040518083038186803b15801561102c57600080fd5b505afa158015611040573d6000803e3d6000fd5b505050506040513d601f19601f8201168201806040525081019061106491906112c4565b9050855b858701811015610c4157604051631b11481760e01b81526000906001600160a01b038b1690631b114817906110a3908c9086906004016116e3565b60206040518083038186803b1580156110bb57600080fd5b505afa1580156110cf573d6000803e3d6000fd5b505050506040513d601f19601f820116820180604052508101906110f3919061150a565b90506110fd6111a5565b60405163d311636b60e01b81526001600160a01b0385169063d311636b90611129908590600401611767565b60006040518083038186803b15801561114157600080fd5b505afa158015611155573d6000803e3d6000fd5b505050506040513d6000823e601f3d908101601f1916820160405261117d91908101906113f9565b90508087878151811061118c57fe5b6020908102919091010152505060019384019301611068565b604051806101a001604052806000815260200160006001600160a01b0316815260200160006001600160a01b03168152602001600015158152602001600081526020016000815260200160008152602001600081526020016000600381111561120a57fe5b8152602001606081526020016000815260200160008152602001600081525090565b8051611237816117e7565b92915050565b8051801515811461123757600080fd5b80516004811061123757600080fd5b600082601f83011261126c578081fd5b815167ffffffffffffffff811115611282578182fd5b611295601f8201601f1916602001611770565b91508082528360208285010111156112ac57600080fd5b6112bd8160208401602086016117b7565b5092915050565b6000602082840312156112d5578081fd5b81516112e0816117e7565b9392505050565b600060208083850312156112f9578182fd5b825167ffffffffffffffff81111561130f578283fd5b8301601f8101851361131f578283fd5b805161133261132d82611797565b611770565b818152838101908385018584028501860189101561134e578687fd5b8694505b83851015611370578051835260019490940193918501918501611352565b50979650505050505050565b60008060008060808587031215611391578283fd5b843561139c816117e7565b935060208501356113ac816117e7565b93969395505050506040820135916060013590565b600080604083850312156113d3578182fd5b82356113de816117e7565b915060208301356113ee816117e7565b809150509250929050565b60006020828403121561140a578081fd5b815167ffffffffffffffff80821115611421578283fd5b81840191506101a0808387031215611437578384fd5b61144081611770565b905082518152611453866020850161122c565b6020820152611465866040850161122c565b6040820152611477866060850161123d565b60608201526080830151608082015260a083015160a082015260c083015160c082015260e083015160e08201526101006114b38782860161124d565b9082015261012083810151838111156114ca578586fd5b6114d68882870161125c565b9183019190915250610140838101519082015261016080840151908201526101809283015192810192909252509392505050565b60006020828403121561151b578081fd5b5051919050565b6001600160a01b03169052565b6000815180845260208085018081965082840281019150828601855b8581101561162757828403895281516101a0815186528682015161157188880182611522565b5060408083015161158482890182611522565b50506060808301516115988289018261166e565b50506080828101519087015260a0808301519087015260c0808301519087015260e08083015190870152610100808301516115d582890182611674565b50506101208083015182828901526115ef83890182611682565b61014085810151908a015261016080860151908a0152610180948501519490980193909352505050978401979084019060010161154b565b5091979650505050505050565b6000815180845260208085019450808401835b8381101561166357815187529582019590820190600101611647565b509495945050505050565b15159052565b6004811061167e57fe5b9052565b6000815180845261169a8160208601602086016117b7565b601f01601f19169290920160200192915050565b6001600160a01b0391909116815260200190565b6001600160a01b039390931683526020830191909152604082015260600190565b6001600160a01b03929092168252602082015260400190565b6000602082526112e0602083018461152f565b600060408252611722604083018561152f565b90508260208301529392505050565b6000606082526117446060830186611634565b82810360208401526117568186611634565b915050826040830152949350505050565b90815260200190565b60405181810167ffffffffffffffff8111828210171561178f57600080fd5b604052919050565b600067ffffffffffffffff8211156117ad578081fd5b5060209081020190565b60005b838110156117d25781810151838201526020016117ba565b838111156117e1576000848401525b50505050565b6001600160a01b03811681146117fc57600080fd5b5056fea26469706673582212205da899a6aeb8d671369ee93c157ecb01913d08fe44b05370fefc6ebf52d202c464736f6c634300060c0033",
  "immutableReferences": {},
  "source": "// SPDX-License-Identifier: MIT\npragma solidity ^0.6.0;\npragma experimental ABIEncoderV2;\n\nimport \"./common/BasicStruct.sol\";\n\ninterface IBoboPair {\n    function getUserDealedOrderNumber(address _userAddr) view external returns(uint256);\n    function userDealedOrdersMap(address _userAddr, uint256 _index) view external returns(uint256);\n    function userOrdersMap(address _userAddr, uint256 _index) view external returns(uint256);\n    function orderNFT() view external returns(address);\n    function getUserOrderNumber(address _userAddr) view external returns(uint256);\n}\n\ninterface IBoboTradeMining {\n    function nftToken() view external returns(address);\n    function getUserNFTNumber(address _user) view external returns(uint256);\n    function getUserNFTIds(address _user, uint256 _fromIndex, uint256 _toIndex) view external returns(uint256[] memory nftIds);\n}\n\n\ncontract BoboPairHelper {\n    function getDepositableOrders(IBoboPair _boboPair, address _userAddr, uint256 _startTime, uint256 _endTime) \n        view public returns(uint256[] memory orderIds, uint256[] memory weights, uint256 count) {\n        \n        IOrderNFT orderNFT = IOrderNFT(_boboPair.orderNFT());\n        uint256 orderNumber = _boboPair.getUserDealedOrderNumber(_userAddr);\n        orderIds = new uint256[](orderNumber > 100 ? 100 : orderNumber);\n        weights = new uint256[](orderNumber > 100 ? 100 : orderNumber);\n        for (uint256 i; i < orderNumber; i++) {\n            uint256 orderId = _boboPair.userDealedOrdersMap(_userAddr, i);\n            NFTInfo memory nftInfo = orderNFT.getOrderInfo(orderId);\n            address ownerAddr = orderNFT.ownerOf(nftInfo.id);\n            if (ownerAddr == _userAddr && nftInfo.dealedTime >= _startTime && nftInfo.dealedTime < _endTime) {\n                uint256 weight = orderNFT.getWeight(nftInfo.id);\n                orderIds[count] = nftInfo.id;\n                weights[count] = weight;\n                count++;\n            }\n        }\n    }\n\n    function getDepositableOrders_old(IBoboPair _boboPair, address _userAddr, uint256 _startTime, uint256 _endTime) \n        view public returns(uint256[] memory orderIds, uint256[] memory weights, uint256 count) {\n        \n        IOrderNFT orderNFT = IOrderNFT(_boboPair.orderNFT());\n        uint256 orderNumber = _boboPair.getUserOrderNumber(_userAddr);\n        orderIds = new uint256[](orderNumber > 100 ? 100 : orderNumber);\n        weights = new uint256[](orderNumber > 100 ? 100 : orderNumber);\n        for (uint256 i; i < orderNumber; i++) {\n            uint256 orderId = _boboPair.userOrdersMap(_userAddr, i);\n            NFTInfo memory nftInfo = orderNFT.getOrderInfo(orderId);\n            address ownerAddr = orderNFT.ownerOf(nftInfo.id);   // ownerowner\n            if (nftInfo.status == OrderStatus.AMMDeal && ownerAddr == _userAddr && nftInfo.dealedTime >= _startTime && nftInfo.dealedTime < _endTime) {\n                uint256 weight = orderNFT.getWeight(nftInfo.id);\n                orderIds[count] = nftInfo.id;\n                weights[count] = weight;\n                count++;\n            }\n        }\n    }\n\n    function getAllUnhangingOrders(IBoboPair _boboPair, address _userAddr, uint256 _fromIndex, uint256 _pageSize) \n        view public returns(NFTInfo[] memory nftInfos, uint256 count) {\n        uint256 orderNumber = _boboPair.getUserOrderNumber(_userAddr);\n        if (_fromIndex <= orderNumber - 1) {\n            _pageSize = (_fromIndex + _pageSize) > orderNumber ? (orderNumber - _fromIndex) : _pageSize;\n            nftInfos = new NFTInfo[](_pageSize);\n            IOrderNFT orderNFT = IOrderNFT(_boboPair.orderNFT());\n            for (uint256 i = _fromIndex; i < _fromIndex + _pageSize; i++) {\n                uint256 orderId = _boboPair.userOrdersMap(_userAddr, i);\n                NFTInfo memory nftInfo = orderNFT.getOrderInfo(orderId);\n                nftInfos[count] = nftInfo;\n                count++;\n            } \n        }\n    }\n\n    function getAllDealedOrders(IBoboPair _boboPair, address _userAddr, uint256 _fromIndex, uint256 _pageSize) \n        view public returns(NFTInfo[] memory nftInfos, uint256 count) {\n        uint256 orderNumber = _boboPair.getUserDealedOrderNumber(_userAddr);\n\n        if (_fromIndex <= orderNumber - 1) {\n            _pageSize = (_fromIndex + _pageSize) > orderNumber ? (orderNumber - _fromIndex) : _pageSize;\n            nftInfos = new NFTInfo[](_pageSize);\n            IOrderNFT orderNFT = IOrderNFT(_boboPair.orderNFT());\n            for (uint256 i = _fromIndex; i < _fromIndex + _pageSize; i++) {\n                uint256 orderId = _boboPair.userDealedOrdersMap(_userAddr, i);\n                NFTInfo memory nftInfo = orderNFT.getOrderInfo(orderId);\n                nftInfos[count] = nftInfo;\n                count++;\n            } \n        }\n    }\n\n    function getAllDepositedOrders(IBoboTradeMining _boboTradeMining, address _usderAddr) view public returns(NFTInfo[] memory nftInfos) {\n        uint256 orderLength = _boboTradeMining.getUserNFTNumber(_usderAddr);\n        uint256[] memory orderIds = _boboTradeMining.getUserNFTIds(_usderAddr, 0, orderLength);\n        nftInfos = new NFTInfo[](orderLength);\n        IOrderNFT orderNFT = IOrderNFT(_boboTradeMining.nftToken());\n        for (uint256 i = 0; i < orderLength; i++) {\n            uint256 orderId = orderIds[i];\n            NFTInfo memory nftInfo = orderNFT.getOrderInfo(orderId);\n            nftInfos[i] = nftInfo;\n        } \n    }\n}",
  "sourcePath": "/Users/mryu/blockchain/bobo-metaverse/boboswap-contract/contracts/BoboPairHelper.sol",
  "compiler": {
    "name": "solc",
    "version": "0.6.12+commit.27d51765.Emscripten.clang"
  },
  "schemaVersion": "3.4.3",
  "updatedAt": "2021-09-13T04:13:03.958Z",
  "networkType": "ethereum",
  "devdoc": {
    "kind": "dev",
    "methods": {},
    "version": 1
  },
  "userdoc": {
    "kind": "user",
    "methods": {},
    "version": 1
  }
}