{
  "contractName": "BoboRouter",
  "abi": [
    {
      "inputs": [],
      "stateMutability": "nonpayable",
      "type": "constructor"
    },
    {
      "anonymous": false,
      "inputs": [
        {
          "indexed": true,
          "internalType": "address",
          "name": "previousOwner",
          "type": "address"
        },
        {
          "indexed": true,
          "internalType": "address",
          "name": "newOwner",
          "type": "address"
        }
      ],
      "name": "OwnershipTransferred",
      "type": "event"
    },
    {
      "inputs": [],
      "name": "BaseRate",
      "outputs": [
        {
          "internalType": "uint256",
          "name": "",
          "type": "uint256"
        }
      ],
      "stateMutability": "view",
      "type": "function",
      "constant": true
    },
    {
      "inputs": [],
      "name": "FACTOR",
      "outputs": [
        {
          "internalType": "uint256",
          "name": "",
          "type": "uint256"
        }
      ],
      "stateMutability": "view",
      "type": "function",
      "constant": true
    },
    {
      "inputs": [],
      "name": "MinLiquidityValue",
      "outputs": [
        {
          "internalType": "uint256",
          "name": "",
          "type": "uint256"
        }
      ],
      "stateMutability": "view",
      "type": "function",
      "constant": true
    },
    {
      "inputs": [],
      "name": "QUICK",
      "outputs": [
        {
          "internalType": "address",
          "name": "",
          "type": "address"
        }
      ],
      "stateMutability": "view",
      "type": "function",
      "constant": true
    },
    {
      "inputs": [],
      "name": "USDC",
      "outputs": [
        {
          "internalType": "address",
          "name": "",
          "type": "address"
        }
      ],
      "stateMutability": "view",
      "type": "function",
      "constant": true
    },
    {
      "inputs": [],
      "name": "USDT",
      "outputs": [
        {
          "internalType": "address",
          "name": "",
          "type": "address"
        }
      ],
      "stateMutability": "view",
      "type": "function",
      "constant": true
    },
    {
      "inputs": [],
      "name": "WETH",
      "outputs": [
        {
          "internalType": "address",
          "name": "",
          "type": "address"
        }
      ],
      "stateMutability": "view",
      "type": "function",
      "constant": true
    },
    {
      "inputs": [],
      "name": "WMATIC",
      "outputs": [
        {
          "internalType": "address",
          "name": "",
          "type": "address"
        }
      ],
      "stateMutability": "view",
      "type": "function",
      "constant": true
    },
    {
      "inputs": [],
      "name": "burnAddress",
      "outputs": [
        {
          "internalType": "address",
          "name": "",
          "type": "address"
        }
      ],
      "stateMutability": "view",
      "type": "function",
      "constant": true
    },
    {
      "inputs": [],
      "name": "feeRate",
      "outputs": [
        {
          "internalType": "uint256",
          "name": "",
          "type": "uint256"
        }
      ],
      "stateMutability": "view",
      "type": "function",
      "constant": true
    },
    {
      "inputs": [
        {
          "internalType": "uint256",
          "name": "",
          "type": "uint256"
        }
      ],
      "name": "middleTokens",
      "outputs": [
        {
          "internalType": "address",
          "name": "",
          "type": "address"
        }
      ],
      "stateMutability": "view",
      "type": "function",
      "constant": true
    },
    {
      "inputs": [],
      "name": "owner",
      "outputs": [
        {
          "internalType": "address",
          "name": "",
          "type": "address"
        }
      ],
      "stateMutability": "view",
      "type": "function",
      "constant": true
    },
    {
      "inputs": [],
      "name": "quickSwapFactory",
      "outputs": [
        {
          "internalType": "address",
          "name": "",
          "type": "address"
        }
      ],
      "stateMutability": "view",
      "type": "function",
      "constant": true
    },
    {
      "inputs": [],
      "name": "quickSwapRouter",
      "outputs": [
        {
          "internalType": "address",
          "name": "",
          "type": "address"
        }
      ],
      "stateMutability": "view",
      "type": "function",
      "constant": true
    },
    {
      "inputs": [],
      "name": "renounceOwnership",
      "outputs": [],
      "stateMutability": "nonpayable",
      "type": "function"
    },
    {
      "inputs": [],
      "name": "sushiSwapFactory",
      "outputs": [
        {
          "internalType": "address",
          "name": "",
          "type": "address"
        }
      ],
      "stateMutability": "view",
      "type": "function",
      "constant": true
    },
    {
      "inputs": [],
      "name": "sushiSwapRouter",
      "outputs": [
        {
          "internalType": "address",
          "name": "",
          "type": "address"
        }
      ],
      "stateMutability": "view",
      "type": "function",
      "constant": true
    },
    {
      "inputs": [
        {
          "internalType": "address",
          "name": "",
          "type": "address"
        }
      ],
      "name": "tokenAggregatorMap",
      "outputs": [
        {
          "internalType": "contract AggregatorV3Interface",
          "name": "",
          "type": "address"
        }
      ],
      "stateMutability": "view",
      "type": "function",
      "constant": true
    },
    {
      "inputs": [
        {
          "internalType": "address",
          "name": "newOwner",
          "type": "address"
        }
      ],
      "name": "transferOwnership",
      "outputs": [],
      "stateMutability": "nonpayable",
      "type": "function"
    },
    {
      "inputs": [
        {
          "internalType": "address",
          "name": "_middleToken",
          "type": "address"
        },
        {
          "internalType": "address",
          "name": "_aggregator",
          "type": "address"
        }
      ],
      "name": "addMiddleTokenAndAggregator",
      "outputs": [],
      "stateMutability": "nonpayable",
      "type": "function"
    },
    {
      "inputs": [
        {
          "internalType": "address",
          "name": "token",
          "type": "address"
        }
      ],
      "name": "isUToken",
      "outputs": [
        {
          "internalType": "bool",
          "name": "",
          "type": "bool"
        }
      ],
      "stateMutability": "pure",
      "type": "function",
      "constant": true
    },
    {
      "inputs": [
        {
          "internalType": "address",
          "name": "baseToken",
          "type": "address"
        }
      ],
      "name": "getBaseTokenPriceOnQuickSwap",
      "outputs": [
        {
          "internalType": "uint256",
          "name": "",
          "type": "uint256"
        }
      ],
      "stateMutability": "view",
      "type": "function",
      "constant": true
    },
    {
      "inputs": [
        {
          "internalType": "address",
          "name": "baseToken",
          "type": "address"
        }
      ],
      "name": "getBaseTokenPriceOnChainlink",
      "outputs": [
        {
          "internalType": "uint256",
          "name": "",
          "type": "uint256"
        }
      ],
      "stateMutability": "view",
      "type": "function",
      "constant": true
    },
    {
      "inputs": [
        {
          "internalType": "address",
          "name": "factoryAddr",
          "type": "address"
        },
        {
          "internalType": "address",
          "name": "token0",
          "type": "address"
        },
        {
          "internalType": "address",
          "name": "token1",
          "type": "address"
        }
      ],
      "name": "getReserves",
      "outputs": [
        {
          "internalType": "uint256",
          "name": "",
          "type": "uint256"
        },
        {
          "internalType": "uint256",
          "name": "",
          "type": "uint256"
        }
      ],
      "stateMutability": "view",
      "type": "function",
      "constant": true
    },
    {
      "inputs": [
        {
          "internalType": "address",
          "name": "factoryAddr",
          "type": "address"
        },
        {
          "internalType": "address[]",
          "name": "path",
          "type": "address[]"
        }
      ],
      "name": "getMinUValue",
      "outputs": [
        {
          "internalType": "uint256",
          "name": "",
          "type": "uint256"
        }
      ],
      "stateMutability": "view",
      "type": "function",
      "constant": true
    },
    {
      "inputs": [
        {
          "internalType": "address",
          "name": "factoryAddr",
          "type": "address"
        },
        {
          "internalType": "address",
          "name": "inToken",
          "type": "address"
        },
        {
          "internalType": "address",
          "name": "outToken",
          "type": "address"
        }
      ],
      "name": "getPaths",
      "outputs": [
        {
          "components": [
            {
              "internalType": "address[]",
              "name": "tokens",
              "type": "address[]"
            },
            {
              "internalType": "uint256[]",
              "name": "minUValues",
              "type": "uint256[]"
            },
            {
              "internalType": "uint256",
              "name": "pathCount",
              "type": "uint256"
            }
          ],
          "internalType": "struct BoboRouter.PathsInfo",
          "name": "pathsInfo",
          "type": "tuple"
        }
      ],
      "stateMutability": "view",
      "type": "function",
      "constant": true
    },
    {
      "inputs": [
        {
          "internalType": "address",
          "name": "inToken",
          "type": "address"
        },
        {
          "internalType": "address",
          "name": "outToken",
          "type": "address"
        }
      ],
      "name": "caculateTotalLiquidity",
      "outputs": [
        {
          "internalType": "uint256",
          "name": "totalULiquidity",
          "type": "uint256"
        }
      ],
      "stateMutability": "view",
      "type": "function",
      "constant": true
    },
    {
      "inputs": [
        {
          "internalType": "address",
          "name": "inToken",
          "type": "address"
        },
        {
          "internalType": "address",
          "name": "outToken",
          "type": "address"
        },
        {
          "internalType": "uint256",
          "name": "amountIn",
          "type": "uint256"
        }
      ],
      "name": "getBestSwapPath",
      "outputs": [
        {
          "internalType": "uint256[]",
          "name": "amountsOut",
          "type": "uint256[]"
        },
        {
          "components": [
            {
              "internalType": "uint256",
              "name": "totalAmountOut",
              "type": "uint256"
            },
            {
              "internalType": "uint256",
              "name": "totalULiquidity",
              "type": "uint256"
            },
            {
              "internalType": "enum SwapPool[]",
              "name": "swapPools",
              "type": "uint8[]"
            },
            {
              "internalType": "address[]",
              "name": "middleTokens",
              "type": "address[]"
            },
            {
              "internalType": "uint256[]",
              "name": "partialAmountIns",
              "type": "uint256[]"
            },
            {
              "internalType": "uint256[]",
              "name": "partialAmountOuts",
              "type": "uint256[]"
            }
          ],
          "internalType": "struct ResultInfo",
          "name": "bestResultInfo",
          "type": "tuple"
        }
      ],
      "stateMutability": "view",
      "type": "function",
      "constant": true
    },
    {
      "inputs": [
        {
          "internalType": "address",
          "name": "dexFactory",
          "type": "address"
        },
        {
          "internalType": "address",
          "name": "inToken",
          "type": "address"
        },
        {
          "internalType": "address",
          "name": "outToken",
          "type": "address"
        },
        {
          "internalType": "uint256",
          "name": "amountIn",
          "type": "uint256"
        }
      ],
      "name": "caculateOneDexAmountOut",
      "outputs": [
        {
          "components": [
            {
              "internalType": "uint256",
              "name": "totalAmountOut",
              "type": "uint256"
            },
            {
              "internalType": "uint256",
              "name": "totalULiquidity",
              "type": "uint256"
            },
            {
              "internalType": "enum SwapPool[]",
              "name": "swapPools",
              "type": "uint8[]"
            },
            {
              "internalType": "address[]",
              "name": "middleTokens",
              "type": "address[]"
            },
            {
              "internalType": "uint256[]",
              "name": "partialAmountIns",
              "type": "uint256[]"
            },
            {
              "internalType": "uint256[]",
              "name": "partialAmountOuts",
              "type": "uint256[]"
            }
          ],
          "internalType": "struct ResultInfo",
          "name": "resultInfo",
          "type": "tuple"
        }
      ],
      "stateMutability": "view",
      "type": "function",
      "constant": true
    },
    {
      "inputs": [
        {
          "internalType": "address",
          "name": "inToken",
          "type": "address"
        },
        {
          "internalType": "address",
          "name": "outToken",
          "type": "address"
        },
        {
          "internalType": "uint256",
          "name": "amountIn",
          "type": "uint256"
        }
      ],
      "name": "caculateAmountOut",
      "outputs": [
        {
          "components": [
            {
              "internalType": "uint256",
              "name": "totalAmountOut",
              "type": "uint256"
            },
            {
              "internalType": "uint256",
              "name": "totalULiquidity",
              "type": "uint256"
            },
            {
              "internalType": "enum SwapPool[]",
              "name": "swapPools",
              "type": "uint8[]"
            },
            {
              "internalType": "address[]",
              "name": "middleTokens",
              "type": "address[]"
            },
            {
              "internalType": "uint256[]",
              "name": "partialAmountIns",
              "type": "uint256[]"
            },
            {
              "internalType": "uint256[]",
              "name": "partialAmountOuts",
              "type": "uint256[]"
            }
          ],
          "internalType": "struct ResultInfo",
          "name": "resultInfo",
          "type": "tuple"
        }
      ],
      "stateMutability": "view",
      "type": "function",
      "constant": true
    },
    {
      "inputs": [
        {
          "internalType": "address",
          "name": "routerAddr",
          "type": "address"
        },
        {
          "internalType": "uint256",
          "name": "partialAmountIn",
          "type": "uint256"
        },
        {
          "internalType": "address[]",
          "name": "path",
          "type": "address[]"
        }
      ],
      "name": "getAmountOut",
      "outputs": [
        {
          "internalType": "uint256",
          "name": "",
          "type": "uint256"
        }
      ],
      "stateMutability": "view",
      "type": "function",
      "constant": true
    },
    {
      "inputs": [
        {
          "internalType": "address",
          "name": "_inToken",
          "type": "address"
        },
        {
          "internalType": "address",
          "name": "_outToken",
          "type": "address"
        },
        {
          "internalType": "uint256",
          "name": "_amountIn",
          "type": "uint256"
        },
        {
          "internalType": "uint256",
          "name": "_minAmountOut",
          "type": "uint256"
        },
        {
          "internalType": "address",
          "name": "_orderOwner",
          "type": "address"
        }
      ],
      "name": "swap",
      "outputs": [],
      "stateMutability": "nonpayable",
      "type": "function"
    },
    {
      "inputs": [
        {
          "internalType": "address",
          "name": "_tokenAddr",
          "type": "address"
        }
      ],
      "name": "withdrawToken",
      "outputs": [],
      "stateMutability": "nonpayable",
      "type": "function"
    },
    {
      "inputs": [
        {
          "internalType": "uint256",
          "name": "_feeRate",
          "type": "uint256"
        }
      ],
      "name": "setFeeRate",
      "outputs": [],
      "stateMutability": "nonpayable",
      "type": "function"
    }
  ],
  "bytecode": "0x600180546001600160a01b031990811673ab594600376ec9fd91f8e885dadf0ce036862de01790915560028054821673f9680d99d6c9589e2a93a78a04a279e5092059451790556003805490911673a058689f4bca95208bba3f265674ae95ded75b6d17905561012060405273c2132d05d31c914a87c6611c10748aeb04b58e8f6080908152732791bca1f2de4661ed88a30c99a7a9449aa8417460a052730d500b1d8e8ef31e21c99d1db9a6444d3adf127060c052737ceb23fd6bc0add59e62ac25578270cff1b9f61960e05273831753dd7087cac61ab5644b308642cc1c33dc1361010052620000f5906005908162000231565b5064174876e80060065560006007553480156200011157600080fd5b5060006200011e6200022d565b600080546001600160a01b0319166001600160a01b0383169081178255604051929350917f8be0079c531659141344cd1fd0a4f28419497f9722a3daafe3b4186f6b6457e0908290a35060015460046020527f3e73a25e817bd097e8eaf0ac0076d088e058dae47a20d23b0f0cc945791a958880546001600160a01b039283166001600160a01b0319918216179091556002547f69bc9a80c51a557b6c5a4b7c71ffdcd97cc91b2bda5dc1b0da50dd9e6ab21239805491841691831691909117905560035473831753dd7087cac61ab5644b308642cc1c33dc136000527ff6c959ba81b256722d06d46dc94fe0d026c415fad43d9958cfce683b0cfefdb78054919093169116179055620002bc565b3390565b82805482825590600052602060002090810192821562000289579160200282015b828111156200028957825182546001600160a01b0319166001600160a01b0390911617825560209092019160019091019062000252565b50620002979291506200029b565b5090565b5b80821115620002975780546001600160a01b03191681556001016200029c565b6137a180620002cc6000396000f3fe608060405234801561001057600080fd5b50600436106102065760003560e01c8063715018a61161011a578063b1b125ad116100ad578063e189eb421161007c578063e189eb42146103f3578063e476916a146103fb578063f11aa0251461040e578063f2fde38b1461042e578063fd829a231461044157610206565b8063b1b125ad146103bd578063c54e44eb146103d0578063d2553ca6146103d8578063d5bcb9b5146103e057610206565b80638b220bb2116100e95780638b220bb2146103925780638da5cb5b146103a5578063978bbdb9146103ad578063ad5c4648146103b557610206565b8063715018a61461036757806386ea54fe1461036f578063894760691461037757806389a302711461038a57610206565b806335815b951161019d578063586ee0e61161016c578063586ee0e6146103115780635f810cd9146103245780636809c6a01461032c5780636d6a85831461033f57806370d5ae051461035f57610206565b806335815b95146102db57806345596e2e146102e35780634923d412146102f65780634d95cad91461030957610206565b80632521f502116101d95780632521f5021461028a57806327c4f8451461029d5780632ff0cab3146102a557806332749461146102ba57610206565b8063064e91671461020b57806313684f181461023457806316ed6ef014610255578063188672a014610275575b600080fd5b61021e610219366004612e70565b610449565b60405161022b9190613683565b60405180910390f35b610247610242366004612f7a565b61074e565b60405161022b9291906133ff565b610268610263366004612f2a565b6108fc565b60405161022b9190613670565b61027d610de2565b60405161022b9190613394565b61027d6102983660046131b6565b610dfa565b61021e610e21565b6102b86102b3366004612ea8565b610e27565b005b6102cd6102c8366004612ee0565b610f04565b60405161022b9291906136ad565b61021e611035565b6102b86102f13660046131b6565b61103d565b61021e610304366004613018565b611077565b61027d611366565b61027d61031f366004612e70565b61137e565b61027d611399565b61021e61033a366004612ea8565b6113b1565b61035261034d366004612e70565b611571565b60405161022b9190613424565b61027d6115bf565b6102b86115c5565b61021e611644565b6102b8610385366004612e70565b61164a565b61027d611778565b6102686103a0366004612f7a565b611790565b61027d611f63565b61021e611f72565b61027d611f78565b61021e6103cb366004612e70565b611f90565b61027d612029565b61027d612041565b6102b86103ee366004612fba565b612059565b61027d612155565b61021e610409366004613066565b61216d565b61042161041c366004612ee0565b612217565b60405161022b9190613620565b6102b861043c366004612e70565b6124c3565b61027d612579565b6000806001600160a01b038316732791bca1f2de4661ed88a30c99a7a9449aa841741061048b5782732791bca1f2de4661ed88a30c99a7a9449aa841746104a2565b732791bca1f2de4661ed88a30c99a7a9449aa84174835b5060405163e6a4390560e01b8152909150600090735757371414417b8c6caad45baef941abc7d3ab329063e6a43905906104f690732791bca1f2de4661ed88a30c99a7a9449aa841749088906004016133e5565b60206040518083038186803b15801561050e57600080fd5b505afa158015610522573d6000803e3d6000fd5b505050506040513d601f19601f820116820180604052508101906105469190612e8c565b9050600080826001600160a01b0316630902f1ac6040518163ffffffff1660e01b815260040160606040518083038186803b15801561058457600080fd5b505afa158015610598573d6000803e3d6000fd5b505050506040513d601f19601f820116820180604052508101906105bc919061316d565b506001600160701b031691506001600160701b031691506000866001600160a01b031663313ce5676040518163ffffffff1660e01b815260040160206040518083038186803b15801561060e57600080fd5b505afa158015610622573d6000803e3d6000fd5b505050506040513d601f19601f820116820180604052508101906106469190613237565b60ff1690506000732791bca1f2de4661ed88a30c99a7a9449aa841746001600160a01b031663313ce5676040518163ffffffff1660e01b815260040160206040518083038186803b15801561069a57600080fd5b505afa1580156106ae573d6000803e3d6000fd5b505050506040513d601f19601f820116820180604052508101906106d29190613237565b60ff16820390506001600160a01b038616732791bca1f2de4661ed88a30c99a7a9449aa8417414610728576107238461071d600a84900a610717876305f5e100612591565b90612591565b906125d2565b610742565b6107428361071d600a84900a610717886305f5e100612591565b98975050505050505050565b6060610758612d88565b6040805160038082526080820190925290602082016060803683375050604080516002808252606080830184529496509092509060208301908036833701905050905085816000815181106107a957fe5b60200260200101906001600160a01b031690816001600160a01b03168152505084816001815181106107d757fe5b60200260200101906001600160a01b031690816001600160a01b0316815250506000610801612d88565b610821735757371414417b8c6caad45baef941abc7d3ab328989896108fc565b905080600001518560008151811061083557fe5b602090810291909101015280518210156108525780519093509050825b61085a612d88565b61087a73c35dadb65012ec5796536bd9864ed8773abc74c48a8a8a6108fc565b905080600001518660018151811061088e57fe5b602090810291909101015280518310156108ab5780519094509150835b6108b3612d88565b6108be8a8a8a611790565b90508060000151876002815181106108d257fe5b602090810291909101015280518410156108ef5780519095509250845b5050505050935093915050565b610904612d88565b61090c612dbe565b610917868686612217565b604080516002808252606080830184529394509091602083019080368337019050509050858160008151811061094957fe5b60200260200101906001600160a01b031690816001600160a01b031681525050848160018151811061097757fe5b60200260200101906001600160a01b031690816001600160a01b03168152505060006109a38883611077565b905060006006548211156109be576109bb8183612614565b90505b60005b8460400151811015610a01576109f7856020015182815181106109e057fe5b60200260200101518361261490919063ffffffff16565b91506001016109c1565b5060408051600480825260a08201909252600091829190602082016080803683375050506040888101919091528051600480825260a082019092529060208201608080368337505050606088015260408051600480825260a08201909252906020820160808036833701905050608088015260408051600480825260a082019092529081602001602082028036833750505060a0880152600080735757371414417b8c6caad45baef941abc7d3ab326001600160a01b038e1614610ad957731b02da8cb0d097eb8d57a175b88c7d8b47997506610aef565b73a5e0829caced8ffdd4de3c43696c57f7d7a678ff5b905060006001600160a01b038e16735757371414417b8c6caad45baef941abc7d3ab3214610b1e576005610b21565b60075b9050600654871115610c0057610b3b8661071d898e612591565b94506000610b4a83878b61216d565b9050818b604001518581518110610b5d57fe5b60200260200101906007811115610b7057fe5b90816007811115610b7d57fe5b8152505060008b606001518581518110610b9357fe5b60200260200101906001600160a01b031690816001600160a01b031681525050858b608001518581518110610bc457fe5b602002602001018181525050808b60a001518581518110610be157fe5b6020908102919091010152610bf68582612614565b9450506001909201915b6040805160038082526080820190925260609160208201838036833701905050905060005b8a60400151811015610dc8578e82600081518110610c3f57fe5b6001600160a01b03909216602092830291909101909101528a51805182908110610c6557fe5b602002602001015182600181518110610c7a57fe5b60200260200101906001600160a01b031690816001600160a01b0316815250508d82600281518110610ca857fe5b60200260200101906001600160a01b031690816001600160a01b031681525050878d8c602001518381518110610cda57fe5b60200260200101510281610cea57fe5b0496506000610cfa85898561216d565b9050838d604001518781518110610d0d57fe5b60200260200101906007811115610d2057fe5b90816007811115610d2d57fe5b9052508b51805183908110610d3e57fe5b60200260200101518d606001518781518110610d5657fe5b60200260200101906001600160a01b031690816001600160a01b031681525050878d608001518781518110610d8757fe5b602002602001018181525050808d60a001518781518110610da457fe5b6020908102919091010152610db98782612614565b96505060019485019401610c25565b505050918852505050602085015250919695505050505050565b73831753dd7087cac61ab5644b308642cc1c33dc1381565b60058181548110610e0757fe5b6000918252602090912001546001600160a01b0316905081565b61271081565b610e2f612639565b6000546001600160a01b03908116911614610e655760405162461bcd60e51b8152600401610e5c906135b4565b60405180910390fd5b6001600160a01b038281166000908152600460205260409020541615610e9d5760405162461bcd60e51b8152600401610e5c906135e9565b60058054600181019091557f036b6384b5eca791c62761152d0c79bb0604c104a5fb6f4eb0703f3154bb3db00180546001600160a01b039384166001600160a01b031991821681179092556000918252600460205260409091208054929093169116179055565b6000806000856001600160a01b031663e6a4390586866040518363ffffffff1660e01b8152600401610f379291906133e5565b60206040518083038186803b158015610f4f57600080fd5b505afa158015610f63573d6000803e3d6000fd5b505050506040513d601f19601f82011682018060405250810190610f879190612e8c565b90506001600160a01b038116610fa457600080925092505061102d565b600080826001600160a01b0316630902f1ac6040518163ffffffff1660e01b815260040160606040518083038186803b158015610fe057600080fd5b505afa158015610ff4573d6000803e3d6000fd5b505050506040513d601f19601f82011682018060405250810190611018919061316d565b506001600160701b0391821696501693505050505b935093915050565b6305f5e10081565b611045612639565b6000546001600160a01b039081169116146110725760405162461bcd60e51b8152600401610e5c906135b4565b600755565b6000600019815b600184510381101561135c57600080600086846001018151811061109e57fe5b60200260200101516001600160a01b03168785815181106110bb57fe5b60200260200101516001600160a01b031610611101578684600101815181106110e057fe5b60200260200101518785815181106110f457fe5b602002602001015161112d565b86848151811061110d57fe5b602002602001015187856001018151811061112457fe5b60200260200101515b9150915060008061113f8a8585610f04565b9150915061114c84611571565b156111595781945061133f565b61116283611571565b1561116f5780945061133f565b6001600160a01b03848116600090815260046020526040812054909182911661119957848361119c565b85845b9150915060006111ab83610449565b905060006111b884611f90565b90506000818311156111df576111d88261071d6103e8610717878461263d565b90506111f6565b6111f38361071d6103e8610717868461263d565b90505b60648111156112175760405162461bcd60e51b8152600401610e5c906134ff565b6000856001600160a01b031663313ce5676040518163ffffffff1660e01b815260040160206040518083038186803b15801561125257600080fd5b505afa158015611266573d6000803e3d6000fd5b505050506040513d601f19601f8201168201806040525081019061128a9190613237565b60ff1690506000732791bca1f2de4661ed88a30c99a7a9449aa841746001600160a01b031663313ce5676040518163ffffffff1660e01b815260040160206040518083038186803b1580156112de57600080fd5b505afa1580156112f2573d6000803e3d6000fd5b505050506040513d601f19601f820116820180604052508101906113169190613237565b60ff1682039050611335600a82900a61071d6305f5e10081888b612591565b9b50505050505050505b8487111561134b578496505b50506001909301925061107e915050565b5090505b92915050565b730d500b1d8e8ef31e21c99d1db9a6444d3adf127081565b6004602052600090815260409020546001600160a01b031681565b73c35dadb65012ec5796536bd9864ed8773abc74c481565b60006113bb612dbe565b6113da735757371414417b8c6caad45baef941abc7d3ab328585612217565b90506113e4612dbe565b61140373c35dadb65012ec5796536bd9864ed8773abc74c48686612217565b604080516002808252606080830184529394509091602083019080368337019050509050858160008151811061143557fe5b60200260200101906001600160a01b031690816001600160a01b031681525050848160018151811061146357fe5b60200260200101906001600160a01b031690816001600160a01b03168152505060006114a3735757371414417b8c6caad45baef941abc7d3ab3283611077565b905060006114c573c35dadb65012ec5796536bd9864ed8773abc74c484611077565b90506006548211156114de576114db8683612614565b95505b6006548111156114f5576114f28682612614565b95505b60005b85604001518110156115385761152e8660200151828151811061151757fe5b60200260200101518861261490919063ffffffff16565b96506001016114f8565b5060005b84604001518110156115655761155b8560200151828151811061151757fe5b965060010161153c565b50610742866002612591565b60006001600160a01b03821673c2132d05d31c914a87c6611c10748aeb04b58e8f148061136057506001600160a01b038216732791bca1f2de4661ed88a30c99a7a9449aa841741492915050565b61dead81565b6115cd612639565b6000546001600160a01b039081169116146115fa5760405162461bcd60e51b8152600401610e5c906135b4565b600080546040516001600160a01b03909116907f8be0079c531659141344cd1fd0a4f28419497f9722a3daafe3b4186f6b6457e0908390a3600080546001600160a01b0319169055565b60065481565b611652612639565b6000546001600160a01b0390811691161461167f5760405162461bcd60e51b8152600401610e5c906135b4565b6040516370a0823160e01b81526001600160a01b0382169063a9059cbb90339083906370a08231906116b5903090600401613394565b60206040518083038186803b1580156116cd57600080fd5b505afa1580156116e1573d6000803e3d6000fd5b505050506040513d601f19601f8201168201806040525081019061170591906131ce565b6040518363ffffffff1660e01b81526004016117229291906133cc565b602060405180830381600087803b15801561173c57600080fd5b505af1158015611750573d6000803e3d6000fd5b505050506040513d601f19601f82011682018060405250810190611774919061314d565b5050565b732791bca1f2de4661ed88a30c99a7a9449aa8417481565b611798612d88565b6117a0612dbe565b6117bf735757371414417b8c6caad45baef941abc7d3ab328686612217565b90506117c9612dbe565b6117e873c35dadb65012ec5796536bd9864ed8773abc74c48787612217565b604080516002808252606080830184529394509091602083019080368337019050509050868160008151811061181a57fe5b60200260200101906001600160a01b031690816001600160a01b031681525050858160018151811061184857fe5b60200260200101906001600160a01b031690816001600160a01b0316815250506000611888735757371414417b8c6caad45baef941abc7d3ab3283611077565b905060006118aa73c35dadb65012ec5796536bd9864ed8773abc74c484611077565b905060006006548311156118c5576118c28184612614565b90505b6006548211156118dc576118d98183612614565b90505b60005b8660400151811015611908576118fe876020015182815181106109e057fe5b91506001016118df565b5060005b85604001518110156119355761192b866020015182815181106109e057fe5b915060010161190c565b5060408051600a8082526101608201909252600091829190602082016101408036833750505060408a8101919091528051600a808252610160820190925290602082016101408036833750505060608a015260408051600a808252610160820190925290602082016101408036833750505060808a015260408051600a808252610160820190925290602082016101408036833750505060a08a0152600654600090861115611ac3576119ec8461071d888e612591565b92506000611a0f73a5e0829caced8ffdd4de3c43696c57f7d7a678ff858a61216d565b905060078b604001518381518110611a2357fe5b60200260200101906007811115611a3657fe5b90816007811115611a4357fe5b8152505060008b606001518381518110611a5957fe5b60200260200101906001600160a01b031690816001600160a01b031681525050838b608001518381518110611a8a57fe5b602002602001018181525050808b60a001518381518110611aa757fe5b6020908102919091010152611abc8382612614565b9250506001015b600654851115611bb257611adb8461071d878e612591565b92506000611afe731b02da8cb0d097eb8d57a175b88c7d8b47997506858a61216d565b905060058b604001518381518110611b1257fe5b60200260200101906007811115611b2557fe5b90816007811115611b3257fe5b8152505060008b606001518381518110611b4857fe5b60200260200101906001600160a01b031690816001600160a01b031681525050838b608001518381518110611b7957fe5b602002602001018181525050808b60a001518381518110611b9657fe5b6020908102919091010152611bab8382612614565b9250506001015b6040805160038082526080820190925260609160208201838036833701905050905060005b8a60400151811015611d8f578e82600081518110611bf157fe5b6001600160a01b03909216602092830291909101909101528a51805182908110611c1757fe5b602002602001015182600181518110611c2c57fe5b60200260200101906001600160a01b031690816001600160a01b0316815250508d82600281518110611c5a57fe5b60200260200101906001600160a01b031690816001600160a01b031681525050858d8c602001518381518110611c8c57fe5b60200260200101510281611c9c57fe5b0494506000611cc073a5e0829caced8ffdd4de3c43696c57f7d7a678ff878561216d565b905060078d604001518581518110611cd457fe5b60200260200101906007811115611ce757fe5b90816007811115611cf457fe5b9052508b51805183908110611d0557fe5b60200260200101518d606001518581518110611d1d57fe5b60200260200101906001600160a01b031690816001600160a01b031681525050858d608001518581518110611d4e57fe5b602002602001018181525050808d60a001518581518110611d6b57fe5b6020908102919091010152611d808582612614565b94505060019283019201611bd7565b5060005b8960400151811015611f4b578e82600081518110611dad57fe5b6001600160a01b03909216602092830291909101909101528951805182908110611dd357fe5b602002602001015182600181518110611de857fe5b60200260200101906001600160a01b031690816001600160a01b0316815250508d82600281518110611e1657fe5b60200260200101906001600160a01b031690816001600160a01b031681525050858d8b602001518381518110611e4857fe5b60200260200101510281611e5857fe5b0494506000611e7c731b02da8cb0d097eb8d57a175b88c7d8b47997506878561216d565b905060058d604001518581518110611e9057fe5b60200260200101906007811115611ea357fe5b90816007811115611eb057fe5b9052508a51805183908110611ec157fe5b60200260200101518d606001518581518110611ed957fe5b60200260200101906001600160a01b031690816001600160a01b031681525050858d608001518581518110611f0a57fe5b602002602001018181525050808d60a001518581518110611f2757fe5b6020908102919091010152611f3c8582612614565b94505060019283019201611d93565b50505088525060208701525093979650505050505050565b6000546001600160a01b031690565b60075481565b737ceb23fd6bc0add59e62ac25578270cff1b9f61981565b6001600160a01b038082166000908152600460208190526040808320548151633fabe5a360e21b81529151939416928492849263feaf968c928183019260a092829003018186803b158015611fe457600080fd5b505afa158015611ff8573d6000803e3d6000fd5b505050506040513d601f19601f8201168201806040525081019061201c91906131e6565b5091979650505050505050565b73c2132d05d31c914a87c6611c10748aeb04b58e8f81565b735757371414417b8c6caad45baef941abc7d3ab3281565b612061612d88565b61206c86868661074e565b9150508281600001511015612081575061214e565b600061208f8288888861267f565b905060006120b261271061071d600754610717898761263d90919063ffffffff16565b90506001600160a01b03871663a9059cbb336120ce858561263d565b6040518363ffffffff1660e01b81526004016120eb9291906133cc565b602060405180830381600087803b15801561210557600080fd5b505af1158015612119573d6000803e3d6000fd5b505050506040513d601f19601f8201168201806040525081019061213d919061314d565b50612149600885612bd4565b505050505b5050505050565b73a5e0829caced8ffdd4de3c43696c57f7d7a678ff81565b60006060846001600160a01b031663d06ca61f85856040518363ffffffff1660e01b815260040161219f92919061368c565b60006040518083038186803b1580156121b757600080fd5b505afa1580156121cb573d6000803e3d6000fd5b505050506040513d6000823e601f3d908101601f191682016040526121f391908101906130bd565b90508060018451038151811061220557fe5b60200260200101519150509392505050565b61221f612dbe565b604051806060016040528060058054905067ffffffffffffffff8111801561224657600080fd5b50604051908082528060200260200182016040528015612270578160200160208202803683370190505b50815260200160058054905067ffffffffffffffff8111801561229257600080fd5b506040519080825280602002602001820160405280156122bc578160200160208202803683370190505b5081526020016000815250905060005b6005548110156124bb57836001600160a01b0316600582815481106122ed57fe5b6000918252602090912001546001600160a01b031614806123375750826001600160a01b03166005828154811061232057fe5b6000918252602090912001546001600160a01b0316145b15612341576124b3565b60408051600380825260808201909252606091602082018380368337019050509050848160008151811061237157fe5b60200260200101906001600160a01b031690816001600160a01b0316815250506005828154811061239e57fe5b9060005260206000200160009054906101000a90046001600160a01b0316816001815181106123c957fe5b60200260200101906001600160a01b031690816001600160a01b03168152505083816002815181106123f757fe5b60200260200101906001600160a01b031690816001600160a01b03168152505060006124238783611077565b905060065481106124b0576005838154811061243b57fe5b6000918252602090912001548451604086015181516001600160a01b0390931692811061246457fe5b60200260200101906001600160a01b031690816001600160a01b03168152505080846020015185604001518151811061249957fe5b602090810291909101015260408401805160010190525b50505b6001016122cc565b509392505050565b6124cb612639565b6000546001600160a01b039081169116146124f85760405162461bcd60e51b8152600401610e5c906135b4565b6001600160a01b03811661251e5760405162461bcd60e51b8152600401610e5c90613482565b600080546040516001600160a01b03808516939216917f8be0079c531659141344cd1fd0a4f28419497f9722a3daafe3b4186f6b6457e091a3600080546001600160a01b0319166001600160a01b0392909216919091179055565b731b02da8cb0d097eb8d57a175b88c7d8b4799750681565b6000826125a057506000611360565b828202828482816125ad57fe5b04146125cb5760405162461bcd60e51b8152600401610e5c90613573565b9392505050565b60006125cb83836040518060400160405280601a81526020017f536166654d6174683a206469766973696f6e206279207a65726f000000000000815250612be9565b6000828201838110156125cb5760405162461bcd60e51b8152600401610e5c906134c8565b3390565b60006125cb83836040518060400160405280601e81526020017f536166654d6174683a207375627472616374696f6e206f766572666c6f770000815250612c20565b6040516323b872dd60e01b81526000906001600160a01b038516906323b872dd906126b2903390309087906004016133a8565b602060405180830381600087803b1580156126cc57600080fd5b505af11580156126e0573d6000803e3d6000fd5b505050506040513d601f19601f82011682018060405250810190612704919061314d565b50604085015160005b8151811015612bca57600082828151811061272457fe5b6020026020010151600781111561273757fe5b141561274257612bca565b606060006001600160a01b03168860600151838151811061275f57fe5b60200260200101516001600160a01b0316146127ea576127e56040518060600160405280896001600160a01b03166001600160a01b031681526020018a6060015185815181106127ab57fe5b60200260200101516001600160a01b03166001600160a01b03168152602001886001600160a01b03166001600160a01b0316815250612c4c565b612811565b604080518082019091526001600160a01b0380891682528716602082015261281190612cbd565b905060006001845103831461283d578860800151838151811061283057fe5b60200260200101516128b9565b6040516370a0823160e01b81526001600160a01b038916906370a0823190612869903090600401613394565b60206040518083038186803b15801561288157600080fd5b505afa158015612895573d6000803e3d6000fd5b505050506040513d601f19601f820116820180604052508101906128b991906131ce565b905060008960a0015184815181106128cd57fe5b602002602001015190506007808111156128e357fe5b8585815181106128ef57fe5b6020026020010151600781111561290257fe5b1415612a525760405163095ea7b360e01b81526001600160a01b038a169063095ea7b39061294a9073a5e0829caced8ffdd4de3c43696c57f7d7a678ff9086906004016133cc565b602060405180830381600087803b15801561296457600080fd5b505af1158015612978573d6000803e3d6000fd5b505050506040513d601f19601f8201168201806040525081019061299c919061314d565b506040516338ed173960e01b815260609073a5e0829caced8ffdd4de3c43696c57f7d7a678ff906338ed1739906129df90869086908990309042906004016136bb565b600060405180830381600087803b1580156129f957600080fd5b505af1158015612a0d573d6000803e3d6000fd5b505050506040513d6000823e601f3d908101601f19168201604052612a3591908101906130bd565b9050612a4a8160018351038151811061151757fe5b965050612bbf565b6005858581518110612a6057fe5b60200260200101516007811115612a7357fe5b1415612bbf5760405163095ea7b360e01b81526001600160a01b038a169063095ea7b390612abb90731b02da8cb0d097eb8d57a175b88c7d8b479975069086906004016133cc565b602060405180830381600087803b158015612ad557600080fd5b505af1158015612ae9573d6000803e3d6000fd5b505050506040513d601f19601f82011682018060405250810190612b0d919061314d565b506040516338ed173960e01b8152606090731b02da8cb0d097eb8d57a175b88c7d8b47997506906338ed173990612b5090869086908990309042906004016136bb565b600060405180830381600087803b158015612b6a57600080fd5b505af1158015612b7e573d6000803e3d6000fd5b505050506040513d6000823e601f3d908101601f19168201604052612ba691908101906130bd565b9050612bbb8160018351038151811061151757fe5b9650505b50505060010161270d565b5050949350505050565b60006125cb836001600160a01b038416612d26565b60008183612c0a5760405162461bcd60e51b8152600401610e5c919061342f565b506000838581612c1657fe5b0495945050505050565b60008184841115612c445760405162461bcd60e51b8152600401610e5c919061342f565b505050900390565b6040805160038082526080820190925260609160208201838036833701905050905060005b6003811015612cb757828160038110612c8657fe5b6020020151828281518110612c9757fe5b6001600160a01b0390921660209283029190910190910152600101612c71565b50919050565b604080516002808252606080830184529260208301908036833701905050905060005b6002811015612cb757828160028110612cf557fe5b6020020151828281518110612d0657fe5b6001600160a01b0390921660209283029190910190910152600101612ce0565b6000612d328383612d70565b612d6857508154600181810184556000848152602080822090930184905584548482528286019093526040902091909155611360565b506000611360565b60009081526001919091016020526040902054151590565b6040518060c001604052806000815260200160008152602001606081526020016060815260200160608152602001606081525090565b60405180606001604052806060815260200160608152602001600081525090565b600082601f830112612def578081fd5b8135612e02612dfd8261371e565b6136f7565b818152915060208083019084810181840286018201871015612e2357600080fd5b60005b84811015612e4b578135612e398161373e565b84529282019290820190600101612e26565b505050505092915050565b805169ffffffffffffffffffff8116811461136057600080fd5b600060208284031215612e81578081fd5b81356125cb8161373e565b600060208284031215612e9d578081fd5b81516125cb8161373e565b60008060408385031215612eba578081fd5b8235612ec58161373e565b91506020830135612ed58161373e565b809150509250929050565b600080600060608486031215612ef4578081fd5b8335612eff8161373e565b92506020840135612f0f8161373e565b91506040840135612f1f8161373e565b809150509250925092565b60008060008060808587031215612f3f578081fd5b8435612f4a8161373e565b93506020850135612f5a8161373e565b92506040850135612f6a8161373e565b9396929550929360600135925050565b600080600060608486031215612f8e578283fd5b8335612f998161373e565b92506020840135612fa98161373e565b929592945050506040919091013590565b600080600080600060a08688031215612fd1578081fd5b8535612fdc8161373e565b94506020860135612fec8161373e565b93506040860135925060608601359150608086013561300a8161373e565b809150509295509295909350565b6000806040838503121561302a578182fd5b82356130358161373e565b9150602083013567ffffffffffffffff811115613050578182fd5b61305c85828601612ddf565b9150509250929050565b60008060006060848603121561307a578283fd5b83356130858161373e565b925060208401359150604084013567ffffffffffffffff8111156130a7578182fd5b6130b386828701612ddf565b9150509250925092565b600060208083850312156130cf578182fd5b825167ffffffffffffffff8111156130e5578283fd5b8301601f810185136130f5578283fd5b8051613103612dfd8261371e565b818152838101908385018584028501860189101561311f578687fd5b8694505b83851015613141578051835260019490940193918501918501613123565b50979650505050505050565b60006020828403121561315e578081fd5b815180151581146125cb578182fd5b600080600060608486031215613181578081fd5b835161318c81613756565b602085015190935061319d81613756565b604085015190925063ffffffff81168114612f1f578182fd5b6000602082840312156131c7578081fd5b5035919050565b6000602082840312156131df578081fd5b5051919050565b600080600080600060a086880312156131fd578283fd5b6132078787612e56565b945060208601519350604086015192506060860151915061322b8760808801612e56565b90509295509295909350565b600060208284031215613248578081fd5b815160ff811681146125cb578182fd5b60006008821061326457fe5b50815260200190565b6000815180845260208085019450808401835b838110156132a55781516001600160a01b031687529582019590820190600101613280565b509495945050505050565b6000815180845260208085019450808401835b838110156132a5578151875295820195908201906001016132c3565b600060c083018251845260208084015181860152604084015160c0604087015282815161330c8186613683565b9284019450859291505b8083101561333b57613329828651613258565b91508385019450600183019250613316565b50606086015193508681036060880152613355818561326d565b93505050506080830151848203608086015261337182826132b0565b91505060a083015184820360a086015261338b82826132b0565b95945050505050565b6001600160a01b0391909116815260200190565b6001600160a01b039384168152919092166020820152604081019190915260600190565b6001600160a01b03929092168252602082015260400190565b6001600160a01b0392831681529116602082015260400190565b60006040825261341260408301856132b0565b828103602084015261338b81856132df565b901515815260200190565b6000602080835283518082850152825b8181101561345b5785810183015185820160400152820161343f565b8181111561346c5783604083870101525b50601f01601f1916929092016040019392505050565b60208082526026908201527f4f776e61626c653a206e6577206f776e657220697320746865207a65726f206160408201526564647265737360d01b606082015260800190565b6020808252601b908201527f536166654d6174683a206164646974696f6e206f766572666c6f770000000000604082015260600190565b6020808252604e908201527f426f626f526f757465723a206d6174696327707269636520676170206265747760408201527f65656e20636861696e6c696e6b20616e6420717569636b73776170206973206c60608201526d30b933b2903a3430b7101898129760911b608082015260a00190565b60208082526021908201527f536166654d6174683a206d756c7469706c69636174696f6e206f766572666c6f6040820152607760f81b606082015260800190565b6020808252818101527f4f776e61626c653a2063616c6c6572206973206e6f7420746865206f776e6572604082015260600190565b6020808252601f908201527f426f626f526f757465723a206d6964646c6520746f6b656e2045584953542e00604082015260600190565b60006020825282516060602084015261363c608084018261326d565b90506020840151601f1984830301604085015261365982826132b0565b915050604084015160608401528091505092915050565b6000602082526125cb60208301846132df565b90815260200190565b6000838252604060208301526136a5604083018461326d565b949350505050565b918252602082015260400190565b600086825285602083015260a060408301526136da60a083018661326d565b6001600160a01b0394909416606083015250608001529392505050565b60405181810167ffffffffffffffff8111828210171561371657600080fd5b604052919050565b600067ffffffffffffffff821115613734578081fd5b5060209081020190565b6001600160a01b038116811461375357600080fd5b50565b6001600160701b038116811461375357600080fdfea2646970667358221220695454257cb4908596f13675ced3e5e62b12ccd3a4459c4a5deb3d6e02a9aabf64736f6c634300060c0033",
  "immutableReferences": {},
  "source": "// SPDX-License-Identifier: MIT\npragma solidity ^0.6.0;\npragma experimental ABIEncoderV2;\n        \nimport \"./common/BasicStruct.sol\";\nimport \"./SwapInterfaces.sol\";\n\ncontract BoboRouter is Ownable {\n    using SafeMath for uint256;\n    using EnumerableSet for EnumerableSet.AddressSet;\n    \n    address public constant quickSwapFactory = 0x5757371414417b8C6CAad45bAeF941aBc7d3Ab32;\n    address public constant quickSwapRouter = 0xa5E0829CaCEd8fFDD4De3c43696c57F7D7A678ff; \n    \n    address public constant sushiSwapFactory = 0xc35DADB65012eC5796536bD9864eD8773aBc74C4;\n    address public constant sushiSwapRouter = 0x1b02dA8Cb0d097eB8D57A175b88c7D8b47997506;\n    \n    address public constant USDT = 0xc2132D05D31c914a87C6611C10748AEb04B58e8F;   // decimals = 6\n    address public constant USDC = 0x2791Bca1f2de4661ED88A30C99A7a9449Aa84174;   // decimals = 6\n    address public constant WMATIC = 0x0d500B1d8E8eF31E21C99d1Db9A6444d3ADf1270; // decimals = 18\n    address public constant WETH = 0x7ceB23fD6bC0adD59E62ac25578270cFf1b9f619; // decimals = 18\n    address public constant QUICK = 0x831753DD7087CaC61aB5644b308642cc1c33Dc13; // decimals = 18\n\n    address public constant burnAddress = 0x000000000000000000000000000000000000dEaD;\n    uint256 public constant FACTOR = 1e8;\n    AggregatorV3Interface internal wmaticPriceFeed = AggregatorV3Interface(0xAB594600376Ec9fD91F8e885dADF0CE036862dE0);\n    AggregatorV3Interface internal wethPriceFeed = AggregatorV3Interface(0xF9680D99D6C9589e2a93a78A04A279e509205945);\n    AggregatorV3Interface internal quickPriceFeed = AggregatorV3Interface(0xa058689f4bCa95208bba3F265674AE95dED75B6D);\n    mapping(address => AggregatorV3Interface) public tokenAggregatorMap;\n    \n    address[] public middleTokens = [USDT, USDC, WMATIC, WETH, QUICK];\n    uint256 public MinLiquidityValue = 1e11;  // >=100000U \n\n    uint256 public feeRate = 0;\n    uint256 public constant BaseRate = 10000;\n\n    EnumerableSet.AddressSet private orderOwnerSet;\n    \n    struct PathsInfo {\n        address[] tokens;\n        uint256[] minUValues;\n        uint256 pathCount;\n    }\n    \n    constructor() public {\n        tokenAggregatorMap[WMATIC] = wmaticPriceFeed;\n        tokenAggregatorMap[WETH] = wethPriceFeed;\n        tokenAggregatorMap[QUICK] = quickPriceFeed;\n    }\n\n    function addMiddleTokenAndAggregator(address _middleToken, address _aggregator) public onlyOwner {\n        require(tokenAggregatorMap[_middleToken] == AggregatorV3Interface(address(0)), \"BoboRouter: middle token EXIST.\");\n        middleTokens.push(_middleToken);\n        tokenAggregatorMap[_middleToken] = AggregatorV3Interface(_aggregator);\n    }\n    \n    function isUToken(address token) public pure returns(bool) {\n        return token == USDT || token == USDC;\n    }\n    \n    function getBaseTokenPriceOnQuickSwap(address baseToken) public view returns(uint256) {\n       (address token0, ) = USDC < baseToken ? (USDC, baseToken) : (baseToken, USDC);\n       address pairAddr = ICommonFactory(quickSwapFactory).getPair(USDC, baseToken);\n       (uint256 reserveA, uint256 reserveB,) = ICommonPair(pairAddr).getReserves();\n       uint256 decimals = ERC20(baseToken).decimals();\n       uint256 decimalsGap = decimals - ERC20(USDC).decimals();\n       return token0 == USDC ? reserveA.mul(FACTOR).mul(10**decimalsGap).div(reserveB) : reserveB.mul(FACTOR).mul(10**decimalsGap).div(reserveA);\n    }\n    \n    function getBaseTokenPriceOnChainlink(address baseToken) public view returns(uint256) {\n        AggregatorV3Interface priceFeed = tokenAggregatorMap[baseToken];\n       (, int price,,,) = priceFeed.latestRoundData();\n        return uint256(price);\n    }\n    \n    function getReserves(address factoryAddr, address token0, address token1) public view returns(uint256, uint256) {\n        address pairAddr = ICommonFactory(factoryAddr).getPair(token0, token1);\n        if (pairAddr == address(0)) return (0, 0);\n        (uint256 reserveA, uint256 reserveB,) = ICommonPair(pairAddr).getReserves();\n        return (reserveA, reserveB);\n    }\n    \n    function getMinUValue(address factoryAddr, address[] memory path) public view returns(uint256) {\n       uint256 minUValue = uint256(-1);\n       \n       for (uint256 i = 0; i < path.length - 1; i++) {\n           uint256 tmpUValue;\n           (address token0, address token1) = path[i] < path[i + 1] ? (path[i], path[i + 1]) : (path[i + 1], path[i]);\n           (uint256 reserveA, uint256 reserveB) = getReserves(factoryAddr, token0, token1);\n           if (isUToken(token0)) {\n               tmpUValue = reserveA;\n           } else if (isUToken(token1)) {\n               tmpUValue = reserveB;\n           } else {\n               (address baseToken, uint256 reserve) = tokenAggregatorMap[token0] != AggregatorV3Interface(address(0)) ? (token0, reserveA) : (token1, reserveB); \n               uint256 baseTokenPriceOnQuickSwap = getBaseTokenPriceOnQuickSwap(baseToken);\n               uint256 baseTokenPriceOnChainlink = getBaseTokenPriceOnChainlink(baseToken);\n               uint256 gap = 0;\n               if (baseTokenPriceOnQuickSwap > baseTokenPriceOnChainlink) {\n                   gap = baseTokenPriceOnQuickSwap.sub(baseTokenPriceOnChainlink).mul(1000).div(baseTokenPriceOnChainlink);\n               } else {\n                   gap = baseTokenPriceOnChainlink.sub(baseTokenPriceOnQuickSwap).mul(1000).div(baseTokenPriceOnQuickSwap);\n               }\n               require(gap <= 100, \"BoboRouter: matic'price gap between chainlink and quickswap is large than 10%.\");\n               uint256 decimals = ERC20(baseToken).decimals();\n               uint256 decimalsGap = decimals - ERC20(USDC).decimals();\n               tmpUValue = baseTokenPriceOnChainlink.mul(reserve).div(FACTOR).div(10**decimalsGap);\n           }\n           if (minUValue > tmpUValue) minUValue = tmpUValue;\n       }\n       return minUValue;\n    }\n    \n    function getPaths(address factoryAddr, address inToken, address outToken) public view returns(PathsInfo memory pathsInfo) {\n        pathsInfo = PathsInfo(new address[](middleTokens.length), new uint256[](middleTokens.length), 0);\n        for (uint256 i = 0; i < middleTokens.length; i++) {\n            if (middleTokens[i] == inToken || middleTokens[i] == outToken) continue;\n            \n            address[] memory path = new address[](3);\n            path[0] = inToken; \n            path[1] = middleTokens[i]; \n            path[2] = outToken;\n            uint256 minUValue = getMinUValue(factoryAddr, path);\n            if (minUValue >= MinLiquidityValue) {\n                pathsInfo.tokens[pathsInfo.pathCount] = middleTokens[i]; \n                pathsInfo.minUValues[pathsInfo.pathCount] = minUValue;\n                pathsInfo.pathCount++;\n            }\n        }\n    }\n\n    function caculateTotalLiquidity(address inToken, address outToken) public view returns(uint256 totalULiquidity) {\n        PathsInfo memory quickSwapPathsInfo = getPaths(quickSwapFactory, inToken, outToken);\n        PathsInfo memory sushiSwapPathsInfo = getPaths(sushiSwapFactory, inToken, outToken);\n        \n        address[] memory path = new address[](2);\n        path[0] = inToken;\n        path[1] = outToken;\n        \n        uint256 quickSwapMinUValue = getMinUValue(quickSwapFactory, path);\n        uint256 sushiSwapMinUValue = getMinUValue(sushiSwapFactory, path);\n        \n        if (quickSwapMinUValue > MinLiquidityValue) {\n            totalULiquidity = totalULiquidity.add(quickSwapMinUValue);\n        }\n        if (sushiSwapMinUValue > MinLiquidityValue) {\n            totalULiquidity = totalULiquidity.add(sushiSwapMinUValue);\n        }\n        \n        for (uint256 i = 0; i < quickSwapPathsInfo.pathCount; i++) {\n            totalULiquidity = totalULiquidity.add(quickSwapPathsInfo.minUValues[i]);\n        }\n        for (uint256 i = 0; i < sushiSwapPathsInfo.pathCount; i++) {\n            totalULiquidity = totalULiquidity.add(sushiSwapPathsInfo.minUValues[i]);\n        }\n        totalULiquidity = totalULiquidity.mul(2);\n    }\n    \n    function getBestSwapPath(address inToken, address outToken, uint256 amountIn) public view returns(uint256[] memory amountsOut, ResultInfo memory bestResultInfo) {\n        amountsOut = new uint256[](3);\n        \n        address[] memory path = new address[](2);\n        path[0] = inToken;\n        path[1] = outToken;\n        \n        //ResultInfo memory bestResultInfo;\n        uint256 totalAmountOut = 0;\n        \n        (ResultInfo memory quickSwapResultInfo) = caculateOneDexAmountOut(quickSwapFactory, inToken, outToken, amountIn);\n        amountsOut[0] = quickSwapResultInfo.totalAmountOut;\n        if (quickSwapResultInfo.totalAmountOut > totalAmountOut) {\n            bestResultInfo = quickSwapResultInfo;\n            totalAmountOut = quickSwapResultInfo.totalAmountOut;\n        }\n        \n        (ResultInfo memory sushiSwapResultInfo) = caculateOneDexAmountOut(sushiSwapFactory, inToken, outToken, amountIn);\n        amountsOut[1] = sushiSwapResultInfo.totalAmountOut;\n        if (sushiSwapResultInfo.totalAmountOut > totalAmountOut) {\n            bestResultInfo = sushiSwapResultInfo;\n            totalAmountOut = sushiSwapResultInfo.totalAmountOut;\n        }\n        \n        ResultInfo memory allResultInfo = caculateAmountOut(inToken, outToken, amountIn);\n        amountsOut[2] = allResultInfo.totalAmountOut;\n        if (allResultInfo.totalAmountOut > totalAmountOut) {\n            bestResultInfo = allResultInfo;\n            totalAmountOut = allResultInfo.totalAmountOut;\n        }\n    }\n\n    function caculateOneDexAmountOut(address dexFactory, address inToken, address outToken, uint256 amountIn) public view returns(ResultInfo memory resultInfo) {\n        PathsInfo memory pathsInfo = getPaths(dexFactory, inToken, outToken);\n        address[] memory path = new address[](2);\n        path[0] = inToken;\n        path[1] = outToken;\n        \n        uint256 minUValue = getMinUValue(dexFactory, path);\n        \n        uint256 totalULiquidity = 0;\n        if (minUValue > MinLiquidityValue) {\n            totalULiquidity = totalULiquidity.add(minUValue);\n        }\n        \n        for (uint256 i = 0; i < pathsInfo.pathCount; i++) {\n            totalULiquidity = totalULiquidity.add(pathsInfo.minUValues[i]);\n        }\n        \n        uint256 partialAmountIn;\n        uint256 totalAmountOut = 0;\n        \n        resultInfo.swapPools = new SwapPool[](4);\n        resultInfo.middleTokens = new address[](4);\n        resultInfo.partialAmountIns = new uint256[](4);\n        resultInfo.partialAmountOuts = new uint256[](4);\n        uint256 count = 0;\n        address routerAddr = dexFactory == quickSwapFactory ? quickSwapRouter : sushiSwapRouter;\n        SwapPool middleTokeType = dexFactory == quickSwapFactory ? SwapPool.QuickSwap : SwapPool.SushiSwap;\n        \n        if (minUValue > MinLiquidityValue) {\n            partialAmountIn = minUValue.mul(amountIn).div(totalULiquidity);\n            uint256 amountOut = getAmountOut(routerAddr, partialAmountIn, path);\n            \n            resultInfo.swapPools[count] = middleTokeType;\n            resultInfo.middleTokens[count] = address(0); \n            resultInfo.partialAmountIns[count] = partialAmountIn;\n            resultInfo.partialAmountOuts[count] = amountOut;\n            totalAmountOut = totalAmountOut.add(amountOut);\n            count++;\n        }\n        \n        address[] memory tmpPath = new address[](3);\n        for (uint256 i = 0; i < pathsInfo.pathCount; i++) {\n            tmpPath[0] = inToken;\n            tmpPath[1] = pathsInfo.tokens[i];\n            tmpPath[2] = outToken;\n            partialAmountIn = pathsInfo.minUValues[i] * amountIn / totalULiquidity;\n            uint256 amountOut = getAmountOut(routerAddr, partialAmountIn, tmpPath);\n            \n            resultInfo.swapPools[count] = middleTokeType;\n            resultInfo.middleTokens[count] = pathsInfo.tokens[i]; \n            resultInfo.partialAmountIns[count] = partialAmountIn;\n            resultInfo.partialAmountOuts[count] = amountOut;\n            totalAmountOut = totalAmountOut.add(amountOut);\n            count++;\n        }\n        resultInfo.totalAmountOut = totalAmountOut;\n        resultInfo.totalULiquidity = totalULiquidity;\n    }\n        \n    function caculateAmountOut(address inToken, address outToken, uint256 amountIn) public view returns(ResultInfo memory resultInfo) {\n        PathsInfo memory quickSwapPathsInfo = getPaths(quickSwapFactory, inToken, outToken);\n        PathsInfo memory sushiSwapPathsInfo = getPaths(sushiSwapFactory, inToken, outToken);\n        \n        address[] memory path = new address[](2);\n        path[0] = inToken;\n        path[1] = outToken;\n        \n        uint256 quickSwapMinUValue = getMinUValue(quickSwapFactory, path);\n        uint256 sushiSwapMinUValue = getMinUValue(sushiSwapFactory, path);\n        \n        uint256 totalULiquidity = 0;\n        if (quickSwapMinUValue > MinLiquidityValue) {\n            totalULiquidity = totalULiquidity.add(quickSwapMinUValue);\n        }\n        if (sushiSwapMinUValue > MinLiquidityValue) {\n            totalULiquidity = totalULiquidity.add(sushiSwapMinUValue);\n        }\n        \n        for (uint256 i = 0; i < quickSwapPathsInfo.pathCount; i++) {\n            totalULiquidity = totalULiquidity.add(quickSwapPathsInfo.minUValues[i]);\n        }\n        for (uint256 i = 0; i < sushiSwapPathsInfo.pathCount; i++) {\n            totalULiquidity = totalULiquidity.add(sushiSwapPathsInfo.minUValues[i]);\n        }\n        \n        \n        uint256 partialAmountIn;\n        uint256 totalAmountOut = 0;\n        \n        resultInfo.swapPools = new SwapPool[](10);\n        resultInfo.middleTokens = new address[](10);\n        resultInfo.partialAmountIns = new uint256[](10);\n        resultInfo.partialAmountOuts = new uint256[](10);\n        uint256 count = 0;\n        \n        if (quickSwapMinUValue > MinLiquidityValue) {\n            partialAmountIn = quickSwapMinUValue.mul(amountIn).div(totalULiquidity);\n            uint256 amountOut = getAmountOut(quickSwapRouter, partialAmountIn, path);\n            \n            resultInfo.swapPools[count] = SwapPool.QuickSwap;\n            resultInfo.middleTokens[count] = address(0); \n            resultInfo.partialAmountIns[count] = partialAmountIn;\n            resultInfo.partialAmountOuts[count] = amountOut;\n            totalAmountOut = totalAmountOut.add(amountOut);\n            count++;\n        }\n        \n        if (sushiSwapMinUValue > MinLiquidityValue) {\n            partialAmountIn = sushiSwapMinUValue.mul(amountIn).div(totalULiquidity);\n            uint256 amountOut = getAmountOut(sushiSwapRouter, partialAmountIn, path);\n            \n            resultInfo.swapPools[count] = SwapPool.SushiSwap;\n            resultInfo.middleTokens[count] = address(0); \n            resultInfo.partialAmountIns[count] = partialAmountIn;\n            resultInfo.partialAmountOuts[count] = amountOut;\n            totalAmountOut = totalAmountOut.add(amountOut);\n            count++;\n        }\n        \n        address[] memory tmpPath = new address[](3);\n        for (uint256 i = 0; i < quickSwapPathsInfo.pathCount; i++) {\n            tmpPath[0] = inToken;\n            tmpPath[1] = quickSwapPathsInfo.tokens[i];\n            tmpPath[2] = outToken;\n            partialAmountIn = quickSwapPathsInfo.minUValues[i] * amountIn / totalULiquidity;\n            uint256 amountOut = getAmountOut(quickSwapRouter, partialAmountIn, tmpPath);\n            \n            resultInfo.swapPools[count] = SwapPool.QuickSwap;\n            resultInfo.middleTokens[count] = quickSwapPathsInfo.tokens[i]; \n            resultInfo.partialAmountIns[count] = partialAmountIn;\n            resultInfo.partialAmountOuts[count] = amountOut;\n            totalAmountOut = totalAmountOut.add(amountOut);\n            count++;\n        }\n        for (uint256 i = 0; i < sushiSwapPathsInfo.pathCount; i++) {\n            tmpPath[0] = inToken;\n            tmpPath[1] = sushiSwapPathsInfo.tokens[i];\n            tmpPath[2] = outToken;\n            partialAmountIn = sushiSwapPathsInfo.minUValues[i] * amountIn / totalULiquidity;\n            uint256 amountOut = getAmountOut(sushiSwapRouter, partialAmountIn, tmpPath);\n            \n            resultInfo.swapPools[count] = SwapPool.SushiSwap;\n            resultInfo.middleTokens[count] = sushiSwapPathsInfo.tokens[i]; \n            resultInfo.partialAmountIns[count] = partialAmountIn;\n            resultInfo.partialAmountOuts[count] = amountOut;\n            totalAmountOut = totalAmountOut.add(amountOut);\n            count++;\n        }\n        resultInfo.totalAmountOut = totalAmountOut;\n        resultInfo.totalULiquidity = totalULiquidity;\n    }\n    \n    function getAmountOut(address routerAddr, uint256 partialAmountIn, address[] memory path) public view returns(uint256) {\n        uint256[] memory amountsOut = ICommonRouter(routerAddr).getAmountsOut(partialAmountIn, path);\n        return amountsOut[path.length - 1];\n    }\n    \n    function convertThreePath(address[3] memory path) private pure returns(address[] memory newPath) {\n        newPath = new address[](path.length);\n        for (uint256 i = 0; i < path.length; i++) {\n            newPath[i] = path[i];\n        }\n    }\n    \n    function convertTwoPath(address[2] memory path) private pure returns(address[] memory newPath) {\n        newPath = new address[](path.length);\n        for (uint256 i = 0; i < path.length; i++) {\n            newPath[i] = path[i];\n        }\n    }\n    \n    function exeSwap(ResultInfo memory _bestSwapInfo, address _inToken, address _outToken, uint256 _amountIn) private returns(uint256 totalAmountOut) {\n        IERC20(_inToken).transferFrom(msg.sender, address(this), _amountIn);\n        \n        SwapPool[] memory swapPools = _bestSwapInfo.swapPools;\n        for (uint256 i = 0; i < swapPools.length; i++) {\n            if (swapPools[i] == SwapPool.No) break;\n            \n            address[] memory path = _bestSwapInfo.middleTokens[i] == address(0) ? convertTwoPath([_inToken, _outToken]) :convertThreePath([_inToken, _bestSwapInfo.middleTokens[i], _outToken]);\n            uint256 partialAmountIn = (i == swapPools.length - 1) ? IERC20(_inToken).balanceOf(address(this)) : _bestSwapInfo.partialAmountIns[i];\n            uint256 partialAmountOut = _bestSwapInfo.partialAmountOuts[i];\n            if (swapPools[i] == SwapPool.QuickSwap) {\n                IERC20(_inToken).approve(quickSwapRouter, partialAmountIn);\n                uint256[] memory amountOuts = ICommonRouter(quickSwapRouter).swapExactTokensForTokens(partialAmountIn, partialAmountOut, path, address(this), now);\n                totalAmountOut = totalAmountOut.add(amountOuts[amountOuts.length - 1]);\n            } else if (swapPools[i] == SwapPool.SushiSwap) {\n                IERC20(_inToken).approve(sushiSwapRouter, partialAmountIn);\n                uint256[] memory amountOuts = ICommonRouter(sushiSwapRouter).swapExactTokensForTokens(partialAmountIn, partialAmountOut, path, address(this), now);\n                totalAmountOut = totalAmountOut.add(amountOuts[amountOuts.length - 1]);\n            } \n        }\n    }\n\n    function swap(address _inToken, address _outToken, uint256 _amountIn, uint256 _minAmountOut, address _orderOwner) external {\n        (, ResultInfo memory bestResultInfo) = getBestSwapPath(_inToken, _outToken, _amountIn);\n        if (bestResultInfo.totalAmountOut < _minAmountOut) return;\n\n        uint256 totalAmountOut = exeSwap(bestResultInfo, _inToken, _outToken, _amountIn);\n        uint256 profitAmount = totalAmountOut.sub(_minAmountOut).mul(feeRate).div(BaseRate);\n\n        IERC20(_outToken).transfer(msg.sender, totalAmountOut.sub(profitAmount));\n        orderOwnerSet.add(_orderOwner);\n    }\n\n    function withdrawToken(address _tokenAddr) public onlyOwner {\n        ERC20(_tokenAddr).transfer(msg.sender, ERC20(_tokenAddr).balanceOf(address(this)));\n    }\n\n    function setFeeRate(uint256 _feeRate) public onlyOwner {\n        feeRate = _feeRate;\n    }\n }",
  "sourcePath": "/Users/mryu/blockchain/bobo-metaverse/boboswap-contract/contracts/BoboRouter.sol",
  "compiler": {
    "name": "solc",
    "version": "0.6.12+commit.27d51765.Emscripten.clang"
  },
  "schemaVersion": "3.4.3",
  "updatedAt": "2021-09-17T06:43:20.122Z",
  "networkType": "ethereum",
  "devdoc": {
    "kind": "dev",
    "methods": {
      "owner()": {
        "details": "Returns the address of the current owner."
      },
      "renounceOwnership()": {
        "details": "Leaves the contract without owner. It will not be possible to call `onlyOwner` functions anymore. Can only be called by the current owner. NOTE: Renouncing ownership will leave the contract without an owner, thereby removing any functionality that is only available to the owner."
      },
      "transferOwnership(address)": {
        "details": "Transfers ownership of the contract to a new account (`newOwner`). Can only be called by the current owner."
      }
    },
    "version": 1
  },
  "userdoc": {
    "kind": "user",
    "methods": {},
    "version": 1
  }
}