{
  "contractName": "BoboRouterEx",
  "abi": [
    {
      "inputs": [
        {
          "internalType": "address",
          "name": "_boboFactory",
          "type": "address"
        },
        {
          "internalType": "address",
          "name": "_boboRouter",
          "type": "address"
        }
      ],
      "stateMutability": "nonpayable",
      "type": "constructor"
    },
    {
      "anonymous": false,
      "inputs": [
        {
          "indexed": true,
          "internalType": "address",
          "name": "previousOwner",
          "type": "address"
        },
        {
          "indexed": true,
          "internalType": "address",
          "name": "newOwner",
          "type": "address"
        }
      ],
      "name": "OwnershipTransferred",
      "type": "event"
    },
    {
      "inputs": [],
      "name": "boboFactory",
      "outputs": [
        {
          "internalType": "contract IBoboFactory",
          "name": "",
          "type": "address"
        }
      ],
      "stateMutability": "view",
      "type": "function",
      "constant": true
    },
    {
      "inputs": [],
      "name": "boboPair",
      "outputs": [
        {
          "internalType": "contract IBoboPair",
          "name": "",
          "type": "address"
        }
      ],
      "stateMutability": "view",
      "type": "function",
      "constant": true
    },
    {
      "inputs": [],
      "name": "boboRouter",
      "outputs": [
        {
          "internalType": "contract IBoboRouter",
          "name": "",
          "type": "address"
        }
      ],
      "stateMutability": "view",
      "type": "function",
      "constant": true
    },
    {
      "inputs": [],
      "name": "inToken",
      "outputs": [
        {
          "internalType": "contract ERC20",
          "name": "",
          "type": "address"
        }
      ],
      "stateMutability": "view",
      "type": "function",
      "constant": true
    },
    {
      "inputs": [],
      "name": "outToken",
      "outputs": [
        {
          "internalType": "contract ERC20",
          "name": "",
          "type": "address"
        }
      ],
      "stateMutability": "view",
      "type": "function",
      "constant": true
    },
    {
      "inputs": [],
      "name": "owner",
      "outputs": [
        {
          "internalType": "address",
          "name": "",
          "type": "address"
        }
      ],
      "stateMutability": "view",
      "type": "function",
      "constant": true
    },
    {
      "inputs": [],
      "name": "renounceOwnership",
      "outputs": [],
      "stateMutability": "nonpayable",
      "type": "function"
    },
    {
      "inputs": [
        {
          "internalType": "address",
          "name": "newOwner",
          "type": "address"
        }
      ],
      "name": "transferOwnership",
      "outputs": [],
      "stateMutability": "nonpayable",
      "type": "function"
    },
    {
      "inputs": [
        {
          "internalType": "address",
          "name": "_inToken",
          "type": "address"
        },
        {
          "internalType": "address",
          "name": "_outToken",
          "type": "address"
        },
        {
          "internalType": "uint256",
          "name": "_amountIn",
          "type": "uint256"
        }
      ],
      "name": "getBaseAmountOut",
      "outputs": [
        {
          "internalType": "uint256",
          "name": "amountOut",
          "type": "uint256"
        }
      ],
      "stateMutability": "view",
      "type": "function",
      "constant": true
    },
    {
      "inputs": [
        {
          "internalType": "contract ERC20",
          "name": "_inToken",
          "type": "address"
        },
        {
          "internalType": "contract ERC20",
          "name": "_outToken",
          "type": "address"
        },
        {
          "internalType": "uint256",
          "name": "_amountIn",
          "type": "uint256"
        },
        {
          "internalType": "uint256",
          "name": "_maxAmountOut",
          "type": "uint256"
        },
        {
          "internalType": "uint256",
          "name": "_minAmountOut",
          "type": "uint256"
        },
        {
          "internalType": "address",
          "name": "_orderOwner",
          "type": "address"
        }
      ],
      "name": "swap",
      "outputs": [],
      "stateMutability": "nonpayable",
      "type": "function"
    },
    {
      "inputs": [
        {
          "internalType": "address",
          "name": "_tokenAddr",
          "type": "address"
        }
      ],
      "name": "withdrawToken",
      "outputs": [],
      "stateMutability": "nonpayable",
      "type": "function"
    }
  ],
  "bytecode": "0x60806040523480156200001157600080fd5b5060405162001a6738038062001a678339810160408190526200003491620000c0565b600062000040620000bc565b600080546001600160a01b0319166001600160a01b0383169081178255604051929350917f8be0079c531659141344cd1fd0a4f28419497f9722a3daafe3b4186f6b6457e0908290a350600280546001600160a01b039384166001600160a01b0319918216179091556001805492909316911617905562000117565b3390565b60008060408385031215620000d3578182fd5b8251620000e081620000fe565b6020840151909250620000f381620000fe565b809150509250929050565b6001600160a01b03811681146200011457600080fd5b50565b61194080620001276000396000f3fe608060405234801561001057600080fd5b50600436106100a95760003560e01c8063715018a611610071578063715018a61461011157806389476069146101195780638da5cb5b1461012c578063acd17aaa14610134578063d57116a21461013c578063f2fde38b14610144576100a9565b806312f69a77146100ae57806333db82fd146100d75780634a928012146100ec5780636a33d28e146100f45780636c82532714610109575b600080fd5b6100c16100bc366004611457565b610157565b6040516100ce9190611894565b60405180910390f35b6100df610160565b6040516100ce91906115fa565b6100df61016f565b61010761010236600461155b565b61017e565b005b6100df61066e565b61010761067d565b61010761012736600461141f565b6106fc565b6100df61082a565b6100df610839565b6100df610848565b61010761015236600461141f565b610857565b60009392505050565b6005546001600160a01b031681565b6003546001600160a01b031681565b600480546001600160a01b03199081166001600160a01b03898116918217845560058054909316908916179091556040516323b872dd60e01b815290916323b872dd916101d191339130918a910161160e565b602060405180830381600087803b1580156101eb57600080fd5b505af11580156101ff573d6000803e3d6000fd5b505050506040513d601f19601f82011682018060405250810190610223919061153b565b5060025460405163e6a4390560e01b81526000916001600160a01b03169063e6a4390590610257908a908a9060040161164b565b60206040518083038186803b15801561026f57600080fd5b505afa158015610283573d6000803e3d6000fd5b505050506040513d601f19601f820116820180604052508101906102a7919061143b565b600380546001600160a01b0319166001600160a01b03831617905590506000806102d1878661090d565b91509150848110610374578581116102e957806102eb565b855b60405163a9059cbb60e01b81529091506001600160a01b0389169063a9059cbb9061031c9033908590600401611632565b602060405180830381600087803b15801561033657600080fd5b505af115801561034a573d6000803e3d6000fd5b505050506040513d601f19601f8201168201806040525081019061036e919061153b565b50610663565b6000821161039d5760405162461bcd60e51b815260040161039490611788565b60405180910390fd5b60015460405163095ea7b360e01b81526001600160a01b038b81169263095ea7b3926103d192909116908690600401611632565b602060405180830381600087803b1580156103eb57600080fd5b505af11580156103ff573d6000803e3d6000fd5b505050506040513d601f19601f82011682018060405250810190610423919061153b565b506040516370a0823160e01b81526000906001600160a01b038a16906370a08231906104539030906004016115fa565b60206040518083038186803b15801561046b57600080fd5b505afa15801561047f573d6000803e3d6000fd5b505050506040513d601f19601f820116820180604052508101906104a391906115c1565b6001549091506001600160a01b031663d5bcb9b58b8b866104c48b88610ced565b8a6040518663ffffffff1660e01b81526004016104e5959493929190611665565b600060405180830381600087803b1580156104ff57600080fd5b505af1158015610513573d6000803e3d6000fd5b50505050600061059f828b6001600160a01b03166370a08231306040518263ffffffff1660e01b815260040161054991906115fa565b60206040518083038186803b15801561056157600080fd5b505afa158015610575573d6000803e3d6000fd5b505050506040513d601f19601f8201168201806040525081019061059991906115c1565b90610ced565b90506105ab8382610d38565b9250868310156105cd5760405162461bcd60e51b8152600401610394906117d2565b8783116105da57826105dc565b875b60405163a9059cbb60e01b81529093506001600160a01b038b169063a9059cbb9061060d9033908790600401611632565b602060405180830381600087803b15801561062757600080fd5b505af115801561063b573d6000803e3d6000fd5b505050506040513d601f19601f8201168201806040525081019061065f919061153b565b5050505b505050505050505050565b6004546001600160a01b031681565b610685610d5d565b6000546001600160a01b039081169116146106b25760405162461bcd60e51b81526004016103949061185f565b600080546040516001600160a01b03909116907f8be0079c531659141344cd1fd0a4f28419497f9722a3daafe3b4186f6b6457e0908390a3600080546001600160a01b0319169055565b610704610d5d565b6000546001600160a01b039081169116146107315760405162461bcd60e51b81526004016103949061185f565b6040516370a0823160e01b81526001600160a01b0382169063a9059cbb90339083906370a08231906107679030906004016115fa565b60206040518083038186803b15801561077f57600080fd5b505afa158015610793573d6000803e3d6000fd5b505050506040513d601f19601f820116820180604052508101906107b791906115c1565b6040518363ffffffff1660e01b81526004016107d4929190611632565b602060405180830381600087803b1580156107ee57600080fd5b505af1158015610802573d6000803e3d6000fd5b505050506040513d601f19601f82011682018060405250810190610826919061153b565b5050565b6000546001600160a01b031690565b6001546001600160a01b031681565b6002546001600160a01b031681565b61085f610d5d565b6000546001600160a01b0390811691161461088c5760405162461bcd60e51b81526004016103949061185f565b6001600160a01b0381166108b25760405162461bcd60e51b81526004016103949061170b565b600080546040516001600160a01b03808516939216917f8be0079c531659141344cd1fd0a4f28419497f9722a3daafe3b4186f6b6457e091a3600080546001600160a01b0319166001600160a01b0392909216919091179055565b6000806000600360009054906101000a90046001600160a01b03166001600160a01b031663c55dae636040518163ffffffff1660e01b815260040160206040518083038186803b15801561096057600080fd5b505afa158015610974573d6000803e3d6000fd5b505050506040513d601f19601f82011682018060405250810190610998919061143b565b6004549091506001600160a01b03808316911614600081610a3257600480546040805163313ce56760e01b815290516001600160a01b039092169263313ce567928282019260209290829003018186803b1580156109f557600080fd5b505afa158015610a09573d6000803e3d6000fd5b505050506040513d601f19601f82011682018060405250810190610a2d91906115d9565b610ab8565b600560009054906101000a90046001600160a01b03166001600160a01b031663313ce5676040518163ffffffff1660e01b815260040160206040518083038186803b158015610a8057600080fd5b505afa158015610a94573d6000803e3d6000fd5b505050506040513d601f19601f82011682018060405250810190610ab891906115d9565b60ff169050600082610ae157610adc88610ad689600a86900a610d61565b90610d9b565b610af3565b610af387610ad68a600a86900a610d61565b6003546040516359ad645960e11b81529192506000916001600160a01b039091169063b35ac8b290610b2a90871590600401611695565b60206040518083038186803b158015610b4257600080fd5b505afa158015610b56573d6000803e3d6000fd5b505050506040513d601f19601f82011682018060405250810190610b7a91906115c1565b9050886000805b83811015610cdc576003546040516359fc722360e01b81526060916001600160a01b0316906359fc722390610bc2908b1590869060018201906004016116a0565b60006040518083038186803b158015610bda57600080fd5b505afa158015610bee573d6000803e3d6000fd5b505050506040513d6000823e601f3d908101601f19168201604052610c169190810190611497565b9050878015610c3d575080600081518110610c2d57fe5b602002602001015160a001518610155b80610c69575087158015610c69575080600081518110610c5957fe5b602002602001015160a001518611155b15610ccd57600080610c8f83600081518110610c8157fe5b602002602001015187610ddd565b9092509050610c9e8683610ced565b9550610caa8582610d38565b94508d85101580610cb9575085155b15610cc657505050610cdc565b5050610cd3565b50610cdc565b50600101610b81565b50909a909950975050505050505050565b6000610d2f83836040518060400160405280601e81526020017f536166654d6174683a207375627472616374696f6e206f766572666c6f7700008152506112c9565b90505b92915050565b600082820183811015610d2f5760405162461bcd60e51b815260040161039490611751565b3390565b600082610d7057506000610d32565b82820282848281610d7d57fe5b0414610d2f5760405162461bcd60e51b81526004016103949061181e565b6000610d2f83836040518060400160405280601a81526020017f536166654d6174683a206469766973696f6e206279207a65726f0000000000008152506112f5565b600354825160405163cdd2a4d160e01b8152600092839283926001600160a01b039092169163cdd2a4d191610e1491600401611894565b60206040518083038186803b158015610e2c57600080fd5b505afa158015610e40573d6000803e3d6000fd5b505050506040513d601f19601f82011682018060405250810190610e6491906115c1565b600480546040516370a0823160e01b81529293506000926001600160a01b03909116916370a0823191610e99913091016115fa565b60206040518083038186803b158015610eb157600080fd5b505afa158015610ec5573d6000803e3d6000fd5b505050506040513d601f19601f82011682018060405250810190610ee991906115c1565b6005546040516370a0823160e01b81529192506000916001600160a01b03909116906370a0823190610f1f9030906004016115fa565b60206040518083038186803b158015610f3757600080fd5b505afa158015610f4b573d6000803e3d6000fd5b505050506040513d601f19601f82011682018060405250810190610f6f91906115c1565b9050828610611089576004805460035460405163095ea7b360e01b81526001600160a01b039283169363095ea7b393610fac931691889101611632565b602060405180830381600087803b158015610fc657600080fd5b505af1158015610fda573d6000803e3d6000fd5b505050506040513d601f19601f82011682018060405250810190610ffe919061153b565b50600354875160405163183fbf8560e21b81526001600160a01b03909216916360fefe149161103191879060040161189d565b602060405180830381600087803b15801561104b57600080fd5b505af115801561105f573d6000803e3d6000fd5b505050506040513d601f19601f8201168201806040525081019061108391906115c1565b50611196565b6004805460035460405163095ea7b360e01b81526001600160a01b039283169363095ea7b3936110bd9316918b9101611632565b602060405180830381600087803b1580156110d757600080fd5b505af11580156110eb573d6000803e3d6000fd5b505050506040513d601f19601f8201168201806040525081019061110f919061153b565b50600354875160405163183fbf8560e21b81526001600160a01b03909216916360fefe1491611142918a9060040161189d565b602060405180830381600087803b15801561115c57600080fd5b505af1158015611170573d6000803e3d6000fd5b505050506040513d601f19601f8201168201806040525081019061119491906115c1565b505b6005546040516370a0823160e01b81526000916001600160a01b0316906370a08231906111c79030906004016115fa565b60206040518083038186803b1580156111df57600080fd5b505afa1580156111f3573d6000803e3d6000fd5b505050506040513d601f19601f8201168201806040525081019061121791906115c1565b905060006112258284610ced565b600480546040516370a0823160e01b81529293506000926001600160a01b03909116916370a082319161125a913091016115fa565b60206040518083038186803b15801561127257600080fd5b505afa158015611286573d6000803e3d6000fd5b505050506040513d601f19601f820116820180604052508101906112aa91906115c1565b905060006112b88287610ced565b9b929a509198505050505050505050565b600081848411156112ed5760405162461bcd60e51b815260040161039491906116b8565b505050900390565b600081836113165760405162461bcd60e51b815260040161039491906116b8565b50600083858161132257fe5b0495945050505050565b8051610d32816118f2565b80518015158114610d3257600080fd5b805160038110610d3257600080fd5b60006101a0808385031215611369578182fd5b611372816118ab565b9150508151815260208201516020820152611390836040840161132c565b60408201526113a2836060840161132c565b60608201526113b48360808401611337565b608082015260a082015160a082015260c082015160c082015260e082015160e08201526101008083015181830152506101206113f284828501611347565b90820152610140828101519082015261016080830151908201526101809182015191810191909152919050565b600060208284031215611430578081fd5b8135610d2f816118f2565b60006020828403121561144c578081fd5b8151610d2f816118f2565b60008060006060848603121561146b578182fd5b8335611476816118f2565b92506020840135611486816118f2565b929592945050506040919091013590565b600060208083850312156114a9578182fd5b825167ffffffffffffffff8111156114bf578283fd5b8301601f810185136114cf578283fd5b80516114e26114dd826118d2565b6118ab565b818152838101908385016101a0808502860187018a1015611501578788fd5b8795505b8486101561152d576115178a83611356565b8452600195909501949286019290810190611505565b509098975050505050505050565b60006020828403121561154c578081fd5b81518015158114610d2f578182fd5b60008060008060008060c08789031215611573578182fd5b863561157e816118f2565b9550602087013561158e816118f2565b945060408701359350606087013592506080870135915060a08701356115b3816118f2565b809150509295509295509295565b6000602082840312156115d2578081fd5b5051919050565b6000602082840312156115ea578081fd5b815160ff81168114610d2f578182fd5b6001600160a01b0391909116815260200190565b6001600160a01b039384168152919092166020820152604081019190915260600190565b6001600160a01b03929092168252602082015260400190565b6001600160a01b0392831681529116602082015260400190565b6001600160a01b039586168152938516602085015260408401929092526060830152909116608082015260a00190565b901515815260200190565b92151583526020830191909152604082015260600190565b6000602080835283518082850152825b818110156116e4578581018301518582016040015282016116c8565b818111156116f55783604083870101525b50601f01601f1916929092016040019392505050565b60208082526026908201527f4f776e61626c653a206e6577206f776e657220697320746865207a65726f206160408201526564647265737360d01b606082015260800190565b6020808252601b908201527f536166654d6174683a206164646974696f6e206f766572666c6f770000000000604082015260600190565b6020808252602a908201527f426f626f526f7475657245783a206c65667420616d6f756e74496e2073686f756040820152693632103132901f10181760b11b606082015260800190565b6020808252602c908201527f426f626f526f7475657245783a2063616e204e4f542074616b6520656e6f756760408201526b341037baba103a37b5b2b71760a11b606082015260800190565b60208082526021908201527f536166654d6174683a206d756c7469706c69636174696f6e206f766572666c6f6040820152607760f81b606082015260800190565b6020808252818101527f4f776e61626c653a2063616c6c6572206973206e6f7420746865206f776e6572604082015260600190565b90815260200190565b918252602082015260400190565b60405181810167ffffffffffffffff811182821017156118ca57600080fd5b604052919050565b600067ffffffffffffffff8211156118e8578081fd5b5060209081020190565b6001600160a01b038116811461190757600080fd5b5056fea2646970667358221220a0c9362b130ed9c9d6801818f2f51d2f61017543388e4724ebde5e98f75ed3ce64736f6c634300060c0033",
  "immutableReferences": {},
  "source": "// SPDX-License-Identifier: MIT\npragma solidity ^0.6.0;\npragma experimental ABIEncoderV2;\n        \nimport \"./common/BasicStruct.sol\";\nimport \"./SwapInterfaces.sol\";\n\ninterface IBoboRouter {\n    function getBaseAmountOut(address inToken, address outToken, uint256 amountIn) external view returns(uint256 amountOut);\n    function swap(address _inToken, address _outToken, uint256 _amountIn, uint256 _minAmountOut, address _orderOwner) external;  // uint256 totalAmountOut, \n}\n\ninterface IBoboPair {\n    function baseToken() view external returns(address);\n    function executeSpecifiedOrder(address _boboRouter, uint256 _orderId, uint256 _amountIn) external;\n    function getTotalOrderNumber(bool _bBuy) view external returns(uint256);\n    function getHeaderOrderIndex(bool _bBuy) view external returns(bool exist, uint256 index);\n    function getOrderInfos(bool _bBuy, uint256 _fromIndex, uint256 _toIndex) view external returns(OrderInfo[] memory orderInfos);\n    function swapTokensForExactTokens(uint256 _orderId, uint256 _outTokenAmountSwapIn) external returns(uint256);\n    function getMaxOutAmountExpected(uint256 _orderId) view external returns(uint256);\n}\n\ninterface IBoboFactory {\n    function getPair(address tokenA, address tokenB) view external returns(address);\n}\n\ncontract BoboRouterEx is Ownable {\n    using SafeMath for uint256;\n    using EnumerableSet for EnumerableSet.AddressSet;\n    \n    IBoboRouter public boboRouter;\n    IBoboFactory public boboFactory;\n    IBoboPair public boboPair;\n    ERC20 public inToken;\n    ERC20 public outToken;\n\n    constructor(address _boboFactory, address _boboRouter) public {\n        boboFactory = IBoboFactory(_boboFactory);\n        boboRouter = IBoboRouter(_boboRouter);\n    }\n\n    function getBaseAmountOut(address _inToken, address _outToken, uint256 _amountIn) public view returns(uint256 amountOut) {\n\n    }\n\n    // pairtokenBoboRouterAMM\n    function swap(ERC20 _inToken, ERC20 _outToken, uint256 _amountIn, uint256 _maxAmountOut, uint256 _minAmountOut, address _orderOwner) public {\n        inToken = _inToken;\n        outToken = _outToken;\n\n        _inToken.transferFrom(msg.sender, address(this), _amountIn);\n\n        address boboPairAddr = boboFactory.getPair(address(_inToken), address(_outToken));\n        boboPair = IBoboPair(boboPairAddr);\n        \n        (uint256 leftAmountIn, uint256 swappedOutTokenAmount) = batchMatchOrders(_amountIn, _minAmountOut);\n                \n        // token\n        if (swappedOutTokenAmount >= _minAmountOut) {\n            swappedOutTokenAmount = swappedOutTokenAmount > _maxAmountOut ? _maxAmountOut : swappedOutTokenAmount;\n            IERC20(_outToken).transfer(msg.sender, swappedOutTokenAmount);\n        } else {   // AMM\n            require(leftAmountIn > 0, \"BoboRotuerEx: left amountIn should be > 0.\");\n            IERC20(_inToken).approve(address(boboRouter), leftAmountIn);\n\n            uint256 outTokenAmount = IERC20(_outToken).balanceOf(address(this));\n            boboRouter.swap(address(_inToken), address(_outToken), leftAmountIn, _minAmountOut.sub(swappedOutTokenAmount), _orderOwner);\n            uint256 amountOutByAMM = ERC20(_outToken).balanceOf(address(this)).sub(outTokenAmount); \n            swappedOutTokenAmount = swappedOutTokenAmount.add(amountOutByAMM);\n            \n            require(swappedOutTokenAmount >= _minAmountOut, \"BoboRotuerEx: can NOT take enough out token.\");\n            swappedOutTokenAmount = swappedOutTokenAmount > _maxAmountOut ? _maxAmountOut : swappedOutTokenAmount;\n            IERC20(_outToken).transfer(msg.sender, swappedOutTokenAmount);\n        }\n    }\n\n    function batchMatchOrders(uint256 _amountIn, uint256 _minAmountOut) private returns(uint256, uint256) {\n        address baseToken = boboPair.baseToken();\n        bool bBuyQuoteToken = address(baseToken) == address(inToken);   // true: swap  false: swap\n        uint256 quoteTokenDecimals = bBuyQuoteToken ? outToken.decimals() : inToken.decimals();\n        uint256 spotPrice = bBuyQuoteToken ? _amountIn.mul(10**quoteTokenDecimals).div(_minAmountOut) \n                                           : _minAmountOut.mul(10**quoteTokenDecimals).div(_amountIn);\n\n        uint256 orderNumber = boboPair.getTotalOrderNumber(!bBuyQuoteToken);\n        uint256 leftAmountIn = _amountIn;   // \n        uint256 swappedOutTokenAmount = 0;  // \n        for (uint256 fromIndex = 0; fromIndex < orderNumber; fromIndex += 1) {            \n            OrderInfo[] memory orderInfos = boboPair.getOrderInfos(!bBuyQuoteToken, fromIndex, fromIndex + 1);\n            \n            if ((bBuyQuoteToken && spotPrice >= orderInfos[0].spotPrice) || (!bBuyQuoteToken && spotPrice <= orderInfos[0].spotPrice)) {  // \n                (uint256 onceSwappedInTokenAmount, uint256 onceSwappedOutTokenAmount) = matchOrder(orderInfos[0], leftAmountIn);\n                leftAmountIn = leftAmountIn.sub(onceSwappedInTokenAmount);\n                swappedOutTokenAmount = swappedOutTokenAmount.add(onceSwappedOutTokenAmount);\n                if (swappedOutTokenAmount >= _minAmountOut || leftAmountIn == 0) {\n                    break;\n                }\n            } else {\n                break;\n            }\n        }\n        return (leftAmountIn, swappedOutTokenAmount);\n    }\n\n    function matchOrder(OrderInfo memory orderInfo, uint256 leftAmountIn) private returns(uint256, uint256) {                            \n        uint256 maxOutAmountExpected = boboPair.getMaxOutAmountExpected(orderInfo.id);\n        uint256 preInTokenBalance = inToken.balanceOf(address(this));\n        uint256 preSwappedOutTokenAmount = outToken.balanceOf(address(this));\n            \n        if (leftAmountIn >= maxOutAmountExpected) {  // inToken\n            inToken.approve(address(boboPair), maxOutAmountExpected);\n            boboPair.swapTokensForExactTokens(orderInfo.id, maxOutAmountExpected);\n        } else {  // \n            inToken.approve(address(boboPair), leftAmountIn);\n            boboPair.swapTokensForExactTokens(orderInfo.id, leftAmountIn);\n        }\n        \n        uint256 newSwappedOutTokenAmount = outToken.balanceOf(address(this));   // outToken\n        uint256 swappedOutTokenBalance = newSwappedOutTokenAmount.sub(preSwappedOutTokenAmount);  // token\n\n        uint256 newInTokenBalance = inToken.balanceOf(address(this));  // inToken\n        uint256 swappedInTokenBalance = newInTokenBalance.sub(preInTokenBalance);   // token\n        \n        return (swappedInTokenBalance, swappedOutTokenBalance);\n    }\n\n    function withdrawToken(address _tokenAddr) public onlyOwner {\n        ERC20(_tokenAddr).transfer(msg.sender, ERC20(_tokenAddr).balanceOf(address(this)));\n    }\n}",
  "sourcePath": "/Users/mryu/blockchain/bobo-metaverse/boboswap-contract/contracts/BoboRouterEx.sol",
  "compiler": {
    "name": "solc",
    "version": "0.6.12+commit.27d51765.Emscripten.clang"
  },
  "schemaVersion": "3.4.3",
  "updatedAt": "2021-10-22T07:24:30.044Z",
  "networkType": "ethereum",
  "devdoc": {
    "kind": "dev",
    "methods": {
      "owner()": {
        "details": "Returns the address of the current owner."
      },
      "renounceOwnership()": {
        "details": "Leaves the contract without owner. It will not be possible to call `onlyOwner` functions anymore. Can only be called by the current owner. NOTE: Renouncing ownership will leave the contract without an owner, thereby removing any functionality that is only available to the owner."
      },
      "transferOwnership(address)": {
        "details": "Transfers ownership of the contract to a new account (`newOwner`). Can only be called by the current owner."
      }
    },
    "version": 1
  },
  "userdoc": {
    "kind": "user",
    "methods": {},
    "version": 1
  }
}