{
  "contractName": "BoboMasterChef",
  "abi": [
    {
      "inputs": [
        {
          "internalType": "address",
          "name": "_boboTokenAddress",
          "type": "address"
        },
        {
          "internalType": "address",
          "name": "_fundAddr",
          "type": "address"
        }
      ],
      "stateMutability": "nonpayable",
      "type": "constructor"
    },
    {
      "anonymous": false,
      "inputs": [
        {
          "indexed": true,
          "internalType": "address",
          "name": "user",
          "type": "address"
        },
        {
          "indexed": true,
          "internalType": "uint256",
          "name": "pid",
          "type": "uint256"
        },
        {
          "indexed": false,
          "internalType": "uint256",
          "name": "amount",
          "type": "uint256"
        }
      ],
      "name": "Deposit",
      "type": "event"
    },
    {
      "anonymous": false,
      "inputs": [
        {
          "indexed": true,
          "internalType": "address",
          "name": "user",
          "type": "address"
        },
        {
          "indexed": true,
          "internalType": "uint256",
          "name": "pid",
          "type": "uint256"
        },
        {
          "indexed": false,
          "internalType": "uint256",
          "name": "amount",
          "type": "uint256"
        }
      ],
      "name": "EmergencyWithdraw",
      "type": "event"
    },
    {
      "anonymous": false,
      "inputs": [
        {
          "indexed": true,
          "internalType": "address",
          "name": "previousOwner",
          "type": "address"
        },
        {
          "indexed": true,
          "internalType": "address",
          "name": "newOwner",
          "type": "address"
        }
      ],
      "name": "OwnershipTransferred",
      "type": "event"
    },
    {
      "anonymous": false,
      "inputs": [
        {
          "indexed": true,
          "internalType": "address",
          "name": "user",
          "type": "address"
        },
        {
          "indexed": true,
          "internalType": "uint256",
          "name": "pid",
          "type": "uint256"
        },
        {
          "indexed": false,
          "internalType": "uint256",
          "name": "amount",
          "type": "uint256"
        },
        {
          "indexed": false,
          "internalType": "uint256",
          "name": "reward",
          "type": "uint256"
        }
      ],
      "name": "Withdraw",
      "type": "event"
    },
    {
      "inputs": [],
      "name": "boboPerBlock",
      "outputs": [
        {
          "internalType": "uint256",
          "name": "",
          "type": "uint256"
        }
      ],
      "stateMutability": "view",
      "type": "function",
      "constant": true
    },
    {
      "inputs": [],
      "name": "boboToken",
      "outputs": [
        {
          "internalType": "contract IBOBOToken",
          "name": "",
          "type": "address"
        }
      ],
      "stateMutability": "view",
      "type": "function",
      "constant": true
    },
    {
      "inputs": [],
      "name": "denominator",
      "outputs": [
        {
          "internalType": "uint256",
          "name": "",
          "type": "uint256"
        }
      ],
      "stateMutability": "view",
      "type": "function",
      "constant": true
    },
    {
      "inputs": [],
      "name": "fundAddr",
      "outputs": [
        {
          "internalType": "address",
          "name": "",
          "type": "address"
        }
      ],
      "stateMutability": "view",
      "type": "function",
      "constant": true
    },
    {
      "inputs": [],
      "name": "numerator",
      "outputs": [
        {
          "internalType": "uint256",
          "name": "",
          "type": "uint256"
        }
      ],
      "stateMutability": "view",
      "type": "function",
      "constant": true
    },
    {
      "inputs": [],
      "name": "owner",
      "outputs": [
        {
          "internalType": "address",
          "name": "",
          "type": "address"
        }
      ],
      "stateMutability": "view",
      "type": "function",
      "constant": true
    },
    {
      "inputs": [
        {
          "internalType": "uint256",
          "name": "",
          "type": "uint256"
        }
      ],
      "name": "poolList",
      "outputs": [
        {
          "internalType": "contract IERC20",
          "name": "lpToken",
          "type": "address"
        },
        {
          "internalType": "uint256",
          "name": "allocPoint",
          "type": "uint256"
        },
        {
          "internalType": "uint256",
          "name": "lastRewardBlock",
          "type": "uint256"
        },
        {
          "internalType": "uint256",
          "name": "accBoboPerShare",
          "type": "uint256"
        }
      ],
      "stateMutability": "view",
      "type": "function",
      "constant": true
    },
    {
      "inputs": [],
      "name": "renounceOwnership",
      "outputs": [],
      "stateMutability": "nonpayable",
      "type": "function"
    },
    {
      "inputs": [],
      "name": "startBlock",
      "outputs": [
        {
          "internalType": "uint256",
          "name": "",
          "type": "uint256"
        }
      ],
      "stateMutability": "view",
      "type": "function",
      "constant": true
    },
    {
      "inputs": [],
      "name": "totalAllocPoint",
      "outputs": [
        {
          "internalType": "uint256",
          "name": "",
          "type": "uint256"
        }
      ],
      "stateMutability": "view",
      "type": "function",
      "constant": true
    },
    {
      "inputs": [
        {
          "internalType": "address",
          "name": "newOwner",
          "type": "address"
        }
      ],
      "name": "transferOwnership",
      "outputs": [],
      "stateMutability": "nonpayable",
      "type": "function"
    },
    {
      "inputs": [
        {
          "internalType": "uint256",
          "name": "",
          "type": "uint256"
        },
        {
          "internalType": "address",
          "name": "",
          "type": "address"
        }
      ],
      "name": "userInfoMap",
      "outputs": [
        {
          "internalType": "uint256",
          "name": "amount",
          "type": "uint256"
        },
        {
          "internalType": "uint256",
          "name": "rewardDebt",
          "type": "uint256"
        }
      ],
      "stateMutability": "view",
      "type": "function",
      "constant": true
    },
    {
      "inputs": [
        {
          "internalType": "uint256",
          "name": "_boboPerBlock",
          "type": "uint256"
        }
      ],
      "name": "setBoboPerBlock",
      "outputs": [],
      "stateMutability": "nonpayable",
      "type": "function"
    },
    {
      "inputs": [
        {
          "internalType": "uint256",
          "name": "_numerator",
          "type": "uint256"
        },
        {
          "internalType": "uint256",
          "name": "_denominator",
          "type": "uint256"
        }
      ],
      "name": "setFundScale",
      "outputs": [],
      "stateMutability": "nonpayable",
      "type": "function"
    },
    {
      "inputs": [
        {
          "internalType": "address",
          "name": "_fundAddr",
          "type": "address"
        }
      ],
      "name": "setFundAddr",
      "outputs": [],
      "stateMutability": "nonpayable",
      "type": "function"
    },
    {
      "inputs": [],
      "name": "poolLength",
      "outputs": [
        {
          "internalType": "uint256",
          "name": "",
          "type": "uint256"
        }
      ],
      "stateMutability": "view",
      "type": "function",
      "constant": true
    },
    {
      "inputs": [
        {
          "internalType": "uint256",
          "name": "_allocPoint",
          "type": "uint256"
        },
        {
          "internalType": "address",
          "name": "_lpToken",
          "type": "address"
        },
        {
          "internalType": "bool",
          "name": "_withUpdate",
          "type": "bool"
        }
      ],
      "name": "addPool",
      "outputs": [],
      "stateMutability": "nonpayable",
      "type": "function"
    },
    {
      "inputs": [
        {
          "internalType": "uint256",
          "name": "_pid",
          "type": "uint256"
        },
        {
          "internalType": "uint256",
          "name": "_allocPoint",
          "type": "uint256"
        },
        {
          "internalType": "bool",
          "name": "_withUpdate",
          "type": "bool"
        }
      ],
      "name": "setPoolPoint",
      "outputs": [],
      "stateMutability": "nonpayable",
      "type": "function"
    },
    {
      "inputs": [],
      "name": "isStartMining",
      "outputs": [
        {
          "internalType": "bool",
          "name": "",
          "type": "bool"
        }
      ],
      "stateMutability": "view",
      "type": "function",
      "constant": true
    },
    {
      "inputs": [
        {
          "internalType": "uint256",
          "name": "_from",
          "type": "uint256"
        },
        {
          "internalType": "uint256",
          "name": "_to",
          "type": "uint256"
        }
      ],
      "name": "getMultiplier",
      "outputs": [
        {
          "internalType": "uint256",
          "name": "",
          "type": "uint256"
        }
      ],
      "stateMutability": "pure",
      "type": "function",
      "constant": true
    },
    {
      "inputs": [
        {
          "internalType": "uint256",
          "name": "_pid",
          "type": "uint256"
        },
        {
          "internalType": "address",
          "name": "_user",
          "type": "address"
        }
      ],
      "name": "pendingBobo",
      "outputs": [
        {
          "internalType": "uint256",
          "name": "",
          "type": "uint256"
        }
      ],
      "stateMutability": "view",
      "type": "function",
      "constant": true
    },
    {
      "inputs": [],
      "name": "massUpdatePools",
      "outputs": [],
      "stateMutability": "nonpayable",
      "type": "function"
    },
    {
      "inputs": [
        {
          "internalType": "uint256",
          "name": "_pid",
          "type": "uint256"
        }
      ],
      "name": "updatePool",
      "outputs": [],
      "stateMutability": "nonpayable",
      "type": "function"
    },
    {
      "inputs": [
        {
          "internalType": "uint256",
          "name": "_pid",
          "type": "uint256"
        },
        {
          "internalType": "uint256",
          "name": "_amount",
          "type": "uint256"
        }
      ],
      "name": "deposit",
      "outputs": [],
      "stateMutability": "nonpayable",
      "type": "function"
    },
    {
      "inputs": [
        {
          "internalType": "uint256",
          "name": "_pid",
          "type": "uint256"
        },
        {
          "internalType": "uint256",
          "name": "_lpAmount",
          "type": "uint256"
        }
      ],
      "name": "withdraw",
      "outputs": [],
      "stateMutability": "nonpayable",
      "type": "function"
    },
    {
      "inputs": [
        {
          "internalType": "uint256",
          "name": "_pid",
          "type": "uint256"
        }
      ],
      "name": "emergencyWithdraw",
      "outputs": [],
      "stateMutability": "nonpayable",
      "type": "function"
    }
  ],
  "bytecode": "0x608060405260006005553480156200001657600080fd5b5060405162001a6738038062001a678339810160408190526200003991620000cf565b600062000045620000cb565b600080546001600160a01b0319166001600160a01b0383169081178255604051929350917f8be0079c531659141344cd1fd0a4f28419497f9722a3daafe3b4186f6b6457e0908290a350600180546001600160a01b039384166001600160a01b031991821617909155600980549290931691161790556002600755600360065562000126565b3390565b60008060408385031215620000e2578182fd5b8251620000ef816200010d565b602084015190925062000102816200010d565b809150509250929050565b6001600160a01b03811681146200012357600080fd5b50565b61193180620001366000396000f3fe608060405234801561001057600080fd5b506004361061018e5760003560e01c8063630b5ba1116100de5780638da5cb5b11610097578063ce5f945411610071578063ce5f945414610317578063d8fc5d7b1461031f578063e2bbb15814610327578063f2fde38b1461033a5761018e565b80638da5cb5b146102f45780638dbb1e3a146102fc57806396ce07951461030f5761018e565b8063630b5ba1146102a1578063682cb911146102a95780636f39cfcd146102b1578063715018a6146102c45780637a841420146102cc5780637abceffd146102e15761018e565b8063441a3e701161014b5780635312ea8e116101255780635312ea8e1461024557806355d59a151461025857806355fc232c1461026b5780635f02c145146102805761018e565b8063441a3e701461021757806348cd4cb11461022a57806351eb05a6146102325761018e565b8063081e3eda1461019357806317caf6f1146101b15780631ddff494146101b95780631de47f28146101ce5780632a48235b146101e157806342bb5e3514610204575b600080fd5b61019b61034d565b6040516101a891906118aa565b60405180910390f35b61019b610353565b6101cc6101c73660046115c6565b610359565b005b6101cc6101dc366004611509565b610410565b6101f46101ef366004611509565b610452565b6040516101a8949392919061166b565b61019b610212366004611539565b610493565b6101cc6102253660046115a5565b61063a565b61019b61076c565b6101cc610240366004611509565b610772565b6101cc610253366004611509565b610a4e565b6101cc6102663660046115a5565b610af2565b610273610b32565b6040516101a8919061160f565b61029361028e366004611539565b610b41565b6040516101a89291906118b3565b6101cc610b65565b610273610b88565b6101cc6102bf3660046114d2565b610b97565b6101cc610bee565b6102d4610c6d565b6040516101a89190611660565b6101cc6102ef366004611565565b610c76565b610273610dce565b61019b61030a3660046115a5565b610ddd565b61019b610df0565b61019b610df6565b61019b610dfc565b6101cc6103353660046115a5565b610e02565b6101cc6103483660046114d2565b610efe565b60035490565b60055481565b610361610fb4565b6000546001600160a01b039081169116146103975760405162461bcd60e51b815260040161038e906117c8565b60405180910390fd5b80156103a5576103a5610b65565b6103e2826103dc600386815481106103b957fe5b906000526020600020906004020160010154600554610fb890919063ffffffff16565b90610ffa565b60058190555081600384815481106103f657fe5b906000526020600020906004020160010181905550505050565b610418610fb4565b6000546001600160a01b039081169116146104455760405162461bcd60e51b815260040161038e906117c8565b61044d610b65565b600255565b6003818154811061045f57fe5b600091825260209091206004909102018054600182015460028301546003909301546001600160a01b039092169350919084565b60035460009083106104a757506000610634565b6000600384815481106104b657fe5b60009182526020808320878452600480835260408086206001600160a01b038a1687529093529190932080549290910290920192506104fa57600092505050610634565b600382015482546040516370a0823160e01b81526000916001600160a01b0316906370a082319061052f90309060040161160f565b60206040518083038186803b15801561054757600080fd5b505afa15801561055b573d6000803e3d6000fd5b505050506040513d601f19601f8201168201806040525081019061057f9190611521565b905083600201544311801561059357508015155b156105ff5760006105a8856002015443610ddd565b905060006105db6005546105d588600101546105cf6002548761101f90919063ffffffff16565b9061101f565b90611059565b90506105fa6105f3846105d58464e8d4a5100061101f565b8590610ffa565b935050505b61062d836001015461062764e8d4a510006105d586886000015461101f90919063ffffffff16565b90610fb8565b9450505050505b92915050565b60006003838154811061064957fe5b60009182526020808320868452600480835260408086203387529093529190932080549290910290920192508311156106945760405162461bcd60e51b815260040161038e90611834565b61069d84610772565b60006106cb826001015461062764e8d4a510006105d58760030154876000015461101f90919063ffffffff16565b905080156106dd576106dd338261109b565b83156107075781546106ef9085610fb8565b82558254610707906001600160a01b0316338661123b565b600383015482546107229164e8d4a51000916105d59161101f565b6001830155604051859033907f02f25270a4d87bea75db541cdfe559334a275b4a233520ed6c0a2429667cca949061075d90889086906118b3565b60405180910390a35050505050565b60085481565b60006003828154811061078157fe5b90600052602060002090600402019050806002015443116107a25750610a4b565b80546040516370a0823160e01b81526000916001600160a01b0316906370a08231906107d290309060040161160f565b60206040518083038186803b1580156107ea57600080fd5b505afa1580156107fe573d6000803e3d6000fd5b505050506040513d601f19601f820116820180604052508101906108229190611521565b905080610836575043600290910155610a4b565b6000610846836002015443610ddd565b9050600061086d6005546105d586600101546105cf6002548761101f90919063ffffffff16565b90508015610a3d5760006108926006546105d56007548561101f90919063ffffffff16565b6001549091506001600160a01b03166340c10f19306108b18585610ffa565b6040518363ffffffff1660e01b81526004016108ce929190611647565b602060405180830381600087803b1580156108e857600080fd5b505af11580156108fc573d6000803e3d6000fd5b505050506040513d601f19601f8201168201806040525081019061092091906114ed565b5060015460095460405163095ea7b360e01b81526001600160a01b039283169263095ea7b392610957929116908590600401611647565b602060405180830381600087803b15801561097157600080fd5b505af1158015610985573d6000803e3d6000fd5b505050506040513d601f19601f820116820180604052508101906109a991906114ed565b50600954604051632a5360c760e21b81526001600160a01b039091169063a94d831c906109da9084906004016118aa565b600060405180830381600087803b1580156109f457600080fd5b505af1158015610a08573d6000803e3d6000fd5b50505050610a36610a2b856105d564e8d4a510008661101f90919063ffffffff16565b600387015490610ffa565b6003860155505b438460020181905550505050505b50565b600060038281548110610a5d57fe5b60009182526020808320858452600480835260408086203380885294528520805486825560018201969096559302018054909450919291610aaa916001600160a01b03909116908361123b565b83336001600160a01b03167fbb757047c2b5f3974fe26b7c10f732e7bce710b0952a71082702781e62ae059583604051610ae491906118aa565b60405180910390a350505050565b610afa610fb4565b6000546001600160a01b03908116911614610b275760405162461bcd60e51b815260040161038e906117c8565b600791909155600655565b6001546001600160a01b031681565b60046020908152600092835260408084209091529082529020805460019091015482565b60035460005b81811015610b8457610b7c81610772565b600101610b6b565b5050565b6009546001600160a01b031681565b610b9f610fb4565b6000546001600160a01b03908116911614610bcc5760405162461bcd60e51b815260040161038e906117c8565b600980546001600160a01b0319166001600160a01b0392909216919091179055565b610bf6610fb4565b6000546001600160a01b03908116911614610c235760405162461bcd60e51b815260040161038e906117c8565b600080546040516001600160a01b03909116907f8be0079c531659141344cd1fd0a4f28419497f9722a3daafe3b4186f6b6457e0908390a3600080546001600160a01b0319169055565b60085443101590565b610c7e610fb4565b6000546001600160a01b03908116911614610cab5760405162461bcd60e51b815260040161038e906117c8565b8015610cb957610cb9610b65565b60006008544311610ccc57600854610cce565b435b600554909150610cde9085610ffa565b600555604080516080810182526001600160a01b0394851681526020810195865290810191825260006060820181815260038054600181018255925291517fc2575a0e9e593c00f959f8c92f12db2869c3395a3b0502d05e2516446f71f85b600490920291820180546001600160a01b031916919096161790945593517fc2575a0e9e593c00f959f8c92f12db2869c3395a3b0502d05e2516446f71f85c840155517fc2575a0e9e593c00f959f8c92f12db2869c3395a3b0502d05e2516446f71f85d8301555090517fc2575a0e9e593c00f959f8c92f12db2869c3395a3b0502d05e2516446f71f85e90910155565b6000546001600160a01b031690565b6000610de98284610fb8565b9392505050565b60065481565b60075481565b60025481565b600060038381548110610e1157fe5b60009182526020808320868452600480835260408086203387529093529190932091029091019150610e4284610772565b805415610e85576000610e77826001015461062764e8d4a510006105d58760030154876000015461101f90919063ffffffff16565b9050610e83338261109b565b505b8154610e9c906001600160a01b0316333086611291565b8054610ea89084610ffa565b8082556003830154610ec59164e8d4a51000916105d5919061101f565b6001820155604051849033907f90890809c654f11d6e72a28fa60149770a0d11ec6c92319d6ceb2bb0a4ea1a1590610ae49087906118aa565b610f06610fb4565b6000546001600160a01b03908116911614610f335760405162461bcd60e51b815260040161038e906117c8565b6001600160a01b038116610f595760405162461bcd60e51b815260040161038e906116c4565b600080546040516001600160a01b03808516939216917f8be0079c531659141344cd1fd0a4f28419497f9722a3daafe3b4186f6b6457e091a3600080546001600160a01b0319166001600160a01b0392909216919091179055565b3390565b6000610de983836040518060400160405280601e81526020017f536166654d6174683a207375627472616374696f6e206f766572666c6f7700008152506112b2565b600082820183811015610de95760405162461bcd60e51b815260040161038e9061170a565b60008261102e57506000610634565b8282028284828161103b57fe5b0414610de95760405162461bcd60e51b815260040161038e90611787565b6000610de983836040518060400160405280601a81526020017f536166654d6174683a206469766973696f6e206279207a65726f0000000000008152506112de565b6001546040516370a0823160e01b81526000916001600160a01b0316906370a08231906110cc90309060040161160f565b60206040518083038186803b1580156110e457600080fd5b505afa1580156110f8573d6000803e3d6000fd5b505050506040513d601f19601f8201168201806040525081019061111c9190611521565b9050808211156111b05760015460405163a9059cbb60e01b81526001600160a01b039091169063a9059cbb906111589086908590600401611647565b602060405180830381600087803b15801561117257600080fd5b505af1158015611186573d6000803e3d6000fd5b505050506040513d601f19601f820116820180604052508101906111aa91906114ed565b50611236565b60015460405163a9059cbb60e01b81526001600160a01b039091169063a9059cbb906111e29086908690600401611647565b602060405180830381600087803b1580156111fc57600080fd5b505af1158015611210573d6000803e3d6000fd5b505050506040513d601f19601f8201168201806040525081019061123491906114ed565b505b505050565b6112368363a9059cbb60e01b848460405160240161125a929190611647565b60408051601f198184030181529190526020810180516001600160e01b03166001600160e01b031990931692909217909152611315565b611234846323b872dd60e01b85858560405160240161125a93929190611623565b600081848411156112d65760405162461bcd60e51b815260040161038e9190611691565b505050900390565b600081836112ff5760405162461bcd60e51b815260040161038e9190611691565b50600083858161130b57fe5b0495945050505050565b606061136a826040518060400160405280602081526020017f5361666545524332303a206c6f772d6c6576656c2063616c6c206661696c6564815250856001600160a01b03166113a49092919063ffffffff16565b805190915015611236578080602001905181019061138891906114ed565b6112365760405162461bcd60e51b815260040161038e90611860565b60606113b384846000856113bb565b949350505050565b6060824710156113dd5760405162461bcd60e51b815260040161038e90611741565b6113e68561147c565b6114025760405162461bcd60e51b815260040161038e906117fd565b60006060866001600160a01b0316858760405161141f91906115f3565b60006040518083038185875af1925050503d806000811461145c576040519150601f19603f3d011682016040523d82523d6000602084013e611461565b606091505b5091509150611471828286611482565b979650505050505050565b3b151590565b60608315611491575081610de9565b8251156114a15782518084602001fd5b8160405162461bcd60e51b815260040161038e9190611691565b80356001600160a01b038116811461063457600080fd5b6000602082840312156114e3578081fd5b610de983836114bb565b6000602082840312156114fe578081fd5b8151610de9816118ed565b60006020828403121561151a578081fd5b5035919050565b600060208284031215611532578081fd5b5051919050565b6000806040838503121561154b578081fd5b8235915061155c84602085016114bb565b90509250929050565b600080600060608486031215611579578081fd5b8335925061158a85602086016114bb565b9150604084013561159a816118ed565b809150509250925092565b600080604083850312156115b7578182fd5b50508035926020909101359150565b6000806000606084860312156115da578283fd5b8335925060208401359150604084013561159a816118ed565b600082516116058184602087016118c1565b9190910192915050565b6001600160a01b0391909116815260200190565b6001600160a01b039384168152919092166020820152604081019190915260600190565b6001600160a01b03929092168252602082015260400190565b901515815260200190565b6001600160a01b0394909416845260208401929092526040830152606082015260800190565b60006020825282518060208401526116b08160408501602087016118c1565b601f01601f19169190910160400192915050565b60208082526026908201527f4f776e61626c653a206e6577206f776e657220697320746865207a65726f206160408201526564647265737360d01b606082015260800190565b6020808252601b908201527f536166654d6174683a206164646974696f6e206f766572666c6f770000000000604082015260600190565b60208082526026908201527f416464726573733a20696e73756666696369656e742062616c616e636520666f6040820152651c8818d85b1b60d21b606082015260800190565b60208082526021908201527f536166654d6174683a206d756c7469706c69636174696f6e206f766572666c6f6040820152607760f81b606082015260800190565b6020808252818101527f4f776e61626c653a2063616c6c6572206973206e6f7420746865206f776e6572604082015260600190565b6020808252601d908201527f416464726573733a2063616c6c20746f206e6f6e2d636f6e7472616374000000604082015260600190565b6020808252601290820152711dda5d1a191c985dce881b9bdd0819dbdbd960721b604082015260600190565b6020808252602a908201527f5361666545524332303a204552433230206f7065726174696f6e20646964206e6040820152691bdd081cdd58d8d9595960b21b606082015260800190565b90815260200190565b918252602082015260400190565b60005b838110156118dc5781810151838201526020016118c4565b838111156112345750506000910152565b8015158114610a4b57600080fdfea26469706673582212207a9139f8fd5dfda8bf8742f54ace12155a211cb94c2d09a17a0f83752517e01c64736f6c634300060c0033",
  "immutableReferences": {},
  "source": "// SPDX-License-Identifier: MIT\npragma solidity ^0.6.0;\npragma experimental ABIEncoderV2;\n        \nimport \"./common/BasicStruct.sol\";\n\n\ncontract BoboMasterChef is Ownable {\n    using SafeMath for uint256;\n    using SafeERC20 for IERC20;\n\n    // \n    struct UserInfo {\n        uint256 amount;\n        uint256 rewardDebt;  \n    }\n\n    // \n    struct PoolInfo {\n        IERC20 lpToken;           \n        uint256 allocPoint;       // \n        uint256 lastRewardBlock;  \n        uint256 accBoboPerShare;   \n    }\n\n    IBOBOToken public boboToken;\n    uint256 public boboPerBlock;\n\n    PoolInfo[] public poolList;         // 1\n    \n    mapping (uint256 => mapping (address => UserInfo)) public userInfoMap;  // 2\n    \n    uint256 public totalAllocPoint = 0;\n    uint256 public denominator;\n    uint256 public numerator;\n    \n    uint256 public startBlock;  // 3\n    address public fundAddr;\n\n    event Deposit(address indexed user, uint256 indexed pid, uint256 amount);\n    event Withdraw(address indexed user, uint256 indexed pid, uint256 amount, uint256 reward);\n    event EmergencyWithdraw(address indexed user, uint256 indexed pid, uint256 amount);\n\n    constructor(\n        address _boboTokenAddress, \n        address _fundAddr\n    ) public {\n        boboToken = IBOBOToken(_boboTokenAddress);\n        fundAddr = _fundAddr;\n        numerator = 2;\n        denominator = 3;\n    }\n    \n    function setBoboPerBlock(          \n        uint256 _boboPerBlock\n    ) public onlyOwner {\n        massUpdatePools();\n        boboPerBlock = _boboPerBlock;\n    }\n\n    function setFundScale(uint256 _numerator, uint256 _denominator) public onlyOwner {\n        numerator = _numerator;\n        denominator = _denominator;\n    }\n\n    function setFundAddr(address _fundAddr) public onlyOwner {\n        fundAddr = _fundAddr;\n    }\n\n    function poolLength() external view returns (uint256) {\n        return poolList.length;\n    }\n\n    function addPool(uint256 _allocPoint, address _lpToken, bool _withUpdate) public onlyOwner {\n        if (_withUpdate) {\n            massUpdatePools();\n        }\n        uint256 lastRewardBlock = block.number > startBlock ? block.number : startBlock;\n        totalAllocPoint = totalAllocPoint.add(_allocPoint);   // \n        poolList.push(PoolInfo({\n            lpToken: (IERC20)(_lpToken),\n            allocPoint: _allocPoint,\n            lastRewardBlock: lastRewardBlock,\n            accBoboPerShare: 0\n        }));\n    }\n\n    function setPoolPoint(uint256 _pid, uint256 _allocPoint, bool _withUpdate) public onlyOwner {\n        if (_withUpdate) {\n            massUpdatePools();\n        }\n        totalAllocPoint = totalAllocPoint.sub(poolList[_pid].allocPoint).add(_allocPoint);\n        poolList[_pid].allocPoint = _allocPoint;\n    }\n\n    function isStartMining() public view returns(bool) {\n        return block.number >= startBlock;\n    }\n\n    function getMultiplier(uint256 _from, uint256 _to) public pure returns (uint256) {\n        return _to.sub(_from);\n    }\n\n    // bobo4\n    function pendingBobo(uint256 _pid, address _user) external view returns (uint256) {\n        if (poolList.length <= _pid) return 0;\n        PoolInfo storage pool = poolList[_pid];\n        UserInfo storage user = userInfoMap[_pid][_user];\n        if (user.amount == 0) return 0;\n        uint256 accBoboPerShare = pool.accBoboPerShare;   // bobo\n        uint256 lpSupply = pool.lpToken.balanceOf(address(this));   // LP token\n        if (block.number > pool.lastRewardBlock && lpSupply != 0) {\n            uint256 multiplier = getMultiplier(pool.lastRewardBlock, block.number);\n            // bobo\n            uint256 boboReward = multiplier.mul(boboPerBlock).mul(pool.allocPoint).div(totalAllocPoint);\n            accBoboPerShare = accBoboPerShare.add(boboReward.mul(1e12).div(lpSupply));   // 1e121e12\n        }\n        return user.amount.mul(accBoboPerShare).div(1e12).sub(user.rewardDebt);  \n    }\n\n    // \n    function massUpdatePools() public {\n        uint256 length = poolList.length;\n        for (uint256 pid = 0; pid < length; ++pid) {\n            updatePool(pid);\n        }\n    }\n\n    function updatePool(uint256 _pid) public {\n        PoolInfo storage pool = poolList[_pid];\n        if (block.number <= pool.lastRewardBlock) {\n            return;\n        }\n        uint256 lpSupply = pool.lpToken.balanceOf(address(this));   // LP\n        if (lpSupply == 0) {\n            pool.lastRewardBlock = block.number;\n            return;\n        }\n        uint256 multiplier = getMultiplier(pool.lastRewardBlock, block.number);  // \n        uint256 boboReward = multiplier.mul(boboPerBlock).mul(pool.allocPoint).div(totalAllocPoint);   // bobo\n        if (boboReward > 0) {\n            uint256 fundAmount = boboReward.mul(numerator).div(denominator);\n            boboToken.mint(address(this), boboReward.add(fundAmount));\n            boboToken.approve(fundAddr, fundAmount);\n            IBoboFund(fundAddr).transferBobo(fundAmount);\n            pool.accBoboPerShare = pool.accBoboPerShare.add(boboReward.mul(1e12).div(lpSupply));\n        }\n\n        pool.lastRewardBlock = block.number;        // \n    }\n\n    // LP5\n    // _pid:   \n    // _amount: \n    function deposit(uint256 _pid, uint256 _amount) public {\n        PoolInfo storage pool = poolList[_pid];            // \n        UserInfo storage user = userInfoMap[_pid][msg.sender];  // \n        updatePool(_pid);\n        if (user.amount > 0) {\n            // pending\n            uint256 pending = user.amount.mul(pool.accBoboPerShare).div(1e12).sub(user.rewardDebt);\n            safeBoboTransfer(msg.sender, pending);\n        }\n        pool.lpToken.safeTransferFrom(address(msg.sender), address(this), _amount);  // lp\n        user.amount = user.amount.add(_amount);          // LPLP\n        user.rewardDebt = user.amount.mul(pool.accBoboPerShare).div(1e12);    \n        emit Deposit(msg.sender, _pid, _amount);\n    }\n\n    // LP6\n    // _pid:   \n    // _amount: LP\n    //          1: _amount0BOBO\n    //          2: _amountBOBOLP\n    //          3: _amountBOBOLP\n    function withdraw(uint256 _pid, uint256 _lpAmount) public {\n        PoolInfo storage pool = poolList[_pid];\n        UserInfo storage user = userInfoMap[_pid][msg.sender];\n        require(user.amount >= _lpAmount, \"withdraw: not good\");\n        updatePool(_pid);\n        uint256 pending = user.amount.mul(pool.accBoboPerShare).div(1e12).sub(user.rewardDebt);\n        if (pending > 0) {\n            safeBoboTransfer(msg.sender, pending);\n        }\n        if (_lpAmount > 0) {\n            user.amount = user.amount.sub(_lpAmount);\n            pool.lpToken.safeTransfer(address(msg.sender), _lpAmount);  \n        }\n        user.rewardDebt = user.amount.mul(pool.accBoboPerShare).div(1e12);\n        emit Withdraw(msg.sender, _pid, _lpAmount, pending);\n    }\n\n    // LP\n    function emergencyWithdraw(uint256 _pid) public {\n        PoolInfo storage pool = poolList[_pid];\n        UserInfo storage user = userInfoMap[_pid][msg.sender];\n        uint256 amount = user.amount;\n        user.amount = 0;\n        user.rewardDebt = 0;\n        pool.lpToken.safeTransfer(address(msg.sender), amount);\n        emit EmergencyWithdraw(msg.sender, _pid, amount);\n    }\n\n    // bobo.\n    function safeBoboTransfer(address _to, uint256 _amount) internal {\n        uint256 boboBal = boboToken.balanceOf(address(this));\n        if (_amount > boboBal) {\n            boboToken.transfer(_to, boboBal);\n        } else {\n            boboToken.transfer(_to, _amount);\n        }\n    }\n}",
  "sourcePath": "/Users/mryu/blockchain/bobo-metaverse/boboswap-contract/contracts/BoboFarmer4BoboLP.sol",
  "compiler": {
    "name": "solc",
    "version": "0.6.12+commit.27d51765.Emscripten.clang"
  },
  "schemaVersion": "3.4.3",
  "updatedAt": "2021-09-09T05:46:19.803Z",
  "networkType": "ethereum",
  "devdoc": {
    "kind": "dev",
    "methods": {
      "owner()": {
        "details": "Returns the address of the current owner."
      },
      "renounceOwnership()": {
        "details": "Leaves the contract without owner. It will not be possible to call `onlyOwner` functions anymore. Can only be called by the current owner. NOTE: Renouncing ownership will leave the contract without an owner, thereby removing any functionality that is only available to the owner."
      },
      "transferOwnership(address)": {
        "details": "Transfers ownership of the contract to a new account (`newOwner`). Can only be called by the current owner."
      }
    },
    "version": 1
  },
  "userdoc": {
    "kind": "user",
    "methods": {},
    "version": 1
  }
}