{
  "contractName": "BoboFarmer4TradeMining",
  "abi": [
    {
      "inputs": [
        {
          "internalType": "contract IBOBOToken",
          "name": "_bobo",
          "type": "address"
        },
        {
          "internalType": "contract IERC721",
          "name": "_nftToken",
          "type": "address"
        },
        {
          "internalType": "address",
          "name": "_fundContractAddr",
          "type": "address"
        },
        {
          "internalType": "uint256",
          "name": "_boboPerBlock",
          "type": "uint256"
        },
        {
          "internalType": "uint256",
          "name": "_startBlock",
          "type": "uint256"
        },
        {
          "internalType": "uint256",
          "name": "_endBlock",
          "type": "uint256"
        },
        {
          "internalType": "uint256",
          "name": "_nftStartTime",
          "type": "uint256"
        },
        {
          "internalType": "uint256",
          "name": "_nftEndTime",
          "type": "uint256"
        }
      ],
      "stateMutability": "nonpayable",
      "type": "constructor"
    },
    {
      "anonymous": false,
      "inputs": [
        {
          "indexed": true,
          "internalType": "address",
          "name": "user",
          "type": "address"
        },
        {
          "indexed": true,
          "internalType": "uint256",
          "name": "pid",
          "type": "uint256"
        },
        {
          "indexed": false,
          "internalType": "uint256[]",
          "name": "nftIds",
          "type": "uint256[]"
        }
      ],
      "name": "Deposit",
      "type": "event"
    },
    {
      "anonymous": false,
      "inputs": [
        {
          "indexed": true,
          "internalType": "address",
          "name": "user",
          "type": "address"
        },
        {
          "indexed": true,
          "internalType": "uint256",
          "name": "pid",
          "type": "uint256"
        }
      ],
      "name": "EmergencyWithdraw",
      "type": "event"
    },
    {
      "anonymous": false,
      "inputs": [
        {
          "indexed": true,
          "internalType": "address",
          "name": "previousOwner",
          "type": "address"
        },
        {
          "indexed": true,
          "internalType": "address",
          "name": "newOwner",
          "type": "address"
        }
      ],
      "name": "OwnershipTransferred",
      "type": "event"
    },
    {
      "anonymous": false,
      "inputs": [
        {
          "indexed": true,
          "internalType": "address",
          "name": "user",
          "type": "address"
        },
        {
          "indexed": true,
          "internalType": "uint256",
          "name": "pid",
          "type": "uint256"
        },
        {
          "indexed": false,
          "internalType": "uint256[]",
          "name": "nftIds",
          "type": "uint256[]"
        }
      ],
      "name": "Withdraw",
      "type": "event"
    },
    {
      "anonymous": false,
      "inputs": [
        {
          "indexed": true,
          "internalType": "address",
          "name": "user",
          "type": "address"
        },
        {
          "indexed": true,
          "internalType": "uint256",
          "name": "pid",
          "type": "uint256"
        }
      ],
      "name": "WithdrawAll",
      "type": "event"
    },
    {
      "inputs": [],
      "name": "bobo",
      "outputs": [
        {
          "internalType": "contract IBOBOToken",
          "name": "",
          "type": "address"
        }
      ],
      "stateMutability": "view",
      "type": "function",
      "constant": true
    },
    {
      "inputs": [],
      "name": "boboPerBlock",
      "outputs": [
        {
          "internalType": "uint256",
          "name": "",
          "type": "uint256"
        }
      ],
      "stateMutability": "view",
      "type": "function",
      "constant": true
    },
    {
      "inputs": [],
      "name": "denominator",
      "outputs": [
        {
          "internalType": "uint256",
          "name": "",
          "type": "uint256"
        }
      ],
      "stateMutability": "view",
      "type": "function",
      "constant": true
    },
    {
      "inputs": [],
      "name": "endBlock",
      "outputs": [
        {
          "internalType": "uint256",
          "name": "",
          "type": "uint256"
        }
      ],
      "stateMutability": "view",
      "type": "function",
      "constant": true
    },
    {
      "inputs": [],
      "name": "fundContractAddr",
      "outputs": [
        {
          "internalType": "address",
          "name": "",
          "type": "address"
        }
      ],
      "stateMutability": "view",
      "type": "function",
      "constant": true
    },
    {
      "inputs": [],
      "name": "nftEndTime",
      "outputs": [
        {
          "internalType": "uint256",
          "name": "",
          "type": "uint256"
        }
      ],
      "stateMutability": "view",
      "type": "function",
      "constant": true
    },
    {
      "inputs": [],
      "name": "nftStartTime",
      "outputs": [
        {
          "internalType": "uint256",
          "name": "",
          "type": "uint256"
        }
      ],
      "stateMutability": "view",
      "type": "function",
      "constant": true
    },
    {
      "inputs": [],
      "name": "nftToken",
      "outputs": [
        {
          "internalType": "contract IERC721",
          "name": "",
          "type": "address"
        }
      ],
      "stateMutability": "view",
      "type": "function",
      "constant": true
    },
    {
      "inputs": [],
      "name": "numerator",
      "outputs": [
        {
          "internalType": "uint256",
          "name": "",
          "type": "uint256"
        }
      ],
      "stateMutability": "view",
      "type": "function",
      "constant": true
    },
    {
      "inputs": [],
      "name": "owner",
      "outputs": [
        {
          "internalType": "address",
          "name": "",
          "type": "address"
        }
      ],
      "stateMutability": "view",
      "type": "function",
      "constant": true
    },
    {
      "inputs": [
        {
          "internalType": "uint256",
          "name": "",
          "type": "uint256"
        }
      ],
      "name": "poolInfo",
      "outputs": [
        {
          "internalType": "uint256",
          "name": "totalWeightOfNFT",
          "type": "uint256"
        },
        {
          "internalType": "uint256",
          "name": "lastRewardBlock",
          "type": "uint256"
        },
        {
          "internalType": "uint256",
          "name": "accBoboPerShare",
          "type": "uint256"
        }
      ],
      "stateMutability": "view",
      "type": "function",
      "constant": true
    },
    {
      "inputs": [],
      "name": "renounceOwnership",
      "outputs": [],
      "stateMutability": "nonpayable",
      "type": "function"
    },
    {
      "inputs": [],
      "name": "startBlock",
      "outputs": [
        {
          "internalType": "uint256",
          "name": "",
          "type": "uint256"
        }
      ],
      "stateMutability": "view",
      "type": "function",
      "constant": true
    },
    {
      "inputs": [
        {
          "internalType": "address",
          "name": "newOwner",
          "type": "address"
        }
      ],
      "name": "transferOwnership",
      "outputs": [],
      "stateMutability": "nonpayable",
      "type": "function"
    },
    {
      "inputs": [
        {
          "internalType": "uint256",
          "name": "",
          "type": "uint256"
        },
        {
          "internalType": "address",
          "name": "",
          "type": "address"
        }
      ],
      "name": "userInfo",
      "outputs": [
        {
          "internalType": "uint256",
          "name": "weight",
          "type": "uint256"
        },
        {
          "internalType": "uint256",
          "name": "rewardDebt",
          "type": "uint256"
        }
      ],
      "stateMutability": "view",
      "type": "function",
      "constant": true
    },
    {
      "inputs": [
        {
          "internalType": "uint256",
          "name": "_numerator",
          "type": "uint256"
        },
        {
          "internalType": "uint256",
          "name": "_denominator",
          "type": "uint256"
        }
      ],
      "name": "setFundScale",
      "outputs": [],
      "stateMutability": "nonpayable",
      "type": "function"
    },
    {
      "inputs": [],
      "name": "poolLength",
      "outputs": [
        {
          "internalType": "uint256",
          "name": "",
          "type": "uint256"
        }
      ],
      "stateMutability": "view",
      "type": "function",
      "constant": true
    },
    {
      "inputs": [
        {
          "internalType": "uint256",
          "name": "_from",
          "type": "uint256"
        },
        {
          "internalType": "uint256",
          "name": "_to",
          "type": "uint256"
        }
      ],
      "name": "getMultiplier",
      "outputs": [
        {
          "internalType": "uint256",
          "name": "",
          "type": "uint256"
        }
      ],
      "stateMutability": "view",
      "type": "function",
      "constant": true
    },
    {
      "inputs": [
        {
          "internalType": "uint256",
          "name": "_pid",
          "type": "uint256"
        },
        {
          "internalType": "address",
          "name": "_user",
          "type": "address"
        }
      ],
      "name": "pendingBOBO",
      "outputs": [
        {
          "internalType": "uint256",
          "name": "",
          "type": "uint256"
        }
      ],
      "stateMutability": "view",
      "type": "function",
      "constant": true
    },
    {
      "inputs": [],
      "name": "massUpdatePools",
      "outputs": [],
      "stateMutability": "nonpayable",
      "type": "function"
    },
    {
      "inputs": [
        {
          "internalType": "uint256",
          "name": "_pid",
          "type": "uint256"
        }
      ],
      "name": "updatePool",
      "outputs": [],
      "stateMutability": "nonpayable",
      "type": "function"
    },
    {
      "inputs": [
        {
          "internalType": "uint256[]",
          "name": "_nftIds",
          "type": "uint256[]"
        }
      ],
      "name": "deposit",
      "outputs": [],
      "stateMutability": "nonpayable",
      "type": "function"
    },
    {
      "inputs": [
        {
          "internalType": "uint256[]",
          "name": "_nftIds",
          "type": "uint256[]"
        }
      ],
      "name": "withdraw",
      "outputs": [],
      "stateMutability": "nonpayable",
      "type": "function"
    },
    {
      "inputs": [],
      "name": "withdrawAll",
      "outputs": [],
      "stateMutability": "nonpayable",
      "type": "function"
    },
    {
      "inputs": [],
      "name": "emergencyWithdraw",
      "outputs": [],
      "stateMutability": "nonpayable",
      "type": "function"
    },
    {
      "inputs": [
        {
          "internalType": "address",
          "name": "_user",
          "type": "address"
        }
      ],
      "name": "getUserNFTNumber",
      "outputs": [
        {
          "internalType": "uint256",
          "name": "",
          "type": "uint256"
        }
      ],
      "stateMutability": "view",
      "type": "function",
      "constant": true
    },
    {
      "inputs": [
        {
          "internalType": "address",
          "name": "_user",
          "type": "address"
        },
        {
          "internalType": "uint256",
          "name": "_fromIndex",
          "type": "uint256"
        },
        {
          "internalType": "uint256",
          "name": "_toIndex",
          "type": "uint256"
        }
      ],
      "name": "getUserNFTIds",
      "outputs": [
        {
          "internalType": "uint256[]",
          "name": "nftIds",
          "type": "uint256[]"
        }
      ],
      "stateMutability": "view",
      "type": "function",
      "constant": true
    }
  ],
  "bytecode": "0x60806040523480156200001157600080fd5b50604051620024333803806200243383398101604081905262000034916200018d565b60006200004062000189565b600080546001600160a01b0319166001600160a01b0383169081178255604051929350917f8be0079c531659141344cd1fd0a4f28419497f9722a3daafe3b4186f6b6457e0908290a350600180546001600160a01b03199081166001600160a01b039a8b16178255600280548216998b16999099179098556003805490981696909816959095178655600693909355600a829055600b55600c91909155600d9190915560408051606081018252600080825260208201938452918101828152600780549687018155909252517fa66cc928b5edb82af9bd49922954155ab7b0942694bea4ce44661d9a8736c6889490930293840192909255517fa66cc928b5edb82af9bd49922954155ab7b0942694bea4ce44661d9a8736c689830155517fa66cc928b5edb82af9bd49922954155ab7b0942694bea4ce44661d9a8736c68a9091015562000229565b3390565b600080600080600080600080610100898b031215620001aa578384fd5b8851620001b78162000210565b60208a0151909850620001ca8162000210565b60408a0151909750620001dd8162000210565b60608a015160808b015160a08c015160c08d015160e0909d01519b9e9a9d50929b919a9099929850909650945092505050565b6001600160a01b03811681146200022657600080fd5b50565b6121fa80620002396000396000f3fe608060405234801561001057600080fd5b50600436106101a95760003560e01c8063715018a6116100f9578063983d95ce11610097578063d06fcba811610071578063d06fcba814610323578063d8fc5d7b1461032b578063db2e21bc14610333578063f2fde38b1461033b576101a9565b8063983d95ce14610300578063c0329a6d14610313578063ce5f94541461031b576101a9565b80638dbb1e3a116100d35780638dbb1e3a146102b15780638eb7e51e146102c457806393f1a40b146102d757806396ce0795146102f8576101a9565b8063715018a614610299578063853828b6146102a15780638da5cb5b146102a9576101a9565b8063474b21c51161016657806355d59a151161014057806355d59a1514610258578063598b8e711461026b578063630b5ba11461027e5780636d7c82c214610286576101a9565b8063474b21c51461023357806348cd4cb11461023b57806351eb05a614610243576101a9565b8063081e3eda146101ae578063083c6323146101cc57806313c739a0146101d45780631526fe27146101dc5780631a016c09146101fe5780632bf258ed14610213575b600080fd5b6101b661034e565b6040516101c391906120ef565b60405180910390f35b6101b6610354565b6101b661035a565b6101ef6101ea366004611d30565b610360565b6040516101c393929190612106565b610206610390565b6040516101c39190611db0565b610226610221366004611b36565b61039f565b6040516101c39190611e01565b6101b6610496565b6101b661049c565b610256610251366004611d30565b6104a2565b005b610256610266366004611d8f565b6106f6565b610256610279366004611b6a565b610736565b610256610ac6565b6101b6610294366004611d60565b610ae9565b610256610c1b565b610256610c9a565b610206610eee565b6101b66102bf366004611d8f565b610efd565b6101b66102d2366004611b1a565b610f30565b6102ea6102e5366004611d60565b610f51565b6040516101c39291906120f8565b6101b6610f75565b61025661030e366004611b6a565b610f7b565b610206611263565b6101b6611272565b610206611278565b6101b6611287565b61025661128d565b610256610349366004611b1a565b61147a565b60075490565b600b5481565b600c5481565b6007818154811061036d57fe5b600091825260209091206003909102018054600182015460029092015490925083565b6001546001600160a01b031681565b6001600160a01b0383166000908152600960205260408120606091906103c490611530565b9050808311156103d2578092505b8284106103fa5760405162461bcd60e51b81526004016103f190612078565b60405180910390fd5b83830367ffffffffffffffff8111801561041357600080fd5b5060405190808252806020026020018201604052801561043d578160200160208202803683370190505b509150835b8381101561048d576001600160a01b038616600090815260096020526040902061046c908261153b565b838683038151811061047a57fe5b6020908102919091010152600101610442565b50509392505050565b600d5481565b600a5481565b6000600782815481106104b157fe5b90600052602060002090600302019050806001015443116104d257506106f3565b8054806104e65750436001909101556106f3565b60006104f6836001015443610efd565b9050600061050f6006548361154790919063ffffffff16565b905080156106e557600061053a6004546105346005548561154790919063ffffffff16565b90611581565b6001549091506001600160a01b03166340c10f193061055985856115c3565b6040518363ffffffff1660e01b8152600401610576929190611de8565b602060405180830381600087803b15801561059057600080fd5b505af11580156105a4573d6000803e3d6000fd5b505050506040513d601f19601f820116820180604052508101906105c89190611bff565b5060015460035460405163095ea7b360e01b81526001600160a01b039283169263095ea7b3926105ff929116908590600401611de8565b602060405180830381600087803b15801561061957600080fd5b505af115801561062d573d6000803e3d6000fd5b505050506040513d601f19601f820116820180604052508101906106519190611bff565b50600354604051632a5360c760e21b81526001600160a01b039091169063a94d831c906106829084906004016120ef565b600060405180830381600087803b15801561069c57600080fd5b505af11580156106b0573d6000803e3d6000fd5b505050506106de6106d38561053464e8d4a510008661154790919063ffffffff16565b6002870154906115c3565b6002860155505b438460010181905550505050505b50565b6106fe6115e8565b6000546001600160a01b0390811691161461072b5760405162461bcd60e51b81526004016103f190612017565b600591909155600455565b6000600760008154811061074657fe5b600091825260208083203384526000805160206121a58339815191529091526040832060039092020192509061077b906104a2565b8054156107ca5760006107b682600101546107b064e8d4a510006105348760020154876000015461154790919063ffffffff16565b906115ec565b905080156107c8576107c8338261162e565b505b825115610a645760005b8351811015610a62576107e56119cd565b60025485516001600160a01b039091169063d311636b9087908590811061080857fe5b60200260200101516040518263ffffffff1660e01b815260040161082c91906120ef565b60006040518083038186803b15801561084457600080fd5b505afa158015610858573d6000803e3d6000fd5b505050506040513d6000823e601f3d908101601f191682016040526108809190810190611c1f565b90506002816101000151600381111561089557fe5b146108b25760405162461bcd60e51b81526004016103f190611eba565b600c54816101600151101580156108cf5750600d54816101600151105b6108eb5760405162461bcd60e51b81526004016103f190611f42565b60025485516001600160a01b03909116906323b872dd903390309089908790811061091257fe5b60200260200101516040518463ffffffff1660e01b815260040161093893929190611dc4565b600060405180830381600087803b15801561095257600080fd5b505af1158015610966573d6000803e3d6000fd5b50506002548751600093506001600160a01b03909116915063d851fdfd9088908690811061099057fe5b60200260200101516040518263ffffffff1660e01b81526004016109b491906120ef565b60206040518083038186803b1580156109cc57600080fd5b505afa1580156109e0573d6000803e3d6000fd5b505050506040513d601f19601f82011682018060405250810190610a049190611d48565b8454909150610a1390826115c3565b84558454610a2190826115c3565b85558551610a5790879085908110610a3557fe5b60209081029190910181015133600090815260099092526040909120906117ce565b5050506001016107d4565b505b60028201548154610a7f9164e8d4a510009161053491611547565b600182015560405160009033907fe7425730072f5a6ec278ae24c998f6a79299c875cbd84ad35585563a0cb3c66690610ab9908790611e01565b60405180910390a3505050565b60075460005b81811015610ae557610add816104a2565b600101610acc565b5050565b6000610af3611a54565b60078481548110610b0057fe5b906000526020600020906003020160405180606001604052908160008201548152602001600182015481526020016002820154815250509050610b41611a75565b5060008481526008602090815260408083206001600160a01b03871684528252918290208251808401845281548152600190910154818301529183015183519184015190919043118015610b9457508015155b15610be6576000610ba9856020015143610efd565b90506000610bc26006548361154790919063ffffffff16565b9050610be1610bda846105348464e8d4a51000611547565b85906115c3565b935050505b610c0e83602001516107b064e8d4a5100061053486886000015161154790919063ffffffff16565b9450505050505b92915050565b610c236115e8565b6000546001600160a01b03908116911614610c505760405162461bcd60e51b81526004016103f190612017565b600080546040516001600160a01b03909116907f8be0079c531659141344cd1fd0a4f28419497f9722a3daafe3b4186f6b6457e0908390a3600080546001600160a01b0319169055565b60006007600081548110610caa57fe5b600091825260208083203384526000805160206121a583398151915290915260408320600390920201925090610cdf906104a2565b6000610d0d82600101546107b064e8d4a510006105348760020154876000015461154790919063ffffffff16565b90508015610d1f57610d1f338261162e565b336000908152600960205260408120610d3790611530565b905060005b81811015610e9a57336000908152600960205260408120610d5d908361153b565b905080610d6a5750610e9a565b60025460405163d851fdfd60e01b81526000916001600160a01b03169063d851fdfd90610d9b9085906004016120ef565b60206040518083038186803b158015610db357600080fd5b505afa158015610dc7573d6000803e3d6000fd5b505050506040513d601f19601f82011682018060405250810190610deb9190611d48565b8654909150610dfa90826115ec565b86558654610e0890826115ec565b87556002546040516323b872dd60e01b81526001600160a01b03909116906323b872dd90610e3e90309033908790600401611dc4565b600060405180830381600087803b158015610e5857600080fd5b505af1158015610e6c573d6000803e3d6000fd5b5050336000908152600960205260409020610e8a92509050836117da565b5050506000199190910190610d3c565b5060028401548354610eb69164e8d4a510009161053491611547565b600184015560405160009033907fd7a4aa9f3dca5f6606ac15d7e1850920201bbb02c38cd986793779f58ae0dfd3908390a350505050565b6000546001600160a01b031690565b6000600a54831015610f0f57600a5492505b600b54821115610f1f57600b5491505b610f2982846115ec565b9392505050565b6001600160a01b0381166000908152600960205260408120610c1590611530565b60086020908152600092835260408084209091529082529020805460019091015482565b60045481565b60006007600081548110610f8b57fe5b600091825260208083203384526000805160206121a583398151915282526040808520875160099094529420600390930201935090610fc990611530565b1015610fe75760405162461bcd60e51b81526004016103f19061204c565b610ff160006104a2565b600061101f82600101546107b064e8d4a510006105348760020154876000015461154790919063ffffffff16565b9050801561103157611031338261162e565b60005b84518110156111ff5761106e85828151811061104c57fe5b60209081029190910181015133600090815260099092526040909120906117e6565b61108a5760405162461bcd60e51b81526004016103f1906120a8565b6110bb85828151811061109957fe5b60209081029190910181015133600090815260099092526040909120906117da565b5060025485516000916001600160a01b03169063d851fdfd908890859081106110e057fe5b60200260200101516040518263ffffffff1660e01b815260040161110491906120ef565b60206040518083038186803b15801561111c57600080fd5b505afa158015611130573d6000803e3d6000fd5b505050506040513d601f19601f820116820180604052508101906111549190611d48565b845490915061116390826115ec565b8455845461117190826115ec565b855560025486516001600160a01b03909116906323b872dd90309033908a908790811061119a57fe5b60200260200101516040518463ffffffff1660e01b81526004016111c093929190611dc4565b600060405180830381600087803b1580156111da57600080fd5b505af11580156111ee573d6000803e3d6000fd5b505060019093019250611034915050565b506002830154825461121b9164e8d4a510009161053491611547565b600183015560405160009033907faef68853d1f7f9e4e5fe02896078a87a319c7b257208dac49346c8f03b36c68590611255908890611e01565b60405180910390a350505050565b6003546001600160a01b031681565b60055481565b6002546001600160a01b031681565b60065481565b6000600760008154811061129d57fe5b600091825260208083203384526000805160206121a58339815191528252604080852060099093528420600390930201935091906112da90611530565b905060005b8181101561143d57336000908152600960205260408120611300908361153b565b90508061130d575061143d565b60025460405163d851fdfd60e01b81526000916001600160a01b03169063d851fdfd9061133e9085906004016120ef565b60206040518083038186803b15801561135657600080fd5b505afa15801561136a573d6000803e3d6000fd5b505050506040513d601f19601f8201168201806040525081019061138e9190611d48565b855490915061139d90826115ec565b855585546113ab90826115ec565b86556002546040516323b872dd60e01b81526001600160a01b03909116906323b872dd906113e190309033908790600401611dc4565b600060405180830381600087803b1580156113fb57600080fd5b505af115801561140f573d6000803e3d6000fd5b505033600090815260096020526040902061142d92509050836117da565b50505060001991909101906112df565b5060405160009033907f5fafa99d0643513820be26656b45130b01e1c03062e1266bf36f88cbd3bd9695908390a350600080825560019091015550565b6114826115e8565b6000546001600160a01b039081169116146114af5760405162461bcd60e51b81526004016103f190612017565b6001600160a01b0381166114d55760405162461bcd60e51b81526004016103f190611efc565b600080546040516001600160a01b03808516939216917f8be0079c531659141344cd1fd0a4f28419497f9722a3daafe3b4186f6b6457e091a3600080546001600160a01b0319166001600160a01b0392909216919091179055565b6000610c15826117f2565b6000610f2983836117f6565b60008261155657506000610c15565b8282028284828161156357fe5b0414610f295760405162461bcd60e51b81526004016103f190611fd6565b6000610f2983836040518060400160405280601a81526020017f536166654d6174683a206469766973696f6e206279207a65726f00000000000081525061183b565b600082820183811015610f295760405162461bcd60e51b81526004016103f190611f9f565b3390565b6000610f2983836040518060400160405280601e81526020017f536166654d6174683a207375627472616374696f6e206f766572666c6f770000815250611872565b6001546040516370a0823160e01b81526000916001600160a01b0316906370a082319061165f903090600401611db0565b60206040518083038186803b15801561167757600080fd5b505afa15801561168b573d6000803e3d6000fd5b505050506040513d601f19601f820116820180604052508101906116af9190611d48565b9050808211156117435760015460405163a9059cbb60e01b81526001600160a01b039091169063a9059cbb906116eb9086908590600401611de8565b602060405180830381600087803b15801561170557600080fd5b505af1158015611719573d6000803e3d6000fd5b505050506040513d601f19601f8201168201806040525081019061173d9190611bff565b506117c9565b60015460405163a9059cbb60e01b81526001600160a01b039091169063a9059cbb906117759086908690600401611de8565b602060405180830381600087803b15801561178f57600080fd5b505af11580156117a3573d6000803e3d6000fd5b505050506040513d601f19601f820116820180604052508101906117c79190611bff565b505b505050565b6000610f29838361189e565b6000610f2983836118e8565b6000610f2983836119b5565b5490565b815460009082106118195760405162461bcd60e51b81526004016103f190611e78565b82600001828154811061182857fe5b9060005260206000200154905092915050565b6000818361185c5760405162461bcd60e51b81526004016103f19190611e45565b50600083858161186857fe5b0495945050505050565b600081848411156118965760405162461bcd60e51b81526004016103f19190611e45565b505050900390565b60006118aa83836119b5565b6118e057508154600181810184556000848152602080822090930184905584548482528286019093526040902091909155610c15565b506000610c15565b600081815260018301602052604081205480156119a4578354600019808301919081019060009087908390811061191b57fe5b906000526020600020015490508087600001848154811061193857fe5b60009182526020808320909101929092558281526001898101909252604090209084019055865487908061196857fe5b60019003818190600052602060002001600090559055866001016000878152602001908152602001600020600090556001945050505050610c15565b6000915050610c15565b5092915050565b60009081526001919091016020526040902054151590565b604051806101a001604052806000815260200160006001600160a01b0316815260200160006001600160a01b031681526020016000151581526020016000815260200160008152602001600081526020016000815260200160006003811115611a3257fe5b8152602001606081526020016000815260200160008152602001600081525090565b60405180606001604052806000815260200160008152602001600081525090565b604051806040016040528060008152602001600081525090565b8051610c158161218f565b80518015158114610c1557600080fd5b805160048110610c1557600080fd5b600082601f830112611ac9578081fd5b815167ffffffffffffffff811115611adf578182fd5b611af2601f8201601f191660200161211c565b9150808252836020828501011115611b0957600080fd5b6119ae816020840160208601612163565b600060208284031215611b2b578081fd5b8135610f298161218f565b600080600060608486031215611b4a578182fd5b8335611b558161218f565b95602085013595506040909401359392505050565b60006020808385031215611b7c578182fd5b823567ffffffffffffffff811115611b92578283fd5b8301601f81018513611ba2578283fd5b8035611bb5611bb082612143565b61211c565b8181528381019083850185840285018601891015611bd1578687fd5b8694505b83851015611bf3578035835260019490940193918501918501611bd5565b50979650505050505050565b600060208284031215611c10578081fd5b81518015158114610f29578182fd5b600060208284031215611c30578081fd5b815167ffffffffffffffff80821115611c47578283fd5b81840191506101a0808387031215611c5d578384fd5b611c668161211c565b905082518152611c798660208501611a8f565b6020820152611c8b8660408501611a8f565b6040820152611c9d8660608501611a9a565b60608201526080830151608082015260a083015160a082015260c083015160c082015260e083015160e0820152610100611cd987828601611aaa565b908201526101208381015183811115611cf0578586fd5b611cfc88828701611ab9565b9183019190915250610140838101519082015261016080840151908201526101809283015192810192909252509392505050565b600060208284031215611d41578081fd5b5035919050565b600060208284031215611d59578081fd5b5051919050565b60008060408385031215611d72578182fd5b823591506020830135611d848161218f565b809150509250929050565b60008060408385031215611da1578182fd5b50508035926020909101359150565b6001600160a01b0391909116815260200190565b6001600160a01b039384168152919092166020820152604081019190915260600190565b6001600160a01b03929092168252602082015260400190565b6020808252825182820181905260009190848201906040850190845b81811015611e3957835183529284019291840191600101611e1d565b50909695505050505050565b6000602082528251806020840152611e64816040850160208701612163565b601f01601f19169190910160400192915050565b60208082526022908201527f456e756d657261626c655365743a20696e646578206f7574206f6620626f756e604082015261647360f01b606082015260800190565b60208082526022908201527f54686520737461747573206f66206f72646572206973204e4f54206465616c65604082015261321760f11b606082015260800190565b60208082526026908201527f4f776e61626c653a206e6577206f776e657220697320746865207a65726f206160408201526564647265737360d01b606082015260800190565b6020808252603c908201527f546865206465616c65642074696d65206f66206f72646572206973204e4f542060408201527f73746174697366696564206279207468697320636f6e74726163742e00000000606082015260800190565b6020808252601b908201527f536166654d6174683a206164646974696f6e206f766572666c6f770000000000604082015260600190565b60208082526021908201527f536166654d6174683a206d756c7469706c69636174696f6e206f766572666c6f6040820152607760f81b606082015260800190565b6020808252818101527f4f776e61626c653a2063616c6c6572206973206e6f7420746865206f776e6572604082015260600190565b6020808252601290820152711dda5d1a191c985dce881b9bdd0819dbdbd960721b604082015260600190565b60208082526016908201527524b73232bc1034b99037baba1037b3103930b733b29760511b604082015260600190565b60208082526027908201527f4e4654206964206973204e4f5420636f6e7461696e656420696e20757365722760408201526639903634b9ba1760c91b606082015260800190565b90815260200190565b918252602082015260400190565b9283526020830191909152604082015260600190565b60405181810167ffffffffffffffff8111828210171561213b57600080fd5b604052919050565b600067ffffffffffffffff821115612159578081fd5b5060209081020190565b60005b8381101561217e578181015183820152602001612166565b838111156117c75750506000910152565b6001600160a01b03811681146106f357600080fdfe5eff886ea0ce6ca488a3d6e336d6c0f75f46d19b42c06ce5ee98e42c96d256c7a264697066735822122029f71102ee2e2c44e2f6e3b354c45c8d78b64ca499ffd86cbbe522db70dcfb9964736f6c634300060c0033",
  "immutableReferences": {},
  "source": "// SPDX-License-Identifier: MIT\npragma solidity ^0.6.0;\npragma experimental ABIEncoderV2;\n        \nimport \"./common/BasicStruct.sol\";\n\n// NFT, \n// 5%16\n// 95%951%8\ncontract BoboFarmer4TradeMining is Ownable {\n    using SafeMath for uint256;\n    using SafeERC20 for IERC20;\n    using EnumerableSet for EnumerableSet.UintSet;\n\n    // Info of each user.\n    struct UserInfo {\n        uint256 weight;     // How many NFT weight of the user has provided.\n        uint256 rewardDebt; // Reward debt. See explanation below.\n    }\n\n    // Info of each pool.\n    struct PoolInfo {\n        uint256 totalWeightOfNFT;       // How many weight of all NFTs staked in this contract.\n        uint256 lastRewardBlock;  // Last block number that BOBOs distribution occurs.\n        uint256 accBoboPerShare; // Accumulated BOBOs per share, times 1e12. See below.\n    }\n\n    // The BOBO TOKEN!\n    IBOBOToken public bobo;\n    IERC721 public nftToken;           // Address of LP token contract.\n    // fund contract address\n    address public fundContractAddr;\n    uint256 public denominator;\n    uint256 public numerator;\n    // BOBO tokens created per block.\n    uint256 public boboPerBlock;\n\n    // Info of each pool.\n    PoolInfo[] public poolInfo;\n    // Info of each user that stakes NFT tokens.\n    mapping (uint256 => mapping (address => UserInfo)) public userInfo;\n    // Staked NFTs of each user \n    mapping (address => EnumerableSet.UintSet) private userNFTIds;\n    // The block number when BOBO mining starts.\n    uint256 public startBlock;\n    uint256 public endBlock;\n\n    uint256 public nftStartTime;\n    uint256 public nftEndTime;\n\n    event Deposit(address indexed user, uint256 indexed pid, uint256[] nftIds);\n    event Withdraw(address indexed user, uint256 indexed pid, uint256[] nftIds);\n    event WithdrawAll(address indexed user, uint256 indexed pid);\n    event EmergencyWithdraw(address indexed user, uint256 indexed pid);\n\n    constructor(\n        IBOBOToken _bobo,\n        IERC721 _nftToken,\n        address _fundContractAddr, \n        uint256 _boboPerBlock,   // \n        uint256 _startBlock,     // \n        uint256 _endBlock,       // \n        uint256 _nftStartTime,   // nft\n        uint256 _nftEndTime      // nft\n    ) public {\n        bobo = _bobo;\n        nftToken = _nftToken;\n        fundContractAddr = _fundContractAddr;\n        boboPerBlock = _boboPerBlock;\n        startBlock = _startBlock;\n        endBlock = _endBlock;\n        nftStartTime = _nftStartTime;\n        nftEndTime = _nftEndTime;\n\n        // staking pool\n        poolInfo.push(PoolInfo({\n            totalWeightOfNFT: 0,\n            lastRewardBlock: startBlock,\n            accBoboPerShare: 0\n        }));\n    }\n\n    function setFundScale(uint256 _numerator, uint256 _denominator) public onlyOwner {\n        numerator = _numerator;\n        denominator = _denominator;\n    }\n\n    function poolLength() external view returns (uint256) {\n        return poolInfo.length;\n    }\n\n    // Return reward multiplier over the given _from to _to block.\n    function getMultiplier(uint256 _from, uint256 _to) public view returns (uint256) {\n        if (_from < startBlock) _from = startBlock;\n        if (_to > endBlock) _to = endBlock;\n        return _to.sub(_from);\n    }\n\n    // View function to see pending BOBOs on frontend.\n    function pendingBOBO(uint256 _pid, address _user) external view returns (uint256) {\n        PoolInfo memory pool = poolInfo[_pid];\n        UserInfo memory user = userInfo[_pid][_user];\n        uint256 accBoboPerShare = pool.accBoboPerShare;\n        uint256 totalWeight = pool.totalWeightOfNFT;\n        if (block.number > pool.lastRewardBlock && totalWeight != 0) {\n            uint256 multiplier = getMultiplier(pool.lastRewardBlock, block.number);\n            uint256 boboReward = multiplier.mul(boboPerBlock);\n            accBoboPerShare = accBoboPerShare.add(boboReward.mul(1e12).div(totalWeight));\n        }\n        return user.weight.mul(accBoboPerShare).div(1e12).sub(user.rewardDebt);\n    }\n\n    // Update reward variables for all pools. Be careful of gas spending!\n    function massUpdatePools() public {\n        uint256 length = poolInfo.length;\n        for (uint256 pid = 0; pid < length; ++pid) {\n            updatePool(pid);\n        }\n    }\n\n\n    // Update reward variables of the given pool to be up-to-date.\n    function updatePool(uint256 _pid) public {\n        PoolInfo storage pool = poolInfo[_pid];\n        if (block.number <= pool.lastRewardBlock) {\n            return;\n        }\n        uint256 totalWeight = pool.totalWeightOfNFT;\n        if (totalWeight == 0) {\n            pool.lastRewardBlock = block.number;\n            return;\n        }\n        uint256 multiplier = getMultiplier(pool.lastRewardBlock, block.number);\n        uint256 boboReward = multiplier.mul(boboPerBlock);  \n        if (boboReward > 0) {\n            uint256 fundAmount = boboReward.mul(numerator).div(denominator);\n            bobo.mint(address(this), boboReward.add(fundAmount));\n            bobo.approve(fundContractAddr, fundAmount);\n            IBoboFund(fundContractAddr).transferBobo(fundAmount);\n            pool.accBoboPerShare = pool.accBoboPerShare.add(boboReward.mul(1e12).div(totalWeight));\n        }\n        pool.lastRewardBlock = block.number;\n    }\n\n    // Deposit NFT to MasterChef for BOBO allocation.\n    function deposit(uint256[] memory _nftIds) public {\n        PoolInfo storage pool = poolInfo[0];\n        UserInfo storage user = userInfo[0][msg.sender];\n        updatePool(0);\n        if (user.weight > 0) {\n            uint256 pending = user.weight.mul(pool.accBoboPerShare).div(1e12).sub(user.rewardDebt);\n            if(pending > 0) {\n                safeBOBOTransfer(msg.sender, pending);\n            }\n        }\n        if (_nftIds.length > 0) {\n            for (uint256 i = 0; i < _nftIds.length; i++) {\n                NFTInfo memory nftInfo = IOrderNFT(address(nftToken)).getOrderInfo(_nftIds[i]);\n                require(nftInfo.status == OrderStatus.AMMDeal, \"The status of order is NOT dealed.\");\n                require(nftInfo.dealedTime >= nftStartTime && nftInfo.dealedTime < nftEndTime, \"The dealed time of order is NOT statisfied by this contract.\");\n                nftToken.transferFrom(address(msg.sender), address(this), _nftIds[i]);\n                uint256 nftWeight = IOrderNFT(address(nftToken)).getWeight(_nftIds[i]);\n                user.weight = user.weight.add(nftWeight);\n                pool.totalWeightOfNFT = pool.totalWeightOfNFT.add(nftWeight);\n                userNFTIds[msg.sender].add(_nftIds[i]);\n            }\n        }\n        user.rewardDebt = user.weight.mul(pool.accBoboPerShare).div(1e12);\n        emit Deposit(msg.sender, 0, _nftIds);\n    }\n\n    // Withdraw LP tokens from MasterChef.\n    function withdraw(uint256[] memory _nftIds) public {\n        PoolInfo storage pool = poolInfo[0];\n        UserInfo storage user = userInfo[0][msg.sender];\n        require(userNFTIds[msg.sender].length() >= _nftIds.length, \"withdraw: not good\");\n        updatePool(0);\n        uint256 pending = user.weight.mul(pool.accBoboPerShare).div(1e12).sub(user.rewardDebt);\n        if (pending > 0) {\n            safeBOBOTransfer(msg.sender, pending);\n        }\n        for (uint256 i = 0; i < _nftIds.length; i++) {\n            require(userNFTIds[msg.sender].contains(_nftIds[i]), \"NFT id is NOT contained in user's list.\");\n            userNFTIds[msg.sender].remove(_nftIds[i]);\n            uint256 nftWeight = IOrderNFT(address(nftToken)).getWeight(_nftIds[i]);\n            user.weight = user.weight.sub(nftWeight);\n            pool.totalWeightOfNFT = pool.totalWeightOfNFT.sub(nftWeight);\n            nftToken.transferFrom(address(this), address(msg.sender), _nftIds[i]);\n        }\n        user.rewardDebt = user.weight.mul(pool.accBoboPerShare).div(1e12);\n        emit Withdraw(msg.sender, 0, _nftIds);\n    }\n\n    function withdrawAll() public {\n        PoolInfo storage pool = poolInfo[0];\n        UserInfo storage user = userInfo[0][msg.sender];\n        updatePool(0);\n        uint256 pending = user.weight.mul(pool.accBoboPerShare).div(1e12).sub(user.rewardDebt);\n        if (pending > 0) {\n            safeBOBOTransfer(msg.sender, pending);\n        }\n        uint256 length = userNFTIds[msg.sender].length();\n        for (uint256 i = 0; i < length; i++) {\n            uint256 nftId = userNFTIds[msg.sender].at(i);\n            if (nftId == 0) break;\n            uint256 nftWeight = IOrderNFT(address(nftToken)).getWeight(nftId);\n            user.weight = user.weight.sub(nftWeight);\n            pool.totalWeightOfNFT = pool.totalWeightOfNFT.sub(nftWeight);\n            nftToken.transferFrom(address(this), address(msg.sender), nftId);\n            userNFTIds[msg.sender].remove(nftId);\n            i--;\n            length--;\n        }\n        user.rewardDebt = user.weight.mul(pool.accBoboPerShare).div(1e12);\n        emit WithdrawAll(msg.sender, 0);\n    }\n\n    // Withdraw without caring about rewards. EMERGENCY ONLY.\n    function emergencyWithdraw() public {\n        PoolInfo storage pool = poolInfo[0];\n        UserInfo storage user = userInfo[0][msg.sender];\n        \n        uint256 length = userNFTIds[msg.sender].length();\n        for (uint256 i = 0; i < length; i++) {\n            uint256 nftId = userNFTIds[msg.sender].at(i);\n            if (nftId == 0) break;\n            uint256 nftWeight = IOrderNFT(address(nftToken)).getWeight(nftId);\n            user.weight = user.weight.sub(nftWeight);\n            pool.totalWeightOfNFT = pool.totalWeightOfNFT.sub(nftWeight);\n            nftToken.transferFrom(address(this), address(msg.sender), nftId);\n            userNFTIds[msg.sender].remove(nftId);\n            i--;\n            length--;\n        }\n        \n        emit EmergencyWithdraw(msg.sender, 0);\n        user.weight = 0;\n        user.rewardDebt = 0;\n    }\n\n    // Safe bobo transfer function, just in case if rounding error causes pool to not have enough BOBOs.\n    function safeBOBOTransfer(address _to, uint256 _amount) internal {\n        uint256 boboBal = bobo.balanceOf(address(this));\n        if (_amount > boboBal) {\n            bobo.transfer(_to, boboBal);\n        } else {\n            bobo.transfer(_to, _amount);\n        }\n    }\n\n    function getUserNFTNumber(address _user) view public returns(uint256) {\n        return userNFTIds[_user].length();\n    }\n\n    function getUserNFTIds(address _user, uint256 _fromIndex, uint256 _toIndex) view public returns(uint256[] memory nftIds) {\n        uint256 length = userNFTIds[_user].length();\n        if (_toIndex > length) _toIndex = length;\n        require(_fromIndex < _toIndex, \"Index is out of range.\");\n        nftIds = new uint256[](_toIndex - _fromIndex);\n        for (uint256 i = _fromIndex; i < _toIndex; i++) {\n            nftIds[i - _fromIndex] = userNFTIds[_user].at(i);\n        }\n    }\n}",
  "sourcePath": "/Users/mryu/blockchain/bobo-metaverse/boboswap-contract/contracts/BoboFarmer4TradeMining.sol",
  "compiler": {
    "name": "solc",
    "version": "0.6.12+commit.27d51765.Emscripten.clang"
  },
  "schemaVersion": "3.4.3",
  "updatedAt": "2021-09-13T12:27:31.686Z",
  "networkType": "ethereum",
  "devdoc": {
    "kind": "dev",
    "methods": {
      "owner()": {
        "details": "Returns the address of the current owner."
      },
      "renounceOwnership()": {
        "details": "Leaves the contract without owner. It will not be possible to call `onlyOwner` functions anymore. Can only be called by the current owner. NOTE: Renouncing ownership will leave the contract without an owner, thereby removing any functionality that is only available to the owner."
      },
      "transferOwnership(address)": {
        "details": "Transfers ownership of the contract to a new account (`newOwner`). Can only be called by the current owner."
      }
    },
    "version": 1
  },
  "userdoc": {
    "kind": "user",
    "methods": {},
    "version": 1
  }
}