{
  "contractName": "BoboRouter4Arb",
  "abi": [
    {
      "inputs": [],
      "stateMutability": "nonpayable",
      "type": "constructor"
    },
    {
      "anonymous": false,
      "inputs": [
        {
          "indexed": true,
          "internalType": "address",
          "name": "previousOwner",
          "type": "address"
        },
        {
          "indexed": true,
          "internalType": "address",
          "name": "newOwner",
          "type": "address"
        }
      ],
      "name": "OwnershipTransferred",
      "type": "event"
    },
    {
      "inputs": [],
      "name": "BaseRate",
      "outputs": [
        {
          "internalType": "uint256",
          "name": "",
          "type": "uint256"
        }
      ],
      "stateMutability": "view",
      "type": "function"
    },
    {
      "inputs": [],
      "name": "FACTOR",
      "outputs": [
        {
          "internalType": "uint256",
          "name": "",
          "type": "uint256"
        }
      ],
      "stateMutability": "view",
      "type": "function"
    },
    {
      "inputs": [],
      "name": "MinLiquidityValue",
      "outputs": [
        {
          "internalType": "uint256",
          "name": "",
          "type": "uint256"
        }
      ],
      "stateMutability": "view",
      "type": "function"
    },
    {
      "inputs": [],
      "name": "QUICK",
      "outputs": [
        {
          "internalType": "address",
          "name": "",
          "type": "address"
        }
      ],
      "stateMutability": "view",
      "type": "function"
    },
    {
      "inputs": [],
      "name": "USDC",
      "outputs": [
        {
          "internalType": "address",
          "name": "",
          "type": "address"
        }
      ],
      "stateMutability": "view",
      "type": "function"
    },
    {
      "inputs": [],
      "name": "USDT",
      "outputs": [
        {
          "internalType": "address",
          "name": "",
          "type": "address"
        }
      ],
      "stateMutability": "view",
      "type": "function"
    },
    {
      "inputs": [],
      "name": "WETH",
      "outputs": [
        {
          "internalType": "address",
          "name": "",
          "type": "address"
        }
      ],
      "stateMutability": "view",
      "type": "function"
    },
    {
      "inputs": [],
      "name": "WMATIC",
      "outputs": [
        {
          "internalType": "address",
          "name": "",
          "type": "address"
        }
      ],
      "stateMutability": "view",
      "type": "function"
    },
    {
      "inputs": [],
      "name": "burnAddress",
      "outputs": [
        {
          "internalType": "address",
          "name": "",
          "type": "address"
        }
      ],
      "stateMutability": "view",
      "type": "function"
    },
    {
      "inputs": [],
      "name": "feeRate",
      "outputs": [
        {
          "internalType": "uint256",
          "name": "",
          "type": "uint256"
        }
      ],
      "stateMutability": "view",
      "type": "function"
    },
    {
      "inputs": [
        {
          "internalType": "uint256",
          "name": "",
          "type": "uint256"
        }
      ],
      "name": "middleTokens",
      "outputs": [
        {
          "internalType": "address",
          "name": "",
          "type": "address"
        }
      ],
      "stateMutability": "view",
      "type": "function"
    },
    {
      "inputs": [],
      "name": "owner",
      "outputs": [
        {
          "internalType": "address",
          "name": "",
          "type": "address"
        }
      ],
      "stateMutability": "view",
      "type": "function"
    },
    {
      "inputs": [],
      "name": "quickSwapFactory",
      "outputs": [
        {
          "internalType": "address",
          "name": "",
          "type": "address"
        }
      ],
      "stateMutability": "view",
      "type": "function"
    },
    {
      "inputs": [],
      "name": "quickSwapRouter",
      "outputs": [
        {
          "internalType": "address",
          "name": "",
          "type": "address"
        }
      ],
      "stateMutability": "view",
      "type": "function"
    },
    {
      "inputs": [],
      "name": "renounceOwnership",
      "outputs": [],
      "stateMutability": "nonpayable",
      "type": "function"
    },
    {
      "inputs": [],
      "name": "sushiSwapFactory",
      "outputs": [
        {
          "internalType": "address",
          "name": "",
          "type": "address"
        }
      ],
      "stateMutability": "view",
      "type": "function"
    },
    {
      "inputs": [],
      "name": "sushiSwapRouter",
      "outputs": [
        {
          "internalType": "address",
          "name": "",
          "type": "address"
        }
      ],
      "stateMutability": "view",
      "type": "function"
    },
    {
      "inputs": [
        {
          "internalType": "address",
          "name": "",
          "type": "address"
        }
      ],
      "name": "tokenAggregatorMap",
      "outputs": [
        {
          "internalType": "contract AggregatorV3Interface",
          "name": "",
          "type": "address"
        }
      ],
      "stateMutability": "view",
      "type": "function"
    },
    {
      "inputs": [
        {
          "internalType": "address",
          "name": "newOwner",
          "type": "address"
        }
      ],
      "name": "transferOwnership",
      "outputs": [],
      "stateMutability": "nonpayable",
      "type": "function"
    },
    {
      "inputs": [
        {
          "internalType": "address",
          "name": "_middleToken",
          "type": "address"
        },
        {
          "internalType": "address",
          "name": "_aggregator",
          "type": "address"
        }
      ],
      "name": "addMiddleTokenAndAggregator",
      "outputs": [],
      "stateMutability": "nonpayable",
      "type": "function"
    },
    {
      "inputs": [
        {
          "internalType": "address",
          "name": "token",
          "type": "address"
        }
      ],
      "name": "isUToken",
      "outputs": [
        {
          "internalType": "bool",
          "name": "",
          "type": "bool"
        }
      ],
      "stateMutability": "pure",
      "type": "function"
    },
    {
      "inputs": [
        {
          "internalType": "address",
          "name": "baseToken",
          "type": "address"
        }
      ],
      "name": "getBaseTokenPriceOnQuickSwap",
      "outputs": [
        {
          "internalType": "uint256",
          "name": "",
          "type": "uint256"
        }
      ],
      "stateMutability": "view",
      "type": "function"
    },
    {
      "inputs": [
        {
          "internalType": "address",
          "name": "baseToken",
          "type": "address"
        }
      ],
      "name": "getBaseTokenPriceOnChainlink",
      "outputs": [
        {
          "internalType": "uint256",
          "name": "",
          "type": "uint256"
        }
      ],
      "stateMutability": "view",
      "type": "function"
    },
    {
      "inputs": [
        {
          "internalType": "address",
          "name": "factoryAddr",
          "type": "address"
        },
        {
          "internalType": "address",
          "name": "token0",
          "type": "address"
        },
        {
          "internalType": "address",
          "name": "token1",
          "type": "address"
        }
      ],
      "name": "getReserves",
      "outputs": [
        {
          "internalType": "uint256",
          "name": "",
          "type": "uint256"
        },
        {
          "internalType": "uint256",
          "name": "",
          "type": "uint256"
        }
      ],
      "stateMutability": "view",
      "type": "function"
    },
    {
      "inputs": [
        {
          "internalType": "address",
          "name": "factoryAddr",
          "type": "address"
        },
        {
          "internalType": "address[]",
          "name": "path",
          "type": "address[]"
        }
      ],
      "name": "getMinUValue",
      "outputs": [
        {
          "internalType": "uint256",
          "name": "",
          "type": "uint256"
        }
      ],
      "stateMutability": "view",
      "type": "function"
    },
    {
      "inputs": [
        {
          "internalType": "address",
          "name": "factoryAddr",
          "type": "address"
        },
        {
          "internalType": "address",
          "name": "inToken",
          "type": "address"
        },
        {
          "internalType": "address",
          "name": "outToken",
          "type": "address"
        }
      ],
      "name": "getPaths",
      "outputs": [
        {
          "components": [
            {
              "internalType": "address[]",
              "name": "tokens",
              "type": "address[]"
            },
            {
              "internalType": "uint256[]",
              "name": "minUValues",
              "type": "uint256[]"
            },
            {
              "internalType": "uint256",
              "name": "pathCount",
              "type": "uint256"
            }
          ],
          "internalType": "struct BoboRouter4Arb.PathsInfo",
          "name": "pathsInfo",
          "type": "tuple"
        }
      ],
      "stateMutability": "view",
      "type": "function"
    },
    {
      "inputs": [
        {
          "internalType": "address",
          "name": "inToken",
          "type": "address"
        },
        {
          "internalType": "address",
          "name": "outToken",
          "type": "address"
        }
      ],
      "name": "caculateTotalLiquidity",
      "outputs": [
        {
          "internalType": "uint256",
          "name": "totalULiquidity",
          "type": "uint256"
        }
      ],
      "stateMutability": "view",
      "type": "function"
    },
    {
      "inputs": [
        {
          "internalType": "address",
          "name": "inToken",
          "type": "address"
        },
        {
          "internalType": "address",
          "name": "outToken",
          "type": "address"
        },
        {
          "internalType": "uint256",
          "name": "amountIn",
          "type": "uint256"
        }
      ],
      "name": "getBaseAmountOut",
      "outputs": [
        {
          "internalType": "uint256",
          "name": "amountOut",
          "type": "uint256"
        }
      ],
      "stateMutability": "view",
      "type": "function"
    },
    {
      "inputs": [
        {
          "internalType": "address",
          "name": "inToken",
          "type": "address"
        },
        {
          "internalType": "address",
          "name": "outToken",
          "type": "address"
        },
        {
          "internalType": "uint256",
          "name": "amountIn",
          "type": "uint256"
        }
      ],
      "name": "getBestSwapPath",
      "outputs": [
        {
          "internalType": "uint256[]",
          "name": "amountsOut",
          "type": "uint256[]"
        },
        {
          "components": [
            {
              "internalType": "uint256",
              "name": "totalAmountOut",
              "type": "uint256"
            },
            {
              "internalType": "uint256",
              "name": "totalULiquidity",
              "type": "uint256"
            },
            {
              "internalType": "enum SwapPool[]",
              "name": "swapPools",
              "type": "uint8[]"
            },
            {
              "internalType": "address[]",
              "name": "middleTokens",
              "type": "address[]"
            },
            {
              "internalType": "uint256[]",
              "name": "partialAmountIns",
              "type": "uint256[]"
            },
            {
              "internalType": "uint256[]",
              "name": "partialAmountOuts",
              "type": "uint256[]"
            }
          ],
          "internalType": "struct ResultInfo",
          "name": "bestResultInfo",
          "type": "tuple"
        }
      ],
      "stateMutability": "view",
      "type": "function"
    },
    {
      "inputs": [
        {
          "internalType": "address",
          "name": "dexFactory",
          "type": "address"
        },
        {
          "internalType": "address",
          "name": "inToken",
          "type": "address"
        },
        {
          "internalType": "address",
          "name": "outToken",
          "type": "address"
        },
        {
          "internalType": "uint256",
          "name": "amountIn",
          "type": "uint256"
        }
      ],
      "name": "caculateOneDexAmountOut",
      "outputs": [
        {
          "components": [
            {
              "internalType": "uint256",
              "name": "totalAmountOut",
              "type": "uint256"
            },
            {
              "internalType": "uint256",
              "name": "totalULiquidity",
              "type": "uint256"
            },
            {
              "internalType": "enum SwapPool[]",
              "name": "swapPools",
              "type": "uint8[]"
            },
            {
              "internalType": "address[]",
              "name": "middleTokens",
              "type": "address[]"
            },
            {
              "internalType": "uint256[]",
              "name": "partialAmountIns",
              "type": "uint256[]"
            },
            {
              "internalType": "uint256[]",
              "name": "partialAmountOuts",
              "type": "uint256[]"
            }
          ],
          "internalType": "struct ResultInfo",
          "name": "resultInfo",
          "type": "tuple"
        }
      ],
      "stateMutability": "view",
      "type": "function"
    },
    {
      "inputs": [
        {
          "internalType": "address",
          "name": "inToken",
          "type": "address"
        },
        {
          "internalType": "address",
          "name": "outToken",
          "type": "address"
        },
        {
          "internalType": "uint256",
          "name": "amountIn",
          "type": "uint256"
        }
      ],
      "name": "caculateAmountOut",
      "outputs": [
        {
          "components": [
            {
              "internalType": "uint256",
              "name": "totalAmountOut",
              "type": "uint256"
            },
            {
              "internalType": "uint256",
              "name": "totalULiquidity",
              "type": "uint256"
            },
            {
              "internalType": "enum SwapPool[]",
              "name": "swapPools",
              "type": "uint8[]"
            },
            {
              "internalType": "address[]",
              "name": "middleTokens",
              "type": "address[]"
            },
            {
              "internalType": "uint256[]",
              "name": "partialAmountIns",
              "type": "uint256[]"
            },
            {
              "internalType": "uint256[]",
              "name": "partialAmountOuts",
              "type": "uint256[]"
            }
          ],
          "internalType": "struct ResultInfo",
          "name": "resultInfo",
          "type": "tuple"
        }
      ],
      "stateMutability": "view",
      "type": "function"
    },
    {
      "inputs": [
        {
          "internalType": "address",
          "name": "routerAddr",
          "type": "address"
        },
        {
          "internalType": "uint256",
          "name": "partialAmountIn",
          "type": "uint256"
        },
        {
          "internalType": "address[]",
          "name": "path",
          "type": "address[]"
        }
      ],
      "name": "getAmountOut",
      "outputs": [
        {
          "internalType": "uint256",
          "name": "",
          "type": "uint256"
        }
      ],
      "stateMutability": "view",
      "type": "function"
    },
    {
      "inputs": [
        {
          "internalType": "address",
          "name": "_inToken",
          "type": "address"
        },
        {
          "internalType": "address",
          "name": "_outToken",
          "type": "address"
        },
        {
          "internalType": "uint256",
          "name": "_amountIn",
          "type": "uint256"
        },
        {
          "internalType": "uint256",
          "name": "_minAmountOut",
          "type": "uint256"
        },
        {
          "internalType": "address",
          "name": "_orderOwner",
          "type": "address"
        }
      ],
      "name": "swap",
      "outputs": [],
      "stateMutability": "nonpayable",
      "type": "function"
    },
    {
      "inputs": [
        {
          "internalType": "address",
          "name": "_tokenAddr",
          "type": "address"
        }
      ],
      "name": "withdrawToken",
      "outputs": [],
      "stateMutability": "nonpayable",
      "type": "function"
    },
    {
      "inputs": [
        {
          "internalType": "uint256",
          "name": "_feeRate",
          "type": "uint256"
        }
      ],
      "name": "setFeeRate",
      "outputs": [],
      "stateMutability": "nonpayable",
      "type": "function"
    }
  ],
  "bytecode": "0x600180546001600160a01b031990811673ab594600376ec9fd91f8e885dadf0ce036862de01790915560028054821673f9680d99d6c9589e2a93a78a04a279e5092059451790556003805490911673a058689f4bca95208bba3f265674ae95ded75b6d17905561012060405273c2132d05d31c914a87c6611c10748aeb04b58e8f6080908152732791bca1f2de4661ed88a30c99a7a9449aa8417460a052730d500b1d8e8ef31e21c99d1db9a6444d3adf127060c052737ceb23fd6bc0add59e62ac25578270cff1b9f61960e05273831753dd7087cac61ab5644b308642cc1c33dc1361010052620000f5906005908162000231565b5064174876e80060065560006007553480156200011157600080fd5b5060006200011e6200022d565b600080546001600160a01b0319166001600160a01b0383169081178255604051929350917f8be0079c531659141344cd1fd0a4f28419497f9722a3daafe3b4186f6b6457e0908290a35060015460046020527f3e73a25e817bd097e8eaf0ac0076d088e058dae47a20d23b0f0cc945791a958880546001600160a01b039283166001600160a01b0319918216179091556002547f69bc9a80c51a557b6c5a4b7c71ffdcd97cc91b2bda5dc1b0da50dd9e6ab21239805491841691831691909117905560035473831753dd7087cac61ab5644b308642cc1c33dc136000527ff6c959ba81b256722d06d46dc94fe0d026c415fad43d9958cfce683b0cfefdb78054919093169116179055620002bc565b3390565b82805482825590600052602060002090810192821562000289579160200282015b828111156200028957825182546001600160a01b0319166001600160a01b0390911617825560209092019160019091019062000252565b50620002979291506200029b565b5090565b5b80821115620002975780546001600160a01b03191681556001016200029c565b6137e480620002cc6000396000f3fe608060405234801561001057600080fd5b50600436106102115760003560e01c806370d5ae0511610125578063b1b125ad116100ad578063e189eb421161007c578063e189eb4214610411578063e476916a14610419578063f11aa0251461042c578063f2fde38b1461044c578063fd829a231461045f57610211565b8063b1b125ad146103db578063c54e44eb146103ee578063d2553ca6146103f6578063d5bcb9b5146103fe57610211565b806389a30271116100f457806389a30271146103a85780638b220bb2146103b05780638da5cb5b146103c3578063978bbdb9146103cb578063ad5c4648146103d357610211565b806370d5ae051461037d578063715018a61461038557806386ea54fe1461038d578063894760691461039557610211565b806332749461116101a85780634d95cad9116101775780634d95cad914610327578063586ee0e61461032f5780635f810cd9146103425780636809c6a01461034a5780636d6a85831461035d57610211565b806332749461146102d857806335815b95146102f957806345596e2e146103015780634923d4121461031457610211565b8063188672a0116101e4578063188672a0146102935780632521f502146102a857806327c4f845146102bb5780632ff0cab3146102c357610211565b8063064e91671461021657806312f69a771461023f57806313684f181461025257806316ed6ef014610273575b600080fd5b610229610224366004612ebc565b610467565b60405161023691906136bb565b60405180910390f35b61022961024d366004612fc6565b61076e565b610265610260366004612fc6565b61078e565b604051610236929190613437565b610286610281366004612f76565b61093c565b60405161023691906136a8565b61029b610e22565b60405161023691906133cc565b61029b6102b6366004613202565b610e3a565b610229610e61565b6102d66102d1366004612ef4565b610e67565b005b6102eb6102e6366004612f2c565b610f44565b6040516102369291906136e5565b610229611075565b6102d661030f366004613202565b61107d565b610229610322366004613064565b6110b7565b61029b6113a6565b61029b61033d366004612ebc565b6113be565b61029b6113d9565b610229610358366004612ef4565b6113f1565b61037061036b366004612ebc565b6115bd565b604051610236919061345c565b61029b61160b565b6102d6611611565b610229611690565b6102d66103a3366004612ebc565b611696565b61029b6117c4565b6102866103be366004612fc6565b6117dc565b61029b611faf565b610229611fbe565b61029b611fc4565b6102296103e9366004612ebc565b611fdc565b61029b612075565b61029b61208d565b6102d661040c366004613006565b6120a5565b61029b6121a1565b6102296104273660046130b2565b6121b9565b61043f61043a366004612f2c565b612263565b6040516102369190613658565b6102d661045a366004612ebc565b61250f565b61029b6125c5565b6000806001600160a01b038316732791bca1f2de4661ed88a30c99a7a9449aa84174106104a95782732791bca1f2de4661ed88a30c99a7a9449aa841746104c0565b732791bca1f2de4661ed88a30c99a7a9449aa84174835b5060405163e6a4390560e01b8152909150600090735757371414417b8c6caad45baef941abc7d3ab329063e6a439059061051490732791bca1f2de4661ed88a30c99a7a9449aa8417490889060040161341d565b60206040518083038186803b15801561052c57600080fd5b505afa158015610540573d6000803e3d6000fd5b505050506040513d601f19601f820116820180604052508101906105649190612ed8565b9050600080826001600160a01b0316630902f1ac6040518163ffffffff1660e01b815260040160606040518083038186803b1580156105a257600080fd5b505afa1580156105b6573d6000803e3d6000fd5b505050506040513d601f19601f820116820180604052508101906105da91906131b9565b506001600160701b031691506001600160701b031691506000866001600160a01b031663313ce5676040518163ffffffff1660e01b815260040160206040518083038186803b15801561062c57600080fd5b505afa158015610640573d6000803e3d6000fd5b505050506040513d601f19601f820116820180604052508101906106649190613283565b60ff1690506000732791bca1f2de4661ed88a30c99a7a9449aa841746001600160a01b031663313ce5676040518163ffffffff1660e01b815260040160206040518083038186803b1580156106b857600080fd5b505afa1580156106cc573d6000803e3d6000fd5b505050506040513d601f19601f820116820180604052508101906106f09190613283565b60ff16820390506001600160a01b038616732791bca1f2de4661ed88a30c99a7a9449aa8417414610746576107418461073b600a84900a610735876305f5e1006125dd565b906125dd565b9061261e565b610760565b6107608361073b600a84900a610735886305f5e1006125dd565b96505050505050505b919050565b6000610778612dd4565b61078385858561078e565b519695505050505050565b6060610798612dd4565b6040805160038082526080820190925290602082016060803683375050604080516002808252606080830184529496509092509060208301908036833701905050905085816000815181106107e957fe5b60200260200101906001600160a01b031690816001600160a01b031681525050848160018151811061081757fe5b60200260200101906001600160a01b031690816001600160a01b0316815250506000610841612dd4565b610861735757371414417b8c6caad45baef941abc7d3ab3289898961093c565b905080600001518560008151811061087557fe5b602090810291909101015280518210156108925780519093509050825b61089a612dd4565b6108ba73c35dadb65012ec5796536bd9864ed8773abc74c48a8a8a61093c565b90508060000151866001815181106108ce57fe5b602090810291909101015280518310156108eb5780519094509150835b6108f3612dd4565b6108fe8a8a8a6117dc565b905080600001518760028151811061091257fe5b6020908102919091010152805184101561092f5780519095509250845b5050505050935093915050565b610944612dd4565b61094c612e0a565b610957868686612263565b604080516002808252606080830184529394509091602083019080368337019050509050858160008151811061098957fe5b60200260200101906001600160a01b031690816001600160a01b03168152505084816001815181106109b757fe5b60200260200101906001600160a01b031690816001600160a01b03168152505060006109e388836110b7565b905060006006548211156109fe576109fb8183612660565b90505b60005b8460400151811015610a4157610a3785602001518281518110610a2057fe5b60200260200101518361266090919063ffffffff16565b9150600101610a01565b5060408051600480825260a08201909252600091829190602082016080803683375050506040888101919091528051600480825260a082019092529060208201608080368337505050606088015260408051600480825260a08201909252906020820160808036833701905050608088015260408051600480825260a082019092529081602001602082028036833750505060a0880152600080735757371414417b8c6caad45baef941abc7d3ab326001600160a01b038e1614610b1957731b02da8cb0d097eb8d57a175b88c7d8b47997506610b2f565b73a5e0829caced8ffdd4de3c43696c57f7d7a678ff5b905060006001600160a01b038e16735757371414417b8c6caad45baef941abc7d3ab3214610b5e576005610b61565b60075b9050600654871115610c4057610b7b8661073b898e6125dd565b94506000610b8a83878b6121b9565b9050818b604001518581518110610b9d57fe5b60200260200101906007811115610bb057fe5b90816007811115610bbd57fe5b8152505060008b606001518581518110610bd357fe5b60200260200101906001600160a01b031690816001600160a01b031681525050858b608001518581518110610c0457fe5b602002602001018181525050808b60a001518581518110610c2157fe5b6020908102919091010152610c368582612660565b9450506001909201915b6040805160038082526080820190925260609160208201838036833701905050905060005b8a60400151811015610e08578e82600081518110610c7f57fe5b6001600160a01b03909216602092830291909101909101528a51805182908110610ca557fe5b602002602001015182600181518110610cba57fe5b60200260200101906001600160a01b031690816001600160a01b0316815250508d82600281518110610ce857fe5b60200260200101906001600160a01b031690816001600160a01b031681525050878d8c602001518381518110610d1a57fe5b60200260200101510281610d2a57fe5b0496506000610d3a8589856121b9565b9050838d604001518781518110610d4d57fe5b60200260200101906007811115610d6057fe5b90816007811115610d6d57fe5b9052508b51805183908110610d7e57fe5b60200260200101518d606001518781518110610d9657fe5b60200260200101906001600160a01b031690816001600160a01b031681525050878d608001518781518110610dc757fe5b602002602001018181525050808d60a001518781518110610de457fe5b6020908102919091010152610df98782612660565b96505060019485019401610c65565b505050918852505050602085015250919695505050505050565b73831753dd7087cac61ab5644b308642cc1c33dc1381565b60058181548110610e4757fe5b6000918252602090912001546001600160a01b0316905081565b61271081565b610e6f612685565b6000546001600160a01b03908116911614610ea55760405162461bcd60e51b8152600401610e9c906135ec565b60405180910390fd5b6001600160a01b038281166000908152600460205260409020541615610edd5760405162461bcd60e51b8152600401610e9c90613621565b60058054600181019091557f036b6384b5eca791c62761152d0c79bb0604c104a5fb6f4eb0703f3154bb3db00180546001600160a01b039384166001600160a01b031991821681179092556000918252600460205260409091208054929093169116179055565b6000806000856001600160a01b031663e6a4390586866040518363ffffffff1660e01b8152600401610f7792919061341d565b60206040518083038186803b158015610f8f57600080fd5b505afa158015610fa3573d6000803e3d6000fd5b505050506040513d601f19601f82011682018060405250810190610fc79190612ed8565b90506001600160a01b038116610fe457600080925092505061106d565b600080826001600160a01b0316630902f1ac6040518163ffffffff1660e01b815260040160606040518083038186803b15801561102057600080fd5b505afa158015611034573d6000803e3d6000fd5b505050506040513d601f19601f8201168201806040525081019061105891906131b9565b506001600160701b0391821696501693505050505b935093915050565b6305f5e10081565b611085612685565b6000546001600160a01b039081169116146110b25760405162461bcd60e51b8152600401610e9c906135ec565b600755565b6000600019815b600184510381101561139c5760008060008684600101815181106110de57fe5b60200260200101516001600160a01b03168785815181106110fb57fe5b60200260200101516001600160a01b0316106111415786846001018151811061112057fe5b602002602001015187858151811061113457fe5b602002602001015161116d565b86848151811061114d57fe5b602002602001015187856001018151811061116457fe5b60200260200101515b9150915060008061117f8a8585610f44565b9150915061118c846115bd565b156111995781945061137f565b6111a2836115bd565b156111af5780945061137f565b6001600160a01b0384811660009081526004602052604081205490918291166111d95784836111dc565b85845b9150915060006111eb83610467565b905060006111f884611fdc565b905060008183111561121f576112188261073b6103e86107358784612689565b9050611236565b6112338361073b6103e86107358684612689565b90505b60648111156112575760405162461bcd60e51b8152600401610e9c90613537565b6000856001600160a01b031663313ce5676040518163ffffffff1660e01b815260040160206040518083038186803b15801561129257600080fd5b505afa1580156112a6573d6000803e3d6000fd5b505050506040513d601f19601f820116820180604052508101906112ca9190613283565b60ff1690506000732791bca1f2de4661ed88a30c99a7a9449aa841746001600160a01b031663313ce5676040518163ffffffff1660e01b815260040160206040518083038186803b15801561131e57600080fd5b505afa158015611332573d6000803e3d6000fd5b505050506040513d601f19601f820116820180604052508101906113569190613283565b60ff1682039050611375600a82900a61073b6305f5e10081888b6125dd565b9b50505050505050505b8487111561138b578496505b5050600190930192506110be915050565b5090505b92915050565b730d500b1d8e8ef31e21c99d1db9a6444d3adf127081565b6004602052600090815260409020546001600160a01b031681565b73c35dadb65012ec5796536bd9864ed8773abc74c481565b60006113fb612e0a565b61141a735757371414417b8c6caad45baef941abc7d3ab328585612263565b9050611424612e0a565b61144373c35dadb65012ec5796536bd9864ed8773abc74c48686612263565b604080516002808252606080830184529394509091602083019080368337019050509050858160008151811061147557fe5b60200260200101906001600160a01b031690816001600160a01b03168152505084816001815181106114a357fe5b60200260200101906001600160a01b031690816001600160a01b03168152505060006114e3735757371414417b8c6caad45baef941abc7d3ab32836110b7565b9050600061150573c35dadb65012ec5796536bd9864ed8773abc74c4846110b7565b905060065482111561151e5761151b8683612660565b95505b600654811115611535576115328682612660565b95505b60005b85604001518110156115785761156e8660200151828151811061155757fe5b60200260200101518861266090919063ffffffff16565b9650600101611538565b5060005b84604001518110156115a55761159b8560200151828151811061155757fe5b965060010161157c565b506115b18660026125dd565b98975050505050505050565b60006001600160a01b03821673c2132d05d31c914a87c6611c10748aeb04b58e8f14806113a057506001600160a01b038216732791bca1f2de4661ed88a30c99a7a9449aa841741492915050565b61dead81565b611619612685565b6000546001600160a01b039081169116146116465760405162461bcd60e51b8152600401610e9c906135ec565b600080546040516001600160a01b03909116907f8be0079c531659141344cd1fd0a4f28419497f9722a3daafe3b4186f6b6457e0908390a3600080546001600160a01b0319169055565b60065481565b61169e612685565b6000546001600160a01b039081169116146116cb5760405162461bcd60e51b8152600401610e9c906135ec565b6040516370a0823160e01b81526001600160a01b0382169063a9059cbb90339083906370a08231906117019030906004016133cc565b60206040518083038186803b15801561171957600080fd5b505afa15801561172d573d6000803e3d6000fd5b505050506040513d601f19601f82011682018060405250810190611751919061321a565b6040518363ffffffff1660e01b815260040161176e929190613404565b602060405180830381600087803b15801561178857600080fd5b505af115801561179c573d6000803e3d6000fd5b505050506040513d601f19601f820116820180604052508101906117c09190613199565b5050565b732791bca1f2de4661ed88a30c99a7a9449aa8417481565b6117e4612dd4565b6117ec612e0a565b61180b735757371414417b8c6caad45baef941abc7d3ab328686612263565b9050611815612e0a565b61183473c35dadb65012ec5796536bd9864ed8773abc74c48787612263565b604080516002808252606080830184529394509091602083019080368337019050509050868160008151811061186657fe5b60200260200101906001600160a01b031690816001600160a01b031681525050858160018151811061189457fe5b60200260200101906001600160a01b031690816001600160a01b03168152505060006118d4735757371414417b8c6caad45baef941abc7d3ab32836110b7565b905060006118f673c35dadb65012ec5796536bd9864ed8773abc74c4846110b7565b905060006006548311156119115761190e8184612660565b90505b600654821115611928576119258183612660565b90505b60005b86604001518110156119545761194a87602001518281518110610a2057fe5b915060010161192b565b5060005b85604001518110156119815761197786602001518281518110610a2057fe5b9150600101611958565b5060408051600a8082526101608201909252600091829190602082016101408036833750505060408a8101919091528051600a808252610160820190925290602082016101408036833750505060608a015260408051600a808252610160820190925290602082016101408036833750505060808a015260408051600a808252610160820190925290602082016101408036833750505060a08a0152600654600090861115611b0f57611a388461073b888e6125dd565b92506000611a5b73a5e0829caced8ffdd4de3c43696c57f7d7a678ff858a6121b9565b905060078b604001518381518110611a6f57fe5b60200260200101906007811115611a8257fe5b90816007811115611a8f57fe5b8152505060008b606001518381518110611aa557fe5b60200260200101906001600160a01b031690816001600160a01b031681525050838b608001518381518110611ad657fe5b602002602001018181525050808b60a001518381518110611af357fe5b6020908102919091010152611b088382612660565b9250506001015b600654851115611bfe57611b278461073b878e6125dd565b92506000611b4a731b02da8cb0d097eb8d57a175b88c7d8b47997506858a6121b9565b905060058b604001518381518110611b5e57fe5b60200260200101906007811115611b7157fe5b90816007811115611b7e57fe5b8152505060008b606001518381518110611b9457fe5b60200260200101906001600160a01b031690816001600160a01b031681525050838b608001518381518110611bc557fe5b602002602001018181525050808b60a001518381518110611be257fe5b6020908102919091010152611bf78382612660565b9250506001015b6040805160038082526080820190925260609160208201838036833701905050905060005b8a60400151811015611ddb578e82600081518110611c3d57fe5b6001600160a01b03909216602092830291909101909101528a51805182908110611c6357fe5b602002602001015182600181518110611c7857fe5b60200260200101906001600160a01b031690816001600160a01b0316815250508d82600281518110611ca657fe5b60200260200101906001600160a01b031690816001600160a01b031681525050858d8c602001518381518110611cd857fe5b60200260200101510281611ce857fe5b0494506000611d0c73a5e0829caced8ffdd4de3c43696c57f7d7a678ff87856121b9565b905060078d604001518581518110611d2057fe5b60200260200101906007811115611d3357fe5b90816007811115611d4057fe5b9052508b51805183908110611d5157fe5b60200260200101518d606001518581518110611d6957fe5b60200260200101906001600160a01b031690816001600160a01b031681525050858d608001518581518110611d9a57fe5b602002602001018181525050808d60a001518581518110611db757fe5b6020908102919091010152611dcc8582612660565b94505060019283019201611c23565b5060005b8960400151811015611f97578e82600081518110611df957fe5b6001600160a01b03909216602092830291909101909101528951805182908110611e1f57fe5b602002602001015182600181518110611e3457fe5b60200260200101906001600160a01b031690816001600160a01b0316815250508d82600281518110611e6257fe5b60200260200101906001600160a01b031690816001600160a01b031681525050858d8b602001518381518110611e9457fe5b60200260200101510281611ea457fe5b0494506000611ec8731b02da8cb0d097eb8d57a175b88c7d8b4799750687856121b9565b905060058d604001518581518110611edc57fe5b60200260200101906007811115611eef57fe5b90816007811115611efc57fe5b9052508a51805183908110611f0d57fe5b60200260200101518d606001518581518110611f2557fe5b60200260200101906001600160a01b031690816001600160a01b031681525050858d608001518581518110611f5657fe5b602002602001018181525050808d60a001518581518110611f7357fe5b6020908102919091010152611f888582612660565b94505060019283019201611ddf565b50505088525060208701525093979650505050505050565b6000546001600160a01b031690565b60075481565b737ceb23fd6bc0add59e62ac25578270cff1b9f61981565b6001600160a01b038082166000908152600460208190526040808320548151633fabe5a360e21b81529151939416928492849263feaf968c928183019260a092829003018186803b15801561203057600080fd5b505afa158015612044573d6000803e3d6000fd5b505050506040513d601f19601f820116820180604052508101906120689190613232565b5091979650505050505050565b73c2132d05d31c914a87c6611c10748aeb04b58e8f81565b735757371414417b8c6caad45baef941abc7d3ab3281565b6120ad612dd4565b6120b886868661078e565b91505082816000015110156120cd575061219a565b60006120db828888886126cb565b905060006120fe61271061073b600754610735898761268990919063ffffffff16565b90506001600160a01b03871663a9059cbb3361211a8585612689565b6040518363ffffffff1660e01b8152600401612137929190613404565b602060405180830381600087803b15801561215157600080fd5b505af1158015612165573d6000803e3d6000fd5b505050506040513d601f19601f820116820180604052508101906121899190613199565b50612195600885612c20565b505050505b5050505050565b73a5e0829caced8ffdd4de3c43696c57f7d7a678ff81565b60006060846001600160a01b031663d06ca61f85856040518363ffffffff1660e01b81526004016121eb9291906136c4565b60006040518083038186803b15801561220357600080fd5b505afa158015612217573d6000803e3d6000fd5b505050506040513d6000823e601f3d908101601f1916820160405261223f9190810190613109565b90508060018451038151811061225157fe5b60200260200101519150509392505050565b61226b612e0a565b604051806060016040528060058054905067ffffffffffffffff8111801561229257600080fd5b506040519080825280602002602001820160405280156122bc578160200160208202803683370190505b50815260200160058054905067ffffffffffffffff811180156122de57600080fd5b50604051908082528060200260200182016040528015612308578160200160208202803683370190505b5081526020016000815250905060005b60055481101561250757836001600160a01b03166005828154811061233957fe5b6000918252602090912001546001600160a01b031614806123835750826001600160a01b03166005828154811061236c57fe5b6000918252602090912001546001600160a01b0316145b1561238d576124ff565b6040805160038082526080820190925260609160208201838036833701905050905084816000815181106123bd57fe5b60200260200101906001600160a01b031690816001600160a01b031681525050600582815481106123ea57fe5b9060005260206000200160009054906101000a90046001600160a01b03168160018151811061241557fe5b60200260200101906001600160a01b031690816001600160a01b031681525050838160028151811061244357fe5b60200260200101906001600160a01b031690816001600160a01b031681525050600061246f87836110b7565b905060065481106124fc576005838154811061248757fe5b6000918252602090912001548451604086015181516001600160a01b039093169281106124b057fe5b60200260200101906001600160a01b031690816001600160a01b0316815250508084602001518560400151815181106124e557fe5b602090810291909101015260408401805160010190525b50505b600101612318565b509392505050565b612517612685565b6000546001600160a01b039081169116146125445760405162461bcd60e51b8152600401610e9c906135ec565b6001600160a01b03811661256a5760405162461bcd60e51b8152600401610e9c906134ba565b600080546040516001600160a01b03808516939216917f8be0079c531659141344cd1fd0a4f28419497f9722a3daafe3b4186f6b6457e091a3600080546001600160a01b0319166001600160a01b0392909216919091179055565b731b02da8cb0d097eb8d57a175b88c7d8b4799750681565b6000826125ec575060006113a0565b828202828482816125f957fe5b04146126175760405162461bcd60e51b8152600401610e9c906135ab565b9392505050565b600061261783836040518060400160405280601a81526020017f536166654d6174683a206469766973696f6e206279207a65726f000000000000815250612c35565b6000828201838110156126175760405162461bcd60e51b8152600401610e9c90613500565b3390565b600061261783836040518060400160405280601e81526020017f536166654d6174683a207375627472616374696f6e206f766572666c6f770000815250612c6c565b6040516323b872dd60e01b81526000906001600160a01b038516906323b872dd906126fe903390309087906004016133e0565b602060405180830381600087803b15801561271857600080fd5b505af115801561272c573d6000803e3d6000fd5b505050506040513d601f19601f820116820180604052508101906127509190613199565b50604085015160005b8151811015612c1657600082828151811061277057fe5b6020026020010151600781111561278357fe5b141561278e57612c16565b606060006001600160a01b0316886060015183815181106127ab57fe5b60200260200101516001600160a01b031614612836576128316040518060600160405280896001600160a01b03166001600160a01b031681526020018a6060015185815181106127f757fe5b60200260200101516001600160a01b03166001600160a01b03168152602001886001600160a01b03166001600160a01b0316815250612c98565b61285d565b604080518082019091526001600160a01b0380891682528716602082015261285d90612d09565b9050600060018451038314612889578860800151838151811061287c57fe5b6020026020010151612905565b6040516370a0823160e01b81526001600160a01b038916906370a08231906128b59030906004016133cc565b60206040518083038186803b1580156128cd57600080fd5b505afa1580156128e1573d6000803e3d6000fd5b505050506040513d601f19601f82011682018060405250810190612905919061321a565b905060008960a00151848151811061291957fe5b6020026020010151905060078081111561292f57fe5b85858151811061293b57fe5b6020026020010151600781111561294e57fe5b1415612a9e5760405163095ea7b360e01b81526001600160a01b038a169063095ea7b3906129969073a5e0829caced8ffdd4de3c43696c57f7d7a678ff908690600401613404565b602060405180830381600087803b1580156129b057600080fd5b505af11580156129c4573d6000803e3d6000fd5b505050506040513d601f19601f820116820180604052508101906129e89190613199565b506040516338ed173960e01b815260609073a5e0829caced8ffdd4de3c43696c57f7d7a678ff906338ed173990612a2b90869086908990309042906004016136f3565b600060405180830381600087803b158015612a4557600080fd5b505af1158015612a59573d6000803e3d6000fd5b505050506040513d6000823e601f3d908101601f19168201604052612a819190810190613109565b9050612a968160018351038151811061155757fe5b965050612c0b565b6005858581518110612aac57fe5b60200260200101516007811115612abf57fe5b1415612c0b5760405163095ea7b360e01b81526001600160a01b038a169063095ea7b390612b0790731b02da8cb0d097eb8d57a175b88c7d8b47997506908690600401613404565b602060405180830381600087803b158015612b2157600080fd5b505af1158015612b35573d6000803e3d6000fd5b505050506040513d601f19601f82011682018060405250810190612b599190613199565b506040516338ed173960e01b8152606090731b02da8cb0d097eb8d57a175b88c7d8b47997506906338ed173990612b9c90869086908990309042906004016136f3565b600060405180830381600087803b158015612bb657600080fd5b505af1158015612bca573d6000803e3d6000fd5b505050506040513d6000823e601f3d908101601f19168201604052612bf29190810190613109565b9050612c078160018351038151811061155757fe5b9650505b505050600101612759565b5050949350505050565b6000612617836001600160a01b038416612d72565b60008183612c565760405162461bcd60e51b8152600401610e9c9190613467565b506000838581612c6257fe5b0495945050505050565b60008184841115612c905760405162461bcd60e51b8152600401610e9c9190613467565b505050900390565b6040805160038082526080820190925260609160208201838036833701905050905060005b6003811015612d0357828160038110612cd257fe5b6020020151828281518110612ce357fe5b6001600160a01b0390921660209283029190910190910152600101612cbd565b50919050565b604080516002808252606080830184529260208301908036833701905050905060005b6002811015612d0357828160028110612d4157fe5b6020020151828281518110612d5257fe5b6001600160a01b0390921660209283029190910190910152600101612d2c565b6000612d7e8383612dbc565b612db4575081546001818101845560008481526020808220909301849055845484825282860190935260409020919091556113a0565b5060006113a0565b60009081526001919091016020526040902054151590565b6040518060c001604052806000815260200160008152602001606081526020016060815260200160608152602001606081525090565b60405180606001604052806060815260200160608152602001600081525090565b600082601f830112612e3b578081fd5b8135612e4e612e4982613756565b61372f565b818152915060208083019084810181840286018201871015612e6f57600080fd5b60005b84811015612e97578135612e8581613781565b84529282019290820190600101612e72565b505050505092915050565b805169ffffffffffffffffffff811681146113a057600080fd5b600060208284031215612ecd578081fd5b813561261781613781565b600060208284031215612ee9578081fd5b815161261781613781565b60008060408385031215612f06578081fd5b8235612f1181613781565b91506020830135612f2181613781565b809150509250929050565b600080600060608486031215612f40578081fd5b8335612f4b81613781565b92506020840135612f5b81613781565b91506040840135612f6b81613781565b809150509250925092565b60008060008060808587031215612f8b578081fd5b8435612f9681613781565b93506020850135612fa681613781565b92506040850135612fb681613781565b9396929550929360600135925050565b600080600060608486031215612fda578283fd5b8335612fe581613781565b92506020840135612ff581613781565b929592945050506040919091013590565b600080600080600060a0868803121561301d578081fd5b853561302881613781565b9450602086013561303881613781565b93506040860135925060608601359150608086013561305681613781565b809150509295509295909350565b60008060408385031215613076578182fd5b823561308181613781565b9150602083013567ffffffffffffffff81111561309c578182fd5b6130a885828601612e2b565b9150509250929050565b6000806000606084860312156130c6578283fd5b83356130d181613781565b925060208401359150604084013567ffffffffffffffff8111156130f3578182fd5b6130ff86828701612e2b565b9150509250925092565b6000602080838503121561311b578182fd5b825167ffffffffffffffff811115613131578283fd5b8301601f81018513613141578283fd5b805161314f612e4982613756565b818152838101908385018584028501860189101561316b578687fd5b8694505b8385101561318d57805183526001949094019391850191850161316f565b50979650505050505050565b6000602082840312156131aa578081fd5b81518015158114612617578182fd5b6000806000606084860312156131cd578081fd5b83516131d881613799565b60208501519093506131e981613799565b604085015190925063ffffffff81168114612f6b578182fd5b600060208284031215613213578081fd5b5035919050565b60006020828403121561322b578081fd5b5051919050565b600080600080600060a08688031215613249578283fd5b6132538787612ea2565b94506020860151935060408601519250606086015191506132778760808801612ea2565b90509295509295909350565b600060208284031215613294578081fd5b815160ff81168114612617578182fd5b6000815180845260208085019450808401835b838110156132dc5781516001600160a01b0316875295820195908201906001016132b7565b509495945050505050565b6000815180845260208085019450808401835b838110156132dc578151875295820195908201906001016132fa565b600060c083018251845260208084015181860152604084015160c0604087015282815180855260e08801915083830194508592505b808310156133735761335d8551613776565b825293830193600192909201919083019061334b565b5060608601519350868103606088015261338d81856132a4565b9350505050608083015184820360808601526133a982826132e7565b91505060a083015184820360a08601526133c382826132e7565b95945050505050565b6001600160a01b0391909116815260200190565b6001600160a01b039384168152919092166020820152604081019190915260600190565b6001600160a01b03929092168252602082015260400190565b6001600160a01b0392831681529116602082015260400190565b60006040825261344a60408301856132e7565b82810360208401526133c38185613316565b901515815260200190565b6000602080835283518082850152825b8181101561349357858101830151858201604001528201613477565b818111156134a45783604083870101525b50601f01601f1916929092016040019392505050565b60208082526026908201527f4f776e61626c653a206e6577206f776e657220697320746865207a65726f206160408201526564647265737360d01b606082015260800190565b6020808252601b908201527f536166654d6174683a206164646974696f6e206f766572666c6f770000000000604082015260600190565b6020808252604e908201527f426f626f526f757465723a206d6174696327707269636520676170206265747760408201527f65656e20636861696e6c696e6b20616e6420717569636b73776170206973206c60608201526d30b933b2903a3430b7101898129760911b608082015260a00190565b60208082526021908201527f536166654d6174683a206d756c7469706c69636174696f6e206f766572666c6f6040820152607760f81b606082015260800190565b6020808252818101527f4f776e61626c653a2063616c6c6572206973206e6f7420746865206f776e6572604082015260600190565b6020808252601f908201527f426f626f526f757465723a206d6964646c6520746f6b656e2045584953542e00604082015260600190565b60006020825282516060602084015261367460808401826132a4565b90506020840151601f1984830301604085015261369182826132e7565b915050604084015160608401528091505092915050565b6000602082526126176020830184613316565b90815260200190565b6000838252604060208301526136dd60408301846132a4565b949350505050565b918252602082015260400190565b600086825285602083015260a0604083015261371260a08301866132a4565b6001600160a01b0394909416606083015250608001529392505050565b60405181810167ffffffffffffffff8111828210171561374e57600080fd5b604052919050565b600067ffffffffffffffff82111561376c578081fd5b5060209081020190565b806008811061076957fe5b6001600160a01b038116811461379657600080fd5b50565b6001600160701b038116811461379657600080fdfea2646970667358221220797527b6de14a13e41e55a479185cd65121296a1819c0c498758eb054c32e22b64736f6c634300060c0033",
  "immutableReferences": {},
  "source": "// SPDX-License-Identifier: MIT\npragma solidity ^0.6.0;\npragma experimental ABIEncoderV2;\n        \nimport \"../common/BasicStruct.sol\";\nimport \"../SwapInterfaces.sol\";\n\ncontract BoboRouter4Arb is Ownable {\n    using SafeMath for uint256;\n    using EnumerableSet for EnumerableSet.AddressSet;\n    \n    address public constant quickSwapFactory = 0x5757371414417b8C6CAad45bAeF941aBc7d3Ab32;\n    address public constant quickSwapRouter = 0xa5E0829CaCEd8fFDD4De3c43696c57F7D7A678ff; \n    \n    address public constant sushiSwapFactory = 0xc35DADB65012eC5796536bD9864eD8773aBc74C4;\n    address public constant sushiSwapRouter = 0x1b02dA8Cb0d097eB8D57A175b88c7D8b47997506;\n    \n    address public constant USDT = 0xc2132D05D31c914a87C6611C10748AEb04B58e8F;   // decimals = 6\n    address public constant USDC = 0x2791Bca1f2de4661ED88A30C99A7a9449Aa84174;   // decimals = 6\n    address public constant WMATIC = 0x0d500B1d8E8eF31E21C99d1Db9A6444d3ADf1270; // decimals = 18\n    address public constant WETH = 0x7ceB23fD6bC0adD59E62ac25578270cFf1b9f619; // decimals = 18\n    address public constant QUICK = 0x831753DD7087CaC61aB5644b308642cc1c33Dc13; // decimals = 18\n\n    address public constant burnAddress = 0x000000000000000000000000000000000000dEaD;\n    uint256 public constant FACTOR = 1e8;\n    AggregatorV3Interface internal wmaticPriceFeed = AggregatorV3Interface(0xAB594600376Ec9fD91F8e885dADF0CE036862dE0);\n    AggregatorV3Interface internal wethPriceFeed = AggregatorV3Interface(0xF9680D99D6C9589e2a93a78A04A279e509205945);\n    AggregatorV3Interface internal quickPriceFeed = AggregatorV3Interface(0xa058689f4bCa95208bba3F265674AE95dED75B6D);\n    mapping(address => AggregatorV3Interface) public tokenAggregatorMap;\n    \n    address[] public middleTokens = [USDT, USDC, WMATIC, WETH, QUICK];\n    uint256 public MinLiquidityValue = 1e11;  // >=100000U \n\n    uint256 public feeRate = 0;\n    uint256 public constant BaseRate = 10000;\n\n    EnumerableSet.AddressSet private orderOwnerSet;\n    \n    struct PathsInfo {\n        address[] tokens;\n        uint256[] minUValues;\n        uint256 pathCount;\n    }\n    \n    constructor() public {\n        tokenAggregatorMap[WMATIC] = wmaticPriceFeed;\n        tokenAggregatorMap[WETH] = wethPriceFeed;\n        tokenAggregatorMap[QUICK] = quickPriceFeed;\n    }\n\n    function addMiddleTokenAndAggregator(address _middleToken, address _aggregator) public onlyOwner {\n        require(tokenAggregatorMap[_middleToken] == AggregatorV3Interface(address(0)), \"BoboRouter: middle token EXIST.\");\n        middleTokens.push(_middleToken);\n        tokenAggregatorMap[_middleToken] = AggregatorV3Interface(_aggregator);\n    }\n    \n    function isUToken(address token) public pure returns(bool) {\n        return token == USDT || token == USDC;\n    }\n    \n    function getBaseTokenPriceOnQuickSwap(address baseToken) public view returns(uint256) {\n       (address token0, ) = USDC < baseToken ? (USDC, baseToken) : (baseToken, USDC);\n       address pairAddr = ICommonFactory(quickSwapFactory).getPair(USDC, baseToken);\n       (uint256 reserveA, uint256 reserveB,) = ICommonPair(pairAddr).getReserves();\n       uint256 decimals = ERC20(baseToken).decimals();\n       uint256 decimalsGap = decimals - ERC20(USDC).decimals();\n       return token0 == USDC ? reserveA.mul(FACTOR).mul(10**decimalsGap).div(reserveB) : reserveB.mul(FACTOR).mul(10**decimalsGap).div(reserveA);\n    }\n    \n    function getBaseTokenPriceOnChainlink(address baseToken) public view returns(uint256) {\n        AggregatorV3Interface priceFeed = tokenAggregatorMap[baseToken];\n       (, int price,,,) = priceFeed.latestRoundData();\n        return uint256(price);\n    }\n    \n    function getReserves(address factoryAddr, address token0, address token1) public view returns(uint256, uint256) {\n        address pairAddr = ICommonFactory(factoryAddr).getPair(token0, token1);\n        if (pairAddr == address(0)) return (0, 0);\n        (uint256 reserveA, uint256 reserveB,) = ICommonPair(pairAddr).getReserves();\n        return (reserveA, reserveB);\n    }\n    \n    function getMinUValue(address factoryAddr, address[] memory path) public view returns(uint256) {\n       uint256 minUValue = uint256(-1);\n       \n       for (uint256 i = 0; i < path.length - 1; i++) {\n           uint256 tmpUValue;\n           (address token0, address token1) = path[i] < path[i + 1] ? (path[i], path[i + 1]) : (path[i + 1], path[i]);\n           (uint256 reserveA, uint256 reserveB) = getReserves(factoryAddr, token0, token1);\n           if (isUToken(token0)) {\n               tmpUValue = reserveA;\n           } else if (isUToken(token1)) {\n               tmpUValue = reserveB;\n           } else {\n               (address baseToken, uint256 reserve) = tokenAggregatorMap[token0] != AggregatorV3Interface(address(0)) ? (token0, reserveA) : (token1, reserveB); \n               uint256 baseTokenPriceOnQuickSwap = getBaseTokenPriceOnQuickSwap(baseToken);\n               uint256 baseTokenPriceOnChainlink = getBaseTokenPriceOnChainlink(baseToken);\n               uint256 gap = 0;\n               if (baseTokenPriceOnQuickSwap > baseTokenPriceOnChainlink) {\n                   gap = baseTokenPriceOnQuickSwap.sub(baseTokenPriceOnChainlink).mul(1000).div(baseTokenPriceOnChainlink);\n               } else {\n                   gap = baseTokenPriceOnChainlink.sub(baseTokenPriceOnQuickSwap).mul(1000).div(baseTokenPriceOnQuickSwap);\n               }\n               require(gap <= 100, \"BoboRouter: matic'price gap between chainlink and quickswap is large than 10%.\");\n               uint256 decimals = ERC20(baseToken).decimals();\n               uint256 decimalsGap = decimals - ERC20(USDC).decimals();\n               tmpUValue = baseTokenPriceOnChainlink.mul(reserve).div(FACTOR).div(10**decimalsGap);\n           }\n           if (minUValue > tmpUValue) minUValue = tmpUValue;\n       }\n       return minUValue;\n    }\n    \n    function getPaths(address factoryAddr, address inToken, address outToken) public view returns(PathsInfo memory pathsInfo) {\n        pathsInfo = PathsInfo(new address[](middleTokens.length), new uint256[](middleTokens.length), 0);\n        for (uint256 i = 0; i < middleTokens.length; i++) {\n            if (middleTokens[i] == inToken || middleTokens[i] == outToken) continue;\n            \n            address[] memory path = new address[](3);\n            path[0] = inToken; \n            path[1] = middleTokens[i]; \n            path[2] = outToken;\n            uint256 minUValue = getMinUValue(factoryAddr, path);\n            if (minUValue >= MinLiquidityValue) {\n                pathsInfo.tokens[pathsInfo.pathCount] = middleTokens[i]; \n                pathsInfo.minUValues[pathsInfo.pathCount] = minUValue;\n                pathsInfo.pathCount++;\n            }\n        }\n    }\n\n    function caculateTotalLiquidity(address inToken, address outToken) public view returns(uint256 totalULiquidity) {\n        PathsInfo memory quickSwapPathsInfo = getPaths(quickSwapFactory, inToken, outToken);\n        PathsInfo memory sushiSwapPathsInfo = getPaths(sushiSwapFactory, inToken, outToken);\n        \n        address[] memory path = new address[](2);\n        path[0] = inToken;\n        path[1] = outToken;\n        \n        uint256 quickSwapMinUValue = getMinUValue(quickSwapFactory, path);\n        uint256 sushiSwapMinUValue = getMinUValue(sushiSwapFactory, path);\n        \n        if (quickSwapMinUValue > MinLiquidityValue) {\n            totalULiquidity = totalULiquidity.add(quickSwapMinUValue);\n        }\n        if (sushiSwapMinUValue > MinLiquidityValue) {\n            totalULiquidity = totalULiquidity.add(sushiSwapMinUValue);\n        }\n        \n        for (uint256 i = 0; i < quickSwapPathsInfo.pathCount; i++) {\n            totalULiquidity = totalULiquidity.add(quickSwapPathsInfo.minUValues[i]);\n        }\n        for (uint256 i = 0; i < sushiSwapPathsInfo.pathCount; i++) {\n            totalULiquidity = totalULiquidity.add(sushiSwapPathsInfo.minUValues[i]);\n        }\n        totalULiquidity = totalULiquidity.mul(2);\n    }\n    \n    function getBaseAmountOut(address inToken, address outToken, uint256 amountIn) external view returns(uint256 amountOut) {\n        (, ResultInfo memory bestResultInfo) = getBestSwapPath(inToken, outToken, amountIn);\n        return bestResultInfo.totalAmountOut;\n    }\n\n    function getBestSwapPath(address inToken, address outToken, uint256 amountIn) public view returns(uint256[] memory amountsOut, ResultInfo memory bestResultInfo) {\n        amountsOut = new uint256[](3);\n        \n        address[] memory path = new address[](2);\n        path[0] = inToken;\n        path[1] = outToken;\n        \n        //ResultInfo memory bestResultInfo;\n        uint256 totalAmountOut = 0;\n        \n        (ResultInfo memory quickSwapResultInfo) = caculateOneDexAmountOut(quickSwapFactory, inToken, outToken, amountIn);\n        amountsOut[0] = quickSwapResultInfo.totalAmountOut;\n        if (quickSwapResultInfo.totalAmountOut > totalAmountOut) {\n            bestResultInfo = quickSwapResultInfo;\n            totalAmountOut = quickSwapResultInfo.totalAmountOut;\n        }\n        \n        (ResultInfo memory sushiSwapResultInfo) = caculateOneDexAmountOut(sushiSwapFactory, inToken, outToken, amountIn);\n        amountsOut[1] = sushiSwapResultInfo.totalAmountOut;\n        if (sushiSwapResultInfo.totalAmountOut > totalAmountOut) {\n            bestResultInfo = sushiSwapResultInfo;\n            totalAmountOut = sushiSwapResultInfo.totalAmountOut;\n        }\n        \n        ResultInfo memory allResultInfo = caculateAmountOut(inToken, outToken, amountIn);\n        amountsOut[2] = allResultInfo.totalAmountOut;\n        if (allResultInfo.totalAmountOut > totalAmountOut) {\n            bestResultInfo = allResultInfo;\n            totalAmountOut = allResultInfo.totalAmountOut;\n        }\n    }\n\n    function caculateOneDexAmountOut(address dexFactory, address inToken, address outToken, uint256 amountIn) public view returns(ResultInfo memory resultInfo) {\n        PathsInfo memory pathsInfo = getPaths(dexFactory, inToken, outToken);\n        address[] memory path = new address[](2);\n        path[0] = inToken;\n        path[1] = outToken;\n        \n        uint256 minUValue = getMinUValue(dexFactory, path);\n        \n        uint256 totalULiquidity = 0;\n        if (minUValue > MinLiquidityValue) {\n            totalULiquidity = totalULiquidity.add(minUValue);\n        }\n        \n        for (uint256 i = 0; i < pathsInfo.pathCount; i++) {\n            totalULiquidity = totalULiquidity.add(pathsInfo.minUValues[i]);\n        }\n        \n        uint256 partialAmountIn;\n        uint256 totalAmountOut = 0;\n        \n        resultInfo.swapPools = new SwapPool[](4);\n        resultInfo.middleTokens = new address[](4);\n        resultInfo.partialAmountIns = new uint256[](4);\n        resultInfo.partialAmountOuts = new uint256[](4);\n        uint256 count = 0;\n        address routerAddr = dexFactory == quickSwapFactory ? quickSwapRouter : sushiSwapRouter;\n        SwapPool middleTokeType = dexFactory == quickSwapFactory ? SwapPool.QuickSwap : SwapPool.SushiSwap;\n        \n        if (minUValue > MinLiquidityValue) {\n            partialAmountIn = minUValue.mul(amountIn).div(totalULiquidity);\n            uint256 amountOut = getAmountOut(routerAddr, partialAmountIn, path);\n            \n            resultInfo.swapPools[count] = middleTokeType;\n            resultInfo.middleTokens[count] = address(0); \n            resultInfo.partialAmountIns[count] = partialAmountIn;\n            resultInfo.partialAmountOuts[count] = amountOut;\n            totalAmountOut = totalAmountOut.add(amountOut);\n            count++;\n        }\n        \n        address[] memory tmpPath = new address[](3);\n        for (uint256 i = 0; i < pathsInfo.pathCount; i++) {\n            tmpPath[0] = inToken;\n            tmpPath[1] = pathsInfo.tokens[i];\n            tmpPath[2] = outToken;\n            partialAmountIn = pathsInfo.minUValues[i] * amountIn / totalULiquidity;\n            uint256 amountOut = getAmountOut(routerAddr, partialAmountIn, tmpPath);\n            \n            resultInfo.swapPools[count] = middleTokeType;\n            resultInfo.middleTokens[count] = pathsInfo.tokens[i]; \n            resultInfo.partialAmountIns[count] = partialAmountIn;\n            resultInfo.partialAmountOuts[count] = amountOut;\n            totalAmountOut = totalAmountOut.add(amountOut);\n            count++;\n        }\n        resultInfo.totalAmountOut = totalAmountOut;\n        resultInfo.totalULiquidity = totalULiquidity;\n    }\n        \n    function caculateAmountOut(address inToken, address outToken, uint256 amountIn) public view returns(ResultInfo memory resultInfo) {\n        PathsInfo memory quickSwapPathsInfo = getPaths(quickSwapFactory, inToken, outToken);\n        PathsInfo memory sushiSwapPathsInfo = getPaths(sushiSwapFactory, inToken, outToken);\n        \n        address[] memory path = new address[](2);\n        path[0] = inToken;\n        path[1] = outToken;\n        \n        uint256 quickSwapMinUValue = getMinUValue(quickSwapFactory, path);\n        uint256 sushiSwapMinUValue = getMinUValue(sushiSwapFactory, path);\n        \n        uint256 totalULiquidity = 0;\n        if (quickSwapMinUValue > MinLiquidityValue) {\n            totalULiquidity = totalULiquidity.add(quickSwapMinUValue);\n        }\n        if (sushiSwapMinUValue > MinLiquidityValue) {\n            totalULiquidity = totalULiquidity.add(sushiSwapMinUValue);\n        }\n        \n        for (uint256 i = 0; i < quickSwapPathsInfo.pathCount; i++) {\n            totalULiquidity = totalULiquidity.add(quickSwapPathsInfo.minUValues[i]);\n        }\n        for (uint256 i = 0; i < sushiSwapPathsInfo.pathCount; i++) {\n            totalULiquidity = totalULiquidity.add(sushiSwapPathsInfo.minUValues[i]);\n        }\n        \n        \n        uint256 partialAmountIn;\n        uint256 totalAmountOut = 0;\n        \n        resultInfo.swapPools = new SwapPool[](10);\n        resultInfo.middleTokens = new address[](10);\n        resultInfo.partialAmountIns = new uint256[](10);\n        resultInfo.partialAmountOuts = new uint256[](10);\n        uint256 count = 0;\n        \n        if (quickSwapMinUValue > MinLiquidityValue) {\n            partialAmountIn = quickSwapMinUValue.mul(amountIn).div(totalULiquidity);\n            uint256 amountOut = getAmountOut(quickSwapRouter, partialAmountIn, path);\n            \n            resultInfo.swapPools[count] = SwapPool.QuickSwap;\n            resultInfo.middleTokens[count] = address(0); \n            resultInfo.partialAmountIns[count] = partialAmountIn;\n            resultInfo.partialAmountOuts[count] = amountOut;\n            totalAmountOut = totalAmountOut.add(amountOut);\n            count++;\n        }\n        \n        if (sushiSwapMinUValue > MinLiquidityValue) {\n            partialAmountIn = sushiSwapMinUValue.mul(amountIn).div(totalULiquidity);\n            uint256 amountOut = getAmountOut(sushiSwapRouter, partialAmountIn, path);\n            \n            resultInfo.swapPools[count] = SwapPool.SushiSwap;\n            resultInfo.middleTokens[count] = address(0); \n            resultInfo.partialAmountIns[count] = partialAmountIn;\n            resultInfo.partialAmountOuts[count] = amountOut;\n            totalAmountOut = totalAmountOut.add(amountOut);\n            count++;\n        }\n        \n        address[] memory tmpPath = new address[](3);\n        for (uint256 i = 0; i < quickSwapPathsInfo.pathCount; i++) {\n            tmpPath[0] = inToken;\n            tmpPath[1] = quickSwapPathsInfo.tokens[i];\n            tmpPath[2] = outToken;\n            partialAmountIn = quickSwapPathsInfo.minUValues[i] * amountIn / totalULiquidity;\n            uint256 amountOut = getAmountOut(quickSwapRouter, partialAmountIn, tmpPath);\n            \n            resultInfo.swapPools[count] = SwapPool.QuickSwap;\n            resultInfo.middleTokens[count] = quickSwapPathsInfo.tokens[i]; \n            resultInfo.partialAmountIns[count] = partialAmountIn;\n            resultInfo.partialAmountOuts[count] = amountOut;\n            totalAmountOut = totalAmountOut.add(amountOut);\n            count++;\n        }\n        for (uint256 i = 0; i < sushiSwapPathsInfo.pathCount; i++) {\n            tmpPath[0] = inToken;\n            tmpPath[1] = sushiSwapPathsInfo.tokens[i];\n            tmpPath[2] = outToken;\n            partialAmountIn = sushiSwapPathsInfo.minUValues[i] * amountIn / totalULiquidity;\n            uint256 amountOut = getAmountOut(sushiSwapRouter, partialAmountIn, tmpPath);\n            \n            resultInfo.swapPools[count] = SwapPool.SushiSwap;\n            resultInfo.middleTokens[count] = sushiSwapPathsInfo.tokens[i]; \n            resultInfo.partialAmountIns[count] = partialAmountIn;\n            resultInfo.partialAmountOuts[count] = amountOut;\n            totalAmountOut = totalAmountOut.add(amountOut);\n            count++;\n        }\n        resultInfo.totalAmountOut = totalAmountOut;\n        resultInfo.totalULiquidity = totalULiquidity;\n    }\n    \n    function getAmountOut(address routerAddr, uint256 partialAmountIn, address[] memory path) public view returns(uint256) {\n        uint256[] memory amountsOut = ICommonRouter(routerAddr).getAmountsOut(partialAmountIn, path);\n        return amountsOut[path.length - 1];\n    }\n    \n    function convertThreePath(address[3] memory path) private pure returns(address[] memory newPath) {\n        newPath = new address[](path.length);\n        for (uint256 i = 0; i < path.length; i++) {\n            newPath[i] = path[i];\n        }\n    }\n    \n    function convertTwoPath(address[2] memory path) private pure returns(address[] memory newPath) {\n        newPath = new address[](path.length);\n        for (uint256 i = 0; i < path.length; i++) {\n            newPath[i] = path[i];\n        }\n    }\n    \n    function exeSwap(ResultInfo memory _bestSwapInfo, address _inToken, address _outToken, uint256 _amountIn) private returns(uint256 totalAmountOut) {\n        IERC20(_inToken).transferFrom(msg.sender, address(this), _amountIn);\n        \n        SwapPool[] memory swapPools = _bestSwapInfo.swapPools;\n        for (uint256 i = 0; i < swapPools.length; i++) {\n            if (swapPools[i] == SwapPool.No) break;\n            \n            address[] memory path = _bestSwapInfo.middleTokens[i] == address(0) ? convertTwoPath([_inToken, _outToken]) :convertThreePath([_inToken, _bestSwapInfo.middleTokens[i], _outToken]);\n            uint256 partialAmountIn = (i == swapPools.length - 1) ? IERC20(_inToken).balanceOf(address(this)) : _bestSwapInfo.partialAmountIns[i];\n            uint256 partialAmountOut = _bestSwapInfo.partialAmountOuts[i];\n            if (swapPools[i] == SwapPool.QuickSwap) {\n                IERC20(_inToken).approve(quickSwapRouter, partialAmountIn);\n                uint256[] memory amountOuts = ICommonRouter(quickSwapRouter).swapExactTokensForTokens(partialAmountIn, partialAmountOut, path, address(this), now);\n                totalAmountOut = totalAmountOut.add(amountOuts[amountOuts.length - 1]);\n            } else if (swapPools[i] == SwapPool.SushiSwap) {\n                IERC20(_inToken).approve(sushiSwapRouter, partialAmountIn);\n                uint256[] memory amountOuts = ICommonRouter(sushiSwapRouter).swapExactTokensForTokens(partialAmountIn, partialAmountOut, path, address(this), now);\n                totalAmountOut = totalAmountOut.add(amountOuts[amountOuts.length - 1]);\n            } \n        }\n    }\n\n    function swap(address _inToken, address _outToken, uint256 _amountIn, uint256 _minAmountOut, address _orderOwner) external {\n        (, ResultInfo memory bestResultInfo) = getBestSwapPath(_inToken, _outToken, _amountIn);\n        if (bestResultInfo.totalAmountOut < _minAmountOut) return;\n\n        uint256 totalAmountOut = exeSwap(bestResultInfo, _inToken, _outToken, _amountIn);\n        uint256 profitAmount = totalAmountOut.sub(_minAmountOut).mul(feeRate).div(BaseRate);\n\n        IERC20(_outToken).transfer(msg.sender, totalAmountOut.sub(profitAmount));\n        orderOwnerSet.add(_orderOwner);\n    }\n\n    function withdrawToken(address _tokenAddr) public onlyOwner {\n        ERC20(_tokenAddr).transfer(msg.sender, ERC20(_tokenAddr).balanceOf(address(this)));\n    }\n\n    function setFeeRate(uint256 _feeRate) public onlyOwner {\n        feeRate = _feeRate;\n    }\n }",
  "sourcePath": "/Users/mryu/blockchain/bobo-metaverse/boboswap-contract/contracts/Arbitrum/BoboRouterOnArb.sol",
  "compiler": {
    "name": "solc",
    "version": "0.6.12+commit.27d51765.Emscripten.clang"
  },
  "schemaVersion": "3.4.3",
  "updatedAt": "2021-10-20T12:34:30.243Z",
  "devdoc": {
    "kind": "dev",
    "methods": {
      "owner()": {
        "details": "Returns the address of the current owner."
      },
      "renounceOwnership()": {
        "details": "Leaves the contract without owner. It will not be possible to call `onlyOwner` functions anymore. Can only be called by the current owner. NOTE: Renouncing ownership will leave the contract without an owner, thereby removing any functionality that is only available to the owner."
      },
      "transferOwnership(address)": {
        "details": "Transfers ownership of the contract to a new account (`newOwner`). Can only be called by the current owner."
      }
    },
    "version": 1
  },
  "userdoc": {
    "kind": "user",
    "methods": {},
    "version": 1
  }
}