{
  "contractName": "BoboRouter4Stub",
  "abi": [
    {
      "inputs": [],
      "stateMutability": "nonpayable",
      "type": "constructor"
    },
    {
      "anonymous": false,
      "inputs": [
        {
          "indexed": true,
          "internalType": "address",
          "name": "previousOwner",
          "type": "address"
        },
        {
          "indexed": true,
          "internalType": "address",
          "name": "newOwner",
          "type": "address"
        }
      ],
      "name": "OwnershipTransferred",
      "type": "event"
    },
    {
      "inputs": [],
      "name": "owner",
      "outputs": [
        {
          "internalType": "address",
          "name": "",
          "type": "address"
        }
      ],
      "stateMutability": "view",
      "type": "function"
    },
    {
      "inputs": [],
      "name": "renounceOwnership",
      "outputs": [],
      "stateMutability": "nonpayable",
      "type": "function"
    },
    {
      "inputs": [
        {
          "internalType": "address",
          "name": "newOwner",
          "type": "address"
        }
      ],
      "name": "transferOwnership",
      "outputs": [],
      "stateMutability": "nonpayable",
      "type": "function"
    },
    {
      "inputs": [
        {
          "internalType": "address",
          "name": "inToken",
          "type": "address"
        },
        {
          "internalType": "address",
          "name": "outToken",
          "type": "address"
        },
        {
          "internalType": "uint256",
          "name": "amountIn",
          "type": "uint256"
        }
      ],
      "name": "getBaseAmountOut",
      "outputs": [
        {
          "internalType": "uint256",
          "name": "amountOut",
          "type": "uint256"
        }
      ],
      "stateMutability": "view",
      "type": "function"
    },
    {
      "inputs": [
        {
          "internalType": "address",
          "name": "_inToken",
          "type": "address"
        },
        {
          "internalType": "address",
          "name": "_outToken",
          "type": "address"
        },
        {
          "internalType": "uint256",
          "name": "_amountIn",
          "type": "uint256"
        },
        {
          "internalType": "uint256",
          "name": "_minAmountOut",
          "type": "uint256"
        },
        {
          "internalType": "address",
          "name": "_orderOwner",
          "type": "address"
        }
      ],
      "name": "swap",
      "outputs": [],
      "stateMutability": "nonpayable",
      "type": "function"
    },
    {
      "inputs": [
        {
          "internalType": "address",
          "name": "_tokenAddr",
          "type": "address"
        }
      ],
      "name": "withdrawToken",
      "outputs": [],
      "stateMutability": "nonpayable",
      "type": "function"
    }
  ],
  "bytecode": "0x608060405234801561001057600080fd5b50600061001b61006a565b600080546001600160a01b0319166001600160a01b0383169081178255604051929350917f8be0079c531659141344cd1fd0a4f28419497f9722a3daafe3b4186f6b6457e0908290a35061006e565b3390565b6109f68061007d6000396000f3fe608060405234801561001057600080fd5b50600436106100625760003560e01c806312f69a7714610067578063715018a614610090578063894760691461009a5780638da5cb5b146100ad578063d5bcb9b5146100c2578063f2fde38b146100d5575b600080fd5b61007a610075366004610732565b6100e8565b604051610087919061099f565b60405180910390f35b61009861021a565b005b6100986100a836600461070b565b6102a2565b6100b56103d0565b6040516100879190610808565b6100986100d0366004610772565b6103df565b6100986100e336600461070b565b610502565b600080846001600160a01b03166370a08231306040518263ffffffff1660e01b81526004016101179190610808565b60206040518083038186803b15801561012f57600080fd5b505afa158015610143573d6000803e3d6000fd5b505050506040513d601f19601f8201168201806040525081019061016791906107f0565b90506000846001600160a01b03166370a08231306040518263ffffffff1660e01b81526004016101979190610808565b60206040518083038186803b1580156101af57600080fd5b505afa1580156101c3573d6000803e3d6000fd5b505050506040513d601f19601f820116820180604052508101906101e791906107f0565b90506102106102096101f984876105b8565b61020385856105e6565b90610620565b8290610662565b9695505050505050565b6102226106a4565b6000546001600160a01b039081169116146102585760405162461bcd60e51b815260040161024f9061096a565b60405180910390fd5b600080546040516001600160a01b03909116907f8be0079c531659141344cd1fd0a4f28419497f9722a3daafe3b4186f6b6457e0908390a3600080546001600160a01b0319169055565b6102aa6106a4565b6000546001600160a01b039081169116146102d75760405162461bcd60e51b815260040161024f9061096a565b6040516370a0823160e01b81526001600160a01b0382169063a9059cbb90339083906370a082319061030d903090600401610808565b60206040518083038186803b15801561032557600080fd5b505afa158015610339573d6000803e3d6000fd5b505050506040513d601f19601f8201168201806040525081019061035d91906107f0565b6040518363ffffffff1660e01b815260040161037a929190610840565b602060405180830381600087803b15801561039457600080fd5b505af11580156103a8573d6000803e3d6000fd5b505050506040513d601f19601f820116820180604052508101906103cc91906107d0565b5050565b6000546001600160a01b031690565b60006103ec8686866100e8565b90508281106104fa576040516323b872dd60e01b81526001600160a01b038716906323b872dd906104259033903090899060040161081c565b602060405180830381600087803b15801561043f57600080fd5b505af1158015610453573d6000803e3d6000fd5b505050506040513d601f19601f8201168201806040525081019061047791906107d0565b5060405163a9059cbb60e01b81526001600160a01b0386169063a9059cbb906104a69033908590600401610840565b602060405180830381600087803b1580156104c057600080fd5b505af11580156104d4573d6000803e3d6000fd5b505050506040513d601f19601f820116820180604052508101906104f891906107d0565b505b505050505050565b61050a6106a4565b6000546001600160a01b039081169116146105375760405162461bcd60e51b815260040161024f9061096a565b6001600160a01b03811661055d5760405162461bcd60e51b815260040161024f906108ac565b600080546040516001600160a01b03808516939216917f8be0079c531659141344cd1fd0a4f28419497f9722a3daafe3b4186f6b6457e091a3600080546001600160a01b0319166001600160a01b0392909216919091179055565b6000828201838110156105dd5760405162461bcd60e51b815260040161024f906108f2565b90505b92915050565b6000826105f5575060006105e0565b8282028284828161060257fe5b04146105dd5760405162461bcd60e51b815260040161024f90610929565b60006105dd83836040518060400160405280601a81526020017f536166654d6174683a206469766973696f6e206279207a65726f0000000000008152506106a8565b60006105dd83836040518060400160405280601e81526020017f536166654d6174683a207375627472616374696f6e206f766572666c6f7700008152506106df565b3390565b600081836106c95760405162461bcd60e51b815260040161024f9190610859565b5060008385816106d557fe5b0495945050505050565b600081848411156107035760405162461bcd60e51b815260040161024f9190610859565b505050900390565b60006020828403121561071c578081fd5b81356001600160a01b03811681146105dd578182fd5b600080600060608486031215610746578182fd5b8335610751816109a8565b92506020840135610761816109a8565b929592945050506040919091013590565b600080600080600060a08688031215610789578081fd5b8535610794816109a8565b945060208601356107a4816109a8565b9350604086013592506060860135915060808601356107c2816109a8565b809150509295509295909350565b6000602082840312156107e1578081fd5b815180151581146105dd578182fd5b600060208284031215610801578081fd5b5051919050565b6001600160a01b0391909116815260200190565b6001600160a01b039384168152919092166020820152604081019190915260600190565b6001600160a01b03929092168252602082015260400190565b6000602080835283518082850152825b8181101561088557858101830151858201604001528201610869565b818111156108965783604083870101525b50601f01601f1916929092016040019392505050565b60208082526026908201527f4f776e61626c653a206e6577206f776e657220697320746865207a65726f206160408201526564647265737360d01b606082015260800190565b6020808252601b908201527f536166654d6174683a206164646974696f6e206f766572666c6f770000000000604082015260600190565b60208082526021908201527f536166654d6174683a206d756c7469706c69636174696f6e206f766572666c6f6040820152607760f81b606082015260800190565b6020808252818101527f4f776e61626c653a2063616c6c6572206973206e6f7420746865206f776e6572604082015260600190565b90815260200190565b6001600160a01b03811681146109bd57600080fd5b5056fea2646970667358221220b127d26f07ec19d04f5300f1aafd63e86393ff0bd6343ff3214251863dff713164736f6c634300060c0033",
  "immutableReferences": {},
  "source": "// SPDX-License-Identifier: MIT\npragma solidity ^0.6.0;\npragma experimental ABIEncoderV2;\n        \nimport \"../common/BasicStruct.sol\";\n\ncontract BoboRouter4Stub is Ownable {\n    using SafeMath for uint256;\n    //using EnumerableSet for EnumerableSet.AddressSet;\n\n    // address public constant USDT = 0x4988a896b1227218e4a686fde5eabdcabd91571f; // decimals = 6\n    // address public constant USDC = 0xb12bfca5a55806aaf64e99521918a4bf0fc40802; // decimals = 6\n    // address public constant UNI = 0x1bc741235ec0ee86ad488fa49b69bb6c823ee7b7; // decimals = 18\n\n    constructor() public {\n    }\n\n    function getBaseAmountOut(address inToken, address outToken, uint256 amountIn) public view returns(uint256 amountOut) {\n        uint256 reserve0 = ERC20(inToken).balanceOf(address(this));\n        uint256 reserve1 = ERC20(outToken).balanceOf(address(this));\n        return reserve1.sub(reserve0.mul(reserve1).div(reserve0.add(amountIn)));\n    }\n    \n    function swap(address _inToken, address _outToken, uint256 _amountIn, uint256 _minAmountOut, address _orderOwner) external {\n        _orderOwner = _orderOwner;\n        uint256 amountOut = getBaseAmountOut(_inToken, _outToken, _amountIn);\n        if (amountOut >= _minAmountOut) {\n            IERC20(_inToken).transferFrom(msg.sender, address(this), _amountIn);\n            IERC20(_outToken).transfer(msg.sender, amountOut);\n        }\n    }\n\n    function withdrawToken(address _tokenAddr) public onlyOwner {\n        ERC20(_tokenAddr).transfer(msg.sender, ERC20(_tokenAddr).balanceOf(address(this)));\n    }\n }",
  "sourcePath": "/Users/mryu/blockchain/bobo-metaverse/boboswap-contract/contracts/Stub/BoboRouter4Stub.sol",
  "compiler": {
    "name": "solc",
    "version": "0.6.12+commit.27d51765.Emscripten.clang"
  },
  "schemaVersion": "3.4.3",
  "updatedAt": "2021-10-20T12:35:53.351Z",
  "devdoc": {
    "kind": "dev",
    "methods": {
      "owner()": {
        "details": "Returns the address of the current owner."
      },
      "renounceOwnership()": {
        "details": "Leaves the contract without owner. It will not be possible to call `onlyOwner` functions anymore. Can only be called by the current owner. NOTE: Renouncing ownership will leave the contract without an owner, thereby removing any functionality that is only available to the owner."
      },
      "transferOwnership(address)": {
        "details": "Transfers ownership of the contract to a new account (`newOwner`). Can only be called by the current owner."
      }
    },
    "version": 1
  },
  "userdoc": {
    "kind": "user",
    "methods": {},
    "version": 1
  }
}