{
  "contractName": "BoboMasterChef",
  "abi": [
    {
      "inputs": [
        {
          "internalType": "address",
          "name": "_boboTokenAddress",
          "type": "address"
        },
        {
          "internalType": "address",
          "name": "_fundAddr",
          "type": "address"
        }
      ],
      "stateMutability": "nonpayable",
      "type": "constructor"
    },
    {
      "anonymous": false,
      "inputs": [
        {
          "indexed": true,
          "internalType": "address",
          "name": "user",
          "type": "address"
        },
        {
          "indexed": true,
          "internalType": "uint256",
          "name": "pid",
          "type": "uint256"
        },
        {
          "indexed": false,
          "internalType": "uint256",
          "name": "amount",
          "type": "uint256"
        }
      ],
      "name": "Deposit",
      "type": "event"
    },
    {
      "anonymous": false,
      "inputs": [
        {
          "indexed": true,
          "internalType": "address",
          "name": "user",
          "type": "address"
        },
        {
          "indexed": true,
          "internalType": "uint256",
          "name": "pid",
          "type": "uint256"
        },
        {
          "indexed": false,
          "internalType": "uint256",
          "name": "amount",
          "type": "uint256"
        }
      ],
      "name": "EmergencyWithdraw",
      "type": "event"
    },
    {
      "anonymous": false,
      "inputs": [
        {
          "indexed": true,
          "internalType": "address",
          "name": "previousOwner",
          "type": "address"
        },
        {
          "indexed": true,
          "internalType": "address",
          "name": "newOwner",
          "type": "address"
        }
      ],
      "name": "OwnershipTransferred",
      "type": "event"
    },
    {
      "anonymous": false,
      "inputs": [
        {
          "indexed": true,
          "internalType": "address",
          "name": "user",
          "type": "address"
        },
        {
          "indexed": true,
          "internalType": "uint256",
          "name": "pid",
          "type": "uint256"
        },
        {
          "indexed": false,
          "internalType": "uint256",
          "name": "amount",
          "type": "uint256"
        },
        {
          "indexed": false,
          "internalType": "uint256",
          "name": "reward",
          "type": "uint256"
        }
      ],
      "name": "Withdraw",
      "type": "event"
    },
    {
      "inputs": [],
      "name": "boboPerBlock",
      "outputs": [
        {
          "internalType": "uint256",
          "name": "",
          "type": "uint256"
        }
      ],
      "stateMutability": "view",
      "type": "function"
    },
    {
      "inputs": [],
      "name": "boboToken",
      "outputs": [
        {
          "internalType": "contract IBOBOToken",
          "name": "",
          "type": "address"
        }
      ],
      "stateMutability": "view",
      "type": "function"
    },
    {
      "inputs": [],
      "name": "denominator",
      "outputs": [
        {
          "internalType": "uint256",
          "name": "",
          "type": "uint256"
        }
      ],
      "stateMutability": "view",
      "type": "function"
    },
    {
      "inputs": [],
      "name": "fundAddr",
      "outputs": [
        {
          "internalType": "address",
          "name": "",
          "type": "address"
        }
      ],
      "stateMutability": "view",
      "type": "function"
    },
    {
      "inputs": [],
      "name": "numerator",
      "outputs": [
        {
          "internalType": "uint256",
          "name": "",
          "type": "uint256"
        }
      ],
      "stateMutability": "view",
      "type": "function"
    },
    {
      "inputs": [],
      "name": "owner",
      "outputs": [
        {
          "internalType": "address",
          "name": "",
          "type": "address"
        }
      ],
      "stateMutability": "view",
      "type": "function"
    },
    {
      "inputs": [
        {
          "internalType": "uint256",
          "name": "",
          "type": "uint256"
        }
      ],
      "name": "poolList",
      "outputs": [
        {
          "internalType": "contract IERC20",
          "name": "lpToken",
          "type": "address"
        },
        {
          "internalType": "uint256",
          "name": "allocPoint",
          "type": "uint256"
        },
        {
          "internalType": "uint256",
          "name": "lastRewardBlock",
          "type": "uint256"
        },
        {
          "internalType": "uint256",
          "name": "accBoboPerShare",
          "type": "uint256"
        }
      ],
      "stateMutability": "view",
      "type": "function"
    },
    {
      "inputs": [],
      "name": "renounceOwnership",
      "outputs": [],
      "stateMutability": "nonpayable",
      "type": "function"
    },
    {
      "inputs": [],
      "name": "totalAllocPoint",
      "outputs": [
        {
          "internalType": "uint256",
          "name": "",
          "type": "uint256"
        }
      ],
      "stateMutability": "view",
      "type": "function"
    },
    {
      "inputs": [
        {
          "internalType": "address",
          "name": "newOwner",
          "type": "address"
        }
      ],
      "name": "transferOwnership",
      "outputs": [],
      "stateMutability": "nonpayable",
      "type": "function"
    },
    {
      "inputs": [
        {
          "internalType": "uint256",
          "name": "",
          "type": "uint256"
        },
        {
          "internalType": "address",
          "name": "",
          "type": "address"
        }
      ],
      "name": "userInfoMap",
      "outputs": [
        {
          "internalType": "uint256",
          "name": "amount",
          "type": "uint256"
        },
        {
          "internalType": "uint256",
          "name": "rewardDebt",
          "type": "uint256"
        }
      ],
      "stateMutability": "view",
      "type": "function"
    },
    {
      "inputs": [
        {
          "internalType": "uint256",
          "name": "_boboPerBlock",
          "type": "uint256"
        }
      ],
      "name": "setBoboPerBlock",
      "outputs": [],
      "stateMutability": "nonpayable",
      "type": "function"
    },
    {
      "inputs": [
        {
          "internalType": "uint256",
          "name": "_numerator",
          "type": "uint256"
        },
        {
          "internalType": "uint256",
          "name": "_denominator",
          "type": "uint256"
        }
      ],
      "name": "setFundScale",
      "outputs": [],
      "stateMutability": "nonpayable",
      "type": "function"
    },
    {
      "inputs": [
        {
          "internalType": "address",
          "name": "_fundAddr",
          "type": "address"
        }
      ],
      "name": "setFundAddr",
      "outputs": [],
      "stateMutability": "nonpayable",
      "type": "function"
    },
    {
      "inputs": [],
      "name": "poolLength",
      "outputs": [
        {
          "internalType": "uint256",
          "name": "",
          "type": "uint256"
        }
      ],
      "stateMutability": "view",
      "type": "function"
    },
    {
      "inputs": [
        {
          "internalType": "uint256",
          "name": "_allocPoint",
          "type": "uint256"
        },
        {
          "internalType": "address",
          "name": "_lpToken",
          "type": "address"
        },
        {
          "internalType": "bool",
          "name": "_withUpdate",
          "type": "bool"
        }
      ],
      "name": "addPool",
      "outputs": [],
      "stateMutability": "nonpayable",
      "type": "function"
    },
    {
      "inputs": [
        {
          "internalType": "uint256",
          "name": "_pid",
          "type": "uint256"
        },
        {
          "internalType": "uint256",
          "name": "_allocPoint",
          "type": "uint256"
        },
        {
          "internalType": "bool",
          "name": "_withUpdate",
          "type": "bool"
        }
      ],
      "name": "setPoolPoint",
      "outputs": [],
      "stateMutability": "nonpayable",
      "type": "function"
    },
    {
      "inputs": [
        {
          "internalType": "uint256",
          "name": "_from",
          "type": "uint256"
        },
        {
          "internalType": "uint256",
          "name": "_to",
          "type": "uint256"
        }
      ],
      "name": "getMultiplier",
      "outputs": [
        {
          "internalType": "uint256",
          "name": "",
          "type": "uint256"
        }
      ],
      "stateMutability": "pure",
      "type": "function"
    },
    {
      "inputs": [
        {
          "internalType": "uint256",
          "name": "_pid",
          "type": "uint256"
        },
        {
          "internalType": "address",
          "name": "_user",
          "type": "address"
        }
      ],
      "name": "pendingBobo",
      "outputs": [
        {
          "internalType": "uint256",
          "name": "",
          "type": "uint256"
        }
      ],
      "stateMutability": "view",
      "type": "function"
    },
    {
      "inputs": [],
      "name": "massUpdatePools",
      "outputs": [],
      "stateMutability": "nonpayable",
      "type": "function"
    },
    {
      "inputs": [
        {
          "internalType": "uint256",
          "name": "_pid",
          "type": "uint256"
        }
      ],
      "name": "updatePool",
      "outputs": [],
      "stateMutability": "nonpayable",
      "type": "function"
    },
    {
      "inputs": [
        {
          "internalType": "uint256",
          "name": "_pid",
          "type": "uint256"
        },
        {
          "internalType": "uint256",
          "name": "_amount",
          "type": "uint256"
        }
      ],
      "name": "deposit",
      "outputs": [],
      "stateMutability": "nonpayable",
      "type": "function"
    },
    {
      "inputs": [
        {
          "internalType": "uint256",
          "name": "_pid",
          "type": "uint256"
        },
        {
          "internalType": "uint256",
          "name": "_lpAmount",
          "type": "uint256"
        }
      ],
      "name": "withdraw",
      "outputs": [],
      "stateMutability": "nonpayable",
      "type": "function"
    },
    {
      "inputs": [
        {
          "internalType": "uint256",
          "name": "_pid",
          "type": "uint256"
        }
      ],
      "name": "emergencyWithdraw",
      "outputs": [],
      "stateMutability": "nonpayable",
      "type": "function"
    }
  ],
  "bytecode": "0x608060405260006005553480156200001657600080fd5b50604051620019e3380380620019e38339810160408190526200003991620000cf565b600062000045620000cb565b600080546001600160a01b0319166001600160a01b0383169081178255604051929350917f8be0079c531659141344cd1fd0a4f28419497f9722a3daafe3b4186f6b6457e0908290a350600180546001600160a01b039384166001600160a01b031991821617909155600880549290931691161790556002600755600360065562000126565b3390565b60008060408385031215620000e2578182fd5b8251620000ef816200010d565b602084015190925062000102816200010d565b809150509250929050565b6001600160a01b03811681146200012357600080fd5b50565b6118ad80620001366000396000f3fe608060405234801561001057600080fd5b50600436106101585760003560e01c8063630b5ba1116100c35780638dbb1e3a1161007c5780638dbb1e3a146102a957806396ce0795146102bc578063ce5f9454146102c4578063d8fc5d7b146102cc578063e2bbb158146102d4578063f2fde38b146102e757610158565b8063630b5ba114610263578063682cb9111461026b5780636f39cfcd14610273578063715018a6146102865780637abceffd1461028e5780638da5cb5b146102a157610158565b8063441a3e7011610115578063441a3e70146101e157806351eb05a6146101f45780635312ea8e1461020757806355d59a151461021a57806355fc232c1461022d5780635f02c1451461024257610158565b8063081e3eda1461015d57806317caf6f11461017b5780631ddff494146101835780631de47f28146101985780632a48235b146101ab57806342bb5e35146101ce575b600080fd5b6101656102fa565b6040516101729190611826565b60405180910390f35b610165610300565b61019661019136600461154d565b610306565b005b6101966101a6366004611490565b6103bd565b6101be6101b9366004611490565b6103ff565b60405161017294939291906115e7565b6101656101dc3660046114c0565b610440565b6101966101ef36600461152c565b6105e7565b610196610202366004611490565b610719565b610196610215366004611490565b6109f5565b61019661022836600461152c565b610a99565b610235610ad9565b6040516101729190611596565b6102556102503660046114c0565b610ae8565b60405161017292919061182f565b610196610b0c565b610235610b2f565b610196610281366004611459565b610b3e565b610196610b95565b61019661029c3660046114ec565b610c14565b610235610d55565b6101656102b736600461152c565b610d64565b610165610d77565b610165610d7d565b610165610d83565b6101966102e236600461152c565b610d89565b6101966102f5366004611459565b610e85565b60035490565b60055481565b61030e610f3b565b6000546001600160a01b039081169116146103445760405162461bcd60e51b815260040161033b90611744565b60405180910390fd5b801561035257610352610b0c565b61038f826103896003868154811061036657fe5b906000526020600020906004020160010154600554610f3f90919063ffffffff16565b90610f81565b60058190555081600384815481106103a357fe5b906000526020600020906004020160010181905550505050565b6103c5610f3b565b6000546001600160a01b039081169116146103f25760405162461bcd60e51b815260040161033b90611744565b6103fa610b0c565b600255565b6003818154811061040c57fe5b600091825260209091206004909102018054600182015460028301546003909301546001600160a01b039092169350919084565b6003546000908310610454575060006105e1565b60006003848154811061046357fe5b60009182526020808320878452600480835260408086206001600160a01b038a1687529093529190932080549290910290920192506104a7576000925050506105e1565b600382015482546040516370a0823160e01b81526000916001600160a01b0316906370a08231906104dc903090600401611596565b60206040518083038186803b1580156104f457600080fd5b505afa158015610508573d6000803e3d6000fd5b505050506040513d601f19601f8201168201806040525081019061052c91906114a8565b905083600201544311801561054057508015155b156105ac576000610555856002015443610d64565b90506000610588600554610582886001015461057c60025487610fa690919063ffffffff16565b90610fa6565b90610fe0565b90506105a76105a0846105828464e8d4a51000610fa6565b8590610f81565b935050505b6105da83600101546105d464e8d4a51000610582868860000154610fa690919063ffffffff16565b90610f3f565b9450505050505b92915050565b6000600383815481106105f657fe5b60009182526020808320868452600480835260408086203387529093529190932080549290910290920192508311156106415760405162461bcd60e51b815260040161033b906117b0565b61064a84610719565b600061067882600101546105d464e8d4a5100061058287600301548760000154610fa690919063ffffffff16565b9050801561068a5761068a3382611022565b83156106b457815461069c9085610f3f565b825582546106b4906001600160a01b031633866111c2565b600383015482546106cf9164e8d4a510009161058291610fa6565b6001830155604051859033907f02f25270a4d87bea75db541cdfe559334a275b4a233520ed6c0a2429667cca949061070a908890869061182f565b60405180910390a35050505050565b60006003828154811061072857fe5b906000526020600020906004020190508060020154431161074957506109f2565b80546040516370a0823160e01b81526000916001600160a01b0316906370a0823190610779903090600401611596565b60206040518083038186803b15801561079157600080fd5b505afa1580156107a5573d6000803e3d6000fd5b505050506040513d601f19601f820116820180604052508101906107c991906114a8565b9050806107dd5750436002909101556109f2565b60006107ed836002015443610d64565b90506000610814600554610582866001015461057c60025487610fa690919063ffffffff16565b905080156109e457600061083960065461058260075485610fa690919063ffffffff16565b6001549091506001600160a01b03166340c10f19306108588585610f81565b6040518363ffffffff1660e01b81526004016108759291906115ce565b602060405180830381600087803b15801561088f57600080fd5b505af11580156108a3573d6000803e3d6000fd5b505050506040513d601f19601f820116820180604052508101906108c79190611474565b5060015460085460405163095ea7b360e01b81526001600160a01b039283169263095ea7b3926108fe9291169085906004016115ce565b602060405180830381600087803b15801561091857600080fd5b505af115801561092c573d6000803e3d6000fd5b505050506040513d601f19601f820116820180604052508101906109509190611474565b50600854604051632a5360c760e21b81526001600160a01b039091169063a94d831c90610981908490600401611826565b600060405180830381600087803b15801561099b57600080fd5b505af11580156109af573d6000803e3d6000fd5b505050506109dd6109d28561058264e8d4a5100086610fa690919063ffffffff16565b600387015490610f81565b6003860155505b438460020181905550505050505b50565b600060038281548110610a0457fe5b60009182526020808320858452600480835260408086203380885294528520805486825560018201969096559302018054909450919291610a51916001600160a01b0390911690836111c2565b83336001600160a01b03167fbb757047c2b5f3974fe26b7c10f732e7bce710b0952a71082702781e62ae059583604051610a8b9190611826565b60405180910390a350505050565b610aa1610f3b565b6000546001600160a01b03908116911614610ace5760405162461bcd60e51b815260040161033b90611744565b600791909155600655565b6001546001600160a01b031681565b60046020908152600092835260408084209091529082529020805460019091015482565b60035460005b81811015610b2b57610b2381610719565b600101610b12565b5050565b6008546001600160a01b031681565b610b46610f3b565b6000546001600160a01b03908116911614610b735760405162461bcd60e51b815260040161033b90611744565b600880546001600160a01b0319166001600160a01b0392909216919091179055565b610b9d610f3b565b6000546001600160a01b03908116911614610bca5760405162461bcd60e51b815260040161033b90611744565b600080546040516001600160a01b03909116907f8be0079c531659141344cd1fd0a4f28419497f9722a3daafe3b4186f6b6457e0908390a3600080546001600160a01b0319169055565b610c1c610f3b565b6000546001600160a01b03908116911614610c495760405162461bcd60e51b815260040161033b90611744565b8015610c5757610c57610b0c565b600554610c649084610f81565b60055550604080516080810182526001600160a01b039283168152602081019384524391810191825260006060820181815260038054600181018255925291517fc2575a0e9e593c00f959f8c92f12db2869c3395a3b0502d05e2516446f71f85b600490920291820180546001600160a01b031916919095161790935592517fc2575a0e9e593c00f959f8c92f12db2869c3395a3b0502d05e2516446f71f85c830155517fc2575a0e9e593c00f959f8c92f12db2869c3395a3b0502d05e2516446f71f85d82015590517fc2575a0e9e593c00f959f8c92f12db2869c3395a3b0502d05e2516446f71f85e90910155565b6000546001600160a01b031690565b6000610d708284610f3f565b9392505050565b60065481565b60075481565b60025481565b600060038381548110610d9857fe5b60009182526020808320868452600480835260408086203387529093529190932091029091019150610dc984610719565b805415610e0c576000610dfe82600101546105d464e8d4a5100061058287600301548760000154610fa690919063ffffffff16565b9050610e0a3382611022565b505b8154610e23906001600160a01b0316333086611218565b8054610e2f9084610f81565b8082556003830154610e4c9164e8d4a51000916105829190610fa6565b6001820155604051849033907f90890809c654f11d6e72a28fa60149770a0d11ec6c92319d6ceb2bb0a4ea1a1590610a8b908790611826565b610e8d610f3b565b6000546001600160a01b03908116911614610eba5760405162461bcd60e51b815260040161033b90611744565b6001600160a01b038116610ee05760405162461bcd60e51b815260040161033b90611640565b600080546040516001600160a01b03808516939216917f8be0079c531659141344cd1fd0a4f28419497f9722a3daafe3b4186f6b6457e091a3600080546001600160a01b0319166001600160a01b0392909216919091179055565b3390565b6000610d7083836040518060400160405280601e81526020017f536166654d6174683a207375627472616374696f6e206f766572666c6f770000815250611239565b600082820183811015610d705760405162461bcd60e51b815260040161033b90611686565b600082610fb5575060006105e1565b82820282848281610fc257fe5b0414610d705760405162461bcd60e51b815260040161033b90611703565b6000610d7083836040518060400160405280601a81526020017f536166654d6174683a206469766973696f6e206279207a65726f000000000000815250611265565b6001546040516370a0823160e01b81526000916001600160a01b0316906370a0823190611053903090600401611596565b60206040518083038186803b15801561106b57600080fd5b505afa15801561107f573d6000803e3d6000fd5b505050506040513d601f19601f820116820180604052508101906110a391906114a8565b9050808211156111375760015460405163a9059cbb60e01b81526001600160a01b039091169063a9059cbb906110df90869085906004016115ce565b602060405180830381600087803b1580156110f957600080fd5b505af115801561110d573d6000803e3d6000fd5b505050506040513d601f19601f820116820180604052508101906111319190611474565b506111bd565b60015460405163a9059cbb60e01b81526001600160a01b039091169063a9059cbb9061116990869086906004016115ce565b602060405180830381600087803b15801561118357600080fd5b505af1158015611197573d6000803e3d6000fd5b505050506040513d601f19601f820116820180604052508101906111bb9190611474565b505b505050565b6111bd8363a9059cbb60e01b84846040516024016111e19291906115ce565b60408051601f198184030181529190526020810180516001600160e01b03166001600160e01b03199093169290921790915261129c565b6111bb846323b872dd60e01b8585856040516024016111e1939291906115aa565b6000818484111561125d5760405162461bcd60e51b815260040161033b919061160d565b505050900390565b600081836112865760405162461bcd60e51b815260040161033b919061160d565b50600083858161129257fe5b0495945050505050565b60606112f1826040518060400160405280602081526020017f5361666545524332303a206c6f772d6c6576656c2063616c6c206661696c6564815250856001600160a01b031661132b9092919063ffffffff16565b8051909150156111bd578080602001905181019061130f9190611474565b6111bd5760405162461bcd60e51b815260040161033b906117dc565b606061133a8484600085611342565b949350505050565b6060824710156113645760405162461bcd60e51b815260040161033b906116bd565b61136d85611403565b6113895760405162461bcd60e51b815260040161033b90611779565b60006060866001600160a01b031685876040516113a6919061157a565b60006040518083038185875af1925050503d80600081146113e3576040519150601f19603f3d011682016040523d82523d6000602084013e6113e8565b606091505b50915091506113f8828286611409565b979650505050505050565b3b151590565b60608315611418575081610d70565b8251156114285782518084602001fd5b8160405162461bcd60e51b815260040161033b919061160d565b80356001600160a01b03811681146105e157600080fd5b60006020828403121561146a578081fd5b610d708383611442565b600060208284031215611485578081fd5b8151610d7081611869565b6000602082840312156114a1578081fd5b5035919050565b6000602082840312156114b9578081fd5b5051919050565b600080604083850312156114d2578081fd5b823591506114e38460208501611442565b90509250929050565b600080600060608486031215611500578081fd5b833592506115118560208601611442565b9150604084013561152181611869565b809150509250925092565b6000806040838503121561153e578182fd5b50508035926020909101359150565b600080600060608486031215611561578283fd5b8335925060208401359150604084013561152181611869565b6000825161158c81846020870161183d565b9190910192915050565b6001600160a01b0391909116815260200190565b6001600160a01b039384168152919092166020820152604081019190915260600190565b6001600160a01b03929092168252602082015260400190565b6001600160a01b0394909416845260208401929092526040830152606082015260800190565b600060208252825180602084015261162c81604085016020870161183d565b601f01601f19169190910160400192915050565b60208082526026908201527f4f776e61626c653a206e6577206f776e657220697320746865207a65726f206160408201526564647265737360d01b606082015260800190565b6020808252601b908201527f536166654d6174683a206164646974696f6e206f766572666c6f770000000000604082015260600190565b60208082526026908201527f416464726573733a20696e73756666696369656e742062616c616e636520666f6040820152651c8818d85b1b60d21b606082015260800190565b60208082526021908201527f536166654d6174683a206d756c7469706c69636174696f6e206f766572666c6f6040820152607760f81b606082015260800190565b6020808252818101527f4f776e61626c653a2063616c6c6572206973206e6f7420746865206f776e6572604082015260600190565b6020808252601d908201527f416464726573733a2063616c6c20746f206e6f6e2d636f6e7472616374000000604082015260600190565b6020808252601290820152711dda5d1a191c985dce881b9bdd0819dbdbd960721b604082015260600190565b6020808252602a908201527f5361666545524332303a204552433230206f7065726174696f6e20646964206e6040820152691bdd081cdd58d8d9595960b21b606082015260800190565b90815260200190565b918252602082015260400190565b60005b83811015611858578181015183820152602001611840565b838111156111bb5750506000910152565b80151581146109f257600080fdfea264697066735822122033c9f195c888c8630d58d00135a17e2f86843ff52b8deb22341d4668cf4679dd64736f6c634300060c0033",
  "immutableReferences": {},
  "source": "// SPDX-License-Identifier: MIT\npragma solidity ^0.6.0;\npragma experimental ABIEncoderV2;\n        \nimport \"./common/BasicStruct.sol\";\n\n\ncontract BoboMasterChef is Ownable {\n    using SafeMath for uint256;\n    using SafeERC20 for IERC20;\n\n    // \n    struct UserInfo {\n        uint256 amount;\n        uint256 rewardDebt;  \n    }\n\n    // \n    struct PoolInfo {\n        IERC20 lpToken;           \n        uint256 allocPoint;       // \n        uint256 lastRewardBlock;  \n        uint256 accBoboPerShare;   \n    }\n\n    IBOBOToken public boboToken;\n    uint256 public boboPerBlock;\n\n    PoolInfo[] public poolList;         // 1\n    \n    mapping (uint256 => mapping (address => UserInfo)) public userInfoMap;  // 2\n    \n    uint256 public totalAllocPoint = 0;\n    uint256 public denominator;\n    uint256 public numerator;\n    \n    address public fundAddr;\n\n    event Deposit(address indexed user, uint256 indexed pid, uint256 amount);\n    event Withdraw(address indexed user, uint256 indexed pid, uint256 amount, uint256 reward);\n    event EmergencyWithdraw(address indexed user, uint256 indexed pid, uint256 amount);\n\n    constructor(\n        address _boboTokenAddress, \n        address _fundAddr\n    ) public {\n        boboToken = IBOBOToken(_boboTokenAddress);\n        fundAddr = _fundAddr;\n        numerator = 2;\n        denominator = 3;\n    }\n    \n    function setBoboPerBlock(          \n        uint256 _boboPerBlock\n    ) public onlyOwner {\n        massUpdatePools();\n        boboPerBlock = _boboPerBlock;\n    }\n\n    function setFundScale(uint256 _numerator, uint256 _denominator) public onlyOwner {\n        numerator = _numerator;\n        denominator = _denominator;\n    }\n\n    function setFundAddr(address _fundAddr) public onlyOwner {\n        fundAddr = _fundAddr;\n    }\n\n    function poolLength() external view returns (uint256) {\n        return poolList.length;\n    }\n\n    function addPool(uint256 _allocPoint, address _lpToken, bool _withUpdate) public onlyOwner {\n        if (_withUpdate) {\n            massUpdatePools();\n        }\n        totalAllocPoint = totalAllocPoint.add(_allocPoint);   // \n        poolList.push(PoolInfo({\n            lpToken: (IERC20)(_lpToken),\n            allocPoint: _allocPoint,\n            lastRewardBlock: block.number,\n            accBoboPerShare: 0\n        }));\n    }\n\n    function setPoolPoint(uint256 _pid, uint256 _allocPoint, bool _withUpdate) public onlyOwner {\n        if (_withUpdate) {\n            massUpdatePools();\n        }\n        totalAllocPoint = totalAllocPoint.sub(poolList[_pid].allocPoint).add(_allocPoint);\n        poolList[_pid].allocPoint = _allocPoint;\n    }\n\n    function getMultiplier(uint256 _from, uint256 _to) public pure returns (uint256) {\n        return _to.sub(_from);\n    }\n\n    // bobo4\n    function pendingBobo(uint256 _pid, address _user) external view returns (uint256) {\n        if (poolList.length <= _pid) return 0;\n        PoolInfo storage pool = poolList[_pid];\n        UserInfo storage user = userInfoMap[_pid][_user];\n        if (user.amount == 0) return 0;\n        uint256 accBoboPerShare = pool.accBoboPerShare;   // bobo\n        uint256 lpSupply = pool.lpToken.balanceOf(address(this));   // LP token\n        if (block.number > pool.lastRewardBlock && lpSupply != 0) {\n            uint256 multiplier = getMultiplier(pool.lastRewardBlock, block.number);\n            // bobo\n            uint256 boboReward = multiplier.mul(boboPerBlock).mul(pool.allocPoint).div(totalAllocPoint);\n            accBoboPerShare = accBoboPerShare.add(boboReward.mul(1e12).div(lpSupply));   // 1e121e12\n        }\n        return user.amount.mul(accBoboPerShare).div(1e12).sub(user.rewardDebt);  \n    }\n\n    // \n    function massUpdatePools() public {\n        uint256 length = poolList.length;\n        for (uint256 pid = 0; pid < length; ++pid) {\n            updatePool(pid);\n        }\n    }\n\n    function updatePool(uint256 _pid) public {\n        PoolInfo storage pool = poolList[_pid];\n        if (block.number <= pool.lastRewardBlock) {\n            return;\n        }\n        uint256 lpSupply = pool.lpToken.balanceOf(address(this));   // LP\n        if (lpSupply == 0) {\n            pool.lastRewardBlock = block.number;\n            return;\n        }\n        uint256 multiplier = getMultiplier(pool.lastRewardBlock, block.number);  // \n        uint256 boboReward = multiplier.mul(boboPerBlock).mul(pool.allocPoint).div(totalAllocPoint);   // bobo\n        if (boboReward > 0) {\n            uint256 fundAmount = boboReward.mul(numerator).div(denominator);\n            boboToken.mint(address(this), boboReward.add(fundAmount));\n            boboToken.approve(fundAddr, fundAmount);\n            IBoboFund(fundAddr).transferBobo(fundAmount);\n            pool.accBoboPerShare = pool.accBoboPerShare.add(boboReward.mul(1e12).div(lpSupply));\n        }\n\n        pool.lastRewardBlock = block.number;        // \n    }\n\n    // LP5\n    // _pid:   \n    // _amount: \n    function deposit(uint256 _pid, uint256 _amount) public {\n        PoolInfo storage pool = poolList[_pid];            // \n        UserInfo storage user = userInfoMap[_pid][msg.sender];  // \n        updatePool(_pid);\n        if (user.amount > 0) {\n            // pending\n            uint256 pending = user.amount.mul(pool.accBoboPerShare).div(1e12).sub(user.rewardDebt);\n            safeBoboTransfer(msg.sender, pending);\n        }\n        pool.lpToken.safeTransferFrom(address(msg.sender), address(this), _amount);  // lp\n        user.amount = user.amount.add(_amount);          // LPLP\n        user.rewardDebt = user.amount.mul(pool.accBoboPerShare).div(1e12);    \n        emit Deposit(msg.sender, _pid, _amount);\n    }\n\n    // LP6\n    // _pid:   \n    // _amount: LP\n    //          1: _amount0BOBO\n    //          2: _amountBOBOLP\n    //          3: _amountBOBOLP\n    function withdraw(uint256 _pid, uint256 _lpAmount) public {\n        PoolInfo storage pool = poolList[_pid];\n        UserInfo storage user = userInfoMap[_pid][msg.sender];\n        require(user.amount >= _lpAmount, \"withdraw: not good\");\n        updatePool(_pid);\n        uint256 pending = user.amount.mul(pool.accBoboPerShare).div(1e12).sub(user.rewardDebt);\n        if (pending > 0) {\n            safeBoboTransfer(msg.sender, pending);\n        }\n        if (_lpAmount > 0) {\n            user.amount = user.amount.sub(_lpAmount);\n            pool.lpToken.safeTransfer(address(msg.sender), _lpAmount);  \n        }\n        user.rewardDebt = user.amount.mul(pool.accBoboPerShare).div(1e12);\n        emit Withdraw(msg.sender, _pid, _lpAmount, pending);\n    }\n\n    // LP\n    function emergencyWithdraw(uint256 _pid) public {\n        PoolInfo storage pool = poolList[_pid];\n        UserInfo storage user = userInfoMap[_pid][msg.sender];\n        uint256 amount = user.amount;\n        user.amount = 0;\n        user.rewardDebt = 0;\n        pool.lpToken.safeTransfer(address(msg.sender), amount);\n        emit EmergencyWithdraw(msg.sender, _pid, amount);\n    }\n\n    // bobo.\n    function safeBoboTransfer(address _to, uint256 _amount) internal {\n        uint256 boboBal = boboToken.balanceOf(address(this));\n        if (_amount > boboBal) {\n            boboToken.transfer(_to, boboBal);\n        } else {\n            boboToken.transfer(_to, _amount);\n        }\n    }\n}",
  "sourcePath": "/Users/mryu/blockchain/bobo-metaverse/boboswap-contract/contracts/BoboFarmer4BoboLP.sol",
  "compiler": {
    "name": "solc",
    "version": "0.6.12+commit.27d51765.Emscripten.clang"
  },
  "schemaVersion": "3.4.3",
  "updatedAt": "2021-09-16T06:50:57.822Z",
  "devdoc": {
    "kind": "dev",
    "methods": {
      "owner()": {
        "details": "Returns the address of the current owner."
      },
      "renounceOwnership()": {
        "details": "Leaves the contract without owner. It will not be possible to call `onlyOwner` functions anymore. Can only be called by the current owner. NOTE: Renouncing ownership will leave the contract without an owner, thereby removing any functionality that is only available to the owner."
      },
      "transferOwnership(address)": {
        "details": "Transfers ownership of the contract to a new account (`newOwner`). Can only be called by the current owner."
      }
    },
    "version": 1
  },
  "userdoc": {
    "kind": "user",
    "methods": {},
    "version": 1
  }
}