{
  "contractName": "BoboFarmer",
  "abi": [
    {
      "inputs": [
        {
          "internalType": "address",
          "name": "_boboTokenAddress",
          "type": "address"
        },
        {
          "internalType": "address",
          "name": "_fundAddr",
          "type": "address"
        }
      ],
      "stateMutability": "nonpayable",
      "type": "constructor"
    },
    {
      "anonymous": false,
      "inputs": [
        {
          "indexed": true,
          "internalType": "address",
          "name": "_tokenAddr",
          "type": "address"
        },
        {
          "indexed": true,
          "internalType": "address",
          "name": "user",
          "type": "address"
        },
        {
          "indexed": false,
          "internalType": "uint256",
          "name": "amount",
          "type": "uint256"
        }
      ],
      "name": "Deposit",
      "type": "event"
    },
    {
      "anonymous": false,
      "inputs": [
        {
          "indexed": true,
          "internalType": "address",
          "name": "_tokenAddr",
          "type": "address"
        },
        {
          "indexed": true,
          "internalType": "address",
          "name": "user",
          "type": "address"
        },
        {
          "indexed": false,
          "internalType": "uint256",
          "name": "amount",
          "type": "uint256"
        }
      ],
      "name": "EmergencyWithdraw",
      "type": "event"
    },
    {
      "anonymous": false,
      "inputs": [
        {
          "indexed": true,
          "internalType": "address",
          "name": "previousOwner",
          "type": "address"
        },
        {
          "indexed": true,
          "internalType": "address",
          "name": "newOwner",
          "type": "address"
        }
      ],
      "name": "OwnershipTransferred",
      "type": "event"
    },
    {
      "anonymous": false,
      "inputs": [
        {
          "indexed": true,
          "internalType": "address",
          "name": "_tokenAddr",
          "type": "address"
        },
        {
          "indexed": true,
          "internalType": "address",
          "name": "user",
          "type": "address"
        },
        {
          "indexed": false,
          "internalType": "uint256",
          "name": "amount",
          "type": "uint256"
        }
      ],
      "name": "Withdraw",
      "type": "event"
    },
    {
      "inputs": [
        {
          "internalType": "address",
          "name": "_authorizedAddr",
          "type": "address"
        }
      ],
      "name": "addAuthorized",
      "outputs": [
        {
          "internalType": "bool",
          "name": "",
          "type": "bool"
        }
      ],
      "stateMutability": "nonpayable",
      "type": "function"
    },
    {
      "inputs": [],
      "name": "boboPerBlock",
      "outputs": [
        {
          "internalType": "uint256",
          "name": "",
          "type": "uint256"
        }
      ],
      "stateMutability": "view",
      "type": "function",
      "constant": true
    },
    {
      "inputs": [],
      "name": "boboTokenAddr",
      "outputs": [
        {
          "internalType": "address",
          "name": "",
          "type": "address"
        }
      ],
      "stateMutability": "view",
      "type": "function",
      "constant": true
    },
    {
      "inputs": [],
      "name": "burnAddress",
      "outputs": [
        {
          "internalType": "address",
          "name": "",
          "type": "address"
        }
      ],
      "stateMutability": "view",
      "type": "function",
      "constant": true
    },
    {
      "inputs": [
        {
          "internalType": "address",
          "name": "_authorizedAddr",
          "type": "address"
        }
      ],
      "name": "delAuthorized",
      "outputs": [
        {
          "internalType": "bool",
          "name": "",
          "type": "bool"
        }
      ],
      "stateMutability": "nonpayable",
      "type": "function"
    },
    {
      "inputs": [],
      "name": "denominator",
      "outputs": [
        {
          "internalType": "uint256",
          "name": "",
          "type": "uint256"
        }
      ],
      "stateMutability": "view",
      "type": "function",
      "constant": true
    },
    {
      "inputs": [],
      "name": "fundAddr",
      "outputs": [
        {
          "internalType": "address",
          "name": "",
          "type": "address"
        }
      ],
      "stateMutability": "view",
      "type": "function",
      "constant": true
    },
    {
      "inputs": [
        {
          "internalType": "uint256",
          "name": "_index",
          "type": "uint256"
        }
      ],
      "name": "getAuthorized",
      "outputs": [
        {
          "internalType": "address",
          "name": "",
          "type": "address"
        }
      ],
      "stateMutability": "view",
      "type": "function",
      "constant": true
    },
    {
      "inputs": [],
      "name": "getAuthorizedLength",
      "outputs": [
        {
          "internalType": "uint256",
          "name": "",
          "type": "uint256"
        }
      ],
      "stateMutability": "view",
      "type": "function",
      "constant": true
    },
    {
      "inputs": [
        {
          "internalType": "address",
          "name": "_authorizedAddr",
          "type": "address"
        }
      ],
      "name": "isAuthorized",
      "outputs": [
        {
          "internalType": "bool",
          "name": "",
          "type": "bool"
        }
      ],
      "stateMutability": "view",
      "type": "function",
      "constant": true
    },
    {
      "inputs": [],
      "name": "numerator",
      "outputs": [
        {
          "internalType": "uint256",
          "name": "",
          "type": "uint256"
        }
      ],
      "stateMutability": "view",
      "type": "function",
      "constant": true
    },
    {
      "inputs": [],
      "name": "owner",
      "outputs": [
        {
          "internalType": "address",
          "name": "",
          "type": "address"
        }
      ],
      "stateMutability": "view",
      "type": "function",
      "constant": true
    },
    {
      "inputs": [
        {
          "internalType": "uint256",
          "name": "",
          "type": "uint256"
        }
      ],
      "name": "poolInfo",
      "outputs": [
        {
          "internalType": "contract IERC20",
          "name": "want",
          "type": "address"
        },
        {
          "internalType": "uint256",
          "name": "allocPoint",
          "type": "uint256"
        },
        {
          "internalType": "uint256",
          "name": "lastRewardBlock",
          "type": "uint256"
        },
        {
          "internalType": "uint256",
          "name": "accBOBOPerShare",
          "type": "uint256"
        },
        {
          "internalType": "address",
          "name": "strat",
          "type": "address"
        }
      ],
      "stateMutability": "view",
      "type": "function",
      "constant": true
    },
    {
      "inputs": [],
      "name": "renounceOwnership",
      "outputs": [],
      "stateMutability": "nonpayable",
      "type": "function"
    },
    {
      "inputs": [],
      "name": "startBlock",
      "outputs": [
        {
          "internalType": "uint256",
          "name": "",
          "type": "uint256"
        }
      ],
      "stateMutability": "view",
      "type": "function",
      "constant": true
    },
    {
      "inputs": [
        {
          "internalType": "address",
          "name": "",
          "type": "address"
        }
      ],
      "name": "tokenPidMap",
      "outputs": [
        {
          "internalType": "uint256",
          "name": "",
          "type": "uint256"
        }
      ],
      "stateMutability": "view",
      "type": "function",
      "constant": true
    },
    {
      "inputs": [],
      "name": "totalAllocPoint",
      "outputs": [
        {
          "internalType": "uint256",
          "name": "",
          "type": "uint256"
        }
      ],
      "stateMutability": "view",
      "type": "function",
      "constant": true
    },
    {
      "inputs": [
        {
          "internalType": "address",
          "name": "newOwner",
          "type": "address"
        }
      ],
      "name": "transferOwnership",
      "outputs": [],
      "stateMutability": "nonpayable",
      "type": "function"
    },
    {
      "inputs": [
        {
          "internalType": "uint256",
          "name": "",
          "type": "uint256"
        },
        {
          "internalType": "address",
          "name": "",
          "type": "address"
        }
      ],
      "name": "userInfo",
      "outputs": [
        {
          "internalType": "uint256",
          "name": "shares",
          "type": "uint256"
        },
        {
          "internalType": "uint256",
          "name": "rewardDebt",
          "type": "uint256"
        }
      ],
      "stateMutability": "view",
      "type": "function",
      "constant": true
    },
    {
      "inputs": [
        {
          "internalType": "address",
          "name": "_fundAddr",
          "type": "address"
        }
      ],
      "name": "setFundAddr",
      "outputs": [],
      "stateMutability": "nonpayable",
      "type": "function"
    },
    {
      "inputs": [
        {
          "internalType": "uint256",
          "name": "_numerator",
          "type": "uint256"
        },
        {
          "internalType": "uint256",
          "name": "_denominator",
          "type": "uint256"
        }
      ],
      "name": "setFundScale",
      "outputs": [],
      "stateMutability": "nonpayable",
      "type": "function"
    },
    {
      "inputs": [
        {
          "internalType": "uint256",
          "name": "_boboPerBlock",
          "type": "uint256"
        }
      ],
      "name": "setBoboPerBlock",
      "outputs": [],
      "stateMutability": "nonpayable",
      "type": "function"
    },
    {
      "inputs": [],
      "name": "poolLength",
      "outputs": [
        {
          "internalType": "uint256",
          "name": "",
          "type": "uint256"
        }
      ],
      "stateMutability": "view",
      "type": "function",
      "constant": true
    },
    {
      "inputs": [
        {
          "internalType": "uint256",
          "name": "_allocPoint",
          "type": "uint256"
        },
        {
          "internalType": "address",
          "name": "_want",
          "type": "address"
        },
        {
          "internalType": "bool",
          "name": "_withUpdate",
          "type": "bool"
        },
        {
          "internalType": "address",
          "name": "_strat",
          "type": "address"
        }
      ],
      "name": "add",
      "outputs": [],
      "stateMutability": "nonpayable",
      "type": "function"
    },
    {
      "inputs": [
        {
          "internalType": "address",
          "name": "_tokenAddr",
          "type": "address"
        },
        {
          "internalType": "uint256",
          "name": "_allocPoint",
          "type": "uint256"
        },
        {
          "internalType": "bool",
          "name": "_withUpdate",
          "type": "bool"
        }
      ],
      "name": "setPoolPoint",
      "outputs": [],
      "stateMutability": "nonpayable",
      "type": "function"
    },
    {
      "inputs": [
        {
          "internalType": "uint256",
          "name": "_from",
          "type": "uint256"
        },
        {
          "internalType": "uint256",
          "name": "_to",
          "type": "uint256"
        }
      ],
      "name": "getMultiplier",
      "outputs": [
        {
          "internalType": "uint256",
          "name": "",
          "type": "uint256"
        }
      ],
      "stateMutability": "pure",
      "type": "function",
      "constant": true
    },
    {
      "inputs": [
        {
          "internalType": "address",
          "name": "_tokenAddr",
          "type": "address"
        },
        {
          "internalType": "address",
          "name": "_user",
          "type": "address"
        }
      ],
      "name": "pendingBOBO",
      "outputs": [
        {
          "internalType": "uint256",
          "name": "",
          "type": "uint256"
        }
      ],
      "stateMutability": "view",
      "type": "function",
      "constant": true
    },
    {
      "inputs": [
        {
          "internalType": "address",
          "name": "_tokenAddr",
          "type": "address"
        },
        {
          "internalType": "address",
          "name": "_user",
          "type": "address"
        }
      ],
      "name": "stakedWantTokens",
      "outputs": [
        {
          "internalType": "uint256",
          "name": "",
          "type": "uint256"
        }
      ],
      "stateMutability": "view",
      "type": "function",
      "constant": true
    },
    {
      "inputs": [],
      "name": "massUpdatePools",
      "outputs": [],
      "stateMutability": "nonpayable",
      "type": "function"
    },
    {
      "inputs": [
        {
          "internalType": "uint256",
          "name": "_pid",
          "type": "uint256"
        }
      ],
      "name": "updatePool",
      "outputs": [],
      "stateMutability": "nonpayable",
      "type": "function"
    },
    {
      "inputs": [
        {
          "internalType": "address",
          "name": "_tokenAddr",
          "type": "address"
        },
        {
          "internalType": "address",
          "name": "_userAddr",
          "type": "address"
        },
        {
          "internalType": "uint256",
          "name": "_wantAmt",
          "type": "uint256"
        }
      ],
      "name": "deposit",
      "outputs": [],
      "stateMutability": "nonpayable",
      "type": "function"
    },
    {
      "inputs": [
        {
          "internalType": "address",
          "name": "_tokenAddr",
          "type": "address"
        },
        {
          "internalType": "address",
          "name": "_userAddr",
          "type": "address"
        },
        {
          "internalType": "uint256",
          "name": "_wantAmt",
          "type": "uint256"
        }
      ],
      "name": "withdraw",
      "outputs": [],
      "stateMutability": "nonpayable",
      "type": "function"
    },
    {
      "inputs": [
        {
          "internalType": "address",
          "name": "_tokenAddr",
          "type": "address"
        },
        {
          "internalType": "address",
          "name": "_newStratAddr",
          "type": "address"
        }
      ],
      "name": "migrateNewStrat",
      "outputs": [],
      "stateMutability": "nonpayable",
      "type": "function"
    }
  ],
  "bytecode": "0x6080604052600580546001600160a01b03191661dead1790556000600d553480156200002a57600080fd5b5060405162002ef038038062002ef08339810160408190526200004d91620000ec565b600062000059620000e8565b600080546001600160a01b0319166001600160a01b0383169081178255604051929350917f8be0079c531659141344cd1fd0a4f28419497f9722a3daafe3b4186f6b6457e0908290a35060016003908155600480546001600160a01b039485166001600160a01b0319918216179091556006805493909416921691909117909155600260085560075562000143565b3390565b60008060408385031215620000ff578182fd5b82516200010c816200012a565b60208401519092506200011f816200012a565b809150509250929050565b6001600160a01b03811681146200014057600080fd5b50565b612d9d80620001536000396000f3fe608060405234801561001057600080fd5b50600436106101fb5760003560e01c80638340f5491161011a578063ce5f9454116100ad578063d9caed121161007c578063d9caed12146103e1578063e6a08025146103f4578063ec2f83da14610407578063f2fde38b1461040f578063fe9fbb8014610422576101fb565b8063ce5f9454146103ab578063cf1c316a146103b3578063d0f2ced1146103c6578063d8fc5d7b146103d9576101fb565b806393ce61ae116100e957806393ce61ae1461035c57806393f1a40b1461036f57806396ce079514610390578063c63cc56414610398576101fb565b80638340f5491461031b5780638d1afc461461032e5780638da5cb5b146103415780638dbb1e3a14610349576101fb565b806351eb05a611610192578063682cb91111610161578063682cb911146102e35780636f39cfcd146102f857806370d5ae051461030b578063715018a614610313576101fb565b806351eb05a6146102a257806355d59a15146102b55780635f70edcf146102c8578063630b5ba1146102db576101fb565b80632013af35116101ce5780632013af351461025f57806331a40b62146102725780633397e5271461029257806348cd4cb11461029a576101fb565b8063081e3eda146102005780631526fe271461021e57806317caf6f1146102425780631de47f281461024a575b600080fd5b610208610435565b6040516102159190612cea565b60405180910390f35b61023161022c3660046125ec565b61043b565b604051610215959493929190612789565b610208610486565b61025d6102583660046125ec565b61048c565b005b61020861026d366004612517565b6104d7565b6102856102803660046124df565b6106b1565b604051610215919061277e565b610208610719565b61020861072a565b61025d6102b03660046125ec565b610730565b61025d6102c3366004612692565b610a21565b61025d6102d6366004612640565b610a61565b61025d610ccc565b6102eb610cef565b60405161021591906126f2565b61025d6103063660046124df565b610cfe565b6102eb610d55565b61025d610d64565b61025d61032936600461254f565b610de3565b61025d61033c36600461258f565b61106a565b6102eb61116b565b610208610357366004612692565b61117a565b61025d61036a366004612517565b61118d565b61038261037d36600461261c565b6114a2565b604051610215929190612d0a565b6102086114c6565b6102eb6103a63660046125ec565b6114cc565b610208611503565b6102856103c13660046124df565b611509565b6102086103d4366004612517565b611571565b6102086117a4565b61025d6103ef36600461254f565b6117aa565b6102086104023660046124df565b611c2e565b6102eb611c40565b61025d61041d3660046124df565b611c4f565b6102856104303660046124df565b611d05565b600b5490565b600b818154811061044857fe5b6000918252602090912060059091020180546001820154600283015460038401546004909401546001600160a01b0393841695509193909290911685565b600d5481565b610494611d12565b6000546001600160a01b039081169116146104ca5760405162461bcd60e51b81526004016104c190612a6b565b60405180910390fd5b6104d2610ccc565b600955565b6001600160a01b0382166000908152600e602052604081205461050c5760405162461bcd60e51b81526004016104c19061293f565b6001600160a01b0383166000908152600e6020526040812054600b805460001990920192918390811061053b57fe5b60009182526020808320858452600c825260408085206001600160a01b03808b1687529352808520600360059095029092019384015460048086015486549351631190d9e560e11b815296985093969195919493841693632321b3ca936105a593911691016126f2565b60206040518083038186803b1580156105bd57600080fd5b505afa1580156105d1573d6000803e3d6000fd5b505050506040513d601f19601f820116820180604052508101906105f59190612604565b905083600201544311801561060957508015155b1561067557600061061e85600201544361117a565b90506000610651600d5461064b886001015461064560095487611d1690919063ffffffff16565b90611d16565b90611d50565b90506106706106698461064b8464e8d4a51000611d16565b8590611d92565b935050505b6106a3836001015461069d64e8d4a5100061064b868860000154611d1690919063ffffffff16565b90611db7565b955050505050505b92915050565b60006106bb611d12565b6000546001600160a01b039081169116146106e85760405162461bcd60e51b81526004016104c190612a6b565b6001600160a01b03821661070e5760405162461bcd60e51b81526004016104c190612c95565b6106ab600183611df9565b60006107256001611e0e565b905090565b600a5481565b6000600b828154811061073f57fe5b90600052602060002090600502019050806002015443116107605750610a1e565b6004808201548254604051631190d9e560e11b81526000936001600160a01b0393841693632321b3ca9361079793911691016126f2565b60206040518083038186803b1580156107af57600080fd5b505afa1580156107c3573d6000803e3d6000fd5b505050506040513d601f19601f820116820180604052508101906107e79190612604565b9050806107fb575043600290910155610a1e565b600061080b83600201544361117a565b90506000811161081d57505050610a1e565b6000610842600d5461064b866001015461064560095487611d1690919063ffffffff16565b90508015610a1057600061086760075461064b60085485611d1690919063ffffffff16565b6004549091506001600160a01b03166340c10f19306108868585611d92565b6040518363ffffffff1660e01b81526004016108a3929190612744565b602060405180830381600087803b1580156108bd57600080fd5b505af11580156108d1573d6000803e3d6000fd5b505050506040513d601f19601f820116820180604052508101906108f591906125d0565b506004805460065460405163095ea7b360e01b81526001600160a01b039283169363095ea7b39361092a931691869101612744565b602060405180830381600087803b15801561094457600080fd5b505af1158015610958573d6000803e3d6000fd5b505050506040513d601f19601f8201168201806040525081019061097c91906125d0565b50600654604051632a5360c760e21b81526001600160a01b039091169063a94d831c906109ad908490600401612cea565b600060405180830381600087803b1580156109c757600080fd5b505af11580156109db573d6000803e3d6000fd5b50505050610a096109fe8561064b64e8d4a5100086611d1690919063ffffffff16565b600387015490611d92565b6003860155505b438460020181905550505050505b50565b610a29611d12565b6000546001600160a01b03908116911614610a565760405162461bcd60e51b81526004016104c190612a6b565b600891909155600755565b610a69611d12565b6000546001600160a01b03908116911614610a965760405162461bcd60e51b81526004016104c190612a6b565b6001600160a01b0383166000908152600e602052604090205415610acc5760405162461bcd60e51b81526004016104c1906129f3565b306001600160a01b0316816001600160a01b0316638da5cb5b6040518163ffffffff1660e01b8152600401602060405180830381600087803b158015610b1157600080fd5b505af1158015610b25573d6000803e3d6000fd5b505050506040513d601f19601f82011682018060405250810190610b4991906124fb565b6001600160a01b031614610b6f5760405162461bcd60e51b81526004016104c190612b4c565b8115610b7d57610b7d610ccc565b600d54610b8a9085611d92565b600d556040805160a0810182526001600160a01b0394851680825260208083019788524383850190815260006060850181815296891660808601908152600b8054600181018255818452965160059097027f0175b7a638427703f0dbe7bb9bbf987a2551717b34e79f33b5b1008d1fa01db981018054988d166001600160a01b0319998a161790559b517f0175b7a638427703f0dbe7bb9bbf987a2551717b34e79f33b5b1008d1fa01dba8d015592517f0175b7a638427703f0dbe7bb9bbf987a2551717b34e79f33b5b1008d1fa01dbb8c015596517f0175b7a638427703f0dbe7bb9bbf987a2551717b34e79f33b5b1008d1fa01dbc8b015595517f0175b7a638427703f0dbe7bb9bbf987a2551717b34e79f33b5b1008d1fa01dbd909901805499909816989093169790971790955554938252600e909452929092205550565b600b5460005b81811015610ceb57610ce381610730565b600101610cd2565b5050565b6006546001600160a01b031681565b610d06611d12565b6000546001600160a01b03908116911614610d335760405162461bcd60e51b81526004016104c190612a6b565b600680546001600160a01b0319166001600160a01b0392909216919091179055565b6005546001600160a01b031681565b610d6c611d12565b6000546001600160a01b03908116911614610d995760405162461bcd60e51b81526004016104c190612a6b565b600080546040516001600160a01b03909116907f8be0079c531659141344cd1fd0a4f28419497f9722a3daafe3b4186f6b6457e0908390a3600080546001600160a01b0319169055565b60026003541415610e065760405162461bcd60e51b81526004016104c190612c09565b6002600355610e1433611d05565b610e305760405162461bcd60e51b81526004016104c190612ae6565b6001600160a01b0383166000908152600e6020526040902054610e655760405162461bcd60e51b81526004016104c19061293f565b6001600160a01b0383166000908152600e602052604090205460001901610e8b81610730565b6000600b8281548110610e9a57fe5b60009182526020808320858452600c825260408085206001600160a01b038a168652909252922080546005909202909201925015610f14576000610f00826001015461069d64e8d4a5100061064b87600301548760000154611d1690919063ffffffff16565b90508015610f1257610f128682611e19565b505b8315610fef578154610f31906001600160a01b0316333087611fb8565b60048201548254610f4f916001600160a01b03918216911686612010565b6004808301548354604051636e553f6560e01b81526000936001600160a01b0393841693636e553f6593610f8a938b93919092169101612cf3565b602060405180830381600087803b158015610fa457600080fd5b505af1158015610fb8573d6000803e3d6000fd5b505050506040513d601f19601f82011682018060405250810190610fdc9190612604565b8254909150610feb9082611d92565b8255505b6003820154815461100a9164e8d4a510009161064b91611d16565b8160010181905550846001600160a01b0316866001600160a01b03167f5548c837ab068cf56a2c2479df0882a4922fd203edb7517321831d95078c5f62866040516110559190612cea565b60405180910390a35050600160035550505050565b611072611d12565b6000546001600160a01b0390811691161461109f5760405162461bcd60e51b81526004016104c190612a6b565b6001600160a01b0383166000908152600e60205260409020546110d45760405162461bcd60e51b81526004016104c19061293f565b6001600160a01b0383166000908152600e60205260409020546000190181156110ff576110ff610ccc565b61113c83611136600b848154811061111357fe5b906000526020600020906005020160010154600d54611db790919063ffffffff16565b90611d92565b600d8190555082600b828154811061115057fe5b90600052602060002090600502016001018190555050505050565b6000546001600160a01b031690565b60006111868284611db7565b9392505050565b611195611d12565b6000546001600160a01b039081169116146111c25760405162461bcd60e51b81526004016104c190612a6b565b6001600160a01b0382166000908152600e60205260409020546111f75760405162461bcd60e51b81526004016104c19061293f565b6001600160a01b0382166000908152600e6020526040812054600b805460001990920192918390811061122657fe5b600091825260208220600460059092020181810154604051637753793760e01b815291945083926001600160a01b039091169163775379379161126b918a91016126f2565b6040805180830381600087803b15801561128457600080fd5b505af1158015611298573d6000803e3d6000fd5b505050506040513d601f19601f820116820180604052508101906112bc91906126b3565b60405163082ceeb360e01b815291935091506001600160a01b0386169063082ceeb3906112f19089908690869060040161275d565b600060405180830381600087803b15801561130b57600080fd5b505af115801561131f573d6000803e3d6000fd5b50505050600483810180546001600160a01b0319166001600160a01b03888116919091179091556040516370a0823160e01b8152600092918916916370a082319161136c913091016126f2565b60206040518083038186803b15801561138457600080fd5b505afa158015611398573d6000803e3d6000fd5b505050506040513d601f19601f820116820180604052508101906113bc9190612604565b905080156114465760405163a9059cbb60e01b81526001600160a01b0388169063a9059cbb906113f29089908590600401612744565b602060405180830381600087803b15801561140c57600080fd5b505af1158015611420573d6000803e3d6000fd5b505050506040513d601f19601f8201168201806040525081019061144491906125d0565b505b856001600160a01b03166336e9332d6040518163ffffffff1660e01b8152600401600060405180830381600087803b15801561148157600080fd5b505af1158015611495573d6000803e3d6000fd5b5050505050505050505050565b600c6020908152600092835260408084209091529082529020805460019091015482565b60075481565b600060016114d8610719565b038211156114f85760405162461bcd60e51b81526004016104c190612aa0565b6106ab6001836120b5565b60085481565b6000611513611d12565b6000546001600160a01b039081169116146115405760405162461bcd60e51b81526004016104c190612a6b565b6001600160a01b0382166115665760405162461bcd60e51b81526004016104c190612c40565b6106ab6001836120c1565b6001600160a01b0382166000908152600e60205260408120546115a65760405162461bcd60e51b81526004016104c19061293f565b6001600160a01b0383166000908152600e6020526040902054600019016115cb612484565b600b82815481106115d857fe5b60009182526020918290206040805160a081018252600590930290910180546001600160a01b03908116845260018201549484019490945260028101549183019190915260038101546060830152600401549091166080820152905061163c6124c5565b506000828152600c602090815260408083206001600160a01b038089168552908352818420825180840184528154815260019091015493810193909352608085015185519251631190d9e560e11b8152939493911691632321b3ca916116a591906004016126f2565b60206040518083038186803b1580156116bd57600080fd5b505afa1580156116d1573d6000803e3d6000fd5b505050506040513d601f19601f820116820180604052508101906116f59190612604565b60808401518451604051630433471360e11b81529293506000926001600160a01b03909216916308668e269161172d916004016126f2565b60206040518083038186803b15801561174557600080fd5b505afa158015611759573d6000803e3d6000fd5b505050506040513d601f19601f8201168201806040525081019061177d9190612604565b905081611792576000955050505050506106ab565b82516106a390839061064b9084611d16565b60095481565b600260035414156117cd5760405162461bcd60e51b81526004016104c190612c09565b60026003556117db33611d05565b6117f75760405162461bcd60e51b81526004016104c190612ae6565b6001600160a01b0383166000908152600e602052604090205461182c5760405162461bcd60e51b81526004016104c19061293f565b6001600160a01b0383166000908152600e60205260409020546000190161185281610730565b6000600b828154811061186157fe5b60009182526020808320858452600c825260408085206001600160a01b038a81168752935280852060059490940290910160048181015482549351630433471360e11b81529297509495948416936308668e26936118c293911691016126f2565b60206040518083038186803b1580156118da57600080fd5b505afa1580156118ee573d6000803e3d6000fd5b505050506040513d601f19601f820116820180604052508101906119129190612604565b6004808501548554604051631190d9e560e11b81529394506000936001600160a01b0392831693632321b3ca9361194b931691016126f2565b60206040518083038186803b15801561196357600080fd5b505afa158015611977573d6000803e3d6000fd5b505050506040513d601f19601f8201168201806040525081019061199b9190612604565b83549091506119bc5760405162461bcd60e51b81526004016104c190612865565b600081116119dc5760405162461bcd60e51b81526004016104c1906127ec565b6000611a0a846001015461069d64e8d4a5100061064b89600301548960000154611d1690919063ffffffff16565b90508015611a1c57611a1c8882611e19565b8354600090611a3190849061064b9087611d16565b905080881115611a3f578097505b8715611baf576004808701548754604051627b8a6760e11b81526000936001600160a01b039384169362f714ce93611a7e938f93919092169101612cf3565b602060405180830381600087803b158015611a9857600080fd5b505af1158015611aac573d6000803e3d6000fd5b505050506040513d601f19601f82011682018060405250810190611ad09190612604565b8654909150811115611ae55760008655611af4565b8554611af19082611db7565b86555b86546040516370a0823160e01b81526000916001600160a01b0316906370a0823190611b249030906004016126f2565b60206040518083038186803b158015611b3c57600080fd5b505afa158015611b50573d6000803e3d6000fd5b505050506040513d601f19601f82011682018060405250810190611b749190612604565b905089811015611b965760405162461bcd60e51b81526004016104c19061289c565b8754611bac906001600160a01b0316338c6120d6565b50505b60038601548554611bca9164e8d4a510009161064b91611d16565b8560010181905550886001600160a01b03168a6001600160a01b03167f9b1bfa7fa9ee420a16e124f794c35ac9f90472acc99140eb2f6447c714cad8eb8a604051611c159190612cea565b60405180910390a3505060016003555050505050505050565b600e6020526000908152604090205481565b6004546001600160a01b031681565b611c57611d12565b6000546001600160a01b03908116911614611c845760405162461bcd60e51b81526004016104c190612a6b565b6001600160a01b038116611caa5760405162461bcd60e51b81526004016104c1906128f9565b600080546040516001600160a01b03808516939216917f8be0079c531659141344cd1fd0a4f28419497f9722a3daafe3b4186f6b6457e091a3600080546001600160a01b0319166001600160a01b0392909216919091179055565b60006106ab6001836120f5565b3390565b600082611d25575060006106ab565b82820282848281611d3257fe5b04146111865760405162461bcd60e51b81526004016104c190612a2a565b600061118683836040518060400160405280601a81526020017f536166654d6174683a206469766973696f6e206279207a65726f00000000000081525061210a565b6000828201838110156111865760405162461bcd60e51b81526004016104c190612976565b600061118683836040518060400160405280601e81526020017f536166654d6174683a207375627472616374696f6e206f766572666c6f770000815250612141565b6000611186836001600160a01b03841661216d565b60006106ab82612233565b600480546040516370a0823160e01b81526000926001600160a01b03909216916370a0823191611e4b913091016126f2565b60206040518083038186803b158015611e6357600080fd5b505afa158015611e77573d6000803e3d6000fd5b505050506040513d601f19601f82011682018060405250810190611e9b9190612604565b905080821115611f2e576004805460405163a9059cbb60e01b81526001600160a01b039091169163a9059cbb91611ed6918791869101612744565b602060405180830381600087803b158015611ef057600080fd5b505af1158015611f04573d6000803e3d6000fd5b505050506040513d601f19601f82011682018060405250810190611f2891906125d0565b50611fb3565b6004805460405163a9059cbb60e01b81526001600160a01b039091169163a9059cbb91611f5f918791879101612744565b602060405180830381600087803b158015611f7957600080fd5b505af1158015611f8d573d6000803e3d6000fd5b505050506040513d601f19601f82011682018060405250810190611fb191906125d0565b505b505050565b611fb1846323b872dd60e01b858585604051602401611fd993929190612720565b60408051601f198184030181529190526020810180516001600160e01b03166001600160e01b031990931692909217909152612237565b600061209482856001600160a01b031663dd62ed3e30876040518363ffffffff1660e01b8152600401612044929190612706565b60206040518083038186803b15801561205c57600080fd5b505afa158015612070573d6000803e3d6000fd5b505050506040513d601f19601f820116820180604052508101906111369190612604565b9050611fb18463095ea7b360e01b8584604051602401611fd9929190612744565b600061118683836122c6565b6000611186836001600160a01b03841661230b565b611fb38363a9059cbb60e01b8484604051602401611fd9929190612744565b6000611186836001600160a01b038416612355565b6000818361212b5760405162461bcd60e51b81526004016104c191906127b9565b50600083858161213757fe5b0495945050505050565b600081848411156121655760405162461bcd60e51b81526004016104c191906127b9565b505050900390565b6000818152600183016020526040812054801561222957835460001980830191908101906000908790839081106121a057fe5b90600052602060002001549050808760000184815481106121bd57fe5b6000918252602080832090910192909255828152600189810190925260409020908401905586548790806121ed57fe5b600190038181906000526020600020016000905590558660010160008781526020019081526020016000206000905560019450505050506106ab565b60009150506106ab565b5490565b606061228c826040518060400160405280602081526020017f5361666545524332303a206c6f772d6c6576656c2063616c6c206661696c6564815250856001600160a01b031661236d9092919063ffffffff16565b805190915015611fb357808060200190518101906122aa91906125d0565b611fb35760405162461bcd60e51b81526004016104c190612bbf565b815460009082106122e95760405162461bcd60e51b81526004016104c190612823565b8260000182815481106122f857fe5b9060005260206000200154905092915050565b60006123178383612355565b61234d575081546001818101845560008481526020808220909301849055845484825282860190935260409020919091556106ab565b5060006106ab565b60009081526001919091016020526040902054151590565b606061237c8484600085612384565b949350505050565b6060824710156123a65760405162461bcd60e51b81526004016104c1906129ad565b6123af85612445565b6123cb5760405162461bcd60e51b81526004016104c190612b15565b60006060866001600160a01b031685876040516123e891906126d6565b60006040518083038185875af1925050503d8060008114612425576040519150601f19603f3d011682016040523d82523d6000602084013e61242a565b606091505b509150915061243a82828661244b565b979650505050505050565b3b151590565b6060831561245a575081611186565b82511561246a5782518084602001fd5b8160405162461bcd60e51b81526004016104c191906127b9565b6040518060a0016040528060006001600160a01b0316815260200160008152602001600081526020016000815260200160006001600160a01b031681525090565b604051806040016040528060008152602001600081525090565b6000602082840312156124f0578081fd5b813561118681612d44565b60006020828403121561250c578081fd5b815161118681612d44565b60008060408385031215612529578081fd5b823561253481612d44565b9150602083013561254481612d44565b809150509250929050565b600080600060608486031215612563578081fd5b833561256e81612d44565b9250602084013561257e81612d44565b929592945050506040919091013590565b6000806000606084860312156125a3578283fd5b83356125ae81612d44565b92506020840135915060408401356125c581612d59565b809150509250925092565b6000602082840312156125e1578081fd5b815161118681612d59565b6000602082840312156125fd578081fd5b5035919050565b600060208284031215612615578081fd5b5051919050565b6000806040838503121561262e578182fd5b82359150602083013561254481612d44565b60008060008060808587031215612655578081fd5b84359350602085013561266781612d44565b9250604085013561267781612d59565b9150606085013561268781612d44565b939692955090935050565b600080604083850312156126a4578182fd5b50508035926020909101359150565b600080604083850312156126c5578182fd5b505080516020909101519092909150565b600082516126e8818460208701612d18565b9190910192915050565b6001600160a01b0391909116815260200190565b6001600160a01b0392831681529116602082015260400190565b6001600160a01b039384168152919092166020820152604081019190915260600190565b6001600160a01b03929092168252602082015260400190565b6001600160a01b039390931683526020830191909152604082015260600190565b901515815260200190565b6001600160a01b039586168152602081019490945260408401929092526060830152909116608082015260a00190565b60006020825282518060208401526127d8816040850160208701612d18565b601f01601f19169190910160400192915050565b6020808252601c908201527f426f626f4661726d65723a20736861726573546f74616c206973203000000000604082015260600190565b60208082526022908201527f456e756d657261626c655365743a20696e646578206f7574206f6620626f756e604082015261647360f01b606082015260800190565b6020808252601c908201527f426f626f4661726d65723a20757365722e736861726573206973203000000000604082015260600190565b60208082526039908201527f426f626f4661726d65723a2074686520616d6f756e74206f662077697468647260408201527f6177656420746f6b656e206973204e4f5420656e6f7567682e00000000000000606082015260800190565b60208082526026908201527f4f776e61626c653a206e6577206f776e657220697320746865207a65726f206160408201526564647265737360d01b606082015260800190565b6020808252601c908201527f426f626f4661726d65723a20746f6b656e204e4f542065786973742e00000000604082015260600190565b6020808252601b908201527f536166654d6174683a206164646974696f6e206f766572666c6f770000000000604082015260600190565b60208082526026908201527f416464726573733a20696e73756666696369656e742062616c616e636520666f6040820152651c8818d85b1b60d21b606082015260800190565b60208082526018908201527f426f626f4661726d65723a20746f6b656e2045584953542e0000000000000000604082015260600190565b60208082526021908201527f536166654d6174683a206d756c7469706c69636174696f6e206f766572666c6f6040820152607760f81b606082015260800190565b6020808252818101527f4f776e61626c653a2063616c6c6572206973206e6f7420746865206f776e6572604082015260600190565b60208082526026908201527f4d6978696e417574686f72697a61626c653a20696e646578206f7574206f6620604082015265626f756e647360d01b606082015260800190565b60208082526015908201527414d15391115497d393d517d055551213d492569151605a1b604082015260600190565b6020808252601d908201527f416464726573733a2063616c6c20746f206e6f6e2d636f6e7472616374000000604082015260600190565b6020808252604d908201527f426f626f4661726d65723a20746865206f776e6572206f66207374726174204d60408201527f555354206265207468652073616d65206173207468652061646472657373206f60608201526c33102137b137a330b936b2b91760991b608082015260a00190565b6020808252602a908201527f5361666545524332303a204552433230206f7065726174696f6e20646964206e6040820152691bdd081cdd58d8d9595960b21b606082015260800190565b6020808252601f908201527f5265656e7472616e637947756172643a207265656e7472616e742063616c6c00604082015260600190565b60208082526035908201527f4d6978696e417574686f72697a61626c653a205f616464417574686f72697a656040820152746420697320746865207a65726f206164647265737360581b606082015260800190565b60208082526035908201527f4d6978696e417574686f72697a61626c653a205f64656c417574686f72697a656040820152746420697320746865207a65726f206164647265737360581b606082015260800190565b90815260200190565b9182526001600160a01b0316602082015260400190565b918252602082015260400190565b60005b83811015612d33578181015183820152602001612d1b565b83811115611fb15750506000910152565b6001600160a01b0381168114610a1e57600080fd5b8015158114610a1e57600080fdfea2646970667358221220f0ea28011e6dc179ea57ba10db8c9a1f30a227e01d7367b4cb64a2bab01c257164736f6c634300060c0033",
  "immutableReferences": {},
  "source": "// SPDX-License-Identifier: MIT\npragma solidity ^0.6.0;\npragma experimental ABIEncoderV2;\n        \nimport \"./common/MixinAuthorizable.sol\";\n\ninterface IStrategy {\n    // Total want tokens managed by strat\n    function wantLockedTotalMap(address _wantToken) external view returns (uint256);\n\n    // Sum of all shares of users to wantLockedTotal\n    function sharesTotalMap(address _wantToken) external view returns (uint256);\n\n    // Main want token compounding function\n    function earn() external;\n\n    // Transfer want tokens boboFarm -> strategy\n    function deposit(uint256 _wantAmt, address _wantToken) external returns (uint256);\n\n    // Transfer want tokens strategy -> boboFarm\n    function withdraw(uint256 _wantAmt, address _wantToken) external returns (uint256);\n\n    function initTotalShareAndLocked(address _tokenAddr, uint256 _totalShare, uint256 _totalLocked) external;\n\n    function clearAndTransferTokens(address _tokenAddr) external returns(uint256, uint256);\n\n    function farm() external;\n    \n    function owner() external returns(address);\n}\n\ncontract BoboFarmer is MixinAuthorizable, ReentrancyGuard {\n    using SafeMath for uint256;\n    using SafeERC20 for IERC20;\n\n    struct UserInfo {\n        uint256 shares;             // \n        uint256 rewardDebt; \n    }\n\n    struct PoolInfo {\n        IERC20 want;                // token\n        uint256 allocPoint;         // BOBO\n        uint256 lastRewardBlock;    \n        uint256 accBOBOPerShare;    // BOBOmintBOBO\n        address strat;              // \n    }\n\n    address public boboTokenAddr;\n\n    address public burnAddress = 0x000000000000000000000000000000000000dEaD;\n    address public fundAddr;\n    uint256 public denominator;\n    uint256 public numerator;\n\n    uint256 public boboPerBlock; \n    uint256 public startBlock; \n\n    PoolInfo[] public poolInfo; \n    mapping(uint256 => mapping(address => UserInfo)) public userInfo; \n    uint256 public totalAllocPoint = 0; \n    mapping(address => uint256) public tokenPidMap;\n\n    event Deposit(address indexed _tokenAddr, address indexed user, uint256 amount);\n    event Withdraw(address indexed _tokenAddr, address indexed user, uint256 amount);\n    event EmergencyWithdraw(\n        address indexed _tokenAddr,\n        address indexed user,\n        uint256 amount\n    );\n    \n    constructor(\n        address _boboTokenAddress, \n        address _fundAddr\n    ) public {\n        boboTokenAddr = _boboTokenAddress;\n        fundAddr = _fundAddr;\n        numerator = 2;\n        denominator = 3;\n    }\n\n\n    function setFundAddr(address _fundAddr) public onlyOwner {\n        fundAddr = _fundAddr;\n    }\n\n    function setFundScale(uint256 _numerator, uint256 _denominator) public onlyOwner {\n        numerator = _numerator;\n        denominator = _denominator;\n    }\n    \n    function setBoboPerBlock(          \n        uint256 _boboPerBlock\n    ) public onlyOwner {\n        massUpdatePools();\n        boboPerBlock = _boboPerBlock;\n    }\n\n    function poolLength() external view returns (uint256) {\n        return poolInfo.length;\n    }\n\n    function add(uint256 _allocPoint, address _want, bool _withUpdate, address _strat) public onlyOwner {\n        require(tokenPidMap[_want] == 0, \"BoboFarmer: token EXIST.\");\n        require(IStrategy(_strat).owner() == address(this), \"BoboFarmer: the owner of strat MUST be the same as the address of BoboFarmer.\");\n        if (_withUpdate) {\n            massUpdatePools();\n        }\n        totalAllocPoint = totalAllocPoint.add(_allocPoint);\n        poolInfo.push(\n            PoolInfo({\n                want: IERC20(_want),\n                allocPoint: _allocPoint,\n                lastRewardBlock: block.number,\n                accBOBOPerShare: 0,\n                strat: _strat\n            })\n        );\n        tokenPidMap[_want] = poolInfo.length;\n    }\n\n    function setPoolPoint(address _tokenAddr, uint256 _allocPoint, bool _withUpdate) public onlyOwner {\n        require(tokenPidMap[_tokenAddr] > 0, \"BoboFarmer: token NOT exist.\");\n        uint256 pid = tokenPidMap[_tokenAddr] - 1;\n        if (_withUpdate) {\n            massUpdatePools();\n        }\n        totalAllocPoint = totalAllocPoint.sub(poolInfo[pid].allocPoint).add(_allocPoint);\n        poolInfo[pid].allocPoint = _allocPoint;\n    }\n\n    function getMultiplier(uint256 _from, uint256 _to) public pure returns (uint256) {\n        return _to.sub(_from);\n    }\n\n    // BOBOBOBO\n    // bobo\n    function pendingBOBO(address _tokenAddr, address _user) external view returns (uint256) {\n        require(tokenPidMap[_tokenAddr] > 0, \"BoboFarmer: token NOT exist.\");\n        uint256 pid = tokenPidMap[_tokenAddr] - 1;\n        PoolInfo storage pool = poolInfo[pid];\n        UserInfo storage user = userInfo[pid][_user];\n        uint256 accBOBOPerShare = pool.accBOBOPerShare;\n        uint256 sharesTotal = IStrategy(pool.strat).sharesTotalMap(address(pool.want));         // \n        if (block.number > pool.lastRewardBlock && sharesTotal != 0) {\n            uint256 multiplier = getMultiplier(pool.lastRewardBlock, block.number);\n            uint256 boboReward = multiplier.mul(boboPerBlock).mul(pool.allocPoint).div(totalAllocPoint);   // BOBO\n            accBOBOPerShare = accBOBOPerShare.add(boboReward.mul(1e12).div(sharesTotal));      // BOBO\n        }\n        return user.shares.mul(accBOBOPerShare).div(1e12).sub(user.rewardDebt);\n    }\n\n    // want token\n    function stakedWantTokens(address _tokenAddr, address _user) external view returns (uint256) {\n        require(tokenPidMap[_tokenAddr] > 0, \"BoboFarmer: token NOT exist.\");\n        uint256 pid = tokenPidMap[_tokenAddr] - 1;\n\n        PoolInfo memory pool = poolInfo[pid];\n        UserInfo memory user = userInfo[pid][_user];\n\n        uint256 sharesTotal = IStrategy(pool.strat).sharesTotalMap(address(pool.want));\n        uint256 wantLockedTotal = IStrategy(pool.strat).wantLockedTotalMap(address(pool.want));\n        if (sharesTotal == 0) {\n            return 0;\n        }\n        return user.shares.mul(wantLockedTotal).div(sharesTotal);\n    }\n\n    function massUpdatePools() public {\n        uint256 length = poolInfo.length;\n        for (uint256 pid = 0; pid < length; ++pid) {\n            updatePool(pid);\n        }\n    }\n\n    function updatePool(uint256 _pid) public {\n        PoolInfo storage pool = poolInfo[_pid];\n        if (block.number <= pool.lastRewardBlock) {\n            return;\n        }\n        // \n        uint256 sharesTotal = IStrategy(pool.strat).sharesTotalMap(address(pool.want));\n        if (sharesTotal == 0) {\n            pool.lastRewardBlock = block.number;\n            return;\n        }\n\n        // BOBO\n        uint256 multiplier = getMultiplier(pool.lastRewardBlock, block.number);\n        if (multiplier <= 0) {\n            return;\n        }\n        uint256 boboReward = multiplier.mul(boboPerBlock).mul(pool.allocPoint).div(totalAllocPoint);\n        if (boboReward > 0) {\n            uint256 fundAmount = boboReward.mul(numerator).div(denominator);\n            IBOBOToken(boboTokenAddr).mint(address(this), boboReward.add(fundAmount));\n            IERC20(boboTokenAddr).approve(fundAddr, fundAmount);\n            IBoboFund(fundAddr).transferBobo(fundAmount);\n            pool.accBOBOPerShare = pool.accBOBOPerShare.add(boboReward.mul(1e12).div(sharesTotal));\n        }\n\n        pool.lastRewardBlock = block.number;\n    }\n\n    // wantwant\n    function deposit(address _tokenAddr, address _userAddr, uint256 _wantAmt) public nonReentrant onlyAuthorized {\n        require(tokenPidMap[_tokenAddr] > 0, \"BoboFarmer: token NOT exist.\");\n        uint256 pid = tokenPidMap[_tokenAddr] - 1;\n\n        updatePool(pid);\n        PoolInfo storage pool = poolInfo[pid];\n        UserInfo storage user = userInfo[pid][_userAddr];\n\n        if (user.shares > 0) {  // BOBO\n            uint256 pendingBOBOAmount = user.shares.mul(pool.accBOBOPerShare).div(1e12).sub(user.rewardDebt);\n            if (pendingBOBOAmount > 0) {\n                safeBOBOTransfer(_userAddr, pendingBOBOAmount);\n            }\n        }\n        if (_wantAmt > 0) {   // want0want =>  => => \n            pool.want.safeTransferFrom(msg.sender, address(this), _wantAmt);  // want\n\n            pool.want.safeIncreaseAllowance(pool.strat, _wantAmt);  // \n            uint256 sharesAdded = IStrategy(pool.strat).deposit(_wantAmt, address(pool.want));  // wantdeposit\n            user.shares = user.shares.add(sharesAdded);  // \n        }\n        user.rewardDebt = user.shares.mul(pool.accBOBOPerShare).div(1e12);   // BOBO\n        emit Deposit(_tokenAddr, _userAddr, _wantAmt);\n    }\n    \n    // BOBOwant\n    // \n    function withdraw(address _tokenAddr, address _userAddr, uint256 _wantAmt) public nonReentrant onlyAuthorized {\n        require(tokenPidMap[_tokenAddr] > 0, \"BoboFarmer: token NOT exist.\");\n        uint256 pid = tokenPidMap[_tokenAddr] - 1;\n\n        updatePool(pid);\n\n        PoolInfo storage pool = poolInfo[pid];\n        UserInfo storage user = userInfo[pid][_userAddr];\n\n        uint256 wantLockedTotal = IStrategy(pool.strat).wantLockedTotalMap(address(pool.want));  // want\n        uint256 sharesTotal = IStrategy(pool.strat).sharesTotalMap(address(pool.want));  // \n\n        require(user.shares > 0, \"BoboFarmer: user.shares is 0\");\n        require(sharesTotal > 0, \"BoboFarmer: sharesTotal is 0\");\n\n        // BOBO\n        uint256 pending = user.shares.mul(pool.accBOBOPerShare).div(1e12).sub(user.rewardDebt);\n        if (pending > 0) {\n            safeBOBOTransfer(_userAddr, pending);\n        }\n\n        // want\n        uint256 amount = user.shares.mul(wantLockedTotal).div(sharesTotal);\n        if (_wantAmt > amount) {\n            _wantAmt = amount;\n        }\n        if (_wantAmt > 0) {\n            // want\n            uint256 sharesRemoved = IStrategy(pool.strat).withdraw(_wantAmt, address(pool.want));   \n\n            // \n            if (sharesRemoved > user.shares) {\n                user.shares = 0;\n            } else {\n                user.shares = user.shares.sub(sharesRemoved);\n            }\n\n            // withdrawwantwant\n            // wantwantwant\n            uint256 wantBal = IERC20(pool.want).balanceOf(address(this));  \n            require (wantBal >= _wantAmt, \"BoboFarmer: the amount of withdrawed token is NOT enough.\");\n            pool.want.safeTransfer(msg.sender, _wantAmt);\n        }\n        user.rewardDebt = user.shares.mul(pool.accBOBOPerShare).div(1e12);\n        emit Withdraw(_tokenAddr, _userAddr, _wantAmt);\n    }\n\n    function migrateNewStrat(address _tokenAddr, address _newStratAddr) external onlyOwner {\n        require(tokenPidMap[_tokenAddr] > 0, \"BoboFarmer: token NOT exist.\");\n        uint256 pid = tokenPidMap[_tokenAddr] - 1;\n        PoolInfo storage pool = poolInfo[pid];\n        \n        (uint256 totalShares, uint256 totalLocked) = IStrategy(pool.strat).clearAndTransferTokens(_tokenAddr);\n        IStrategy(_newStratAddr).initTotalShareAndLocked(_tokenAddr, totalShares, totalLocked);\n        pool.strat = _newStratAddr;\n        uint256 amount = IERC20(_tokenAddr).balanceOf(address(this));\n        if (amount > 0)\n            IERC20(_tokenAddr).transfer(_newStratAddr, amount);\n        IStrategy(_newStratAddr).farm();\n    }\n\n    function safeBOBOTransfer(address _to, uint256 _boboAmt) internal {\n        uint256 boboBal = IERC20(boboTokenAddr).balanceOf(address(this));\n        if (_boboAmt > boboBal) {\n            IERC20(boboTokenAddr).transfer(_to, boboBal);\n        } else {\n            IERC20(boboTokenAddr).transfer(_to, _boboAmt);\n        }\n    }\n}",
  "sourcePath": "/Users/mryu/blockchain/bobo-metaverse/boboswap-contract/contracts/BoboFarmer4HangingOrder.sol",
  "compiler": {
    "name": "solc",
    "version": "0.6.12+commit.27d51765.Emscripten.clang"
  },
  "schemaVersion": "3.4.3",
  "updatedAt": "2021-09-16T08:10:12.379Z",
  "networkType": "ethereum",
  "devdoc": {
    "kind": "dev",
    "methods": {
      "owner()": {
        "details": "Returns the address of the current owner."
      },
      "renounceOwnership()": {
        "details": "Leaves the contract without owner. It will not be possible to call `onlyOwner` functions anymore. Can only be called by the current owner. NOTE: Renouncing ownership will leave the contract without an owner, thereby removing any functionality that is only available to the owner."
      },
      "transferOwnership(address)": {
        "details": "Transfers ownership of the contract to a new account (`newOwner`). Can only be called by the current owner."
      }
    },
    "version": 1
  },
  "userdoc": {
    "kind": "user",
    "methods": {},
    "version": 1
  }
}