{
  "contractName": "BoboPairHelper",
  "abi": [
    {
      "inputs": [
        {
          "internalType": "contract IBoboPair",
          "name": "_boboPair",
          "type": "address"
        },
        {
          "internalType": "address",
          "name": "_userAddr",
          "type": "address"
        },
        {
          "internalType": "uint256",
          "name": "_startTime",
          "type": "uint256"
        },
        {
          "internalType": "uint256",
          "name": "_endTime",
          "type": "uint256"
        }
      ],
      "name": "getDepositableOrders",
      "outputs": [
        {
          "internalType": "uint256[]",
          "name": "orderIds",
          "type": "uint256[]"
        },
        {
          "internalType": "uint256[]",
          "name": "weights",
          "type": "uint256[]"
        },
        {
          "internalType": "uint256",
          "name": "count",
          "type": "uint256"
        }
      ],
      "stateMutability": "view",
      "type": "function",
      "constant": true
    },
    {
      "inputs": [
        {
          "internalType": "contract IBoboPair",
          "name": "_boboPair",
          "type": "address"
        },
        {
          "internalType": "address",
          "name": "_userAddr",
          "type": "address"
        },
        {
          "internalType": "uint256",
          "name": "_startTime",
          "type": "uint256"
        },
        {
          "internalType": "uint256",
          "name": "_endTime",
          "type": "uint256"
        }
      ],
      "name": "getDepositableOrders_old",
      "outputs": [
        {
          "internalType": "uint256[]",
          "name": "orderIds",
          "type": "uint256[]"
        },
        {
          "internalType": "uint256[]",
          "name": "weights",
          "type": "uint256[]"
        },
        {
          "internalType": "uint256",
          "name": "count",
          "type": "uint256"
        }
      ],
      "stateMutability": "view",
      "type": "function",
      "constant": true
    },
    {
      "inputs": [
        {
          "internalType": "contract IBoboPair",
          "name": "_boboPair",
          "type": "address"
        },
        {
          "internalType": "address",
          "name": "_userAddr",
          "type": "address"
        },
        {
          "internalType": "uint256",
          "name": "_fromIndex",
          "type": "uint256"
        },
        {
          "internalType": "uint256",
          "name": "_pageSize",
          "type": "uint256"
        }
      ],
      "name": "getAllUnhangingOrders",
      "outputs": [
        {
          "components": [
            {
              "internalType": "uint256",
              "name": "id",
              "type": "uint256"
            },
            {
              "internalType": "address",
              "name": "owner",
              "type": "address"
            },
            {
              "internalType": "address",
              "name": "pairAddr",
              "type": "address"
            },
            {
              "internalType": "bool",
              "name": "bBuyQuoteToken",
              "type": "bool"
            },
            {
              "internalType": "uint256",
              "name": "spotPrice",
              "type": "uint256"
            },
            {
              "internalType": "uint256",
              "name": "inAmount",
              "type": "uint256"
            },
            {
              "internalType": "uint256",
              "name": "minOutAmount",
              "type": "uint256"
            },
            {
              "internalType": "uint256",
              "name": "outAmount",
              "type": "uint256"
            },
            {
              "internalType": "enum OrderStatus",
              "name": "status",
              "type": "uint8"
            },
            {
              "internalType": "string",
              "name": "comment",
              "type": "string"
            },
            {
              "internalType": "uint256",
              "name": "delegateTime",
              "type": "uint256"
            },
            {
              "internalType": "uint256",
              "name": "dealedTime",
              "type": "uint256"
            },
            {
              "internalType": "uint256",
              "name": "weight",
              "type": "uint256"
            }
          ],
          "internalType": "struct NFTInfo[]",
          "name": "nftInfos",
          "type": "tuple[]"
        },
        {
          "internalType": "uint256",
          "name": "count",
          "type": "uint256"
        }
      ],
      "stateMutability": "view",
      "type": "function",
      "constant": true
    },
    {
      "inputs": [
        {
          "internalType": "contract IBoboPair",
          "name": "_boboPair",
          "type": "address"
        },
        {
          "internalType": "enum OrderStatus",
          "name": "_orderStatus",
          "type": "uint8"
        },
        {
          "internalType": "uint256",
          "name": "_fromIndex",
          "type": "uint256"
        },
        {
          "internalType": "uint256",
          "name": "_pageSize",
          "type": "uint256"
        }
      ],
      "name": "getOneStatusOrders",
      "outputs": [
        {
          "components": [
            {
              "internalType": "uint256",
              "name": "id",
              "type": "uint256"
            },
            {
              "internalType": "address",
              "name": "owner",
              "type": "address"
            },
            {
              "internalType": "address",
              "name": "pairAddr",
              "type": "address"
            },
            {
              "internalType": "bool",
              "name": "bBuyQuoteToken",
              "type": "bool"
            },
            {
              "internalType": "uint256",
              "name": "spotPrice",
              "type": "uint256"
            },
            {
              "internalType": "uint256",
              "name": "inAmount",
              "type": "uint256"
            },
            {
              "internalType": "uint256",
              "name": "minOutAmount",
              "type": "uint256"
            },
            {
              "internalType": "uint256",
              "name": "outAmount",
              "type": "uint256"
            },
            {
              "internalType": "enum OrderStatus",
              "name": "status",
              "type": "uint8"
            },
            {
              "internalType": "string",
              "name": "comment",
              "type": "string"
            },
            {
              "internalType": "uint256",
              "name": "delegateTime",
              "type": "uint256"
            },
            {
              "internalType": "uint256",
              "name": "dealedTime",
              "type": "uint256"
            },
            {
              "internalType": "uint256",
              "name": "weight",
              "type": "uint256"
            }
          ],
          "internalType": "struct NFTInfo[]",
          "name": "nftInfos",
          "type": "tuple[]"
        },
        {
          "internalType": "uint256",
          "name": "count",
          "type": "uint256"
        }
      ],
      "stateMutability": "view",
      "type": "function",
      "constant": true
    },
    {
      "inputs": [
        {
          "internalType": "contract IBoboPair",
          "name": "_boboPair",
          "type": "address"
        },
        {
          "internalType": "address",
          "name": "_userAddr",
          "type": "address"
        },
        {
          "internalType": "uint256",
          "name": "_fromIndex",
          "type": "uint256"
        },
        {
          "internalType": "uint256",
          "name": "_pageSize",
          "type": "uint256"
        }
      ],
      "name": "getAllDealedOrders",
      "outputs": [
        {
          "components": [
            {
              "internalType": "uint256",
              "name": "id",
              "type": "uint256"
            },
            {
              "internalType": "address",
              "name": "owner",
              "type": "address"
            },
            {
              "internalType": "address",
              "name": "pairAddr",
              "type": "address"
            },
            {
              "internalType": "bool",
              "name": "bBuyQuoteToken",
              "type": "bool"
            },
            {
              "internalType": "uint256",
              "name": "spotPrice",
              "type": "uint256"
            },
            {
              "internalType": "uint256",
              "name": "inAmount",
              "type": "uint256"
            },
            {
              "internalType": "uint256",
              "name": "minOutAmount",
              "type": "uint256"
            },
            {
              "internalType": "uint256",
              "name": "outAmount",
              "type": "uint256"
            },
            {
              "internalType": "enum OrderStatus",
              "name": "status",
              "type": "uint8"
            },
            {
              "internalType": "string",
              "name": "comment",
              "type": "string"
            },
            {
              "internalType": "uint256",
              "name": "delegateTime",
              "type": "uint256"
            },
            {
              "internalType": "uint256",
              "name": "dealedTime",
              "type": "uint256"
            },
            {
              "internalType": "uint256",
              "name": "weight",
              "type": "uint256"
            }
          ],
          "internalType": "struct NFTInfo[]",
          "name": "nftInfos",
          "type": "tuple[]"
        },
        {
          "internalType": "uint256",
          "name": "count",
          "type": "uint256"
        }
      ],
      "stateMutability": "view",
      "type": "function",
      "constant": true
    },
    {
      "inputs": [
        {
          "internalType": "contract IBoboTradeMining",
          "name": "_boboTradeMining",
          "type": "address"
        },
        {
          "internalType": "address",
          "name": "_usderAddr",
          "type": "address"
        }
      ],
      "name": "getAllDepositedOrders",
      "outputs": [
        {
          "components": [
            {
              "internalType": "uint256",
              "name": "id",
              "type": "uint256"
            },
            {
              "internalType": "address",
              "name": "owner",
              "type": "address"
            },
            {
              "internalType": "address",
              "name": "pairAddr",
              "type": "address"
            },
            {
              "internalType": "bool",
              "name": "bBuyQuoteToken",
              "type": "bool"
            },
            {
              "internalType": "uint256",
              "name": "spotPrice",
              "type": "uint256"
            },
            {
              "internalType": "uint256",
              "name": "inAmount",
              "type": "uint256"
            },
            {
              "internalType": "uint256",
              "name": "minOutAmount",
              "type": "uint256"
            },
            {
              "internalType": "uint256",
              "name": "outAmount",
              "type": "uint256"
            },
            {
              "internalType": "enum OrderStatus",
              "name": "status",
              "type": "uint8"
            },
            {
              "internalType": "string",
              "name": "comment",
              "type": "string"
            },
            {
              "internalType": "uint256",
              "name": "delegateTime",
              "type": "uint256"
            },
            {
              "internalType": "uint256",
              "name": "dealedTime",
              "type": "uint256"
            },
            {
              "internalType": "uint256",
              "name": "weight",
              "type": "uint256"
            }
          ],
          "internalType": "struct NFTInfo[]",
          "name": "nftInfos",
          "type": "tuple[]"
        }
      ],
      "stateMutability": "view",
      "type": "function",
      "constant": true
    },
    {
      "inputs": [
        {
          "internalType": "address",
          "name": "boboFactory",
          "type": "address"
        },
        {
          "internalType": "address",
          "name": "boboRouter",
          "type": "address"
        },
        {
          "internalType": "address[]",
          "name": "quoteTokenOfUsdt",
          "type": "address[]"
        },
        {
          "internalType": "address",
          "name": "usdtAddr",
          "type": "address"
        },
        {
          "internalType": "address[]",
          "name": "quoteTokenOfUsdc",
          "type": "address[]"
        },
        {
          "internalType": "address",
          "name": "usdcAddr",
          "type": "address"
        }
      ],
      "name": "getPairInfo",
      "outputs": [
        {
          "internalType": "uint256[]",
          "name": "pricesOfUsdt",
          "type": "uint256[]"
        },
        {
          "internalType": "uint256[]",
          "name": "volumnsOfUsdt",
          "type": "uint256[]"
        },
        {
          "internalType": "uint256[]",
          "name": "pricesOfUsdc",
          "type": "uint256[]"
        },
        {
          "internalType": "uint256[]",
          "name": "volumnsOfUsdc",
          "type": "uint256[]"
        }
      ],
      "stateMutability": "view",
      "type": "function",
      "constant": true
    }
  ],
  "bytecode": "0x608060405234801561001057600080fd5b50612229806100206000396000f3fe608060405234801561001057600080fd5b506004361061007d5760003560e01c8063850624121161005b57806385062412146100e1578063881de76d14610101578063b875897414610114578063dd2833f7146101275761007d565b80631077dcc114610082578063139661f5146100ad57806339ac5a14146100c0575b600080fd5b610095610090366004611c83565b61014a565b6040516100a4939291906120d9565b60405180910390f35b6100956100bb366004611c83565b6105b1565b6100d36100ce366004611c83565b6109ef565b6040516100a492919061205f565b6100f46100ef366004611cf8565b610ca5565b6040516100a4919061204c565b6100d361010f366004611c83565b610f51565b6100d3610122366004611cc8565b6111fa565b61013a610135366004611b47565b6114a3565b6040516100a49493929190612081565b606080600080876001600160a01b031663d4d728da6040518163ffffffff1660e01b815260040160206040518083038186803b15801561018957600080fd5b505afa15801561019d573d6000803e3d6000fd5b505050506040513d601f19601f820116820180604052508101906101c19190611b24565b90506000886001600160a01b0316632d611131896040518263ffffffff1660e01b81526004016101f19190611fe4565b60206040518083038186803b15801561020957600080fd5b505afa15801561021d573d6000803e3d6000fd5b505050506040513d601f19601f820116820180604052508101906102419190611e40565b9050606481116102515780610254565b60645b6001600160401b038111801561026957600080fd5b50604051908082528060200260200182016040528015610293578160200160208202803683370190505b509450606481116102a457806102a7565b60645b6001600160401b03811180156102bc57600080fd5b506040519080825280602002602001820160405280156102e6578160200160208202803683370190505b50935060005b818110156105a457604051631b11481760e01b81526000906001600160a01b038c1690631b11481790610325908d908690600401612033565b60206040518083038186803b15801561033d57600080fd5b505afa158015610351573d6000803e3d6000fd5b505050506040513d601f19601f820116820180604052508101906103759190611e40565b905061037f611993565b60405163d311636b60e01b81526001600160a01b0386169063d311636b906103ab908590600401612140565b60006040518083038186803b1580156103c357600080fd5b505afa1580156103d7573d6000803e3d6000fd5b505050506040513d6000823e601f3d908101601f191682016040526103ff9190810190611d30565b80516040516331a9108f60e11b81529192506000916001600160a01b03881691636352211e916104329190600401612140565b60206040518083038186803b15801561044a57600080fd5b505afa15801561045e573d6000803e3d6000fd5b505050506040513d601f19601f820116820180604052508101906104829190611b24565b90506002826101000151600381111561049757fe5b1480156104b557508b6001600160a01b0316816001600160a01b0316145b80156104c657508a82610160015110155b80156104d6575089826101600151105b1561059957815160405163d851fdfd60e01b81526000916001600160a01b0389169163d851fdfd9161050a91600401612140565b60206040518083038186803b15801561052257600080fd5b505afa158015610536573d6000803e3d6000fd5b505050506040513d601f19601f8201168201806040525081019061055a9190611e40565b905082600001518a898151811061056d57fe5b6020026020010181815250508089898151811061058657fe5b6020908102919091010152506001909601955b5050506001016102ec565b5050509450945094915050565b606080600080876001600160a01b031663d4d728da6040518163ffffffff1660e01b815260040160206040518083038186803b1580156105f057600080fd5b505afa158015610604573d6000803e3d6000fd5b505050506040513d601f19601f820116820180604052508101906106289190611b24565b90506000886001600160a01b031663c6388845896040518263ffffffff1660e01b81526004016106589190611fe4565b60206040518083038186803b15801561067057600080fd5b505afa158015610684573d6000803e3d6000fd5b505050506040513d601f19601f820116820180604052508101906106a89190611e40565b9050606481116106b857806106bb565b60645b6001600160401b03811180156106d057600080fd5b506040519080825280602002602001820160405280156106fa578160200160208202803683370190505b5094506064811161070b578061070e565b60645b6001600160401b038111801561072357600080fd5b5060405190808252806020026020018201604052801561074d578160200160208202803683370190505b50935060005b818110156105a457604051638862f28560e01b81526000906001600160a01b038c1690638862f2859061078c908d908690600401612033565b60206040518083038186803b1580156107a457600080fd5b505afa1580156107b8573d6000803e3d6000fd5b505050506040513d601f19601f820116820180604052508101906107dc9190611e40565b90506107e6611993565b60405163d311636b60e01b81526001600160a01b0386169063d311636b90610812908590600401612140565b60006040518083038186803b15801561082a57600080fd5b505afa15801561083e573d6000803e3d6000fd5b505050506040513d6000823e601f3d908101601f191682016040526108669190810190611d30565b80516040516331a9108f60e11b81529192506000916001600160a01b03881691636352211e916108999190600401612140565b60206040518083038186803b1580156108b157600080fd5b505afa1580156108c5573d6000803e3d6000fd5b505050506040513d601f19601f820116820180604052508101906108e99190611b24565b90508b6001600160a01b0316816001600160a01b031614801561091157508a82610160015110155b8015610921575089826101600151105b156109e457815160405163d851fdfd60e01b81526000916001600160a01b0389169163d851fdfd9161095591600401612140565b60206040518083038186803b15801561096d57600080fd5b505afa158015610981573d6000803e3d6000fd5b505050506040513d601f19601f820116820180604052508101906109a59190611e40565b905082600001518a89815181106109b857fe5b602002602001018181525050808989815181106109d157fe5b6020908102919091010152506001909601955b505050600101610753565b6060600080866001600160a01b031663c6388845876040518263ffffffff1660e01b8152600401610a209190611fe4565b60206040518083038186803b158015610a3857600080fd5b505afa158015610a4c573d6000803e3d6000fd5b505050506040513d601f19601f82011682018060405250810190610a709190611e40565b9050600181038511610c9b578084860111610a8b5783610a8f565b8481035b9350836001600160401b0381118015610aa757600080fd5b50604051908082528060200260200182016040528015610ae157816020015b610ace611993565b815260200190600190039081610ac65790505b5092506000876001600160a01b031663d4d728da6040518163ffffffff1660e01b815260040160206040518083038186803b158015610b1f57600080fd5b505afa158015610b33573d6000803e3d6000fd5b505050506040513d601f19601f82011682018060405250810190610b579190611b24565b9050855b858701811015610c9857604051638862f28560e01b81526000906001600160a01b038b1690638862f28590610b96908c908690600401612033565b60206040518083038186803b158015610bae57600080fd5b505afa158015610bc2573d6000803e3d6000fd5b505050506040513d601f19601f82011682018060405250810190610be69190611e40565b9050610bf0611993565b60405163d311636b60e01b81526001600160a01b0385169063d311636b90610c1c908590600401612140565b60006040518083038186803b158015610c3457600080fd5b505afa158015610c48573d6000803e3d6000fd5b505050506040513d6000823e601f3d908101601f19168201604052610c709190810190611d30565b905080878781518110610c7f57fe5b6020908102919091010152505060019384019301610b5b565b50505b5094509492505050565b60606000836001600160a01b0316638eb7e51e846040518263ffffffff1660e01b8152600401610cd59190611fe4565b60206040518083038186803b158015610ced57600080fd5b505afa158015610d01573d6000803e3d6000fd5b505050506040513d601f19601f82011682018060405250810190610d259190611e40565b90506060846001600160a01b0316632bf258ed856000856040518463ffffffff1660e01b8152600401610d5a93929190612012565b60006040518083038186803b158015610d7257600080fd5b505afa158015610d86573d6000803e3d6000fd5b505050506040513d6000823e601f3d908101601f19168201604052610dae9190810190611bf4565b9050816001600160401b0381118015610dc657600080fd5b50604051908082528060200260200182016040528015610e0057816020015b610ded611993565b815260200190600190039081610de55790505b5092506000856001600160a01b031663d06fcba86040518163ffffffff1660e01b815260040160206040518083038186803b158015610e3e57600080fd5b505afa158015610e52573d6000803e3d6000fd5b505050506040513d601f19601f82011682018060405250810190610e769190611b24565b905060005b83811015610f47576000838281518110610e9157fe5b60200260200101519050610ea3611993565b60405163d311636b60e01b81526001600160a01b0385169063d311636b90610ecf908590600401612140565b60006040518083038186803b158015610ee757600080fd5b505afa158015610efb573d6000803e3d6000fd5b505050506040513d6000823e601f3d908101601f19168201604052610f239190810190611d30565b905080878481518110610f3257fe5b60209081029190910101525050600101610e7b565b5050505092915050565b6060600080866001600160a01b0316632d611131876040518263ffffffff1660e01b8152600401610f829190611fe4565b60206040518083038186803b158015610f9a57600080fd5b505afa158015610fae573d6000803e3d6000fd5b505050506040513d601f19601f82011682018060405250810190610fd29190611e40565b9050600181038511610c9b578084860111610fed5783610ff1565b8481035b9350836001600160401b038111801561100957600080fd5b5060405190808252806020026020018201604052801561104357816020015b611030611993565b8152602001906001900390816110285790505b5092506000876001600160a01b031663d4d728da6040518163ffffffff1660e01b815260040160206040518083038186803b15801561108157600080fd5b505afa158015611095573d6000803e3d6000fd5b505050506040513d601f19601f820116820180604052508101906110b99190611b24565b9050855b858701811015610c9857604051631b11481760e01b81526000906001600160a01b038b1690631b114817906110f8908c908690600401612033565b60206040518083038186803b15801561111057600080fd5b505afa158015611124573d6000803e3d6000fd5b505050506040513d601f19601f820116820180604052508101906111489190611e40565b9050611152611993565b60405163d311636b60e01b81526001600160a01b0385169063d311636b9061117e908590600401612140565b60006040518083038186803b15801561119657600080fd5b505afa1580156111aa573d6000803e3d6000fd5b505050506040513d6000823e601f3d908101601f191682016040526111d29190810190611d30565b9050808787815181106111e157fe5b60209081029190910101525050600193840193016110bd565b6060600080866001600160a01b0316633c72814d876040518263ffffffff1660e01b815260040161122b919061210f565b60206040518083038186803b15801561124357600080fd5b505afa158015611257573d6000803e3d6000fd5b505050506040513d601f19601f8201168201806040525081019061127b9190611e40565b9050600181038511610c9b578084860111611296578361129a565b8481035b9350836001600160401b03811180156112b257600080fd5b506040519080825280602002602001820160405280156112ec57816020015b6112d9611993565b8152602001906001900390816112d15790505b5092506000876001600160a01b031663d4d728da6040518163ffffffff1660e01b815260040160206040518083038186803b15801561132a57600080fd5b505afa15801561133e573d6000803e3d6000fd5b505050506040513d601f19601f820116820180604052508101906113629190611b24565b9050855b858701811015610c985760405163952c70fb60e01b81526000906001600160a01b038b169063952c70fb906113a1908c908690600401612124565b60206040518083038186803b1580156113b957600080fd5b505afa1580156113cd573d6000803e3d6000fd5b505050506040513d601f19601f820116820180604052508101906113f19190611e40565b90506113fb611993565b60405163d311636b60e01b81526001600160a01b0385169063d311636b90611427908590600401612140565b60006040518083038186803b15801561143f57600080fd5b505afa158015611453573d6000803e3d6000fd5b505050506040513d6000823e601f3d908101601f1916820160405261147b9190810190611d30565b90508087878151811061148a57fe5b6020908102919091010152505060019384019301611366565b606080606080600088519050806001600160401b03811180156114c557600080fd5b506040519080825280602002602001820160405280156114ef578160200160208202803683370190505b509450806001600160401b038111801561150857600080fd5b50604051908082528060200260200182016040528015611532578160200160208202803683370190505b508751909450806001600160401b038111801561154e57600080fd5b50604051908082528060200260200182016040528015611578578160200160208202803683370190505b509350806001600160401b038111801561159157600080fd5b506040519080825280602002602001820160405280156115bb578160200160208202803683370190505b50925060005b828110156117a05760008b82815181106115d757fe5b6020026020010151905060008e6001600160a01b031663e6a43905838e6040518363ffffffff1660e01b8152600401611611929190611ff8565b60206040518083038186803b15801561162957600080fd5b505afa15801561163d573d6000803e3d6000fd5b505050506040513d601f19601f820116820180604052508101906116619190611b24565b90506001600160a01b038116611678575050611798565b806001600160a01b03166384cc315b8f6040518263ffffffff1660e01b81526004016116a49190611fe4565b60206040518083038186803b1580156116bc57600080fd5b505afa1580156116d0573d6000803e3d6000fd5b505050506040513d601f19601f820116820180604052508101906116f49190611e40565b89848151811061170057fe5b602002602001018181525050806001600160a01b031663392da1b06040518163ffffffff1660e01b815260040160206040518083038186803b15801561174557600080fd5b505afa158015611759573d6000803e3d6000fd5b505050506040513d601f19601f8201168201806040525081019061177d9190611e40565b88848151811061178957fe5b60200260200101818152505050505b6001016115c1565b5060005b818110156119835760008982815181106117ba57fe5b6020026020010151905060008e6001600160a01b031663e6a43905838c6040518363ffffffff1660e01b81526004016117f4929190611ff8565b60206040518083038186803b15801561180c57600080fd5b505afa158015611820573d6000803e3d6000fd5b505050506040513d601f19601f820116820180604052508101906118449190611b24565b90506001600160a01b03811661185b57505061197b565b806001600160a01b03166384cc315b8f6040518263ffffffff1660e01b81526004016118879190611fe4565b60206040518083038186803b15801561189f57600080fd5b505afa1580156118b3573d6000803e3d6000fd5b505050506040513d601f19601f820116820180604052508101906118d79190611e40565b8784815181106118e357fe5b602002602001018181525050806001600160a01b031663392da1b06040518163ffffffff1660e01b815260040160206040518083038186803b15801561192857600080fd5b505afa15801561193c573d6000803e3d6000fd5b505050506040513d601f19601f820116820180604052508101906119609190611e40565b86848151811061196c57fe5b60200260200101818152505050505b6001016117a4565b5050509650965096509692505050565b604051806101a001604052806000815260200160006001600160a01b0316815260200160006001600160a01b0316815260200160001515815260200160008152602001600081526020016000815260200160008152602001600060038111156119f857fe5b8152602001606081526020016000815260200160008152602001600081525090565b8051611a25816121ce565b92915050565b600082601f830112611a3b578081fd5b8135611a4e611a498261216f565b612149565b818152915060208083019084810181840286018201871015611a6f57600080fd5b60005b84811015611a97578135611a85816121ce565b84529282019290820190600101611a72565b505050505092915050565b80518015158114611a2557600080fd5b8051611a25816121e6565b600082601f830112611acd578081fd5b81516001600160401b03811115611ae2578182fd5b611af5601f8201601f1916602001612149565b9150808252836020828501011115611b0c57600080fd5b611b1d81602084016020860161219e565b5092915050565b600060208284031215611b35578081fd5b8151611b40816121ce565b9392505050565b60008060008060008060c08789031215611b5f578182fd5b8635611b6a816121ce565b95506020870135611b7a816121ce565b945060408701356001600160401b0380821115611b95578384fd5b611ba18a838b01611a2b565b955060608901359150611bb3826121ce565b90935060808801359080821115611bc8578384fd5b50611bd589828a01611a2b565b92505060a0870135611be6816121ce565b809150509295509295509295565b60006020808385031215611c06578182fd5b82516001600160401b03811115611c1b578283fd5b8301601f81018513611c2b578283fd5b8051611c39611a498261216f565b8181528381019083850185840285018601891015611c55578687fd5b8694505b83851015611c77578051835260019490940193918501918501611c59565b50979650505050505050565b60008060008060808587031215611c98578384fd5b8435611ca3816121ce565b93506020850135611cb3816121ce565b93969395505050506040820135916060013590565b60008060008060808587031215611cdd578384fd5b8435611ce8816121ce565b93506020850135611cb3816121e6565b60008060408385031215611d0a578182fd5b8235611d15816121ce565b91506020830135611d25816121ce565b809150509250929050565b600060208284031215611d41578081fd5b81516001600160401b0380821115611d57578283fd5b81840191506101a0808387031215611d6d578384fd5b611d7681612149565b905082518152611d898660208501611a1a565b6020820152611d9b8660408501611a1a565b6040820152611dad8660608501611aa2565b60608201526080830151608082015260a083015160a082015260c083015160c082015260e083015160e0820152610100611de987828601611ab2565b908201526101208381015183811115611e00578586fd5b611e0c88828701611abd565b9183019190915250610140838101519082015261016080840151908201526101809283015192810192909252509392505050565b600060208284031215611e51578081fd5b5051919050565b6001600160a01b03169052565b6000815180845260208085018081965082840281019150828601855b85811015611f5d57828403895281516101a08151865286820151611ea788880182611e58565b50604080830151611eba82890182611e58565b5050606080830151611ece82890182611fa4565b50506080828101519087015260a0808301519087015260c0808301519087015260e0808301519087015261010080830151611f0b82890182611faa565b5050610120808301518282890152611f2583890182611fb8565b61014085810151908a015261016080860151908a01526101809485015194909801939093525050509784019790840190600101611e81565b5091979650505050505050565b6000815180845260208085019450808401835b83811015611f9957815187529582019590820190600101611f7d565b509495945050505050565b15159052565b60048110611fb457fe5b9052565b60008151808452611fd081602086016020860161219e565b601f01601f19169290920160200192915050565b6001600160a01b0391909116815260200190565b6001600160a01b0392831681529116602082015260400190565b6001600160a01b039390931683526020830191909152604082015260600190565b6001600160a01b03929092168252602082015260400190565b600060208252611b406020830184611e65565b6000604082526120726040830185611e65565b90508260208301529392505050565b6000608082526120946080830187611f6a565b82810360208401526120a68187611f6a565b905082810360408401526120ba8186611f6a565b905082810360608401526120ce8185611f6a565b979650505050505050565b6000606082526120ec6060830186611f6a565b82810360208401526120fe8186611f6a565b915050826040830152949350505050565b6020810161211c8361218e565b825292915050565b604081016121318461218e565b82528260208301529392505050565b90815260200190565b6040518181016001600160401b038111828210171561216757600080fd5b604052919050565b60006001600160401b03821115612184578081fd5b5060209081020190565b806004811061219957fe5b919050565b60005b838110156121b95781810151838201526020016121a1565b838111156121c8576000848401525b50505050565b6001600160a01b03811681146121e357600080fd5b50565b600481106121e357600080fdfea2646970667358221220f415d02f4794b5041b8a96cd3d95d85c34e23f70890bff729e7ebaf3c8b85a8a64736f6c634300060c0033",
  "immutableReferences": {},
  "source": "// SPDX-License-Identifier: MIT\npragma solidity ^0.6.0;\npragma experimental ABIEncoderV2;\n\nimport \"./common/BasicStruct.sol\";\n\ninterface IBoboPair {\n    function getUserDealedOrderNumber(address _userAddr) view external returns(uint256);\n    function userDealedOrdersMap(address _userAddr, uint256 _index) view external returns(uint256);\n    function userOrdersMap(address _userAddr, uint256 _index) view external returns(uint256);\n    function orderNFT() view external returns(address);\n    function getUserOrderNumber(address _userAddr) view external returns(uint256);\n    function getOrderNumber(OrderStatus _orderStatus) view external returns(uint256);\n    function sealedOrdersMap(OrderStatus _orderStatus, uint256 _index) view external returns(uint256);\n    function getCurrentPrice(address _boboRouter) view external returns(uint256);\n    function volumnOf24Hours() view external returns(uint256);\n}\n\ninterface IBoboTradeMining {\n    function nftToken() view external returns(address);\n    function getUserNFTNumber(address _user) view external returns(uint256);\n    function getUserNFTIds(address _user, uint256 _fromIndex, uint256 _toIndex) view external returns(uint256[] memory nftIds);\n}\n\ninterface IBoboFactory {\n    function getPair(address tokenA, address tokenB) view external returns(address);\n}\n\n\ncontract BoboPairHelper {\n    function getDepositableOrders(IBoboPair _boboPair, address _userAddr, uint256 _startTime, uint256 _endTime) \n        view public returns(uint256[] memory orderIds, uint256[] memory weights, uint256 count) {\n        \n        IOrderNFT orderNFT = IOrderNFT(_boboPair.orderNFT());\n        uint256 orderNumber = _boboPair.getUserDealedOrderNumber(_userAddr);\n        orderIds = new uint256[](orderNumber > 100 ? 100 : orderNumber);\n        weights = new uint256[](orderNumber > 100 ? 100 : orderNumber);\n        for (uint256 i; i < orderNumber; i++) {\n            uint256 orderId = _boboPair.userDealedOrdersMap(_userAddr, i);\n            NFTInfo memory nftInfo = orderNFT.getOrderInfo(orderId);\n            address ownerAddr = orderNFT.ownerOf(nftInfo.id);\n            if (ownerAddr == _userAddr && nftInfo.dealedTime >= _startTime && nftInfo.dealedTime < _endTime) {\n                uint256 weight = orderNFT.getWeight(nftInfo.id);\n                orderIds[count] = nftInfo.id;\n                weights[count] = weight;\n                count++;\n            }\n        }\n    }\n\n    function getDepositableOrders_old(IBoboPair _boboPair, address _userAddr, uint256 _startTime, uint256 _endTime) \n        view public returns(uint256[] memory orderIds, uint256[] memory weights, uint256 count) {\n        \n        IOrderNFT orderNFT = IOrderNFT(_boboPair.orderNFT());\n        uint256 orderNumber = _boboPair.getUserOrderNumber(_userAddr);\n        orderIds = new uint256[](orderNumber > 100 ? 100 : orderNumber);\n        weights = new uint256[](orderNumber > 100 ? 100 : orderNumber);\n        for (uint256 i; i < orderNumber; i++) {\n            uint256 orderId = _boboPair.userOrdersMap(_userAddr, i);\n            NFTInfo memory nftInfo = orderNFT.getOrderInfo(orderId);\n            address ownerAddr = orderNFT.ownerOf(nftInfo.id);   // ownerowner\n            if (nftInfo.status == OrderStatus.AMMDeal && ownerAddr == _userAddr && nftInfo.dealedTime >= _startTime && nftInfo.dealedTime < _endTime) {\n                uint256 weight = orderNFT.getWeight(nftInfo.id);\n                orderIds[count] = nftInfo.id;\n                weights[count] = weight;\n                count++;\n            }\n        }\n    }\n\n    function getAllUnhangingOrders(IBoboPair _boboPair, address _userAddr, uint256 _fromIndex, uint256 _pageSize) \n        view public returns(NFTInfo[] memory nftInfos, uint256 count) {\n        uint256 orderNumber = _boboPair.getUserOrderNumber(_userAddr);\n        if (_fromIndex <= orderNumber - 1) {\n            _pageSize = (_fromIndex + _pageSize) > orderNumber ? (orderNumber - _fromIndex) : _pageSize;\n            nftInfos = new NFTInfo[](_pageSize);\n            IOrderNFT orderNFT = IOrderNFT(_boboPair.orderNFT());\n            for (uint256 i = _fromIndex; i < _fromIndex + _pageSize; i++) {\n                uint256 orderId = _boboPair.userOrdersMap(_userAddr, i);\n                NFTInfo memory nftInfo = orderNFT.getOrderInfo(orderId);\n                nftInfos[count] = nftInfo;\n                count++;\n            } \n        }\n    }\n\n    function getOneStatusOrders(IBoboPair _boboPair, OrderStatus _orderStatus, uint256 _fromIndex, uint256 _pageSize) \n        view public returns(NFTInfo[] memory nftInfos, uint256 count) {\n        uint256 orderNumber = _boboPair.getOrderNumber(_orderStatus);\n        if (_fromIndex <= orderNumber - 1) {\n            _pageSize = (_fromIndex + _pageSize) > orderNumber ? (orderNumber - _fromIndex) : _pageSize;\n            nftInfos = new NFTInfo[](_pageSize);\n            IOrderNFT orderNFT = IOrderNFT(_boboPair.orderNFT());\n            for (uint256 i = _fromIndex; i < _fromIndex + _pageSize; i++) {\n                uint256 orderId = _boboPair.sealedOrdersMap(_orderStatus, i);\n                NFTInfo memory nftInfo = orderNFT.getOrderInfo(orderId);\n                nftInfos[count] = nftInfo;\n                count++;\n            } \n        }\n    }\n\n    function getAllDealedOrders(IBoboPair _boboPair, address _userAddr, uint256 _fromIndex, uint256 _pageSize) \n        view public returns(NFTInfo[] memory nftInfos, uint256 count) {\n        uint256 orderNumber = _boboPair.getUserDealedOrderNumber(_userAddr);\n\n        if (_fromIndex <= orderNumber - 1) {\n            _pageSize = (_fromIndex + _pageSize) > orderNumber ? (orderNumber - _fromIndex) : _pageSize;\n            nftInfos = new NFTInfo[](_pageSize);\n            IOrderNFT orderNFT = IOrderNFT(_boboPair.orderNFT());\n            for (uint256 i = _fromIndex; i < _fromIndex + _pageSize; i++) {\n                uint256 orderId = _boboPair.userDealedOrdersMap(_userAddr, i);\n                NFTInfo memory nftInfo = orderNFT.getOrderInfo(orderId);\n                nftInfos[count] = nftInfo;\n                count++;\n            } \n        }\n    }\n\n    function getAllDepositedOrders(IBoboTradeMining _boboTradeMining, address _usderAddr) view public returns(NFTInfo[] memory nftInfos) {\n        uint256 orderLength = _boboTradeMining.getUserNFTNumber(_usderAddr);\n        uint256[] memory orderIds = _boboTradeMining.getUserNFTIds(_usderAddr, 0, orderLength);\n        nftInfos = new NFTInfo[](orderLength);\n        IOrderNFT orderNFT = IOrderNFT(_boboTradeMining.nftToken());\n        for (uint256 i = 0; i < orderLength; i++) {\n            uint256 orderId = orderIds[i];\n            NFTInfo memory nftInfo = orderNFT.getOrderInfo(orderId);\n            nftInfos[i] = nftInfo;\n        } \n    }\n\n    function getPairInfo(address boboFactory, address boboRouter, address[] memory quoteTokenOfUsdt, address usdtAddr, address[] memory quoteTokenOfUsdc, address usdcAddr) \n        view public returns(uint256[] memory pricesOfUsdt, uint256[] memory volumnsOfUsdt, uint256[] memory pricesOfUsdc, uint256[] memory volumnsOfUsdc) {\n        \n        uint256 usdtTokenLength = quoteTokenOfUsdt.length;\n        pricesOfUsdt = new uint256[](usdtTokenLength);\n        volumnsOfUsdt = new uint256[](usdtTokenLength);\n\n        uint256 usdcTokenLength = quoteTokenOfUsdc.length;\n        pricesOfUsdc = new uint256[](usdcTokenLength);\n        volumnsOfUsdc = new uint256[](usdcTokenLength);\n\n        for (uint256 i = 0; i < usdtTokenLength; i++) {\n            address quoteTokenAddr = quoteTokenOfUsdt[i];\n            address pairAddr = IBoboFactory(boboFactory).getPair(quoteTokenAddr, usdtAddr);\n            if (pairAddr == address(0)) continue;\n            pricesOfUsdt[i] = IBoboPair(pairAddr).getCurrentPrice(boboRouter);\n            volumnsOfUsdt[i] = IBoboPair(pairAddr).volumnOf24Hours();\n        }\n\n        for (uint256 i = 0; i < usdcTokenLength; i++) {\n            address quoteTokenAddr = quoteTokenOfUsdc[i];\n            address pairAddr = IBoboFactory(boboFactory).getPair(quoteTokenAddr, usdcAddr);\n            if (pairAddr == address(0)) continue;\n            pricesOfUsdc[i] = IBoboPair(pairAddr).getCurrentPrice(boboRouter);\n            volumnsOfUsdc[i] = IBoboPair(pairAddr).volumnOf24Hours();\n        }\n    }\n}",
  "sourcePath": "/Users/mryu/blockchain/bobo-metaverse/boboswap-contract/contracts/BoboPairHelper.sol",
  "compiler": {
    "name": "solc",
    "version": "0.6.12+commit.27d51765.Emscripten.clang"
  },
  "schemaVersion": "3.4.3",
  "updatedAt": "2021-09-18T04:40:39.845Z",
  "networkType": "ethereum",
  "devdoc": {
    "kind": "dev",
    "methods": {},
    "version": 1
  },
  "userdoc": {
    "kind": "user",
    "methods": {},
    "version": 1
  }
}