{
  "contractName": "BoboFactory",
  "abi": [
    {
      "inputs": [
        {
          "internalType": "address",
          "name": "_orderNFT",
          "type": "address"
        },
        {
          "internalType": "address",
          "name": "_boboFarmer",
          "type": "address"
        },
        {
          "internalType": "address",
          "name": "_exManager",
          "type": "address"
        }
      ],
      "stateMutability": "nonpayable",
      "type": "constructor"
    },
    {
      "anonymous": false,
      "inputs": [
        {
          "indexed": true,
          "internalType": "address",
          "name": "previousOwner",
          "type": "address"
        },
        {
          "indexed": true,
          "internalType": "address",
          "name": "newOwner",
          "type": "address"
        }
      ],
      "name": "OwnershipTransferred",
      "type": "event"
    },
    {
      "anonymous": false,
      "inputs": [
        {
          "indexed": true,
          "internalType": "address",
          "name": "quoteToken",
          "type": "address"
        },
        {
          "indexed": true,
          "internalType": "address",
          "name": "baseToken",
          "type": "address"
        },
        {
          "indexed": false,
          "internalType": "address",
          "name": "pairAddr",
          "type": "address"
        }
      ],
      "name": "PairCreated",
      "type": "event"
    },
    {
      "inputs": [],
      "name": "USDC",
      "outputs": [
        {
          "internalType": "address",
          "name": "",
          "type": "address"
        }
      ],
      "stateMutability": "view",
      "type": "function",
      "constant": true
    },
    {
      "inputs": [],
      "name": "USDT",
      "outputs": [
        {
          "internalType": "address",
          "name": "",
          "type": "address"
        }
      ],
      "stateMutability": "view",
      "type": "function",
      "constant": true
    },
    {
      "inputs": [],
      "name": "WMATIC",
      "outputs": [
        {
          "internalType": "address",
          "name": "",
          "type": "address"
        }
      ],
      "stateMutability": "view",
      "type": "function",
      "constant": true
    },
    {
      "inputs": [
        {
          "internalType": "uint256",
          "name": "",
          "type": "uint256"
        }
      ],
      "name": "allPairs",
      "outputs": [
        {
          "internalType": "address",
          "name": "",
          "type": "address"
        }
      ],
      "stateMutability": "view",
      "type": "function",
      "constant": true
    },
    {
      "inputs": [
        {
          "internalType": "address",
          "name": "",
          "type": "address"
        },
        {
          "internalType": "uint256",
          "name": "",
          "type": "uint256"
        }
      ],
      "name": "baseTokenPairs",
      "outputs": [
        {
          "internalType": "address",
          "name": "",
          "type": "address"
        }
      ],
      "stateMutability": "view",
      "type": "function",
      "constant": true
    },
    {
      "inputs": [],
      "name": "boboFarmer",
      "outputs": [
        {
          "internalType": "contract IBoboFarmer",
          "name": "",
          "type": "address"
        }
      ],
      "stateMutability": "view",
      "type": "function",
      "constant": true
    },
    {
      "inputs": [],
      "name": "exManager",
      "outputs": [
        {
          "internalType": "address",
          "name": "",
          "type": "address"
        }
      ],
      "stateMutability": "view",
      "type": "function",
      "constant": true
    },
    {
      "inputs": [
        {
          "internalType": "address",
          "name": "",
          "type": "address"
        },
        {
          "internalType": "address",
          "name": "",
          "type": "address"
        }
      ],
      "name": "getPair",
      "outputs": [
        {
          "internalType": "address",
          "name": "",
          "type": "address"
        }
      ],
      "stateMutability": "view",
      "type": "function",
      "constant": true
    },
    {
      "inputs": [],
      "name": "orderNFT",
      "outputs": [
        {
          "internalType": "address",
          "name": "",
          "type": "address"
        }
      ],
      "stateMutability": "view",
      "type": "function",
      "constant": true
    },
    {
      "inputs": [],
      "name": "owner",
      "outputs": [
        {
          "internalType": "address",
          "name": "",
          "type": "address"
        }
      ],
      "stateMutability": "view",
      "type": "function",
      "constant": true
    },
    {
      "inputs": [],
      "name": "renounceOwnership",
      "outputs": [],
      "stateMutability": "nonpayable",
      "type": "function"
    },
    {
      "inputs": [
        {
          "internalType": "address",
          "name": "newOwner",
          "type": "address"
        }
      ],
      "name": "transferOwnership",
      "outputs": [],
      "stateMutability": "nonpayable",
      "type": "function"
    },
    {
      "inputs": [
        {
          "internalType": "address",
          "name": "_boboFarmer",
          "type": "address"
        },
        {
          "internalType": "address",
          "name": "_exManager",
          "type": "address"
        }
      ],
      "name": "setAddresses",
      "outputs": [],
      "stateMutability": "nonpayable",
      "type": "function"
    },
    {
      "inputs": [
        {
          "internalType": "address",
          "name": "_quoteToken",
          "type": "address"
        },
        {
          "internalType": "address",
          "name": "_baseToken",
          "type": "address"
        }
      ],
      "name": "createPair",
      "outputs": [
        {
          "internalType": "address",
          "name": "pairAddr",
          "type": "address"
        }
      ],
      "stateMutability": "nonpayable",
      "type": "function"
    },
    {
      "inputs": [],
      "name": "pairNumber",
      "outputs": [
        {
          "internalType": "uint256",
          "name": "",
          "type": "uint256"
        }
      ],
      "stateMutability": "view",
      "type": "function",
      "constant": true
    },
    {
      "inputs": [
        {
          "internalType": "address",
          "name": "_quoteToken",
          "type": "address"
        },
        {
          "internalType": "address",
          "name": "_baseToken",
          "type": "address"
        },
        {
          "internalType": "address",
          "name": "_auth",
          "type": "address"
        }
      ],
      "name": "addPairAuth",
      "outputs": [],
      "stateMutability": "nonpayable",
      "type": "function"
    },
    {
      "inputs": [
        {
          "internalType": "address",
          "name": "_baseToken",
          "type": "address"
        }
      ],
      "name": "getBaseTokenPairLength",
      "outputs": [
        {
          "internalType": "uint256",
          "name": "",
          "type": "uint256"
        }
      ],
      "stateMutability": "view",
      "type": "function",
      "constant": true
    },
    {
      "inputs": [
        {
          "internalType": "address",
          "name": "_baseToken",
          "type": "address"
        },
        {
          "internalType": "address",
          "name": "_userAddr",
          "type": "address"
        }
      ],
      "name": "getTotalHangingTokenAmount",
      "outputs": [
        {
          "internalType": "uint256",
          "name": "",
          "type": "uint256"
        }
      ],
      "stateMutability": "view",
      "type": "function",
      "constant": true
    },
    {
      "inputs": [
        {
          "internalType": "address",
          "name": "_baseToken",
          "type": "address"
        },
        {
          "internalType": "address",
          "name": "_userAddr",
          "type": "address"
        }
      ],
      "name": "getClaimBaseTokenAmount",
      "outputs": [
        {
          "internalType": "uint256",
          "name": "",
          "type": "uint256"
        }
      ],
      "stateMutability": "view",
      "type": "function",
      "constant": true
    },
    {
      "inputs": [
        {
          "internalType": "address",
          "name": "_baseToken",
          "type": "address"
        }
      ],
      "name": "claimBaseToken",
      "outputs": [],
      "stateMutability": "nonpayable",
      "type": "function"
    },
    {
      "inputs": [
        {
          "internalType": "address",
          "name": "_baseToken",
          "type": "address"
        }
      ],
      "name": "claimBoboToken",
      "outputs": [],
      "stateMutability": "nonpayable",
      "type": "function"
    }
  ],
  "bytecode": "0x608060405234801561001057600080fd5b5060405161592c38038061592c8339818101604052606081101561003357600080fd5b5080516020820151604090920151909190600061004e6100da565b600080546001600160a01b0319166001600160a01b0383169081178255604051929350917f8be0079c531659141344cd1fd0a4f28419497f9722a3daafe3b4186f6b6457e0908290a350600580546001600160a01b039485166001600160a01b0319918216179091556004805493851693821693909317909255600680549190931691161790556100de565b3390565b61583f806100ed6000396000f3fe60806040523480156200001157600080fd5b5060043610620001545760003560e01c80639d919ad911620000c9578063cd0e17de1162000087578063cd0e17de1462000336578063d23adceb1462000367578063d4d728da1462000398578063e6a4390514620003a2578063f08f1ba914620003d3578063f2fde38b14620003dd5762000154565b80639d919ad9146200027a578063aceda55914620002a9578063b8005df314620002d2578063c54e44eb14620002fb578063c9c6539614620003055762000154565b806375b3a1f9116200011757806375b3a1f914620001f057806389a30271146200022b5780638da5cb5b146200023557806390107afe146200023f57806397d8739314620002705762000154565b80631960e23214620001595780631e3dd18b146200017f5780634d95cad9146200019f57806356fb75ea14620001a9578063715018a614620001e6575b600080fd5b6200016362000406565b604080516001600160a01b039092168252519081900360200190f35b62000163600480360360208110156200019757600080fd5b503562000415565b620001636200043d565b620001e460048036036060811015620001c157600080fd5b506001600160a01b03813581169160208101358216916040909101351662000455565b005b620001e4620005b0565b62000219600480360360208110156200020857600080fd5b50356001600160a01b031662000656565b60408051918252519081900360200190f35b6200016362000671565b6200016362000689565b620001e4600480360360408110156200025757600080fd5b506001600160a01b038135811691602001351662000698565b6200016362000750565b62000163600480360360408110156200029257600080fd5b506001600160a01b0381351690602001356200075f565b620001e460048036036020811015620002c157600080fd5b50356001600160a01b031662000795565b620001e460048036036020811015620002ea57600080fd5b50356001600160a01b0316620008aa565b6200016362000b2f565b62000163600480360360408110156200031d57600080fd5b506001600160a01b038135811691602001351662000b47565b62000219600480360360408110156200034e57600080fd5b506001600160a01b038135811691602001351662000ff1565b62000219600480360360408110156200037f57600080fd5b506001600160a01b0381358116916020013516620010a1565b6200016362001201565b6200016360048036036040811015620003ba57600080fd5b506001600160a01b038135811691602001351662001210565b6200021962001236565b620001e460048036036020811015620003f557600080fd5b50356001600160a01b03166200123c565b6004546001600160a01b031681565b600181815481106200042357fe5b6000918252602090912001546001600160a01b0316905081565b730d500b1d8e8ef31e21c99d1db9a6444d3adf127081565b6200045f6200133a565b6000546001600160a01b03908116911614620004b1576040805162461bcd60e51b81526020600482018190526024820152600080516020620057ea833981519152604482015290519081900360640190fd5b6001600160a01b038084166000908152600260209081526040808320868516845290915290205416806200052c576040805162461bcd60e51b815260206004820152601c60248201527f426f626f466163746f72793a20504149525f4e4f545f45584953545300000000604482015290519081900360640190fd5b806001600160a01b031663cf1c316a836040518263ffffffff1660e01b815260040180826001600160a01b03168152602001915050602060405180830381600087803b1580156200057c57600080fd5b505af115801562000591573d6000803e3d6000fd5b505050506040513d6020811015620005a857600080fd5b505050505050565b620005ba6200133a565b6000546001600160a01b039081169116146200060c576040805162461bcd60e51b81526020600482018190526024820152600080516020620057ea833981519152604482015290519081900360640190fd5b600080546040516001600160a01b03909116907f8be0079c531659141344cd1fd0a4f28419497f9722a3daafe3b4186f6b6457e0908390a3600080546001600160a01b0319169055565b6001600160a01b031660009081526003602052604090205490565b732791bca1f2de4661ed88a30c99a7a9449aa8417481565b6000546001600160a01b031690565b620006a26200133a565b6000546001600160a01b03908116911614620006f4576040805162461bcd60e51b81526020600482018190526024820152600080516020620057ea833981519152604482015290519081900360640190fd5b6001600160a01b038216156200072057600480546001600160a01b0319166001600160a01b0384161790555b6001600160a01b038116156200074c57600680546001600160a01b0319166001600160a01b0383161790555b5050565b6006546001600160a01b031681565b600360205281600052604060002081815481106200077957fe5b6000918252602090912001546001600160a01b03169150829050565b6000600460009054906101000a90046001600160a01b03166001600160a01b031663e6a08025836040518263ffffffff1660e01b815260040180826001600160a01b0316815260200191505060206040518083038186803b158015620007fa57600080fd5b505afa1580156200080f573d6000803e3d6000fd5b505050506040513d60208110156200082657600080fd5b50511115620008a7576004805460408051636ce5768960e11b81526001600160a01b03858116948201949094523360248201526000604482018190529151939092169263d9caed1292606480820193929182900301818387803b1580156200088d57600080fd5b505af1158015620008a2573d6000803e3d6000fd5b505050505b50565b6000620008b8823362000ff1565b90506000600460009054906101000a90046001600160a01b03166001600160a01b031663e6a08025846040518263ffffffff1660e01b815260040180826001600160a01b0316815260200191505060206040518083038186803b1580156200091f57600080fd5b505afa15801562000934573d6000803e3d6000fd5b505050506040513d60208110156200094b57600080fd5b505111156200074c576000826001600160a01b03166370a08231306040518263ffffffff1660e01b815260040180826001600160a01b0316815260200191505060206040518083038186803b158015620009a457600080fd5b505afa158015620009b9573d6000803e3d6000fd5b505050506040513d6020811015620009d057600080fd5b50516004805460408051636ce5768960e11b81526001600160a01b038881169482019490945233602482015260448101879052905193945091169163d9caed129160648082019260009290919082900301818387803b15801562000a3357600080fd5b505af115801562000a48573d6000803e3d6000fd5b505050506000836001600160a01b03166370a08231306040518263ffffffff1660e01b815260040180826001600160a01b0316815260200191505060206040518083038186803b15801562000a9c57600080fd5b505afa15801562000ab1573d6000803e3d6000fd5b505050506040513d602081101562000ac857600080fd5b505190506001600160a01b03841663a9059cbb3362000ae884866200133e565b6040518363ffffffff1660e01b815260040180836001600160a01b0316815260200182815260200192505050602060405180830381600087803b1580156200057c57600080fd5b73c2132d05d31c914a87c6611c10748aeb04b58e8f81565b600062000b536200133a565b6000546001600160a01b0390811691161462000ba5576040805162461bcd60e51b81526020600482018190526024820152600080516020620057ea833981519152604482015290519081900360640190fd5b816001600160a01b0316836001600160a01b0316141562000c0d576040805162461bcd60e51b815260206004820181905260248201527f426f626f466163746f72793a204944454e544943414c5f414444524553534553604482015290519081900360640190fd5b6001600160a01b03831662000c69576040805162461bcd60e51b815260206004820152601960248201527f426f626f466163746f72793a205a45524f5f4144445245535300000000000000604482015290519081900360640190fd5b6001600160a01b0383811660009081526002602090815260408083208685168452909152902054161562000ce4576040805162461bcd60e51b815260206004820152601860248201527f426f626f466163746f72793a20504149525f4558495354530000000000000000604482015290519081900360640190fd5b60606040518060200162000cf8906200147f565b6020820181038252601f19601f8201166040525090506000848460405160200180836001600160a01b031660601b8152601401826001600160a01b031660601b815260140192505050604051602081830303815290604052805190602001209050808251602084016000f56004805460055460408051630a2ca2bd60e11b81526001600160a01b038b8116958201959095528985166024820152336044820152928416606484015290831660848301525192955090851691631459457a9160a48082019260009290919082900301818387803b15801562000dd857600080fd5b505af115801562000ded573d6000803e3d6000fd5b5050604080516301fd3f7760e71b815230600482015290516001600160a01b038716935063fe9fbb8092506024808301926020929190829003018186803b15801562000e3857600080fd5b505afa15801562000e4d573d6000803e3d6000fd5b505050506040513d602081101562000e6457600080fd5b505162000ea35760405162461bcd60e51b815260040180806020018281038252602a815260200180620057c0602a913960400191505060405180910390fd5b60065460408051631d33a31960e31b81526001600160a01b03928316600482015290519185169163e99d18c89160248082019260009290919082900301818387803b15801562000ef257600080fd5b505af115801562000f07573d6000803e3d6000fd5b5050506001600160a01b0380871660008181526002602081815260408084208b87168086529083528185208054978c166001600160a01b03199889168117909155938352818520868652835281852080548816851790556001805480820182557fb10e2d527612073b26eecdfd717e6a320cf44b4afac2b0732d9fcbe2b7fa0cf60180548916861790558186526003845282862080549182018155865294839020909401805490961685179095558451918252935191945091927fa92a2b95c8d8436f6ac4c673c61487364f877efb9534d4296fad8ef904546c94928290030190a3505092915050565b600480546040805163d0f2ced160e01b81526001600160a01b0386811694820194909452848416602482015290516000938493169163d0f2ced1916044808301926020929190829003018186803b1580156200104c57600080fd5b505afa15801562001061573d6000803e3d6000fd5b505050506040513d60208110156200107857600080fd5b5051905060006200108a8585620010a1565b90506200109882826200133e565b95945050505050565b6001600160a01b0382166000908152600360209081526040808320805482518185028101850190935280835284936060939291908301828280156200111057602002820191906000526020600020905b81546001600160a01b03168152600190910190602001808311620010f1575b5050505050905060005b8151811015620011f7576000600260008484815181106200113757fe5b6020908102919091018101516001600160a01b03908116835282820193909352604091820160009081208b8516825290915281812054825163761a90a760e11b81528a8516600482015283519190941694509092849263ec35214e92602480840193829003018186803b158015620011ae57600080fd5b505afa158015620011c3573d6000803e3d6000fd5b505050506040513d6040811015620011da57600080fd5b50519050620011ea858262001389565b945050506001016200111a565b5090949350505050565b6005546001600160a01b031681565b60026020908152600092835260408084209091529082529020546001600160a01b031681565b60015490565b620012466200133a565b6000546001600160a01b0390811691161462001298576040805162461bcd60e51b81526020600482018190526024820152600080516020620057ea833981519152604482015290519081900360640190fd5b6001600160a01b038116620012df5760405162461bcd60e51b81526004018080602001828103825260268152602001806200579a6026913960400191505060405180910390fd5b600080546040516001600160a01b03808516939216917f8be0079c531659141344cd1fd0a4f28419497f9722a3daafe3b4186f6b6457e091a3600080546001600160a01b0319166001600160a01b0392909216919091179055565b3390565b60006200138283836040518060400160405280601e81526020017f536166654d6174683a207375627472616374696f6e206f766572666c6f770000815250620013e4565b9392505050565b60008282018381101562001382576040805162461bcd60e51b815260206004820152601b60248201527f536166654d6174683a206164646974696f6e206f766572666c6f770000000000604482015290519081900360640190fd5b60008184841115620014775760405162461bcd60e51b81526004018080602001828103825283818151815260200191508051906020019080838360005b838110156200143b57818101518382015260200162001421565b50505050905090810190601f168015620014695780820380516001836020036101000a031916815260200191505b509250505060405180910390fd5b505050900390565b61430c806200148e8339019056fe60806040523480156200001157600080fd5b5060006200001e6200009d565b600080546001600160a01b0319166001600160a01b0383169081178255604051929350917f8be0079c531659141344cd1fd0a4f28419497f9722a3daafe3b4186f6b6457e0908290a3506001600955600c80546001600160a01b031916339081179091556200008d90620000a1565b5042601181905560125562000244565b3390565b6000620000ad6200009d565b6000546001600160a01b03908116911614620000e65760405162461bcd60e51b8152600401620000dd90620001b2565b60405180910390fd5b6001600160a01b0382166200010f5760405162461bcd60e51b8152600401620000dd90620001e7565b620001276001836200012d60201b6200200f1760201c565b92915050565b600062000144836001600160a01b0384166200014b565b9392505050565b60006200015983836200019a565b620001915750815460018181018455600084815260208082209093018490558454848252828601909352604090209190915562000127565b50600062000127565b60009081526001919091016020526040902054151590565b6020808252818101527f4f776e61626c653a2063616c6c6572206973206e6f7420746865206f776e6572604082015260600190565b60208082526035908201527f4d6978696e417574686f72697a61626c653a205f616464417574686f72697a6560408201527f6420697320746865207a65726f20616464726573730000000000000000000000606082015260800190565b6140b880620002546000396000f3fe608060405234801561001057600080fd5b50600436106102955760003560e01c806382aa1c8811610167578063c55dae63116100ce578063dd4ee56511610087578063dd4ee56514610539578063e99d18c81461054c578063ec35214e1461055f578063f1f07cc914610580578063f2fde38b14610588578063fe9fbb801461059b57610295565b8063c55dae63146104dd578063c6388845146104e5578063c63cc564146104f8578063cd5a87781461050b578063cf1c316a1461051e578063d4d728da1461053157610295565b806397d873931161012057806397d87393146104895780639eedc49214610491578063aa6ca80814610499578063b02ed0ae146104af578063b35ac8b2146104c2578063c45a0155146104d557610295565b806382aa1c881461043857806384cc315b146104405780638862f285146104535780638a206117146104665780638da5cb5b1461046e578063952c70fb1461047657610295565b8063392da1b01161020b578063514fcac7116101c4578063514fcac7146103da57806359fc7223146103ed5780635f0a1feb1461040d5780636b6f132014610420578063715018a61461042857806378e979251461043057610295565b8063392da1b0146103735780633c72814d1461037b5780633f2b17f31461038e578063428011e4146103a15780634b92031d146103b45780634bba8050146103c757610295565b80631b1148171161025d5780631b11481714610315578063217a4b701461032857806327624b07146103305780632d6111311461033857806331a40b621461034b5780633397e5271461036b57610295565b80630ff4c9161461029a57806310ca5805146102c35780631459457a146102cb578063150b7a02146102e05780631960e23214610300575b600080fd5b6102ad6102a83660046137b1565b6105ae565b6040516102ba9190613f5e565b60405180910390f35b6102ad610656565b6102de6102d9366004613312565b61065e565b005b6102f36102ee366004613382565b610803565b6040516102ba9190613a3a565b610308610814565b6040516102ba919061384f565b6102ad610323366004613469565b610823565b610308610851565b6102ad610860565b6102ad6103463660046132f6565b610866565b61035e6103593660046132f6565b610881565b6040516102ba9190613a2f565b6102ad6108ef565b6102ad610900565b6102ad610389366004613667565b610906565b6102de61039c366004613424565b61093a565b6102de6103af36600461362d565b610c76565b6102ad6103c2366004613469565b61100d565b6102ad6103d53660046137b1565b611036565b61035e6103e83660046137b1565b6110b7565b6104006103fb36600461360e565b61138d565b6040516102ba9190613920565b61040061041b366004613494565b61157c565b6102ad61170d565b6102de611714565b6102ad611793565b6102ad611799565b6102ad61044e3660046132f6565b61179f565b6102ad610461366004613469565b611868565b6102ad611881565b610308611887565b6102ad610484366004613683565b611896565b6103086118af565b6102ad6118be565b6104a16118c4565b6040516102ba929190613887565b6102de6104bd366004613469565b6118db565b6102ad6104d03660046135d6565b611cc3565b610308611cdd565b610308611cec565b6102ad6104f33660046132f6565b611cfb565b6103086105063660046137b1565b611d16565b6102ad6105193660046132f6565b611d4d565b61035e61052c3660046132f6565b611d6e565b610308611dd6565b6102ad6105473660046137b1565b611de5565b6102de61055a3660046132f6565b611e03565b61057261056d3660046132f6565b611e4a565b6040516102ba929190613f9b565b6102ad611f46565b6102de6105963660046132f6565b611f4c565b61035e6105a93660046132f6565b612002565b6000816105bd57506000610651565b6105c5613086565b60035460405163d311636b60e01b81526001600160a01b039091169063d311636b906105f5908690600401613f5e565b60006040518083038186803b15801561060d57600080fd5b505afa158015610621573d6000803e3d6000fd5b505050506040513d6000823e601f3d908101601f1916820160405261064991908101906136a0565b608001519150505b919050565b633b9aca0081565b610666612024565b6000546001600160a01b0390811691161461069c5760405162461bcd60e51b815260040161069390613d42565b60405180910390fd5b600d80546001600160a01b038088166001600160a01b03199283161792839055600e80548883169316929092179091556040805163313ce56760e01b81529051929091169163313ce56791600480820192602092909190829003018186803b15801561070757600080fd5b505afa15801561071b573d6000803e3d6000fd5b505050506040513d601f19601f8201168201806040525081019061073f91906137e1565b60ff16600f55600e546040805163313ce56760e01b815290516001600160a01b039092169163313ce56791600480820192602092909190829003018186803b15801561078a57600080fd5b505afa15801561079e573d6000803e3d6000fd5b505050506040513d601f19601f820116820180604052508101906107c291906137e1565b60ff166010556107d183611d6e565b50600b80546001600160a01b039384166001600160a01b03199182161790915560038054929093169116179055505050565b630a85bd0160e11b5b949350505050565b600b546001600160a01b031681565b6005602052816000526040600020818154811061083c57fe5b90600052602060002001600091509150505481565b600d546001600160a01b031681565b600f5481565b6001600160a01b031660009081526005602052604090205490565b600061088b612024565b6000546001600160a01b039081169116146108b85760405162461bcd60e51b815260040161069390613d42565b6001600160a01b0382166108de5760405162461bcd60e51b815260040161069390613eba565b6108e9600183612028565b92915050565b60006108fb600161203d565b905090565b60135481565b60006008600083600381111561091857fe5b600381111561092357fe5b815260208101919091526040016000205492915050565b6002600954141561095d5760405162461bcd60e51b815260040161069390613e2e565b60026009556000808461098257600d54600e546001600160a01b039182169116610996565b600e54600d546001600160a01b0391821691165b600a54604051633ba7c4f760e11b81529294509092506001600160a01b03169063774f89ee906109ca90859060040161384f565b60206040518083038186803b1580156109e257600080fd5b505afa1580156109f6573d6000803e3d6000fd5b505050506040513d601f19601f82011682018060405250810190610a1a91906137c9565b841015610a395760405162461bcd60e51b815260040161069390613bcf565b600a54604051634bbc433d60e11b81526001600160a01b0390911690639778867a90610a6990899060040161384f565b60206040518083038186803b158015610a8157600080fd5b505afa158015610a95573d6000803e3d6000fd5b505050506040513d601f19601f82011682018060405250810190610ab991906135f2565b610ad55760405162461bcd60e51b815260040161069390613d77565b600a54604051633418ea4560e11b81526000916001600160a01b031690636831d48a90610b0a90339087908a90600401613863565b602060405180830381600087803b158015610b2457600080fd5b505af1158015610b38573d6000803e3d6000fd5b505050506040513d601f19601f82011682018060405250810190610b5c91906137c9565b90508015610bec57600a546040516323b872dd60e01b81526001600160a01b03808616926323b872dd92610b9892339216908690600401613863565b602060405180830381600087803b158015610bb257600080fd5b505af1158015610bc6573d6000803e3d6000fd5b505050506040513d601f19601f82011682018060405250810190610bea91906135f2565b505b610bf68582612048565b9450600086610c2657610c2186610c1b600f54600a0a8861208a90919063ffffffff16565b906120c4565b610c42565b610c4285610c1b600f54600a0a8961208a90919063ffffffff16565b90506000610c5288838989612106565b9050610c65898287878b8b3360006121ea565b505060016009555050505050505050565b60026009541415610c995760405162461bcd60e51b815260040161069390613e2e565b60026009556103e8811115610cc05760405162461bcd60e51b815260040161069390613c60565b60008415610cff57610cf8612710610c1b8461271003610cf288610c1b600f54600a0a8a61208a90919063ffffffff16565b9061208a565b9050610d2c565b610d29612710610c1b8461271003610cf2600f54600a0a610c1b8a8a61208a90919063ffffffff16565b90505b600085610d4b57600d54600e546001600160a01b039182169116610d5f565b600e54600d546001600160a01b0391821691165b50600a54604051633ba7c4f760e11b81529192506001600160a01b03169063774f89ee90610d9190849060040161384f565b60206040518083038186803b158015610da957600080fd5b505afa158015610dbd573d6000803e3d6000fd5b505050506040513d601f19601f82011682018060405250810190610de191906137c9565b841015610e005760405162461bcd60e51b815260040161069390613bcf565b610e0c86868685612106565b506040516323b872dd60e01b81526001600160a01b038216906323b872dd90610e3d90339030908990600401613863565b602060405180830381600087803b158015610e5757600080fd5b505af1158015610e6b573d6000803e3d6000fd5b505050506040513d601f19601f82011682018060405250810190610e8f91906135f2565b50600b5460405163e6a0802560e01b81526000916001600160a01b03169063e6a0802590610ec190859060040161384f565b60206040518083038186803b158015610ed957600080fd5b505afa158015610eed573d6000803e3d6000fd5b505050506040513d601f19601f82011682018060405250810190610f1191906137c9565b111561100057600b5460405163095ea7b360e01b81526001600160a01b038381169263095ea7b392610f4b92909116908890600401613907565b602060405180830381600087803b158015610f6557600080fd5b505af1158015610f79573d6000803e3d6000fd5b505050506040513d601f19601f82011682018060405250810190610f9d91906135f2565b50600b54604051638340f54960e01b81526001600160a01b0390911690638340f54990610fd290849033908990600401613863565b600060405180830381600087803b158015610fec57600080fd5b505af1158015610c65573d6000803e3d6000fd5b5050600160095550505050565b6001600160a01b038216600090815260066020526040812061102f9083612548565b9392505050565b6003546040516304bba80560e41b81526000916001600160a01b031690634bba805090611067908590600401613f5e565b60206040518083038186803b15801561107f57600080fd5b505afa158015611093573d6000803e3d6000fd5b505050506040513d601f19601f820116820180604052508101906108e991906137c9565b60006110c282612554565b506110cb613086565b60035460405163d311636b60e01b81526001600160a01b039091169063d311636b906110fb908690600401613f5e565b60006040518083038186803b15801561111357600080fd5b505afa158015611127573d6000803e3d6000fd5b505050506040513d6000823e601f3d908101601f1916820160405261114f91908101906136a0565b90506000816060015161116d57600d546001600160a01b031661117a565b600e546001600160a01b03165b600b5460405163e6a0802560e01b81529192506000916001600160a01b039091169063e6a08025906111b090859060040161384f565b60206040518083038186803b1580156111c857600080fd5b505afa1580156111dc573d6000803e3d6000fd5b505050506040513d601f19601f8201168201806040525081019061120091906137c9565b11156112fe57600b54602083015160a0840151604051636ce5768960e11b81526001600160a01b039093169263d9caed1292611240928692600401613863565b600060405180830381600087803b15801561125a57600080fd5b505af115801561126e573d6000803e3d6000fd5b50505050602082015160a083015160405163a9059cbb60e01b81526001600160a01b0384169263a9059cbb926112a692600401613907565b602060405180830381600087803b1580156112c057600080fd5b505af11580156112d4573d6000803e3d6000fd5b505050506040513d601f19601f820116820180604052508101906112f891906135f2565b50611386565b602082015160a083015160405163a9059cbb60e01b81526001600160a01b0384169263a9059cbb9261133292600401613907565b602060405180830381600087803b15801561134c57600080fd5b505af1158015611360573d6000803e3d6000fd5b505050506040513d601f19601f8201168201806040525081019061138491906135f2565b505b5050919050565b8215156000908152600760205260408120606091906113ab9061270b565b9050808311156113b9578092505b8284106113d85760405162461bcd60e51b815260040161069390613c1e565b83830367ffffffffffffffff811180156113f157600080fd5b5060405190808252806020026020018201604052801561142b57816020015b611418613086565b8152602001906001900390816114105790505b508515156000908152600760205260408120919350908190819061144f908261270f565b915091505b85831080156114605750815b156115715786831015611498578715156000908152600760205260409020611488908261270f565b6001909401939092509050611454565b6114a0613086565b60035460405163d311636b60e01b81526001600160a01b039091169063d311636b906114d0908590600401613f5e565b60006040518083038186803b1580156114e857600080fd5b505afa1580156114fc573d6000803e3d6000fd5b505050506040513d6000823e601f3d908101601f1916820160405261152491908101906136a0565b905080868986038151811061153557fe5b602090810291909101810191909152891515600090815260079091526040902061155f908361270f565b60019095019490935091506114549050565b505050509392505050565b6001600160a01b0383166000908152600660205260408120606091906115a19061203d565b9050808311156115af578092505b8284106115ce5760405162461bcd60e51b815260040161069390613c1e565b83830367ffffffffffffffff811180156115e757600080fd5b5060405190808252806020026020018201604052801561162157816020015b61160e613086565b8152602001906001900390816116065790505b509150835b83811015611704576001600160a01b03861660009081526006602052604081206116509083612548565b905061165a613086565b60035460405163d311636b60e01b81526001600160a01b039091169063d311636b9061168a908590600401613f5e565b60006040518083038186803b1580156116a257600080fd5b505afa1580156116b6573d6000803e3d6000fd5b505050506040513d6000823e601f3d908101601f191682016040526116de91908101906136a0565b90508085888503815181106116ef57fe5b60209081029190910101525050600101611626565b50509392505050565b6201518081565b61171c612024565b6000546001600160a01b039081169116146117495760405162461bcd60e51b815260040161069390613d42565b600080546040516001600160a01b03909116907f8be0079c531659141344cd1fd0a4f28419497f9722a3daafe3b4186f6b6457e0908390a3600080546001600160a01b0319169055565b60115481565b60105481565b60006117a961310d565b600e54600d5460405163026d09e360e31b81526001600160a01b03808716936313684f18936117e693918316921690633b9aca0090600401613863565b60006040518083038186803b1580156117fe57600080fd5b505afa158015611812573d6000803e3d6000fd5b505050506040513d6000823e601f3d908101601f1916820160405261183a91908101906134c8565b8051600f54919350915060009061185f908390610c1b90633b9aca0090600a0a61208a565b95945050505050565b6004602052816000526040600020818154811061083c57fe5b60125481565b6000546001600160a01b031690565b6008602052816000526040600020818154811061083c57fe5b600a546001600160a01b031681565b61271081565b600d54600e546001600160a01b0391821691169091565b600260095414156118fe5760405162461bcd60e51b815260040161069390613e2e565b6002600955600a54604051634bbc433d60e11b81526001600160a01b0390911690639778867a9061193390859060040161384f565b60206040518083038186803b15801561194b57600080fd5b505afa15801561195f573d6000803e3d6000fd5b505050506040513d601f19601f8201168201806040525081019061198391906135f2565b61199f5760405162461bcd60e51b815260040161069390613d77565b6119a7613086565b60035460405163d311636b60e01b81526001600160a01b039091169063d311636b906119d7908590600401613f5e565b60006040518083038186803b1580156119ef57600080fd5b505afa158015611a03573d6000803e3d6000fd5b505050506040513d6000823e601f3d908101601f19168201604052611a2b91908101906136a0565b90506000808260600151611a5157600d54600e546001600160a01b039182169116611a65565b600e54600d546001600160a01b0391821691165b600a54602086015160a0870151604051633418ea4560e11b81529496509294506000936001600160a01b0390921692636831d48a92611aa992918891600401613863565b602060405180830381600087803b158015611ac357600080fd5b505af1158015611ad7573d6000803e3d6000fd5b505050506040513d601f19601f82011682018060405250810190611afb91906137c9565b90506000611b16828660a0015161204890919063ffffffff16565b600b5460405163e6a0802560e01b81529192506000916001600160a01b039091169063e6a0802590611b4c90889060040161384f565b60206040518083038186803b158015611b6457600080fd5b505afa158015611b78573d6000803e3d6000fd5b505050506040513d601f19601f82011682018060405250810190611b9c91906137c9565b1115611c0d57600b546020860151604051636ce5768960e11b81526001600160a01b039092169163d9caed1291611bda918891908690600401613863565b600060405180830381600087803b158015611bf457600080fd5b505af1158015611c08573d6000803e3d6000fd5b505050505b8115611c9b57600a546040516323b872dd60e01b81526001600160a01b03808716926323b872dd92611c4792309216908790600401613863565b602060405180830381600087803b158015611c6157600080fd5b505af1158015611c75573d6000803e3d6000fd5b505050506040513d601f19601f82011682018060405250810190611c9991906135f2565b505b611cb487878686858a60c001518b6020015160016121ea565b50506001600955505050505050565b80151560009081526007602052604081206108e99061270b565b600c546001600160a01b031681565b600e546001600160a01b031681565b6001600160a01b031660009081526004602052604090205490565b60006001611d226108ef565b03821115611d425760405162461bcd60e51b815260040161069390613db9565b6108e9600183612548565b6001600160a01b03811660009081526006602052604081206108e99061203d565b6000611d78612024565b6000546001600160a01b03908116911614611da55760405162461bcd60e51b815260040161069390613d42565b6001600160a01b038216611dcb5760405162461bcd60e51b815260040161069390613e65565b6108e960018361200f565b6003546001600160a01b031681565b60158181548110611df257fe5b600091825260209091200154905081565b611e0c33612002565b611e285760405162461bcd60e51b815260040161069390613dff565b600a80546001600160a01b0319166001600160a01b0392909216919091179055565b6000806000611e5884611d4d565b905060005b81811015611f3f576000611e71868361100d565b9050611e7b613086565b60035460405163d311636b60e01b81526001600160a01b039091169063d311636b90611eab908590600401613f5e565b60006040518083038186803b158015611ec357600080fd5b505afa158015611ed7573d6000803e3d6000fd5b505050506040513d6000823e601f3d908101601f19168201604052611eff91908101906136a0565b9050806060015115611f225760a0810151611f1b908790612729565b9550611f35565b60a0810151611f32908690612729565b94505b5050600101611e5d565b5050915091565b60145481565b611f54612024565b6000546001600160a01b03908116911614611f815760405162461bcd60e51b815260040161069390613d42565b6001600160a01b038116611fa75760405162461bcd60e51b815260040161069390613b01565b600080546040516001600160a01b03808516939216917f8be0079c531659141344cd1fd0a4f28419497f9722a3daafe3b4186f6b6457e091a3600080546001600160a01b0319166001600160a01b0392909216919091179055565b60006108e960018361274e565b600061102f836001600160a01b038416612763565b3390565b600061102f836001600160a01b0384166127ad565b60006108e98261270b565b600061102f83836040518060400160405280601e81526020017f536166654d6174683a207375627472616374696f6e206f766572666c6f77000081525061287a565b600082612099575060006108e9565b828202828482816120a657fe5b041461102f5760405162461bcd60e51b815260040161069390613d01565b600061102f83836040518060400160405280601a81526020017f536166654d6174683a206469766973696f6e206279207a65726f0000000000008152506128a6565b600354604051631cdd409f60e21b815260009182916001600160a01b0390911690637375027c9061214590309033908b908b908b908b906004016138a1565b602060405180830381600087803b15801561215f57600080fd5b505af1158015612173573d6000803e3d6000fd5b505050506040513d601f19601f8201168201806040525081019061219791906137c9565b3360009081526005602090815260408220805460018101825590835291200181905590506121c68187876128dd565b503360009081526006602052604090206121e0908261291b565b5095945050505050565b600081612275576040516323b872dd60e01b81526001600160a01b038816906323b872dd9061222190339030908a90600401613863565b602060405180830381600087803b15801561223b57600080fd5b505af115801561224f573d6000803e3d6000fd5b505050506040513d601f19601f8201168201806040525081019061227391906135f2565b505b6040516370a0823160e01b81526000906001600160a01b038816906370a08231906122a490309060040161384f565b60206040518083038186803b1580156122bc57600080fd5b505afa1580156122d0573d6000803e3d6000fd5b505050506040513d601f19601f820116820180604052508101906122f491906137c9565b60405163095ea7b360e01b81529091506001600160a01b0389169063095ea7b390612325908d908a90600401613907565b602060405180830381600087803b15801561233f57600080fd5b505af1158015612353573d6000803e3d6000fd5b505050506040513d601f19601f8201168201806040525081019061237791906135f2565b5060405163d5bcb9b560e01b81526001600160a01b038b169063d5bcb9b5906123ac908b908b908b908b908b906004016138d7565b600060405180830381600087803b1580156123c657600080fd5b505af11580156123da573d6000803e3d6000fd5b50505050600061246682896001600160a01b03166370a08231306040518263ffffffff1660e01b8152600401612410919061384f565b60206040518083038186803b15801561242857600080fd5b505afa15801561243c573d6000803e3d6000fd5b505050506040513d601f19601f8201168201806040525081019061246091906137c9565b90612048565b9050858110156124885760405162461bcd60e51b815260040161069390613ca4565b60405163a9059cbb60e01b81526001600160a01b0389169063a9059cbb906124b69088908590600401613907565b602060405180830381600087803b1580156124d057600080fd5b505af11580156124e4573d6000803e3d6000fd5b505050506040513d601f19601f8201168201806040525081019061250891906135f2565b506125138a82612927565b50600e5461253a906001600160a01b038b81169116146125335781612535565b875b612ae4565b9a9950505050505050505050565b600061102f8383612b8d565b600061255e613086565b60035460405163d311636b60e01b81526001600160a01b039091169063d311636b9061258e908690600401613f5e565b60006040518083038186803b1580156125a657600080fd5b505afa1580156125ba573d6000803e3d6000fd5b505050506040513d6000823e601f3d908101601f191682016040526125e291908101906136a0565b60208101519091506001600160a01b031633146126115760405162461bcd60e51b815260040161069390613b7e565b6000816101000151600381111561262457fe5b146126415760405162461bcd60e51b815260040161069390613f0f565b600354604051630d4e568160e41b81526001600160a01b039091169063d4e5681090612677908690600190600090600401613f67565b600060405180830381600087803b15801561269157600080fd5b505af11580156126a5573d6000803e3d6000fd5b5050600860205250507fad67d757c34507f157cacfa2e3153e9f260a2244f30428821be7be64587ac55f80546001810182556000919091527f8048725117155ad5ef9cb75f77fbe235a4558a61159f5364c90d55c3a0d15b7a0183905561138681612bd2565b5490565b60008061271e84846001612cc8565b915091509250929050565b60008282018381101561102f5760405162461bcd60e51b815260040161069390613b47565b600061102f836001600160a01b038416612d0f565b600061276f8383612d0f565b6127a5575081546001818101845560008481526020808220909301849055845484825282860190935260409020919091556108e9565b5060006108e9565b6000818152600183016020526040812054801561286957835460001980830191908101906000908790839081106127e057fe5b90600052602060002001549050808760000184815481106127fd57fe5b60009182526020808320909101929092558281526001898101909252604090209084019055865487908061282d57fe5b600190038181906000526020600020016000905590558660010160008781526020019081526020016000206000905560019450505050506108e9565b60009150506108e9565b5092915050565b6000818484111561289e5760405162461bcd60e51b81526004016106939190613a4f565b505050900390565b600081836128c75760405162461bcd60e51b81526004016106939190613a4f565b5060008385816128d357fe5b0495945050505050565b811515600090815260076020526040812081906128fc90308587612d27565b841515600090815260076020526040902090915061185f908287612ebe565b600061102f8383612763565b6000612931613086565b60035460405163d311636b60e01b81526001600160a01b039091169063d311636b90612961908790600401613f5e565b60006040518083038186803b15801561297957600080fd5b505afa15801561298d573d6000803e3d6000fd5b505050506040513d6000823e601f3d908101601f191682016040526129b591908101906136a0565b9050600081610100015160038111156129ca57fe5b146129e75760405162461bcd60e51b815260040161069390613aa4565b600354604051630d4e568160e41b81526001600160a01b039091169063d4e5681090612a1c9087906002908890600401613f67565b600060405180830381600087803b158015612a3657600080fd5b505af1158015612a4a573d6000803e3d6000fd5b5050600860209081527f6add646517a5b0f6793cd5891b7937d28a5b2981a5d88ebc7cd776088fea904180546001808201835560009283527f7bf249938c4feef66b9076a9dee14bad2f4e6b5ee27a7222e6020ba7aeaaace4909101899055858301516001600160a01b0316825260048352604082208054918201815582529190200186905550612adc905081612bd2565b505092915050565b601454612af19082612729565b601455601154601254600091612b10916201518091610c1b9190612048565b90506000612b2e6201518060115442036120c490919063ffffffff16565b905081811115612b7457601380546015805460018101825560009182527f55f448fdea98c4d29eb340757ef0a66cd03dbb9538908a6a81d96026b71ec475019190915590555b601354612b819084612729565b60135550504260125550565b81546000908210612bb05760405162461bcd60e51b815260040161069390613a62565b826000018281548110612bbf57fe5b9060005260206000200154905092915050565b600354602082015182516040516323b872dd60e01b81526000936001600160a01b0316926323b872dd92612c0c9230929190600401613863565b600060405180830381600087803b158015612c2657600080fd5b505af1158015612c3a573d6000803e3d6000fd5b50505050600860008361010001516003811115612c5357fe5b6003811115612c5e57fe5b81526020808201929092526040908101600090812085518154600181018355918352848320909101558451338252600690935220612c9b91612ecd565b5081516060830151151560009081526007602052604081209091612cbf9190612ed9565b15159392505050565b600080612cd58585612f61565b612ce457506000905080612d07565b505060008281526001848101602090815260408084208515158552909152909120545b935093915050565b60009081526001919091016020526040902054151590565b6000612d328561270b565b612d3e5750600061080c565b6000612d4d8660006001612cc8565b9150508215612e0d575b8015801590612de157506040516307fa648b60e11b81526001600160a01b03861690630ff4c91690612d8d908490600401613f5e565b60206040518083038186803b158015612da557600080fd5b505afa158015612db9573d6000803e3d6000fd5b505050506040513d601f19601f82011682018060405250810190612ddd91906137c9565b8411155b15612e08576000908152600180870160209081526040808420928452919052902054612d57565b61185f565b8015801590612e9757506040516307fa648b60e11b81526001600160a01b03861690630ff4c91690612e43908490600401613f5e565b60206040518083038186803b158015612e5b57600080fd5b505afa158015612e6f573d6000803e3d6000fd5b505050506040513d601f19601f82011682018060405250810190612e9391906137c9565b8410155b1561185f576000908152600180870160209081526040808420928452919052902054612e0d565b600061080c8484846000612fdd565b600061102f83836127ad565b6000811580612eef5750612eed8383612f61565b155b15612efc575060006108e9565b600082815260018481016020908152604080842084805290915280832054828452922054612f2e928692909190613051565b50600081815260018381016020908152604080842084805290915280832083905590825281205581546000190190915590565b60008181526001830160209081526040808320838052909152812054158015612fa457506000828152600180850160209081526040808420928452919052902054155b15612fd55760008080526001808501602090815260408084209284529190529020548214156127a5575060016108e9565b5060016108e9565b6000612fe98584612f61565b158015612ffb5750612ffb8585612f61565b156130465760008481526001860160209081526040808320851515845290915290205461302a86868686613051565b61303686858386613051565b505083546001908101855561080c565b506000949350505050565b600082815260019094016020818152604080872093158088529382528087208690559486529081528385209115855252912055565b604051806101a001604052806000815260200160006001600160a01b0316815260200160006001600160a01b0316815260200160001515815260200160008152602001600081526020016000815260200160008152602001600060038111156130eb57fe5b8152602001606081526020016000815260200160008152602001600081525090565b6040518060c001604052806000815260200160008152602001606081526020016060815260200160608152602001606081525090565b80516108e98161404f565b600082601f83011261315e578081fd5b815161317161316c82613fd0565b613fa9565b81815291506020808301908481018184028601820187101561319257600080fd5b60005b848110156131ba5781516131a88161404f565b84529282019290820190600101613195565b505050505092915050565b600082601f8301126131d5578081fd5b81516131e361316c82613fd0565b81815291506020808301908481018184028601820187101561320457600080fd5b6000805b858110156132305782516008811061321e578283fd5b85529383019391830191600101613208565b50505050505092915050565b600082601f83011261324c578081fd5b815161325a61316c82613fd0565b81815291506020808301908481018184028601820187101561327b57600080fd5b60005b848110156131ba5781518452928201929082019060010161327e565b80516108e981614067565b80516108e981614075565b600082601f8301126132c0578081fd5b81516132ce61316c82613ff0565b91508082528360208285010111156132e557600080fd5b61287381602084016020860161401f565b600060208284031215613307578081fd5b813561102f8161404f565b600080600080600060a08688031215613329578081fd5b85356133348161404f565b945060208601356133448161404f565b935060408601356133548161404f565b925060608601356133648161404f565b915060808601356133748161404f565b809150509295509295909350565b60008060008060808587031215613397578384fd5b84356133a28161404f565b935060208501356133b28161404f565b925060408501359150606085013567ffffffffffffffff8111156133d4578182fd5b8501601f810187136133e4578182fd5b80356133f261316c82613ff0565b818152886020838501011115613406578384fd5b81602084016020830137908101602001929092525092959194509250565b60008060008060808587031215613439578182fd5b84356134448161404f565b9350602085013561345481614067565b93969395505050506040820135916060013590565b6000806040838503121561347b578182fd5b82356134868161404f565b946020939093013593505050565b6000806000606084860312156134a8578081fd5b83356134b38161404f565b95602085013595506040909401359392505050565b600080604083850312156134da578182fd5b825167ffffffffffffffff808211156134f1578384fd5b6134fd8683870161323c565b93506020850151915080821115613512578283fd5b9084019060c08287031215613525578283fd5b61352f60c0613fa9565b825181526020830151602082015260408301518281111561354e578485fd5b61355a888286016131c5565b604083015250606083015182811115613571578485fd5b61357d8882860161314e565b606083015250608083015182811115613594578485fd5b6135a08882860161323c565b60808301525060a0830151828111156135b7578485fd5b6135c38882860161323c565b60a0830152508093505050509250929050565b6000602082840312156135e7578081fd5b813561102f81614067565b600060208284031215613603578081fd5b815161102f81614067565b600080600060608486031215613622578081fd5b83356134b381614067565b60008060008060808587031215613642578182fd5b843561364d81614067565b966020860135965060408601359560600135945092505050565b600060208284031215613678578081fd5b813561102f81614075565b60008060408385031215613695578182fd5b823561348681614075565b6000602082840312156136b1578081fd5b815167ffffffffffffffff808211156136c8578283fd5b81840191506101a08083870312156136de578384fd5b6136e781613fa9565b9050825181526136fa8660208501613143565b602082015261370c8660408501613143565b604082015261371e866060850161329a565b60608201526080830151608082015260a083015160a082015260c083015160c082015260e083015160e082015261010061375a878286016132a5565b908201526101208381015183811115613771578586fd5b61377d888287016132b0565b9183019190915250610140838101519082015261016080840151908201526101809283015192810192909252509392505050565b6000602082840312156137c2578081fd5b5035919050565b6000602082840312156137da578081fd5b5051919050565b6000602082840312156137f2578081fd5b815160ff8116811461102f578182fd5b6001600160a01b03169052565b15159052565b6004811061381f57fe5b9052565b6000815180845261383b81602086016020860161401f565b601f01601f19169290920160200192915050565b6001600160a01b0391909116815260200190565b6001600160a01b039384168152919092166020820152604081019190915260600190565b6001600160a01b0392831681529116602082015260400190565b6001600160a01b03968716815294909516602085015291151560408401526060830152608082015260a081019190915260c00190565b6001600160a01b039586168152938516602085015260408401929092526060830152909116608082015260a00190565b6001600160a01b03929092168252602082015260400190565b60208082528251828201819052600091906040908185019080840286018301878501865b83811015613a2157603f1989840301855281516101a0815185528882015161396e8a870182613802565b508782015161397f89870182613802565b506060808301516139928288018261380f565b50506080828101519086015260a0808301519086015260c0808301519086015260e08083015190860152610100808301516139cf82880182613815565b50506101208083015182828801526139e983880182613823565b610140858101519089015261016080860151908901526101809485015194909701939093525050509386019390860190600101613944565b509098975050505050505050565b901515815260200190565b6001600160e01b031991909116815260200190565b60006020825261102f6020830184613823565b60208082526022908201527f456e756d657261626c655365743a20696e646578206f7574206f6620626f756e604082015261647360f01b606082015260800190565b60208082526039908201527f4f7264657253746f72653a206f6e6c792068616e67696e67206f72646572206360408201527f616e206265636f6d6520414d4d4465616c207374617475732e00000000000000606082015260800190565b60208082526026908201527f4f776e61626c653a206e6577206f776e657220697320746865207a65726f206160408201526564647265737360d01b606082015260800190565b6020808252601b908201527f536166654d6174683a206164646974696f6e206f766572666c6f770000000000604082015260600190565b60208082526031908201527f4f7264657253746f72653a206f6e6c7920626f6f6b206f776e65722063616e2060408201527031b0b731b2b6103a34329037b93232b91760791b606082015260800190565b6020808252602f908201527f426f626f506169723a20696e416d6f756e74204d555354206c6172676572207460408201526e3430b71036b4b71030b6b7bab73a1760891b606082015260800190565b60208082526022908201527f4f7264657253746f72653a20696e646578206973206f7574206f6620626f756e604082015261321760f11b606082015260800190565b60208082526024908201527f426f626f506169723a20736c697070616765204d555354203c3d2031303030286040820152633130252960e01b606082015260800190565b60208082526038908201527f426f626f506169723a2074686520616d6f756e74206f6620737761707065642060408201527f6f757420746f6b656e206973204e4f5420656e6f756768210000000000000000606082015260800190565b60208082526021908201527f536166654d6174683a206d756c7469706c69636174696f6e206f766572666c6f6040820152607760f81b606082015260800190565b6020808252818101527f4f776e61626c653a2063616c6c6572206973206e6f7420746865206f776e6572604082015260600190565b60208082526022908201527f426f626f506169723a20726f75746572204e4f5420696e2077686974656c6973604082015261742160f01b606082015260800190565b60208082526026908201527f4d6978696e417574686f72697a61626c653a20696e646578206f7574206f6620604082015265626f756e647360d01b606082015260800190565b60208082526015908201527414d15391115497d393d517d055551213d492569151605a1b604082015260600190565b6020808252601f908201527f5265656e7472616e637947756172643a207265656e7472616e742063616c6c00604082015260600190565b60208082526035908201527f4d6978696e417574686f72697a61626c653a205f616464417574686f72697a656040820152746420697320746865207a65726f206164647265737360581b606082015260800190565b60208082526035908201527f4d6978696e417574686f72697a61626c653a205f64656c417574686f72697a656040820152746420697320746865207a65726f206164647265737360581b606082015260800190565b6020808252602f908201527f4f7264657253746f72653a206f6e6c792068616e67696e67206f72646572206360408201526e30b71031329031b0b731b2b632b21760891b606082015260800190565b90815260200190565b6000848252613f7584614014565b60208301528260408301526080606083015280608083015260a082019050949350505050565b918252602082015260400190565b60405181810167ffffffffffffffff81118282101715613fc857600080fd5b604052919050565b600067ffffffffffffffff821115613fe6578081fd5b5060209081020190565b600067ffffffffffffffff821115614006578081fd5b50601f01601f191660200190565b806004811061065157fe5b60005b8381101561403a578181015183820152602001614022565b83811115614049576000848401525b50505050565b6001600160a01b038116811461406457600080fd5b50565b801515811461406457600080fd5b6004811061406457600080fdfea264697066735822122088e9ee8c3566985662a4e4b485c92d155efa9a950dc247fe67f54a04a0c0db3d64736f6c634300060c00334f776e61626c653a206e6577206f776e657220697320746865207a65726f2061646472657373426f626f466163746f72793a20666163746f7279204e4f54207468652061757468206f6620706169722e4f776e61626c653a2063616c6c6572206973206e6f7420746865206f776e6572a26469706673582212202fb2922dc666240c40488afb42b19cf8b90e6bf48d2de7049db4ade307886fda64736f6c634300060c0033",
  "immutableReferences": {},
  "source": "// SPDX-License-Identifier: MIT\npragma solidity ^0.6.0;\n\nimport \"./common/OrderStore.sol\";\nimport \"./BoboPair.sol\";\n\ninterface IMinter {\n    function addMinter(address _addMinter) external returns (bool);\n}\n\ninterface IAuthorizable {\n    function addAuthorized(address _authorizedAddr) external returns (bool);\n    function isAuthorized(address _authorizedAddr) external view returns (bool);\n}\n\ninterface IBoboPair is IAuthorizable {\n    function initialize(address _token0, address _token1, address _authAddr, address _boboFarmer, address _orderNFT) external;\n    function setExManager(address _exManager) external;\n    function getTotalHangingTokenAmount(address _userAddr) view external returns(uint256 baseTokenAmount, uint256 quoteTokenAmount);\n}\n\ncontract BoboFactory is Ownable {\n    using SafeMath for uint256;\n    \n    address public constant USDT = 0xc2132D05D31c914a87C6611C10748AEb04B58e8F;\n    address public constant USDC = 0x2791Bca1f2de4661ED88A30C99A7a9449Aa84174;\n    address public constant WMATIC = 0x0d500B1d8E8eF31E21C99d1Db9A6444d3ADf1270;\n    \n    address[] public allPairs;  // \n    mapping(address => mapping(address => address)) public getPair;\n    mapping(address => address[]) public baseTokenPairs;\n\n    IBoboFarmer public boboFarmer;\n    address public orderNFT;\n    address public exManager;\n    \n    event PairCreated(address indexed quoteToken, address indexed baseToken, address pairAddr);\n    \n    constructor (address _orderNFT, address _boboFarmer, address _exManager) public {  \n        orderNFT = _orderNFT;\n        boboFarmer = IBoboFarmer(_boboFarmer);\n        exManager = _exManager;\n    }\n\n    function setAddresses(address _boboFarmer, address _exManager) public onlyOwner {\n        if (_boboFarmer != address(0))\n            boboFarmer = IBoboFarmer(_boboFarmer);\n        if (_exManager != address(0))\n            exManager = _exManager;\n    }\n    \n    function createPair(address _quoteToken, address _baseToken) public onlyOwner returns (address pairAddr) {\n        require(_quoteToken != _baseToken, \"BoboFactory: IDENTICAL_ADDRESSES\");\n        require(_quoteToken != address(0), \"BoboFactory: ZERO_ADDRESS\");\n        require(getPair[_quoteToken][_baseToken] == address(0), \"BoboFactory: PAIR_EXISTS\"); // single check is sufficient\n        bytes memory bytecode = type(BoboPair).creationCode;\n        bytes32 salt = keccak256(abi.encodePacked(_quoteToken, _baseToken));\n        assembly {\n            pairAddr := create2(0, add(bytecode, 32), mload(bytecode), salt)\n        }\n        IBoboPair(pairAddr).initialize(_quoteToken, _baseToken, msg.sender, address(boboFarmer), orderNFT);\n        require(IBoboPair(pairAddr).isAuthorized(address(this)), \"BoboFactory: factory NOT the auth of pair.\");\n        IBoboPair(pairAddr).setExManager(exManager);\n        \n        getPair[_quoteToken][_baseToken] = pairAddr;\n        getPair[_baseToken][_quoteToken] = pairAddr; // populate mapping in the reverse direction\n        allPairs.push(pairAddr);\n        baseTokenPairs[_baseToken].push(_quoteToken);\n        emit PairCreated(_quoteToken, _baseToken, pairAddr);\n    }\n    \n    function pairNumber() view public returns(uint256) {\n        return allPairs.length;\n    }\n    \n    function addPairAuth(address _quoteToken, address _baseToken, address _auth) external onlyOwner {\n        address pairAddr = getPair[_quoteToken][_baseToken];\n        require(pairAddr != address(0), 'BoboFactory: PAIR_NOT_EXISTS');\n        IBoboPair(pairAddr).addAuthorized(_auth);\n    }\n\n    function getBaseTokenPairLength(address _baseToken) view external returns(uint256) {\n        return baseTokenPairs[_baseToken].length;\n    }\n\n    // BaseToken\n    function getTotalHangingTokenAmount(address _baseToken, address _userAddr) view public returns(uint256) {\n        uint256 totalBaseTokenAmount;\n        address[] memory quoteTokens = baseTokenPairs[_baseToken];\n        for (uint256 i = 0; i < quoteTokens.length; i++) {\n            address pairAddr = getPair[quoteTokens[i]][_baseToken];\n            (uint256 baseTokenAmount,) = IBoboPair(pairAddr).getTotalHangingTokenAmount(_userAddr);\n            totalBaseTokenAmount = totalBaseTokenAmount.add(baseTokenAmount);\n        }\n        return totalBaseTokenAmount;\n    }\n\n    // BaseToken\n    function getClaimBaseTokenAmount(address _baseToken, address _userAddr) view public returns(uint256) {\n        uint256 hangingBaseTokenAmount = boboFarmer.stakedWantTokens(_baseToken, _userAddr);\n        uint256 baseTokenAmount = getTotalHangingTokenAmount(_baseToken, _userAddr);\n        return hangingBaseTokenAmount.sub(baseTokenAmount);\n    }\n    \n    // baseToken\n    // boboFarmerFactory\n    function claimBaseToken(address _baseToken) public {\n        uint256 amount = getClaimBaseTokenAmount(_baseToken, msg.sender);\n        if (boboFarmer.tokenPidMap(_baseToken) > 0) {\n            uint256 preBaseTokenAmount = IERC20(_baseToken).balanceOf(address(this));\n            boboFarmer.withdraw(_baseToken, msg.sender, amount);\n            uint256 newBaseTokenAmount = IERC20(_baseToken).balanceOf(address(this));\n            IERC20(_baseToken).transfer(msg.sender, newBaseTokenAmount.sub(preBaseTokenAmount));\n        }\n    }\n\n    // Bobo Token\n    function claimBoboToken(address _baseToken) public {\n        if (boboFarmer.tokenPidMap(_baseToken) > 0) {\n            boboFarmer.withdraw(_baseToken, msg.sender, 0);\n        }\n    }\n}",
  "sourcePath": "/Users/mryu/blockchain/bobo-metaverse/boboswap-contract/contracts/BoboFactory.sol",
  "compiler": {
    "name": "solc",
    "version": "0.6.12+commit.27d51765.Emscripten.clang"
  },
  "schemaVersion": "3.4.3",
  "updatedAt": "2021-09-16T08:10:12.417Z",
  "networkType": "ethereum",
  "devdoc": {
    "kind": "dev",
    "methods": {
      "owner()": {
        "details": "Returns the address of the current owner."
      },
      "renounceOwnership()": {
        "details": "Leaves the contract without owner. It will not be possible to call `onlyOwner` functions anymore. Can only be called by the current owner. NOTE: Renouncing ownership will leave the contract without an owner, thereby removing any functionality that is only available to the owner."
      },
      "transferOwnership(address)": {
        "details": "Transfers ownership of the contract to a new account (`newOwner`). Can only be called by the current owner."
      }
    },
    "version": 1
  },
  "userdoc": {
    "kind": "user",
    "methods": {},
    "version": 1
  }
}