{
  "contractName": "EXManager",
  "abi": [
    {
      "inputs": [
        {
          "internalType": "address",
          "name": "_boboToken",
          "type": "address"
        }
      ],
      "stateMutability": "nonpayable",
      "type": "constructor"
    },
    {
      "anonymous": false,
      "inputs": [
        {
          "indexed": true,
          "internalType": "address",
          "name": "previousOwner",
          "type": "address"
        },
        {
          "indexed": true,
          "internalType": "address",
          "name": "newOwner",
          "type": "address"
        }
      ],
      "name": "OwnershipTransferred",
      "type": "event"
    },
    {
      "inputs": [],
      "name": "BasePercent",
      "outputs": [
        {
          "internalType": "uint256",
          "name": "",
          "type": "uint256"
        }
      ],
      "stateMutability": "view",
      "type": "function",
      "constant": true
    },
    {
      "inputs": [],
      "name": "FACTOR",
      "outputs": [
        {
          "internalType": "uint256",
          "name": "",
          "type": "uint256"
        }
      ],
      "stateMutability": "view",
      "type": "function",
      "constant": true
    },
    {
      "inputs": [],
      "name": "USDC",
      "outputs": [
        {
          "internalType": "address",
          "name": "",
          "type": "address"
        }
      ],
      "stateMutability": "view",
      "type": "function",
      "constant": true
    },
    {
      "inputs": [],
      "name": "USDT",
      "outputs": [
        {
          "internalType": "address",
          "name": "",
          "type": "address"
        }
      ],
      "stateMutability": "view",
      "type": "function",
      "constant": true
    },
    {
      "inputs": [
        {
          "internalType": "address",
          "name": "",
          "type": "address"
        }
      ],
      "name": "accountFreePointMap",
      "outputs": [
        {
          "internalType": "uint256",
          "name": "",
          "type": "uint256"
        }
      ],
      "stateMutability": "view",
      "type": "function",
      "constant": true
    },
    {
      "inputs": [
        {
          "internalType": "address",
          "name": "_authorizedAddr",
          "type": "address"
        }
      ],
      "name": "addAuthorized",
      "outputs": [
        {
          "internalType": "bool",
          "name": "",
          "type": "bool"
        }
      ],
      "stateMutability": "nonpayable",
      "type": "function"
    },
    {
      "inputs": [],
      "name": "boboToken",
      "outputs": [
        {
          "internalType": "address",
          "name": "",
          "type": "address"
        }
      ],
      "stateMutability": "view",
      "type": "function",
      "constant": true
    },
    {
      "inputs": [
        {
          "internalType": "address",
          "name": "_authorizedAddr",
          "type": "address"
        }
      ],
      "name": "delAuthorized",
      "outputs": [
        {
          "internalType": "bool",
          "name": "",
          "type": "bool"
        }
      ],
      "stateMutability": "nonpayable",
      "type": "function"
    },
    {
      "inputs": [],
      "name": "feePercent",
      "outputs": [
        {
          "internalType": "uint256",
          "name": "",
          "type": "uint256"
        }
      ],
      "stateMutability": "view",
      "type": "function",
      "constant": true
    },
    {
      "inputs": [
        {
          "internalType": "uint256",
          "name": "_index",
          "type": "uint256"
        }
      ],
      "name": "getAuthorized",
      "outputs": [
        {
          "internalType": "address",
          "name": "",
          "type": "address"
        }
      ],
      "stateMutability": "view",
      "type": "function",
      "constant": true
    },
    {
      "inputs": [],
      "name": "getAuthorizedLength",
      "outputs": [
        {
          "internalType": "uint256",
          "name": "",
          "type": "uint256"
        }
      ],
      "stateMutability": "view",
      "type": "function",
      "constant": true
    },
    {
      "inputs": [
        {
          "internalType": "address",
          "name": "_authorizedAddr",
          "type": "address"
        }
      ],
      "name": "isAuthorized",
      "outputs": [
        {
          "internalType": "bool",
          "name": "",
          "type": "bool"
        }
      ],
      "stateMutability": "view",
      "type": "function",
      "constant": true
    },
    {
      "inputs": [],
      "name": "maxBoboTokenAmount",
      "outputs": [
        {
          "internalType": "uint256",
          "name": "",
          "type": "uint256"
        }
      ],
      "stateMutability": "view",
      "type": "function",
      "constant": true
    },
    {
      "inputs": [],
      "name": "maxFreePointPerAccount",
      "outputs": [
        {
          "internalType": "uint256",
          "name": "",
          "type": "uint256"
        }
      ],
      "stateMutability": "view",
      "type": "function",
      "constant": true
    },
    {
      "inputs": [],
      "name": "maxOrderNumberPerMatch",
      "outputs": [
        {
          "internalType": "uint256",
          "name": "",
          "type": "uint256"
        }
      ],
      "stateMutability": "view",
      "type": "function",
      "constant": true
    },
    {
      "inputs": [],
      "name": "minDepositValue",
      "outputs": [
        {
          "internalType": "uint256",
          "name": "",
          "type": "uint256"
        }
      ],
      "stateMutability": "view",
      "type": "function",
      "constant": true
    },
    {
      "inputs": [],
      "name": "owner",
      "outputs": [
        {
          "internalType": "address",
          "name": "",
          "type": "address"
        }
      ],
      "stateMutability": "view",
      "type": "function",
      "constant": true
    },
    {
      "inputs": [],
      "name": "renounceOwnership",
      "outputs": [],
      "stateMutability": "nonpayable",
      "type": "function"
    },
    {
      "inputs": [
        {
          "internalType": "address",
          "name": "",
          "type": "address"
        }
      ],
      "name": "routerWhiteList",
      "outputs": [
        {
          "internalType": "bool",
          "name": "",
          "type": "bool"
        }
      ],
      "stateMutability": "view",
      "type": "function",
      "constant": true
    },
    {
      "inputs": [
        {
          "internalType": "uint256",
          "name": "",
          "type": "uint256"
        }
      ],
      "name": "spreadInfoMap",
      "outputs": [
        {
          "internalType": "uint256",
          "name": "spreadCode",
          "type": "uint256"
        },
        {
          "internalType": "uint256",
          "name": "endBlock",
          "type": "uint256"
        },
        {
          "internalType": "uint256",
          "name": "userRate",
          "type": "uint256"
        },
        {
          "internalType": "uint256",
          "name": "commissionRate",
          "type": "uint256"
        },
        {
          "internalType": "address",
          "name": "spreaderAddr",
          "type": "address"
        }
      ],
      "stateMutability": "view",
      "type": "function",
      "constant": true
    },
    {
      "inputs": [],
      "name": "swapFactory",
      "outputs": [
        {
          "internalType": "address",
          "name": "",
          "type": "address"
        }
      ],
      "stateMutability": "view",
      "type": "function",
      "constant": true
    },
    {
      "inputs": [
        {
          "internalType": "address",
          "name": "",
          "type": "address"
        }
      ],
      "name": "tokenAggregatorMap",
      "outputs": [
        {
          "internalType": "address",
          "name": "",
          "type": "address"
        }
      ],
      "stateMutability": "view",
      "type": "function",
      "constant": true
    },
    {
      "inputs": [
        {
          "internalType": "address",
          "name": "",
          "type": "address"
        }
      ],
      "name": "tokenMinAmountMap",
      "outputs": [
        {
          "internalType": "uint256",
          "name": "",
          "type": "uint256"
        }
      ],
      "stateMutability": "view",
      "type": "function",
      "constant": true
    },
    {
      "inputs": [
        {
          "internalType": "address",
          "name": "newOwner",
          "type": "address"
        }
      ],
      "name": "transferOwnership",
      "outputs": [],
      "stateMutability": "nonpayable",
      "type": "function"
    },
    {
      "inputs": [
        {
          "internalType": "address",
          "name": "",
          "type": "address"
        }
      ],
      "name": "usableTradePointsMap",
      "outputs": [
        {
          "internalType": "uint256",
          "name": "",
          "type": "uint256"
        }
      ],
      "stateMutability": "view",
      "type": "function",
      "constant": true
    },
    {
      "inputs": [
        {
          "internalType": "uint256",
          "name": "_maxBoboTokenAmount",
          "type": "uint256"
        }
      ],
      "name": "setMaxBoboTokenAmount",
      "outputs": [],
      "stateMutability": "nonpayable",
      "type": "function"
    },
    {
      "inputs": [
        {
          "internalType": "address",
          "name": "_router",
          "type": "address"
        },
        {
          "internalType": "bool",
          "name": "_bInWhiteList",
          "type": "bool"
        }
      ],
      "name": "setRouter",
      "outputs": [],
      "stateMutability": "nonpayable",
      "type": "function"
    },
    {
      "inputs": [
        {
          "internalType": "address",
          "name": "_userAddr",
          "type": "address"
        }
      ],
      "name": "getScalePercent",
      "outputs": [
        {
          "internalType": "uint256",
          "name": "",
          "type": "uint256"
        }
      ],
      "stateMutability": "view",
      "type": "function",
      "constant": true
    },
    {
      "inputs": [
        {
          "internalType": "address",
          "name": "_tokenAddr",
          "type": "address"
        },
        {
          "internalType": "uint256",
          "name": "_minAmount",
          "type": "uint256"
        }
      ],
      "name": "setTokenMinAmount",
      "outputs": [],
      "stateMutability": "nonpayable",
      "type": "function"
    },
    {
      "inputs": [
        {
          "internalType": "uint256",
          "name": "_maxNumber",
          "type": "uint256"
        }
      ],
      "name": "setMaxOrderNumberPerMatch",
      "outputs": [],
      "stateMutability": "nonpayable",
      "type": "function"
    },
    {
      "inputs": [
        {
          "internalType": "uint256",
          "name": "_spreadCode",
          "type": "uint256"
        },
        {
          "internalType": "uint256",
          "name": "_endBlock",
          "type": "uint256"
        },
        {
          "internalType": "uint256",
          "name": "_userRate",
          "type": "uint256"
        },
        {
          "internalType": "uint256",
          "name": "_commissionRate",
          "type": "uint256"
        },
        {
          "internalType": "address",
          "name": "_spreaderAddr",
          "type": "address"
        }
      ],
      "name": "setSpreadInfo",
      "outputs": [],
      "stateMutability": "nonpayable",
      "type": "function"
    },
    {
      "inputs": [
        {
          "internalType": "uint256",
          "name": "_usdtAmount",
          "type": "uint256"
        },
        {
          "internalType": "uint256",
          "name": "_spreadCode",
          "type": "uint256"
        }
      ],
      "name": "buyTradePoints",
      "outputs": [],
      "stateMutability": "nonpayable",
      "type": "function"
    },
    {
      "inputs": [
        {
          "internalType": "address",
          "name": "_userAddr",
          "type": "address"
        },
        {
          "internalType": "uint256",
          "name": "_transferAmount",
          "type": "uint256"
        }
      ],
      "name": "transferTradePoints",
      "outputs": [],
      "stateMutability": "nonpayable",
      "type": "function"
    },
    {
      "inputs": [
        {
          "internalType": "address",
          "name": "_userAddr",
          "type": "address"
        },
        {
          "internalType": "address",
          "name": "_token",
          "type": "address"
        },
        {
          "internalType": "uint256",
          "name": "_amountIn",
          "type": "uint256"
        }
      ],
      "name": "deductTradeFee",
      "outputs": [
        {
          "internalType": "uint256",
          "name": "",
          "type": "uint256"
        }
      ],
      "stateMutability": "nonpayable",
      "type": "function"
    },
    {
      "inputs": [
        {
          "internalType": "address",
          "name": "_userAddr",
          "type": "address"
        },
        {
          "internalType": "address",
          "name": "_token",
          "type": "address"
        },
        {
          "internalType": "uint256",
          "name": "_amountIn",
          "type": "uint256"
        }
      ],
      "name": "evaluateDeductedAmountIn",
      "outputs": [
        {
          "internalType": "uint256",
          "name": "",
          "type": "uint256"
        },
        {
          "internalType": "uint256",
          "name": "",
          "type": "uint256"
        }
      ],
      "stateMutability": "view",
      "type": "function",
      "constant": true
    },
    {
      "inputs": [
        {
          "internalType": "address",
          "name": "_token",
          "type": "address"
        }
      ],
      "name": "getTokenPrice",
      "outputs": [
        {
          "internalType": "uint256",
          "name": "",
          "type": "uint256"
        }
      ],
      "stateMutability": "view",
      "type": "function",
      "constant": true
    },
    {
      "inputs": [
        {
          "internalType": "address",
          "name": "_token",
          "type": "address"
        }
      ],
      "name": "getTokenPriceOnAMM",
      "outputs": [
        {
          "internalType": "uint256",
          "name": "",
          "type": "uint256"
        }
      ],
      "stateMutability": "view",
      "type": "function",
      "constant": true
    },
    {
      "inputs": [
        {
          "internalType": "address",
          "name": "_token",
          "type": "address"
        }
      ],
      "name": "getTokenPriceOnChainlink",
      "outputs": [
        {
          "internalType": "uint256",
          "name": "",
          "type": "uint256"
        }
      ],
      "stateMutability": "view",
      "type": "function",
      "constant": true
    },
    {
      "inputs": [
        {
          "internalType": "uint256",
          "name": "_feePercent",
          "type": "uint256"
        }
      ],
      "name": "setFeePercent",
      "outputs": [],
      "stateMutability": "nonpayable",
      "type": "function"
    },
    {
      "inputs": [
        {
          "internalType": "address",
          "name": "_token",
          "type": "address"
        },
        {
          "internalType": "address",
          "name": "_receiver",
          "type": "address"
        }
      ],
      "name": "withdraw",
      "outputs": [],
      "stateMutability": "nonpayable",
      "type": "function"
    },
    {
      "inputs": [
        {
          "internalType": "address",
          "name": "_token",
          "type": "address"
        },
        {
          "internalType": "address",
          "name": "_aggregator",
          "type": "address"
        }
      ],
      "name": "addAggregtor",
      "outputs": [],
      "stateMutability": "nonpayable",
      "type": "function"
    }
  ],
  "bytecode": "0x60806040526005600455600a600555620f4240600655600560075569152d02c7e14af6800000600d5534801561003457600080fd5b506040516125bd3803806125bd8339818101604052602081101561005757600080fd5b505160006100636100e6565b600080546001600160a01b0319166001600160a01b0383169081178255604051929350917f8be0079c531659141344cd1fd0a4f28419497f9722a3daafe3b4186f6b6457e0908290a3503360009081526003602052604090206127109055600c80546001600160a01b0319166001600160a01b03929092169190911790556100ea565b3390565b6124c4806100f96000396000f3fe608060405234801561001057600080fd5b50600436106102535760003560e01c80637944f94411610146578063c3c64674116100c3578063d02641a011610087578063d02641a0146106b9578063f0f46e9e146106df578063f2fde38b14610705578063f940e3851461072b578063fd08be6714610759578063fe9fbb801461076157610253565b8063c3c6467414610638578063c4c0dbb714610666578063c54e44eb1461066e578063c63cc56414610676578063cf1c316a1461069357610253565b80638da5cb5b1161010a5780638da5cb5b146105bf5780639778867a146105c75780639eedc492146105ed578063ae05b158146105f5578063bf9c6bf11461061b57610253565b80637944f944146105825780637c62028e1461058a5780637ce3489b146105925780637fd6f15c146105af57806389a30271146105b757610253565b806355fc232c116101d45780636831d48a116101985780636831d48a146104b05780636de4f89a146104e6578063715018a614610503578063774f89ee1461050b57806377f269d61461053157610253565b806355fc232c146103dc5780635685d5d314610400578063586ee0e61461043e578063614456801461046457806366e2bcb31461048a57610253565b80632e8e24f51161021b5780632e8e24f51461034157806331a40b621461036f5780633397e527146103a9578063349cf887146103b157806335815b95146103d457610253565b8063070c82a8146102585780631a65bf7b146102725780631d2e445f146102a05780631ee9e9e6146102cc57806326a3c1a71461031b575b600080fd5b610260610787565b60408051918252519081900360200190f35b61029e6004803603604081101561028857600080fd5b506001600160a01b03813516906020013561078d565b005b61029e600480360360408110156102b657600080fd5b506001600160a01b038135169060200135610801565b610302600480360360608110156102e257600080fd5b506001600160a01b038135811691602081013590911690604001356108b5565b6040805192835260208301919091528051918290030190f35b6102606004803603602081101561033157600080fd5b50356001600160a01b0316610a72565b61029e6004803603604081101561035757600080fd5b506001600160a01b0381358116916020013516610db2565b6103956004803603602081101561038557600080fd5b50356001600160a01b0316610e38565b604080519115158252519081900360200190f35b610260610ee8565b61029e600480360360408110156103c757600080fd5b5080359060200135610ef9565b610260611165565b6103e461116d565b604080516001600160a01b039092168252519081900360200190f35b61029e600480360360a081101561041657600080fd5b50803590602081013590604081013590606081013590608001356001600160a01b031661117c565b6103e46004803603602081101561045457600080fd5b50356001600160a01b03166112ad565b6102606004803603602081101561047a57600080fd5b50356001600160a01b03166112c8565b610260600480360360208110156104a057600080fd5b50356001600160a01b03166112da565b610260600480360360608110156104c657600080fd5b506001600160a01b038135811691602081013590911690604001356113b0565b61029e600480360360208110156104fc57600080fd5b5035611632565b61029e61168f565b6102606004803603602081101561052157600080fd5b50356001600160a01b0316611731565b61054e6004803603602081101561054757600080fd5b5035611743565b6040805195865260208601949094528484019290925260608401526001600160a01b03166080830152519081900360a00190f35b6103e461177b565b610260611793565b61029e600480360360208110156105a857600080fd5b5035611799565b6102606117f6565b6103e46117fc565b6103e4611814565b610395600480360360208110156105dd57600080fd5b50356001600160a01b0316611823565b610260611838565b6102606004803603602081101561060b57600080fd5b50356001600160a01b031661183e565b61029e6004803603602081101561063157600080fd5b5035611850565b61029e6004803603604081101561064e57600080fd5b506001600160a01b03813516906020013515156118ad565b610260611930565b6103e4611936565b6103e46004803603602081101561068c57600080fd5b503561194e565b610395600480360360208110156106a957600080fd5b50356001600160a01b03166119a4565b610260600480360360208110156106cf57600080fd5b50356001600160a01b0316611a4e565b610260600480360360208110156106f557600080fd5b50356001600160a01b0316611afa565b61029e6004803603602081101561071b57600080fd5b50356001600160a01b0316611bf5565b61029e6004803603604081101561074157600080fd5b506001600160a01b0381358116916020013516611ced565b610260611e47565b6103956004803603602081101561077757600080fd5b50356001600160a01b0316611e4d565b60065481565b610795611e5a565b6000546001600160a01b039081169116146107e5576040805162461bcd60e51b81526020600482018190526024820152600080516020612399833981519152604482015290519081900360640190fd5b6001600160a01b03909116600090815260096020526040902055565b3360009081526003602052604090205481111561084f5760405162461bcd60e51b81526004018080602001828103825260468152602001806123df6046913960600191505060405180910390fd5b336000908152600360205260409020546108699082611e5e565b33600090815260036020526040808220929092556001600160a01b038416815220546108959082611ea0565b6001600160a01b0390921660009081526003602052604090209190915550565b600080600073c2132d05d31c914a87c6611c10748aeb04b58e8f6001600160a01b031663313ce5676040518163ffffffff1660e01b815260040160206040518083038186803b15801561090757600080fd5b505afa15801561091b573d6000803e3d6000fd5b505050506040513d602081101561093157600080fd5b50516040805163313ce56760e01b8152905160ff90921692506000916001600160a01b0388169163313ce567916004808301926020929190829003018186803b15801561097d57600080fd5b505afa158015610991573d6000803e3d6000fd5b505050506040513d60208110156109a757600080fd5b505160ff16905060006109b987611a4e565b905060006109c6896112da565b905060006109fb6127106109f56127106109f5866109ef6004548f611efa90919063ffffffff16565b90611efa565b90611f53565b90506000610a2885600a0a6109f56305f5e1006109f58a600a0a6109ef888b611efa90919063ffffffff16565b6001600160a01b038c166000908152600360205260409020549091508111610a5b57600097509550610a6a945050505050565b9096509450610a6a9350505050565b935093915050565b60006001600160a01b03821673c2132d05d31c914a87c6611c10748aeb04b58e8f1480610abb57506001600160a01b038216732791bca1f2de4661ed88a30c99a7a9449aa84174145b15610acb57506305f5e100610dad565b6000806001600160a01b03841673c2132d05d31c914a87c6611c10748aeb04b58e8f10610b0d578373c2132d05d31c914a87c6611c10748aeb04b58e8f610b24565b73c2132d05d31c914a87c6611c10748aeb04b58e8f845b915091506000735757371414417b8c6caad45baef941abc7d3ab326001600160a01b031663e6a4390584846040518363ffffffff1660e01b815260040180836001600160a01b03168152602001826001600160a01b031681526020019250505060206040518083038186803b158015610b9c57600080fd5b505afa158015610bb0573d6000803e3d6000fd5b505050506040513d6020811015610bc657600080fd5b505160408051630240bc6b60e21b8152905191925060009182916001600160a01b03851691630902f1ac91600480820192606092909190829003018186803b158015610c1157600080fd5b505afa158015610c25573d6000803e3d6000fd5b505050506040513d6060811015610c3b57600080fd5b5080516020918201516040805163313ce56760e01b815290516dffffffffffffffffffffffffffff938416965092909116935060009273c2132d05d31c914a87c6611c10748aeb04b58e8f9263313ce567926004808201939291829003018186803b158015610ca957600080fd5b505afa158015610cbd573d6000803e3d6000fd5b505050506040513d6020811015610cd357600080fd5b50516040805163313ce56760e01b815290516001600160a01b038b169163313ce567916004808301926020929190829003018186803b158015610d1557600080fd5b505afa158015610d29573d6000803e3d6000fd5b505050506040513d6020811015610d3f57600080fd5b50510360ff16905073c2132d05d31c914a87c6611c10748aeb04b58e8f6001600160a01b03871614610d8a57610d85836109f5600a84900a6109ef866305f5e100611efa565b610da4565b610da4826109f5600a84900a6109ef876305f5e100611efa565b96505050505050505b919050565b610dba611e5a565b6000546001600160a01b03908116911614610e0a576040805162461bcd60e51b81526020600482018190526024820152600080516020612399833981519152604482015290519081900360640190fd5b6001600160a01b039182166000908152600a6020526040902080546001600160a01b03191691909216179055565b6000610e42611e5a565b6000546001600160a01b03908116911614610e92576040805162461bcd60e51b81526020600482018190526024820152600080516020612399833981519152604482015290519081900360640190fd5b6001600160a01b038216610ed75760405162461bcd60e51b815260040180806020018281038252603581526020018061245a6035913960400191505060405180910390fd5b610ee2600183611f95565b92915050565b6000610ef46001611faa565b905090565b600654821015610f3a5760405162461bcd60e51b815260040180806020018281038252603b8152602001806122d2603b913960400191505060405180910390fd5b604080516323b872dd60e01b815233600482015230602482015260448101849052905173c2132d05d31c914a87c6611c10748aeb04b58e8f916323b872dd9160648083019260209291908290030181600087803b158015610f9a57600080fd5b505af1158015610fae573d6000803e3d6000fd5b505050506040513d6020811015610fc457600080fd5b50610fcf9050612277565b506000818152600e6020908152604091829020825160a08101845281548152600182015492810183905260028201549381019390935260038101546060840152600401546001600160a01b031660808301524310156111355761106761105161104a60646109f5856040015188611efa90919063ffffffff16565b8590611ea0565b3360009081526003602052604090205490611ea0565b336000908152600360205260408120919091556060820151611091906064906109f5908790611efa565b905073c2132d05d31c914a87c6611c10748aeb04b58e8f6001600160a01b031663a9059cbb8360800151836040518363ffffffff1660e01b815260040180836001600160a01b0316815260200182815260200192505050602060405180830381600087803b15801561110257600080fd5b505af1158015611116573d6000803e3d6000fd5b505050506040513d602081101561112c57600080fd5b50611160915050565b3360009081526003602052604090205461114f9084611ea0565b336000908152600360205260409020555b505050565b6305f5e10081565b600c546001600160a01b031681565b611184611e5a565b6000546001600160a01b039081169116146111d4576040805162461bcd60e51b81526020600482018190526024820152600080516020612399833981519152604482015290519081900360640190fd5b6000851180156111e357504384115b611234576040805162461bcd60e51b815260206004820152601a60248201527f45584d616e616765723a20706172616d65746572204552524f52000000000000604482015290519081900360640190fd5b6040805160a0810182528681526020808201968752818301958652606082019485526001600160a01b03938416608083019081526000988952600e909152919096209551865593516001860155915160028501555160038401559051600490920180546001600160a01b03191692909116919091179055565b600a602052600090815260409020546001600160a01b031681565b60036020526000908152604090205481565b600c54604080516370a0823160e01b81526001600160a01b0384811660048301529151600093849316916370a08231916024808301926020929190829003018186803b15801561132957600080fd5b505afa15801561133d573d6000803e3d6000fd5b505050506040513d602081101561135357600080fd5b5051600d5490915061136690600a611f53565b81101561137857612710915050610dad565b600d5461138690600a611f53565b8111156113925750600d545b600d546113a5906109f583611388611efa565b612710039392505050565b60006113bb33611e4d565b611404576040805162461bcd60e51b815260206004820152601560248201527414d15391115497d393d517d055551213d492569151605a1b604482015290519081900360640190fd5b6005546001600160a01b038516600090815260086020526040902054101561144b57506001600160a01b03831660009081526008602052604081208054600101905561162b565b600073c2132d05d31c914a87c6611c10748aeb04b58e8f6001600160a01b031663313ce5676040518163ffffffff1660e01b815260040160206040518083038186803b15801561149a57600080fd5b505afa1580156114ae573d6000803e3d6000fd5b505050506040513d60208110156114c457600080fd5b50516040805163313ce56760e01b8152905160ff90921692506000916001600160a01b0387169163313ce567916004808301926020929190829003018186803b15801561151057600080fd5b505afa158015611524573d6000803e3d6000fd5b505050506040513d602081101561153a57600080fd5b505160ff169050600061154c86611a4e565b90506000611559886112da565b905060006115826127106109f56127106109f5866109ef6004548e611efa90919063ffffffff16565b905060006115af85600a0a6109f56305f5e1006109f58a600a0a6109ef888b611efa90919063ffffffff16565b6001600160a01b038b16600090815260036020526040902054909150811161161e576001600160a01b038a166000908152600360205260409020546115f49082611e5e565b6001600160a01b038b16600090815260036020526040812091909155965061162b95505050505050565b50945061162b9350505050565b9392505050565b61163a611e5a565b6000546001600160a01b0390811691161461168a576040805162461bcd60e51b81526020600482018190526024820152600080516020612399833981519152604482015290519081900360640190fd5b600d55565b611697611e5a565b6000546001600160a01b039081169116146116e7576040805162461bcd60e51b81526020600482018190526024820152600080516020612399833981519152604482015290519081900360640190fd5b600080546040516001600160a01b03909116907f8be0079c531659141344cd1fd0a4f28419497f9722a3daafe3b4186f6b6457e0908390a3600080546001600160a01b0319169055565b60096020526000908152604090205481565b600e6020526000908152604090208054600182015460028301546003840154600490940154929391929091906001600160a01b031685565b735757371414417b8c6caad45baef941abc7d3ab3281565b60055481565b6117a1611e5a565b6000546001600160a01b039081169116146117f1576040805162461bcd60e51b81526020600482018190526024820152600080516020612399833981519152604482015290519081900360640190fd5b600455565b60045481565b732791bca1f2de4661ed88a30c99a7a9449aa8417481565b6000546001600160a01b031690565b600b6020526000908152604090205460ff1681565b61271081565b60086020526000908152604090205481565b611858611e5a565b6000546001600160a01b039081169116146118a8576040805162461bcd60e51b81526020600482018190526024820152600080516020612399833981519152604482015290519081900360640190fd5b600755565b6118b5611e5a565b6000546001600160a01b03908116911614611905576040805162461bcd60e51b81526020600482018190526024820152600080516020612399833981519152604482015290519081900360640190fd5b6001600160a01b03919091166000908152600b60205260409020805460ff1916911515919091179055565b600d5481565b73c2132d05d31c914a87c6611c10748aeb04b58e8f81565b6000600161195a610ee8565b038211156119995760405162461bcd60e51b81526004018080602001828103825260268152602001806123b96026913960400191505060405180910390fd5b610ee2600183611fb5565b60006119ae611e5a565b6000546001600160a01b039081169116146119fe576040805162461bcd60e51b81526020600482018190526024820152600080516020612399833981519152604482015290519081900360640190fd5b6001600160a01b038216611a435760405162461bcd60e51b81526004018080602001828103825260358152602001806124256035913960400191505060405180910390fd5b610ee2600183611fc1565b600080611a5a83610a72565b90506000611a6784611afa565b905080611a7657509050610dad565b600081831115611a9b57611a94826109f56103e86109ef8784611e5e565b9050611ab2565b611aaf836109f56103e86109ef8684611e5e565b90505b6064811115611af25760405162461bcd60e51b81526004018080602001828103825260458152602001806123336045913960600191505060405180910390fd5b509392505050565b60006001600160a01b03821673c2132d05d31c914a87c6611c10748aeb04b58e8f1480611b4357506001600160a01b038216732791bca1f2de4661ed88a30c99a7a9449aa84174145b15611b5357506305f5e100610dad565b6001600160a01b038083166000908152600a60205260409020541680611b7d576000915050610dad565b60008190506000816001600160a01b031663feaf968c6040518163ffffffff1660e01b815260040160a06040518083038186803b158015611bbd57600080fd5b505afa158015611bd1573d6000803e3d6000fd5b505050506040513d60a0811015611be757600080fd5b506020015195945050505050565b611bfd611e5a565b6000546001600160a01b03908116911614611c4d576040805162461bcd60e51b81526020600482018190526024820152600080516020612399833981519152604482015290519081900360640190fd5b6001600160a01b038116611c925760405162461bcd60e51b815260040180806020018281038252602681526020018061230d6026913960400191505060405180910390fd5b600080546040516001600160a01b03808516939216917f8be0079c531659141344cd1fd0a4f28419497f9722a3daafe3b4186f6b6457e091a3600080546001600160a01b0319166001600160a01b0392909216919091179055565b611cf5611e5a565b6000546001600160a01b03908116911614611d45576040805162461bcd60e51b81526020600482018190526024820152600080516020612399833981519152604482015290519081900360640190fd5b6000826001600160a01b03166370a08231306040518263ffffffff1660e01b815260040180826001600160a01b0316815260200191505060206040518083038186803b158015611d9457600080fd5b505afa158015611da8573d6000803e3d6000fd5b505050506040513d6020811015611dbe57600080fd5b50516040805163a9059cbb60e01b81526001600160a01b0385811660048301526024820184905291519293509085169163a9059cbb916044808201926020929091908290030181600087803b158015611e1657600080fd5b505af1158015611e2a573d6000803e3d6000fd5b505050506040513d6020811015611e4057600080fd5b5050505050565b60075481565b6000610ee2600183611fd6565b3390565b600061162b83836040518060400160405280601e81526020017f536166654d6174683a207375627472616374696f6e206f766572666c6f770000815250611feb565b60008282018381101561162b576040805162461bcd60e51b815260206004820152601b60248201527f536166654d6174683a206164646974696f6e206f766572666c6f770000000000604482015290519081900360640190fd5b600082611f0957506000610ee2565b82820282848281611f1657fe5b041461162b5760405162461bcd60e51b81526004018080602001828103825260218152602001806123786021913960400191505060405180910390fd5b600061162b83836040518060400160405280601a81526020017f536166654d6174683a206469766973696f6e206279207a65726f000000000000815250612082565b600061162b836001600160a01b0384166120e7565b6000610ee2826121ad565b600061162b83836121b1565b600061162b836001600160a01b038416612215565b600061162b836001600160a01b03841661225f565b6000818484111561207a5760405162461bcd60e51b81526004018080602001828103825283818151815260200191508051906020019080838360005b8381101561203f578181015183820152602001612027565b50505050905090810190601f16801561206c5780820380516001836020036101000a031916815260200191505b509250505060405180910390fd5b505050900390565b600081836120d15760405162461bcd60e51b815260206004820181815283516024840152835190928392604490910191908501908083836000831561203f578181015183820152602001612027565b5060008385816120dd57fe5b0495945050505050565b600081815260018301602052604081205480156121a3578354600019808301919081019060009087908390811061211a57fe5b906000526020600020015490508087600001848154811061213757fe5b60009182526020808320909101929092558281526001898101909252604090209084019055865487908061216757fe5b60019003818190600052602060002001600090559055866001016000878152602001908152602001600020600090556001945050505050610ee2565b6000915050610ee2565b5490565b815460009082106121f35760405162461bcd60e51b81526004018080602001828103825260228152602001806122b06022913960400191505060405180910390fd5b82600001828154811061220257fe5b9060005260206000200154905092915050565b6000612221838361225f565b61225757508154600181810184556000848152602080822090930184905584548482528286019093526040902091909155610ee2565b506000610ee2565b60009081526001919091016020526040902054151590565b6040518060a001604052806000815260200160008152602001600081526020016000815260200160006001600160a01b03168152509056fe456e756d657261626c655365743a20696e646578206f7574206f6620626f756e647345584d616e616765723a205553445420616d6f756e74206d75737420626520626967676572207468616e206d696e4465706f73697456616c75652e4f776e61626c653a206e6577206f776e657220697320746865207a65726f206164647265737345584d616e616765723a2074686520707269636520676170206265747765656e20636861696e6c696e6b20616e6420414d4d206973206c61726765207468616e203130252e536166654d6174683a206d756c7469706c69636174696f6e206f766572666c6f774f776e61626c653a2063616c6c6572206973206e6f7420746865206f776e65724d6978696e417574686f72697a61626c653a20696e646578206f7574206f6620626f756e647345584d616e616765723a20796f7572206c65667420747261646520706f696e7473206d75737420626520626967676572207468616e205f7472616e73666572416d6f756e742e4d6978696e417574686f72697a61626c653a205f616464417574686f72697a656420697320746865207a65726f20616464726573734d6978696e417574686f72697a61626c653a205f64656c417574686f72697a656420697320746865207a65726f2061646472657373a264697066735822122084228f0f58e11859974e633f43e240072264c1b3334308339eaa8c66b0ce12d664736f6c634300060c0033",
  "immutableReferences": {},
  "source": "// SPDX-License-Identifier: MIT\npragma solidity ^0.6.0;\n\nimport \"../common/BasicStruct.sol\";\nimport \"../SwapInterfaces.sol\";\nimport \"../common/MixinAuthorizable.sol\";\n\n// \ncontract EXManager is MixinAuthorizable {\n    using SafeMath for uint256;\n\n    address public constant USDT = 0xc2132D05D31c914a87C6611C10748AEb04B58e8F;\n    address public constant USDC = 0x2791Bca1f2de4661ED88A30C99A7a9449Aa84174;\n    address public constant swapFactory = 0x5757371414417b8C6CAad45bAeF941aBc7d3Ab32;      // quickswap\n\n    mapping(address => uint256) public usableTradePointsMap;  // \n    \n    uint256 public constant FACTOR = 1e8;\n    uint256 public feePercent = 5;\n    uint256 constant public BasePercent = 10000;\n    uint256 public maxFreePointPerAccount = 10;\n    uint256 public minDepositValue = 1e6;       // U\n    uint256 public maxOrderNumberPerMatch = 5;    // \n    \n    mapping(address => uint256) public accountFreePointMap;   // \n    mapping(address => uint256) public tokenMinAmountMap;     // \n    mapping(address => address) public tokenAggregatorMap;    // tokenchainlink\n    mapping(address => bool) public routerWhiteList;          // router\n\n    address public boboToken;\n    uint256 public maxBoboTokenAmount = 1e23;  // Bobo10Bobo9\n    \n    mapping(uint256 => SpreadInfo) public spreadInfoMap;\n    struct SpreadInfo {\n        uint256 spreadCode;         // \n        uint256 endBlock;           // \n        uint256 userRate;           // \n        uint256 commissionRate;     // \n        address spreaderAddr;       // \n    }\n\n    constructor (address _boboToken) public {\n        usableTradePointsMap[msg.sender] = 10000;   // 1U\n        boboToken = _boboToken;\n    }\n\n    function setMaxBoboTokenAmount(uint256 _maxBoboTokenAmount) public onlyOwner {\n        maxBoboTokenAmount = _maxBoboTokenAmount;\n    }\n\n    function setRouter(address _router, bool _bInWhiteList) public onlyOwner {\n        routerWhiteList[_router] = _bInWhiteList;\n    }\n\n    // Bobo50%5%\n    function getScalePercent(address _userAddr) view public returns(uint256) {\n        uint256 boboAmount = ERC20(boboToken).balanceOf(_userAddr);\n        if (boboAmount < maxBoboTokenAmount.div(10)) return 10000;\n\n        if (boboAmount > maxBoboTokenAmount.div(10)) boboAmount = maxBoboTokenAmount;\n\n        return 10000 - boboAmount.mul(5000).div(maxBoboTokenAmount);\n    }\n    \n    function setTokenMinAmount(address _tokenAddr, uint256 _minAmount) public onlyOwner {\n        tokenMinAmountMap[_tokenAddr] = _minAmount;\n    }\n    \n    function setMaxOrderNumberPerMatch(uint256 _maxNumber) public onlyOwner {\n        maxOrderNumberPerMatch = _maxNumber;\n    }\n    \n    function setSpreadInfo(uint256 _spreadCode, uint256 _endBlock, uint256 _userRate, uint256 _commissionRate, address _spreaderAddr) public onlyOwner {\n        require(_spreadCode > 0 && _endBlock > block.number, \"EXManager: parameter ERROR\");\n        spreadInfoMap[_spreadCode] = SpreadInfo(_spreadCode, _endBlock, _userRate, _commissionRate, _spreaderAddr);\n    }\n    \n    // U\n    function buyTradePoints(uint256 _usdtAmount, uint256 _spreadCode) public {\n        require(_usdtAmount >= minDepositValue, \"EXManager: USDT amount must be bigger than minDepositValue.\");\n        ERC20(USDT).transferFrom(msg.sender, address(this), _usdtAmount);        \n        SpreadInfo memory spreadInfo = spreadInfoMap[_spreadCode];\n        if (spreadInfo.endBlock > block.number) {\n            usableTradePointsMap[msg.sender] = usableTradePointsMap[msg.sender].add(_usdtAmount.add(_usdtAmount.mul(spreadInfo.userRate).div(100)));\n            uint256 awardAmount = _usdtAmount.mul(spreadInfo.commissionRate).div(100);\n            ERC20(USDT).transfer(spreadInfo.spreaderAddr, awardAmount);  \n        } else {\n            usableTradePointsMap[msg.sender] = usableTradePointsMap[msg.sender].add(_usdtAmount);\n        }\n    }\n\n    // \n    function transferTradePoints(address _userAddr, uint256 _transferAmount) public {\n        require(usableTradePointsMap[msg.sender] >= _transferAmount, \"EXManager: your left trade points must be bigger than _transferAmount.\");\n\n        usableTradePointsMap[msg.sender] = usableTradePointsMap[msg.sender].sub(_transferAmount);\n        usableTradePointsMap[_userAddr] = usableTradePointsMap[_userAddr].add(_transferAmount);\n    }\n\n    // \n    // (stopFreeBlockNum)(maxFreePointPerAccount)\n    function deductTradeFee(address _userAddr, address _token, uint256 _amountIn) public onlyAuthorized returns(uint256) {\n        if (accountFreePointMap[_userAddr] < maxFreePointPerAccount) {\n            accountFreePointMap[_userAddr]++;\n            return 0;\n        }\n\n        uint256 usdtDecimals = ERC20(USDT).decimals();\n        uint256 tokenDecimals = ERC20(_token).decimals();\n        uint256 tokenPrice = getTokenPrice(_token);  // *10^8\n        \n        uint256 scalePercent = getScalePercent(_userAddr);  // BOBO\n        uint256 tokenAmount4Fee = _amountIn.mul(feePercent).mul(scalePercent).div(BasePercent).div(BasePercent);\n                                 \n        uint256 usdtAmount4Fee = tokenPrice.mul(tokenAmount4Fee).mul(10**usdtDecimals).div(FACTOR).div(10**tokenDecimals);\n        if (usableTradePointsMap[_userAddr] >= usdtAmount4Fee) {\n            usableTradePointsMap[_userAddr] = usableTradePointsMap[_userAddr].sub(usdtAmount4Fee);\n            return 0;\n        } else {\n            return tokenAmount4Fee;\n        }\n    }\n\n    // \n    // tokentokenusdt,token0usdt\n    function evaluateDeductedAmountIn(address _userAddr, address _token, uint256 _amountIn) view public returns(uint256, uint256) {\n        uint256 usdtDecimals = ERC20(USDT).decimals();\n        uint256 tokenDecimals = ERC20(_token).decimals();\n        uint256 tokenPrice = getTokenPrice(_token);  // *10^8\n        \n        uint256 scalePercent = getScalePercent(_userAddr);  // BOBO\n        uint256 tokenAmount4Fee = _amountIn.mul(feePercent).mul(scalePercent).div(BasePercent).div(BasePercent);  // token\n\n        uint256 usdtAmount4Fee = tokenPrice.mul(tokenAmount4Fee).mul(10**usdtDecimals).div(FACTOR).div(10**tokenDecimals);   // usdt(token)\n        if (usableTradePointsMap[_userAddr] >= usdtAmount4Fee) {\n            return (0, usdtAmount4Fee);\n        } else {\n            return (tokenAmount4Fee, usdtAmount4Fee);\n        }\n    }\n\n    function getTokenPrice(address _token) public view returns(uint256) {\n        uint256 priceOnAMM = getTokenPriceOnAMM(_token);\n        uint256 priceOnChainlink = getTokenPriceOnChainlink(_token);\n        if(priceOnChainlink == 0) return priceOnAMM;\n\n        uint256 gap = 0;\n        if (priceOnAMM > priceOnChainlink) {\n            gap = priceOnAMM.sub(priceOnChainlink).mul(1000).div(priceOnChainlink);\n        } else {\n            gap = priceOnChainlink.sub(priceOnAMM).mul(1000).div(priceOnAMM);\n        }\n        require(gap <= 100, \"EXManager: the price gap between chainlink and AMM is large than 10%.\");\n        return priceOnChainlink;\n    }\n\n    function getTokenPriceOnAMM(address _token) public view returns(uint256) {\n        if (_token == USDT || _token == USDC) return 1 * FACTOR;\n\n        (address token0, address token1) = USDT < _token ? (USDT, _token) : (_token, USDT);\n        address pairAddr = ICommonFactory(swapFactory).getPair(token0, token1);\n        (uint256 reserveA, uint256 reserveB,) = ICommonPair(pairAddr).getReserves();\n        uint256 decimalsGap = ERC20(_token).decimals() - ERC20(USDT).decimals();\n        // chainlink10^8FACTOR, FACTORU1.1U,1.12U\n        return token0 == USDT ? reserveA.mul(FACTOR).mul(10**decimalsGap).div(reserveB) : reserveB.mul(FACTOR).mul(10**decimalsGap).div(reserveA);\n    }\n    \n    // chainlinkU10^8\n    function getTokenPriceOnChainlink(address _token) public view returns(uint256) {\n        if (_token == USDT || _token == USDC) return 1 * FACTOR;\n\n        address aggregatorAddr = tokenAggregatorMap[_token];\n        if (aggregatorAddr == address(0)) return 0;\n\n        AggregatorV3Interface priceFeed = AggregatorV3Interface(aggregatorAddr);\n        (, int price,,,) = priceFeed.latestRoundData();\n        return uint256(price);\n    }\n\n    function setFeePercent(uint256 _feePercent) public onlyOwner {\n        feePercent = _feePercent;\n    }\n    \n    function withdraw(address _token, address _receiver) public onlyOwner {\n        uint256 amount = ERC20(_token).balanceOf(address(this));\n        ERC20(_token).transfer(_receiver, amount);\n    }\n    \n    function addAggregtor(address _token, address _aggregator) public onlyOwner {\n        tokenAggregatorMap[_token] = _aggregator;\n    }\n}",
  "sourcePath": "/Users/mryu/blockchain/bobo-metaverse/boboswap-contract/contracts/manager/EXManager.sol",
  "compiler": {
    "name": "solc",
    "version": "0.6.12+commit.27d51765.Emscripten.clang"
  },
  "schemaVersion": "3.4.3",
  "updatedAt": "2021-10-22T07:48:09.800Z",
  "networkType": "ethereum",
  "devdoc": {
    "kind": "dev",
    "methods": {
      "owner()": {
        "details": "Returns the address of the current owner."
      },
      "renounceOwnership()": {
        "details": "Leaves the contract without owner. It will not be possible to call `onlyOwner` functions anymore. Can only be called by the current owner. NOTE: Renouncing ownership will leave the contract without an owner, thereby removing any functionality that is only available to the owner."
      },
      "transferOwnership(address)": {
        "details": "Transfers ownership of the contract to a new account (`newOwner`). Can only be called by the current owner."
      }
    },
    "version": 1
  },
  "userdoc": {
    "kind": "user",
    "methods": {},
    "version": 1
  }
}