{
  "contractName": "EXManager",
  "abi": [
    {
      "inputs": [
        {
          "internalType": "address",
          "name": "_boboToken",
          "type": "address"
        }
      ],
      "stateMutability": "nonpayable",
      "type": "constructor"
    },
    {
      "anonymous": false,
      "inputs": [
        {
          "indexed": true,
          "internalType": "address",
          "name": "previousOwner",
          "type": "address"
        },
        {
          "indexed": true,
          "internalType": "address",
          "name": "newOwner",
          "type": "address"
        }
      ],
      "name": "OwnershipTransferred",
      "type": "event"
    },
    {
      "inputs": [],
      "name": "BasePercent",
      "outputs": [
        {
          "internalType": "uint256",
          "name": "",
          "type": "uint256"
        }
      ],
      "stateMutability": "view",
      "type": "function",
      "constant": true
    },
    {
      "inputs": [],
      "name": "FACTOR",
      "outputs": [
        {
          "internalType": "uint256",
          "name": "",
          "type": "uint256"
        }
      ],
      "stateMutability": "view",
      "type": "function",
      "constant": true
    },
    {
      "inputs": [],
      "name": "USDC",
      "outputs": [
        {
          "internalType": "address",
          "name": "",
          "type": "address"
        }
      ],
      "stateMutability": "view",
      "type": "function",
      "constant": true
    },
    {
      "inputs": [],
      "name": "USDT",
      "outputs": [
        {
          "internalType": "address",
          "name": "",
          "type": "address"
        }
      ],
      "stateMutability": "view",
      "type": "function",
      "constant": true
    },
    {
      "inputs": [
        {
          "internalType": "address",
          "name": "",
          "type": "address"
        }
      ],
      "name": "accountFreePointMap",
      "outputs": [
        {
          "internalType": "uint256",
          "name": "",
          "type": "uint256"
        }
      ],
      "stateMutability": "view",
      "type": "function",
      "constant": true
    },
    {
      "inputs": [
        {
          "internalType": "address",
          "name": "_authorizedAddr",
          "type": "address"
        }
      ],
      "name": "addAuthorized",
      "outputs": [
        {
          "internalType": "bool",
          "name": "",
          "type": "bool"
        }
      ],
      "stateMutability": "nonpayable",
      "type": "function"
    },
    {
      "inputs": [],
      "name": "boboToken",
      "outputs": [
        {
          "internalType": "address",
          "name": "",
          "type": "address"
        }
      ],
      "stateMutability": "view",
      "type": "function",
      "constant": true
    },
    {
      "inputs": [
        {
          "internalType": "address",
          "name": "_authorizedAddr",
          "type": "address"
        }
      ],
      "name": "delAuthorized",
      "outputs": [
        {
          "internalType": "bool",
          "name": "",
          "type": "bool"
        }
      ],
      "stateMutability": "nonpayable",
      "type": "function"
    },
    {
      "inputs": [],
      "name": "feePercent",
      "outputs": [
        {
          "internalType": "uint256",
          "name": "",
          "type": "uint256"
        }
      ],
      "stateMutability": "view",
      "type": "function",
      "constant": true
    },
    {
      "inputs": [
        {
          "internalType": "uint256",
          "name": "_index",
          "type": "uint256"
        }
      ],
      "name": "getAuthorized",
      "outputs": [
        {
          "internalType": "address",
          "name": "",
          "type": "address"
        }
      ],
      "stateMutability": "view",
      "type": "function",
      "constant": true
    },
    {
      "inputs": [],
      "name": "getAuthorizedLength",
      "outputs": [
        {
          "internalType": "uint256",
          "name": "",
          "type": "uint256"
        }
      ],
      "stateMutability": "view",
      "type": "function",
      "constant": true
    },
    {
      "inputs": [
        {
          "internalType": "address",
          "name": "_authorizedAddr",
          "type": "address"
        }
      ],
      "name": "isAuthorized",
      "outputs": [
        {
          "internalType": "bool",
          "name": "",
          "type": "bool"
        }
      ],
      "stateMutability": "view",
      "type": "function",
      "constant": true
    },
    {
      "inputs": [],
      "name": "maxBoboTokenAmount",
      "outputs": [
        {
          "internalType": "uint256",
          "name": "",
          "type": "uint256"
        }
      ],
      "stateMutability": "view",
      "type": "function",
      "constant": true
    },
    {
      "inputs": [],
      "name": "maxFreePointPerAccount",
      "outputs": [
        {
          "internalType": "uint256",
          "name": "",
          "type": "uint256"
        }
      ],
      "stateMutability": "view",
      "type": "function",
      "constant": true
    },
    {
      "inputs": [],
      "name": "maxOrderNumberPerMatch",
      "outputs": [
        {
          "internalType": "uint256",
          "name": "",
          "type": "uint256"
        }
      ],
      "stateMutability": "view",
      "type": "function",
      "constant": true
    },
    {
      "inputs": [],
      "name": "minDepositValue",
      "outputs": [
        {
          "internalType": "uint256",
          "name": "",
          "type": "uint256"
        }
      ],
      "stateMutability": "view",
      "type": "function",
      "constant": true
    },
    {
      "inputs": [],
      "name": "owner",
      "outputs": [
        {
          "internalType": "address",
          "name": "",
          "type": "address"
        }
      ],
      "stateMutability": "view",
      "type": "function",
      "constant": true
    },
    {
      "inputs": [],
      "name": "renounceOwnership",
      "outputs": [],
      "stateMutability": "nonpayable",
      "type": "function"
    },
    {
      "inputs": [
        {
          "internalType": "address",
          "name": "",
          "type": "address"
        }
      ],
      "name": "routerWhiteList",
      "outputs": [
        {
          "internalType": "bool",
          "name": "",
          "type": "bool"
        }
      ],
      "stateMutability": "view",
      "type": "function",
      "constant": true
    },
    {
      "inputs": [],
      "name": "stopFreeBlockNum",
      "outputs": [
        {
          "internalType": "uint256",
          "name": "",
          "type": "uint256"
        }
      ],
      "stateMutability": "view",
      "type": "function",
      "constant": true
    },
    {
      "inputs": [],
      "name": "swapFactory",
      "outputs": [
        {
          "internalType": "address",
          "name": "",
          "type": "address"
        }
      ],
      "stateMutability": "view",
      "type": "function",
      "constant": true
    },
    {
      "inputs": [
        {
          "internalType": "address",
          "name": "",
          "type": "address"
        }
      ],
      "name": "tokenAggregatorMap",
      "outputs": [
        {
          "internalType": "address",
          "name": "",
          "type": "address"
        }
      ],
      "stateMutability": "view",
      "type": "function",
      "constant": true
    },
    {
      "inputs": [
        {
          "internalType": "address",
          "name": "",
          "type": "address"
        }
      ],
      "name": "tokenMinAmountMap",
      "outputs": [
        {
          "internalType": "uint256",
          "name": "",
          "type": "uint256"
        }
      ],
      "stateMutability": "view",
      "type": "function",
      "constant": true
    },
    {
      "inputs": [
        {
          "internalType": "address",
          "name": "newOwner",
          "type": "address"
        }
      ],
      "name": "transferOwnership",
      "outputs": [],
      "stateMutability": "nonpayable",
      "type": "function"
    },
    {
      "inputs": [
        {
          "internalType": "address",
          "name": "",
          "type": "address"
        }
      ],
      "name": "usableTradePointsMap",
      "outputs": [
        {
          "internalType": "uint256",
          "name": "",
          "type": "uint256"
        }
      ],
      "stateMutability": "view",
      "type": "function",
      "constant": true
    },
    {
      "inputs": [
        {
          "internalType": "uint256",
          "name": "_maxBoboTokenAmount",
          "type": "uint256"
        }
      ],
      "name": "setMaxBoboTokenAmount",
      "outputs": [],
      "stateMutability": "nonpayable",
      "type": "function"
    },
    {
      "inputs": [
        {
          "internalType": "address",
          "name": "_router",
          "type": "address"
        },
        {
          "internalType": "bool",
          "name": "_bInWhiteList",
          "type": "bool"
        }
      ],
      "name": "setRouter",
      "outputs": [],
      "stateMutability": "nonpayable",
      "type": "function"
    },
    {
      "inputs": [
        {
          "internalType": "address",
          "name": "_userAddr",
          "type": "address"
        }
      ],
      "name": "getScalePercent",
      "outputs": [
        {
          "internalType": "uint256",
          "name": "",
          "type": "uint256"
        }
      ],
      "stateMutability": "view",
      "type": "function",
      "constant": true
    },
    {
      "inputs": [
        {
          "internalType": "address",
          "name": "_tokenAddr",
          "type": "address"
        },
        {
          "internalType": "uint256",
          "name": "_minAmount",
          "type": "uint256"
        }
      ],
      "name": "setTokenMinAmount",
      "outputs": [],
      "stateMutability": "nonpayable",
      "type": "function"
    },
    {
      "inputs": [
        {
          "internalType": "uint256",
          "name": "_maxNumber",
          "type": "uint256"
        }
      ],
      "name": "setMaxOrderNumberPerMatch",
      "outputs": [],
      "stateMutability": "nonpayable",
      "type": "function"
    },
    {
      "inputs": [
        {
          "internalType": "uint256",
          "name": "_usdtAmount",
          "type": "uint256"
        }
      ],
      "name": "buyTradePoints",
      "outputs": [],
      "stateMutability": "nonpayable",
      "type": "function"
    },
    {
      "inputs": [
        {
          "internalType": "address",
          "name": "_userAddr",
          "type": "address"
        },
        {
          "internalType": "uint256",
          "name": "_transferAmount",
          "type": "uint256"
        }
      ],
      "name": "transferTradePoints",
      "outputs": [],
      "stateMutability": "nonpayable",
      "type": "function"
    },
    {
      "inputs": [
        {
          "internalType": "address",
          "name": "_userAddr",
          "type": "address"
        },
        {
          "internalType": "address",
          "name": "_token",
          "type": "address"
        },
        {
          "internalType": "uint256",
          "name": "_amountIn",
          "type": "uint256"
        }
      ],
      "name": "deductTradeFee",
      "outputs": [
        {
          "internalType": "uint256",
          "name": "",
          "type": "uint256"
        }
      ],
      "stateMutability": "nonpayable",
      "type": "function"
    },
    {
      "inputs": [
        {
          "internalType": "address",
          "name": "_userAddr",
          "type": "address"
        },
        {
          "internalType": "address",
          "name": "_token",
          "type": "address"
        },
        {
          "internalType": "uint256",
          "name": "_amountIn",
          "type": "uint256"
        }
      ],
      "name": "evaluateDeductedAmountIn",
      "outputs": [
        {
          "internalType": "uint256",
          "name": "",
          "type": "uint256"
        },
        {
          "internalType": "uint256",
          "name": "",
          "type": "uint256"
        }
      ],
      "stateMutability": "view",
      "type": "function",
      "constant": true
    },
    {
      "inputs": [
        {
          "internalType": "address",
          "name": "_token",
          "type": "address"
        }
      ],
      "name": "getTokenPrice",
      "outputs": [
        {
          "internalType": "uint256",
          "name": "",
          "type": "uint256"
        }
      ],
      "stateMutability": "view",
      "type": "function",
      "constant": true
    },
    {
      "inputs": [
        {
          "internalType": "address",
          "name": "_token",
          "type": "address"
        }
      ],
      "name": "getTokenPriceOnAMM",
      "outputs": [
        {
          "internalType": "uint256",
          "name": "",
          "type": "uint256"
        }
      ],
      "stateMutability": "view",
      "type": "function",
      "constant": true
    },
    {
      "inputs": [
        {
          "internalType": "address",
          "name": "_token",
          "type": "address"
        }
      ],
      "name": "getTokenPriceOnChainlink",
      "outputs": [
        {
          "internalType": "uint256",
          "name": "",
          "type": "uint256"
        }
      ],
      "stateMutability": "view",
      "type": "function",
      "constant": true
    },
    {
      "inputs": [
        {
          "internalType": "uint256",
          "name": "_blockNum",
          "type": "uint256"
        }
      ],
      "name": "setStopFreeBlockNum",
      "outputs": [],
      "stateMutability": "nonpayable",
      "type": "function"
    },
    {
      "inputs": [
        {
          "internalType": "uint256",
          "name": "_feePercent",
          "type": "uint256"
        }
      ],
      "name": "setFeePercent",
      "outputs": [],
      "stateMutability": "nonpayable",
      "type": "function"
    },
    {
      "inputs": [
        {
          "internalType": "address",
          "name": "_token",
          "type": "address"
        },
        {
          "internalType": "address",
          "name": "_receiver",
          "type": "address"
        }
      ],
      "name": "withdraw",
      "outputs": [],
      "stateMutability": "nonpayable",
      "type": "function"
    },
    {
      "inputs": [
        {
          "internalType": "address",
          "name": "_token",
          "type": "address"
        },
        {
          "internalType": "address",
          "name": "_aggregator",
          "type": "address"
        }
      ],
      "name": "addAggregtor",
      "outputs": [],
      "stateMutability": "nonpayable",
      "type": "function"
    }
  ],
  "bytecode": "0x60806040526005600455600a600555620f4240600655600560075569152d02c7e14af6800000600e5534801561003457600080fd5b506040516122b33803806122b38339818101604052602081101561005757600080fd5b505160006100636100ef565b600080546001600160a01b0319166001600160a01b0383169081178255604051929350917f8be0079c531659141344cd1fd0a4f28419497f9722a3daafe3b4186f6b6457e0908290a350336000908152600360205260409020612710905543620493e001600c55600d80546001600160a01b0319166001600160a01b03929092169190911790556100f3565b3390565b6121b1806101026000396000f3fe608060405234801561001057600080fd5b50600436106102535760003560e01c80637944f94411610146578063c3c64674116100c3578063d02641a011610087578063d02641a014610649578063f0f46e9e1461066f578063f2fde38b14610695578063f940e385146106bb578063fd08be67146106e9578063fe9fbb80146106f157610253565b8063c3c64674146105c8578063c4c0dbb7146105f6578063c54e44eb146105fe578063c63cc56414610606578063cf1c316a1461062357610253565b80638da5cb5b1161010a5780638da5cb5b1461054f5780639778867a146105575780639eedc4921461057d578063ae05b15814610585578063bf9c6bf1146105ab57610253565b80637944f944146105125780637c62028e1461051a5780637ce3489b146105225780637fd6f15c1461053f57806389a302711461054757610253565b806354a3944b116101d457806366e2bcb31161019857806366e2bcb31461046b5780636831d48a146104915780636de4f89a146104c7578063715018a6146104e4578063774f89ee146104ec57610253565b806354a3944b146103d657806355fc232c146103de578063586ee0e61461040257806359368a9a14610428578063614456801461044557610253565b806326a3c1a71161021b57806326a3c1a7146103385780632e8e24f51461035e57806331a40b621461038c5780633397e527146103c657806335815b95146103ce57610253565b8063070c82a8146102585780630b2cf6a9146102725780631a65bf7b146102915780631d2e445f146102bd5780631ee9e9e6146102e9575b600080fd5b610260610717565b60408051918252519081900360200190f35b61028f6004803603602081101561028857600080fd5b503561071d565b005b61028f600480360360408110156102a757600080fd5b506001600160a01b038135169060200135610817565b61028f600480360360408110156102d357600080fd5b506001600160a01b03813516906020013561088b565b61031f600480360360608110156102ff57600080fd5b506001600160a01b0381358116916020810135909116906040013561093f565b6040805192835260208301919091528051918290030190f35b6102606004803603602081101561034e57600080fd5b50356001600160a01b0316610afc565b61028f6004803603604081101561037457600080fd5b506001600160a01b0381358116916020013516610e3c565b6103b2600480360360208110156103a257600080fd5b50356001600160a01b0316610ec2565b604080519115158252519081900360200190f35b610260610f72565b610260610f83565b610260610f8b565b6103e6610f91565b604080516001600160a01b039092168252519081900360200190f35b6103e66004803603602081101561041857600080fd5b50356001600160a01b0316610fa0565b61028f6004803603602081101561043e57600080fd5b5035610fbb565b6102606004803603602081101561045b57600080fd5b50356001600160a01b0316611018565b6102606004803603602081101561048157600080fd5b50356001600160a01b031661102a565b610260600480360360608110156104a757600080fd5b506001600160a01b03813581169160208101359091169060400135611100565b61028f600480360360208110156104dd57600080fd5b503561138f565b61028f6113ec565b6102606004803603602081101561050257600080fd5b50356001600160a01b031661148e565b6103e66114a0565b6102606114b8565b61028f6004803603602081101561053857600080fd5b50356114be565b61026061151b565b6103e6611521565b6103e6611539565b6103b26004803603602081101561056d57600080fd5b50356001600160a01b0316611548565b61026061155d565b6102606004803603602081101561059b57600080fd5b50356001600160a01b0316611563565b61028f600480360360208110156105c157600080fd5b5035611575565b61028f600480360360408110156105de57600080fd5b506001600160a01b03813516906020013515156115d2565b610260611655565b6103e661165b565b6103e66004803603602081101561061c57600080fd5b5035611673565b6103b26004803603602081101561063957600080fd5b50356001600160a01b03166116c9565b6102606004803603602081101561065f57600080fd5b50356001600160a01b0316611773565b6102606004803603602081101561068557600080fd5b50356001600160a01b031661181f565b61028f600480360360208110156106ab57600080fd5b50356001600160a01b031661191a565b61028f600480360360408110156106d157600080fd5b506001600160a01b0381358116916020013516611a12565b610260611b6c565b6103b26004803603602081101561070757600080fd5b50356001600160a01b0316611b72565b60065481565b60065481101561075e5760405162461bcd60e51b815260040180806020018281038252603b815260200180611fbf603b913960400191505060405180910390fd5b604080516323b872dd60e01b815233600482015230602482015260448101839052905173c2132d05d31c914a87c6611c10748aeb04b58e8f916323b872dd9160648083019260209291908290030181600087803b1580156107be57600080fd5b505af11580156107d2573d6000803e3d6000fd5b505050506040513d60208110156107e857600080fd5b5050336000908152600360205260409020546108049082611b7f565b3360009081526003602052604090205550565b61081f611bd9565b6000546001600160a01b0390811691161461086f576040805162461bcd60e51b81526020600482018190526024820152600080516020612086833981519152604482015290519081900360640190fd5b6001600160a01b03909116600090815260096020526040902055565b336000908152600360205260409020548111156108d95760405162461bcd60e51b81526004018080602001828103825260468152602001806120cc6046913960600191505060405180910390fd5b336000908152600360205260409020546108f39082611bdd565b33600090815260036020526040808220929092556001600160a01b0384168152205461091f9082611b7f565b6001600160a01b0390921660009081526003602052604090209190915550565b600080600073c2132d05d31c914a87c6611c10748aeb04b58e8f6001600160a01b031663313ce5676040518163ffffffff1660e01b815260040160206040518083038186803b15801561099157600080fd5b505afa1580156109a5573d6000803e3d6000fd5b505050506040513d60208110156109bb57600080fd5b50516040805163313ce56760e01b8152905160ff90921692506000916001600160a01b0388169163313ce567916004808301926020929190829003018186803b158015610a0757600080fd5b505afa158015610a1b573d6000803e3d6000fd5b505050506040513d6020811015610a3157600080fd5b505160ff1690506000610a4387611773565b90506000610a508961102a565b90506000610a85612710610a7f612710610a7f86610a796004548f611c1f90919063ffffffff16565b90611c1f565b90611c78565b90506000610ab285600a0a610a7f6305f5e100610a7f8a600a0a610a79888b611c1f90919063ffffffff16565b6001600160a01b038c166000908152600360205260409020549091508111610ae557600097509550610af4945050505050565b9096509450610af49350505050565b935093915050565b60006001600160a01b03821673c2132d05d31c914a87c6611c10748aeb04b58e8f1480610b4557506001600160a01b038216732791bca1f2de4661ed88a30c99a7a9449aa84174145b15610b5557506305f5e100610e37565b6000806001600160a01b03841673c2132d05d31c914a87c6611c10748aeb04b58e8f10610b97578373c2132d05d31c914a87c6611c10748aeb04b58e8f610bae565b73c2132d05d31c914a87c6611c10748aeb04b58e8f845b915091506000735757371414417b8c6caad45baef941abc7d3ab326001600160a01b031663e6a4390584846040518363ffffffff1660e01b815260040180836001600160a01b03168152602001826001600160a01b031681526020019250505060206040518083038186803b158015610c2657600080fd5b505afa158015610c3a573d6000803e3d6000fd5b505050506040513d6020811015610c5057600080fd5b505160408051630240bc6b60e21b8152905191925060009182916001600160a01b03851691630902f1ac91600480820192606092909190829003018186803b158015610c9b57600080fd5b505afa158015610caf573d6000803e3d6000fd5b505050506040513d6060811015610cc557600080fd5b5080516020918201516040805163313ce56760e01b815290516dffffffffffffffffffffffffffff938416965092909116935060009273c2132d05d31c914a87c6611c10748aeb04b58e8f9263313ce567926004808201939291829003018186803b158015610d3357600080fd5b505afa158015610d47573d6000803e3d6000fd5b505050506040513d6020811015610d5d57600080fd5b50516040805163313ce56760e01b815290516001600160a01b038b169163313ce567916004808301926020929190829003018186803b158015610d9f57600080fd5b505afa158015610db3573d6000803e3d6000fd5b505050506040513d6020811015610dc957600080fd5b50510360ff16905073c2132d05d31c914a87c6611c10748aeb04b58e8f6001600160a01b03871614610e1457610e0f83610a7f600a84900a610a79866305f5e100611c1f565b610e2e565b610e2e82610a7f600a84900a610a79876305f5e100611c1f565b96505050505050505b919050565b610e44611bd9565b6000546001600160a01b03908116911614610e94576040805162461bcd60e51b81526020600482018190526024820152600080516020612086833981519152604482015290519081900360640190fd5b6001600160a01b039182166000908152600a6020526040902080546001600160a01b03191691909216179055565b6000610ecc611bd9565b6000546001600160a01b03908116911614610f1c576040805162461bcd60e51b81526020600482018190526024820152600080516020612086833981519152604482015290519081900360640190fd5b6001600160a01b038216610f615760405162461bcd60e51b81526004018080602001828103825260358152602001806121476035913960400191505060405180910390fd5b610f6c600183611cba565b92915050565b6000610f7e6001611ccf565b905090565b6305f5e10081565b600c5481565b600d546001600160a01b031681565b600a602052600090815260409020546001600160a01b031681565b610fc3611bd9565b6000546001600160a01b03908116911614611013576040805162461bcd60e51b81526020600482018190526024820152600080516020612086833981519152604482015290519081900360640190fd5b600c55565b60036020526000908152604090205481565b600d54604080516370a0823160e01b81526001600160a01b0384811660048301529151600093849316916370a08231916024808301926020929190829003018186803b15801561107957600080fd5b505afa15801561108d573d6000803e3d6000fd5b505050506040513d60208110156110a357600080fd5b5051600e549091506110b690600a611c78565b8110156110c857612710915050610e37565b600e546110d690600a611c78565b8111156110e25750600e545b600e546110f590610a7f83611388611c1f565b612710039392505050565b600061110b33611b72565b611154576040805162461bcd60e51b815260206004820152601560248201527414d15391115497d393d517d055551213d492569151605a1b604482015290519081900360640190fd5b6005546001600160a01b03851660009081526008602052604090205410801561117e5750600c5443105b156111a857506001600160a01b038316600090815260086020526040812080546001019055611388565b600073c2132d05d31c914a87c6611c10748aeb04b58e8f6001600160a01b031663313ce5676040518163ffffffff1660e01b815260040160206040518083038186803b1580156111f757600080fd5b505afa15801561120b573d6000803e3d6000fd5b505050506040513d602081101561122157600080fd5b50516040805163313ce56760e01b8152905160ff90921692506000916001600160a01b0387169163313ce567916004808301926020929190829003018186803b15801561126d57600080fd5b505afa158015611281573d6000803e3d6000fd5b505050506040513d602081101561129757600080fd5b505160ff16905060006112a986611773565b905060006112b68861102a565b905060006112df612710610a7f612710610a7f86610a796004548e611c1f90919063ffffffff16565b9050600061130c85600a0a610a7f6305f5e100610a7f8a600a0a610a79888b611c1f90919063ffffffff16565b6001600160a01b038b16600090815260036020526040902054909150811161137b576001600160a01b038a166000908152600360205260409020546113519082611bdd565b6001600160a01b038b16600090815260036020526040812091909155965061138895505050505050565b5094506113889350505050565b9392505050565b611397611bd9565b6000546001600160a01b039081169116146113e7576040805162461bcd60e51b81526020600482018190526024820152600080516020612086833981519152604482015290519081900360640190fd5b600e55565b6113f4611bd9565b6000546001600160a01b03908116911614611444576040805162461bcd60e51b81526020600482018190526024820152600080516020612086833981519152604482015290519081900360640190fd5b600080546040516001600160a01b03909116907f8be0079c531659141344cd1fd0a4f28419497f9722a3daafe3b4186f6b6457e0908390a3600080546001600160a01b0319169055565b60096020526000908152604090205481565b735757371414417b8c6caad45baef941abc7d3ab3281565b60055481565b6114c6611bd9565b6000546001600160a01b03908116911614611516576040805162461bcd60e51b81526020600482018190526024820152600080516020612086833981519152604482015290519081900360640190fd5b600455565b60045481565b732791bca1f2de4661ed88a30c99a7a9449aa8417481565b6000546001600160a01b031690565b600b6020526000908152604090205460ff1681565b61271081565b60086020526000908152604090205481565b61157d611bd9565b6000546001600160a01b039081169116146115cd576040805162461bcd60e51b81526020600482018190526024820152600080516020612086833981519152604482015290519081900360640190fd5b600755565b6115da611bd9565b6000546001600160a01b0390811691161461162a576040805162461bcd60e51b81526020600482018190526024820152600080516020612086833981519152604482015290519081900360640190fd5b6001600160a01b03919091166000908152600b60205260409020805460ff1916911515919091179055565b600e5481565b73c2132d05d31c914a87c6611c10748aeb04b58e8f81565b6000600161167f610f72565b038211156116be5760405162461bcd60e51b81526004018080602001828103825260268152602001806120a66026913960400191505060405180910390fd5b610f6c600183611cda565b60006116d3611bd9565b6000546001600160a01b03908116911614611723576040805162461bcd60e51b81526020600482018190526024820152600080516020612086833981519152604482015290519081900360640190fd5b6001600160a01b0382166117685760405162461bcd60e51b81526004018080602001828103825260358152602001806121126035913960400191505060405180910390fd5b610f6c600183611ce6565b60008061177f83610afc565b9050600061178c8461181f565b90508061179b57509050610e37565b6000818311156117c0576117b982610a7f6103e8610a798784611bdd565b90506117d7565b6117d483610a7f6103e8610a798684611bdd565b90505b60648111156118175760405162461bcd60e51b81526004018080602001828103825260458152602001806120206045913960600191505060405180910390fd5b509392505050565b60006001600160a01b03821673c2132d05d31c914a87c6611c10748aeb04b58e8f148061186857506001600160a01b038216732791bca1f2de4661ed88a30c99a7a9449aa84174145b1561187857506305f5e100610e37565b6001600160a01b038083166000908152600a602052604090205416806118a2576000915050610e37565b60008190506000816001600160a01b031663feaf968c6040518163ffffffff1660e01b815260040160a06040518083038186803b1580156118e257600080fd5b505afa1580156118f6573d6000803e3d6000fd5b505050506040513d60a081101561190c57600080fd5b506020015195945050505050565b611922611bd9565b6000546001600160a01b03908116911614611972576040805162461bcd60e51b81526020600482018190526024820152600080516020612086833981519152604482015290519081900360640190fd5b6001600160a01b0381166119b75760405162461bcd60e51b8152600401808060200182810382526026815260200180611ffa6026913960400191505060405180910390fd5b600080546040516001600160a01b03808516939216917f8be0079c531659141344cd1fd0a4f28419497f9722a3daafe3b4186f6b6457e091a3600080546001600160a01b0319166001600160a01b0392909216919091179055565b611a1a611bd9565b6000546001600160a01b03908116911614611a6a576040805162461bcd60e51b81526020600482018190526024820152600080516020612086833981519152604482015290519081900360640190fd5b6000826001600160a01b03166370a08231306040518263ffffffff1660e01b815260040180826001600160a01b0316815260200191505060206040518083038186803b158015611ab957600080fd5b505afa158015611acd573d6000803e3d6000fd5b505050506040513d6020811015611ae357600080fd5b50516040805163a9059cbb60e01b81526001600160a01b0385811660048301526024820184905291519293509085169163a9059cbb916044808201926020929091908290030181600087803b158015611b3b57600080fd5b505af1158015611b4f573d6000803e3d6000fd5b505050506040513d6020811015611b6557600080fd5b5050505050565b60075481565b6000610f6c600183611cfb565b600082820183811015611388576040805162461bcd60e51b815260206004820152601b60248201527f536166654d6174683a206164646974696f6e206f766572666c6f770000000000604482015290519081900360640190fd5b3390565b600061138883836040518060400160405280601e81526020017f536166654d6174683a207375627472616374696f6e206f766572666c6f770000815250611d10565b600082611c2e57506000610f6c565b82820282848281611c3b57fe5b04146113885760405162461bcd60e51b81526004018080602001828103825260218152602001806120656021913960400191505060405180910390fd5b600061138883836040518060400160405280601a81526020017f536166654d6174683a206469766973696f6e206279207a65726f000000000000815250611da7565b6000611388836001600160a01b038416611e0c565b6000610f6c82611ed2565b60006113888383611ed6565b6000611388836001600160a01b038416611f3a565b6000611388836001600160a01b038416611f84565b60008184841115611d9f5760405162461bcd60e51b81526004018080602001828103825283818151815260200191508051906020019080838360005b83811015611d64578181015183820152602001611d4c565b50505050905090810190601f168015611d915780820380516001836020036101000a031916815260200191505b509250505060405180910390fd5b505050900390565b60008183611df65760405162461bcd60e51b8152602060048201818152835160248401528351909283926044909101919085019080838360008315611d64578181015183820152602001611d4c565b506000838581611e0257fe5b0495945050505050565b60008181526001830160205260408120548015611ec85783546000198083019190810190600090879083908110611e3f57fe5b9060005260206000200154905080876000018481548110611e5c57fe5b600091825260208083209091019290925582815260018981019092526040902090840190558654879080611e8c57fe5b60019003818190600052602060002001600090559055866001016000878152602001908152602001600020600090556001945050505050610f6c565b6000915050610f6c565b5490565b81546000908210611f185760405162461bcd60e51b8152600401808060200182810382526022815260200180611f9d6022913960400191505060405180910390fd5b826000018281548110611f2757fe5b9060005260206000200154905092915050565b6000611f468383611f84565b611f7c57508154600181810184556000848152602080822090930184905584548482528286019093526040902091909155610f6c565b506000610f6c565b6000908152600191909101602052604090205415159056fe456e756d657261626c655365743a20696e646578206f7574206f6620626f756e647345584d616e616765723a205553445420616d6f756e74206d75737420626520626967676572207468616e206d696e4465706f73697456616c75652e4f776e61626c653a206e6577206f776e657220697320746865207a65726f206164647265737345584d616e616765723a2074686520707269636520676170206265747765656e20636861696e6c696e6b20616e6420414d4d206973206c61726765207468616e203130252e536166654d6174683a206d756c7469706c69636174696f6e206f766572666c6f774f776e61626c653a2063616c6c6572206973206e6f7420746865206f776e65724d6978696e417574686f72697a61626c653a20696e646578206f7574206f6620626f756e647345584d616e616765723a20796f7572206c65667420747261646520706f696e7473206d75737420626520626967676572207468616e205f7472616e73666572416d6f756e742e4d6978696e417574686f72697a61626c653a205f616464417574686f72697a656420697320746865207a65726f20616464726573734d6978696e417574686f72697a61626c653a205f64656c417574686f72697a656420697320746865207a65726f2061646472657373a26469706673582212203a5cce68bdd922c1d6c458c2d9b2e48fbf3a8868af7b0808f188d7f60ce916cd64736f6c634300060c0033",
  "immutableReferences": {},
  "source": "// SPDX-License-Identifier: MIT\npragma solidity ^0.6.0;\n\nimport \"../common/BasicStruct.sol\";\nimport \"../SwapInterfaces.sol\";\nimport \"../common/MixinAuthorizable.sol\";\n\ncontract EXManager is MixinAuthorizable {\n    using SafeMath for uint256;\n\n    address public constant USDT = 0xc2132D05D31c914a87C6611C10748AEb04B58e8F;\n    address public constant USDC = 0x2791Bca1f2de4661ED88A30C99A7a9449Aa84174;\n    address public constant swapFactory = 0x5757371414417b8C6CAad45bAeF941aBc7d3Ab32;      // quickswap\n\n    mapping(address => uint256) public usableTradePointsMap;  // \n    \n    uint256 public constant FACTOR = 1e8;\n    uint256 public feePercent = 5;\n    uint256 constant public BasePercent = 10000;\n    uint256 public maxFreePointPerAccount = 10;\n    uint256 public minDepositValue = 1e6;       // U\n    uint256 public maxOrderNumberPerMatch = 5;    // \n    \n    mapping(address => uint256) public accountFreePointMap;   // \n    mapping(address => uint256) public tokenMinAmountMap;     // \n    mapping(address => address) public tokenAggregatorMap;    // tokenchainlink\n    mapping(address => bool) public routerWhiteList;          // router\n    uint256 public stopFreeBlockNum;\n\n    address public boboToken;\n    uint256 public maxBoboTokenAmount = 1e23;  // Bobo10Bobo9\n    \n    constructor (address _boboToken) public {\n        usableTradePointsMap[msg.sender] = 10000;\n        stopFreeBlockNum = block.number + 300000;\n        boboToken = _boboToken;\n    }\n\n    function setMaxBoboTokenAmount(uint256 _maxBoboTokenAmount) public onlyOwner {\n        maxBoboTokenAmount = _maxBoboTokenAmount;\n    }\n\n    function setRouter(address _router, bool _bInWhiteList) public onlyOwner {\n        routerWhiteList[_router] = _bInWhiteList;\n    }\n\n    // Bobo50%5%\n    function getScalePercent(address _userAddr) view public returns(uint256) {\n        uint256 boboAmount = ERC20(boboToken).balanceOf(_userAddr);\n        if (boboAmount < maxBoboTokenAmount.div(10)) return 10000;\n\n        if (boboAmount > maxBoboTokenAmount.div(10)) boboAmount = maxBoboTokenAmount;\n\n        return 10000 - boboAmount.mul(5000).div(maxBoboTokenAmount);\n    }\n    \n    function setTokenMinAmount(address _tokenAddr, uint256 _minAmount) public onlyOwner {\n        tokenMinAmountMap[_tokenAddr] = _minAmount;\n    }\n    \n    function setMaxOrderNumberPerMatch(uint256 _maxNumber) public onlyOwner {\n        maxOrderNumberPerMatch = _maxNumber;\n    }\n    \n    // U\n    function buyTradePoints(uint256 _usdtAmount) public {\n        require(_usdtAmount >= minDepositValue, \"EXManager: USDT amount must be bigger than minDepositValue.\");\n        ERC20(USDT).transferFrom(msg.sender, address(this), _usdtAmount);\n        usableTradePointsMap[msg.sender] = usableTradePointsMap[msg.sender].add(_usdtAmount);\n    }\n\n    // \n    function transferTradePoints(address _userAddr, uint256 _transferAmount) public {\n        require(usableTradePointsMap[msg.sender] >= _transferAmount, \"EXManager: your left trade points must be bigger than _transferAmount.\");\n\n        usableTradePointsMap[msg.sender] = usableTradePointsMap[msg.sender].sub(_transferAmount);\n        usableTradePointsMap[_userAddr] = usableTradePointsMap[_userAddr].add(_transferAmount);\n    }\n\n    // \n    // (stopFreeBlockNum)(maxFreePointPerAccount)\n    function deductTradeFee(address _userAddr, address _token, uint256 _amountIn) public onlyAuthorized returns(uint256) {\n        if (accountFreePointMap[_userAddr] < maxFreePointPerAccount && block.number < stopFreeBlockNum) {\n            accountFreePointMap[_userAddr]++;\n            return 0;\n        }\n\n        uint256 usdtDecimals = ERC20(USDT).decimals();\n        uint256 tokenDecimals = ERC20(_token).decimals();\n        uint256 tokenPrice = getTokenPrice(_token);  // *10^8\n        \n        uint256 scalePercent = getScalePercent(_userAddr);  // BOBO\n        uint256 tokenAmount4Fee = _amountIn.mul(feePercent).mul(scalePercent).div(BasePercent).div(BasePercent);\n                                 \n        uint256 usdtAmount4Fee = tokenPrice.mul(tokenAmount4Fee).mul(10**usdtDecimals).div(FACTOR).div(10**tokenDecimals);\n        if (usableTradePointsMap[_userAddr] >= usdtAmount4Fee) {\n            usableTradePointsMap[_userAddr] = usableTradePointsMap[_userAddr].sub(usdtAmount4Fee);\n            return 0;\n        } else {\n            return tokenAmount4Fee;\n        }\n    }\n\n    function evaluateDeductedAmountIn(address _userAddr, address _token, uint256 _amountIn) view public returns(uint256, uint256) {\n        uint256 usdtDecimals = ERC20(USDT).decimals();\n        uint256 tokenDecimals = ERC20(_token).decimals();\n        uint256 tokenPrice = getTokenPrice(_token);  // *10^8\n        \n        uint256 scalePercent = getScalePercent(_userAddr);  // BOBO\n        uint256 tokenAmount4Fee = _amountIn.mul(feePercent).mul(scalePercent).div(BasePercent).div(BasePercent);\n\n        uint256 usdtAmount4Fee = tokenPrice.mul(tokenAmount4Fee).mul(10**usdtDecimals).div(FACTOR).div(10**tokenDecimals);\n        if (usableTradePointsMap[_userAddr] >= usdtAmount4Fee) {\n            return (0, usdtAmount4Fee);\n        } else {\n            return (tokenAmount4Fee, usdtAmount4Fee);\n        }\n    }\n\n    function getTokenPrice(address _token) public view returns(uint256) {\n        uint256 priceOnAMM = getTokenPriceOnAMM(_token);\n        uint256 priceOnChainlink = getTokenPriceOnChainlink(_token);\n        if(priceOnChainlink == 0) return priceOnAMM;\n\n        uint256 gap = 0;\n        if (priceOnAMM > priceOnChainlink) {\n            gap = priceOnAMM.sub(priceOnChainlink).mul(1000).div(priceOnChainlink);\n        } else {\n            gap = priceOnChainlink.sub(priceOnAMM).mul(1000).div(priceOnAMM);\n        }\n        require(gap <= 100, \"EXManager: the price gap between chainlink and AMM is large than 10%.\");\n        return priceOnChainlink;\n    }\n\n    function getTokenPriceOnAMM(address _token) public view returns(uint256) {\n        if (_token == USDT || _token == USDC) return 1 * FACTOR;\n\n        (address token0, address token1) = USDT < _token ? (USDT, _token) : (_token, USDT);\n        address pairAddr = ICommonFactory(swapFactory).getPair(token0, token1);\n        (uint256 reserveA, uint256 reserveB,) = ICommonPair(pairAddr).getReserves();\n        uint256 decimalsGap = ERC20(_token).decimals() - ERC20(USDT).decimals();\n        // chainlink10^8FACTOR, FACTORU1.1U,1.12U\n        return token0 == USDT ? reserveA.mul(FACTOR).mul(10**decimalsGap).div(reserveB) : reserveB.mul(FACTOR).mul(10**decimalsGap).div(reserveA);\n    }\n    \n    // chainlinkU10^8\n    function getTokenPriceOnChainlink(address _token) public view returns(uint256) {\n        if (_token == USDT || _token == USDC) return 1 * FACTOR;\n\n        address aggregatorAddr = tokenAggregatorMap[_token];\n        if (aggregatorAddr == address(0)) return 0;\n\n        AggregatorV3Interface priceFeed = AggregatorV3Interface(aggregatorAddr);\n        (, int price,,,) = priceFeed.latestRoundData();\n        return uint256(price);\n    }\n    \n    function setStopFreeBlockNum(uint256 _blockNum) public onlyOwner {\n        stopFreeBlockNum = _blockNum;\n    }\n\n    function setFeePercent(uint256 _feePercent) public onlyOwner {\n        feePercent = _feePercent;\n    }\n    \n    function withdraw(address _token, address _receiver) public onlyOwner {\n        uint256 amount = ERC20(_token).balanceOf(address(this));\n        ERC20(_token).transfer(_receiver, amount);\n    }\n    \n    function addAggregtor(address _token, address _aggregator) public onlyOwner {\n        tokenAggregatorMap[_token] = _aggregator;\n    }\n}",
  "sourcePath": "/Users/mryu/blockchain/bobo-metaverse/boboswap-contract/contracts/manager/EXManager.sol",
  "compiler": {
    "name": "solc",
    "version": "0.6.12+commit.27d51765.Emscripten.clang"
  },
  "schemaVersion": "3.4.3",
  "updatedAt": "2021-09-16T08:10:12.402Z",
  "networkType": "ethereum",
  "devdoc": {
    "kind": "dev",
    "methods": {
      "owner()": {
        "details": "Returns the address of the current owner."
      },
      "renounceOwnership()": {
        "details": "Leaves the contract without owner. It will not be possible to call `onlyOwner` functions anymore. Can only be called by the current owner. NOTE: Renouncing ownership will leave the contract without an owner, thereby removing any functionality that is only available to the owner."
      },
      "transferOwnership(address)": {
        "details": "Transfers ownership of the contract to a new account (`newOwner`). Can only be called by the current owner."
      }
    },
    "version": 1
  },
  "userdoc": {
    "kind": "user",
    "methods": {},
    "version": 1
  }
}