{
    "contractName": "Loot",
    "abi": [
        {
            "inputs": [
                {
                    "internalType": "uint256",
                    "name": "_initMintPrice",
                    "type": "uint256"
                },
                {
                    "internalType": "contract IERC721",
                    "name": "_nftToken",
                    "type": "address"
                }
            ],
            "stateMutability": "nonpayable",
            "type": "constructor"
        },
        {
            "anonymous": false,
            "inputs": [
                {
                    "indexed": true,
                    "internalType": "address",
                    "name": "owner",
                    "type": "address"
                },
                {
                    "indexed": true,
                    "internalType": "address",
                    "name": "approved",
                    "type": "address"
                },
                {
                    "indexed": true,
                    "internalType": "uint256",
                    "name": "tokenId",
                    "type": "uint256"
                }
            ],
            "name": "Approval",
            "type": "event"
        },
        {
            "anonymous": false,
            "inputs": [
                {
                    "indexed": true,
                    "internalType": "address",
                    "name": "owner",
                    "type": "address"
                },
                {
                    "indexed": true,
                    "internalType": "address",
                    "name": "operator",
                    "type": "address"
                },
                {
                    "indexed": false,
                    "internalType": "bool",
                    "name": "approved",
                    "type": "bool"
                }
            ],
            "name": "ApprovalForAll",
            "type": "event"
        },
        {
            "anonymous": false,
            "inputs": [
                {
                    "indexed": true,
                    "internalType": "uint256",
                    "name": "tokenId",
                    "type": "uint256"
                },
                {
                    "indexed": true,
                    "internalType": "uint256",
                    "name": "priceReceived",
                    "type": "uint256"
                },
                {
                    "indexed": true,
                    "internalType": "uint256",
                    "name": "reserveAfterBurn",
                    "type": "uint256"
                }
            ],
            "name": "Burned",
            "type": "event"
        },
        {
            "anonymous": false,
            "inputs": [
                {
                    "indexed": true,
                    "internalType": "uint256",
                    "name": "tokenId",
                    "type": "uint256"
                },
                {
                    "indexed": true,
                    "internalType": "uint256",
                    "name": "pricePaid",
                    "type": "uint256"
                },
                {
                    "indexed": true,
                    "internalType": "uint256",
                    "name": "reserveAfterMint",
                    "type": "uint256"
                }
            ],
            "name": "Minted",
            "type": "event"
        },
        {
            "anonymous": false,
            "inputs": [
                {
                    "indexed": true,
                    "internalType": "address",
                    "name": "previousOwner",
                    "type": "address"
                },
                {
                    "indexed": true,
                    "internalType": "address",
                    "name": "newOwner",
                    "type": "address"
                }
            ],
            "name": "OwnershipTransferred",
            "type": "event"
        },
        {
            "anonymous": false,
            "inputs": [
                {
                    "indexed": true,
                    "internalType": "address",
                    "name": "from",
                    "type": "address"
                },
                {
                    "indexed": true,
                    "internalType": "address",
                    "name": "to",
                    "type": "address"
                },
                {
                    "indexed": true,
                    "internalType": "uint256",
                    "name": "tokenId",
                    "type": "uint256"
                }
            ],
            "name": "Transfer",
            "type": "event"
        },
        {
            "inputs": [],
            "name": "OrderNumber",
            "outputs": [
                {
                    "internalType": "uint256",
                    "name": "",
                    "type": "uint256"
                }
            ],
            "stateMutability": "view",
            "type": "function"
        },
        {
            "inputs": [
                {
                    "internalType": "address",
                    "name": "to",
                    "type": "address"
                },
                {
                    "internalType": "uint256",
                    "name": "tokenId",
                    "type": "uint256"
                }
            ],
            "name": "approve",
            "outputs": [],
            "stateMutability": "nonpayable",
            "type": "function"
        },
        {
            "inputs": [
                {
                    "internalType": "address",
                    "name": "owner",
                    "type": "address"
                }
            ],
            "name": "balanceOf",
            "outputs": [
                {
                    "internalType": "uint256",
                    "name": "",
                    "type": "uint256"
                }
            ],
            "stateMutability": "view",
            "type": "function"
        },
        {
            "inputs": [],
            "name": "baseURI",
            "outputs": [
                {
                    "internalType": "string",
                    "name": "",
                    "type": "string"
                }
            ],
            "stateMutability": "view",
            "type": "function"
        },
        {
            "inputs": [],
            "name": "creator",
            "outputs": [
                {
                    "internalType": "address payable",
                    "name": "",
                    "type": "address"
                }
            ],
            "stateMutability": "view",
            "type": "function"
        },
        {
            "inputs": [],
            "name": "deadAddr",
            "outputs": [
                {
                    "internalType": "address",
                    "name": "",
                    "type": "address"
                }
            ],
            "stateMutability": "view",
            "type": "function"
        },
        {
            "inputs": [
                {
                    "internalType": "uint256",
                    "name": "tokenId",
                    "type": "uint256"
                }
            ],
            "name": "getApproved",
            "outputs": [
                {
                    "internalType": "address",
                    "name": "",
                    "type": "address"
                }
            ],
            "stateMutability": "view",
            "type": "function"
        },
        {
            "inputs": [],
            "name": "initBurnPrice",
            "outputs": [
                {
                    "internalType": "uint256",
                    "name": "",
                    "type": "uint256"
                }
            ],
            "stateMutability": "view",
            "type": "function"
        },
        {
            "inputs": [],
            "name": "initMintPrice",
            "outputs": [
                {
                    "internalType": "uint256",
                    "name": "",
                    "type": "uint256"
                }
            ],
            "stateMutability": "view",
            "type": "function"
        },
        {
            "inputs": [
                {
                    "internalType": "address",
                    "name": "owner",
                    "type": "address"
                },
                {
                    "internalType": "address",
                    "name": "operator",
                    "type": "address"
                }
            ],
            "name": "isApprovedForAll",
            "outputs": [
                {
                    "internalType": "bool",
                    "name": "",
                    "type": "bool"
                }
            ],
            "stateMutability": "view",
            "type": "function"
        },
        {
            "inputs": [],
            "name": "name",
            "outputs": [
                {
                    "internalType": "string",
                    "name": "",
                    "type": "string"
                }
            ],
            "stateMutability": "view",
            "type": "function"
        },
        {
            "inputs": [],
            "name": "nftToken",
            "outputs": [
                {
                    "internalType": "contract IERC721",
                    "name": "",
                    "type": "address"
                }
            ],
            "stateMutability": "view",
            "type": "function"
        },
        {
            "inputs": [],
            "name": "owner",
            "outputs": [
                {
                    "internalType": "address",
                    "name": "",
                    "type": "address"
                }
            ],
            "stateMutability": "view",
            "type": "function"
        },
        {
            "inputs": [
                {
                    "internalType": "uint256",
                    "name": "tokenId",
                    "type": "uint256"
                }
            ],
            "name": "ownerOf",
            "outputs": [
                {
                    "internalType": "address",
                    "name": "",
                    "type": "address"
                }
            ],
            "stateMutability": "view",
            "type": "function"
        },
        {
            "inputs": [],
            "name": "renounceOwnership",
            "outputs": [],
            "stateMutability": "nonpayable",
            "type": "function"
        },
        {
            "inputs": [],
            "name": "reserve",
            "outputs": [
                {
                    "internalType": "uint256",
                    "name": "",
                    "type": "uint256"
                }
            ],
            "stateMutability": "view",
            "type": "function"
        },
        {
            "inputs": [
                {
                    "internalType": "address",
                    "name": "from",
                    "type": "address"
                },
                {
                    "internalType": "address",
                    "name": "to",
                    "type": "address"
                },
                {
                    "internalType": "uint256",
                    "name": "tokenId",
                    "type": "uint256"
                }
            ],
            "name": "safeTransferFrom",
            "outputs": [],
            "stateMutability": "nonpayable",
            "type": "function"
        },
        {
            "inputs": [
                {
                    "internalType": "address",
                    "name": "from",
                    "type": "address"
                },
                {
                    "internalType": "address",
                    "name": "to",
                    "type": "address"
                },
                {
                    "internalType": "uint256",
                    "name": "tokenId",
                    "type": "uint256"
                },
                {
                    "internalType": "bytes",
                    "name": "_data",
                    "type": "bytes"
                }
            ],
            "name": "safeTransferFrom",
            "outputs": [],
            "stateMutability": "nonpayable",
            "type": "function"
        },
        {
            "inputs": [
                {
                    "internalType": "address",
                    "name": "operator",
                    "type": "address"
                },
                {
                    "internalType": "bool",
                    "name": "approved",
                    "type": "bool"
                }
            ],
            "name": "setApprovalForAll",
            "outputs": [],
            "stateMutability": "nonpayable",
            "type": "function"
        },
        {
            "inputs": [
                {
                    "internalType": "bytes4",
                    "name": "interfaceId",
                    "type": "bytes4"
                }
            ],
            "name": "supportsInterface",
            "outputs": [
                {
                    "internalType": "bool",
                    "name": "",
                    "type": "bool"
                }
            ],
            "stateMutability": "view",
            "type": "function"
        },
        {
            "inputs": [],
            "name": "symbol",
            "outputs": [
                {
                    "internalType": "string",
                    "name": "",
                    "type": "string"
                }
            ],
            "stateMutability": "view",
            "type": "function"
        },
        {
            "inputs": [
                {
                    "internalType": "uint256",
                    "name": "index",
                    "type": "uint256"
                }
            ],
            "name": "tokenByIndex",
            "outputs": [
                {
                    "internalType": "uint256",
                    "name": "",
                    "type": "uint256"
                }
            ],
            "stateMutability": "view",
            "type": "function"
        },
        {
            "inputs": [
                {
                    "internalType": "uint256",
                    "name": "",
                    "type": "uint256"
                }
            ],
            "name": "tokenIdWeightMap",
            "outputs": [
                {
                    "internalType": "uint256",
                    "name": "",
                    "type": "uint256"
                }
            ],
            "stateMutability": "view",
            "type": "function"
        },
        {
            "inputs": [
                {
                    "internalType": "address",
                    "name": "owner",
                    "type": "address"
                },
                {
                    "internalType": "uint256",
                    "name": "index",
                    "type": "uint256"
                }
            ],
            "name": "tokenOfOwnerByIndex",
            "outputs": [
                {
                    "internalType": "uint256",
                    "name": "",
                    "type": "uint256"
                }
            ],
            "stateMutability": "view",
            "type": "function"
        },
        {
            "inputs": [],
            "name": "totalEverMinted",
            "outputs": [
                {
                    "internalType": "uint256",
                    "name": "",
                    "type": "uint256"
                }
            ],
            "stateMutability": "view",
            "type": "function"
        },
        {
            "inputs": [],
            "name": "totalSupply",
            "outputs": [
                {
                    "internalType": "uint256",
                    "name": "",
                    "type": "uint256"
                }
            ],
            "stateMutability": "view",
            "type": "function"
        },
        {
            "inputs": [
                {
                    "internalType": "address",
                    "name": "from",
                    "type": "address"
                },
                {
                    "internalType": "address",
                    "name": "to",
                    "type": "address"
                },
                {
                    "internalType": "uint256",
                    "name": "tokenId",
                    "type": "uint256"
                }
            ],
            "name": "transferFrom",
            "outputs": [],
            "stateMutability": "nonpayable",
            "type": "function"
        },
        {
            "inputs": [
                {
                    "internalType": "address",
                    "name": "newOwner",
                    "type": "address"
                }
            ],
            "name": "transferOwnership",
            "outputs": [],
            "stateMutability": "nonpayable",
            "type": "function"
        },
        {
            "inputs": [
                {
                    "internalType": "address payable",
                    "name": "_creator",
                    "type": "address"
                }
            ],
            "name": "setCreator",
            "outputs": [],
            "stateMutability": "nonpayable",
            "type": "function"
        },
        {
            "inputs": [
                {
                    "internalType": "uint256",
                    "name": "_orderNumber",
                    "type": "uint256"
                }
            ],
            "name": "setOrderNumber",
            "outputs": [],
            "stateMutability": "nonpayable",
            "type": "function"
        },
        {
            "inputs": [
                {
                    "internalType": "uint256",
                    "name": "tokenId",
                    "type": "uint256"
                }
            ],
            "name": "getWeapon",
            "outputs": [
                {
                    "internalType": "string",
                    "name": "",
                    "type": "string"
                }
            ],
            "stateMutability": "view",
            "type": "function"
        },
        {
            "inputs": [
                {
                    "internalType": "uint256",
                    "name": "tokenId",
                    "type": "uint256"
                }
            ],
            "name": "getChest",
            "outputs": [
                {
                    "internalType": "string",
                    "name": "",
                    "type": "string"
                }
            ],
            "stateMutability": "view",
            "type": "function"
        },
        {
            "inputs": [
                {
                    "internalType": "uint256",
                    "name": "tokenId",
                    "type": "uint256"
                }
            ],
            "name": "getHead",
            "outputs": [
                {
                    "internalType": "string",
                    "name": "",
                    "type": "string"
                }
            ],
            "stateMutability": "view",
            "type": "function"
        },
        {
            "inputs": [
                {
                    "internalType": "uint256",
                    "name": "tokenId",
                    "type": "uint256"
                }
            ],
            "name": "getWaist",
            "outputs": [
                {
                    "internalType": "string",
                    "name": "",
                    "type": "string"
                }
            ],
            "stateMutability": "view",
            "type": "function"
        },
        {
            "inputs": [
                {
                    "internalType": "uint256",
                    "name": "tokenId",
                    "type": "uint256"
                }
            ],
            "name": "getFoot",
            "outputs": [
                {
                    "internalType": "string",
                    "name": "",
                    "type": "string"
                }
            ],
            "stateMutability": "view",
            "type": "function"
        },
        {
            "inputs": [
                {
                    "internalType": "uint256",
                    "name": "tokenId",
                    "type": "uint256"
                }
            ],
            "name": "getHand",
            "outputs": [
                {
                    "internalType": "string",
                    "name": "",
                    "type": "string"
                }
            ],
            "stateMutability": "view",
            "type": "function"
        },
        {
            "inputs": [
                {
                    "internalType": "uint256",
                    "name": "tokenId",
                    "type": "uint256"
                }
            ],
            "name": "getNeck",
            "outputs": [
                {
                    "internalType": "string",
                    "name": "",
                    "type": "string"
                }
            ],
            "stateMutability": "view",
            "type": "function"
        },
        {
            "inputs": [
                {
                    "internalType": "uint256",
                    "name": "tokenId",
                    "type": "uint256"
                }
            ],
            "name": "getRing",
            "outputs": [
                {
                    "internalType": "string",
                    "name": "",
                    "type": "string"
                }
            ],
            "stateMutability": "view",
            "type": "function"
        },
        {
            "inputs": [
                {
                    "internalType": "uint256",
                    "name": "tokenId",
                    "type": "uint256"
                }
            ],
            "name": "getRole",
            "outputs": [
                {
                    "internalType": "string",
                    "name": "",
                    "type": "string"
                }
            ],
            "stateMutability": "view",
            "type": "function"
        },
        {
            "inputs": [
                {
                    "internalType": "uint256",
                    "name": "tokenId",
                    "type": "uint256"
                }
            ],
            "name": "tokenURI",
            "outputs": [
                {
                    "internalType": "string",
                    "name": "",
                    "type": "string"
                }
            ],
            "stateMutability": "view",
            "type": "function"
        },
        {
            "inputs": [
                {
                    "internalType": "uint256[]",
                    "name": "orderIds",
                    "type": "uint256[]"
                }
            ],
            "name": "mint",
            "outputs": [
                {
                    "internalType": "uint256",
                    "name": "_tokenId",
                    "type": "uint256"
                }
            ],
            "stateMutability": "payable",
            "type": "function"
        },
        {
            "inputs": [
                {
                    "internalType": "uint256",
                    "name": "tokenId",
                    "type": "uint256"
                }
            ],
            "name": "burn",
            "outputs": [],
            "stateMutability": "nonpayable",
            "type": "function"
        },
        {
            "inputs": [],
            "name": "getCurrentPriceToMint",
            "outputs": [
                {
                    "internalType": "uint256",
                    "name": "",
                    "type": "uint256"
                }
            ],
            "stateMutability": "view",
            "type": "function"
        },
        {
            "inputs": [],
            "name": "getReserveCut",
            "outputs": [
                {
                    "internalType": "uint256",
                    "name": "",
                    "type": "uint256"
                }
            ],
            "stateMutability": "view",
            "type": "function"
        },
        {
            "inputs": [],
            "name": "getCurrentPriceToBurn",
            "outputs": [
                {
                    "internalType": "uint256",
                    "name": "",
                    "type": "uint256"
                }
            ],
            "stateMutability": "view",
            "type": "function"
        },
        {
            "inputs": [],
            "name": "getCurrentSupply",
            "outputs": [
                {
                    "internalType": "uint256",
                    "name": "",
                    "type": "uint256"
                }
            ],
            "stateMutability": "view",
            "type": "function"
        }
    ],
    "bytecode": "0x66038d7ea4c68000600c908155660384665653e000600d556000600f8190556011819055601290815560096102c0818152682bb0b93430b6b6b2b960b91b6102e05260809081526103009384526b28bab0b93a32b939ba30b33360a11b6103205260a09390935260046103408181526313585d5b60e21b6103605260c052610380818152634d61636560e01b6103a05260e0526103c08181526321b63ab160e11b6103e052610100526006610400908152654b6174616e6160d01b61042052610120526008610440818152672330b631b434b7b760c11b61046052610140526104808181526729b1b4b6b4ba30b960c11b6104a05261016052600a6104c081815269131bdb99c814dddbdc9960b21b6104e05261018052600b6105009081526a14da1bdc9d0814dddbdc9960aa1b610520526101a0526105408181526911da1bdcdd0815d85b9960b21b610560526101c0526105809081526911dc985d994815d85b9960b21b6105a0526101e0526105c083815268109bdb994815d85b9960ba1b6105e052610200526106008281526315d85b9960e21b6106205261022052610640908152674772696d6f69726560c01b6106605261024052610680918252684368726f6e69636c6560b81b6106a052610260919091526106c081815263546f6d6560e01b6106e0526102805261074060405261070090815263426f6f6b60e01b610720526102a052620002169160149162001fcc565b506040805161022081018252600b6101e082019081526a446976696e6520526f626560a81b61020083015281528151808301835260098082526853696c6b20526f626560b81b6020838101919091528084019290925283518085018552600a808252694c696e656e20526f626560b01b8285015284860191909152845180860186526004815263526f626560e01b81850152606085015284518086018652600581526414da1a5c9d60da1b818501526080850152845180860186528181526944656d6f6e204875736b60b01b8185015260a085015284518086018652601081526f223930b3b7b739b5b4b71020b936b7b960811b8185015260c08501528451808601865260158082527f53747564646564204c6561746865722041726d6f7200000000000000000000008286015260e08601919091528551808701875260128152712430b932102632b0ba3432b91020b936b7b960711b8186015261010086015285518087018752600d81526c2632b0ba3432b91020b936b7b960991b8186015261012086015285518087018752600f8082526e486f6c79204368657374706c61746560881b828701526101408701919091528651808801885260118152704f726e617465204368657374706c61746560781b818701526101608701528651808801885283815269141b185d194813585a5b60b21b81870152610180870152865180880188529283526910da185a5b8813585a5b60b21b838601526101a0860192909252855180870190965291855268149a5b99c813585a5b60ba1b928501929092526101c08301939093526200046f92919062002030565b506040805161022081018252600c6101e082019081526b416e6369656e742048656c6d60a01b610200830152815281518083018352600b8082526a4f726e6174652048656c6d60a81b6020838101919091528084019290925283518085018552600a8082526947726561742048656c6d60b01b82850152848601919091528451808601865260098082526846756c6c2048656c6d60b81b8286015260608601919091528551808701875260048082526348656c6d60e01b828701526080870191909152865180880188528481526a2232b6b7b71021b937bbb760a91b8187015260a087015286518088018852600e81526d223930b3b7b713b99021b937bbb760911b8187015260c08701528651808801885260078152660576172204361760cc1b8187015260e0870152865180880188528481526a04c656174686572204361760ac1b8187015261010087015286518088018852600381526204361760ec1b8187015261012087015286518088018852600581526421b937bbb760d91b81870152610140870152865180880188529384526a111a5d9a5b9948121bdbd960aa1b84860152610160860193909352855180870187529081526814da5b1ac8121bdbd960ba1b818501526101808501528451808601865290815269131a5b995b88121bdbd960b21b818401526101a08401528351808501909452835263121bdbd960e21b908301526101c08101919091526200068e90601690600f62002030565b506040805161022081018252600b6101e082018181526a13dc9b985d194810995b1d60aa1b610200840152825282518084018452600881526715d85c8810995b1d60c21b60208281019190915280840191909152835180850185529182526a141b185d19590810995b1d60aa1b82820152828401919091528251808401845260098082526813595cda0810995b1d60ba1b82840152606084019190915283518085018552600a808252691219585d9e4810995b1d60b21b82850152608085019190915284518086018652600e81526d11195b5bdb9a1a59194810995b1d60921b8185015260a085015284518086018652600f8082526e111c9859dbdb9cdada5b8810995b1d608a1b8286015260c086019190915285518087018752601481527f53747564646564204c6561746865722042656c740000000000000000000000008186015260e086015285518087018752601181527012185c99081319585d1a195c8810995b1d607a1b8186015261010086015285518087018752600c81526b1319585d1a195c8810995b1d60a21b81860152610120860152855180870187528181526e084e4d2ced0e8e6d2d8d640a6c2e6d608b1b8186015261014086015285518087018752838152680a6d2d8d640a6c2e6d60bb1b8186015261016086015285518087018752928352680aededed840a6c2e6d60bb1b838501526101808501929092528451808601865290815269098d2dccadc40a6c2e6d60b31b818401526101a0840152835180850190945260048452630a6c2e6d60e31b918401919091526101c0820192909252620008e7916017919062002030565b506040805161022081018252600c6101e082019081526b486f6c79204772656176657360a01b610200830152815281518083018352600e81526d4f726e617465204772656176657360901b602082810191909152808301919091528251808401845260078152664772656176657360c81b818301528284015282518084018452600b8082526a436861696e20426f6f747360a81b828401526060840191909152835180850185528181526a486561767920426f6f747360a81b81840152608084015283518085018552600f8082526e44656d6f6e6869646520426f6f747360881b8285015260a085019190915284518086018652601081526f447261676f6e736b696e20426f6f747360801b8185015260c085015284518086018652601581527f53747564646564204c65617468657220426f6f747300000000000000000000008185015260e085015284518086018652601281527148617264204c65617468657220426f6f747360701b8185015261010085015284518086018652600d8082526c4c65617468657220426f6f747360981b82860152610120860191909152855180870187528281526e446976696e6520536c69707065727360881b81860152610140860152855180870187529081526c53696c6b20536c69707065727360981b8185015261016085015284518086018652600a815269576f6f6c2053686f657360b01b81850152610180850152845180860186529182526a4c696e656e2053686f657360a81b828401526101a08401919091528351808501909452600584526453686f657360d81b918401919091526101c082019290925262000b4f916018919062002030565b506040805161022081018252600e6101e082018181526d486f6c79204761756e746c65747360901b610200840152825282518084018452601081526f4f726e617465204761756e746c65747360801b602082810191909152808401919091528351808501855260098152684761756e746c65747360b81b818301528385015283518085018552600c8082526b436861696e20476c6f76657360a01b828401526060850191909152845180860186528181526b486561767920476c6f76657360a01b81840152608085015284518086018652600d8082526c44656d6f6e27732048616e647360981b8285015260a0860191909152855180870187526011815270447261676f6e736b696e20476c6f76657360781b8185015260c086015285518087018752601681527f53747564646564204c65617468657220476c6f766573000000000000000000008185015260e086015285518087018752601381527f48617264204c65617468657220476c6f7665730000000000000000000000000081850152610100860152855180870187529384526d4c65617468657220476c6f76657360901b84840152610120850193909352845180860186529283526c446976696e6520476c6f76657360981b8383015261014084019290925283518085018552600b8082526a53696c6b20476c6f76657360a81b82840152610160850191909152845180860186529081526a576f6f6c20476c6f76657360a81b81830152610180840152835180850185529182526b4c696e656e20476c6f76657360a01b828201526101a083019190915282518084019093526006835265476c6f76657360d01b908301526101c081019190915262000dcc90601990600f62002030565b506040518060600160405280604051806040016040528060088152602001674e65636b6c61636560c01b815250815260200160405180604001604052806006815260200165105b5d5b195d60d21b81525081526020016040518060400160405280600781526020016614195b99185b9d60ca1b815250815250601a90600362000e5792919062002082565b506040805160e081018252600960a0820190815268476f6c642052696e6760b81b60c0830152815281518083018352600b8082526a53696c7665722052696e6760a81b60208381019190915280840192909252835180850185529081526a42726f6e7a652052696e6760a81b818301528284015282518084018452600d8082526c506c6174696e756d2052696e6760981b828401526060840191909152835180850190945283526c546974616e69756d2052696e6760981b90830152608081019190915262000f2b90601b906005620020d4565b5060405180608001604052806040518060400160405280600a81526020016948756d616e204d616c6560b01b81525081526020016040518060400160405280600c81526020016b48756d616e2046656d616c6560a01b81525081526020016040518060400160405280600a81526020016913585b1948149bd89bdd60b21b81525081526020016040518060400160405280600c81526020016b11995b585b1948149bd89bdd60a21b815250815250601c90600462000feb92919062002126565b506040805161024081018252600861020082018181526737b3102837bbb2b960c11b6102208401528252825180840184526009808252686f66204769616e747360b81b6020838101919091528085019290925284518086018652908152686f6620546974616e7360b81b818301528385015283518085018552828152671bd98814dada5b1b60c21b81830152606084015283518085018552600d8082526c37b3102832b93332b1ba34b7b760991b828401526080850191909152845180860186528181526c6f66204272696c6c69616e636560981b8184015260a08501528451808601865260108082526f1bd988115b9b1a59da1d195b9b595b9d60821b8285015260c0860191909152855180870187528281526c37b310283937ba32b1ba34b7b760991b8185015260e0860152855180870187529384526737b31020b733b2b960c11b84840152610100850193909352845180860186526007808252666f66205261676560c81b8285015261012086019190915285518087018752908152666f66204675727960c81b8184015261014085015284518086018652600a808252691bd988159a5d1c9a5bdb60b21b8285015261016086019190915285518087018752908152690decc40e8d0ca408cdef60b31b8184015261018085015284518086018652600c8082526b37b3102232ba32b1ba34b7b760a11b828501526101a0860191909152855180870187529182526c37b3102932b33632b1ba34b7b760991b828401526101c0850191909152845180860190955284526b6f6620746865205477696e7360a01b908401526101e08201929092526200124f91601d919062002178565b50604080516108e08101825260056108a082018181526441676f6e7960d81b6108c0840152825282518084018452600a8082526941706f63616c7970736560b01b60208381019190915280850192909252845180860186528181526920b936b0b3b2b23237b760b11b818401528486015284518086018652838152641099585cdd60da1b81840152606085015284518086018652600880825267084cad0cadadee8d60c31b82850152608086019190915285518087018752600680825265109b1a59da1d60d21b8286015260a08701919091528651808801885285815264109b1bdbd960da1b8186015260c0870152865180880188526007808252664272616d626c6560c81b8287015260e0880191909152875180890189526009808252684272696d73746f6e6560b81b828801526101008901919091528851808a018a5287815264109c9bdbd960da1b818801526101208901528851808a018a528281526621b0b93934b7b760c91b818801526101408901528851808a018a528181526843617461636c79736d60b81b818801526101608901528851808a018a52848152674368696d6572696360c01b818801526101808901528851808a018a5283815265436f7270736560d01b818801526101a08901528851808a018a528581526921b7b9393ab83a34b7b760b11b818801526101c08901528851808a018a52818152682230b6b730ba34b7b760b91b818801526101e08901528851808a018a5287815264088cac2e8d60db1b818801526102008901528851808a018a52878152642232b6b7b760d91b818801526102208901528851808a018a526004808252634469726560e01b828901526102408a01919091528951808b018b5284815265223930b3b7b760d11b818901526102608a01528951808b018b5288815264111c99585960da1b818901526102808a01528951808b018b5281815263446f6f6d60e01b818901526102a08a01528951808b018b52818152634475736b60e01b818901526102c08a01528951808b018b52888152644561676c6560d81b818901526102e08a01528951808b018b528581526722b6b83cb932b0b760c11b818901526103008a01528951808b018b52818152634661746560e01b818901526103208a01528951808b018b52600380825262466f6560e81b828a01526103408b01919091528a51808c018c528281526347616c6560e01b818a01526103608b01528a51808c018c528981526411da1bdd5b60da1b818a01526103808b01528a51808c018c5289815264476c6f6f6d60d81b818a01526103a08b01528a51808c018c528981526408ed8f2e0d60db1b818a01526103c08b01528a51808c018c5289815264476f6c656d60d81b818a01526103e08b01528a51808c018c52828152634772696d60e01b818a01526104008b01528a51808c018c52828152634861746560e01b818a01526104208b01528a51808c018c52898152644861766f6360d81b818a01526104408b01528a51808c018c52858152652437b737bab960d11b818a01526104608b01528a51808c018c52858152652437b93937b960d11b818a01526104808b01528a51808c018c52868152674879706e6f74696360c01b818a01526104a08b01528a51808c018c528581526525b930b5b2b760d11b818a01526104c08b01528a51808c018c5289815264098dec2e8d60db1b818a01526104e08b01528a51808c018c52838152684d61656c7374726f6d60b81b818a01526105008b01528a51808c018c5282815263135a5b9960e21b818a01526105208b01528a51808c018c52848152664d697261636c6560c81b818a01526105408b01528a51808c018c5285815265135bdc989a5960d21b818a01526105608b01528a51808c018c529586526727b13634bb34b7b760c11b868901526105808a01959095528951808b018b528281526813db9cdb185d59da1d60ba1b818901526105a08a01528951808b018b52818152632830b4b760e11b818901526105c08a01528951808b018b52600b81526a50616e64656d6f6e69756d60a81b818901526105e08a01528951808b018b52838152660a0d0decadcd2f60cb1b818901526106008a01528951808b018b5284815265506c6167756560d01b818901526106208a01528951808b018b52818152635261676560e01b818901526106408a01528951808b018b52838152665261707475726560c81b818901526106608a01528951808b018b528181526352756e6560e01b818901526106808a01528951808b018b528881526414dadd5b1b60da1b818901526106a08a01528951808b018b528581526214dbdb60ea1b818901526106c08a01528951808b018b529081526314dbdd5b60e21b818801526106e08901528851808a018a5283815265536f72726f7760d01b818801526107008901528851808a018a528381526514dc1a5c9a5d60d21b818801526107208901528851808a018a528781526453746f726d60d81b818801526107408901528851808a018a528281526615195b5c195cdd60ca1b818801526107608901528851808a018a5282815266151bdc9b595b9d60ca1b818801526107808901528851808a018a529081526856656e6765616e636560b81b818701526107a08801528751808901895281815266566963746f727960c81b818701526107c088015287518089018952868152642b34b832b960d91b818701526107e088015287518089018952918252650acdee4e8caf60d31b828601526108008701919091528651808801885291825262576f6560e81b8285015261082086019190915285518087018752938452640aee4c2e8d60db1b8484015261084085019390935284518086018652928352664c69676874277360c81b838301526108608401929092528351808501909452908352695368696d6d6572696e6760b01b9083015261088081019190915262001ab990601e906045620021ca565b506040805161028081018252600461024082018181526342616e6560e01b61026084015282528251808401845281815263149bdbdd60e21b6020828101919091528084019190915283518085018552828152634269746560e01b81830152838501528351808501855282815263536f6e6760e01b81830152606084015283518085018552828152632937b0b960e11b81830152608084015283518085018552600580825264047726173760dc1b8284015260a085019190915284518086018652600a815269125b9cdd1c9d5b595b9d60b21b8184015260c08501528451808601865283815263476c6f7760e01b8184015260e0850152845180860186526006808252652132b73232b960d11b828501526101008601919091528551808701875290815265536861646f7760d01b818401526101208501528451808601865260078152662bb434b9b832b960c91b81840152610140850152845180860186528181526414da1bdd5d60da1b81840152610160850152845180860186529081526411dc9bdddb60da1b8183015261018084015283518085018552828152632a32b0b960e11b818301526101a084015283518085018552828152635065616b60e01b818301526101c08401528351808501855282815263466f726d60e01b818301526101e084015283518085018552600381526229bab760e91b8183015261020084015283518085019094529083526326b7b7b760e11b9083015261022081019190915262001cea90601f90601262001fcc565b5034801562001cf857600080fd5b50604051620067de380380620067de83398101604081905262001d1b9162002320565b6040805180820182526009815268109bd89bc8131bdbdd60ba1b602080830191909152825180840190935260038352621093d560ea1b908301529062001d686301ffc9a760e01b62001e9f565b815162001d7d9060069060208501906200221c565b50805162001d939060079060208401906200221c565b5062001da66380ac58cd60e01b62001e9f565b62001db8635b5e139f60e01b62001e9f565b62001dca63780e9d6360e01b62001e9f565b50506001600a55600062001ddd62001efa565b600b80546001600160a01b0319166001600160a01b038316908117909155604051919250906000907f8be0079c531659141344cd1fd0a4f28419497f9722a3daafe3b4186f6b6457e0908290a35081600c8190555062001e67606462001e5360638562001efe60201b62001e771790919060201c565b62001f4760201b62001eb11790919060201c565b600d55600e8054336001600160a01b031991821617909155601080549091166001600160a01b0392909216919091179055506200242b565b6001600160e01b0319808216141562001ed55760405162461bcd60e51b815260040162001ecc90620023b3565b60405180910390fd5b6001600160e01b0319166000908152602081905260409020805460ff19166001179055565b3390565b60008262001f0f5750600062001f41565b8282028284828162001f1d57fe5b041462001f3e5760405162461bcd60e51b815260040162001ecc90620023ea565b90505b92915050565b600062001f3e83836040518060400160405280601a81526020017f536166654d6174683a206469766973696f6e206279207a65726f00000000000081525062001f9160201b60201c565b6000818362001fb55760405162461bcd60e51b815260040162001ecc91906200235d565b50600083858162001fc257fe5b0495945050505050565b8280548282559060005260206000209081019282156200201e579160200282015b828111156200201e57825180516200200d9184916020909101906200221c565b509160200191906001019062001fed565b506200202c9291506200229d565b5090565b8280548282559060005260206000209081019282156200201e579160200282015b828111156200201e5782518051620020719184916020909101906200221c565b509160200191906001019062002051565b8280548282559060005260206000209081019282156200201e579160200282015b828111156200201e5782518051620020c39184916020909101906200221c565b5091602001919060010190620020a3565b8280548282559060005260206000209081019282156200201e579160200282015b828111156200201e5782518051620021159184916020909101906200221c565b5091602001919060010190620020f5565b8280548282559060005260206000209081019282156200201e579160200282015b828111156200201e5782518051620021679184916020909101906200221c565b509160200191906001019062002147565b8280548282559060005260206000209081019282156200201e579160200282015b828111156200201e5782518051620021b99184916020909101906200221c565b509160200191906001019062002199565b8280548282559060005260206000209081019282156200201e579160200282015b828111156200201e57825180516200220b9184916020909101906200221c565b5091602001919060010190620021eb565b828054600181600116156101000203166002900490600052602060002090601f016020900481019282601f106200225f57805160ff19168380011785556200228f565b828001600101855582156200228f579182015b828111156200228f57825182559160200191906001019062002272565b506200202c929150620022be565b808211156200202c576000620022b48282620022d5565b506001016200229d565b5b808211156200202c5760008155600101620022bf565b50805460018160011615610100020316600290046000825580601f10620022fd57506200231d565b601f0160209004906000526020600020908101906200231d9190620022be565b50565b6000806040838503121562002333578182fd5b825160208401519092506001600160a01b038116811462002352578182fd5b809150509250929050565b6000602080835283518082850152825b818110156200238b578581018301518582016040015282016200236d565b818111156200239d5783604083870101525b50601f01601f1916929092016040019392505050565b6020808252601c908201527f4552433136353a20696e76616c696420696e7465726661636520696400000000604082015260600190565b60208082526021908201527f536166654d6174683a206d756c7469706c69636174696f6e206f766572666c6f6040820152607760f81b606082015260800190565b6143a3806200243b6000396000f3fe60806040526004361061027d5760003560e01c8063715018a61161014f578063c08a5dd5116100c1578063d47f269e1161007a578063d47f269e14610706578063e462874514610726578063e985e9c51461073b578063ef68075a1461075b578063f2fde38b1461077b578063f8e93ef91461079b5761027d565b8063c08a5dd514610672578063c87b56dd14610692578063c96b6544146106b2578063cd3293de146106c7578063d06fcba8146106dc578063d441426a146106f15761027d565b80639bdc1b69116101135780639bdc1b69146105c85780639e41b73f146105e8578063a22cb46514610608578063a408a19314610628578063a59625241461063d578063b88d4fde146106525761027d565b8063715018a6146105545780638da5cb5b14610569578063924808b41461057e57806395d89b41146105935780639720c969146105a85761027d565b80633a29ddd7116101f35780634f6ccce7116101ac5780634f6ccce71461049f5780635312fdc2146104bf5780636352211e146104df57806367209aa8146104ff5780636c0360eb1461051f57806370a08231146105345761027d565b80633a29ddd7146103ea5780633f5160181461040a57806342842e0e1461042a57806342966c681461044a57806342f8af4b1461046a5780634f3e1efc1461048a5761027d565b80630e99990d116102455780630e99990d1461033e5780631649229f1461035e57806318160ddd1461038057806323b872dd146103955780632e8ad69f146103b55780632f745c59146103ca5761027d565b806301ffc9a71461028257806302d05d3f146102b857806306fdde03146102da578063081812fc146102fc578063095ea7b31461031c575b600080fd5b34801561028e57600080fd5b506102a261029d366004613262565b6107ae565b6040516102af9190613933565b60405180910390f35b3480156102c457600080fd5b506102cd6107d1565b6040516102af91906138be565b3480156102e657600080fd5b506102ef6107e0565b6040516102af919061393e565b34801561030857600080fd5b506102cd6103173660046133ab565b610876565b34801561032857600080fd5b5061033c6103373660046131a7565b6108c2565b005b34801561034a57600080fd5b506102ef6103593660046133ab565b61095a565b34801561036a57600080fd5b50610373610a59565b6040516102af9190613fab565b34801561038c57600080fd5b50610373610a5f565b3480156103a157600080fd5b5061033c6103b0366004613098565b610a70565b3480156103c157600080fd5b50610373610aa8565b3480156103d657600080fd5b506103736103e53660046131a7565b610aae565b3480156103f657600080fd5b506103736104053660046133ab565b610ad7565b34801561041657600080fd5b5061033c610425366004613044565b610ae9565b34801561043657600080fd5b5061033c610445366004613098565b610b40565b34801561045657600080fd5b5061033c6104653660046133ab565b610b5b565b34801561047657600080fd5b5061033c6104853660046133ab565b610c1b565b34801561049657600080fd5b50610373610c55565b3480156104ab57600080fd5b506103736104ba3660046133ab565b610c5f565b3480156104cb57600080fd5b506102ef6104da3660046133ab565b610c75565b3480156104eb57600080fd5b506102cd6104fa3660046133ab565b610d65565b34801561050b57600080fd5b506102ef61051a3660046133ab565b610d8d565b34801561052b57600080fd5b506102ef610e7d565b34801561054057600080fd5b5061037361054f366004613044565b610ede565b34801561056057600080fd5b5061033c610f27565b34801561057557600080fd5b506102cd610fa6565b34801561058a57600080fd5b50610373610fb5565b34801561059f57600080fd5b506102ef610fbb565b3480156105b457600080fd5b506102ef6105c33660046133ab565b61101c565b3480156105d457600080fd5b506102ef6105e33660046133ab565b61110c565b3480156105f457600080fd5b506102ef6106033660046133ab565b6111fd565b34801561061457600080fd5b5061033c61062336600461317a565b6112ef565b34801561063457600080fd5b506103736113bd565b34801561064957600080fd5b506102cd6113c3565b34801561065e57600080fd5b5061033c61066d3660046130d8565b6113c9565b34801561067e57600080fd5b506102ef61068d3660046133ab565b611408565b34801561069e57600080fd5b506102ef6106ad3660046133ab565b6114f8565b3480156106be57600080fd5b50610373611806565b3480156106d357600080fd5b5061037361182f565b3480156106e857600080fd5b506102cd611835565b3480156106fd57600080fd5b50610373611844565b34801561071257600080fd5b506102ef6107213660046133ab565b611855565b34801561073257600080fd5b50610373611945565b34801561074757600080fd5b506102a2610756366004613060565b61194f565b34801561076757600080fd5b506102ef6107763660046133ab565b61197d565b34801561078757600080fd5b5061033c610796366004613044565b611a6e565b6103736107a93660046131d2565b611b25565b6001600160e01b0319811660009081526020819052604090205460ff165b919050565b600e546001600160a01b031681565b60068054604080516020601f600260001961010060018816150201909516949094049384018190048102820181019092528281526060939092909183018282801561086c5780601f106108415761010080835404028352916020019161086c565b820191906000526020600020905b81548152906001019060200180831161084f57829003601f168201915b5050505050905090565b600061088182611ef3565b6108a65760405162461bcd60e51b815260040161089d90613d2d565b60405180910390fd5b506000908152600460205260409020546001600160a01b031690565b60006108cd82610d65565b9050806001600160a01b0316836001600160a01b031614156109015760405162461bcd60e51b815260040161089d90613e38565b806001600160a01b0316610913611f00565b6001600160a01b0316148061092f575061092f81610756611f00565b61094b5760405162461bcd60e51b815260040161089d90613bce565b6109558383611f04565b505050565b6060610a5382604051806040016040528060048152602001631193d3d560e21b8152506018805480602002602001604051908101604052809291908181526020016000905b82821015610a4a5760008481526020908190208301805460408051601f6002600019610100600187161502019094169390930492830185900485028101850190915281815292830182828015610a365780601f10610a0b57610100808354040283529160200191610a36565b820191906000526020600020905b815481529060010190602001808311610a1957829003601f168201915b50505050508152602001906001019061099f565b50505050611f72565b92915050565b600c5481565b6000610a6b6002612262565b905090565b610a81610a7b611f00565b8261226d565b610a9d5760405162461bcd60e51b815260040161089d90613e79565b6109558383836122f2565b600d5481565b6001600160a01b0382166000908152600160205260408120610ad09083612400565b9392505050565b60136020526000908152604090205481565b610af1611f00565b600b546001600160a01b03908116911614610b1e5760405162461bcd60e51b815260040161089d90613d79565b600e80546001600160a01b0319166001600160a01b0392909216919091179055565b610955838383604051806020016040528060008152506113c9565b610b6481610d65565b6001600160a01b0316336001600160a01b031614610b945760405162461bcd60e51b815260040161089d90613a99565b6000610b9e611844565b9050610ba98261240c565b601154610bb690826124d9565b601155604051339082156108fc029083906000818181858888f19350505050158015610be6573d6000803e3d6000fd5b50601154604051829084907f82ac44fe03cbf84203fdc07400a8a763498cf2ccaa9788e23b09d56f4fc85f7290600090a45050565b610c23611f00565b600b546001600160a01b03908116911614610c505760405162461bcd60e51b815260040161089d90613d79565b601255565b6000610a6b610a5f565b600080610c6d60028461251b565b509392505050565b6060610a538260405180604001604052806004815260200163524f4c4560e01b815250601c805480602002602001604051908101604052809291908181526020016000905b82821015610a4a5760008481526020908190208301805460408051601f6002600019610100600187161502019094169390930492830185900485028101850190915281815292830182828015610d515780601f10610d2657610100808354040283529160200191610d51565b820191906000526020600020905b815481529060010190602001808311610d3457829003601f168201915b505050505081526020019060010190610cba565b6000610a538260405180606001604052806029815260200161428b6029913960029190612537565b6060610a5382604051806040016040528060048152602001634e45434b60e01b815250601a805480602002602001604051908101604052809291908181526020016000905b82821015610a4a5760008481526020908190208301805460408051601f6002600019610100600187161502019094169390930492830185900485028101850190915281815292830182828015610e695780601f10610e3e57610100808354040283529160200191610e69565b820191906000526020600020905b815481529060010190602001808311610e4c57829003601f168201915b505050505081526020019060010190610dd2565b60098054604080516020601f600260001961010060018816150201909516949094049384018190048102820181019092528281526060939092909183018282801561086c5780601f106108415761010080835404028352916020019161086c565b60006001600160a01b038216610f065760405162461bcd60e51b815260040161089d90613c2b565b6001600160a01b0382166000908152600160205260409020610a5390612262565b610f2f611f00565b600b546001600160a01b03908116911614610f5c5760405162461bcd60e51b815260040161089d90613d79565b600b546040516000916001600160a01b0316907f8be0079c531659141344cd1fd0a4f28419497f9722a3daafe3b4186f6b6457e0908390a3600b80546001600160a01b0319169055565b600b546001600160a01b031690565b600f5481565b60078054604080516020601f600260001961010060018816150201909516949094049384018190048102820181019092528281526060939092909183018282801561086c5780601f106108415761010080835404028352916020019161086c565b6060610a5382604051806040016040528060048152602001631211505160e21b8152506016805480602002602001604051908101604052809291908181526020016000905b82821015610a4a5760008481526020908190208301805460408051601f60026000196101006001871615020190941693909304928301859004850281018501909152818152928301828280156110f85780601f106110cd576101008083540402835291602001916110f8565b820191906000526020600020905b8154815290600101906020018083116110db57829003601f168201915b505050505081526020019060010190611061565b6060610a53826040518060400160405280600581526020016415d05254d560da1b8152506017805480602002602001604051908101604052809291908181526020016000905b82821015610a4a5760008481526020908190208301805460408051601f60026000196101006001871615020190941693909304928301859004850281018501909152818152928301828280156111e95780601f106111be576101008083540402835291602001916111e9565b820191906000526020600020905b8154815290600101906020018083116111cc57829003601f168201915b505050505081526020019060010190611152565b6060610a5382604051806040016040528060068152602001652ba2a0a827a760d11b8152506014805480602002602001604051908101604052809291908181526020016000905b82821015610a4a5760008481526020908190208301805460408051601f60026000196101006001871615020190941693909304928301859004850281018501909152818152928301828280156112db5780601f106112b0576101008083540402835291602001916112db565b820191906000526020600020905b8154815290600101906020018083116112be57829003601f168201915b505050505081526020019060010190611244565b6112f7611f00565b6001600160a01b0316826001600160a01b031614156113285760405162461bcd60e51b815260040161089d90613b14565b8060056000611335611f00565b6001600160a01b03908116825260208083019390935260409182016000908120918716808252919093529120805460ff191692151592909217909155611379611f00565b6001600160a01b03167f17307eab39ab6107e8899845ad3d59bd9653f200f220920489ca2b5937696c31836040516113b19190613933565b60405180910390a35050565b60125481565b61dead81565b6113da6113d4611f00565b8361226d565b6113f65760405162461bcd60e51b815260040161089d90613e79565b61140284848484612544565b50505050565b6060610a53826040518060400160405280600481526020016352494e4760e01b815250601b805480602002602001604051908101604052809291908181526020016000905b82821015610a4a5760008481526020908190208301805460408051601f60026000196101006001871615020190941693909304928301859004850281018501909152818152928301828280156114e45780601f106114b9576101008083540402835291602001916114e4565b820191906000526020600020905b8154815290600101906020018083116114c757829003601f168201915b50505050508152602001906001019061144d565b6060611502612eac565b60405180610120016040528060fd815260200161418e60fd91398152611527836111fd565b816001602002018190525060405180606001604052806028815260200161431d6028913960408201526115598361197d565b6060808301919091526040805191820190526028808252614091602083013960808201526115868361101c565b60a08201526040805160608101909152602880825261413d602083013960c08201526115b18361110c565b60e08201526040805160608101909152602980825261416560208301396101008201526115dd8361095a565b61012082015260408051606081019091526029808252614114602083013961014082015261160a83611855565b610160820152604080516060810190915260298082526142b4602083013961018082015261163783610d8d565b6101a0820152604080516060810190915260298082526140eb60208301396101c082015261166483611408565b6101e082015260408051606081019091526029808252614345602083013961020082015261169183610c75565b610220820152604080518082018252600d81526c1e17ba32bc3a1f1e17b9bb339f60991b60208083019190915261024084019190915282518184015183850151606080870151608088015160a089015160c08a015160e08b01516101008c01519a51959a61170b9a9596949593949293919290910161348b565b60408051808303601f19018152908290526101208401516101408501516101608601516101808701516101a08801516101c08901516101e08a01516102008b015197995061175e988a989060200161348b565b60408051808303601f190181529082905261022084015161024085015191935061178d92849290602001613448565b604051602081830303815290604052905060606117da6117ac86612577565b6117b584612641565b6040516020016117c69291906136cf565b604051602081830303815290604052612641565b9050806040516020016117ed9190613851565b60408051808303601f1901815291905295945050505050565b600080611829611820600c5461181a610c55565b90611e77565b600c5490612783565b91505090565b60115481565b6010546001600160a01b031681565b600080611829600d5461181a610c55565b6060610a5382604051806040016040528060048152602001631210539160e21b8152506019805480602002602001604051908101604052809291908181526020016000905b82821015610a4a5760008481526020908190208301805460408051601f60026000196101006001871615020190941693909304928301859004850281018501909152818152928301828280156119315780601f1061190657610100808354040283529160200191611931565b820191906000526020600020905b81548152906001019060200180831161191457829003601f168201915b50505050508152602001906001019061189a565b6000610a6b611844565b6001600160a01b03918216600090815260056020908152604080832093909416825291909152205460ff1690565b6060610a53826040518060400160405280600581526020016410d21154d560da1b8152506015805480602002602001604051908101604052809291908181526020016000905b82821015610a4a5760008481526020908190208301805460408051601f6002600019610100600187161502019094169390930492830185900485028101850190915281815292830182828015611a5a5780601f10611a2f57610100808354040283529160200191611a5a565b820191906000526020600020905b815481529060010190602001808311611a3d57829003601f168201915b5050505050815260200190600101906119c3565b611a76611f00565b600b546001600160a01b03908116911614611aa35760405162461bcd60e51b815260040161089d90613d79565b6001600160a01b038116611ac95760405162461bcd60e51b815260040161089d906139e5565b600b546040516001600160a01b038084169216907f8be0079c531659141344cd1fd0a4f28419497f9722a3daafe3b4186f6b6457e090600090a3600b80546001600160a01b0319166001600160a01b0392909216919091179055565b60006002600a541415611b4a5760405162461bcd60e51b815260040161089d90613f01565b6002600a5534611b6c5760405162461bcd60e51b815260040161089d90613f38565b601254825114611b8e5760405162461bcd60e51b815260040161089d90613df7565b6000611b98611806565b905080341015611bba5760405162461bcd60e51b815260040161089d90613b4b565b6000805b8451811015611d2f57611bcf612ed4565b60105486516001600160a01b039091169063d311636b90889085908110611bf257fe5b60200260200101516040518263ffffffff1660e01b8152600401611c169190613fab565b60006040518083038186803b158015611c2e57600080fd5b505afa158015611c42573d6000803e3d6000fd5b505050506040513d6000823e601f3d908101601f19168201604052611c6a919081019061329a565b905060028161010001516003811115611c7f57fe5b14611c9c5760405162461bcd60e51b815260040161089d90613f63565b60105486516001600160a01b03909116906323b872dd90339061dead908a9087908110611cc557fe5b60200260200101516040518463ffffffff1660e01b8152600401611ceb9392919061390f565b600060405180830381600087803b158015611d0557600080fd5b505af1158015611d19573d6000803e3d6000fd5b5050505061018001519190910190600101611bbe565b506000600f544233604051602001611d4993929190613896565b60408051601f19818403018152918152815160209283012063ffffffff81166000818152601390945291909220849055909150611d8633826127a8565b600f805460010190556000611d99611945565b601154909150611da99082612783565b601155600e546001600160a01b03166108fc611dc587846124d9565b6040518115909202916000818181858888f19350505050158015611ded573d6000803e3d6000fd5b506000611dfa34876124d9565b1115611e3857336108fc611e0e34886124d9565b6040518115909202916000818181858888f19350505050158015611e36573d6000803e3d6000fd5b505b601154604051869084907f488bbf7ce8682b98371a0bb07d4e838ce2e533a907ceda8ac6ee658fdbd162e090600090a4506001600a5595945050505050565b600082611e8657506000610a53565b82820282848281611e9357fe5b0414610ad05760405162461bcd60e51b815260040161089d90613cec565b6000610ad083836040518060400160405280601a81526020017f536166654d6174683a206469766973696f6e206279207a65726f00000000000081525061286c565b6000610a536002836128a3565b3390565b600081815260046020526040902080546001600160a01b0319166001600160a01b0384169081179091558190611f3982610d65565b6001600160a01b03167f8c5be1e5ebec7d5bd14f71427d1e84f3dd0314c0f7b2291e5b200ac8c7c3b92560405160405180910390a45050565b60606000611fa884611f8387612577565b604051602001611f94929190613419565b6040516020818303038152906040526128af565b905060608384518381611fb757fe5b0681518110611fc257fe5b60209081029190910181015160008881526013909252604082205490925090815b8015611ff95760019190910190600a9004611fe3565b506000600982111561200e5760098203612011565b60005b9050601585068101600e81111561206957601d8054869190888161203157fe5b068154811061203c57fe5b9060005260206000200160405160200161205792919061354b565b60405160208183030381529060405294505b6013811061225457612079612f5b565b601e8054888161208557fe5b068154811061209057fe5b600091825260209182902001805460408051601f600260001961010060018716150201909416939093049283018590048502810185019091528181529283018282801561211e5780601f106120f35761010080835404028352916020019161211e565b820191906000526020600020905b81548152906001019060200180831161210157829003601f168201915b50505050508160006002811061213057fe5b6020020152601f8054888161214157fe5b068154811061214c57fe5b600091825260209182902001805460408051601f60026000196101006001871615020190941693909304928301859004850281018501909152818152928301828280156121da5780601f106121af576101008083540402835291602001916121da565b820191906000526020600020905b8154815290600101906020018083116121bd57829003601f168201915b5050505050816001600281106121ec57fe5b6020020152601382141561222857805160208083015160405161221293928a91016135e3565b6040516020818303038152906040529550612252565b805160208083015160405161224093928a9101613651565b60405160208183030381529060405295505b505b509298975050505050505050565b6000610a53826128e0565b600061227882611ef3565b6122945760405162461bcd60e51b815260040161089d90613b82565b600061229f83610d65565b9050806001600160a01b0316846001600160a01b031614806122da5750836001600160a01b03166122cf84610876565b6001600160a01b0316145b806122ea57506122ea818561194f565b949350505050565b826001600160a01b031661230582610d65565b6001600160a01b03161461232b5760405162461bcd60e51b815260040161089d90613dae565b6001600160a01b0382166123515760405162461bcd60e51b815260040161089d90613ad0565b61235c838383610955565b612367600082611f04565b6001600160a01b038316600090815260016020526040902061238990826128e4565b506001600160a01b03821660009081526001602052604090206123ac90826128f0565b506123b9600282846128fc565b5080826001600160a01b0316846001600160a01b03167fddf252ad1be2c89b69c2b068fc378daa952ba7f163c4a11628f55a4df523b3ef60405160405180910390a4505050565b6000610ad08383612912565b600061241782610d65565b905061242581600084610955565b612430600083611f04565b600082815260086020526040902054600260001961010060018416150201909116041561246e57600082815260086020526040812061246e91612f74565b6001600160a01b038116600090815260016020526040902061249090836128e4565b5061249c600283612957565b5060405182906000906001600160a01b038416907fddf252ad1be2c89b69c2b068fc378daa952ba7f163c4a11628f55a4df523b3ef908390a45050565b6000610ad083836040518060400160405280601e81526020017f536166654d6174683a207375627472616374696f6e206f766572666c6f770000815250612963565b600080808061252a868661298f565b9097909650945050505050565b60006122ea8484846129eb565b61254f8484846122f2565b61255b84848484612a4a565b6114025760405162461bcd60e51b815260040161089d90613993565b60608161259c57506040805180820190915260018152600360fc1b60208201526107cc565b8160005b81156125b457600101600a820491506125a0565b60608167ffffffffffffffff811180156125cd57600080fd5b506040519080825280601f01601f1916602001820160405280156125f8576020820181803683370190505b5090505b84156122ea5760001990910190600a850660300160f81b81838151811061261f57fe5b60200101906001600160f81b031916908160001a905350600a850494506125fc565b8051606090806126615750506040805160208101909152600081526107cc565b6004600360028301040260606020820167ffffffffffffffff8111801561268757600080fd5b506040519080825280601f01601f1916602001820160405280156126b2576020820181803683370190505b50905060606040518060600160405280604081526020016142dd604091399050600181016020830160005b8681101561273e576003818a01810151603f601282901c8116860151600c83901c8216870151600684901c831688015192909316870151600891821b60ff94851601821b92841692909201901b91160160e01b8352600490920191016126dd565b506003860660018114612758576002811461276957612775565b613d3d60f01b600119830152612775565b603d60f81b6000198301525b505050918152949350505050565b600082820183811015610ad05760405162461bcd60e51b815260040161089d90613a62565b6001600160a01b0382166127ce5760405162461bcd60e51b815260040161089d90613cb7565b6127d781611ef3565b156127f45760405162461bcd60e51b815260040161089d90613a2b565b61280060008383610955565b6001600160a01b038216600090815260016020526040902061282290826128f0565b5061282f600282846128fc565b5060405181906001600160a01b038416906000907fddf252ad1be2c89b69c2b068fc378daa952ba7f163c4a11628f55a4df523b3ef908290a45050565b6000818361288d5760405162461bcd60e51b815260040161089d919061393e565b50600083858161289957fe5b0495945050505050565b6000610ad08383612b29565b6000816040516020016128c291906133fd565b60408051601f19818403018152919052805160209091012092915050565b5490565b6000610ad08383612b41565b6000610ad08383612c0e565b60006122ea84846001600160a01b038516612c58565b815460009082106129355760405162461bcd60e51b815260040161089d90613951565b82600001828154811061294457fe5b9060005260206000200154905092915050565b6000610ad08383612cef565b600081848411156129875760405162461bcd60e51b815260040161089d919061393e565b505050900390565b8154600090819083106129b45760405162461bcd60e51b815260040161089d90613c75565b60008460000184815481106129c557fe5b906000526020600020906002020190508060000154816001015492509250509250929050565b60008281526001840160205260408120548281612a1b5760405162461bcd60e51b815260040161089d919061393e565b50846000016001820381548110612a2e57fe5b9060005260206000209060020201600101549150509392505050565b6000612a5e846001600160a01b0316612dc3565b612a6a575060016122ea565b6060612af2630a85bd0160e11b612a7f611f00565b888787604051602401612a9594939291906138d2565b604051602081830303815290604052906001600160e01b0319166020820180516001600160e01b0383818316178352505050506040518060600160405280603281526020016140b9603291396001600160a01b0388169190612dc9565b9050600081806020019051810190612b0a919061327e565b6001600160e01b031916630a85bd0160e11b1492505050949350505050565b60009081526001919091016020526040902054151590565b60008181526001830160205260408120548015612bfd5783546000198083019190810190600090879083908110612b7457fe5b9060005260206000200154905080876000018481548110612b9157fe5b600091825260208083209091019290925582815260018981019092526040902090840190558654879080612bc157fe5b60019003818190600052602060002001600090559055866001016000878152602001908152602001600020600090556001945050505050610a53565b6000915050610a53565b5092915050565b6000612c1a8383612b29565b612c5057508154600181810184556000848152602080822090930184905584548482528286019093526040902091909155610a53565b506000610a53565b600082815260018401602052604081205480612cbd575050604080518082018252838152602080820184815286546001818101895560008981528481209551600290930290950191825591519082015586548684528188019092529290912055610ad0565b82856000016001830381548110612cd057fe5b9060005260206000209060020201600101819055506000915050610ad0565b60008181526001830160205260408120548015612bfd5783546000198083019190810190600090879083908110612d2257fe5b9060005260206000209060020201905080876000018481548110612d4257fe5b600091825260208083208454600290930201918255600193840154918401919091558354825289830190526040902090840190558654879080612d8157fe5b6000828152602080822060026000199094019384020182815560019081018390559290935588815289820190925260408220919091559450610a539350505050565b3b151590565b60606122ea848460008585612ddd85612dc3565b612df95760405162461bcd60e51b815260040161089d90613eca565b60006060866001600160a01b03168587604051612e1691906133fd565b60006040518083038185875af1925050503d8060008114612e53576040519150601f19603f3d011682016040523d82523d6000602084013e612e58565b606091505b5091509150612e68828286612e73565b979650505050505050565b60608315612e82575081610ad0565b825115612e925782518084602001fd5b8160405162461bcd60e51b815260040161089d919061393e565b6040518061026001604052806013905b6060815260200190600190039081612ebc5790505090565b604051806101a001604052806000815260200160006001600160a01b0316815260200160006001600160a01b031681526020016000151581526020016000815260200160008152602001600081526020016000815260200160006003811115612f3957fe5b8152602001606081526020016000815260200160008152602001600081525090565b6040805180820190915260608152600160208201612ebc565b50805460018160011615610100020316600290046000825580601f10612f9a5750612fb8565b601f016020900490600052602060002090810190612fb89190612fbb565b50565b5b80821115612fd05760008155600101612fbc565b5090565b8051610a5381614057565b8051610a538161406c565b805160048110610a5357600080fd5b600082601f830112613009578081fd5b815161301c61301782613ffb565b613fb4565b915080825283602082850101111561303357600080fd5b612c0781602084016020860161402b565b600060208284031215613055578081fd5b8135610ad081614057565b60008060408385031215613072578081fd5b823561307d81614057565b9150602083013561308d81614057565b809150509250929050565b6000806000606084860312156130ac578081fd5b83356130b781614057565b925060208401356130c781614057565b929592945050506040919091013590565b600080600080608085870312156130ed578081fd5b84356130f881614057565b9350602085013561310881614057565b925060408501359150606085013567ffffffffffffffff81111561312a578182fd5b8501601f8101871361313a578182fd5b803561314861301782613ffb565b81815288602083850101111561315c578384fd5b81602084016020830137908101602001929092525092959194509250565b6000806040838503121561318c578182fd5b823561319781614057565b9150602083013561308d8161406c565b600080604083850312156131b9578182fd5b82356131c481614057565b946020939093013593505050565b600060208083850312156131e4578182fd5b823567ffffffffffffffff8111156131fa578283fd5b8301601f8101851361320a578283fd5b803561321861301782613fdb565b8181528381019083850185840285018601891015613234578687fd5b8694505b83851015613256578035835260019490940193918501918501613238565b50979650505050505050565b600060208284031215613273578081fd5b8135610ad08161407a565b60006020828403121561328f578081fd5b8151610ad08161407a565b6000602082840312156132ab578081fd5b815167ffffffffffffffff808211156132c2578283fd5b81840191506101a08083870312156132d8578384fd5b6132e181613fb4565b9050825181526132f48660208501612fd4565b60208201526133068660408501612fd4565b60408201526133188660608501612fdf565b60608201526080830151608082015260a083015160a082015260c083015160c082015260e083015160e082015261010061335487828601612fea565b90820152610120838101518381111561336b578586fd5b61337788828701612ff9565b9183019190915250610140838101519082015261016080840151908201526101809283015192810192909252509392505050565b6000602082840312156133bc578081fd5b5035919050565b600081518084526133db81602086016020860161402b565b601f01601f19169290920160200192915050565b61227d60f01b815260020190565b6000825161340f81846020870161402b565b9190910192915050565b6000835161342b81846020880161402b565b83519083019061343f81836020880161402b565b01949350505050565b6000845161345a81846020890161402b565b84519083019061346e81836020890161402b565b845191019061348181836020880161402b565b0195945050505050565b60008a5161349d818460208f0161402b565b8a516134af8183860160208f0161402b565b8a5191840101906134c4818360208e0161402b565b89516134d68183850160208e0161402b565b89519290910101906134ec818360208c0161402b565b87516134fe8183850160208c0161402b565b8751929091010190613514818360208a0161402b565b855191019061352781836020890161402b565b8451613539818385016020890161402b565b9101019b9a5050505050505050505050565b60008351602061355e828583890161402b565b8184019150600160fd1b825260018386548281166000811461358757600181146135a2576135d5565b60ff1982168685015260028204607f168601840192506135d5565b600282046135af8a61401f565b885b828110156135cc5781548982018801529086019087016135b1565b50508601840192505b509098975050505050505050565b601160f91b8152835160009061360081600185016020890161402b565b600160fd1b600191840191820152845161362181600284016020890161402b565b61011160f51b60029290910191820152835161364481600484016020880161402b565b0160040195945050505050565b601160f91b8152835160009061366e81600185016020890161402b565b600160fd1b600191840191820152845161368f81600284016020890161402b565b61011160f51b6002929091019182015283516136b281600484016020880161402b565b62202b3160e81b6004929091019182015260070195945050505050565b6e7b226e616d65223a2022426167202360881b815282516000906136fa81600f85016020880161402b565b80830190507f222c20226465736372697074696f6e223a20224c6f6f742069732072616e646f600f8201527f6d697a656420616476656e747572657220676561722067656e65726174656420602f8201527f616e642073746f726564206f6e20636861696e2e2053746174732c20696d6167604f8201527f65732c20616e64206f746865722066756e6374696f6e616c6974792061726520606f8201527f696e74656e74696f6e616c6c79206f6d697474656420666f72206f7468657273608f8201527f20746f20696e746572707265742e204665656c206672656520746f207573652060af8201527f4c6f6f7420696e20616e792077617920796f752077616e742e222c2022696d6160cf8201527f6765223a2022646174613a696d6167652f7376672b786d6c3b6261736536342c60ef82015261010f8451613844818385016020890161402b565b612e6882828501016133ef565b60007f646174613a6170706c69636174696f6e2f6a736f6e3b6261736536342c0000008252825161388981601d85016020870161402b565b91909101601d0192915050565b928352602083019190915260601b6bffffffffffffffffffffffff1916604082015260540190565b6001600160a01b0391909116815260200190565b6001600160a01b0385811682528416602082015260408101839052608060608201819052600090613905908301846133c3565b9695505050505050565b6001600160a01b039384168152919092166020820152604081019190915260600190565b901515815260200190565b600060208252610ad060208301846133c3565b60208082526022908201527f456e756d657261626c655365743a20696e646578206f7574206f6620626f756e604082015261647360f01b606082015260800190565b60208082526032908201527f4552433732313a207472616e7366657220746f206e6f6e20455243373231526560408201527131b2b4bb32b91034b6b83632b6b2b73a32b960711b606082015260800190565b60208082526026908201527f4f776e61626c653a206e6577206f776e657220697320746865207a65726f206160408201526564647265737360d01b606082015260800190565b6020808252601c908201527f4552433732313a20746f6b656e20616c7265616479206d696e74656400000000604082015260600190565b6020808252601b908201527f536166654d6174683a206164646974696f6e206f766572666c6f770000000000604082015260600190565b6020808252601b908201527f4c6f6f743a204e6f742074686520636f7272656374206f776e65720000000000604082015260600190565b60208082526024908201527f4552433732313a207472616e7366657220746f20746865207a65726f206164646040820152637265737360e01b606082015260800190565b60208082526019908201527f4552433732313a20617070726f766520746f2063616c6c657200000000000000604082015260600190565b60208082526019908201527f4c6f6f743a204e6f7420656e6f756768204554482073656e7400000000000000604082015260600190565b6020808252602c908201527f4552433732313a206f70657261746f7220717565727920666f72206e6f6e657860408201526b34b9ba32b73a103a37b5b2b760a11b606082015260800190565b60208082526038908201527f4552433732313a20617070726f76652063616c6c6572206973206e6f74206f7760408201527f6e6572206e6f7220617070726f76656420666f7220616c6c0000000000000000606082015260800190565b6020808252602a908201527f4552433732313a2062616c616e636520717565727920666f7220746865207a65604082015269726f206164647265737360b01b606082015260800190565b60208082526022908201527f456e756d657261626c654d61703a20696e646578206f7574206f6620626f756e604082015261647360f01b606082015260800190565b6020808252818101527f4552433732313a206d696e7420746f20746865207a65726f2061646472657373604082015260600190565b60208082526021908201527f536166654d6174683a206d756c7469706c69636174696f6e206f766572666c6f6040820152607760f81b606082015260800190565b6020808252602c908201527f4552433732313a20617070726f76656420717565727920666f72206e6f6e657860408201526b34b9ba32b73a103a37b5b2b760a11b606082015260800190565b6020808252818101527f4f776e61626c653a2063616c6c6572206973206e6f7420746865206f776e6572604082015260600190565b60208082526029908201527f4552433732313a207472616e73666572206f6620746f6b656e2074686174206960408201526839903737ba1037bbb760b91b606082015260800190565b60208082526021908201527f4c6f6f743a206f726465722773206e756d6265722073686f756c6420626520386040820152601760f91b606082015260800190565b60208082526021908201527f4552433732313a20617070726f76616c20746f2063757272656e74206f776e656040820152603960f91b606082015260800190565b60208082526031908201527f4552433732313a207472616e736665722063616c6c6572206973206e6f74206f6040820152701ddb995c881b9bdc88185c1c1c9bdd9959607a1b606082015260800190565b6020808252601d908201527f416464726573733a2063616c6c20746f206e6f6e2d636f6e7472616374000000604082015260600190565b6020808252601f908201527f5265656e7472616e637947756172643a207265656e7472616e742063616c6c00604082015260600190565b602080825260119082015270131bdbdd0e88139bc8115512081cd95b9d607a1b604082015260600190565b60208082526028908201527f4c6f6f743a2054686520737461747573206f66206f72646572206973204e4f54604082015267103232b0b632b21760c11b606082015260800190565b90815260200190565b60405181810167ffffffffffffffff81118282101715613fd357600080fd5b604052919050565b600067ffffffffffffffff821115613ff1578081fd5b5060209081020190565b600067ffffffffffffffff821115614011578081fd5b50601f01601f191660200190565b60009081526020902090565b60005b8381101561404657818101518382015260200161402e565b838111156114025750506000910152565b6001600160a01b0381168114612fb857600080fd5b8015158114612fb857600080fd5b6001600160e01b031981168114612fb857600080fdfe3c2f746578743e3c7465787420783d2231302220793d2236302220636c6173733d2262617365223e4552433732313a207472616e7366657220746f206e6f6e20455243373231526563656976657220696d706c656d656e7465723c2f746578743e3c7465787420783d2231302220793d223136302220636c6173733d2262617365223e3c2f746578743e3c7465787420783d2231302220793d223132302220636c6173733d2262617365223e3c2f746578743e3c7465787420783d2231302220793d2238302220636c6173733d2262617365223e3c2f746578743e3c7465787420783d2231302220793d223130302220636c6173733d2262617365223e3c73766720786d6c6e733d22687474703a2f2f7777772e77332e6f72672f323030302f73766722207072657365727665417370656374526174696f3d22784d696e594d696e206d656574222076696577426f783d223020302033353020333530223e3c7374796c653e2e62617365207b2066696c6c3a2077686974653b20666f6e742d66616d696c793a2073657269663b20666f6e742d73697a653a20313470783b207d3c2f7374796c653e3c726563742077696474683d223130302522206865696768743d2231303025222066696c6c3d22626c61636b22202f3e3c7465787420783d2231302220793d2232302220636c6173733d2262617365223e4552433732313a206f776e657220717565727920666f72206e6f6e6578697374656e7420746f6b656e3c2f746578743e3c7465787420783d2231302220793d223134302220636c6173733d2262617365223e4142434445464748494a4b4c4d4e4f505152535455565758595a6162636465666768696a6b6c6d6e6f707172737475767778797a303132333435363738392b2f3c2f746578743e3c7465787420783d2231302220793d2234302220636c6173733d2262617365223e3c2f746578743e3c7465787420783d2231302220793d223138302220636c6173733d2262617365223ea26469706673582212209cde208c8676b4da270f98292ff9d397b26b8424302c3c27bf13ddc1e589508f64736f6c634300060c0033",
    "immutableReferences": {},
    "source": "/**\n *Submitted for verification at Etherscan.io on 2021-08-27\n*/\n\n// SPDX-License-Identifier: MIT\n\npragma solidity ^0.6.0;\npragma experimental ABIEncoderV2;\n\nimport \"./common/BasicStruct.sol\";\n\ncontract Loot is ERC721, ReentrancyGuard, Ownable {\n    \n    // this is currently 1%\n    uint256 public initMintPrice = 0.001 ether; // at 0\n    uint256 public initBurnPrice = 0.00099 ether; // at 1\n    address payable public creator;\n    uint256 public totalEverMinted = 0;\n    IERC721 public nftToken; \n    uint256 public reserve = 0;\n    uint256 public OrderNumber = 0;\n    mapping(uint256 => uint256) public tokenIdWeightMap;\n    address public constant deadAddr = 0x000000000000000000000000000000000000dEaD;\n\n    string[] private weapons = [\n        \"Warhammer\",  \n        \"Quarterstaff\",\n        \"Maul\",\n        \"Mace\",\n        \"Club\",\n        \"Katana\",\n        \"Falchion\",\n        \"Scimitar\",\n        \"Long Sword\",\n        \"Short Sword\",\n        \"Ghost Wand\",\n        \"Grave Wand\",\n        \"Bone Wand\",\n        \"Wand\",\n        \"Grimoire\",\n        \"Chronicle\",\n        \"Tome\",\n        \"Book\"\n    ];\n    \n    string[] private chestArmor = [\n        \"Divine Robe\",\n        \"Silk Robe\",\n        \"Linen Robe\",\n        \"Robe\",\n        \"Shirt\",\n        \"Demon Husk\",\n        \"Dragonskin Armor\",\n        \"Studded Leather Armor\",\n        \"Hard Leather Armor\",\n        \"Leather Armor\",\n        \"Holy Chestplate\",\n        \"Ornate Chestplate\",\n        \"Plate Mail\",\n        \"Chain Mail\",\n        \"Ring Mail\"\n    ];\n    \n    string[] private headArmor = [\n        \"Ancient Helm\",\n        \"Ornate Helm\",\n        \"Great Helm\",\n        \"Full Helm\",\n        \"Helm\",\n        \"Demon Crown\",\n        \"Dragon's Crown\",\n        \"War Cap\",\n        \"Leather Cap\",\n        \"Cap\",\n        \"Crown\",\n        \"Divine Hood\",\n        \"Silk Hood\",\n        \"Linen Hood\",\n        \"Hood\"\n    ];\n    \n    string[] private waistArmor = [\n        \"Ornate Belt\",\n        \"War Belt\",\n        \"Plated Belt\",\n        \"Mesh Belt\",\n        \"Heavy Belt\",\n        \"Demonhide Belt\",\n        \"Dragonskin Belt\",\n        \"Studded Leather Belt\",\n        \"Hard Leather Belt\",\n        \"Leather Belt\",\n        \"Brightsilk Sash\",\n        \"Silk Sash\",\n        \"Wool Sash\",\n        \"Linen Sash\",\n        \"Sash\"\n    ];\n    \n    string[] private footArmor = [\n        \"Holy Greaves\",\n        \"Ornate Greaves\",\n        \"Greaves\",\n        \"Chain Boots\",\n        \"Heavy Boots\",\n        \"Demonhide Boots\",\n        \"Dragonskin Boots\",\n        \"Studded Leather Boots\",\n        \"Hard Leather Boots\",\n        \"Leather Boots\",\n        \"Divine Slippers\",\n        \"Silk Slippers\",\n        \"Wool Shoes\",\n        \"Linen Shoes\",\n        \"Shoes\"\n    ];\n    \n    string[] private handArmor = [\n        \"Holy Gauntlets\",\n        \"Ornate Gauntlets\",\n        \"Gauntlets\",\n        \"Chain Gloves\",\n        \"Heavy Gloves\",\n        \"Demon's Hands\",\n        \"Dragonskin Gloves\",\n        \"Studded Leather Gloves\",\n        \"Hard Leather Gloves\",\n        \"Leather Gloves\",\n        \"Divine Gloves\",\n        \"Silk Gloves\",\n        \"Wool Gloves\",\n        \"Linen Gloves\",\n        \"Gloves\"\n    ];\n\n    string[] private necklaces = [\n        \"Necklace\",\n        \"Amulet\",\n        \"Pendant\"\n    ];\n    \n    string[] private rings = [\n        \"Gold Ring\",\n        \"Silver Ring\",\n        \"Bronze Ring\",\n        \"Platinum Ring\",\n        \"Titanium Ring\"\n    ];\n\n    string[] private roles = [\n        \"Human Male\",\n        \"Human Female\",\n        \"Male Robot\",\n        \"Female Robot\"\n    ];\n    \n    string[] private suffixes = [\n        \"of Power\",\n        \"of Giants\",\n        \"of Titans\",\n        \"of Skill\",\n        \"of Perfection\",\n        \"of Brilliance\",\n        \"of Enlightenment\",\n        \"of Protection\",\n        \"of Anger\",\n        \"of Rage\",\n        \"of Fury\",\n        \"of Vitriol\",\n        \"of the Fox\",\n        \"of Detection\",\n        \"of Reflection\",\n        \"of the Twins\"\n    ];\n    \n    string[] private namePrefixes = [\n        \"Agony\", \"Apocalypse\", \"Armageddon\", \"Beast\", \"Behemoth\", \"Blight\", \"Blood\", \"Bramble\", \n        \"Brimstone\", \"Brood\", \"Carrion\", \"Cataclysm\", \"Chimeric\", \"Corpse\", \"Corruption\", \"Damnation\", \n        \"Death\", \"Demon\", \"Dire\", \"Dragon\", \"Dread\", \"Doom\", \"Dusk\", \"Eagle\", \"Empyrean\", \"Fate\", \"Foe\", \n        \"Gale\", \"Ghoul\", \"Gloom\", \"Glyph\", \"Golem\", \"Grim\", \"Hate\", \"Havoc\", \"Honour\", \"Horror\", \"Hypnotic\", \n        \"Kraken\", \"Loath\", \"Maelstrom\", \"Mind\", \"Miracle\", \"Morbid\", \"Oblivion\", \"Onslaught\", \"Pain\", \n        \"Pandemonium\", \"Phoenix\", \"Plague\", \"Rage\", \"Rapture\", \"Rune\", \"Skull\", \"Sol\", \"Soul\", \"Sorrow\", \n        \"Spirit\", \"Storm\", \"Tempest\", \"Torment\", \"Vengeance\", \"Victory\", \"Viper\", \"Vortex\", \"Woe\", \"Wrath\",\n        \"Light's\", \"Shimmering\"  \n    ];\n    \n    string[] private nameSuffixes = [\n        \"Bane\",\n        \"Root\",\n        \"Bite\",\n        \"Song\",\n        \"Roar\",\n        \"Grasp\",\n        \"Instrument\",\n        \"Glow\",\n        \"Bender\",\n        \"Shadow\",\n        \"Whisper\",\n        \"Shout\",\n        \"Growl\",\n        \"Tear\",\n        \"Peak\",\n        \"Form\",\n        \"Sun\",\n        \"Moon\"\n    ];\n    \n    event Minted(uint256 indexed tokenId, uint256 indexed pricePaid, uint256 indexed reserveAfterMint);\n    event Burned(uint256 indexed tokenId, uint256 indexed priceReceived, uint256 indexed reserveAfterBurn);\n\n    constructor(uint256 _initMintPrice, IERC721 _nftToken) public ERC721(\"Bobo Loot\", \"BOT\") Ownable() {\n        initMintPrice = _initMintPrice;\n        initBurnPrice = _initMintPrice.mul(99).div(100);\n        creator = msg.sender;\n        nftToken = _nftToken;\n    }\n\n    function setCreator(address payable _creator) public onlyOwner {\n        creator = _creator;\n    }\n\n    function setOrderNumber(uint256 _orderNumber) public onlyOwner {\n        OrderNumber = _orderNumber;\n    }\n\n    function random(string memory input) internal pure returns (uint256) {\n        return uint256(keccak256(abi.encodePacked(input)));\n    }\n    \n    function getWeapon(uint256 tokenId) public view returns (string memory) {\n        return pluck(tokenId, \"WEAPON\", weapons);\n    }\n    \n    function getChest(uint256 tokenId) public view returns (string memory) {\n        return pluck(tokenId, \"CHEST\", chestArmor);\n    }\n    \n    function getHead(uint256 tokenId) public view returns (string memory) {\n        return pluck(tokenId, \"HEAD\", headArmor);\n    }\n    \n    function getWaist(uint256 tokenId) public view returns (string memory) {\n        return pluck(tokenId, \"WAIST\", waistArmor);\n    }\n\n    function getFoot(uint256 tokenId) public view returns (string memory) {\n        return pluck(tokenId, \"FOOT\", footArmor);\n    }\n    \n    function getHand(uint256 tokenId) public view returns (string memory) {\n        return pluck(tokenId, \"HAND\", handArmor);\n    }\n    \n    function getNeck(uint256 tokenId) public view returns (string memory) {\n        return pluck(tokenId, \"NECK\", necklaces);\n    }\n    \n    function getRing(uint256 tokenId) public view returns (string memory) {\n        return pluck(tokenId, \"RING\", rings);\n    }\n    \n    function getRole(uint256 tokenId) public view returns (string memory) {\n        return pluck(tokenId, \"ROLE\", roles);\n    }\n    \n    function pluck(uint256 tokenId, string memory keyPrefix, string[] memory sourceArray) internal view returns (string memory) {\n        uint256 rand = random(string(abi.encodePacked(keyPrefix, toString(tokenId))));\n        string memory output = sourceArray[rand % sourceArray.length];\n        \n        uint256 weight = tokenIdWeightMap[tokenId];\n        uint256 decimals = 0;   \n        for (uint256 x = weight; x > 0; x /= 10) {\n            decimals++;\n        }\n        uint256 factor = decimals <= 9 ? 0 : decimals - 9;  // 1000~9999U = 1, 10000~99999 U=2\n\n        uint256 greatness = rand % 21 + factor;\n        if (greatness > 14) {\n            output = string(abi.encodePacked(output, \" \", suffixes[rand % suffixes.length]));\n        }\n        if (greatness >= 19) {\n            string[2] memory name;\n            name[0] = namePrefixes[rand % namePrefixes.length];\n            name[1] = nameSuffixes[rand % nameSuffixes.length];\n            if (greatness == 19) {\n                output = string(abi.encodePacked('\"', name[0], ' ', name[1], '\" ', output));\n            } else {\n                output = string(abi.encodePacked('\"', name[0], ' ', name[1], '\" ', output, \" +1\"));\n            }\n        }\n        return output;\n    }\n\n    function tokenURI(uint256 tokenId) override public view returns (string memory) {\n        string[19] memory parts;\n        parts[0] = '<svg xmlns=\"http://www.w3.org/2000/svg\" preserveAspectRatio=\"xMinYMin meet\" viewBox=\"0 0 350 350\"><style>.base { fill: white; font-family: serif; font-size: 14px; }</style><rect width=\"100%\" height=\"100%\" fill=\"black\" /><text x=\"10\" y=\"20\" class=\"base\">';\n\n        parts[1] = getWeapon(tokenId);\n\n        parts[2] = '</text><text x=\"10\" y=\"40\" class=\"base\">';\n\n        parts[3] = getChest(tokenId);\n\n        parts[4] = '</text><text x=\"10\" y=\"60\" class=\"base\">';\n\n        parts[5] = getHead(tokenId);\n\n        parts[6] = '</text><text x=\"10\" y=\"80\" class=\"base\">';\n\n        parts[7] = getWaist(tokenId);\n\n        parts[8] = '</text><text x=\"10\" y=\"100\" class=\"base\">';\n\n        parts[9] = getFoot(tokenId);\n\n        parts[10] = '</text><text x=\"10\" y=\"120\" class=\"base\">';\n\n        parts[11] = getHand(tokenId);\n\n        parts[12] = '</text><text x=\"10\" y=\"140\" class=\"base\">';\n\n        parts[13] = getNeck(tokenId);\n\n        parts[14] = '</text><text x=\"10\" y=\"160\" class=\"base\">';\n\n        parts[15] = getRing(tokenId);\n\n        parts[16] = '</text><text x=\"10\" y=\"180\" class=\"base\">';\n\n        parts[17] = getRole(tokenId);\n\n        parts[18] = '</text></svg>';\n\n        string memory output = string(abi.encodePacked(parts[0], parts[1], parts[2], parts[3], parts[4], parts[5], parts[6], parts[7], parts[8]));\n        output = string(abi.encodePacked(output, parts[9], parts[10], parts[11], parts[12], parts[13], parts[14], parts[15], parts[16]));\n        output = string(abi.encodePacked(output, parts[17], parts[18]));\n        \n        string memory json = Base64.encode(bytes(string(abi.encodePacked('{\"name\": \"Bag #', toString(tokenId), '\", \"description\": \"Loot is randomized adventurer gear generated and stored on chain. Stats, images, and other functionality are intentionally omitted for others to interpret. Feel free to use Loot in any way you want.\", \"image\": \"data:image/svg+xml;base64,', Base64.encode(bytes(output)), '\"}'))));\n        output = string(abi.encodePacked('data:application/json;base64,', json));\n\n        return output;\n    }\n\n    function mint(uint256[] memory orderIds) payable public nonReentrant returns (uint256 _tokenId)  {\n        require(msg.value > 0, \"Loot: No ETH sent\");\n        require(orderIds.length == OrderNumber, \"Loot: order's number should be 8.\");\n\n        uint256 mintPrice = getCurrentPriceToMint();\n        require(msg.value >= mintPrice, \"Loot: Not enough ETH sent\");\n\n        uint256 totalWeight = 0;\n        for (uint256 i = 0; i < orderIds.length; i++) {\n            NFTInfo memory nftInfo = IOrderNFT(address(nftToken)).getOrderInfo(orderIds[i]);\n            require(nftInfo.status == OrderStatus.AMMDeal, \"Loot: The status of order is NOT dealed.\");\n            nftToken.transferFrom(address(msg.sender), deadAddr, orderIds[i]);\n            totalWeight += nftInfo.weight;\n        }\n\n        // mint first to increase supply\n        bytes32 hashed = keccak256(abi.encodePacked(totalEverMinted, block.timestamp, msg.sender));\n        uint256 tokenId = uint256(uint32(uint256(hashed)));\n\n        tokenIdWeightMap[tokenId] = totalWeight;\n        _mint(msg.sender, tokenId);\n        totalEverMinted +=1; \n        // disburse\n        uint256 reserveCut = getReserveCut();\n        reserve = reserve.add(reserveCut);\n        creator.transfer(mintPrice.sub(reserveCut)); // 0.5%\n\n        if(msg.value.sub(mintPrice) > 0) {\n            msg.sender.transfer(msg.value.sub(mintPrice)); // excess/padding/buffer\n        }\n\n        emit Minted(tokenId, mintPrice, reserve);\n\n        return tokenId; // returns tokenId in case its useful to check it\n    }\n\n    function burn(uint256 tokenId) public virtual {\n        require(msg.sender == ownerOf(tokenId), \"Loot: Not the correct owner\");\n\n        uint256 burnPrice = getCurrentPriceToBurn();\n        \n        // checks if allowed to burn\n        _burn(tokenId);\n\n        reserve = reserve.sub(burnPrice);\n        msg.sender.transfer(burnPrice);\n\n        emit Burned(tokenId, burnPrice, reserve);\n    }\n\n    // if supply 0, mint price = 0.001\n    function getCurrentPriceToMint() public virtual view returns (uint256) {\n        uint256 mintPrice = initMintPrice.add(getCurrentSupply().mul(initMintPrice));\n        return mintPrice;\n    }\n\n    // helper function for legibility\n    function getReserveCut() public virtual view returns (uint256) {\n        return getCurrentPriceToBurn();\n    }\n\n    // if supply 1, then burn price = 0.000995\n    function getCurrentPriceToBurn() public virtual view returns (uint256) {\n        uint256 burnPrice = getCurrentSupply().mul(initBurnPrice);\n        return burnPrice;\n    }\n\n    function getCurrentSupply() public virtual view returns (uint256) {\n        return totalSupply();\n    }\n        \n    function toString(uint256 value) internal pure returns (string memory) {\n    // Inspired by OraclizeAPI's implementation - MIT license\n    // https://github.com/oraclize/ethereum-api/blob/b42146b063c7d6ee1358846c198246239e9360e8/oraclizeAPI_0.4.25.sol\n\n        if (value == 0) {\n            return \"0\";\n        }\n        uint256 temp = value;\n        uint256 digits;\n        while (temp != 0) {\n            digits++;\n            temp /= 10;\n        }\n        bytes memory buffer = new bytes(digits);\n        while (value != 0) {\n            digits -= 1;\n            buffer[digits] = bytes1(uint8(48 + uint256(value % 10)));\n            value /= 10;\n        }\n        return string(buffer);\n    }\n}\n\n/// [MIT License]\n/// @title Base64\n/// @notice Provides a function for encoding some bytes in base64\n/// @author Brecht Devos <brecht@loopring.org>\nlibrary Base64 {\n    bytes internal constant TABLE = \"ABCDEFGHIJKLMNOPQRSTUVWXYZabcdefghijklmnopqrstuvwxyz0123456789+/\";\n\n    /// @notice Encodes some bytes to the base64 representation\n    function encode(bytes memory data) internal pure returns (string memory) {\n        uint256 len = data.length;\n        if (len == 0) return \"\";\n\n        // multiply by 4/3 rounded up\n        uint256 encodedLen = 4 * ((len + 2) / 3);\n\n        // Add some extra buffer at the end\n        bytes memory result = new bytes(encodedLen + 32);\n\n        bytes memory table = TABLE;\n\n        assembly {\n            let tablePtr := add(table, 1)\n            let resultPtr := add(result, 32)\n\n            for {\n                let i := 0\n            } lt(i, len) {\n\n            } {\n                i := add(i, 3)\n                let input := and(mload(add(data, i)), 0xffffff)\n\n                let out := mload(add(tablePtr, and(shr(18, input), 0x3F)))\n                out := shl(8, out)\n                out := add(out, and(mload(add(tablePtr, and(shr(12, input), 0x3F))), 0xFF))\n                out := shl(8, out)\n                out := add(out, and(mload(add(tablePtr, and(shr(6, input), 0x3F))), 0xFF))\n                out := shl(8, out)\n                out := add(out, and(mload(add(tablePtr, and(input, 0x3F))), 0xFF))\n                out := shl(224, out)\n\n                mstore(resultPtr, out)\n\n                resultPtr := add(resultPtr, 4)\n            }\n\n            switch mod(len, 3)\n            case 1 {\n                mstore(sub(resultPtr, 2), shl(240, 0x3d3d))\n            }\n            case 2 {\n                mstore(sub(resultPtr, 1), shl(248, 0x3d))\n            }\n\n            mstore(result, encodedLen)\n        }\n\n        return string(result);\n    }\n}",
    "sourcePath": "/Users/mryu/blockchain/bobo-metaverse/boboswap-contract/contracts/Loot.sol",
    "compiler": {
        "name": "solc",
        "version": "0.6.12+commit.27d51765.Emscripten.clang"
    },
    "schemaVersion": "3.4.3",
    "updatedAt": "2021-09-24T16:31:03.312Z",
    "devdoc": {
        "kind": "dev",
        "methods": {
            "approve(address,uint256)": {
                "details": "See {IERC721-approve}."
            },
            "balanceOf(address)": {
                "details": "See {IERC721-balanceOf}."
            },
            "baseURI()": {
                "details": "Returns the base URI set via {_setBaseURI}. This will be automatically added as a prefix in {tokenURI} to each token's URI, or to the token ID if no specific URI is set for that token ID."
            },
            "getApproved(uint256)": {
                "details": "See {IERC721-getApproved}."
            },
            "isApprovedForAll(address,address)": {
                "details": "See {IERC721-isApprovedForAll}."
            },
            "name()": {
                "details": "See {IERC721Metadata-name}."
            },
            "owner()": {
                "details": "Returns the address of the current owner."
            },
            "ownerOf(uint256)": {
                "details": "See {IERC721-ownerOf}."
            },
            "renounceOwnership()": {
                "details": "Leaves the contract without owner. It will not be possible to call `onlyOwner` functions anymore. Can only be called by the current owner. NOTE: Renouncing ownership will leave the contract without an owner, thereby removing any functionality that is only available to the owner."
            },
            "safeTransferFrom(address,address,uint256)": {
                "details": "See {IERC721-safeTransferFrom}."
            },
            "safeTransferFrom(address,address,uint256,bytes)": {
                "details": "See {IERC721-safeTransferFrom}."
            },
            "setApprovalForAll(address,bool)": {
                "details": "See {IERC721-setApprovalForAll}."
            },
            "supportsInterface(bytes4)": {
                "details": "See {IERC165-supportsInterface}. Time complexity O(1), guaranteed to always use less than 30 000 gas."
            },
            "symbol()": {
                "details": "See {IERC721Metadata-symbol}."
            },
            "tokenByIndex(uint256)": {
                "details": "See {IERC721Enumerable-tokenByIndex}."
            },
            "tokenOfOwnerByIndex(address,uint256)": {
                "details": "See {IERC721Enumerable-tokenOfOwnerByIndex}."
            },
            "tokenURI(uint256)": {
                "details": "See {IERC721Metadata-tokenURI}."
            },
            "totalSupply()": {
                "details": "See {IERC721Enumerable-totalSupply}."
            },
            "transferFrom(address,address,uint256)": {
                "details": "See {IERC721-transferFrom}."
            },
            "transferOwnership(address)": {
                "details": "Transfers ownership of the contract to a new account (`newOwner`). Can only be called by the current owner."
            }
        },
        "version": 1
    },
    "userdoc": {
        "kind": "user",
        "methods": {},
        "version": 1
    }
}