{
  "contractName": "NewStratMaticSushi",
  "abi": [
    {
      "inputs": [
        {
          "internalType": "address",
          "name": "_boboAddr",
          "type": "address"
        },
        {
          "internalType": "address",
          "name": "_boboFarmer",
          "type": "address"
        }
      ],
      "stateMutability": "nonpayable",
      "type": "constructor"
    },
    {
      "anonymous": false,
      "inputs": [
        {
          "indexed": true,
          "internalType": "address",
          "name": "previousOwner",
          "type": "address"
        },
        {
          "indexed": true,
          "internalType": "address",
          "name": "newOwner",
          "type": "address"
        }
      ],
      "name": "OwnershipTransferred",
      "type": "event"
    },
    {
      "inputs": [],
      "name": "BOBO",
      "outputs": [
        {
          "internalType": "address",
          "name": "",
          "type": "address"
        }
      ],
      "stateMutability": "view",
      "type": "function"
    },
    {
      "inputs": [],
      "name": "BasePercent",
      "outputs": [
        {
          "internalType": "uint256",
          "name": "",
          "type": "uint256"
        }
      ],
      "stateMutability": "view",
      "type": "function"
    },
    {
      "inputs": [],
      "name": "SUSHI",
      "outputs": [
        {
          "internalType": "address",
          "name": "",
          "type": "address"
        }
      ],
      "stateMutability": "view",
      "type": "function"
    },
    {
      "inputs": [],
      "name": "USDC",
      "outputs": [
        {
          "internalType": "address",
          "name": "",
          "type": "address"
        }
      ],
      "stateMutability": "view",
      "type": "function"
    },
    {
      "inputs": [],
      "name": "USDT",
      "outputs": [
        {
          "internalType": "address",
          "name": "",
          "type": "address"
        }
      ],
      "stateMutability": "view",
      "type": "function"
    },
    {
      "inputs": [],
      "name": "WMATIC",
      "outputs": [
        {
          "internalType": "address",
          "name": "",
          "type": "address"
        }
      ],
      "stateMutability": "view",
      "type": "function"
    },
    {
      "inputs": [],
      "name": "burnedBOBORate",
      "outputs": [
        {
          "internalType": "uint256",
          "name": "",
          "type": "uint256"
        }
      ],
      "stateMutability": "view",
      "type": "function"
    },
    {
      "inputs": [],
      "name": "burnedBOBORateUL",
      "outputs": [
        {
          "internalType": "uint256",
          "name": "",
          "type": "uint256"
        }
      ],
      "stateMutability": "view",
      "type": "function"
    },
    {
      "inputs": [],
      "name": "burnedTokenAddress",
      "outputs": [
        {
          "internalType": "address",
          "name": "",
          "type": "address"
        }
      ],
      "stateMutability": "view",
      "type": "function"
    },
    {
      "inputs": [],
      "name": "curFactory",
      "outputs": [
        {
          "internalType": "address",
          "name": "",
          "type": "address"
        }
      ],
      "stateMutability": "view",
      "type": "function"
    },
    {
      "inputs": [],
      "name": "curMasterChef",
      "outputs": [
        {
          "internalType": "address",
          "name": "",
          "type": "address"
        }
      ],
      "stateMutability": "view",
      "type": "function"
    },
    {
      "inputs": [
        {
          "internalType": "address",
          "name": "",
          "type": "address"
        },
        {
          "internalType": "address",
          "name": "",
          "type": "address"
        }
      ],
      "name": "curPidMap",
      "outputs": [
        {
          "internalType": "uint256",
          "name": "",
          "type": "uint256"
        }
      ],
      "stateMutability": "view",
      "type": "function"
    },
    {
      "inputs": [],
      "name": "curRouter",
      "outputs": [
        {
          "internalType": "address",
          "name": "",
          "type": "address"
        }
      ],
      "stateMutability": "view",
      "type": "function"
    },
    {
      "inputs": [],
      "name": "deadAddr",
      "outputs": [
        {
          "internalType": "address",
          "name": "",
          "type": "address"
        }
      ],
      "stateMutability": "view",
      "type": "function"
    },
    {
      "inputs": [],
      "name": "devFundAddr",
      "outputs": [
        {
          "internalType": "address",
          "name": "",
          "type": "address"
        }
      ],
      "stateMutability": "view",
      "type": "function"
    },
    {
      "inputs": [],
      "name": "devFundFee",
      "outputs": [
        {
          "internalType": "uint256",
          "name": "",
          "type": "uint256"
        }
      ],
      "stateMutability": "view",
      "type": "function"
    },
    {
      "inputs": [],
      "name": "devFundFeeUL",
      "outputs": [
        {
          "internalType": "uint256",
          "name": "",
          "type": "uint256"
        }
      ],
      "stateMutability": "view",
      "type": "function"
    },
    {
      "inputs": [],
      "name": "earnedTokenOne",
      "outputs": [
        {
          "internalType": "address",
          "name": "",
          "type": "address"
        }
      ],
      "stateMutability": "view",
      "type": "function"
    },
    {
      "inputs": [],
      "name": "earnedTokenTwo",
      "outputs": [
        {
          "internalType": "address",
          "name": "",
          "type": "address"
        }
      ],
      "stateMutability": "view",
      "type": "function"
    },
    {
      "inputs": [],
      "name": "govAddress",
      "outputs": [
        {
          "internalType": "address",
          "name": "",
          "type": "address"
        }
      ],
      "stateMutability": "view",
      "type": "function"
    },
    {
      "inputs": [],
      "name": "minFarmAmount",
      "outputs": [
        {
          "internalType": "uint256",
          "name": "",
          "type": "uint256"
        }
      ],
      "stateMutability": "view",
      "type": "function"
    },
    {
      "inputs": [],
      "name": "owner",
      "outputs": [
        {
          "internalType": "address",
          "name": "",
          "type": "address"
        }
      ],
      "stateMutability": "view",
      "type": "function"
    },
    {
      "inputs": [],
      "name": "renounceOwnership",
      "outputs": [],
      "stateMutability": "nonpayable",
      "type": "function"
    },
    {
      "inputs": [
        {
          "internalType": "address",
          "name": "",
          "type": "address"
        }
      ],
      "name": "sharesTotalMap",
      "outputs": [
        {
          "internalType": "uint256",
          "name": "",
          "type": "uint256"
        }
      ],
      "stateMutability": "view",
      "type": "function"
    },
    {
      "inputs": [],
      "name": "sushiFactory",
      "outputs": [
        {
          "internalType": "address",
          "name": "",
          "type": "address"
        }
      ],
      "stateMutability": "view",
      "type": "function"
    },
    {
      "inputs": [],
      "name": "sushiMasterChef",
      "outputs": [
        {
          "internalType": "address",
          "name": "",
          "type": "address"
        }
      ],
      "stateMutability": "view",
      "type": "function"
    },
    {
      "inputs": [],
      "name": "sushiRouter",
      "outputs": [
        {
          "internalType": "address",
          "name": "",
          "type": "address"
        }
      ],
      "stateMutability": "view",
      "type": "function"
    },
    {
      "inputs": [],
      "name": "totalBurnedBOT",
      "outputs": [
        {
          "internalType": "uint256",
          "name": "",
          "type": "uint256"
        }
      ],
      "stateMutability": "view",
      "type": "function"
    },
    {
      "inputs": [
        {
          "internalType": "address",
          "name": "newOwner",
          "type": "address"
        }
      ],
      "name": "transferOwnership",
      "outputs": [],
      "stateMutability": "nonpayable",
      "type": "function"
    },
    {
      "inputs": [],
      "name": "wantAddress",
      "outputs": [
        {
          "internalType": "address",
          "name": "",
          "type": "address"
        }
      ],
      "stateMutability": "view",
      "type": "function"
    },
    {
      "inputs": [
        {
          "internalType": "address",
          "name": "",
          "type": "address"
        }
      ],
      "name": "wantLockedTotalMap",
      "outputs": [
        {
          "internalType": "uint256",
          "name": "",
          "type": "uint256"
        }
      ],
      "stateMutability": "view",
      "type": "function"
    },
    {
      "inputs": [
        {
          "internalType": "address",
          "name": "_tokenAddr",
          "type": "address"
        },
        {
          "internalType": "uint256",
          "name": "_totalShare",
          "type": "uint256"
        },
        {
          "internalType": "uint256",
          "name": "_totalLocked",
          "type": "uint256"
        }
      ],
      "name": "initTotalShareAndLocked",
      "outputs": [],
      "stateMutability": "nonpayable",
      "type": "function"
    },
    {
      "inputs": [
        {
          "internalType": "address",
          "name": "_tokenAddr",
          "type": "address"
        }
      ],
      "name": "clearAndTransferTokens",
      "outputs": [
        {
          "internalType": "uint256",
          "name": "",
          "type": "uint256"
        },
        {
          "internalType": "uint256",
          "name": "",
          "type": "uint256"
        }
      ],
      "stateMutability": "nonpayable",
      "type": "function"
    },
    {
      "inputs": [
        {
          "internalType": "address",
          "name": "_factory",
          "type": "address"
        },
        {
          "internalType": "address",
          "name": "_router",
          "type": "address"
        },
        {
          "internalType": "address",
          "name": "_masterChef",
          "type": "address"
        },
        {
          "internalType": "address",
          "name": "_earnedTokenAddrOne",
          "type": "address"
        },
        {
          "internalType": "address",
          "name": "_earnedTokenAddrTwo",
          "type": "address"
        },
        {
          "internalType": "address[]",
          "name": "_token0s",
          "type": "address[]"
        },
        {
          "internalType": "address[]",
          "name": "_token1s",
          "type": "address[]"
        },
        {
          "internalType": "uint256[]",
          "name": "_pids",
          "type": "uint256[]"
        }
      ],
      "name": "setNewSwapInfo",
      "outputs": [],
      "stateMutability": "nonpayable",
      "type": "function"
    },
    {
      "inputs": [
        {
          "internalType": "address",
          "name": "_token0",
          "type": "address"
        },
        {
          "internalType": "address",
          "name": "_token1",
          "type": "address"
        }
      ],
      "name": "getBalances",
      "outputs": [
        {
          "internalType": "uint256",
          "name": "",
          "type": "uint256"
        },
        {
          "internalType": "uint256",
          "name": "",
          "type": "uint256"
        }
      ],
      "stateMutability": "view",
      "type": "function"
    },
    {
      "inputs": [
        {
          "internalType": "uint256",
          "name": "_wantAmt",
          "type": "uint256"
        },
        {
          "internalType": "address",
          "name": "_wantAddr",
          "type": "address"
        }
      ],
      "name": "deposit",
      "outputs": [
        {
          "internalType": "uint256",
          "name": "",
          "type": "uint256"
        }
      ],
      "stateMutability": "nonpayable",
      "type": "function"
    },
    {
      "inputs": [],
      "name": "farm",
      "outputs": [],
      "stateMutability": "nonpayable",
      "type": "function"
    },
    {
      "inputs": [],
      "name": "earn",
      "outputs": [],
      "stateMutability": "nonpayable",
      "type": "function"
    },
    {
      "inputs": [
        {
          "internalType": "uint256",
          "name": "_wantAmt",
          "type": "uint256"
        },
        {
          "internalType": "address",
          "name": "_wantAddr",
          "type": "address"
        }
      ],
      "name": "withdraw",
      "outputs": [
        {
          "internalType": "uint256",
          "name": "",
          "type": "uint256"
        }
      ],
      "stateMutability": "nonpayable",
      "type": "function"
    },
    {
      "inputs": [
        {
          "internalType": "uint256",
          "name": "_devFundFee",
          "type": "uint256"
        }
      ],
      "name": "setDevFundFee",
      "outputs": [],
      "stateMutability": "nonpayable",
      "type": "function"
    },
    {
      "inputs": [
        {
          "internalType": "uint256",
          "name": "_burnedBOBORate",
          "type": "uint256"
        }
      ],
      "name": "setBurnedBoboRate",
      "outputs": [],
      "stateMutability": "nonpayable",
      "type": "function"
    },
    {
      "inputs": [
        {
          "internalType": "address",
          "name": "_govAddress",
          "type": "address"
        }
      ],
      "name": "setGov",
      "outputs": [],
      "stateMutability": "nonpayable",
      "type": "function"
    },
    {
      "inputs": [
        {
          "internalType": "address",
          "name": "_devFundAddr",
          "type": "address"
        }
      ],
      "name": "setDevFundAddr",
      "outputs": [],
      "stateMutability": "nonpayable",
      "type": "function"
    },
    {
      "inputs": [
        {
          "internalType": "address",
          "name": "_addToken",
          "type": "address"
        }
      ],
      "name": "addFarmToken",
      "outputs": [
        {
          "internalType": "bool",
          "name": "",
          "type": "bool"
        }
      ],
      "stateMutability": "nonpayable",
      "type": "function"
    },
    {
      "inputs": [
        {
          "internalType": "address",
          "name": "_delToken",
          "type": "address"
        }
      ],
      "name": "delFarmToken",
      "outputs": [
        {
          "internalType": "bool",
          "name": "",
          "type": "bool"
        }
      ],
      "stateMutability": "nonpayable",
      "type": "function"
    },
    {
      "inputs": [],
      "name": "getFarmTokenLength",
      "outputs": [
        {
          "internalType": "uint256",
          "name": "",
          "type": "uint256"
        }
      ],
      "stateMutability": "view",
      "type": "function"
    },
    {
      "inputs": [
        {
          "internalType": "address",
          "name": "_farmToken",
          "type": "address"
        }
      ],
      "name": "isFarmToken",
      "outputs": [
        {
          "internalType": "bool",
          "name": "",
          "type": "bool"
        }
      ],
      "stateMutability": "view",
      "type": "function"
    },
    {
      "inputs": [
        {
          "internalType": "uint256",
          "name": "_index",
          "type": "uint256"
        }
      ],
      "name": "getFarmToken",
      "outputs": [
        {
          "internalType": "address",
          "name": "",
          "type": "address"
        }
      ],
      "stateMutability": "view",
      "type": "function"
    }
  ],
  "bytecode": "0x6080604052620f4240600355600480546001600160a01b0319908116730d500b1d8e8ef31e21c99d1db9a6444d3adf127017909155600580548216730b3f868e0be5597d5db7feb59e1cadbb0fdda50a179055600780548216731b02da8cb0d097eb8d57a175b88c7d8b4799750617905560088054821673c35dadb65012ec5796536bd9864ed8773abc74c417905560098054909116730769fd68dfb93167989c6f7254cd0d766fb2841f1790556000601155611388601455348015620000c557600080fd5b506040516200519f3803806200519f83398181016040526040811015620000eb57600080fd5b50805160209091015160006200010062000260565b600080546001600160a01b0319166001600160a01b0383169081178255604051929350916000805160206200511f833981519152908290a35060018055600c8054336001600160a01b031991821681179092556013805482169092179091556002805482166001600160a01b038516908117909155600680549092161790556200019e73c2132d05d31c914a87c6611c10748aeb04b58e8f62000264565b50620001be732791bca1f2de4661ed88a30c99a7a9449aa8417462000264565b5060087f0a3a08017c49ad668498c8ee5f94e1b27b01dd1c4a8943c33595d55475312b6081905573c2132d05d31c914a87c6611c10748aeb04b58e8f6000527f474004c7927b2560dd97c5daeafd0716bb5ab37068c353c099c4171ac04e85226020527fd4f88f3872da3c1ea3dc9d8a09c2badf7a7b6d96e99da64c5de886aa4b746116556200024e81620002e5565b62000258620003e3565b505062000a41565b3390565b600c546000906001600160a01b03163314620002c7576040805162461bcd60e51b815260206004820152601560248201527f53747261744d6174696353757368693a2021676f760000000000000000000000604482015290519081900360640190fd5b620002df600d83620005ab60201b62001d3f1760201c565b92915050565b620002ef62000260565b6000546001600160a01b0390811691161462000352576040805162461bcd60e51b815260206004820181905260248201527f4f776e61626c653a2063616c6c6572206973206e6f7420746865206f776e6572604482015290519081900360640190fd5b6001600160a01b038116620003995760405162461bcd60e51b8152600401808060200182810382526026815260200180620050d36026913960400191505060405180910390fd5b600080546040516001600160a01b03808516939216916000805160206200511f83398151915291a3600080546001600160a01b0319166001600160a01b0392909216919091179055565b6007546200041f9073c2132d05d31c914a87c6611c10748aeb04b58e8f906001600160a01b0316600019620005c9602090811b62001d5417901c565b6007546200045b90732791bca1f2de4661ed88a30c99a7a9449aa84174906001600160a01b0316600019620005c9602090811b62001d5417901c565b6007546200049790730b3f868e0be5597d5db7feb59e1cadbb0fdda50a906001600160a01b0316600019620005c9602090811b62001d5417901c565b600754620004d390730d500b1d8e8ef31e21c99d1db9a6444d3adf1270906001600160a01b0316600019620005c9602090811b62001d5417901c565b6008546040805163e6a4390560e01b815273c2132d05d31c914a87c6611c10748aeb04b58e8f6004820152732791bca1f2de4661ed88a30c99a7a9449aa84174602482015290516000926001600160a01b03169163e6a43905916044808301926020929190829003018186803b1580156200054d57600080fd5b505afa15801562000562573d6000803e3d6000fd5b505050506040513d60208110156200057957600080fd5b5051600754909150620005a8906001600160a01b038084169116600019620005c9602090811b62001d5417901c565b50565b6000620005c2836001600160a01b038416620006ed565b9392505050565b80158062000653575060408051636eb1769f60e11b81523060048201526001600160a01b03848116602483015291519185169163dd62ed3e91604480820192602092909190829003018186803b1580156200062357600080fd5b505afa15801562000638573d6000803e3d6000fd5b505050506040513d60208110156200064f57600080fd5b5051155b620006905760405162461bcd60e51b8152600401808060200182810382526036815260200180620051696036913960400191505060405180910390fd5b604080516001600160a01b038416602482015260448082018490528251808303909101815260649091019091526020810180516001600160e01b0390811663095ea7b360e01b17909152620006e89185916200073c16565b505050565b6000620006fb8383620007f8565b6200073357508154600181810184556000848152602080822090930184905584548482528286019093526040902091909155620002df565b506000620002df565b606062000798826040518060400160405280602081526020017f5361666545524332303a206c6f772d6c6576656c2063616c6c206661696c6564815250856001600160a01b03166200081060201b62001e6c179092919060201c565b805190915015620006e857808060200190516020811015620007b957600080fd5b5051620006e85760405162461bcd60e51b815260040180806020018281038252602a8152602001806200513f602a913960400191505060405180910390fd5b60009081526001919091016020526040902054151590565b606062000821848460008562000829565b949350505050565b6060824710156200086c5760405162461bcd60e51b8152600401808060200182810382526026815260200180620050f96026913960400191505060405180910390fd5b620008778562000991565b620008c9576040805162461bcd60e51b815260206004820152601d60248201527f416464726573733a2063616c6c20746f206e6f6e2d636f6e7472616374000000604482015290519081900360640190fd5b60006060866001600160a01b031685876040518082805190602001908083835b602083106200090a5780518252601f199092019160209182019101620008e9565b6001836020036101000a03801982511681845116808217855250505050505090500191505060006040518083038185875af1925050503d80600081146200096e576040519150601f19603f3d011682016040523d82523d6000602084013e62000973565b606091505b5090925090506200098682828662000997565b979650505050505050565b3b151590565b60608315620009a8575081620005c2565b825115620009b95782518084602001fd5b8160405162461bcd60e51b81526004018080602001828103825283818151815260200191508051906020019080838360005b8381101562000a05578181015183820152602001620009eb565b50505050905090810190601f16801562000a335780820380516001836020036101000a031916815260200191505b509250505060405180910390fd5b6146828062000a516000396000f3fe608060405234801561001057600080fd5b506004361061029f5760003560e01c806389a3027111610167578063adb92d9c116100ce578063d389800f11610087578063d389800f146107ef578063db22d399146107f7578063ded33561146107ff578063e7a0367914610825578063f14869161461082d578063f2fde38b146108355761029f565b8063adb92d9c14610783578063b51f01b21461078b578063b635b8ae146107b1578063c54e44eb146107b9578063c9bbd04a146107c1578063cfad57a2146107c95761029f565b8063969ce1db11610120578063969ce1db146107535780639a0381cb1461075b5780639eedc49214610763578063a2eddfb81461076b578063a596252414610773578063ab560e101461077b5761029f565b806389a30271146105195780638b814ff8146105215780638d3b5ed8146106f85780638da5cb5b1461072657806390358db61461072e578063937ab63a1461074b5761029f565b80634d95cad91161020b5780637068d3cf116101c45780637068d3cf1461047b578063715018a6146104b557806377537937146104bd578063781c74d0146104e35780637cdcd2fe146105095780637d5bb272146105115761029f565b80634d95cad91461041257806350f0522c1461041a5780636bba77d0146104225780636d13582c1461042a5780636e4ae94e146104325780636e553f651461044f5761029f565b80630e7e2dd91161025d5780630e7e2dd9146103af57806314e6ac09146103b757806322984b24146103d45780632321b3ca146103dc57806336e9332d1461040257806346008a071461040a5761029f565b8062f714ce146102a4578063021bdc62146102e2578063045d46c214610306578063082ceeb31461034d57806308668e26146103815780630bdf862a146103a7575b600080fd5b6102d0600480360360408110156102ba57600080fd5b50803590602001356001600160a01b031661085b565b60408051918252519081900360200190f35b6102ea610b75565b604080516001600160a01b039092168252519081900360200190f35b6103346004803603604081101561031c57600080fd5b506001600160a01b0381358116916020013516610b84565b6040805192835260208301919091528051918290030190f35b61037f6004803603606081101561036357600080fd5b506001600160a01b038135169060208101359060400135610e80565b005b6102d06004803603602081101561039757600080fd5b50356001600160a01b0316610f00565b6102d0610f12565b6102d0610f18565b61037f600480360360208110156103cd57600080fd5b5035610f1e565b6102ea610fb2565b6102d0600480360360208110156103f257600080fd5b50356001600160a01b0316610fca565b61037f610fdc565b6102ea611047565b6102ea611056565b6102d061106e565b6102d0611074565b6102ea611085565b6102ea6004803603602081101561044857600080fd5b503561109d565b6102d06004803603604081101561046557600080fd5b50803590602001356001600160a01b031661115d565b6104a16004803603602081101561049157600080fd5b50356001600160a01b03166112f8565b604080519115158252519081900360200190f35b61037f611353565b610334600480360360208110156104d357600080fd5b50356001600160a01b03166113f5565b6104a1600480360360208110156104f957600080fd5b50356001600160a01b0316611641565b6102ea61164e565b6102d061165d565b6102ea611663565b61037f600480360361010081101561053857600080fd5b6001600160a01b03823581169260208101358216926040820135831692606083013581169260808101359091169181019060c0810160a0820135600160201b81111561058357600080fd5b82018360208201111561059557600080fd5b803590602001918460208302840111600160201b831117156105b657600080fd5b9190808060200260200160405190810160405280939291908181526020018383602002808284376000920191909152509295949360208101935035915050600160201b81111561060557600080fd5b82018360208201111561061757600080fd5b803590602001918460208302840111600160201b8311171561063857600080fd5b9190808060200260200160405190810160405280939291908181526020018383602002808284376000920191909152509295949360208101935035915050600160201b81111561068757600080fd5b82018360208201111561069957600080fd5b803590602001918460208302840111600160201b831117156106ba57600080fd5b91908080602002602001604051908101604052809392919081815260200183836020028082843760009201919091525092955061167b945050505050565b6102d06004803603604081101561070e57600080fd5b506001600160a01b0381358116916020013516611951565b6102ea61196e565b61037f6004803603602081101561074457600080fd5b503561197d565b6102ea611a11565b6102ea611a20565b6102d0611a2f565b6102d0611a35565b6102ea611a3b565b6102ea611a4a565b6102ea611a50565b6102ea611a68565b6104a1600480360360208110156107a157600080fd5b50356001600160a01b0316611a77565b6102d0611ad2565b6102ea611ad8565b6102ea611af0565b61037f600480360360208110156107df57600080fd5b50356001600160a01b0316611b08565b61037f611b77565b6102ea611bab565b61037f6004803603602081101561081557600080fd5b50356001600160a01b0316611bba565b6102ea611c29565b6102ea611c38565b61037f6004803603602081101561084b57600080fd5b50356001600160a01b0316611c47565b6000610865611e83565b6000546001600160a01b039081169116146108b5576040805162461bcd60e51b815260206004820181905260248201526000805160206145cd833981519152604482015290519081900360640190fd5b6002600154141561090d576040805162461bcd60e51b815260206004820152601f60248201527f5265656e7472616e637947756172643a207265656e7472616e742063616c6c00604482015290519081900360640190fd5b600260015582610964576040805162461bcd60e51b815260206004820152601e60248201527f53747261744d6174696353757368693a205f77616e74416d74203c3d20300000604482015290519081900360640190fd5b61096d82611641565b6109be576040805162461bcd60e51b815260206004820181905260248201527f53747261744d6174696353757368693a204e4f54206661726d20746f6b656e2e604482015290519081900360640190fd5b60006001600160a01b03831673c2132d05d31c914a87c6611c10748aeb04b58e8f146109fe5773c2132d05d31c914a87c6611c10748aeb04b58e8f610a14565b732791bca1f2de4661ed88a30c99a7a9449aa841745b90506000610a23858584611e87565b6001600160a01b0385166000908152600f602090815260408083205460109092528220549293509091610a629190610a5c908590612421565b9061247a565b6001600160a01b038616600090815260106020526040902054909150610a89908390612421565b6001600160a01b0386166000908152600f6020526040902054610aad908390612421565b1015610ac157610abe8160016124bc565b90505b6001600160a01b038516600090815260106020526040902054811115610afc57506001600160a01b0384166000908152601060205260409020545b6001600160a01b038516600090815260106020526040902054610b1f9082612516565b6001600160a01b038616600090815260106020908152604080832093909355600f90522054610b4e9083612516565b6001600160a01b0386166000908152600f6020526040902055925050506001805592915050565b6004546001600160a01b031681565b6008546040805163e6a4390560e01b81526001600160a01b038581166004830152848116602483015291516000938493849391169163e6a4390591604480820192602092909190829003018186803b158015610bdf57600080fd5b505afa158015610bf3573d6000803e3d6000fd5b505050506040513d6020811015610c0957600080fd5b5051604080516318160ddd60e01b815290519192506000916001600160a01b038416916318160ddd916004808301926020929190829003018186803b158015610c5157600080fd5b505afa158015610c65573d6000803e3d6000fd5b505050506040513d6020811015610c7b57600080fd5b50516009546001600160a01b038881166000908152600a602090815260408083208b851684529091528082205481516393f1a40b60e01b815260048101919091523060248201528151959650919492909316926393f1a40b92604480840193829003018186803b158015610cee57600080fd5b505afa158015610d02573d6000803e3d6000fd5b505050506040513d6040811015610d1857600080fd5b505160408051630240bc6b60e21b8152905191925060009182916001600160a01b03871691630902f1ac91600480820192606092909190829003018186803b158015610d6357600080fd5b505afa158015610d77573d6000803e3d6000fd5b505050506040513d6060811015610d8d57600080fd5b50805160209182015160408051630dfe168160e01b815290516dffffffffffffffffffffffffffff93841696509290911693506000926001600160a01b03891692630dfe1681926004808201939291829003018186803b158015610df057600080fd5b505afa158015610e04573d6000803e3d6000fd5b505050506040513d6020811015610e1a57600080fd5b505190506001600160a01b03808216908b161415610e5d57610e4085610a5c8587612421565b610e4e86610a5c8588612421565b97509750505050505050610e79565b610e6b85610a5c8487612421565b610e4e86610a5c8688612421565b9250929050565b610e88611e83565b6000546001600160a01b03908116911614610ed8576040805162461bcd60e51b815260206004820181905260248201526000805160206145cd833981519152604482015290519081900360640190fd5b6001600160a01b03909216600090815260106020908152604080832093909355600f90522055565b600f6020526000908152604090205481565b60115481565b6107d081565b600c546001600160a01b03163314610f6b576040805162461bcd60e51b815260206004820152601560248201526000805160206144de833981519152604482015290519081900360640190fd5b6107d0811115610fad576040805162461bcd60e51b81526020600482015260086024820152670e8dede40d0d2ced60c31b604482015290519081900360640190fd5b601455565b73c35dadb65012ec5796536bd9864ed8773abc74c481565b60106020526000908152604090205481565b60026001541415611034576040805162461bcd60e51b815260206004820152601f60248201527f5265656e7472616e637947756172643a207265656e7472616e742063616c6c00604482015290519081900360640190fd5b6002600155611041612558565b60018055565b600c546001600160a01b031681565b730d500b1d8e8ef31e21c99d1db9a6444d3adf127081565b60125481565b6000611080600d61258a565b905090565b731b02da8cb0d097eb8d57a175b88c7d8b4799750681565b600c546000906001600160a01b031633146110ed576040805162461bcd60e51b815260206004820152601560248201526000805160206144de833981519152604482015290519081900360640190fd5b60016110f7611074565b0382111561114c576040805162461bcd60e51b815260206004820181905260248201527f537461744d647843616b653a20696e646578206f7574206f6620626f756e6473604482015290519081900360640190fd5b611157600d83612595565b92915050565b6000611167611e83565b6000546001600160a01b039081169116146111b7576040805162461bcd60e51b815260206004820181905260248201526000805160206145cd833981519152604482015290519081900360640190fd5b6111c082611641565b611211576040805162461bcd60e51b815260206004820181905260248201527f53747261744d6174696353757368693a204e4f54206661726d20746f6b656e2e604482015290519081900360640190fd5b6112266001600160a01b0383163330866125a1565b6001600160a01b0382166000908152600f602052604090205483901561127e576001600160a01b0383166000908152600f602090815260408083205460109092529091205461127b9190610a5c908790612421565b90505b6001600160a01b0383166000908152601060205260409020546112a190826124bc565b6001600160a01b038416600090815260106020908152604080832093909355600f905220546112d090856124bc565b6001600160a01b0384166000908152600f60205260409020556112f1612558565b9392505050565b600c546000906001600160a01b03163314611348576040805162461bcd60e51b815260206004820152601560248201526000805160206144de833981519152604482015290519081900360640190fd5b611157600d83612601565b61135b611e83565b6000546001600160a01b039081169116146113ab576040805162461bcd60e51b815260206004820181905260248201526000805160206145cd833981519152604482015290519081900360640190fd5b600080546040516001600160a01b03909116907f8be0079c531659141344cd1fd0a4f28419497f9722a3daafe3b4186f6b6457e0908390a3600080546001600160a01b0319169055565b600080611400611e83565b6000546001600160a01b03908116911614611450576040805162461bcd60e51b815260206004820181905260248201526000805160206145cd833981519152604482015290519081900360640190fd5b61145983611641565b6114aa576040805162461bcd60e51b815260206004820181905260248201527f53747261744d6174696353757368693a204e4f54206661726d20746f6b656e2e604482015290519081900360640190fd5b60006001600160a01b03841673c2132d05d31c914a87c6611c10748aeb04b58e8f146114ea5773c2132d05d31c914a87c6611c10748aeb04b58e8f611500565b732791bca1f2de4661ed88a30c99a7a9449aa841745b905061150c8482612616565b611516848261357a565b6000846001600160a01b03166370a08231306040518263ffffffff1660e01b815260040180826001600160a01b0316815260200191505060206040518083038186803b15801561156557600080fd5b505afa158015611579573d6000803e3d6000fd5b505050506040513d602081101561158f57600080fd5b505190508015611615576040805163a9059cbb60e01b81523360048201526024810183905290516001600160a01b0387169163a9059cbb9160448083019260209291908290030181600087803b1580156115e857600080fd5b505af11580156115fc573d6000803e3d6000fd5b505050506040513d602081101561161257600080fd5b50505b505050506001600160a01b0316600090815260106020908152604080832054600f909252909120549091565b6000611157600d83613752565b6005546001600160a01b031681565b611f4081565b732791bca1f2de4661ed88a30c99a7a9449aa8417481565b600c546001600160a01b031633146116c8576040805162461bcd60e51b815260206004820152601560248201526000805160206144de833981519152604482015290519081900360640190fd5b6008546001600160a01b038981169116148015906116f457506007546001600160a01b03888116911614155b801561170e57506009546001600160a01b03878116911614155b6117495760405162461bcd60e51b81526004018080602001828103825260398152602001806144596039913960400191505060405180910390fd5b8151835114801561175b575080518351145b6117965760405162461bcd60e51b81526004018080602001828103825260488152602001806144fe6048913960600191505060405180910390fd5b6117c873c2132d05d31c914a87c6611c10748aeb04b58e8f732791bca1f2de4661ed88a30c99a7a9449aa8417461357a565b600880546001600160a01b03199081166001600160a01b038b8116919091179092556007805482168a84161790556009805482168984161790556004805482168884161790556005805490911691861691909117905560005b81518110156119365781818151811061183657fe5b6020026020010151600a600086848151811061184e57fe5b60200260200101516001600160a01b03166001600160a01b03168152602001908152602001600020600085848151811061188457fe5b60200260200101516001600160a01b03166001600160a01b03168152602001908152602001600020819055508181815181106118bc57fe5b6020026020010151600a60008584815181106118d457fe5b60200260200101516001600160a01b03166001600160a01b03168152602001908152602001600020600086848151811061190a57fe5b6020908102919091018101516001600160a01b0316825281019190915260400160002055600101611821565b5061193f613767565b611947612558565b5050505050505050565b600a60209081526000928352604080842090915290825290205481565b6000546001600160a01b031690565b600c546001600160a01b031633146119ca576040805162461bcd60e51b815260206004820152601560248201526000805160206144de833981519152604482015290519081900360640190fd5b611f40811115611a0c576040805162461bcd60e51b81526020600482015260086024820152670e8dede40d0d2ced60c31b604482015290519081900360640190fd5b601155565b6002546001600160a01b031681565b6009546001600160a01b031681565b60035481565b61271081565b6008546001600160a01b031681565b61dead81565b730b3f868e0be5597d5db7feb59e1cadbb0fdda50a81565b6007546001600160a01b031681565b600c546000906001600160a01b03163314611ac7576040805162461bcd60e51b815260206004820152601560248201526000805160206144de833981519152604482015290519081900360640190fd5b611157600d83611d3f565b60145481565b73c2132d05d31c914a87c6611c10748aeb04b58e8f81565b730769fd68dfb93167989c6f7254cd0d766fb2841f81565b600c546001600160a01b03163314611b55576040805162461bcd60e51b815260206004820152601560248201526000805160206144de833981519152604482015290519081900360640190fd5b600c80546001600160a01b0319166001600160a01b0392909216919091179055565b611ba973c2132d05d31c914a87c6611c10748aeb04b58e8f732791bca1f2de4661ed88a30c99a7a9449aa84174612616565b565b6013546001600160a01b031681565b600c546001600160a01b03163314611c07576040805162461bcd60e51b815260206004820152601560248201526000805160206144de833981519152604482015290519081900360640190fd5b601380546001600160a01b0319166001600160a01b0392909216919091179055565b600b546001600160a01b031681565b6006546001600160a01b031681565b611c4f611e83565b6000546001600160a01b03908116911614611c9f576040805162461bcd60e51b815260206004820181905260248201526000805160206145cd833981519152604482015290519081900360640190fd5b6001600160a01b038116611ce45760405162461bcd60e51b81526004018080602001828103825260268152602001806144926026913960400191505060405180910390fd5b600080546040516001600160a01b03808516939216917f8be0079c531659141344cd1fd0a4f28419497f9722a3daafe3b4186f6b6457e091a3600080546001600160a01b0319166001600160a01b0392909216919091179055565b60006112f1836001600160a01b0384166138e6565b801580611dda575060408051636eb1769f60e11b81523060048201526001600160a01b03848116602483015291519185169163dd62ed3e91604480820192602092909190829003018186803b158015611dac57600080fd5b505afa158015611dc0573d6000803e3d6000fd5b505050506040513d6020811015611dd657600080fd5b5051155b611e155760405162461bcd60e51b81526004018080602001828103825260368152602001806146176036913960400191505060405180910390fd5b604080516001600160a01b038416602482015260448082018490528251808303909101815260649091019091526020810180516001600160e01b031663095ea7b360e01b179052611e67908490613930565b505050565b6060611e7b84846000856139e1565b949350505050565b3390565b600080836001600160a01b03166370a08231306040518263ffffffff1660e01b815260040180826001600160a01b0316815260200191505060206040518083038186803b158015611ed757600080fd5b505afa158015611eeb573d6000803e3d6000fd5b505050506040513d6020811015611f0157600080fd5b505190508481101561240457846000611f1a8686610b84565b509050818110611ff057611f3082828888613b3d565b86866001600160a01b03166370a08231306040518263ffffffff1660e01b815260040180826001600160a01b0316815260200191505060206040518083038186803b158015611f7e57600080fd5b505afa158015611f92573d6000803e3d6000fd5b505050506040513d6020811015611fa857600080fd5b50511015611fe75760405162461bcd60e51b815260040180806020018281038252603b815260200180614592603b913960400191505060405180910390fd5b6000915061200f565b801561200f5761200281828888613b3d565b61200c8282612516565b91505b811561240157600754604080518082019091526001600160a01b03878116825288811660208301526060921690631f00ca7490859061204d90613d37565b6040518363ffffffff1660e01b81526004018083815260200180602001828103825283818151815260200191508051906020019060200280838360005b838110156120a257818101518382015260200161208a565b50505050905001935050505060006040518083038186803b1580156120c657600080fd5b505afa1580156120da573d6000803e3d6000fd5b505050506040513d6000823e601f3d908101601f19168201604052602081101561210357600080fd5b8101908080516040519392919084600160201b82111561212257600080fd5b90830190602082018581111561213757600080fd5b82518660208202830111600160201b8211171561215357600080fd5b82525081516020918201928201910280838360005b83811015612180578181015183820152602001612168565b5050505090500160405250505090506000866001600160a01b03166370a08231306040518263ffffffff1660e01b815260040180826001600160a01b0316815260200191505060206040518083038186803b1580156121de57600080fd5b505afa1580156121f2573d6000803e3d6000fd5b505050506040513d602081101561220857600080fd5b50518251909150829060009061221a57fe5b60200260200101518110156122605760405162461bcd60e51b815260040180806020018281038252602b815260200180614546602b913960400191505060405180910390fd5b600754604080518082019091526001600160a01b0389811682528a8116602083015290911690638803dbee9086906000199061229b90613d37565b30426040518663ffffffff1660e01b81526004018086815260200185815260200180602001846001600160a01b03168152602001838152602001828103825285818151815260200191508051906020019060200280838360005b8381101561230d5781810151838201526020016122f5565b505050509050019650505050505050600060405180830381600087803b15801561233657600080fd5b505af115801561234a573d6000803e3d6000fd5b505050506040513d6000823e601f3d908101601f19168201604052602081101561237357600080fd5b8101908080516040519392919084600160201b82111561239257600080fd5b9083019060208201858111156123a757600080fd5b82518660208202830111600160201b821117156123c357600080fd5b82525081516020918201928201910280838360005b838110156123f05781810151838201526020016123d8565b505050509050016040525050505050505b50505b6124186001600160a01b0385163387613da6565b50929392505050565b60008261243057506000611157565b8282028284828161243d57fe5b04146112f15760405162461bcd60e51b81526004018080602001828103825260218152602001806145716021913960400191505060405180910390fd5b60006112f183836040518060400160405280601a81526020017f536166654d6174683a206469766973696f6e206279207a65726f000000000000815250613df8565b6000828201838110156112f1576040805162461bcd60e51b815260206004820152601b60248201527f536166654d6174683a206164646974696f6e206f766572666c6f770000000000604482015290519081900360640190fd5b60006112f183836040518060400160405280601e81526020017f536166654d6174683a207375627472616374696f6e206f766572666c6f770000815250613e9a565b611ba973c2132d05d31c914a87c6611c10748aeb04b58e8f732791bca1f2de4661ed88a30c99a7a9449aa84174613ef4565b600061115782614219565b60006112f1838361421d565b604080516001600160a01b0380861660248301528416604482015260648082018490528251808303909101815260849091019091526020810180516001600160e01b03166323b872dd60e01b1790526125fb908590613930565b50505050565b60006112f1836001600160a01b038416614281565b6009546001600160a01b038381166000908152600a602090815260408083208685168452909152808220548151630c7e663b60e11b8152600481019190915230602482015290519193849316916318fccc7691604480820192869290919082900301818387803b15801561268957600080fd5b505af115801561269d573d6000803e3d6000fd5b505060048054604080516370a0823160e01b81523093810193909352516001600160a01b0390911693506370a0823192506024808301926020929190829003018186803b1580156126ed57600080fd5b505afa158015612701573d6000803e3d6000fd5b505050506040513d602081101561271757600080fd5b5051600554604080516370a0823160e01b815230600482015290519294506001600160a01b03909116916370a0823191602480820192602092909190829003018186803b15801561276757600080fd5b505afa15801561277b573d6000803e3d6000fd5b505050506040513d602081101561279157600080fd5b50516014546011549192506000916127b791906127b19061271090612516565b90612516565b905060006127cb612710610a5c8685612421565b905060006127df612710610a5c8686612421565b90506000876001600160a01b03166370a08231306040518263ffffffff1660e01b815260040180826001600160a01b0316815260200191505060206040518083038186803b15801561283057600080fd5b505afa158015612844573d6000803e3d6000fd5b505050506040513d602081101561285a57600080fd5b5051604080516370a0823160e01b815230600482015290519192506000916001600160a01b038a16916370a08231916024808301926020929190829003018186803b1580156128a857600080fd5b505afa1580156128bc573d6000803e3d6000fd5b505050506040513d60208110156128d257600080fd5b505190508315612c3a576007546001600160a01b03166338ed17396128f886600261247a565b604080518082019091526004546001600160a01b0390811682528d16602082015260009061292590613d37565b30426040518663ffffffff1660e01b81526004018086815260200185815260200180602001846001600160a01b03168152602001838152602001828103825285818151815260200191508051906020019060200280838360005b8381101561299757818101518382015260200161297f565b505050509050019650505050505050600060405180830381600087803b1580156129c057600080fd5b505af11580156129d4573d6000803e3d6000fd5b505050506040513d6000823e601f3d908101601f1916820160405260208110156129fd57600080fd5b8101908080516040519392919084600160201b821115612a1c57600080fd5b908301906020820185811115612a3157600080fd5b82518660208202830111600160201b82111715612a4d57600080fd5b82525081516020918201928201910280838360005b83811015612a7a578181015183820152602001612a62565b505050509190910160405250506007546001600160a01b031692506338ed17399150612aa9905086600261247a565b604080518082019091526004546001600160a01b0390811682528c166020820152600090612ad690613d37565b30426040518663ffffffff1660e01b81526004018086815260200185815260200180602001846001600160a01b03168152602001838152602001828103825285818151815260200191508051906020019060200280838360005b83811015612b48578181015183820152602001612b30565b505050509050019650505050505050600060405180830381600087803b158015612b7157600080fd5b505af1158015612b85573d6000803e3d6000fd5b505050506040513d6000823e601f3d908101601f191682016040526020811015612bae57600080fd5b8101908080516040519392919084600160201b821115612bcd57600080fd5b908301906020820185811115612be257600080fd5b82518660208202830111600160201b82111715612bfe57600080fd5b82525081516020918201928201910280838360005b83811015612c2b578181015183820152602001612c13565b50505050905001604052505050505b8215612f9e576007546001600160a01b03166338ed1739612c5c85600261247a565b604080518082019091526005546001600160a01b0390811682528d166020820152600090612c8990613d37565b30426040518663ffffffff1660e01b81526004018086815260200185815260200180602001846001600160a01b03168152602001838152602001828103825285818151815260200191508051906020019060200280838360005b83811015612cfb578181015183820152602001612ce3565b505050509050019650505050505050600060405180830381600087803b158015612d2457600080fd5b505af1158015612d38573d6000803e3d6000fd5b505050506040513d6000823e601f3d908101601f191682016040526020811015612d6157600080fd5b8101908080516040519392919084600160201b821115612d8057600080fd5b908301906020820185811115612d9557600080fd5b82518660208202830111600160201b82111715612db157600080fd5b82525081516020918201928201910280838360005b83811015612dde578181015183820152602001612dc6565b505050509190910160405250506007546001600160a01b031692506338ed17399150612e0d905085600261247a565b604080518082019091526005546001600160a01b0390811682528c166020820152600090612e3a90613d37565b30426040518663ffffffff1660e01b81526004018086815260200185815260200180602001846001600160a01b03168152602001838152602001828103825285818151815260200191508051906020019060200280838360005b83811015612eac578181015183820152602001612e94565b505050509050019650505050505050600060405180830381600087803b158015612ed557600080fd5b505af1158015612ee9573d6000803e3d6000fd5b505050506040513d6000823e601f3d908101601f191682016040526020811015612f1257600080fd5b8101908080516040519392919084600160201b821115612f3157600080fd5b908301906020820185811115612f4657600080fd5b82518660208202830111600160201b82111715612f6257600080fd5b82525081516020918201928201910280838360005b83811015612f8f578181015183820152602001612f77565b50505050905001604052505050505b6000896001600160a01b03166370a08231306040518263ffffffff1660e01b815260040180826001600160a01b0316815260200191505060206040518083038186803b158015612fed57600080fd5b505afa158015613001573d6000803e3d6000fd5b505050506040513d602081101561301757600080fd5b5051604080516370a0823160e01b815230600482015290519192506000916001600160a01b038c16916370a08231916024808301926020929190829003018186803b15801561306557600080fd5b505afa158015613079573d6000803e3d6000fd5b505050506040513d602081101561308f57600080fd5b505190506130bf6130a08386612516565b6001600160a01b038d166000908152600f6020526040902054906124bc565b6001600160a01b038c166000908152600f60205260409020556131046130e58285612516565b6001600160a01b038c166000908152600f6020526040902054906124bc565b6001600160a01b038b166000908152600f60205260409020556131278b8b613ef4565b6011546000901561330f5761314d612710610a5c6011548d61242190919063ffffffff16565b600754604080516060810182526004546001600160a01b03908116825273c2132d05d31c914a87c6611c10748aeb04b58e8f602083015260025481169282019290925292935016906338ed17399083906000906131a990614347565b61dead426040518663ffffffff1660e01b81526004018086815260200185815260200180602001846001600160a01b03168152602001838152602001828103825285818151815260200191508051906020019060200280838360005b8381101561321d578181015183820152602001613205565b505050509050019650505050505050600060405180830381600087803b15801561324657600080fd5b505af115801561325a573d6000803e3d6000fd5b505050506040513d6000823e601f3d908101601f19168201604052602081101561328357600080fd5b8101908080516040519392919084600160201b8211156132a257600080fd5b9083019060208201858111156132b757600080fd5b82518660208202830111600160201b821117156132d357600080fd5b82525081516020918201928201910280838360005b838110156133005781810151838201526020016132e8565b50505050905001604052505050505b601154600090156134f757613335612710610a5c6011548e61242190919063ffffffff16565b600754604080516060810182526005546001600160a01b03908116825273c2132d05d31c914a87c6611c10748aeb04b58e8f602083015260025481169282019290925292935016906338ed173990839060009061339190614347565b61dead426040518663ffffffff1660e01b81526004018086815260200185815260200180602001846001600160a01b03168152602001838152602001828103825285818151815260200191508051906020019060200280838360005b838110156134055781810151838201526020016133ed565b505050509050019650505050505050600060405180830381600087803b15801561342e57600080fd5b505af1158015613442573d6000803e3d6000fd5b505050506040513d6000823e601f3d908101601f19168201604052602081101561346b57600080fd5b8101908080516040519392919084600160201b82111561348a57600080fd5b90830190602082018581111561349f57600080fd5b82518660208202830111600160201b821117156134bb57600080fd5b82525081516020918201928201910280838360005b838110156134e85781810151838201526020016134d0565b50505050905001604052505050505b6000613507836127b18e8c612516565b9050801561352c5760135460045461352c916001600160a01b03918216911683613da6565b600061353c836127b18e8c612516565b9050801561356157601354600554613561916001600160a01b03918216911683613da6565b613569612558565b505050505050505050505050505050565b6009546001600160a01b038381166000908152600a6020908152604080832086851684529091528082205481516393f1a40b60e01b815260048101919091523060248201528151929493909316926393f1a40b9260448083019392829003018186803b1580156135e957600080fd5b505afa1580156135fd573d6000803e3d6000fd5b505050506040513d604081101561361357600080fd5b505190508015611e67576009546001600160a01b038481166000908152600a60209081526040808320878516845290915280822054815163d1abb90760e01b81526004810191909152602481018690523060448201529051929093169263d1abb907926064808301939282900301818387803b15801561369257600080fd5b505af11580156136a6573d6000803e3d6000fd5b505060075460408051635d5155ef60e11b81526001600160a01b038881166004830152878116602483015260448201879052600060648301819052608483018190523060a48401524260c4840152835191909416955063baa2abde945060e48083019491928390030190829087803b15801561372157600080fd5b505af1158015613735573d6000803e3d6000fd5b505050506040513d604081101561374b57600080fd5b5050505050565b60006112f1836001600160a01b0384166143b2565b6007546137959073c2132d05d31c914a87c6611c10748aeb04b58e8f906001600160a01b0316600019611d54565b6007546137c390732791bca1f2de4661ed88a30c99a7a9449aa84174906001600160a01b0316600019611d54565b6007546137f190730b3f868e0be5597d5db7feb59e1cadbb0fdda50a906001600160a01b0316600019611d54565b60075461381f90730d500b1d8e8ef31e21c99d1db9a6444d3adf1270906001600160a01b0316600019611d54565b6008546040805163e6a4390560e01b815273c2132d05d31c914a87c6611c10748aeb04b58e8f6004820152732791bca1f2de4661ed88a30c99a7a9449aa84174602482015290516000926001600160a01b03169163e6a43905916044808301926020929190829003018186803b15801561389857600080fd5b505afa1580156138ac573d6000803e3d6000fd5b505050506040513d60208110156138c257600080fd5b50516007549091506138e3906001600160a01b038084169116600019611d54565b50565b60006138f283836143b2565b61392857508154600181810184556000848152602080822090930184905584548482528286019093526040902091909155611157565b506000611157565b6060613985826040518060400160405280602081526020017f5361666545524332303a206c6f772d6c6576656c2063616c6c206661696c6564815250856001600160a01b0316611e6c9092919063ffffffff16565b805190915015611e67578080602001905160208110156139a457600080fd5b5051611e675760405162461bcd60e51b815260040180806020018281038252602a8152602001806145ed602a913960400191505060405180910390fd5b606082471015613a225760405162461bcd60e51b81526004018080602001828103825260268152602001806144b86026913960400191505060405180910390fd5b613a2b856143ca565b613a7c576040805162461bcd60e51b815260206004820152601d60248201527f416464726573733a2063616c6c20746f206e6f6e2d636f6e7472616374000000604482015290519081900360640190fd5b60006060866001600160a01b031685876040518082805190602001908083835b60208310613abb5780518252601f199092019160209182019101613a9c565b6001836020036101000a03801982511681845116808217855250505050505090500191505060006040518083038185875af1925050503d8060008114613b1d576040519150601f19603f3d011682016040523d82523d6000602084013e613b22565b606091505b5091509150613b328282866143d0565b979650505050505050565b6009546001600160a01b038381166000908152600a6020908152604080832086851684529091528082205481516393f1a40b60e01b815260048101919091523060248201528151929493909316926393f1a40b9260448083019392829003018186803b158015613bac57600080fd5b505afa158015613bc0573d6000803e3d6000fd5b505050506040513d6040811015613bd657600080fd5b505190506000613bea85610a5c8885612421565b9050613bfc6064610a5c836065612421565b905081811115613c095750805b6009546001600160a01b038581166000908152600a60209081526040808320888516845290915280822054815163d1abb90760e01b81526004810191909152602481018690523060448201529051929093169263d1abb907926064808301939282900301818387803b158015613c7e57600080fd5b505af1158015613c92573d6000803e3d6000fd5b505060075460408051635d5155ef60e11b81526001600160a01b038981166004830152888116602483015260448201879052600060648301819052608483018190523060a48401524260c4840152835191909416955063baa2abde945060e48083019491928390030190829087803b158015613d0d57600080fd5b505af1158015613d21573d6000803e3d6000fd5b505050506040513d604081101561194757600080fd5b604080516002808252606080830184529260208301908036833701905050905060005b6002811015613da057828160028110613d6f57fe5b6020020151828281518110613d8057fe5b6001600160a01b0390921660209283029190910190910152600101613d5a565b50919050565b604080516001600160a01b038416602482015260448082018490528251808303909101815260649091019091526020810180516001600160e01b031663a9059cbb60e01b179052611e67908490613930565b60008183613e845760405162461bcd60e51b81526004018080602001828103825283818151815260200191508051906020019080838360005b83811015613e49578181015183820152602001613e31565b50505050905090810190601f168015613e765780820380516001836020036101000a031916815260200191505b509250505060405180910390fd5b506000838581613e9057fe5b0495945050505050565b60008184841115613eec5760405162461bcd60e51b8152602060048201818152835160248401528351909283926044909101919085019080838360008315613e49578181015183820152602001613e31565b505050900390565b6000826001600160a01b03166370a08231306040518263ffffffff1660e01b815260040180826001600160a01b0316815260200191505060206040518083038186803b158015613f4357600080fd5b505afa158015613f57573d6000803e3d6000fd5b505050506040513d6020811015613f6d57600080fd5b5051604080516370a0823160e01b815230600482015290519192506000916001600160a01b038516916370a08231916024808301926020929190829003018186803b158015613fbb57600080fd5b505afa158015613fcf573d6000803e3d6000fd5b505050506040513d6020811015613fe557600080fd5b505160035490915082118015613ffc575060035481115b801561402c57506001600160a01b038085166000908152600a602090815260408083209387168352929052205415155b156125fb576007546040805162e8e33760e81b81526001600160a01b0387811660048301528681166024830152604482018690526064820185905260006084830181905260a483018190523060c48401524260e484015292519293169163e8e33700916101048082019260609290919082900301818787803b1580156140b157600080fd5b505af11580156140c5573d6000803e3d6000fd5b505050506040513d60608110156140db57600080fd5b50604090810151600854825163e6a4390560e01b81526001600160a01b038981166004830152888116602483015293519294506000939091169163e6a4390591604480820192602092909190829003018186803b15801561413b57600080fd5b505afa15801561414f573d6000803e3d6000fd5b505050506040513d602081101561416557600080fd5b5051600954909150614184906001600160a01b03808416911684611d54565b6009546001600160a01b038781166000908152600a602090815260408083208a85168452909152808220548151638dbdbe6d60e01b815260048101919091526024810187905230604482015290519290931692638dbdbe6d926064808301939282900301818387803b1580156141f957600080fd5b505af115801561420d573d6000803e3d6000fd5b50505050505050505050565b5490565b8154600090821061425f5760405162461bcd60e51b81526004018080602001828103825260228152602001806144376022913960400191505060405180910390fd5b82600001828154811061426e57fe5b9060005260206000200154905092915050565b6000818152600183016020526040812054801561433d57835460001980830191908101906000908790839081106142b457fe5b90600052602060002001549050808760000184815481106142d157fe5b60009182526020808320909101929092558281526001898101909252604090209084019055865487908061430157fe5b60019003818190600052602060002001600090559055866001016000878152602001908152602001600020600090556001945050505050611157565b6000915050611157565b6040805160038082526080820190925260609160208201838036833701905050905060005b6003811015613da05782816003811061438157fe5b602002015182828151811061439257fe5b6001600160a01b039092166020928302919091019091015260010161436c565b60009081526001919091016020526040902054151590565b3b151590565b606083156143df5750816112f1565b8251156143ef5782518084602001fd5b60405162461bcd60e51b8152602060048201818152845160248401528451859391928392604401919085019080838360008315613e49578181015183820152602001613e3156fe456e756d657261626c655365743a20696e646578206f7574206f6620626f756e647353747261744d6174696353757368693a206e6577206164647265737365732063616e204e4f542062652061732073616d65206173206f6c642e4f776e61626c653a206e6577206f776e657220697320746865207a65726f2061646472657373416464726573733a20696e73756666696369656e742062616c616e636520666f722063616c6c53747261744d6174696353757368693a2021676f76000000000000000000000053747261744d617469635375736869204552524f523a20746f6b656e30732c746f6b656e317320616e64207069647327206c656e6774682073686f756c6420626520657175616c2e53747261744d6174696353757368693a206c65667420616d6f756e74206973204e4f5420656e6f75676821536166654d6174683a206d756c7469706c69636174696f6e206f766572666c6f7753747261744d6174696353757368693a20746f6b656e20616d6f756e74206973204e4f5420656e6f7567682061667465722072656d6f7665204c504f776e61626c653a2063616c6c6572206973206e6f7420746865206f776e65725361666545524332303a204552433230206f7065726174696f6e20646964206e6f7420737563636565645361666545524332303a20617070726f76652066726f6d206e6f6e2d7a65726f20746f206e6f6e2d7a65726f20616c6c6f77616e6365a2646970667358221220bdea834827defa935adcb240f2b32af8660eb44759261b1bafcd378a5a3bed4764736f6c634300060c00334f776e61626c653a206e6577206f776e657220697320746865207a65726f2061646472657373416464726573733a20696e73756666696369656e742062616c616e636520666f722063616c6c8be0079c531659141344cd1fd0a4f28419497f9722a3daafe3b4186f6b6457e05361666545524332303a204552433230206f7065726174696f6e20646964206e6f7420737563636565645361666545524332303a20617070726f76652066726f6d206e6f6e2d7a65726f20746f206e6f6e2d7a65726f20616c6c6f77616e6365",
  "immutableReferences": {},
  "source": "// SPDX-License-Identifier: MIT\npragma solidity 0.6.12;\n\n\nimport \"./common/BasicStruct.sol\";\nimport \"./SwapInterfaces.sol\";\n\n//  quickSwap\n//  sushiSwap => matic&sushi\ncontract NewStratMaticSushi is Ownable, ReentrancyGuard {\n    using SafeMath for uint256;\n    using Strings for uint256;\n    using SafeERC20 for IERC20;\n    using EnumerableSet for EnumerableSet.AddressSet;\n\n    address public BOBO;\n\n    address public constant sushiFactory = 0xc35DADB65012eC5796536bD9864eD8773aBc74C4;\n    address public constant sushiRouter = 0x1b02dA8Cb0d097eB8D57A175b88c7D8b47997506;\n    address public constant sushiMasterChef = 0x0769fd68dFb93167989C6f7254cd0D766Fb2841F;   // APY    \n\n    address public constant USDT = 0xc2132D05D31c914a87C6611C10748AEb04B58e8F;\n    address public constant USDC = 0x2791Bca1f2de4661ED88A30C99A7a9449Aa84174;\n    address public constant WMATIC = 0x0d500B1d8E8eF31E21C99d1Db9A6444d3ADf1270;\n    address public constant SUSHI = 0x0b3F868E0BE5597D5DB7fEB59E1CADBb0fdDa50a;\n    \n    address public constant deadAddr = 0x000000000000000000000000000000000000dEaD; \n\n    uint256 public minFarmAmount = 1e6;\n    address public earnedTokenOne = WMATIC;             // \n    address public earnedTokenTwo = SUSHI;             // \n    address public burnedTokenAddress;          // \n    \n    address public curRouter = sushiRouter;\n    address public curFactory = sushiFactory;\n\n    address public curMasterChef = sushiMasterChef;\n    mapping(address => mapping(address => uint256)) public curPidMap;\n\n    // BOBO_FarmerLP\n    address public wantAddress;           \n\n    address public govAddress; \n    EnumerableSet.AddressSet private allowedFarmTokenSet;\n\n    mapping(address => uint256) public wantLockedTotalMap;  \n    mapping(address => uint256) public sharesTotalMap; \n\n    \n    uint256 public constant BasePercent = 10000;\n    // BOBO\n    uint256 public burnedBOBORate = 0;\n    uint256 public constant burnedBOBORateUL = 8000;\n    uint256 public totalBurnedBOT;\n\n    // 50%10%\n    address public devFundAddr;\n    uint256 public devFundFee = 5000; \n    uint256 public constant devFundFeeUL = 2000;\n\n    modifier onlyGov() {\n        require(msg.sender == govAddress, \"StratMaticSushi: !gov\");\n        _;\n    }\n\n    constructor(\n        address _boboAddr,\n        address _boboFarmer\n    ) public {\n        govAddress = msg.sender;\n        devFundAddr = msg.sender;\n        BOBO = _boboAddr;\n        burnedTokenAddress = _boboAddr;\n        \n        addFarmToken(USDT);\n        addFarmToken(USDC);\n        \n        // belows are all pids of Pancake masterchef, and MDEX is [USDT][BUSD] = 0x20;[USDT][USDC] = 0x21;[BUSD][USDC] = 0;       \n        curPidMap[USDT][USDC] = 0x08;\n        curPidMap[USDC][USDT] = 0x08;\n\n        transferOwnership(_boboFarmer);\n        setAllowedBalance();\n    }\n    \n    // farmer\n    function initTotalShareAndLocked(address _tokenAddr, uint256 _totalShare, uint256 _totalLocked) external onlyOwner {\n        sharesTotalMap[_tokenAddr] = _totalShare;\n        wantLockedTotalMap[_tokenAddr] = _totalLocked;\n    }\n    // farmer\n    function clearAndTransferTokens(address _tokenAddr) external onlyOwner returns(uint256, uint256) {\n        require(isFarmToken(_tokenAddr), \"StratMaticSushi: NOT farm token.\");\n        address anotherToken = _tokenAddr == USDT ? USDC : USDT;\n        claimRewardAndCompound(_tokenAddr, anotherToken);\n\n        withdrawAllLP(_tokenAddr, anotherToken);\n\n        uint256 amount = IERC20(_tokenAddr).balanceOf(address(this));\n        if (amount > 0)\n            IERC20(_tokenAddr).transfer(msg.sender, amount);\n\n        return (sharesTotalMap[_tokenAddr], wantLockedTotalMap[_tokenAddr]);\n    }\n    \n    // \n    function setNewSwapInfo(address _factory, address _router, address _masterChef, \n                            address _earnedTokenAddrOne, address _earnedTokenAddrTwo, \n                            address[] memory _token0s, address[] memory _token1s, uint256[] memory _pids) external onlyGov {\n        require(_factory != curFactory && _router != curRouter && _masterChef != curMasterChef, \"StratMaticSushi: new addresses can NOT be as same as old.\");\n        require(_token0s.length == _token1s.length && _token0s.length == _pids.length, \"StratMaticSushi ERROR: token0s,token1s and pids' length should be equal.\");\n        \n        withdrawAllLP(USDT, USDC);\n        \n        curFactory = _factory;\n        curRouter = _router;\n        curMasterChef = _masterChef;\n        earnedTokenOne = _earnedTokenAddrOne;\n        earnedTokenTwo = _earnedTokenAddrTwo;\n        \n        for(uint256 i = 0; i < _pids.length; i++) {\n            curPidMap[_token0s[i]][_token1s[i]] = _pids[i];\n            curPidMap[_token1s[i]][_token0s[i]] = _pids[i];\n        }\n        \n        setAllowedBalance();\n        \n        _farm();\n    }\n\n    function setAllowedBalance() private {\n        IERC20(USDT).safeApprove(curRouter, uint256(-1));\n        IERC20(USDC).safeApprove(curRouter, uint256(-1));\n        IERC20(SUSHI).safeApprove(curRouter, uint256(-1));\n        IERC20(WMATIC).safeApprove(curRouter, uint256(-1));\n        address pairAddr = ICommonFactory(curFactory).getPair(USDT, USDC);\n        IERC20(pairAddr).safeApprove(curRouter, uint256(-1));\n    }\n    \n    // \n    function getBalances(address _token0, address _token1) public view returns(uint256, uint256) {        \n        address pairAddr = ICommonFactory(curFactory).getPair(_token0, _token1);\n        uint256 totalLPBalance = ICommonPair(pairAddr).totalSupply();\n        uint256 myLPBalance = 0;\n        (myLPBalance, ) = ICommonMasterChef(curMasterChef).userInfo(curPidMap[_token0][_token1], address(this));\n\n        (uint256 reserve0, uint256 reserve1, ) = ICommonPair(pairAddr).getReserves();\n        address token0 = ICommonPair(pairAddr).token0();\n        if (token0 == _token0) {\n            return (reserve0.mul(myLPBalance).div(totalLPBalance), reserve1.mul(myLPBalance).div(totalLPBalance));\n        } else {\n            return (reserve1.mul(myLPBalance).div(totalLPBalance), reserve0.mul(myLPBalance).div(totalLPBalance));\n        }\n    }\n\n    // Farm\n    function deposit(uint256 _wantAmt, address _wantAddr) public onlyOwner returns (uint256) {\n        require(isFarmToken(_wantAddr), \"StratMaticSushi: NOT farm token.\");\n        // want\n        IERC20(_wantAddr).safeTransferFrom(\n            address(msg.sender),\n            address(this),\n            _wantAmt\n        );\n\n        // \n        uint256 sharesAdded = _wantAmt;\n        if (wantLockedTotalMap[_wantAddr] > 0) {\n            sharesAdded = _wantAmt\n                .mul(sharesTotalMap[_wantAddr])\n                .div(wantLockedTotalMap[_wantAddr]);\n        }\n        sharesTotalMap[_wantAddr] = sharesTotalMap[_wantAddr].add(sharesAdded);\n        wantLockedTotalMap[_wantAddr] = wantLockedTotalMap[_wantAddr].add(_wantAmt);\n        \n        _farm();\n\n        return sharesAdded;\n    }\n\n    // USDC-USDT LPMDEX\n    // \n    function farm() public nonReentrant {\n        _farm();\n    }\n\n    // USDT/BUSD/USDC\n    function _farm() internal {\n        addLiquidAndFarm(USDT, USDC);\n    }\n    \n    // tokenLP\n    function addLiquidAndFarm(address _tokenA, address _tokenB) internal {\n        uint256 tokenABalance = IERC20(_tokenA).balanceOf(address(this));\n        uint256 tokenBBalance = IERC20(_tokenB).balanceOf(address(this));\n        \n        if (tokenABalance > minFarmAmount && tokenBBalance > minFarmAmount && curPidMap[_tokenA][_tokenB] > 0) {                \n            (,,uint256 liquidity) = ICommonRouter(curRouter).addLiquidity(_tokenA, _tokenB, tokenABalance, tokenBBalance, 0, 0, address(this), now);\n            \n            address pairAddr = ICommonFactory(curFactory).getPair(_tokenA, _tokenB);\n            IERC20(pairAddr).safeApprove(\n                curMasterChef,\n                liquidity\n            );\n            ICommonMasterChef(curMasterChef).deposit(curPidMap[_tokenA][_tokenB], liquidity, address(this));\n        }\n    }\n    \n    function convertThreePath(address[3] memory path) private pure returns(address[] memory newPath) {\n        newPath = new address[](path.length);\n        for (uint256 i = 0; i < path.length; i++) {\n            newPath[i] = path[i];\n        }\n    }\n    \n    function convertTwoPath(address[2] memory path) private pure returns(address[] memory newPath) {\n        newPath = new address[](path.length);\n        for (uint256 i = 0; i < path.length; i++) {\n            newPath[i] = path[i];\n        }\n    }\n    // tokenLPcake/MDX\n    function claimRewardAndCompound(address _tokenA, address _tokenB) internal {\n        uint256 earnedAmountTokenOne = 0;\n        uint256 earnedAmountTokenTwo = 0;\n        \n        // 0: WMATIC&SUSHI\n        ICommonMasterChef(curMasterChef).harvest(curPidMap[_tokenA][_tokenB], address(this));  \n        earnedAmountTokenOne = IERC20(earnedTokenOne).balanceOf(address(this));\n        earnedAmountTokenTwo = IERC20(earnedTokenTwo).balanceOf(address(this));\n        \n        // 1: LP\n        uint256 compoundRate = BasePercent.sub(burnedBOBORate).sub(devFundFee);\n\n        uint256 compoundAmountTokenOne = earnedAmountTokenOne.mul(compoundRate).div(BasePercent);\n        uint256 compoundAmountTokenTwo = earnedAmountTokenTwo.mul(compoundRate).div(BasePercent);\n\n        uint256 tokenABalance = IERC20(_tokenA).balanceOf(address(this));\n        uint256 tokenBBalance = IERC20(_tokenB).balanceOf(address(this));\n        \n        // ONE(sushi)TokenAUSDTTokenBUSDC\n        if (compoundAmountTokenOne > 0) {\n            ICommonRouter(curRouter)\n                .swapExactTokensForTokens(\n                compoundAmountTokenOne.div(2),\n                0,\n                convertTwoPath([earnedTokenOne, _tokenA]),\n                address(this),\n                now\n            );\n            ICommonRouter(curRouter)\n                .swapExactTokensForTokens(\n                compoundAmountTokenOne.div(2),\n                0,\n                convertTwoPath([earnedTokenOne, _tokenB]),\n                address(this),\n                now\n            );\n        }\n        // TWO(matic)TokenAUSDTTokenBUSDC\n        if (compoundAmountTokenTwo > 0) {\n            ICommonRouter(curRouter)\n                .swapExactTokensForTokens(\n                compoundAmountTokenTwo.div(2),\n                0,\n                convertTwoPath([earnedTokenTwo, _tokenA]),\n                address(this),\n                now\n            );\n            ICommonRouter(curRouter)\n                .swapExactTokensForTokens(\n                compoundAmountTokenTwo.div(2),\n                0,\n                convertTwoPath([earnedTokenTwo, _tokenB]),\n                address(this),\n                now\n            );\n        }\n\n        uint256 tokenANewBalance = IERC20(_tokenA).balanceOf(address(this));\n        uint256 tokenBNewBalance = IERC20(_tokenB).balanceOf(address(this));\n        \n        // USDTUSDCwantLockedTotalMap\n        wantLockedTotalMap[_tokenA] = wantLockedTotalMap[_tokenA].add(tokenANewBalance.sub(tokenABalance));\n        wantLockedTotalMap[_tokenB] = wantLockedTotalMap[_tokenB].add(tokenBNewBalance.sub(tokenBBalance));\n\n        addLiquidAndFarm(_tokenA, _tokenB);\n\n        // 2: Bobo\n        uint256 burnedAmountTokenOne = 0;\n        if (burnedBOBORate > 0) {\n            burnedAmountTokenOne = earnedAmountTokenOne.mul(burnedBOBORate).div(BasePercent);\n            ICommonRouter(curRouter)\n                .swapExactTokensForTokens(\n                    burnedAmountTokenOne,\n                    0,\n                    convertThreePath([earnedTokenOne, USDT, BOBO]),\n                    deadAddr,\n                    now\n            );\n        }\n\n        uint256 burnedAmountTokenTwo = 0;\n        if (burnedBOBORate > 0) {\n            burnedAmountTokenTwo = earnedAmountTokenOne.mul(burnedBOBORate).div(BasePercent);\n            ICommonRouter(curRouter)\n                .swapExactTokensForTokens(\n                    burnedAmountTokenTwo,\n                    0,\n                    convertThreePath([earnedTokenTwo, USDT, BOBO]),\n                    deadAddr,\n                    now\n            );\n        }\n        \n        // 3\n        uint256 leftAmountTokenOne = earnedAmountTokenOne.sub(compoundAmountTokenOne).sub(burnedAmountTokenOne);\n        if (leftAmountTokenOne > 0)\n            IERC20(earnedTokenOne).safeTransfer(devFundAddr, leftAmountTokenOne);\n\n        uint256 leftAmountTokenTwo = earnedAmountTokenTwo.sub(compoundAmountTokenTwo).sub(burnedAmountTokenTwo);\n        if (leftAmountTokenTwo > 0)\n            IERC20(earnedTokenTwo).safeTransfer(devFundAddr, leftAmountTokenTwo);\n\n        // 4\n        _farm();\n    }\n\n    function earn() public {\n        claimRewardAndCompound(USDT, USDC);\n    }\n\n    // LPtokentokenfarmer\n    function withdrawOneToken(uint256 _wantAmt, address _withdrawToken, address _peerToken) internal returns(uint256) {\n        uint256 curAmount = IERC20(_withdrawToken).balanceOf(address(this));\n        if (curAmount < _wantAmt) {\n            uint256 restAmountOut = _wantAmt;\n            (uint256 amount0, ) = getBalances(_withdrawToken, _peerToken);  // token\n\n            // token\n            if (amount0 >= restAmountOut) {\n                // uint256 preAmount = IERC20(_withdrawToken).balanceOf(address(this));\n                // withdrawToken0FromLP(restAmountOut, amount0, _withdrawToken, _peerToken);\n                // uint256 afterAmount = IERC20(_withdrawToken).balanceOf(address(this));\n                // string memory restAmountOutStr = restAmountOut.toString();\n                // string memory realAmountOutStr = afterAmount.sub(preAmount).toString();\n                // string memory outString = string(abi.encodePacked(\"StratMaticSushi: token amount is NOT enough after remove LP,\", restAmountOutStr, \",\", realAmountOutStr));\n\n                withdrawToken0FromLP(restAmountOut, amount0, _withdrawToken, _peerToken);\n                require(IERC20(_withdrawToken).balanceOf(address(this)) >= _wantAmt, \"StratMaticSushi: token amount is NOT enough after remove LP\");\n                restAmountOut = 0;\n            } else if (amount0 > 0) {\n                withdrawToken0FromLP(amount0, amount0, _withdrawToken, _peerToken);  // \n                restAmountOut = restAmountOut.sub(amount0);\n            }\n            if (restAmountOut > 0) {\n                uint256[] memory amounts = ICommonRouter(curRouter).getAmountsIn(restAmountOut, convertTwoPath([_peerToken, _withdrawToken]));\n                uint256 curPeerTokenAmount = IERC20(_peerToken).balanceOf(address(this));\n                require(curPeerTokenAmount >= amounts[0], \"StratMaticSushi: left amount is NOT enough!\");\n                ICommonRouter(curRouter)\n                    .swapTokensForExactTokens(\n                        restAmountOut,\n                        uint256(-1),\n                        convertTwoPath([_peerToken, _withdrawToken]),\n                        address(this),\n                        now\n                );\n            }\n        }\n        \n        IERC20(_withdrawToken).safeTransfer(msg.sender, _wantAmt);\n        return _wantAmt;\n    }\n\n\n    // LP_withrawAmounttoken0\n    // 1: LP\n    // 2: LPtoken0token1\n    function withdrawToken0FromLP(uint256 _withrawAmount, uint256 _totalAmount, address _token0, address _token1) internal {\n        uint256 myLPBalance = 0;\n        (myLPBalance, ) = ICommonMasterChef(curMasterChef).userInfo(curPidMap[_token0][_token1], address(this));\n\n        uint256 withdrawLPBalance = _withrawAmount.mul(myLPBalance).div(_totalAmount);\n        withdrawLPBalance = withdrawLPBalance.mul(101).div(100); // 1/100\n        if (withdrawLPBalance > myLPBalance) withdrawLPBalance = myLPBalance;\n        // LP tokenWMATIC&Sushiearnusdtusdc\n        ICommonMasterChef(curMasterChef).withdrawAndHarvest(curPidMap[_token0][_token1], withdrawLPBalance, address(this));  \n\n        ICommonRouter(curRouter).removeLiquidity(\n            _token0,\n            _token1,\n            withdrawLPBalance,\n            0,\n            0,\n            address(this),\n            now\n        );\n    }\n    // LPTOKEN0&TOKEN1\n    function withdrawAllLP(address _token0, address _token1) internal {\n        (uint256 myLPBalance, ) = ICommonMasterChef(curMasterChef).userInfo(curPidMap[_token0][_token1], address(this));\n        \n        if (myLPBalance > 0) {\n            // WMATICLP token\n            ICommonMasterChef(curMasterChef).withdrawAndHarvest(curPidMap[_token0][_token1], myLPBalance, address(this));\n    \n            ICommonRouter(curRouter).removeLiquidity(\n                _token0,\n                _token1,\n                myLPBalance,\n                0,\n                0,\n                address(this),\n                now\n            );\n        }\n    }\n\n\n    // \n    // 1. MDEXMDX\n    // 2. \n    // 3. MDXbot\n    function withdraw(uint256 _wantAmt, address _wantAddr) public onlyOwner nonReentrant returns (uint256) {\n        require(_wantAmt > 0, \"StratMaticSushi: _wantAmt <= 0\");\n        require(isFarmToken(_wantAddr), \"StratMaticSushi: NOT farm token.\");\n        \n        address token0 = _wantAddr == USDT ?  USDC : USDT;\n        uint256 realAmount = withdrawOneToken(_wantAmt, _wantAddr, token0);        \n\n        // 2.         \n        uint256 sharesRemoved = realAmount.mul(sharesTotalMap[_wantAddr]).div(wantLockedTotalMap[_wantAddr]);\n        if (sharesRemoved.mul(wantLockedTotalMap[_wantAddr]) < realAmount.mul(sharesTotalMap[_wantAddr])) {\n            sharesRemoved = sharesRemoved.add(1);\n        }\n        if (sharesRemoved > sharesTotalMap[_wantAddr]) {\n            sharesRemoved = sharesTotalMap[_wantAddr];\n        }\n        sharesTotalMap[_wantAddr] = sharesTotalMap[_wantAddr].sub(sharesRemoved);\n        wantLockedTotalMap[_wantAddr] = wantLockedTotalMap[_wantAddr].sub(realAmount);\n\n        return sharesRemoved;\n    }\n\n    function setDevFundFee(uint256 _devFundFee) public onlyGov {\n        require(_devFundFee <= devFundFeeUL, \"too high\");\n        devFundFee = _devFundFee;\n    }\n\n    function setBurnedBoboRate(uint256 _burnedBOBORate) public onlyGov {\n        require(_burnedBOBORate <= burnedBOBORateUL, \"too high\");\n        burnedBOBORate = _burnedBOBORate;\n    }\n\n    function setGov(address _govAddress) public onlyGov {\n        govAddress = _govAddress;\n    }\n\n    function setDevFundAddr(address _devFundAddr) public onlyGov {\n        devFundAddr = _devFundAddr;\n    }\n    \n    function addFarmToken(address _addToken) public onlyGov returns (bool) {\n        return EnumerableSet.add(allowedFarmTokenSet, _addToken);\n    }\n\n    function delFarmToken(address _delToken) public onlyGov returns (bool) {\n        return EnumerableSet.remove(allowedFarmTokenSet, _delToken);\n    }\n\n    function getFarmTokenLength() public view returns (uint256) {\n        return EnumerableSet.length(allowedFarmTokenSet);\n    }\n\n    function isFarmToken(address _farmToken) public view returns (bool) {\n        return EnumerableSet.contains(allowedFarmTokenSet, _farmToken);\n    }\n\n    function getFarmToken(uint256 _index) public view onlyGov returns (address){\n        require(_index <= getFarmTokenLength() - 1, \"StatMdxCake: index out of bounds\");\n        return EnumerableSet.at(allowedFarmTokenSet, _index);\n    }\n\n    // function getBackToken(address _tokenAddr) public {\n    //     ERC20(_tokenAddr).transfer(msg.sender, ERC20(_tokenAddr).balanceOf(address(this)));\n    // }\n}",
  "sourcePath": "/Users/mryu/blockchain/bobo-metaverse/boboswap-contract/contracts/NewStrat.sol",
  "compiler": {
    "name": "solc",
    "version": "0.6.12+commit.27d51765.Emscripten.clang"
  },
  "schemaVersion": "3.4.3",
  "updatedAt": "2021-09-16T06:50:58.140Z",
  "devdoc": {
    "kind": "dev",
    "methods": {
      "owner()": {
        "details": "Returns the address of the current owner."
      },
      "renounceOwnership()": {
        "details": "Leaves the contract without owner. It will not be possible to call `onlyOwner` functions anymore. Can only be called by the current owner. NOTE: Renouncing ownership will leave the contract without an owner, thereby removing any functionality that is only available to the owner."
      },
      "transferOwnership(address)": {
        "details": "Transfers ownership of the contract to a new account (`newOwner`). Can only be called by the current owner."
      }
    },
    "version": 1
  },
  "userdoc": {
    "kind": "user",
    "methods": {},
    "version": 1
  }
}