{
  "contractName": "OrderStore",
  "abi": [
    {
      "inputs": [],
      "stateMutability": "nonpayable",
      "type": "constructor"
    },
    {
      "inputs": [],
      "name": "orderNFT",
      "outputs": [
        {
          "internalType": "contract IOrderNFT",
          "name": "",
          "type": "address"
        }
      ],
      "stateMutability": "view",
      "type": "function"
    },
    {
      "inputs": [
        {
          "internalType": "enum OrderStatus",
          "name": "",
          "type": "uint8"
        },
        {
          "internalType": "uint256",
          "name": "",
          "type": "uint256"
        }
      ],
      "name": "sealedOrdersMap",
      "outputs": [
        {
          "internalType": "uint256",
          "name": "",
          "type": "uint256"
        }
      ],
      "stateMutability": "view",
      "type": "function"
    },
    {
      "inputs": [
        {
          "internalType": "address",
          "name": "",
          "type": "address"
        },
        {
          "internalType": "uint256",
          "name": "",
          "type": "uint256"
        }
      ],
      "name": "userDealedOrdersMap",
      "outputs": [
        {
          "internalType": "uint256",
          "name": "",
          "type": "uint256"
        }
      ],
      "stateMutability": "view",
      "type": "function"
    },
    {
      "inputs": [
        {
          "internalType": "address",
          "name": "",
          "type": "address"
        },
        {
          "internalType": "uint256",
          "name": "",
          "type": "uint256"
        }
      ],
      "name": "userOrdersMap",
      "outputs": [
        {
          "internalType": "uint256",
          "name": "",
          "type": "uint256"
        }
      ],
      "stateMutability": "view",
      "type": "function"
    },
    {
      "inputs": [
        {
          "internalType": "uint256",
          "name": "_nftId",
          "type": "uint256"
        }
      ],
      "name": "getValue",
      "outputs": [
        {
          "internalType": "uint256",
          "name": "",
          "type": "uint256"
        }
      ],
      "stateMutability": "view",
      "type": "function"
    },
    {
      "inputs": [
        {
          "internalType": "bool",
          "name": "_bBuy",
          "type": "bool"
        }
      ],
      "name": "getHeaderOrderIndex",
      "outputs": [
        {
          "internalType": "bool",
          "name": "exist",
          "type": "bool"
        },
        {
          "internalType": "uint256",
          "name": "index",
          "type": "uint256"
        }
      ],
      "stateMutability": "view",
      "type": "function"
    },
    {
      "inputs": [
        {
          "internalType": "bool",
          "name": "_bBuy",
          "type": "bool"
        }
      ],
      "name": "getTotalOrderNumber",
      "outputs": [
        {
          "internalType": "uint256",
          "name": "",
          "type": "uint256"
        }
      ],
      "stateMutability": "view",
      "type": "function"
    },
    {
      "inputs": [
        {
          "internalType": "bool",
          "name": "_bBuy",
          "type": "bool"
        },
        {
          "internalType": "uint256",
          "name": "_fromIndex",
          "type": "uint256"
        },
        {
          "internalType": "uint256",
          "name": "_toIndex",
          "type": "uint256"
        }
      ],
      "name": "getOrderInfos",
      "outputs": [
        {
          "components": [
            {
              "internalType": "uint256",
              "name": "id",
              "type": "uint256"
            },
            {
              "internalType": "uint256",
              "name": "parentId",
              "type": "uint256"
            },
            {
              "internalType": "address",
              "name": "owner",
              "type": "address"
            },
            {
              "internalType": "address",
              "name": "pairAddr",
              "type": "address"
            },
            {
              "internalType": "bool",
              "name": "bBuyQuoteToken",
              "type": "bool"
            },
            {
              "internalType": "uint256",
              "name": "spotPrice",
              "type": "uint256"
            },
            {
              "internalType": "uint256",
              "name": "inAmount",
              "type": "uint256"
            },
            {
              "internalType": "uint256",
              "name": "minOutAmount",
              "type": "uint256"
            },
            {
              "internalType": "uint256",
              "name": "outAmount",
              "type": "uint256"
            },
            {
              "internalType": "enum OrderStatus",
              "name": "status",
              "type": "uint8"
            },
            {
              "internalType": "uint256",
              "name": "delegateTime",
              "type": "uint256"
            },
            {
              "internalType": "uint256",
              "name": "dealedTime",
              "type": "uint256"
            },
            {
              "internalType": "uint256",
              "name": "weight",
              "type": "uint256"
            }
          ],
          "internalType": "struct OrderInfo[]",
          "name": "orderInfos",
          "type": "tuple[]"
        }
      ],
      "stateMutability": "view",
      "type": "function"
    },
    {
      "inputs": [
        {
          "internalType": "uint256",
          "name": "_orderId",
          "type": "uint256"
        }
      ],
      "name": "getOrderDetailNumber",
      "outputs": [
        {
          "internalType": "uint256",
          "name": "",
          "type": "uint256"
        }
      ],
      "stateMutability": "view",
      "type": "function"
    },
    {
      "inputs": [
        {
          "internalType": "address",
          "name": "_userAddr",
          "type": "address"
        }
      ],
      "name": "getUserDealedOrderNumber",
      "outputs": [
        {
          "internalType": "uint256",
          "name": "",
          "type": "uint256"
        }
      ],
      "stateMutability": "view",
      "type": "function"
    },
    {
      "inputs": [
        {
          "internalType": "address",
          "name": "_userAddr",
          "type": "address"
        }
      ],
      "name": "getUserOrderNumber",
      "outputs": [
        {
          "internalType": "uint256",
          "name": "",
          "type": "uint256"
        }
      ],
      "stateMutability": "view",
      "type": "function"
    },
    {
      "inputs": [
        {
          "internalType": "address",
          "name": "_userAddr",
          "type": "address"
        }
      ],
      "name": "getUserHangingOrderNumber",
      "outputs": [
        {
          "internalType": "uint256",
          "name": "",
          "type": "uint256"
        }
      ],
      "stateMutability": "view",
      "type": "function"
    },
    {
      "inputs": [
        {
          "internalType": "address",
          "name": "_userAddr",
          "type": "address"
        },
        {
          "internalType": "uint256",
          "name": "_index",
          "type": "uint256"
        }
      ],
      "name": "getUserHangingOrderId",
      "outputs": [
        {
          "internalType": "uint256",
          "name": "",
          "type": "uint256"
        }
      ],
      "stateMutability": "view",
      "type": "function"
    },
    {
      "inputs": [
        {
          "internalType": "address",
          "name": "_userAddr",
          "type": "address"
        },
        {
          "internalType": "uint256",
          "name": "_fromIndex",
          "type": "uint256"
        },
        {
          "internalType": "uint256",
          "name": "_toIndex",
          "type": "uint256"
        }
      ],
      "name": "getUserHangingOrderInfos",
      "outputs": [
        {
          "components": [
            {
              "internalType": "uint256",
              "name": "id",
              "type": "uint256"
            },
            {
              "internalType": "uint256",
              "name": "parentId",
              "type": "uint256"
            },
            {
              "internalType": "address",
              "name": "owner",
              "type": "address"
            },
            {
              "internalType": "address",
              "name": "pairAddr",
              "type": "address"
            },
            {
              "internalType": "bool",
              "name": "bBuyQuoteToken",
              "type": "bool"
            },
            {
              "internalType": "uint256",
              "name": "spotPrice",
              "type": "uint256"
            },
            {
              "internalType": "uint256",
              "name": "inAmount",
              "type": "uint256"
            },
            {
              "internalType": "uint256",
              "name": "minOutAmount",
              "type": "uint256"
            },
            {
              "internalType": "uint256",
              "name": "outAmount",
              "type": "uint256"
            },
            {
              "internalType": "enum OrderStatus",
              "name": "status",
              "type": "uint8"
            },
            {
              "internalType": "uint256",
              "name": "delegateTime",
              "type": "uint256"
            },
            {
              "internalType": "uint256",
              "name": "dealedTime",
              "type": "uint256"
            },
            {
              "internalType": "uint256",
              "name": "weight",
              "type": "uint256"
            }
          ],
          "internalType": "struct OrderInfo[]",
          "name": "orderInfos",
          "type": "tuple[]"
        }
      ],
      "stateMutability": "view",
      "type": "function"
    },
    {
      "inputs": [
        {
          "internalType": "enum OrderStatus",
          "name": "_orderStatus",
          "type": "uint8"
        }
      ],
      "name": "getOrderNumber",
      "outputs": [
        {
          "internalType": "uint256",
          "name": "",
          "type": "uint256"
        }
      ],
      "stateMutability": "view",
      "type": "function"
    },
    {
      "inputs": [
        {
          "internalType": "address",
          "name": "",
          "type": "address"
        },
        {
          "internalType": "address",
          "name": "",
          "type": "address"
        },
        {
          "internalType": "uint256",
          "name": "",
          "type": "uint256"
        },
        {
          "internalType": "bytes",
          "name": "",
          "type": "bytes"
        }
      ],
      "name": "onERC721Received",
      "outputs": [
        {
          "internalType": "bytes4",
          "name": "",
          "type": "bytes4"
        }
      ],
      "stateMutability": "nonpayable",
      "type": "function"
    }
  ],
  "bytecode": "0x608060405234801561001057600080fd5b50610f8b806100206000396000f3fe608060405234801561001057600080fd5b50600436106101005760003560e01c806359fc722311610097578063b35ac8b211610066578063b35ac8b214610227578063c63888451461023a578063cd5a87781461024d578063d4d728da1461026057610100565b806359fc7223146101ce5780635f0a1feb146101ee5780638862f28514610201578063952c70fb1461021457610100565b80633c72814d116100d35780633c72814d146101745780634b0cd2ab146101875780634b92031d146101a85780634bba8050146101bb57610100565b80630ff4c91614610105578063150b7a021461012e5780631b1148171461014e5780632d61113114610161575b600080fd5b610118610113366004610cf9565b610275565b6040516101259190610ef2565b60405180910390f35b61014161013c366004610aa5565b61031a565b6040516101259190610e45565b61011861015c366004610b5d565b61032a565b61011861016f366004610a82565b610358565b610118610182366004610bf7565b610373565b61019a610195366004610bbc565b6103a7565b604051610125929190610e35565b6101186101b6366004610b5d565b6103cf565b6101186101c9366004610cf9565b6103fa565b6101e16101dc366004610bd8565b61047b565b6040516101259190610d4a565b6101e16101fc366004610b88565b610670565b61011861020f366004610b5d565b6107fe565b610118610222366004610c13565b610817565b610118610235366004610bbc565b610830565b610118610248366004610a82565b61084a565b61011861025b366004610a82565b610865565b610268610886565b6040516101259190610e5a565b60008161028457506000610315565b61028c6109da565b60005460405163d311636b60e01b81526001600160a01b039091169063d311636b906102bc908690600401610ef2565b6101a06040518083038186803b1580156102d557600080fd5b505afa1580156102e9573d6000803e3d6000fd5b505050506040513d601f19601f8201168201806040525081019061030d9190610c30565b60a001519150505b919050565b630a85bd0160e11b949350505050565b6002602052816000526040600020818154811061034357fe5b90600052602060002001600091509150505481565b6001600160a01b031660009081526002602052604090205490565b60006005600083600281111561038557fe5b600281111561039057fe5b815260208101919091526040016000205492915050565b801515600090815260046020526040812081906103c690826001610895565b91509150915091565b6001600160a01b03821660009081526003602052604081206103f190836108dc565b90505b92915050565b600080546040516304bba80560e41b81526001600160a01b0390911690634bba80509061042b908590600401610ef2565b60206040518083038186803b15801561044357600080fd5b505afa158015610457573d6000803e3d6000fd5b505050506040513d601f19601f820116820180604052508101906103f49190610d11565b821515600090815260046020526040812060609190610499906108e8565b9050808311156104a7578092505b8284106104cf5760405162461bcd60e51b81526004016104c690610eb0565b60405180910390fd5b83830367ffffffffffffffff811180156104e857600080fd5b5060405190808252806020026020018201604052801561052257816020015b61050f6109da565b8152602001906001900390816105075790505b508515156000908152600460205260408120919350908190819061054690826108ec565b915091505b85831080156105575750815b15610665578683101561058f57871515600090815260046020526040902061057f90826108ec565b600190940193909250905061054b565b6105976109da565b60005460405163d311636b60e01b81526001600160a01b039091169063d311636b906105c7908590600401610ef2565b6101a06040518083038186803b1580156105e057600080fd5b505afa1580156105f4573d6000803e3d6000fd5b505050506040513d601f19601f820116820180604052508101906106189190610c30565b905080868986038151811061062957fe5b602090810291909101810191909152891515600090815260049091526040902061065390836108ec565b600190950194909350915061054b9050565b505050509392505050565b6001600160a01b03831660009081526003602052604081206060919061069590610906565b9050808311156106a3578092505b8284106106c25760405162461bcd60e51b81526004016104c690610eb0565b83830367ffffffffffffffff811180156106db57600080fd5b5060405190808252806020026020018201604052801561071557816020015b6107026109da565b8152602001906001900390816106fa5790505b509150835b838110156107f5576001600160a01b038616600090815260036020526040812061074490836108dc565b905061074e6109da565b60005460405163d311636b60e01b81526001600160a01b039091169063d311636b9061077e908590600401610ef2565b6101a06040518083038186803b15801561079757600080fd5b505afa1580156107ab573d6000803e3d6000fd5b505050506040513d601f19601f820116820180604052508101906107cf9190610c30565b90508085888503815181106107e057fe5b6020908102919091010152505060010161071a565b50509392505050565b6001602052816000526040600020818154811061034357fe5b6005602052816000526040600020818154811061034357fe5b80151560009081526004602052604081206103f4906108e8565b6001600160a01b031660009081526001602052604090205490565b6001600160a01b03811660009081526003602052604081206103f490610906565b6000546001600160a01b031681565b6000806108a28585610911565b6108b1575060009050806108d4565b505060008281526001848101602090815260408084208515158552909152909120545b935093915050565b60006103f18383610995565b5490565b6000806108fb84846001610895565b915091509250929050565b60006103f4826108e8565b6000818152600183016020908152604080832083805290915281205415801561095457506000828152600180850160209081526040808420928452919052902054155b1561098d576000808052600180850160209081526040808420928452919052902054821415610985575060016103f4565b5060006103f4565b5060016103f4565b815460009082106109b85760405162461bcd60e51b81526004016104c690610e6e565b8260000182815481106109c757fe5b9060005260206000200154905092915050565b604051806101a00160405280600081526020016000815260200160006001600160a01b0316815260200160006001600160a01b031681526020016000151581526020016000815260200160008152602001600081526020016000815260200160006002811115610a4657fe5b81526020016000815260200160008152602001600081525090565b80516103f481610f22565b80516103f481610f3a565b80516103f481610f48565b600060208284031215610a93578081fd5b8135610a9e81610f22565b9392505050565b60008060008060808587031215610aba578283fd5b8435610ac581610f22565b9350602085810135610ad681610f22565b935060408601359250606086013567ffffffffffffffff80821115610af9578384fd5b818801915088601f830112610b0c578384fd5b813581811115610b1a578485fd5b610b2c601f8201601f19168501610efb565b91508082528984828501011115610b41578485fd5b8084840185840137810190920192909252939692955090935050565b60008060408385031215610b6f578182fd5b8235610b7a81610f22565b946020939093013593505050565b600080600060608486031215610b9c578283fd5b8335610ba781610f22565b95602085013595506040909401359392505050565b600060208284031215610bcd578081fd5b8135610a9e81610f3a565b600080600060608486031215610bec578283fd5b8335610ba781610f3a565b600060208284031215610c08578081fd5b8135610a9e81610f48565b60008060408385031215610c25578182fd5b8235610b7a81610f48565b60006101a0808385031215610c43578182fd5b610c4c81610efb565b90508251815260208301516020820152610c698460408501610a61565b6040820152610c7b8460608501610a61565b6060820152610c8d8460808501610a6c565b608082015260a083015160a082015260c083015160c082015260e083015160e0820152610100808401518183015250610120610ccb85828601610a77565b9082015261014083810151908201526101608084015190820152610180928301519281019290925250919050565b600060208284031215610d0a578081fd5b5035919050565b600060208284031215610d22578081fd5b5051919050565b6001600160a01b03169052565b15159052565b60038110610d4657fe5b9052565b602080825282518282018190526000919060409081850190868401855b82811015610e2857815180518552868101518786015285810151610d8d87870182610d29565b50606080820151610da082880182610d29565b5050608080820151610db482880182610d36565b505060a0818101519086015260c0808201519086015260e08082015190860152610100808201519086015261012080820151610df282880182610d3c565b50506101408181015190860152610160808201519086015261018090810151908501526101a09093019290850190600101610d67565b5091979650505050505050565b9115158252602082015260400190565b6001600160e01b031991909116815260200190565b6001600160a01b0391909116815260200190565b60208082526022908201527f456e756d657261626c655365743a20696e646578206f7574206f6620626f756e604082015261647360f01b606082015260800190565b60208082526022908201527f4f7264657253746f72653a20696e646578206973206f7574206f6620626f756e604082015261321760f11b606082015260800190565b90815260200190565b60405181810167ffffffffffffffff81118282101715610f1a57600080fd5b604052919050565b6001600160a01b0381168114610f3757600080fd5b50565b8015158114610f3757600080fd5b60038110610f3757600080fdfea264697066735822122093fa437d98b295fc5126bcc03ace16c8b79872fc74ef197fd9d264cd879fa16e64736f6c634300060c0033",
  "immutableReferences": {},
  "source": "// SPDX-License-Identifier: MIT\npragma solidity ^0.6.0;\npragma experimental ABIEncoderV2;\n\nimport \"../common/BasicStruct.sol\";\n\ncontract OrderStore is IStructureInterface, IERC721Receiver {\n    using SafeMath for uint256;\n    using EnumerableSet for EnumerableSet.UintSet;\n    using StructuredLinkedList for StructuredLinkedList.List;\n\n    IOrderNFT public orderNFT;\n    mapping(address => uint256[]) public userDealedOrdersMap;  // \n    mapping(address => uint256[]) public userOrdersMap;  // \n    mapping(address => EnumerableSet.UintSet) private userHangingOrdersMap;  // \n    mapping(bool => StructuredLinkedList.List) private bBuyOrdersMap;  // , bool: true-false-\n    mapping(OrderStatus => uint256[]) public sealedOrdersMap;  // \n    \n    constructor () public {\n    }\n\n    // ID\n    function getValue(uint256 _nftId) view public override returns(uint256) {\n        if (_nftId == 0) return 0;\n        OrderInfo memory nftInfo = orderNFT.getOrderInfo(_nftId);\n        return nftInfo.spotPrice;\n    }\n    \n    // \n    // token0U\n    function addOrder(uint256 _parentId, bool _bBuyQuoteToken, uint256 _spotPrice, uint256 _inAmount, uint256 _minOutAmount) internal returns(uint256) {\n        uint256 orderId = orderNFT.mint(_parentId, address(this), msg.sender, _bBuyQuoteToken, _spotPrice, _inAmount, _minOutAmount);\n        \n        userOrdersMap[msg.sender].push(orderId);\n        addHangingOrder(orderId, _bBuyQuoteToken, _spotPrice);\n\n        userHangingOrdersMap[msg.sender].add(orderId);\n        return orderId;\n    }\n    \n    // \n    // 1: \n    // 2: \n    function addHangingOrder(uint256 _orderId, bool _bBuyQuoteToken, uint256 _spotPrice) private returns(bool) {\n        uint256 next = bBuyOrdersMap[_bBuyQuoteToken].getSortedSpot(address(this), _spotPrice, _bBuyQuoteToken);\n        \n        return bBuyOrdersMap[_bBuyQuoteToken].insertBefore(next, _orderId);\n    }\n    \n    function removeOrder(OrderInfo memory _orderInfo) private returns(bool) {\n        orderNFT.transferFrom(address(this), _orderInfo.owner, _orderInfo.id);\n        sealedOrdersMap[_orderInfo.status].push(_orderInfo.id);\n        userHangingOrdersMap[msg.sender].remove(_orderInfo.id);\n        uint256 node = bBuyOrdersMap[_orderInfo.bBuyQuoteToken].remove(_orderInfo.id);\n        return node > 0;\n    }\n    \n    // \n    function setManualCancelOrder(uint256 _orderId) internal returns(bool) {\n        OrderInfo memory orderInfo = orderNFT.getOrderInfo(_orderId);\n        \n        require(orderInfo.owner == msg.sender, \"OrderStore: only book owner can cancel the order.\");\n        require(orderInfo.status == OrderStatus.Hanging, \"OrderStore: only hanging order can be canceled.\");\n        \n        orderNFT.sealNFT(_orderId, OrderStatus.ManualCanceled, 0);\n        sealedOrdersMap[OrderStatus.ManualCanceled].push(_orderId);\n        removeOrder(orderInfo);\n    }\n    \n    function setDealedOrder(uint256 _orderId, uint256 _outAmount) internal returns(bool) {\n        OrderInfo memory orderInfo = orderNFT.getOrderInfo(_orderId);\n        \n        require(orderInfo.status == OrderStatus.Hanging, \"OrderStore: only hanging order can become Dealed status.\");\n        \n        orderNFT.sealNFT(_orderId, OrderStatus.Dealed, _outAmount);\n        sealedOrdersMap[OrderStatus.Dealed].push(_orderId);\n        userDealedOrdersMap[orderInfo.owner].push(_orderId);\n        removeOrder(orderInfo);\n    }\n\n    // \n    function getHeaderOrderIndex(bool _bBuy) view public returns(bool exist, uint256 index) {\n        return bBuyOrdersMap[_bBuy].getAdjacent(0, true);   // get the first node of the list\n    }\n    \n    function getTotalOrderNumber(bool _bBuy) view public returns(uint256) {\n        return bBuyOrdersMap[_bBuy].sizeOf();\n    }\n    // \n    function getOrderInfos(bool _bBuy, uint256 _fromIndex, uint256 _toIndex) view public returns(OrderInfo[] memory orderInfos) {\n        uint256 length = bBuyOrdersMap[_bBuy].sizeOf();\n        if (_toIndex > length) _toIndex = length;\n        require(_fromIndex < _toIndex, \"OrderStore: index is out of bound.\");\n        \n        orderInfos = new OrderInfo[](_toIndex - _fromIndex);\n        uint256 index = 0;\n        (bool exist, uint256 currentId) = bBuyOrdersMap[_bBuy].getNextNode(0);\n        while(index < _toIndex && exist) {\n            if (index < _fromIndex) {\n                (exist, currentId) = bBuyOrdersMap[_bBuy].getNextNode(currentId);\n                index++;\n                continue;\n            }\n            OrderInfo memory orderInfo = orderNFT.getOrderInfo(currentId);\n            orderInfos[index - _fromIndex] = orderInfo;\n            \n            (exist, currentId) = bBuyOrdersMap[_bBuy].getNextNode(currentId);\n            index++;\n        }\n    }\n\n    // \n    function popFront(bool _bBuy) internal returns(uint256 index) {\n        return bBuyOrdersMap[_bBuy].popFront();\n    }\n    // \n    function pushFront(bool _bBuy, uint256 _index) internal returns(bool) {\n        return bBuyOrdersMap[_bBuy].pushFront(_index);\n    }\n\n    // \n    function getOrderDetailNumber(uint256 _orderId) view public returns(uint256) {\n        return orderNFT.getOrderDetailNumber(_orderId);\n    }\n\n    // \n    function getUserDealedOrderNumber(address _userAddr) view public returns(uint256) {\n        return userDealedOrdersMap[_userAddr].length;\n    }\n\n    // \n    function getUserOrderNumber(address _userAddr) view public returns(uint256) {\n        return userOrdersMap[_userAddr].length;\n    }\n    // \n    function getUserHangingOrderNumber(address _userAddr) view public returns(uint256) {\n        return userHangingOrdersMap[_userAddr].length();\n    }\n    // \n    function getUserHangingOrderId(address _userAddr, uint256 _index) view public returns(uint256) {\n        return userHangingOrdersMap[_userAddr].at(_index);\n    }\n\n    function getUserHangingOrderInfos(address _userAddr, uint256 _fromIndex, uint256 _toIndex) view public returns(OrderInfo[] memory orderInfos) {\n        uint256 length = userHangingOrdersMap[_userAddr].length();\n        if (_toIndex > length) _toIndex = length;\n        require(_fromIndex < _toIndex, \"OrderStore: index is out of bound.\");\n        \n        orderInfos = new OrderInfo[](_toIndex - _fromIndex);\n        for (uint256 i = _fromIndex; i < _toIndex; i++) {\n            uint256 orderId = userHangingOrdersMap[_userAddr].at(i);\n            OrderInfo memory orderInfo = orderNFT.getOrderInfo(orderId);\n            orderInfos[i - _fromIndex] = orderInfo;\n        }\n    }\n\n    function getOrderNumber(OrderStatus _orderStatus) view public returns(uint256) {\n        return sealedOrdersMap[_orderStatus].length;\n    }\n    \n    function onERC721Received(address, address, uint256, bytes memory) public virtual override returns (bytes4) {\n        return this.onERC721Received.selector;\n    }\n}",
  "sourcePath": "/Users/mryu/blockchain/bobo-metaverse/boboswap-contract/contracts/common/OrderStore.sol",
  "compiler": {
    "name": "solc",
    "version": "0.6.12+commit.27d51765.Emscripten.clang"
  },
  "schemaVersion": "3.4.3",
  "updatedAt": "2021-10-20T12:34:30.975Z",
  "devdoc": {
    "kind": "dev",
    "methods": {},
    "version": 1
  },
  "userdoc": {
    "kind": "user",
    "methods": {},
    "version": 1
  }
}