{
  "contractName": "OrderNFT",
  "abi": [
    {
      "inputs": [],
      "stateMutability": "nonpayable",
      "type": "constructor"
    },
    {
      "anonymous": false,
      "inputs": [
        {
          "indexed": true,
          "internalType": "address",
          "name": "owner",
          "type": "address"
        },
        {
          "indexed": true,
          "internalType": "address",
          "name": "approved",
          "type": "address"
        },
        {
          "indexed": true,
          "internalType": "uint256",
          "name": "tokenId",
          "type": "uint256"
        }
      ],
      "name": "Approval",
      "type": "event"
    },
    {
      "anonymous": false,
      "inputs": [
        {
          "indexed": true,
          "internalType": "address",
          "name": "owner",
          "type": "address"
        },
        {
          "indexed": true,
          "internalType": "address",
          "name": "operator",
          "type": "address"
        },
        {
          "indexed": false,
          "internalType": "bool",
          "name": "approved",
          "type": "bool"
        }
      ],
      "name": "ApprovalForAll",
      "type": "event"
    },
    {
      "anonymous": false,
      "inputs": [
        {
          "indexed": true,
          "internalType": "address",
          "name": "_to",
          "type": "address"
        },
        {
          "indexed": false,
          "internalType": "uint256",
          "name": "_tokenId",
          "type": "uint256"
        }
      ],
      "name": "Mint",
      "type": "event"
    },
    {
      "anonymous": false,
      "inputs": [
        {
          "indexed": true,
          "internalType": "address",
          "name": "previousOwner",
          "type": "address"
        },
        {
          "indexed": true,
          "internalType": "address",
          "name": "newOwner",
          "type": "address"
        }
      ],
      "name": "OwnershipTransferred",
      "type": "event"
    },
    {
      "anonymous": false,
      "inputs": [
        {
          "indexed": true,
          "internalType": "address",
          "name": "from",
          "type": "address"
        },
        {
          "indexed": true,
          "internalType": "address",
          "name": "to",
          "type": "address"
        },
        {
          "indexed": true,
          "internalType": "uint256",
          "name": "tokenId",
          "type": "uint256"
        }
      ],
      "name": "Transfer",
      "type": "event"
    },
    {
      "inputs": [
        {
          "internalType": "address",
          "name": "_addMinter",
          "type": "address"
        }
      ],
      "name": "addMinter",
      "outputs": [
        {
          "internalType": "bool",
          "name": "",
          "type": "bool"
        }
      ],
      "stateMutability": "nonpayable",
      "type": "function"
    },
    {
      "inputs": [
        {
          "internalType": "address",
          "name": "to",
          "type": "address"
        },
        {
          "internalType": "uint256",
          "name": "tokenId",
          "type": "uint256"
        }
      ],
      "name": "approve",
      "outputs": [],
      "stateMutability": "nonpayable",
      "type": "function"
    },
    {
      "inputs": [
        {
          "internalType": "address",
          "name": "owner",
          "type": "address"
        }
      ],
      "name": "balanceOf",
      "outputs": [
        {
          "internalType": "uint256",
          "name": "",
          "type": "uint256"
        }
      ],
      "stateMutability": "view",
      "type": "function",
      "constant": true
    },
    {
      "inputs": [],
      "name": "baseURI",
      "outputs": [
        {
          "internalType": "string",
          "name": "",
          "type": "string"
        }
      ],
      "stateMutability": "view",
      "type": "function",
      "constant": true
    },
    {
      "inputs": [
        {
          "internalType": "address",
          "name": "_delMinter",
          "type": "address"
        }
      ],
      "name": "delMinter",
      "outputs": [
        {
          "internalType": "bool",
          "name": "",
          "type": "bool"
        }
      ],
      "stateMutability": "nonpayable",
      "type": "function"
    },
    {
      "inputs": [
        {
          "internalType": "uint256",
          "name": "tokenId",
          "type": "uint256"
        }
      ],
      "name": "getApproved",
      "outputs": [
        {
          "internalType": "address",
          "name": "",
          "type": "address"
        }
      ],
      "stateMutability": "view",
      "type": "function",
      "constant": true
    },
    {
      "inputs": [
        {
          "internalType": "uint256",
          "name": "_index",
          "type": "uint256"
        }
      ],
      "name": "getMinter",
      "outputs": [
        {
          "internalType": "address",
          "name": "",
          "type": "address"
        }
      ],
      "stateMutability": "view",
      "type": "function",
      "constant": true
    },
    {
      "inputs": [],
      "name": "getMinterLength",
      "outputs": [
        {
          "internalType": "uint256",
          "name": "",
          "type": "uint256"
        }
      ],
      "stateMutability": "view",
      "type": "function",
      "constant": true
    },
    {
      "inputs": [
        {
          "internalType": "uint256",
          "name": "",
          "type": "uint256"
        }
      ],
      "name": "id2NFTInfoMap",
      "outputs": [
        {
          "internalType": "uint256",
          "name": "id",
          "type": "uint256"
        },
        {
          "internalType": "address",
          "name": "owner",
          "type": "address"
        },
        {
          "internalType": "address",
          "name": "pairAddr",
          "type": "address"
        },
        {
          "internalType": "bool",
          "name": "bBuyQuoteToken",
          "type": "bool"
        },
        {
          "internalType": "uint256",
          "name": "spotPrice",
          "type": "uint256"
        },
        {
          "internalType": "uint256",
          "name": "inAmount",
          "type": "uint256"
        },
        {
          "internalType": "uint256",
          "name": "minOutAmount",
          "type": "uint256"
        },
        {
          "internalType": "uint256",
          "name": "outAmount",
          "type": "uint256"
        },
        {
          "internalType": "enum OrderStatus",
          "name": "status",
          "type": "uint8"
        },
        {
          "internalType": "string",
          "name": "comment",
          "type": "string"
        },
        {
          "internalType": "uint256",
          "name": "delegateTime",
          "type": "uint256"
        },
        {
          "internalType": "uint256",
          "name": "dealedTime",
          "type": "uint256"
        },
        {
          "internalType": "uint256",
          "name": "weight",
          "type": "uint256"
        }
      ],
      "stateMutability": "view",
      "type": "function",
      "constant": true
    },
    {
      "inputs": [
        {
          "internalType": "address",
          "name": "owner",
          "type": "address"
        },
        {
          "internalType": "address",
          "name": "operator",
          "type": "address"
        }
      ],
      "name": "isApprovedForAll",
      "outputs": [
        {
          "internalType": "bool",
          "name": "",
          "type": "bool"
        }
      ],
      "stateMutability": "view",
      "type": "function",
      "constant": true
    },
    {
      "inputs": [
        {
          "internalType": "address",
          "name": "account",
          "type": "address"
        }
      ],
      "name": "isMinter",
      "outputs": [
        {
          "internalType": "bool",
          "name": "",
          "type": "bool"
        }
      ],
      "stateMutability": "view",
      "type": "function",
      "constant": true
    },
    {
      "inputs": [],
      "name": "name",
      "outputs": [
        {
          "internalType": "string",
          "name": "",
          "type": "string"
        }
      ],
      "stateMutability": "view",
      "type": "function",
      "constant": true
    },
    {
      "inputs": [],
      "name": "nftId",
      "outputs": [
        {
          "internalType": "uint256",
          "name": "",
          "type": "uint256"
        }
      ],
      "stateMutability": "view",
      "type": "function",
      "constant": true
    },
    {
      "inputs": [],
      "name": "owner",
      "outputs": [
        {
          "internalType": "address",
          "name": "",
          "type": "address"
        }
      ],
      "stateMutability": "view",
      "type": "function",
      "constant": true
    },
    {
      "inputs": [
        {
          "internalType": "address",
          "name": "",
          "type": "address"
        },
        {
          "internalType": "address",
          "name": "",
          "type": "address"
        },
        {
          "internalType": "uint256",
          "name": "",
          "type": "uint256"
        }
      ],
      "name": "owner2PairAddr2OrderIDsMap",
      "outputs": [
        {
          "internalType": "uint256",
          "name": "",
          "type": "uint256"
        }
      ],
      "stateMutability": "view",
      "type": "function",
      "constant": true
    },
    {
      "inputs": [
        {
          "internalType": "uint256",
          "name": "tokenId",
          "type": "uint256"
        }
      ],
      "name": "ownerOf",
      "outputs": [
        {
          "internalType": "address",
          "name": "",
          "type": "address"
        }
      ],
      "stateMutability": "view",
      "type": "function",
      "constant": true
    },
    {
      "inputs": [],
      "name": "renounceOwnership",
      "outputs": [],
      "stateMutability": "nonpayable",
      "type": "function"
    },
    {
      "inputs": [
        {
          "internalType": "address",
          "name": "from",
          "type": "address"
        },
        {
          "internalType": "address",
          "name": "to",
          "type": "address"
        },
        {
          "internalType": "uint256",
          "name": "tokenId",
          "type": "uint256"
        }
      ],
      "name": "safeTransferFrom",
      "outputs": [],
      "stateMutability": "nonpayable",
      "type": "function"
    },
    {
      "inputs": [
        {
          "internalType": "address",
          "name": "from",
          "type": "address"
        },
        {
          "internalType": "address",
          "name": "to",
          "type": "address"
        },
        {
          "internalType": "uint256",
          "name": "tokenId",
          "type": "uint256"
        },
        {
          "internalType": "bytes",
          "name": "_data",
          "type": "bytes"
        }
      ],
      "name": "safeTransferFrom",
      "outputs": [],
      "stateMutability": "nonpayable",
      "type": "function"
    },
    {
      "inputs": [
        {
          "internalType": "address",
          "name": "operator",
          "type": "address"
        },
        {
          "internalType": "bool",
          "name": "approved",
          "type": "bool"
        }
      ],
      "name": "setApprovalForAll",
      "outputs": [],
      "stateMutability": "nonpayable",
      "type": "function"
    },
    {
      "inputs": [
        {
          "internalType": "bytes4",
          "name": "interfaceId",
          "type": "bytes4"
        }
      ],
      "name": "supportsInterface",
      "outputs": [
        {
          "internalType": "bool",
          "name": "",
          "type": "bool"
        }
      ],
      "stateMutability": "view",
      "type": "function",
      "constant": true
    },
    {
      "inputs": [],
      "name": "symbol",
      "outputs": [
        {
          "internalType": "string",
          "name": "",
          "type": "string"
        }
      ],
      "stateMutability": "view",
      "type": "function",
      "constant": true
    },
    {
      "inputs": [
        {
          "internalType": "uint256",
          "name": "index",
          "type": "uint256"
        }
      ],
      "name": "tokenByIndex",
      "outputs": [
        {
          "internalType": "uint256",
          "name": "",
          "type": "uint256"
        }
      ],
      "stateMutability": "view",
      "type": "function",
      "constant": true
    },
    {
      "inputs": [
        {
          "internalType": "address",
          "name": "owner",
          "type": "address"
        },
        {
          "internalType": "uint256",
          "name": "index",
          "type": "uint256"
        }
      ],
      "name": "tokenOfOwnerByIndex",
      "outputs": [
        {
          "internalType": "uint256",
          "name": "",
          "type": "uint256"
        }
      ],
      "stateMutability": "view",
      "type": "function",
      "constant": true
    },
    {
      "inputs": [
        {
          "internalType": "uint256",
          "name": "tokenId",
          "type": "uint256"
        }
      ],
      "name": "tokenURI",
      "outputs": [
        {
          "internalType": "string",
          "name": "",
          "type": "string"
        }
      ],
      "stateMutability": "view",
      "type": "function",
      "constant": true
    },
    {
      "inputs": [],
      "name": "totalSupply",
      "outputs": [
        {
          "internalType": "uint256",
          "name": "",
          "type": "uint256"
        }
      ],
      "stateMutability": "view",
      "type": "function",
      "constant": true
    },
    {
      "inputs": [
        {
          "internalType": "address",
          "name": "from",
          "type": "address"
        },
        {
          "internalType": "address",
          "name": "to",
          "type": "address"
        },
        {
          "internalType": "uint256",
          "name": "tokenId",
          "type": "uint256"
        }
      ],
      "name": "transferFrom",
      "outputs": [],
      "stateMutability": "nonpayable",
      "type": "function"
    },
    {
      "inputs": [
        {
          "internalType": "address",
          "name": "newOwner",
          "type": "address"
        }
      ],
      "name": "transferOwnership",
      "outputs": [],
      "stateMutability": "nonpayable",
      "type": "function"
    },
    {
      "inputs": [
        {
          "internalType": "address",
          "name": "_pairAddr",
          "type": "address"
        },
        {
          "internalType": "address",
          "name": "bookOwner",
          "type": "address"
        },
        {
          "internalType": "bool",
          "name": "_bBuyQuoteToken",
          "type": "bool"
        },
        {
          "internalType": "uint256",
          "name": "_spotPrice",
          "type": "uint256"
        },
        {
          "internalType": "uint256",
          "name": "_inAmount",
          "type": "uint256"
        },
        {
          "internalType": "uint256",
          "name": "_minOutAmount",
          "type": "uint256"
        }
      ],
      "name": "mint",
      "outputs": [
        {
          "internalType": "uint256",
          "name": "",
          "type": "uint256"
        }
      ],
      "stateMutability": "nonpayable",
      "type": "function"
    },
    {
      "inputs": [
        {
          "internalType": "uint256",
          "name": "_nftId",
          "type": "uint256"
        },
        {
          "internalType": "enum OrderStatus",
          "name": "_status",
          "type": "uint8"
        },
        {
          "internalType": "uint256",
          "name": "_outAmount",
          "type": "uint256"
        },
        {
          "internalType": "string",
          "name": "_comment",
          "type": "string"
        }
      ],
      "name": "sealNFT",
      "outputs": [],
      "stateMutability": "nonpayable",
      "type": "function"
    },
    {
      "inputs": [
        {
          "internalType": "uint256",
          "name": "_nftId",
          "type": "uint256"
        }
      ],
      "name": "getOrderInfo",
      "outputs": [
        {
          "components": [
            {
              "internalType": "uint256",
              "name": "id",
              "type": "uint256"
            },
            {
              "internalType": "address",
              "name": "owner",
              "type": "address"
            },
            {
              "internalType": "address",
              "name": "pairAddr",
              "type": "address"
            },
            {
              "internalType": "bool",
              "name": "bBuyQuoteToken",
              "type": "bool"
            },
            {
              "internalType": "uint256",
              "name": "spotPrice",
              "type": "uint256"
            },
            {
              "internalType": "uint256",
              "name": "inAmount",
              "type": "uint256"
            },
            {
              "internalType": "uint256",
              "name": "minOutAmount",
              "type": "uint256"
            },
            {
              "internalType": "uint256",
              "name": "outAmount",
              "type": "uint256"
            },
            {
              "internalType": "enum OrderStatus",
              "name": "status",
              "type": "uint8"
            },
            {
              "internalType": "string",
              "name": "comment",
              "type": "string"
            },
            {
              "internalType": "uint256",
              "name": "delegateTime",
              "type": "uint256"
            },
            {
              "internalType": "uint256",
              "name": "dealedTime",
              "type": "uint256"
            },
            {
              "internalType": "uint256",
              "name": "weight",
              "type": "uint256"
            }
          ],
          "internalType": "struct NFTInfo",
          "name": "nftInfo",
          "type": "tuple"
        }
      ],
      "stateMutability": "view",
      "type": "function",
      "constant": true
    },
    {
      "inputs": [
        {
          "internalType": "uint256",
          "name": "_nftId",
          "type": "uint256"
        }
      ],
      "name": "getWeight",
      "outputs": [
        {
          "internalType": "uint256",
          "name": "weight",
          "type": "uint256"
        }
      ],
      "stateMutability": "view",
      "type": "function",
      "constant": true
    },
    {
      "inputs": [
        {
          "internalType": "uint256",
          "name": "x",
          "type": "uint256"
        }
      ],
      "name": "sqrt",
      "outputs": [
        {
          "internalType": "uint256",
          "name": "",
          "type": "uint256"
        }
      ],
      "stateMutability": "pure",
      "type": "function",
      "constant": true
    }
  ],
  "bytecode": "0x60806040526000600d553480156200001657600080fd5b506040518060400160405280600e81526020016d109bd89bc813dc99195c8813919560921b815250604051806040016040528060038152602001621093d560ea1b81525060006200006c6200013260201b60201c565b600080546001600160a01b0319166001600160a01b0383169081178255604051929350917f8be0079c531659141344cd1fd0a4f28419497f9722a3daafe3b4186f6b6457e0908290a350620000c86301ffc9a760e01b62000136565b8151620000dd90600990602085019062000191565b508051620000f390600a90602084019062000191565b50620001066380ac58cd60e01b62000136565b62000118635b5e139f60e01b62000136565b6200012a63780e9d6360e01b62000136565b505062000264565b3390565b6001600160e01b031980821614156200016c5760405162461bcd60e51b815260040162000163906200022d565b60405180910390fd5b6001600160e01b0319166000908152600360205260409020805460ff19166001179055565b828054600181600116156101000203166002900490600052602060002090601f016020900481019282601f10620001d457805160ff191683800117855562000204565b8280016001018555821562000204579182015b8281111562000204578251825591602001919060010190620001e7565b506200021292915062000216565b5090565b5b8082111562000212576000815560010162000217565b6020808252601c908201527f4552433136353a20696e76616c696420696e7465726661636520696400000000604082015260600190565b612d4c80620002746000396000f3fe608060405234801561001057600080fd5b50600436106101fb5760003560e01c80636c0360eb1161011a578063aa271e1a116100ad578063d311636b1161007c578063d311636b14610414578063d4e5681014610434578063d851fdfd14610447578063e985e9c51461045a578063f2fde38b1461046d576101fb565b8063aa271e1a146103d3578063b88d4fde146103e6578063c6bc5182146103f9578063c87b56dd14610401576101fb565b80638da5cb5b116100e95780638da5cb5b1461039d57806395d89b41146103a5578063983b2d56146103ad578063a22cb465146103c0576101fb565b80636c0360eb1461036757806370a082311461036f578063715018a6146103825780637375027c1461038a576101fb565b80632cbe9eb2116101925780634f6ccce7116101615780634f6ccce71461031b5780635b7121f81461032e5780636352211e14610341578063677342ce14610354576101fb565b80632cbe9eb2146102b65780632f745c59146102c9578063327d0790146102dc57806342842e0e14610308576101fb565b8063095ea7b3116101ce578063095ea7b31461027357806318160ddd1461028857806323338b881461029057806323b872dd146102a3576101fb565b806301ffc9a7146102005780630323aac71461022957806306fdde031461023e578063081812fc14610253575b600080fd5b61021361020e36600461231c565b610480565b60405161022091906124d1565b60405180910390f35b6102316104a3565b6040516102209190612bcb565b6102466104b4565b60405161022091906124dc565b610266610261366004612354565b61054a565b6040516102209190612480565b6102866102813660046122f2565b610596565b005b61023161062e565b61021361029e36600461216f565b61063a565b6102866102b136600461221f565b6106a8565b6102316102c436600461221f565b6106e0565b6102316102d73660046122f2565b61071b565b6102ef6102ea366004612354565b610744565b6040516102209d9c9b9a99989796959493929190612bd4565b61028661031636600461221f565b610846565b610231610329366004612354565b610861565b61026661033c366004612354565b610877565b61026661034f366004612354565b6108e3565b610231610362366004612354565b61090b565b61024661093d565b61023161037d36600461216f565b61099e565b6102866109e7565b6102316103983660046121be565b610a66565b610266610cb0565b610246610cbf565b6102136103bb36600461216f565b610d20565b6102866103ce3660046122c7565b610d88565b6102136103e136600461216f565b610e56565b6102866103f436600461225f565b610e63565b610231610ea2565b61024661040f366004612354565b610ea8565b610427610422366004612354565b610ff2565b6040516102209190612af8565b61028661044236600461236c565b61117e565b610231610455366004612354565b6112d8565b61021361046836600461218a565b61146c565b61028661047b36600461216f565b61149a565b6001600160e01b0319811660009081526003602052604090205460ff165b919050565b60006104af6001611550565b905090565b60098054604080516020601f60026000196101006001881615020190951694909404938401819004810282018101909252828152606093909290918301828280156105405780601f1061051557610100808354040283529160200191610540565b820191906000526020600020905b81548152906001019060200180831161052357829003601f168201915b5050505050905090565b60006105558261155b565b61057a5760405162461bcd60e51b8152600401610571906128d0565b60405180910390fd5b506000908152600760205260409020546001600160a01b031690565b60006105a1826108e3565b9050806001600160a01b0316836001600160a01b031614156105d55760405162461bcd60e51b8152600401610571906129e9565b806001600160a01b03166105e7611568565b6001600160a01b03161480610603575061060381610468611568565b61061f5760405162461bcd60e51b815260040161057190612744565b610629838361156c565b505050565b60006104af6005611550565b6000610644611568565b6000546001600160a01b039081169116146106715760405162461bcd60e51b81526004016105719061291c565b6001600160a01b0382166106975760405162461bcd60e51b815260040161057190612a2a565b6106a26001836115da565b92915050565b6106b96106b3611568565b826115ef565b6106d55760405162461bcd60e51b815260040161057190612a70565b610629838383611674565b600f602052826000526040600020602052816000526040600020818154811061070557fe5b9060005260206000200160009250925050505481565b6001600160a01b038216600090815260046020526040812061073d9083611782565b9392505050565b600e602090815260009182526040918290208054600180830154600280850154600386015460048701546005880154600689015460078a015460088b0180548e516101009b8216159b909b02600019011697909704601f81018d90048d028a018d01909d528c8952989b6001600160a01b039788169b9786169a600160a01b90960460ff9081169a9599949893979296951694939283018282801561082a5780601f106107ff5761010080835404028352916020019161082a565b820191906000526020600020905b81548152906001019060200180831161080d57829003601f168201915b50505050509080600901549080600a01549080600b015490508d565b61062983838360405180602001604052806000815250610e63565b60008061086f60058461178e565b509392505050565b6000610881611568565b6000546001600160a01b039081169116146108ae5760405162461bcd60e51b81526004016105719061291c565b60016108b86104a3565b038211156108d85760405162461bcd60e51b8152600401610571906127a1565b6106a2600183611782565b60006106a282604051806060016040528060298152602001612cee60299139600591906117aa565b600060026001830104825b8082101561073d57508060028180868161092c57fe5b04018161093557fe5b049150610916565b600c8054604080516020601f60026000196101006001881615020190951694909404938401819004810282018101909252828152606093909290918301828280156105405780601f1061051557610100808354040283529160200191610540565b60006001600160a01b0382166109c65760405162461bcd60e51b8152600401610571906127d8565b6001600160a01b03821660009081526004602052604090206106a290611550565b6109ef611568565b6000546001600160a01b03908116911614610a1c5760405162461bcd60e51b81526004016105719061291c565b600080546040516001600160a01b03909116907f8be0079c531659141344cd1fd0a4f28419497f9722a3daafe3b4186f6b6457e0908390a3600080546001600160a01b0319169055565b6000610a7133610e56565b610a8d5760405162461bcd60e51b815260040161057190612864565b600d805460010190819055610aa39033906117b7565b604051806101a00160405280600d548152602001876001600160a01b03168152602001886001600160a01b0316815260200186151581526020018581526020018481526020018381526020016000815260200160006003811115610b0357fe5b81526040805160208181018352600080835281850192909252428385015260608085018390526080948501839052600d548352600e8252918390208551815590850151600180830180546001600160a01b039384166001600160a01b03199182161790915594870151600284018054958901511515600160a01b0260ff60a01b1992909416959096169490941793909316179092559183015160038083019190915560a0840151600483015560c0840151600583015560e0840151600683015561010084015160078301805493949193909260ff1990911691908490811115610be857fe5b02179055506101208201518051610c09916008840191602090910190611fb0565b506101408201516009820155610160820151600a82015561018090910151600b909101556001600160a01b038087166000908152600f60209081526040808320938b168352928152828220600d8054825460018101845592855292909320015554905133917f0f6798a560793a54c3bcfe86a93cde1e73087d944c0ea20544137d412139688591610c9a9190612bcb565b60405180910390a250600d549695505050505050565b6000546001600160a01b031690565b600a8054604080516020601f60026000196101006001881615020190951694909404938401819004810282018101909252828152606093909290918301828280156105405780601f1061051557610100808354040283529160200191610540565b6000610d2a611568565b6000546001600160a01b03908116911614610d575760405162461bcd60e51b81526004016105719061291c565b6001600160a01b038216610d7d5760405162461bcd60e51b8152600401610571906126fe565b6106a26001836117d5565b610d90611568565b6001600160a01b0316826001600160a01b03161415610dc15760405162461bcd60e51b815260040161057190612644565b8060086000610dce611568565b6001600160a01b03908116825260208083019390935260409182016000908120918716808252919093529120805460ff191692151592909217909155610e12611568565b6001600160a01b03167f17307eab39ab6107e8899845ad3d59bd9653f200f220920489ca2b5937696c3183604051610e4a91906124d1565b60405180910390a35050565b60006106a26001836117ea565b610e74610e6e611568565b836115ef565b610e905760405162461bcd60e51b815260040161057190612a70565b610e9c848484846117ff565b50505050565b600d5481565b6060610eb38261155b565b610ecf5760405162461bcd60e51b81526004016105719061299a565b6000828152600b602090815260409182902080548351601f6002600019610100600186161502019093169290920491820184900484028101840190945280845260609392830182828015610f645780601f10610f3957610100808354040283529160200191610f64565b820191906000526020600020905b815481529060010190602001808311610f4757829003601f168201915b5050600c5493945050505060026000196101006001841615020190911604610f8d57905061049e565b805115610fbf57600c81604051602001610fa89291906123ff565b60405160208183030381529060405291505061049e565b600c610fca84611832565b604051602001610fdb9291906123ff565b604051602081830303815290604052915050919050565b610ffa61202e565b6110038261155b565b61101f5760405162461bcd60e51b81526004016105719061267b565b6000828152600e602090815260409182902082516101a0810184528154815260018201546001600160a01b0390811693820193909352600282015492831693810193909352600160a01b90910460ff908116151560608401526003808301546080850152600483015460a0850152600583015460c0850152600683015460e0850152600783015461010085019216908111156110b757fe5b60038111156110c257fe5b815260088201805460408051602060026001851615610100026000190190941693909304601f81018490048402820184019092528181529382019392918301828280156111505780601f1061112557610100808354040283529160200191611150565b820191906000526020600020905b81548152906001019060200180831161113357829003601f168201915b5050505050815260200160098201548152602001600a8201548152602001600b820154815250509050919050565b61118733610e56565b6111a35760405162461bcd60e51b815260040161057190612864565b6111ac8461155b565b6111c85760405162461bcd60e51b81526004016105719061267b565b6000848152600e60205260409020600701805484919060ff191660018360038111156111f057fe5b02179055506000848152600e6020908152604090912042600a82015560068101849055825161122792600890920191840190611fb0565b50600283600381111561123657fe5b1415610e9c576000848152600e602052604081206009015461125990429061190d565b9050600081156112715761126c8261090b565b611274565b60015b6000878152600e602052604081206002015491925090600160a01b900460ff1661129e57846112b1565b6000878152600e60205260409020600401545b90506112bd818361194f565b6000888152600e60205260409020600b015550505050505050565b60006112e38261155b565b6112ff5760405162461bcd60e51b81526004016105719061267b565b61130761202e565b6000838152600e602090815260409182902082516101a0810184528154815260018201546001600160a01b0390811693820193909352600282015492831693810193909352600160a01b90910460ff908116151560608401526003808301546080850152600483015460a0850152600583015460c0850152600683015460e08501526007830154610100850192169081111561139f57fe5b60038111156113aa57fe5b815260088201805460408051602060026001851615610100026000190190941693909304601f81018490048402820184019092528181529382019392918301828280156114385780601f1061140d57610100808354040283529160200191611438565b820191906000526020600020905b81548152906001019060200180831161141b57829003601f168201915b505050918352505060098201546020820152600a8201546040820152600b9091015460609091015261018001519392505050565b6001600160a01b03918216600090815260086020908152604080832093909416825291909152205460ff1690565b6114a2611568565b6000546001600160a01b039081169116146114cf5760405162461bcd60e51b81526004016105719061291c565b6001600160a01b0381166114f55760405162461bcd60e51b815260040161057190612583565b600080546040516001600160a01b03808516939216917f8be0079c531659141344cd1fd0a4f28419497f9722a3daafe3b4186f6b6457e091a3600080546001600160a01b0319166001600160a01b0392909216919091179055565b60006106a282611991565b60006106a2600583611995565b3390565b600081815260076020526040902080546001600160a01b0319166001600160a01b03841690811790915581906115a1826108e3565b6001600160a01b03167f8c5be1e5ebec7d5bd14f71427d1e84f3dd0314c0f7b2291e5b200ac8c7c3b92560405160405180910390a45050565b600061073d836001600160a01b0384166119a1565b60006115fa8261155b565b6116165760405162461bcd60e51b8152600401610571906126b2565b6000611621836108e3565b9050806001600160a01b0316846001600160a01b0316148061165c5750836001600160a01b03166116518461054a565b6001600160a01b0316145b8061166c575061166c818561146c565b949350505050565b826001600160a01b0316611687826108e3565b6001600160a01b0316146116ad5760405162461bcd60e51b815260040161057190612951565b6001600160a01b0382166116d35760405162461bcd60e51b815260040161057190612600565b6116de838383610629565b6116e960008261156c565b6001600160a01b038316600090815260046020526040902061170b9082611a67565b506001600160a01b038216600090815260046020526040902061172e9082611a73565b5061173b60058284611a7f565b5080826001600160a01b0316846001600160a01b03167fddf252ad1be2c89b69c2b068fc378daa952ba7f163c4a11628f55a4df523b3ef60405160405180910390a4505050565b600061073d8383611a95565b600080808061179d8686611ada565b9097909650945050505050565b600061166c848484611b36565b6117d1828260405180602001604052806000815250611b95565b5050565b600061073d836001600160a01b038416611bc8565b600061073d836001600160a01b038416611c12565b61180a848484611674565b61181684848484611c2a565b610e9c5760405162461bcd60e51b815260040161057190612531565b60608161185757506040805180820190915260018152600360fc1b602082015261049e565b8160005b811561186f57600101600a8204915061185b565b60608167ffffffffffffffff8111801561188857600080fd5b506040519080825280601f01601f1916602001820160405280156118b3576020820181803683370190505b50859350905060001982015b831561190457600a840660300160f81b828280600190039350815181106118e257fe5b60200101906001600160f81b031916908160001a905350600a840493506118bf565b50949350505050565b600061073d83836040518060400160405280601e81526020017f536166654d6174683a207375627472616374696f6e206f766572666c6f770000815250611d09565b600061073d83836040518060400160405280601a81526020017f536166654d6174683a206469766973696f6e206279207a65726f000000000000815250611d35565b5490565b600061073d8383611c12565b60008181526001830160205260408120548015611a5d57835460001980830191908101906000908790839081106119d457fe5b90600052602060002001549050808760000184815481106119f157fe5b600091825260208083209091019290925582815260018981019092526040902090840190558654879080611a2157fe5b600190038181906000526020600020016000905590558660010160008781526020019081526020016000206000905560019450505050506106a2565b60009150506106a2565b600061073d83836119a1565b600061073d8383611bc8565b600061166c84846001600160a01b038516611d6c565b81546000908210611ab85760405162461bcd60e51b8152600401610571906124ef565b826000018281548110611ac757fe5b9060005260206000200154905092915050565b815460009081908310611aff5760405162461bcd60e51b815260040161057190612822565b6000846000018481548110611b1057fe5b906000526020600020906002020190508060000154816001015492509250509250929050565b60008281526001840160205260408120548281611b665760405162461bcd60e51b815260040161057191906124dc565b50846000016001820381548110611b7957fe5b9060005260206000209060020201600101549150509392505050565b611b9f8383611e03565b611bac6000848484611c2a565b6106295760405162461bcd60e51b815260040161057190612531565b6000611bd48383611c12565b611c0a575081546001818101845560008481526020808220909301849055845484825282860190935260409020919091556106a2565b5060006106a2565b60009081526001919091016020526040902054151590565b6000611c3e846001600160a01b0316611ec7565b611c4a5750600161166c565b6060611cd2630a85bd0160e11b611c5f611568565b888787604051602401611c759493929190612494565b604051602081830303815290604052906001600160e01b0319166020820180516001600160e01b038381831617835250505050604051806060016040528060328152602001612cbc603291396001600160a01b0388169190611ecd565b9050600081806020019051810190611cea9190612338565b6001600160e01b031916630a85bd0160e11b1492505050949350505050565b60008184841115611d2d5760405162461bcd60e51b815260040161057191906124dc565b505050900390565b60008183611d565760405162461bcd60e51b815260040161057191906124dc565b506000838581611d6257fe5b0495945050505050565b600082815260018401602052604081205480611dd157505060408051808201825283815260208082018481528654600181810189556000898152848120955160029093029095019182559151908201558654868452818801909252929091205561073d565b82856000016001830381548110611de457fe5b906000526020600020906002020160010181905550600091505061073d565b6001600160a01b038216611e295760405162461bcd60e51b81526004016105719061289b565b611e328161155b565b15611e4f5760405162461bcd60e51b8152600401610571906125c9565b611e5b60008383610629565b6001600160a01b0382166000908152600460205260409020611e7d9082611a73565b50611e8a60058284611a7f565b5060405181906001600160a01b038416906000907fddf252ad1be2c89b69c2b068fc378daa952ba7f163c4a11628f55a4df523b3ef908290a45050565b3b151590565b606061166c848460008585611ee185611ec7565b611efd5760405162461bcd60e51b815260040161057190612ac1565b60006060866001600160a01b03168587604051611f1a91906123e3565b60006040518083038185875af1925050503d8060008114611f57576040519150601f19603f3d011682016040523d82523d6000602084013e611f5c565b606091505b5091509150611f6c828286611f77565b979650505050505050565b60608315611f8657508161073d565b825115611f965782518084602001fd5b8160405162461bcd60e51b815260040161057191906124dc565b828054600181600116156101000203166002900490600052602060002090601f016020900481019282601f10611ff157805160ff191683800117855561201e565b8280016001018555821561201e579182015b8281111561201e578251825591602001919060010190612003565b5061202a9291506120b5565b5090565b604051806101a001604052806000815260200160006001600160a01b0316815260200160006001600160a01b03168152602001600015158152602001600081526020016000815260200160008152602001600081526020016000600381111561209357fe5b8152602001606081526020016000815260200160008152602001600081525090565b5b8082111561202a57600081556001016120b6565b80356001600160a01b03811681146106a257600080fd5b803580151581146106a257600080fd5b600082601f830112612101578081fd5b813567ffffffffffffffff80821115612118578283fd5b604051601f8301601f191681016020018281118282101715612138578485fd5b60405282815292508284830160200186101561215357600080fd5b8260208601602083013760006020848301015250505092915050565b600060208284031215612180578081fd5b61073d83836120ca565b6000806040838503121561219c578081fd5b6121a684846120ca565b91506121b584602085016120ca565b90509250929050565b60008060008060008060c087890312156121d6578182fd5b6121e088886120ca565b95506121ef88602089016120ca565b94506121fe88604089016120e1565b9350606087013592506080870135915060a087013590509295509295509295565b600080600060608486031215612233578283fd5b833561223e81612c8d565b9250602084013561224e81612c8d565b929592945050506040919091013590565b60008060008060808587031215612274578384fd5b61227e86866120ca565b935061228d86602087016120ca565b925060408501359150606085013567ffffffffffffffff8111156122af578182fd5b6122bb878288016120f1565b91505092959194509250565b600080604083850312156122d9578182fd5b6122e384846120ca565b91506121b584602085016120e1565b60008060408385031215612304578182fd5b61230e84846120ca565b946020939093013593505050565b60006020828403121561232d578081fd5b813561073d81612ca5565b600060208284031215612349578081fd5b815161073d81612ca5565b600060208284031215612365578081fd5b5035919050565b60008060008060808587031215612381578384fd5b8435935060208501356004811061228d578384fd5b6001600160a01b03169052565b15159052565b600081518084526123c1816020860160208601612c61565b601f01601f19169290920160200192915050565b600481106123df57fe5b9052565b600082516123f5818460208701612c61565b9190910192915050565b600080845460018082166000811461241e576001811461243557612464565b60ff198316865260028304607f1686019350612464565b600283048886526020808720875b8381101561245c5781548a820152908501908201612443565b505050860193505b5050508351612477818360208801612c61565b01949350505050565b6001600160a01b0391909116815260200190565b6001600160a01b03858116825284166020820152604081018390526080606082018190526000906124c7908301846123a9565b9695505050505050565b901515815260200190565b60006020825261073d60208301846123a9565b60208082526022908201527f456e756d657261626c655365743a20696e646578206f7574206f6620626f756e604082015261647360f01b606082015260800190565b60208082526032908201527f4552433732313a207472616e7366657220746f206e6f6e20455243373231526560408201527131b2b4bb32b91034b6b83632b6b2b73a32b960711b606082015260800190565b60208082526026908201527f4f776e61626c653a206e6577206f776e657220697320746865207a65726f206160408201526564647265737360d01b606082015260800190565b6020808252601c908201527f4552433732313a20746f6b656e20616c7265616479206d696e74656400000000604082015260600190565b60208082526024908201527f4552433732313a207472616e7366657220746f20746865207a65726f206164646040820152637265737360e01b606082015260800190565b60208082526019908201527f4552433732313a20617070726f766520746f2063616c6c657200000000000000604082015260600190565b6020808252601b908201527f4f726465724e46543a206e6674206973206e6f742065786973742e0000000000604082015260600190565b6020808252602c908201527f4552433732313a206f70657261746f7220717565727920666f72206e6f6e657860408201526b34b9ba32b73a103a37b5b2b760a11b606082015260800190565b60208082526026908201527f546f6d4361743a205f6164644d696e74657220697320746865207a65726f206160408201526564647265737360d01b606082015260800190565b60208082526038908201527f4552433732313a20617070726f76652063616c6c6572206973206e6f74206f7760408201527f6e6572206e6f7220617070726f76656420666f7220616c6c0000000000000000606082015260800190565b6020808252601b908201527f546f6d4361743a20696e646578206f7574206f6620626f756e64730000000000604082015260600190565b6020808252602a908201527f4552433732313a2062616c616e636520717565727920666f7220746865207a65604082015269726f206164647265737360b01b606082015260800190565b60208082526022908201527f456e756d657261626c654d61703a20696e646578206f7574206f6620626f756e604082015261647360f01b606082015260800190565b60208082526018908201527f63616c6c6572206973206e6f7420746865206d696e7465720000000000000000604082015260600190565b6020808252818101527f4552433732313a206d696e7420746f20746865207a65726f2061646472657373604082015260600190565b6020808252602c908201527f4552433732313a20617070726f76656420717565727920666f72206e6f6e657860408201526b34b9ba32b73a103a37b5b2b760a11b606082015260800190565b6020808252818101527f4f776e61626c653a2063616c6c6572206973206e6f7420746865206f776e6572604082015260600190565b60208082526029908201527f4552433732313a207472616e73666572206f6620746f6b656e2074686174206960408201526839903737ba1037bbb760b91b606082015260800190565b6020808252602f908201527f4552433732314d657461646174613a2055524920717565727920666f72206e6f60408201526e3732bc34b9ba32b73a103a37b5b2b760891b606082015260800190565b60208082526021908201527f4552433732313a20617070726f76616c20746f2063757272656e74206f776e656040820152603960f91b606082015260800190565b60208082526026908201527f546f6d4361743a205f64656c4d696e74657220697320746865207a65726f206160408201526564647265737360d01b606082015260800190565b60208082526031908201527f4552433732313a207472616e736665722063616c6c6572206973206e6f74206f6040820152701ddb995c881b9bdc88185c1c1c9bdd9959607a1b606082015260800190565b6020808252601d908201527f416464726573733a2063616c6c20746f206e6f6e2d636f6e7472616374000000604082015260600190565b600060208252825160208301526020830151612b176040840182612396565b506040830151612b2a6060840182612396565b506060830151612b3d60808401826123a3565b50608083015160a083015260a083015160c083015260c083015160e083015260e0830151610100818185015280850151915050610120612b7f818501836123d5565b808501519150506101a06101408181860152612b9f6101c08601846123a9565b908601516101608681019190915286015161018080870191909152909501519301929092525090919050565b90815260200190565b8d81526001600160a01b038d811660208301528c1660408201528a15156060820152608081018a905260a0810189905260c0810188905260e081018790526000612c226101008301886123d5565b6101a0610120830152612c396101a08301876123a9565b61014083019590955250610160810192909252610180909101529a9950505050505050505050565b60005b83811015612c7c578181015183820152602001612c64565b83811115610e9c5750506000910152565b6001600160a01b0381168114612ca257600080fd5b50565b6001600160e01b031981168114612ca257600080fdfe4552433732313a207472616e7366657220746f206e6f6e20455243373231526563656976657220696d706c656d656e7465724552433732313a206f776e657220717565727920666f72206e6f6e6578697374656e7420746f6b656ea264697066735822122096d5c0ad9fcc53673f4ebe0506759cb0f10cdcfa5f7008a828a4e07bfbcffd4564736f6c634300060c0033",
  "immutableReferences": {},
  "source": "// SPDX-License-Identifier: MIT\npragma solidity ^0.6.0;\npragma experimental ABIEncoderV2;\n\nimport \"./Minter.sol\";\nimport \"./BasicStruct.sol\";\n// \ncontract OrderNFT is Minter, ERC721 {\n    using EnumerableSet for EnumerableSet.UintSet;\n    using SafeMath for uint256;\n    \n    \n    uint256 public nftId = 0;\n    mapping(uint256 => NFTInfo) public id2NFTInfoMap;\n    mapping(address => mapping(address => uint256[])) public owner2PairAddr2OrderIDsMap;   // \n        \n    event Mint(address indexed _to, uint256 _tokenId);\n    \n    constructor() ERC721(\"Bobo Order NFT\", \"BOT\")  public {\n    }        \n    \n    function mint(address _pairAddr, address bookOwner, bool _bBuyQuoteToken, uint256 _spotPrice, uint256 _inAmount, uint256 _minOutAmount) public onlyMinter returns (uint256) {\n        nftId++;\n        \n        _safeMint(msg.sender, nftId);   // msg.sender is contract address of book pool, so the new NFT is belong to book pool at first, NOT bookOwner\n        \n        id2NFTInfoMap[nftId] = NFTInfo(nftId, bookOwner, _pairAddr, _bBuyQuoteToken, _spotPrice, _inAmount, _minOutAmount, 0, OrderStatus.Hanging, \"\", now, 0, 0);\n        owner2PairAddr2OrderIDsMap[bookOwner][_pairAddr].push(nftId);    \n            \n        emit Mint(msg.sender, nftId);\n        return nftId;\n    }\n    \n    function sealNFT(uint256 _nftId, OrderStatus _status, uint256 _outAmount, string memory _comment) public onlyMinter {\n        require( _exists(_nftId), \"OrderNFT: nft is not exist.\");\n        id2NFTInfoMap[_nftId].status = _status;\n        id2NFTInfoMap[_nftId].dealedTime = now;\n        id2NFTInfoMap[_nftId].outAmount = _outAmount;\n        id2NFTInfoMap[_nftId].comment = _comment;\n        if (_status == OrderStatus.AMMDeal) {\n            uint256 spanTime = now.sub(id2NFTInfoMap[_nftId].delegateTime);\n            uint256 spanTimeFactor = spanTime == 0 ? 1 : sqrt(spanTime);\n            uint256 dealedAmountU = id2NFTInfoMap[_nftId].bBuyQuoteToken ? id2NFTInfoMap[_nftId].inAmount : _outAmount;\n            id2NFTInfoMap[_nftId].weight =  dealedAmountU.div(spanTimeFactor);\n        }\n    }\n    \n    function _beforeTokenTransfer(address from, address to, uint256 tokenId) internal virtual override {\n    }\n\n    function getOrderInfo(uint256 _nftId) view public returns(NFTInfo memory nftInfo) {\n        require( _exists(_nftId), \"OrderNFT: nft is not exist.\");\n        return id2NFTInfoMap[_nftId];\n    }\n\n    function getWeight(uint256 _nftId) view public returns(uint256 weight) {\n        require( _exists(_nftId), \"OrderNFT: nft is not exist.\");\n        NFTInfo memory nftInfo = id2NFTInfoMap[_nftId];\n        return nftInfo.weight;\n    }\n\n    function sqrt(uint256 x) public pure returns(uint256) {\n        uint z = (x + 1 ) / 2;\n        uint y = x;\n        while(z < y){\n            y = z;\n            z = ( x / z + z ) / 2;\n        }\n        return y;\n    }\n}",
  "sourcePath": "/Users/mryu/blockchain/bobo-metaverse/boboswap-contract/contracts/common/OrderNFT.sol",
  "compiler": {
    "name": "solc",
    "version": "0.6.12+commit.27d51765.Emscripten.clang"
  },
  "schemaVersion": "3.4.3",
  "updatedAt": "2021-09-16T08:10:12.350Z",
  "networkType": "ethereum",
  "devdoc": {
    "kind": "dev",
    "methods": {
      "approve(address,uint256)": {
        "details": "See {IERC721-approve}."
      },
      "balanceOf(address)": {
        "details": "See {IERC721-balanceOf}."
      },
      "baseURI()": {
        "details": "Returns the base URI set via {_setBaseURI}. This will be automatically added as a prefix in {tokenURI} to each token's URI, or to the token ID if no specific URI is set for that token ID."
      },
      "getApproved(uint256)": {
        "details": "See {IERC721-getApproved}."
      },
      "isApprovedForAll(address,address)": {
        "details": "See {IERC721-isApprovedForAll}."
      },
      "name()": {
        "details": "See {IERC721Metadata-name}."
      },
      "owner()": {
        "details": "Returns the address of the current owner."
      },
      "ownerOf(uint256)": {
        "details": "See {IERC721-ownerOf}."
      },
      "renounceOwnership()": {
        "details": "Leaves the contract without owner. It will not be possible to call `onlyOwner` functions anymore. Can only be called by the current owner. NOTE: Renouncing ownership will leave the contract without an owner, thereby removing any functionality that is only available to the owner."
      },
      "safeTransferFrom(address,address,uint256)": {
        "details": "See {IERC721-safeTransferFrom}."
      },
      "safeTransferFrom(address,address,uint256,bytes)": {
        "details": "See {IERC721-safeTransferFrom}."
      },
      "setApprovalForAll(address,bool)": {
        "details": "See {IERC721-setApprovalForAll}."
      },
      "supportsInterface(bytes4)": {
        "details": "See {IERC165-supportsInterface}. Time complexity O(1), guaranteed to always use less than 30 000 gas."
      },
      "symbol()": {
        "details": "See {IERC721Metadata-symbol}."
      },
      "tokenByIndex(uint256)": {
        "details": "See {IERC721Enumerable-tokenByIndex}."
      },
      "tokenOfOwnerByIndex(address,uint256)": {
        "details": "See {IERC721Enumerable-tokenOfOwnerByIndex}."
      },
      "tokenURI(uint256)": {
        "details": "See {IERC721Metadata-tokenURI}."
      },
      "totalSupply()": {
        "details": "See {IERC721Enumerable-totalSupply}."
      },
      "transferFrom(address,address,uint256)": {
        "details": "See {IERC721-transferFrom}."
      },
      "transferOwnership(address)": {
        "details": "Transfers ownership of the contract to a new account (`newOwner`). Can only be called by the current owner."
      }
    },
    "version": 1
  },
  "userdoc": {
    "kind": "user",
    "methods": {},
    "version": 1
  }
}