{
  "contractName": "OrderNFT",
  "abi": [
    {
      "inputs": [],
      "stateMutability": "nonpayable",
      "type": "constructor"
    },
    {
      "anonymous": false,
      "inputs": [
        {
          "indexed": true,
          "internalType": "address",
          "name": "owner",
          "type": "address"
        },
        {
          "indexed": true,
          "internalType": "address",
          "name": "approved",
          "type": "address"
        },
        {
          "indexed": true,
          "internalType": "uint256",
          "name": "tokenId",
          "type": "uint256"
        }
      ],
      "name": "Approval",
      "type": "event"
    },
    {
      "anonymous": false,
      "inputs": [
        {
          "indexed": true,
          "internalType": "address",
          "name": "owner",
          "type": "address"
        },
        {
          "indexed": true,
          "internalType": "address",
          "name": "operator",
          "type": "address"
        },
        {
          "indexed": false,
          "internalType": "bool",
          "name": "approved",
          "type": "bool"
        }
      ],
      "name": "ApprovalForAll",
      "type": "event"
    },
    {
      "anonymous": false,
      "inputs": [
        {
          "indexed": true,
          "internalType": "address",
          "name": "_to",
          "type": "address"
        },
        {
          "indexed": false,
          "internalType": "uint256",
          "name": "_tokenId",
          "type": "uint256"
        }
      ],
      "name": "Mint",
      "type": "event"
    },
    {
      "anonymous": false,
      "inputs": [
        {
          "indexed": true,
          "internalType": "address",
          "name": "previousOwner",
          "type": "address"
        },
        {
          "indexed": true,
          "internalType": "address",
          "name": "newOwner",
          "type": "address"
        }
      ],
      "name": "OwnershipTransferred",
      "type": "event"
    },
    {
      "anonymous": false,
      "inputs": [
        {
          "indexed": true,
          "internalType": "address",
          "name": "from",
          "type": "address"
        },
        {
          "indexed": true,
          "internalType": "address",
          "name": "to",
          "type": "address"
        },
        {
          "indexed": true,
          "internalType": "uint256",
          "name": "tokenId",
          "type": "uint256"
        }
      ],
      "name": "Transfer",
      "type": "event"
    },
    {
      "inputs": [
        {
          "internalType": "address",
          "name": "_addMinter",
          "type": "address"
        }
      ],
      "name": "addMinter",
      "outputs": [
        {
          "internalType": "bool",
          "name": "",
          "type": "bool"
        }
      ],
      "stateMutability": "nonpayable",
      "type": "function"
    },
    {
      "inputs": [
        {
          "internalType": "address",
          "name": "to",
          "type": "address"
        },
        {
          "internalType": "uint256",
          "name": "tokenId",
          "type": "uint256"
        }
      ],
      "name": "approve",
      "outputs": [],
      "stateMutability": "nonpayable",
      "type": "function"
    },
    {
      "inputs": [
        {
          "internalType": "address",
          "name": "owner",
          "type": "address"
        }
      ],
      "name": "balanceOf",
      "outputs": [
        {
          "internalType": "uint256",
          "name": "",
          "type": "uint256"
        }
      ],
      "stateMutability": "view",
      "type": "function",
      "constant": true
    },
    {
      "inputs": [],
      "name": "baseURI",
      "outputs": [
        {
          "internalType": "string",
          "name": "",
          "type": "string"
        }
      ],
      "stateMutability": "view",
      "type": "function",
      "constant": true
    },
    {
      "inputs": [
        {
          "internalType": "address",
          "name": "_delMinter",
          "type": "address"
        }
      ],
      "name": "delMinter",
      "outputs": [
        {
          "internalType": "bool",
          "name": "",
          "type": "bool"
        }
      ],
      "stateMutability": "nonpayable",
      "type": "function"
    },
    {
      "inputs": [
        {
          "internalType": "uint256",
          "name": "tokenId",
          "type": "uint256"
        }
      ],
      "name": "getApproved",
      "outputs": [
        {
          "internalType": "address",
          "name": "",
          "type": "address"
        }
      ],
      "stateMutability": "view",
      "type": "function",
      "constant": true
    },
    {
      "inputs": [
        {
          "internalType": "uint256",
          "name": "_index",
          "type": "uint256"
        }
      ],
      "name": "getMinter",
      "outputs": [
        {
          "internalType": "address",
          "name": "",
          "type": "address"
        }
      ],
      "stateMutability": "view",
      "type": "function",
      "constant": true
    },
    {
      "inputs": [],
      "name": "getMinterLength",
      "outputs": [
        {
          "internalType": "uint256",
          "name": "",
          "type": "uint256"
        }
      ],
      "stateMutability": "view",
      "type": "function",
      "constant": true
    },
    {
      "inputs": [
        {
          "internalType": "uint256",
          "name": "",
          "type": "uint256"
        }
      ],
      "name": "id2NFTInfoMap",
      "outputs": [
        {
          "internalType": "uint256",
          "name": "id",
          "type": "uint256"
        },
        {
          "internalType": "uint256",
          "name": "parentId",
          "type": "uint256"
        },
        {
          "internalType": "address",
          "name": "owner",
          "type": "address"
        },
        {
          "internalType": "address",
          "name": "pairAddr",
          "type": "address"
        },
        {
          "internalType": "bool",
          "name": "bBuyQuoteToken",
          "type": "bool"
        },
        {
          "internalType": "uint256",
          "name": "spotPrice",
          "type": "uint256"
        },
        {
          "internalType": "uint256",
          "name": "inAmount",
          "type": "uint256"
        },
        {
          "internalType": "uint256",
          "name": "minOutAmount",
          "type": "uint256"
        },
        {
          "internalType": "uint256",
          "name": "outAmount",
          "type": "uint256"
        },
        {
          "internalType": "enum OrderStatus",
          "name": "status",
          "type": "uint8"
        },
        {
          "internalType": "uint256",
          "name": "delegateTime",
          "type": "uint256"
        },
        {
          "internalType": "uint256",
          "name": "dealedTime",
          "type": "uint256"
        },
        {
          "internalType": "uint256",
          "name": "weight",
          "type": "uint256"
        }
      ],
      "stateMutability": "view",
      "type": "function",
      "constant": true
    },
    {
      "inputs": [
        {
          "internalType": "address",
          "name": "owner",
          "type": "address"
        },
        {
          "internalType": "address",
          "name": "operator",
          "type": "address"
        }
      ],
      "name": "isApprovedForAll",
      "outputs": [
        {
          "internalType": "bool",
          "name": "",
          "type": "bool"
        }
      ],
      "stateMutability": "view",
      "type": "function",
      "constant": true
    },
    {
      "inputs": [
        {
          "internalType": "address",
          "name": "account",
          "type": "address"
        }
      ],
      "name": "isMinter",
      "outputs": [
        {
          "internalType": "bool",
          "name": "",
          "type": "bool"
        }
      ],
      "stateMutability": "view",
      "type": "function",
      "constant": true
    },
    {
      "inputs": [],
      "name": "name",
      "outputs": [
        {
          "internalType": "string",
          "name": "",
          "type": "string"
        }
      ],
      "stateMutability": "view",
      "type": "function",
      "constant": true
    },
    {
      "inputs": [],
      "name": "nftId",
      "outputs": [
        {
          "internalType": "uint256",
          "name": "",
          "type": "uint256"
        }
      ],
      "stateMutability": "view",
      "type": "function",
      "constant": true
    },
    {
      "inputs": [],
      "name": "owner",
      "outputs": [
        {
          "internalType": "address",
          "name": "",
          "type": "address"
        }
      ],
      "stateMutability": "view",
      "type": "function",
      "constant": true
    },
    {
      "inputs": [
        {
          "internalType": "uint256",
          "name": "tokenId",
          "type": "uint256"
        }
      ],
      "name": "ownerOf",
      "outputs": [
        {
          "internalType": "address",
          "name": "",
          "type": "address"
        }
      ],
      "stateMutability": "view",
      "type": "function",
      "constant": true
    },
    {
      "inputs": [
        {
          "internalType": "uint256",
          "name": "",
          "type": "uint256"
        },
        {
          "internalType": "uint256",
          "name": "",
          "type": "uint256"
        }
      ],
      "name": "parentChildrenNFTMap",
      "outputs": [
        {
          "internalType": "uint256",
          "name": "",
          "type": "uint256"
        }
      ],
      "stateMutability": "view",
      "type": "function",
      "constant": true
    },
    {
      "inputs": [],
      "name": "renounceOwnership",
      "outputs": [],
      "stateMutability": "nonpayable",
      "type": "function"
    },
    {
      "inputs": [
        {
          "internalType": "address",
          "name": "from",
          "type": "address"
        },
        {
          "internalType": "address",
          "name": "to",
          "type": "address"
        },
        {
          "internalType": "uint256",
          "name": "tokenId",
          "type": "uint256"
        }
      ],
      "name": "safeTransferFrom",
      "outputs": [],
      "stateMutability": "nonpayable",
      "type": "function"
    },
    {
      "inputs": [
        {
          "internalType": "address",
          "name": "from",
          "type": "address"
        },
        {
          "internalType": "address",
          "name": "to",
          "type": "address"
        },
        {
          "internalType": "uint256",
          "name": "tokenId",
          "type": "uint256"
        },
        {
          "internalType": "bytes",
          "name": "_data",
          "type": "bytes"
        }
      ],
      "name": "safeTransferFrom",
      "outputs": [],
      "stateMutability": "nonpayable",
      "type": "function"
    },
    {
      "inputs": [
        {
          "internalType": "address",
          "name": "operator",
          "type": "address"
        },
        {
          "internalType": "bool",
          "name": "approved",
          "type": "bool"
        }
      ],
      "name": "setApprovalForAll",
      "outputs": [],
      "stateMutability": "nonpayable",
      "type": "function"
    },
    {
      "inputs": [
        {
          "internalType": "bytes4",
          "name": "interfaceId",
          "type": "bytes4"
        }
      ],
      "name": "supportsInterface",
      "outputs": [
        {
          "internalType": "bool",
          "name": "",
          "type": "bool"
        }
      ],
      "stateMutability": "view",
      "type": "function",
      "constant": true
    },
    {
      "inputs": [],
      "name": "symbol",
      "outputs": [
        {
          "internalType": "string",
          "name": "",
          "type": "string"
        }
      ],
      "stateMutability": "view",
      "type": "function",
      "constant": true
    },
    {
      "inputs": [
        {
          "internalType": "uint256",
          "name": "index",
          "type": "uint256"
        }
      ],
      "name": "tokenByIndex",
      "outputs": [
        {
          "internalType": "uint256",
          "name": "",
          "type": "uint256"
        }
      ],
      "stateMutability": "view",
      "type": "function",
      "constant": true
    },
    {
      "inputs": [
        {
          "internalType": "address",
          "name": "owner",
          "type": "address"
        },
        {
          "internalType": "uint256",
          "name": "index",
          "type": "uint256"
        }
      ],
      "name": "tokenOfOwnerByIndex",
      "outputs": [
        {
          "internalType": "uint256",
          "name": "",
          "type": "uint256"
        }
      ],
      "stateMutability": "view",
      "type": "function",
      "constant": true
    },
    {
      "inputs": [
        {
          "internalType": "uint256",
          "name": "tokenId",
          "type": "uint256"
        }
      ],
      "name": "tokenURI",
      "outputs": [
        {
          "internalType": "string",
          "name": "",
          "type": "string"
        }
      ],
      "stateMutability": "view",
      "type": "function",
      "constant": true
    },
    {
      "inputs": [],
      "name": "totalSupply",
      "outputs": [
        {
          "internalType": "uint256",
          "name": "",
          "type": "uint256"
        }
      ],
      "stateMutability": "view",
      "type": "function",
      "constant": true
    },
    {
      "inputs": [
        {
          "internalType": "address",
          "name": "from",
          "type": "address"
        },
        {
          "internalType": "address",
          "name": "to",
          "type": "address"
        },
        {
          "internalType": "uint256",
          "name": "tokenId",
          "type": "uint256"
        }
      ],
      "name": "transferFrom",
      "outputs": [],
      "stateMutability": "nonpayable",
      "type": "function"
    },
    {
      "inputs": [
        {
          "internalType": "address",
          "name": "newOwner",
          "type": "address"
        }
      ],
      "name": "transferOwnership",
      "outputs": [],
      "stateMutability": "nonpayable",
      "type": "function"
    },
    {
      "inputs": [
        {
          "internalType": "uint256",
          "name": "_parentNFTId",
          "type": "uint256"
        },
        {
          "internalType": "address",
          "name": "_pairAddr",
          "type": "address"
        },
        {
          "internalType": "address",
          "name": "bookOwner",
          "type": "address"
        },
        {
          "internalType": "bool",
          "name": "_bBuyQuoteToken",
          "type": "bool"
        },
        {
          "internalType": "uint256",
          "name": "_spotPrice",
          "type": "uint256"
        },
        {
          "internalType": "uint256",
          "name": "_inAmount",
          "type": "uint256"
        },
        {
          "internalType": "uint256",
          "name": "_minOutAmount",
          "type": "uint256"
        }
      ],
      "name": "mint",
      "outputs": [
        {
          "internalType": "uint256",
          "name": "",
          "type": "uint256"
        }
      ],
      "stateMutability": "nonpayable",
      "type": "function"
    },
    {
      "inputs": [
        {
          "internalType": "uint256",
          "name": "_nftId",
          "type": "uint256"
        },
        {
          "internalType": "enum OrderStatus",
          "name": "_status",
          "type": "uint8"
        },
        {
          "internalType": "uint256",
          "name": "_outAmount",
          "type": "uint256"
        }
      ],
      "name": "sealNFT",
      "outputs": [],
      "stateMutability": "nonpayable",
      "type": "function"
    },
    {
      "inputs": [
        {
          "internalType": "uint256",
          "name": "_nftId",
          "type": "uint256"
        }
      ],
      "name": "getOrderInfo",
      "outputs": [
        {
          "components": [
            {
              "internalType": "uint256",
              "name": "id",
              "type": "uint256"
            },
            {
              "internalType": "uint256",
              "name": "parentId",
              "type": "uint256"
            },
            {
              "internalType": "address",
              "name": "owner",
              "type": "address"
            },
            {
              "internalType": "address",
              "name": "pairAddr",
              "type": "address"
            },
            {
              "internalType": "bool",
              "name": "bBuyQuoteToken",
              "type": "bool"
            },
            {
              "internalType": "uint256",
              "name": "spotPrice",
              "type": "uint256"
            },
            {
              "internalType": "uint256",
              "name": "inAmount",
              "type": "uint256"
            },
            {
              "internalType": "uint256",
              "name": "minOutAmount",
              "type": "uint256"
            },
            {
              "internalType": "uint256",
              "name": "outAmount",
              "type": "uint256"
            },
            {
              "internalType": "enum OrderStatus",
              "name": "status",
              "type": "uint8"
            },
            {
              "internalType": "uint256",
              "name": "delegateTime",
              "type": "uint256"
            },
            {
              "internalType": "uint256",
              "name": "dealedTime",
              "type": "uint256"
            },
            {
              "internalType": "uint256",
              "name": "weight",
              "type": "uint256"
            }
          ],
          "internalType": "struct OrderInfo",
          "name": "nftInfo",
          "type": "tuple"
        }
      ],
      "stateMutability": "view",
      "type": "function",
      "constant": true
    },
    {
      "inputs": [
        {
          "internalType": "uint256",
          "name": "_nftId",
          "type": "uint256"
        },
        {
          "internalType": "uint256",
          "name": "_inAmount",
          "type": "uint256"
        },
        {
          "internalType": "uint256",
          "name": "_minOutAmount",
          "type": "uint256"
        }
      ],
      "name": "updateOrderAmount",
      "outputs": [],
      "stateMutability": "nonpayable",
      "type": "function"
    },
    {
      "inputs": [
        {
          "internalType": "uint256",
          "name": "_nftId",
          "type": "uint256"
        }
      ],
      "name": "getWeight",
      "outputs": [
        {
          "internalType": "uint256",
          "name": "weight",
          "type": "uint256"
        }
      ],
      "stateMutability": "view",
      "type": "function",
      "constant": true
    },
    {
      "inputs": [
        {
          "internalType": "uint256",
          "name": "_nftId",
          "type": "uint256"
        }
      ],
      "name": "getOrderDetailNumber",
      "outputs": [
        {
          "internalType": "uint256",
          "name": "",
          "type": "uint256"
        }
      ],
      "stateMutability": "view",
      "type": "function",
      "constant": true
    },
    {
      "inputs": [
        {
          "internalType": "uint256",
          "name": "x",
          "type": "uint256"
        }
      ],
      "name": "sqrt",
      "outputs": [
        {
          "internalType": "uint256",
          "name": "",
          "type": "uint256"
        }
      ],
      "stateMutability": "pure",
      "type": "function",
      "constant": true
    }
  ],
  "bytecode": "0x60806040526000600d553480156200001657600080fd5b506040518060400160405280600e81526020016d109bd89bc813dc99195c8813919560921b815250604051806040016040528060038152602001621093d560ea1b81525060006200006c6200013260201b60201c565b600080546001600160a01b0319166001600160a01b0383169081178255604051929350917f8be0079c531659141344cd1fd0a4f28419497f9722a3daafe3b4186f6b6457e0908290a350620000c86301ffc9a760e01b62000136565b8151620000dd90600990602085019062000191565b508051620000f390600a90602084019062000191565b50620001066380ac58cd60e01b62000136565b62000118635b5e139f60e01b62000136565b6200012a63780e9d6360e01b62000136565b505062000264565b3390565b6001600160e01b031980821614156200016c5760405162461bcd60e51b815260040162000163906200022d565b60405180910390fd5b6001600160e01b0319166000908152600360205260409020805460ff19166001179055565b828054600181600116156101000203166002900490600052602060002090601f016020900481019282601f10620001d457805160ff191683800117855562000204565b8280016001018555821562000204579182015b8281111562000204578251825591602001919060010190620001e7565b506200021292915062000216565b5090565b5b8082111562000212576000815560010162000217565b6020808252601c908201527f4552433136353a20696e76616c696420696e7465726661636520696400000000604082015260600190565b612b9880620002746000396000f3fe608060405234801561001057600080fd5b50600436106102115760003560e01c80636352211e11610125578063a22cb465116100ad578063c87b56dd1161007c578063c87b56dd14610450578063d311636b14610463578063d851fdfd14610483578063e985e9c514610496578063f2fde38b146104a957610211565b8063a22cb4651461040f578063aa271e1a14610422578063b88d4fde14610435578063c6bc51821461044857610211565b8063715018a6116100f4578063715018a6146103d15780637d4053c3146103d95780638da5cb5b146103ec57806395d89b41146103f4578063983b2d56146103fc57610211565b80636352211e14610390578063677342ce146103a35780636c0360eb146103b657806370a08231146103be57610211565b806323b872dd116101a85780633af8b956116101775780633af8b9561461033157806342842e0e146103445780634bba8050146103575780634f6ccce71461036a5780635b7121f81461037d57610211565b806323b872dd146102cc5780632d0ce850146102df5780632f745c59146102f2578063327d07901461030557610211565b8063095ea7b3116101e4578063095ea7b31461028957806318160ddd1461029e5780631d669b03146102a657806323338b88146102b957610211565b806301ffc9a7146102165780630323aac71461023f57806306fdde0314610254578063081812fc14610269575b600080fd5b6102296102243660046120d7565b6104bc565b6040516102369190612346565b60405180910390f35b6102476104df565b6040516102369190612a24565b61025c6104f0565b6040516102369190612351565b61027c61027736600461210f565b610586565b60405161023691906122f5565b61029c6102973660046120ad565b6105d2565b005b61024761066a565b6102476102b43660046121bf565b610676565b6102296102c7366004611f1d565b6106a4565b61029c6102da366004611f6c565b610712565b61029c6102ed3660046121e0565b61074a565b6102476103003660046120ad565b6107b1565b61031861031336600461210f565b6107da565b6040516102369d9c9b9a99989796959493929190612a2d565b61029c61033f366004612196565b61084b565b61029c610352366004611f6c565b61098b565b61024761036536600461210f565b6109a6565b61024761037836600461210f565b6109b8565b61027c61038b36600461210f565b6109ce565b61027c61039e36600461210f565b610a3a565b6102476103b136600461210f565b610a62565b61025c610a94565b6102476103cc366004611f1d565b610af5565b61029c610b3e565b6102476103e7366004612127565b610bbd565b61027c610de5565b61025c610df4565b61022961040a366004611f1d565b610e55565b61029c61041d366004612072565b610ebd565b610229610430366004611f1d565b610f8b565b61029c610443366004611fac565b610f98565b610247610fd7565b61025c61045e36600461210f565b610fdd565b61047661047136600461210f565b611127565b604051610236919061296d565b61024761049136600461210f565b61122d565b6102296104a4366004611f38565b61133b565b61029c6104b7366004611f1d565b611369565b6001600160e01b0319811660009081526003602052604090205460ff165b919050565b60006104eb600161141f565b905090565b60098054604080516020601f600260001961010060018816150201909516949094049384018190048102820181019092528281526060939092909183018282801561057c5780601f106105515761010080835404028352916020019161057c565b820191906000526020600020905b81548152906001019060200180831161055f57829003601f168201915b5050505050905090565b60006105918261142a565b6105b65760405162461bcd60e51b81526004016105ad90612745565b60405180910390fd5b506000908152600760205260409020546001600160a01b031690565b60006105dd82610a3a565b9050806001600160a01b0316836001600160a01b031614156106115760405162461bcd60e51b81526004016105ad9061285e565b806001600160a01b0316610623611437565b6001600160a01b0316148061063f575061063f816104a4611437565b61065b5760405162461bcd60e51b81526004016105ad906125b9565b610665838361143b565b505050565b60006104eb600561141f565b600f602052816000526040600020818154811061068f57fe5b90600052602060002001600091509150505481565b60006106ae611437565b6000546001600160a01b039081169116146106db5760405162461bcd60e51b81526004016105ad90612791565b6001600160a01b0382166107015760405162461bcd60e51b81526004016105ad9061289f565b61070c6001836114a9565b92915050565b61072361071d611437565b826114be565b61073f5760405162461bcd60e51b81526004016105ad906128e5565b610665838383611543565b61075333610f8b565b61076f5760405162461bcd60e51b81526004016105ad906126d9565b6107788361142a565b6107945760405162461bcd60e51b81526004016105ad906124f0565b6000928352600e6020526040909220600581019190915560060155565b6001600160a01b03821660009081526004602052604081206107d39083611651565b9392505050565b600e60205260009081526040902080546001820154600283015460038401546004850154600586015460068701546007880154600889015460098a0154600a8b0154600b909b0154999a98996001600160a01b039889169998881698600160a01b90980460ff90811698931692908d565b61085433610f8b565b6108705760405162461bcd60e51b81526004016105ad906126d9565b6108798361142a565b6108955760405162461bcd60e51b81526004016105ad906124f0565b6000838152600e60205260409020600801805483919060ff191660018360028111156108bd57fe5b02179055506000838152600e6020526040902042600a82015560070181905560028260028111156108ea57fe5b1415610665576000838152600e602052604081206009015461090d90429061165d565b9050600081156109255761092082610a62565b610928565b60015b6000868152600e602052604081206003015491925090600160a01b900460ff166109525783610965565b6000868152600e60205260409020600501545b9050610971818361169f565b6000878152600e60205260409020600b0155505050505050565b61066583838360405180602001604052806000815250610f98565b6000908152600f602052604090205490565b6000806109c66005846116e1565b509392505050565b60006109d8611437565b6000546001600160a01b03908116911614610a055760405162461bcd60e51b81526004016105ad90612791565b6001610a0f6104df565b03821115610a2f5760405162461bcd60e51b81526004016105ad90612616565b61070c600183611651565b600061070c82604051806060016040528060298152602001612b3a60299139600591906116fd565b600060026001830104825b808210156107d3575080600281808681610a8357fe5b040181610a8c57fe5b049150610a6d565b600c8054604080516020601f600260001961010060018816150201909516949094049384018190048102820181019092528281526060939092909183018282801561057c5780601f106105515761010080835404028352916020019161057c565b60006001600160a01b038216610b1d5760405162461bcd60e51b81526004016105ad9061264d565b6001600160a01b038216600090815260046020526040902061070c9061141f565b610b46611437565b6000546001600160a01b03908116911614610b735760405162461bcd60e51b81526004016105ad90612791565b600080546040516001600160a01b03909116907f8be0079c531659141344cd1fd0a4f28419497f9722a3daafe3b4186f6b6457e0908390a3600080546001600160a01b0319169055565b6000610bc833610f8b565b610be45760405162461bcd60e51b81526004016105ad906126d9565b600d805460010190819055610bfa90339061170a565b604051806101a00160405280600d548152602001898152602001876001600160a01b03168152602001886001600160a01b0316815260200186151581526020018581526020018481526020018381526020016000815260200160006002811115610c6057fe5b815242602080830191909152600060408084018290526060938401829052600d548252600e835290819020845181559184015160018084019190915590840151600280840180546001600160a01b039384166001600160a01b0319918216179091559486015160038501805460808901511515600160a01b0260ff60a01b1993909516971696909617169190911790935560a0840151600483015560c0840151600583015560e08401516006830155610100840151600783015561012084015160088301805493949193909260ff19909116918490811115610d3e57fe5b02179055506101408201516009820155610160820151600a82015561018090910151600b909101558715610d93576000888152600f602090815260408220600d54815460018101835591845291909220909101555b336001600160a01b03167f0f6798a560793a54c3bcfe86a93cde1e73087d944c0ea20544137d4121396885600d54604051610dce9190612a24565b60405180910390a250600d54979650505050505050565b6000546001600160a01b031690565b600a8054604080516020601f600260001961010060018816150201909516949094049384018190048102820181019092528281526060939092909183018282801561057c5780601f106105515761010080835404028352916020019161057c565b6000610e5f611437565b6000546001600160a01b03908116911614610e8c5760405162461bcd60e51b81526004016105ad90612791565b6001600160a01b038216610eb25760405162461bcd60e51b81526004016105ad90612573565b61070c600183611728565b610ec5611437565b6001600160a01b0316826001600160a01b03161415610ef65760405162461bcd60e51b81526004016105ad906124b9565b8060086000610f03611437565b6001600160a01b03908116825260208083019390935260409182016000908120918716808252919093529120805460ff191692151592909217909155610f47611437565b6001600160a01b03167f17307eab39ab6107e8899845ad3d59bd9653f200f220920489ca2b5937696c3183604051610f7f9190612346565b60405180910390a35050565b600061070c60018361173d565b610fa9610fa3611437565b836114be565b610fc55760405162461bcd60e51b81526004016105ad906128e5565b610fd184848484611752565b50505050565b600d5481565b6060610fe88261142a565b6110045760405162461bcd60e51b81526004016105ad9061280f565b6000828152600b602090815260409182902080548351601f60026000196101006001861615020190931692909204918201849004840281018401909452808452606093928301828280156110995780601f1061106e57610100808354040283529160200191611099565b820191906000526020600020905b81548152906001019060200180831161107c57829003601f168201915b5050600c54939450505050600260001961010060018416150201909116046110c25790506104da565b8051156110f457600c816040516020016110dd929190612274565b6040516020818303038152906040529150506104da565b600c6110ff84611785565b604051602001611110929190612274565b604051602081830303815290604052915050919050565b61112f611e7f565b6111388261142a565b6111545760405162461bcd60e51b81526004016105ad906124f0565b6000828152600e602090815260409182902082516101a081018452815481526001820154928101929092526002808201546001600160a01b03908116948401949094526003820154938416606084015260ff600160a01b909404841615156080840152600482015460a0840152600582015460c0840152600682015460e0840152600782015461010084015260088201549293919261012085019216908111156111fa57fe5b600281111561120557fe5b815260098201546020820152600a8201546040820152600b9091015460609091015292915050565b60006112388261142a565b6112545760405162461bcd60e51b81526004016105ad906124f0565b61125c611e7f565b6000838152600e602090815260409182902082516101a081018452815481526001820154928101929092526002808201546001600160a01b03908116948401949094526003820154938416606084015260ff600160a01b909404841615156080840152600482015460a0840152600582015460c0840152600682015460e08401526007820154610100840152600882015492939192610120850192169081111561130257fe5b600281111561130d57fe5b815260098201546020820152600a8201546040820152600b9091015460609091015261018001519392505050565b6001600160a01b03918216600090815260086020908152604080832093909416825291909152205460ff1690565b611371611437565b6000546001600160a01b0390811691161461139e5760405162461bcd60e51b81526004016105ad90612791565b6001600160a01b0381166113c45760405162461bcd60e51b81526004016105ad906123f8565b600080546040516001600160a01b03808516939216917f8be0079c531659141344cd1fd0a4f28419497f9722a3daafe3b4186f6b6457e091a3600080546001600160a01b0319166001600160a01b0392909216919091179055565b600061070c82611860565b600061070c600583611864565b3390565b600081815260076020526040902080546001600160a01b0319166001600160a01b038416908117909155819061147082610a3a565b6001600160a01b03167f8c5be1e5ebec7d5bd14f71427d1e84f3dd0314c0f7b2291e5b200ac8c7c3b92560405160405180910390a45050565b60006107d3836001600160a01b038416611870565b60006114c98261142a565b6114e55760405162461bcd60e51b81526004016105ad90612527565b60006114f083610a3a565b9050806001600160a01b0316846001600160a01b0316148061152b5750836001600160a01b031661152084610586565b6001600160a01b0316145b8061153b575061153b818561133b565b949350505050565b826001600160a01b031661155682610a3a565b6001600160a01b03161461157c5760405162461bcd60e51b81526004016105ad906127c6565b6001600160a01b0382166115a25760405162461bcd60e51b81526004016105ad90612475565b6115ad838383610665565b6115b860008261143b565b6001600160a01b03831660009081526004602052604090206115da9082611936565b506001600160a01b03821660009081526004602052604090206115fd9082611942565b5061160a6005828461194e565b5080826001600160a01b0316846001600160a01b03167fddf252ad1be2c89b69c2b068fc378daa952ba7f163c4a11628f55a4df523b3ef60405160405180910390a4505050565b60006107d38383611964565b60006107d383836040518060400160405280601e81526020017f536166654d6174683a207375627472616374696f6e206f766572666c6f7700008152506119a9565b60006107d383836040518060400160405280601a81526020017f536166654d6174683a206469766973696f6e206279207a65726f0000000000008152506119d5565b60008080806116f08686611a0c565b9097909650945050505050565b600061153b848484611a68565b611724828260405180602001604052806000815250611ac7565b5050565b60006107d3836001600160a01b038416611afa565b60006107d3836001600160a01b038416611b44565b61175d848484611543565b61176984848484611b5c565b610fd15760405162461bcd60e51b81526004016105ad906123a6565b6060816117aa57506040805180820190915260018152600360fc1b60208201526104da565b8160005b81156117c257600101600a820491506117ae565b60608167ffffffffffffffff811180156117db57600080fd5b506040519080825280601f01601f191660200182016040528015611806576020820181803683370190505b50859350905060001982015b831561185757600a840660300160f81b8282806001900393508151811061183557fe5b60200101906001600160f81b031916908160001a905350600a84049350611812565b50949350505050565b5490565b60006107d38383611b44565b6000818152600183016020526040812054801561192c57835460001980830191908101906000908790839081106118a357fe5b90600052602060002001549050808760000184815481106118c057fe5b6000918252602080832090910192909255828152600189810190925260409020908401905586548790806118f057fe5b6001900381819060005260206000200160009055905586600101600087815260200190815260200160002060009055600194505050505061070c565b600091505061070c565b60006107d38383611870565b60006107d38383611afa565b600061153b84846001600160a01b038516611c3b565b815460009082106119875760405162461bcd60e51b81526004016105ad90612364565b82600001828154811061199657fe5b9060005260206000200154905092915050565b600081848411156119cd5760405162461bcd60e51b81526004016105ad9190612351565b505050900390565b600081836119f65760405162461bcd60e51b81526004016105ad9190612351565b506000838581611a0257fe5b0495945050505050565b815460009081908310611a315760405162461bcd60e51b81526004016105ad90612697565b6000846000018481548110611a4257fe5b906000526020600020906002020190508060000154816001015492509250509250929050565b60008281526001840160205260408120548281611a985760405162461bcd60e51b81526004016105ad9190612351565b50846000016001820381548110611aab57fe5b9060005260206000209060020201600101549150509392505050565b611ad18383611cd2565b611ade6000848484611b5c565b6106655760405162461bcd60e51b81526004016105ad906123a6565b6000611b068383611b44565b611b3c5750815460018181018455600084815260208082209093018490558454848252828601909352604090209190915561070c565b50600061070c565b60009081526001919091016020526040902054151590565b6000611b70846001600160a01b0316611d96565b611b7c5750600161153b565b6060611c04630a85bd0160e11b611b91611437565b888787604051602401611ba79493929190612309565b604051602081830303815290604052906001600160e01b0319166020820180516001600160e01b038381831617835250505050604051806060016040528060328152602001612b08603291396001600160a01b0388169190611d9c565b9050600081806020019051810190611c1c91906120f3565b6001600160e01b031916630a85bd0160e11b1492505050949350505050565b600082815260018401602052604081205480611ca05750506040805180820182528381526020808201848152865460018181018955600089815284812095516002909302909501918255915190820155865486845281880190925292909120556107d3565b82856000016001830381548110611cb357fe5b90600052602060002090600202016001018190555060009150506107d3565b6001600160a01b038216611cf85760405162461bcd60e51b81526004016105ad90612710565b611d018161142a565b15611d1e5760405162461bcd60e51b81526004016105ad9061243e565b611d2a60008383610665565b6001600160a01b0382166000908152600460205260409020611d4c9082611942565b50611d596005828461194e565b5060405181906001600160a01b038416906000907fddf252ad1be2c89b69c2b068fc378daa952ba7f163c4a11628f55a4df523b3ef908290a45050565b3b151590565b606061153b848460008585611db085611d96565b611dcc5760405162461bcd60e51b81526004016105ad90612936565b60006060866001600160a01b03168587604051611de99190612258565b60006040518083038185875af1925050503d8060008114611e26576040519150601f19603f3d011682016040523d82523d6000602084013e611e2b565b606091505b5091509150611e3b828286611e46565b979650505050505050565b60608315611e555750816107d3565b825115611e655782518084602001fd5b8160405162461bcd60e51b81526004016105ad9190612351565b604051806101a00160405280600081526020016000815260200160006001600160a01b0316815260200160006001600160a01b031681526020016000151581526020016000815260200160008152602001600081526020016000815260200160006002811115611eeb57fe5b81526020016000815260200160008152602001600081525090565b80356001600160a01b038116811461070c57600080fd5b600060208284031215611f2e578081fd5b6107d38383611f06565b60008060408385031215611f4a578081fd5b611f548484611f06565b9150611f638460208501611f06565b90509250929050565b600080600060608486031215611f80578081fd5b8335611f8b81612ad9565b92506020840135611f9b81612ad9565b929592945050506040919091013590565b60008060008060808587031215611fc1578081fd5b611fcb8686611f06565b93506020611fdb87828801611f06565b935060408601359250606086013567ffffffffffffffff80821115611ffe578384fd5b818801915088601f830112612011578384fd5b81358181111561201f578485fd5b604051601f8201601f191681018501838111828210171561203e578687fd5b60405281815283820185018b1015612054578586fd5b81858501868301379081019093019390935250939692955090935050565b60008060408385031215612084578182fd5b61208e8484611f06565b9150602083013580151581146120a2578182fd5b809150509250929050565b600080604083850312156120bf578182fd5b6120c98484611f06565b946020939093013593505050565b6000602082840312156120e8578081fd5b81356107d381612af1565b600060208284031215612104578081fd5b81516107d381612af1565b600060208284031215612120578081fd5b5035919050565b600080600080600080600060e0888a031215612141578283fd5b873596506121528960208a01611f06565b95506121618960408a01611f06565b945060608801358015158114612175578384fd5b9699959850939660808101359560a0820135955060c0909101359350915050565b6000806000606084860312156121aa578283fd5b83359250602084013560038110611f9b578283fd5b600080604083850312156121d1578182fd5b50508035926020909101359150565b6000806000606084860312156121f4578283fd5b505081359360208301359350604090920135919050565b6001600160a01b03169052565b15159052565b60008151808452612236816020860160208601612aad565b601f01601f19169290920160200192915050565b6003811061225457fe5b9052565b6000825161226a818460208701612aad565b9190910192915050565b600080845460018082166000811461229357600181146122aa576122d9565b60ff198316865260028304607f16860193506122d9565b600283048886526020808720875b838110156122d15781548a8201529085019082016122b8565b505050860193505b50505083516122ec818360208801612aad565b01949350505050565b6001600160a01b0391909116815260200190565b6001600160a01b038581168252841660208201526040810183905260806060820181905260009061233c9083018461221e565b9695505050505050565b901515815260200190565b6000602082526107d3602083018461221e565b60208082526022908201527f456e756d657261626c655365743a20696e646578206f7574206f6620626f756e604082015261647360f01b606082015260800190565b60208082526032908201527f4552433732313a207472616e7366657220746f206e6f6e20455243373231526560408201527131b2b4bb32b91034b6b83632b6b2b73a32b960711b606082015260800190565b60208082526026908201527f4f776e61626c653a206e6577206f776e657220697320746865207a65726f206160408201526564647265737360d01b606082015260800190565b6020808252601c908201527f4552433732313a20746f6b656e20616c7265616479206d696e74656400000000604082015260600190565b60208082526024908201527f4552433732313a207472616e7366657220746f20746865207a65726f206164646040820152637265737360e01b606082015260800190565b60208082526019908201527f4552433732313a20617070726f766520746f2063616c6c657200000000000000604082015260600190565b6020808252601b908201527f4f726465724e46543a206e6674206973206e6f742065786973742e0000000000604082015260600190565b6020808252602c908201527f4552433732313a206f70657261746f7220717565727920666f72206e6f6e657860408201526b34b9ba32b73a103a37b5b2b760a11b606082015260800190565b60208082526026908201527f546f6d4361743a205f6164644d696e74657220697320746865207a65726f206160408201526564647265737360d01b606082015260800190565b60208082526038908201527f4552433732313a20617070726f76652063616c6c6572206973206e6f74206f7760408201527f6e6572206e6f7220617070726f76656420666f7220616c6c0000000000000000606082015260800190565b6020808252601b908201527f546f6d4361743a20696e646578206f7574206f6620626f756e64730000000000604082015260600190565b6020808252602a908201527f4552433732313a2062616c616e636520717565727920666f7220746865207a65604082015269726f206164647265737360b01b606082015260800190565b60208082526022908201527f456e756d657261626c654d61703a20696e646578206f7574206f6620626f756e604082015261647360f01b606082015260800190565b60208082526018908201527f63616c6c6572206973206e6f7420746865206d696e7465720000000000000000604082015260600190565b6020808252818101527f4552433732313a206d696e7420746f20746865207a65726f2061646472657373604082015260600190565b6020808252602c908201527f4552433732313a20617070726f76656420717565727920666f72206e6f6e657860408201526b34b9ba32b73a103a37b5b2b760a11b606082015260800190565b6020808252818101527f4f776e61626c653a2063616c6c6572206973206e6f7420746865206f776e6572604082015260600190565b60208082526029908201527f4552433732313a207472616e73666572206f6620746f6b656e2074686174206960408201526839903737ba1037bbb760b91b606082015260800190565b6020808252602f908201527f4552433732314d657461646174613a2055524920717565727920666f72206e6f60408201526e3732bc34b9ba32b73a103a37b5b2b760891b606082015260800190565b60208082526021908201527f4552433732313a20617070726f76616c20746f2063757272656e74206f776e656040820152603960f91b606082015260800190565b60208082526026908201527f546f6d4361743a205f64656c4d696e74657220697320746865207a65726f206160408201526564647265737360d01b606082015260800190565b60208082526031908201527f4552433732313a207472616e736665722063616c6c6572206973206e6f74206f6040820152701ddb995c881b9bdc88185c1c1c9bdd9959607a1b606082015260800190565b6020808252601d908201527f416464726573733a2063616c6c20746f206e6f6e2d636f6e7472616374000000604082015260600190565b60006101a08201905082518252602083015160208301526040830151612996604084018261220b565b5060608301516129a9606084018261220b565b5060808301516129bc6080840182612218565b5060a083015160a083015260c083015160c083015260e083015160e0830152610100808401518184015250610120808401516129fa8285018261224a565b50506101408381015190830152610160808401519083015261018092830151929091019190915290565b90815260200190565b8d8152602081018d90526001600160a01b038c811660408301528b166060820152891515608082015260a0810189905260c0810188905260e0810187905261010081018690526101a08101612a8661012083018761224a565b8461014083015283610160830152826101808301529e9d5050505050505050505050505050565b60005b83811015612ac8578181015183820152602001612ab0565b83811115610fd15750506000910152565b6001600160a01b0381168114612aee57600080fd5b50565b6001600160e01b031981168114612aee57600080fdfe4552433732313a207472616e7366657220746f206e6f6e20455243373231526563656976657220696d706c656d656e7465724552433732313a206f776e657220717565727920666f72206e6f6e6578697374656e7420746f6b656ea2646970667358221220e79e45cd87b0448935c9e0be5a1319aa04d90778301844b64ea97cf41e6a101864736f6c634300060c0033",
  "immutableReferences": {},
  "source": "// SPDX-License-Identifier: MIT\npragma solidity ^0.6.0;\npragma experimental ABIEncoderV2;\n\nimport \"../common/Minter.sol\";\n\n\n// enum OrderStatus { Hanging, ManualCanceled, Dealed }\n// enum SwapPool {No, Mdex, Pancake, OneInch, Uniswap, SushiSwap, Dodo, QuickSwap}\n\n// struct OrderInfo {\n//     uint256 id;\n//     uint256 parentId;\n//     address owner;\n//     address pairAddr;       // the address of pair\n//     bool bBuyQuoteToken;    // true: buy quoteToken, false: sale quoteToken\n//     uint256 spotPrice;      // spot price of quoteToken\n//     uint256 inAmount;       // if bBuyQuoteToken is true, inAmount is the amount of base token, otherwise quote token\n//     uint256 minOutAmount;   // if bBuyQuoteToken is true, minOutAmount is the amount of quote token, otherwise base token\n//     uint256 outAmount;      // out amount in the end of the swap\n//     OrderStatus  status;\n//     uint256 delegateTime;   // \n//     uint256 dealedTime;     //\n//     uint256 weight;\n// }\n\ncontract OrderNFT is Minter, ERC721 {\n    using EnumerableSet for EnumerableSet.UintSet;\n    using SafeMath for uint256;\n    \n    \n    uint256 public nftId = 0;\n    mapping(uint256 => OrderInfo) public id2NFTInfoMap;\n    mapping(uint256 => uint256[]) public parentChildrenNFTMap;\n        \n    event Mint(address indexed _to, uint256 _tokenId);\n    \n    constructor() ERC721(\"Bobo Order NFT\", \"BOT\")  public {\n    }        \n    \n    function mint(uint256 _parentNFTId, address _pairAddr, address bookOwner, bool _bBuyQuoteToken, \n                  uint256 _spotPrice, uint256 _inAmount, uint256 _minOutAmount) public onlyMinter returns (uint256) {\n        nftId++;\n        \n        _safeMint(msg.sender, nftId);   // msg.sender is contract address of book pool, so the new NFT is belong to book pool at first, NOT bookOwner\n        \n        id2NFTInfoMap[nftId] = OrderInfo(nftId, _parentNFTId, bookOwner, _pairAddr, _bBuyQuoteToken, _spotPrice, \n                                       _inAmount, _minOutAmount, 0, OrderStatus.Hanging, now, 0, 0);\n        if (_parentNFTId > 0)\n            parentChildrenNFTMap[_parentNFTId].push(nftId);    \n            \n        emit Mint(msg.sender, nftId);\n        return nftId;\n    }\n    \n    function sealNFT(uint256 _nftId, OrderStatus _status, uint256 _outAmount) public onlyMinter {\n        require( _exists(_nftId), \"OrderNFT: nft is not exist.\");\n        id2NFTInfoMap[_nftId].status = _status;\n        id2NFTInfoMap[_nftId].dealedTime = now;\n        id2NFTInfoMap[_nftId].outAmount = _outAmount;\n        if (_status == OrderStatus.Dealed) {\n            uint256 spanTime = now.sub(id2NFTInfoMap[_nftId].delegateTime);\n            uint256 spanTimeFactor = spanTime == 0 ? 1 : sqrt(spanTime);\n            uint256 dealedAmountU = id2NFTInfoMap[_nftId].bBuyQuoteToken ? id2NFTInfoMap[_nftId].inAmount : _outAmount;\n            id2NFTInfoMap[_nftId].weight =  dealedAmountU.div(spanTimeFactor);\n        }\n    }\n    \n    function _beforeTokenTransfer(address from, address to, uint256 tokenId) internal virtual override {\n    }\n\n    function getOrderInfo(uint256 _nftId) view public returns(OrderInfo memory nftInfo) {\n        require( _exists(_nftId), \"OrderNFT: nft is not exist.\");\n        return id2NFTInfoMap[_nftId];\n    }\n\n    function updateOrderAmount(uint256 _nftId, uint256 _inAmount, uint256 _minOutAmount) public onlyMinter {\n        require( _exists(_nftId), \"OrderNFT: nft is not exist.\");\n        id2NFTInfoMap[_nftId].inAmount = _inAmount;\n        id2NFTInfoMap[_nftId].minOutAmount = _minOutAmount;\n    }\n\n    function getWeight(uint256 _nftId) view public returns(uint256 weight) {\n        require( _exists(_nftId), \"OrderNFT: nft is not exist.\");\n        OrderInfo memory nftInfo = id2NFTInfoMap[_nftId];\n        return nftInfo.weight;\n    }\n\n    function getOrderDetailNumber(uint256 _nftId) view public returns(uint256) {\n        return parentChildrenNFTMap[_nftId].length;\n    }\n\n    function sqrt(uint256 x) public pure returns(uint256) {\n        uint z = (x + 1 ) / 2;\n        uint y = x;\n        while(z < y){\n            y = z;\n            z = ( x / z + z ) / 2;\n        }\n        return y;\n    }\n}",
  "sourcePath": "/Users/mryu/blockchain/bobo-metaverse/boboswap-contract/contracts/common/OrderNFT.sol",
  "compiler": {
    "name": "solc",
    "version": "0.6.12+commit.27d51765.Emscripten.clang"
  },
  "schemaVersion": "3.4.3",
  "updatedAt": "2021-10-22T07:48:09.749Z",
  "networkType": "ethereum",
  "devdoc": {
    "kind": "dev",
    "methods": {
      "approve(address,uint256)": {
        "details": "See {IERC721-approve}."
      },
      "balanceOf(address)": {
        "details": "See {IERC721-balanceOf}."
      },
      "baseURI()": {
        "details": "Returns the base URI set via {_setBaseURI}. This will be automatically added as a prefix in {tokenURI} to each token's URI, or to the token ID if no specific URI is set for that token ID."
      },
      "getApproved(uint256)": {
        "details": "See {IERC721-getApproved}."
      },
      "isApprovedForAll(address,address)": {
        "details": "See {IERC721-isApprovedForAll}."
      },
      "name()": {
        "details": "See {IERC721Metadata-name}."
      },
      "owner()": {
        "details": "Returns the address of the current owner."
      },
      "ownerOf(uint256)": {
        "details": "See {IERC721-ownerOf}."
      },
      "renounceOwnership()": {
        "details": "Leaves the contract without owner. It will not be possible to call `onlyOwner` functions anymore. Can only be called by the current owner. NOTE: Renouncing ownership will leave the contract without an owner, thereby removing any functionality that is only available to the owner."
      },
      "safeTransferFrom(address,address,uint256)": {
        "details": "See {IERC721-safeTransferFrom}."
      },
      "safeTransferFrom(address,address,uint256,bytes)": {
        "details": "See {IERC721-safeTransferFrom}."
      },
      "setApprovalForAll(address,bool)": {
        "details": "See {IERC721-setApprovalForAll}."
      },
      "supportsInterface(bytes4)": {
        "details": "See {IERC165-supportsInterface}. Time complexity O(1), guaranteed to always use less than 30 000 gas."
      },
      "symbol()": {
        "details": "See {IERC721Metadata-symbol}."
      },
      "tokenByIndex(uint256)": {
        "details": "See {IERC721Enumerable-tokenByIndex}."
      },
      "tokenOfOwnerByIndex(address,uint256)": {
        "details": "See {IERC721Enumerable-tokenOfOwnerByIndex}."
      },
      "tokenURI(uint256)": {
        "details": "See {IERC721Metadata-tokenURI}."
      },
      "totalSupply()": {
        "details": "See {IERC721Enumerable-totalSupply}."
      },
      "transferFrom(address,address,uint256)": {
        "details": "See {IERC721-transferFrom}."
      },
      "transferOwnership(address)": {
        "details": "Transfers ownership of the contract to a new account (`newOwner`). Can only be called by the current owner."
      }
    },
    "version": 1
  },
  "userdoc": {
    "kind": "user",
    "methods": {},
    "version": 1
  }
}