{
  "contractName": "OrderStore",
  "abi": [
    {
      "inputs": [],
      "stateMutability": "nonpayable",
      "type": "constructor"
    },
    {
      "inputs": [],
      "name": "orderNFT",
      "outputs": [
        {
          "internalType": "contract IOrderNFT",
          "name": "",
          "type": "address"
        }
      ],
      "stateMutability": "view",
      "type": "function"
    },
    {
      "inputs": [
        {
          "internalType": "enum OrderStatus",
          "name": "",
          "type": "uint8"
        },
        {
          "internalType": "uint256",
          "name": "",
          "type": "uint256"
        }
      ],
      "name": "sealedOrdersMap",
      "outputs": [
        {
          "internalType": "uint256",
          "name": "",
          "type": "uint256"
        }
      ],
      "stateMutability": "view",
      "type": "function"
    },
    {
      "inputs": [
        {
          "internalType": "address",
          "name": "",
          "type": "address"
        },
        {
          "internalType": "uint256",
          "name": "",
          "type": "uint256"
        }
      ],
      "name": "userDealedOrdersMap",
      "outputs": [
        {
          "internalType": "uint256",
          "name": "",
          "type": "uint256"
        }
      ],
      "stateMutability": "view",
      "type": "function"
    },
    {
      "inputs": [
        {
          "internalType": "address",
          "name": "",
          "type": "address"
        },
        {
          "internalType": "uint256",
          "name": "",
          "type": "uint256"
        }
      ],
      "name": "userOrdersMap",
      "outputs": [
        {
          "internalType": "uint256",
          "name": "",
          "type": "uint256"
        }
      ],
      "stateMutability": "view",
      "type": "function"
    },
    {
      "inputs": [
        {
          "internalType": "uint256",
          "name": "_nftId",
          "type": "uint256"
        }
      ],
      "name": "getValue",
      "outputs": [
        {
          "internalType": "uint256",
          "name": "",
          "type": "uint256"
        }
      ],
      "stateMutability": "view",
      "type": "function"
    },
    {
      "inputs": [
        {
          "internalType": "bool",
          "name": "_bBuy",
          "type": "bool"
        }
      ],
      "name": "getTotalOrderNumber",
      "outputs": [
        {
          "internalType": "uint256",
          "name": "",
          "type": "uint256"
        }
      ],
      "stateMutability": "view",
      "type": "function"
    },
    {
      "inputs": [
        {
          "internalType": "bool",
          "name": "_bBuy",
          "type": "bool"
        },
        {
          "internalType": "uint256",
          "name": "_fromIndex",
          "type": "uint256"
        },
        {
          "internalType": "uint256",
          "name": "_toIndex",
          "type": "uint256"
        }
      ],
      "name": "getOrderInfos",
      "outputs": [
        {
          "components": [
            {
              "internalType": "uint256",
              "name": "id",
              "type": "uint256"
            },
            {
              "internalType": "address",
              "name": "owner",
              "type": "address"
            },
            {
              "internalType": "address",
              "name": "pairAddr",
              "type": "address"
            },
            {
              "internalType": "bool",
              "name": "bBuyQuoteToken",
              "type": "bool"
            },
            {
              "internalType": "uint256",
              "name": "spotPrice",
              "type": "uint256"
            },
            {
              "internalType": "uint256",
              "name": "inAmount",
              "type": "uint256"
            },
            {
              "internalType": "uint256",
              "name": "minOutAmount",
              "type": "uint256"
            },
            {
              "internalType": "uint256",
              "name": "outAmount",
              "type": "uint256"
            },
            {
              "internalType": "enum OrderStatus",
              "name": "status",
              "type": "uint8"
            },
            {
              "internalType": "string",
              "name": "comment",
              "type": "string"
            },
            {
              "internalType": "uint256",
              "name": "delegateTime",
              "type": "uint256"
            },
            {
              "internalType": "uint256",
              "name": "dealedTime",
              "type": "uint256"
            },
            {
              "internalType": "uint256",
              "name": "weight",
              "type": "uint256"
            }
          ],
          "internalType": "struct NFTInfo[]",
          "name": "orderInfos",
          "type": "tuple[]"
        }
      ],
      "stateMutability": "view",
      "type": "function"
    },
    {
      "inputs": [
        {
          "internalType": "uint256",
          "name": "_orderId",
          "type": "uint256"
        }
      ],
      "name": "getOrderDetailNumber",
      "outputs": [
        {
          "internalType": "uint256",
          "name": "",
          "type": "uint256"
        }
      ],
      "stateMutability": "view",
      "type": "function"
    },
    {
      "inputs": [
        {
          "internalType": "address",
          "name": "_userAddr",
          "type": "address"
        }
      ],
      "name": "getUserDealedOrderNumber",
      "outputs": [
        {
          "internalType": "uint256",
          "name": "",
          "type": "uint256"
        }
      ],
      "stateMutability": "view",
      "type": "function"
    },
    {
      "inputs": [
        {
          "internalType": "address",
          "name": "_userAddr",
          "type": "address"
        }
      ],
      "name": "getUserOrderNumber",
      "outputs": [
        {
          "internalType": "uint256",
          "name": "",
          "type": "uint256"
        }
      ],
      "stateMutability": "view",
      "type": "function"
    },
    {
      "inputs": [
        {
          "internalType": "address",
          "name": "_userAddr",
          "type": "address"
        }
      ],
      "name": "getUserHangingOrderNumber",
      "outputs": [
        {
          "internalType": "uint256",
          "name": "",
          "type": "uint256"
        }
      ],
      "stateMutability": "view",
      "type": "function"
    },
    {
      "inputs": [
        {
          "internalType": "address",
          "name": "_userAddr",
          "type": "address"
        },
        {
          "internalType": "uint256",
          "name": "_index",
          "type": "uint256"
        }
      ],
      "name": "getUserHangingOrderId",
      "outputs": [
        {
          "internalType": "uint256",
          "name": "",
          "type": "uint256"
        }
      ],
      "stateMutability": "view",
      "type": "function"
    },
    {
      "inputs": [
        {
          "internalType": "address",
          "name": "_userAddr",
          "type": "address"
        },
        {
          "internalType": "uint256",
          "name": "_fromIndex",
          "type": "uint256"
        },
        {
          "internalType": "uint256",
          "name": "_toIndex",
          "type": "uint256"
        }
      ],
      "name": "getUserHangingOrderInfos",
      "outputs": [
        {
          "components": [
            {
              "internalType": "uint256",
              "name": "id",
              "type": "uint256"
            },
            {
              "internalType": "address",
              "name": "owner",
              "type": "address"
            },
            {
              "internalType": "address",
              "name": "pairAddr",
              "type": "address"
            },
            {
              "internalType": "bool",
              "name": "bBuyQuoteToken",
              "type": "bool"
            },
            {
              "internalType": "uint256",
              "name": "spotPrice",
              "type": "uint256"
            },
            {
              "internalType": "uint256",
              "name": "inAmount",
              "type": "uint256"
            },
            {
              "internalType": "uint256",
              "name": "minOutAmount",
              "type": "uint256"
            },
            {
              "internalType": "uint256",
              "name": "outAmount",
              "type": "uint256"
            },
            {
              "internalType": "enum OrderStatus",
              "name": "status",
              "type": "uint8"
            },
            {
              "internalType": "string",
              "name": "comment",
              "type": "string"
            },
            {
              "internalType": "uint256",
              "name": "delegateTime",
              "type": "uint256"
            },
            {
              "internalType": "uint256",
              "name": "dealedTime",
              "type": "uint256"
            },
            {
              "internalType": "uint256",
              "name": "weight",
              "type": "uint256"
            }
          ],
          "internalType": "struct NFTInfo[]",
          "name": "orderInfos",
          "type": "tuple[]"
        }
      ],
      "stateMutability": "view",
      "type": "function"
    },
    {
      "inputs": [
        {
          "internalType": "enum OrderStatus",
          "name": "_orderStatus",
          "type": "uint8"
        }
      ],
      "name": "getOrderNumber",
      "outputs": [
        {
          "internalType": "uint256",
          "name": "",
          "type": "uint256"
        }
      ],
      "stateMutability": "view",
      "type": "function"
    },
    {
      "inputs": [
        {
          "internalType": "address",
          "name": "",
          "type": "address"
        },
        {
          "internalType": "address",
          "name": "",
          "type": "address"
        },
        {
          "internalType": "uint256",
          "name": "",
          "type": "uint256"
        },
        {
          "internalType": "bytes",
          "name": "",
          "type": "bytes"
        }
      ],
      "name": "onERC721Received",
      "outputs": [
        {
          "internalType": "bytes4",
          "name": "",
          "type": "bytes4"
        }
      ],
      "stateMutability": "nonpayable",
      "type": "function"
    }
  ],
  "bytecode": "0x608060405234801561001057600080fd5b50611058806100206000396000f3fe608060405234801561001057600080fd5b50600436106100f55760003560e01c806359fc722311610097578063b35ac8b211610066578063b35ac8b2146101fb578063c63888451461020e578063cd5a877814610221578063d4d728da14610234576100f5565b806359fc7223146101a25780635f0a1feb146101c25780638862f285146101d5578063952c70fb146101e8576100f5565b80632d611131116100d35780632d611131146101565780633c72814d146101695780634b92031d1461017c5780634bba80501461018f576100f5565b80630ff4c916146100fa578063150b7a02146101235780631b11481714610143575b600080fd5b61010d610108366004610d32565b610249565b60405161011a9190610f6b565b60405180910390f35b610136610131366004610aac565b6102f1565b60405161011a9190610ebe565b61010d610151366004610b4e565b610301565b61010d610164366004610a89565b61032f565b61010d610177366004610be8565b61034a565b61010d61018a366004610b4e565b61037e565b61010d61019d366004610d32565b6103a9565b6101b56101b0366004610bc9565b61042a565b60405161011a9190610daf565b6101b56101d0366004610b79565b610622565b61010d6101e3366004610b4e565b6107b3565b61010d6101f6366004610c04565b6107cc565b61010d610209366004610bad565b6107e5565b61010d61021c366004610a89565b6107ff565b61010d61022f366004610a89565b61081a565b61023c61083b565b60405161011a9190610ed3565b600081610258575060006102ec565b61026061098f565b60005460405163d311636b60e01b81526001600160a01b039091169063d311636b90610290908690600401610f6b565b60006040518083038186803b1580156102a857600080fd5b505afa1580156102bc573d6000803e3d6000fd5b505050506040513d6000823e601f3d908101601f191682016040526102e49190810190610c21565b608001519150505b919050565b630a85bd0160e11b949350505050565b6002602052816000526040600020818154811061031a57fe5b90600052602060002001600091509150505481565b6001600160a01b031660009081526002602052604090205490565b60006005600083600381111561035c57fe5b600381111561036757fe5b815260208101919091526040016000205492915050565b6001600160a01b03821660009081526003602052604081206103a0908361084a565b90505b92915050565b600080546040516304bba80560e41b81526001600160a01b0390911690634bba8050906103da908590600401610f6b565b60206040518083038186803b1580156103f257600080fd5b505afa158015610406573d6000803e3d6000fd5b505050506040513d601f19601f820116820180604052508101906103a39190610d4a565b82151560009081526004602052604081206060919061044890610856565b905080831115610456578092505b82841061047e5760405162461bcd60e51b815260040161047590610f29565b60405180910390fd5b83830367ffffffffffffffff8111801561049757600080fd5b506040519080825280602002602001820160405280156104d157816020015b6104be61098f565b8152602001906001900390816104b65790505b50851515600090815260046020526040812091935090819081906104f5908261085a565b915091505b85831080156105065750815b15610617578683101561053e57871515600090815260046020526040902061052e908261085a565b60019094019390925090506104fa565b61054661098f565b60005460405163d311636b60e01b81526001600160a01b039091169063d311636b90610576908590600401610f6b565b60006040518083038186803b15801561058e57600080fd5b505afa1580156105a2573d6000803e3d6000fd5b505050506040513d6000823e601f3d908101601f191682016040526105ca9190810190610c21565b90508086898603815181106105db57fe5b6020908102919091018101919091528915156000908152600490915260409020610605908361085a565b60019095019490935091506104fa9050565b505050509392505050565b6001600160a01b03831660009081526003602052604081206060919061064790610874565b905080831115610655578092505b8284106106745760405162461bcd60e51b815260040161047590610f29565b83830367ffffffffffffffff8111801561068d57600080fd5b506040519080825280602002602001820160405280156106c757816020015b6106b461098f565b8152602001906001900390816106ac5790505b509150835b838110156107aa576001600160a01b03861660009081526003602052604081206106f6908361084a565b905061070061098f565b60005460405163d311636b60e01b81526001600160a01b039091169063d311636b90610730908590600401610f6b565b60006040518083038186803b15801561074857600080fd5b505afa15801561075c573d6000803e3d6000fd5b505050506040513d6000823e601f3d908101601f191682016040526107849190810190610c21565b905080858885038151811061079557fe5b602090810291909101015250506001016106cc565b50509392505050565b6001602052816000526040600020818154811061031a57fe5b6005602052816000526040600020818154811061031a57fe5b80151560009081526004602052604081206103a390610856565b6001600160a01b031660009081526001602052604090205490565b6001600160a01b03811660009081526003602052604081206103a390610874565b6000546001600160a01b031681565b60006103a0838361087f565b5490565b600080610869848460016108c4565b915091509250929050565b60006103a382610856565b815460009082106108a25760405162461bcd60e51b815260040161047590610ee7565b8260000182815481106108b157fe5b9060005260206000200154905092915050565b6000806108d1858561090b565b6108e057506000905080610903565b505060008281526001848101602090815260408084208515158552909152909120545b935093915050565b6000818152600183016020908152604080832083805290915281205415801561094e57506000828152600180850160209081526040808420928452919052902054155b1561098757600080805260018085016020908152604080842092845291905290205482141561097f575060016103a3565b5060006103a3565b5060016103a3565b604051806101a001604052806000815260200160006001600160a01b0316815260200160006001600160a01b0316815260200160001515815260200160008152602001600081526020016000815260200160008152602001600060038111156109f457fe5b8152602001606081526020016000815260200160008152602001600081525090565b80516103a381610fef565b80516103a381611007565b80516103a381611015565b600082601f830112610a47578081fd5b8151610a5a610a5582610f9b565b610f74565b9150808252836020828501011115610a7157600080fd5b610a82816020840160208601610fbf565b5092915050565b600060208284031215610a9a578081fd5b8135610aa581610fef565b9392505050565b60008060008060808587031215610ac1578283fd5b8435610acc81610fef565b93506020850135610adc81610fef565b925060408501359150606085013567ffffffffffffffff811115610afe578182fd5b8501601f81018713610b0e578182fd5b8035610b1c610a5582610f9b565b818152886020838501011115610b30578384fd5b81602084016020830137908101602001929092525092959194509250565b60008060408385031215610b60578182fd5b8235610b6b81610fef565b946020939093013593505050565b600080600060608486031215610b8d578283fd5b8335610b9881610fef565b95602085013595506040909401359392505050565b600060208284031215610bbe578081fd5b8135610aa581611007565b600080600060608486031215610bdd578283fd5b8335610b9881611007565b600060208284031215610bf9578081fd5b8135610aa581611015565b60008060408385031215610c16578182fd5b8235610b6b81611015565b600060208284031215610c32578081fd5b815167ffffffffffffffff80821115610c49578283fd5b81840191506101a0808387031215610c5f578384fd5b610c6881610f74565b905082518152610c7b8660208501610a16565b6020820152610c8d8660408501610a16565b6040820152610c9f8660608501610a21565b60608201526080830151608082015260a083015160a082015260c083015160c082015260e083015160e0820152610100610cdb87828601610a2c565b908201526101208381015183811115610cf2578586fd5b610cfe88828701610a37565b9183019190915250610140838101519082015261016080840151908201526101809283015192810192909252509392505050565b600060208284031215610d43578081fd5b5035919050565b600060208284031215610d5b578081fd5b5051919050565b6001600160a01b03169052565b15159052565b60048110610d7f57fe5b9052565b60008151808452610d9b816020860160208601610fbf565b601f01601f19169290920160200192915050565b60208082528251828201819052600091906040908185019080840286018301878501865b83811015610eb057603f1989840301855281516101a08151855288820151610dfd8a870182610d62565b5087820151610e0e89870182610d62565b50606080830151610e2182880182610d6f565b50506080828101519086015260a0808301519086015260c0808301519086015260e0808301519086015261010080830151610e5e82880182610d75565b5050610120808301518282880152610e7883880182610d83565b610140858101519089015261016080860151908901526101809485015194909701939093525050509386019390860190600101610dd3565b509098975050505050505050565b6001600160e01b031991909116815260200190565b6001600160a01b0391909116815260200190565b60208082526022908201527f456e756d657261626c655365743a20696e646578206f7574206f6620626f756e604082015261647360f01b606082015260800190565b60208082526022908201527f4f7264657253746f72653a20696e646578206973206f7574206f6620626f756e604082015261321760f11b606082015260800190565b90815260200190565b60405181810167ffffffffffffffff81118282101715610f9357600080fd5b604052919050565b600067ffffffffffffffff821115610fb1578081fd5b50601f01601f191660200190565b60005b83811015610fda578181015183820152602001610fc2565b83811115610fe9576000848401525b50505050565b6001600160a01b038116811461100457600080fd5b50565b801515811461100457600080fd5b6004811061100457600080fdfea26469706673582212200a78aab5cb623eb2fd811859587c5836cc291910f3c0cc0d0735822108c4300064736f6c634300060c0033",
  "immutableReferences": {},
  "source": "// SPDX-License-Identifier: MIT\npragma solidity ^0.6.0;\npragma experimental ABIEncoderV2;\n\nimport \"./BasicStruct.sol\";\n\ncontract OrderStore is IStructureInterface, IERC721Receiver {\n    using SafeMath for uint256;\n    using EnumerableSet for EnumerableSet.UintSet;\n    using StructuredLinkedList for StructuredLinkedList.List;\n\n    IOrderNFT public orderNFT;\n    mapping(address => uint256[]) public userDealedOrdersMap;  // \n    mapping(address => uint256[]) public userOrdersMap;  // \n    mapping(address => EnumerableSet.UintSet) private userHangingOrdersMap;  // \n    mapping(bool => StructuredLinkedList.List) private bBuyOrdersMap;  // , bool: true-false-\n    mapping(OrderStatus => uint256[]) public sealedOrdersMap;  // \n    \n    constructor () public {\n    }\n\n    // ID\n    function getValue(uint256 _nftId) view public override returns(uint256) {\n        if (_nftId == 0) return 0;\n        NFTInfo memory nftInfo = orderNFT.getOrderInfo(_nftId);\n        return nftInfo.spotPrice;\n    }\n    \n    // \n    // token0U\n    function addOrder(bool _bBuyQuoteToken, uint256 _spotPrice, uint256 _inAmount, uint256 _minOutAmount) internal returns(uint256) {\n        uint256 orderId = orderNFT.mint(address(this), msg.sender, _bBuyQuoteToken, _spotPrice, _inAmount, _minOutAmount);\n        \n        userOrdersMap[msg.sender].push(orderId);\n        addHangingOrder(orderId, _bBuyQuoteToken, _spotPrice);\n\n        userHangingOrdersMap[msg.sender].add(orderId);\n        return orderId;\n    }\n    \n    // \n    // 1: \n    // 2: \n    function addHangingOrder(uint256 _orderId, bool _bBuyQuoteToken, uint256 _spotPrice) private returns(bool) {\n        uint256 next = bBuyOrdersMap[_bBuyQuoteToken].getSortedSpot(address(this), _spotPrice, _bBuyQuoteToken);\n        \n        return bBuyOrdersMap[_bBuyQuoteToken].insertBefore(next, _orderId);\n    }\n    \n    function removeOrder(NFTInfo memory _orderInfo) private returns(bool) {\n        orderNFT.transferFrom(address(this), _orderInfo.owner, _orderInfo.id);\n        sealedOrdersMap[_orderInfo.status].push(_orderInfo.id);\n        userHangingOrdersMap[msg.sender].remove(_orderInfo.id);\n        uint256 node = bBuyOrdersMap[_orderInfo.bBuyQuoteToken].remove(_orderInfo.id);\n        return node > 0;\n    }\n    \n    // \n    function setManualCancelOrder(uint256 _orderId) internal returns(bool) {\n        NFTInfo memory orderInfo = orderNFT.getOrderInfo(_orderId);\n        \n        require(orderInfo.owner == msg.sender, \"OrderStore: only book owner can cancel the order.\");\n        require(orderInfo.status == OrderStatus.Hanging, \"OrderStore: only hanging order can be canceled.\");\n        \n        orderNFT.sealNFT(_orderId, OrderStatus.ManualCanceled, 0, \"\");\n        sealedOrdersMap[OrderStatus.ManualCanceled].push(_orderId);\n        removeOrder(orderInfo);\n    }\n    \n    function setAMMDealOrder(uint256 _orderId, uint256 _outAmount) internal returns(bool) {\n        NFTInfo memory orderInfo = orderNFT.getOrderInfo(_orderId);\n        \n        require(orderInfo.status == OrderStatus.Hanging, \"OrderStore: only hanging order can become AMMDeal status.\");\n        \n        orderNFT.sealNFT(_orderId, OrderStatus.AMMDeal, _outAmount, \"\");\n        sealedOrdersMap[OrderStatus.AMMDeal].push(_orderId);\n        userDealedOrdersMap[orderInfo.owner].push(_orderId);\n        removeOrder(orderInfo);\n    }\n    \n    function setExceptionOrder(uint256 _orderId, string memory _comment) internal returns(bool) {\n        NFTInfo memory orderInfo = orderNFT.getOrderInfo(_orderId);\n        \n        require(orderInfo.status == OrderStatus.Hanging, \"OrderStore: only hanging order can become exception status.\");\n        \n        orderNFT.sealNFT(_orderId, OrderStatus.Exception, 0, _comment);\n        sealedOrdersMap[OrderStatus.Exception].push(_orderId);\n        removeOrder(orderInfo);\n    }\n\n    // \n    function getHeaderOrderIndex(bool _bBuy) view internal returns(bool exist, uint256 index) {\n        return bBuyOrdersMap[_bBuy].getAdjacent(0, true);   // get the first node of the list\n    }\n    \n    function getTotalOrderNumber(bool _bBuy) view public returns(uint256) {\n        return bBuyOrdersMap[_bBuy].sizeOf();\n    }\n    // \n    function getOrderInfos(bool _bBuy, uint256 _fromIndex, uint256 _toIndex) view public returns(NFTInfo[] memory orderInfos) {\n        uint256 length = bBuyOrdersMap[_bBuy].sizeOf();\n        if (_toIndex > length) _toIndex = length;\n        require(_fromIndex < _toIndex, \"OrderStore: index is out of bound.\");\n        \n        orderInfos = new NFTInfo[](_toIndex - _fromIndex);\n        uint256 index = 0;\n        (bool exist, uint256 currentId) = bBuyOrdersMap[_bBuy].getNextNode(0);\n        while(index < _toIndex && exist) {\n            if (index < _fromIndex) {\n                (exist, currentId) = bBuyOrdersMap[_bBuy].getNextNode(currentId);\n                index++;\n                continue;\n            }\n            NFTInfo memory orderInfo = orderNFT.getOrderInfo(currentId);\n            orderInfos[index - _fromIndex] = orderInfo;\n            \n            (exist, currentId) = bBuyOrdersMap[_bBuy].getNextNode(currentId);\n            index++;\n        }\n    }\n\n    // \n    function popFront(bool _bBuy) internal returns(uint256 index) {\n        return bBuyOrdersMap[_bBuy].popFront();\n    }\n    // \n    function pushFront(bool _bBuy, uint256 _index) internal returns(bool) {\n        return bBuyOrdersMap[_bBuy].pushFront(_index);\n    }\n    // \n    function getOrderDetailNumber(uint256 _orderId) view public returns(uint256) {\n        return orderNFT.getOrderDetailNumber(_orderId);\n    }\n\n    // \n    function getUserDealedOrderNumber(address _userAddr) view public returns(uint256) {\n        return userDealedOrdersMap[_userAddr].length;\n    }\n\n    // \n    function getUserOrderNumber(address _userAddr) view public returns(uint256) {\n        return userOrdersMap[_userAddr].length;\n    }\n    // \n    function getUserHangingOrderNumber(address _userAddr) view public returns(uint256) {\n        return userHangingOrdersMap[_userAddr].length();\n    }\n    // \n    function getUserHangingOrderId(address _userAddr, uint256 _index) view public returns(uint256) {\n        return userHangingOrdersMap[_userAddr].at(_index);\n    }\n\n    function getUserHangingOrderInfos(address _userAddr, uint256 _fromIndex, uint256 _toIndex) view public returns(NFTInfo[] memory orderInfos) {\n        uint256 length = userHangingOrdersMap[_userAddr].length();\n        if (_toIndex > length) _toIndex = length;\n        require(_fromIndex < _toIndex, \"OrderStore: index is out of bound.\");\n        \n        orderInfos = new NFTInfo[](_toIndex - _fromIndex);\n        for (uint256 i = _fromIndex; i < _toIndex; i++) {\n            uint256 orderId = userHangingOrdersMap[_userAddr].at(i);\n            NFTInfo memory orderInfo = orderNFT.getOrderInfo(orderId);\n            orderInfos[i - _fromIndex] = orderInfo;\n        }\n    }\n\n    function getOrderNumber(OrderStatus _orderStatus) view public returns(uint256) {\n        return sealedOrdersMap[_orderStatus].length;\n    }\n\n    // token\n    // function getTotalDealedAmount(uint256 _fromTime, uint256 _endTime) view public returns(uint256 fromIndex, uint256 totalAmount) {\n    //     uint256 orderLength = sealedOrdersMap[OrderStatus.AMMDeal].length;\n        \n    //     uint256 lowIndex = 0;\n    //     uint256 highIndex = 0;\n    //     while(lowIndex <= highIndex) {\n    //         uint256 midIndex = lowIndex.add(highIndex).div(2);\n    //         if (midIndex == 0) {\n    //             fromIndex = 0;\n    //             break;\n    //         }\n    //         uint256 orderId = sealedOrdersMap[OrderStatus.AMMDeal][midIndex];\n    //         uint256 preOrderId = sealedOrdersMap[OrderStatus.AMMDeal][midIndex - 1];\n    //         NFTInfo memory orderInfo = orderNFT.getOrderInfo(orderId);\n    //         NFTInfo memory preOrderInfo = orderNFT.getOrderInfo(preOrderId);\n    //         if (orderInfo.dealedTime == _fromTime || preOrderInfo.dealedTime == _fromTime) {\n    //             fromIndex = orderInfo.dealedTime == _fromTime ? midIndex : midIndex - 1;\n    //             break;\n    //         } else if (preOrderInfo.dealedTime < _fromTime && orderInfo.dealedTime > _fromTime) {\n    //             fromIndex = midIndex;\n    //             break;\n    //         } else if (orderInfo.dealedTime > _fromTime) {\n    //             highIndex = midIndex;\n    //         } else {\n    //             lowIndex = midIndex;\n    //         }\n    //     }\n        \n    //     uint256 index = fromIndex;\n    //     while (index < orderLength) {\n    //         uint256 orderId = sealedOrdersMap[OrderStatus.AMMDeal][index];\n    //         NFTInfo memory orderInfo = orderNFT.getOrderInfo(orderId);\n            \n    //         if (orderInfo.dealedTime > _endTime) break;\n            \n    //         totalAmount = totalAmount.add(orderInfo.bBuyQuoteToken ? orderInfo.inAmount : orderInfo.outAmount);\n    //     }\n    // }\n    \n    function onERC721Received(address, address, uint256, bytes memory) public virtual override returns (bytes4) {\n        return this.onERC721Received.selector;\n    }\n}",
  "sourcePath": "/Users/mryu/blockchain/bobo-metaverse/boboswap-contract/contracts/common/OrderStore.sol",
  "compiler": {
    "name": "solc",
    "version": "0.6.12+commit.27d51765.Emscripten.clang"
  },
  "schemaVersion": "3.4.3",
  "updatedAt": "2021-09-16T06:50:58.279Z",
  "devdoc": {
    "kind": "dev",
    "methods": {},
    "version": 1
  },
  "userdoc": {
    "kind": "user",
    "methods": {},
    "version": 1
  }
}