{
  "contractName": "OrderDetailNFT",
  "abi": [
    {
      "inputs": [],
      "stateMutability": "nonpayable",
      "type": "constructor"
    },
    {
      "anonymous": false,
      "inputs": [
        {
          "indexed": true,
          "internalType": "address",
          "name": "owner",
          "type": "address"
        },
        {
          "indexed": true,
          "internalType": "address",
          "name": "approved",
          "type": "address"
        },
        {
          "indexed": true,
          "internalType": "uint256",
          "name": "tokenId",
          "type": "uint256"
        }
      ],
      "name": "Approval",
      "type": "event"
    },
    {
      "anonymous": false,
      "inputs": [
        {
          "indexed": true,
          "internalType": "address",
          "name": "owner",
          "type": "address"
        },
        {
          "indexed": true,
          "internalType": "address",
          "name": "operator",
          "type": "address"
        },
        {
          "indexed": false,
          "internalType": "bool",
          "name": "approved",
          "type": "bool"
        }
      ],
      "name": "ApprovalForAll",
      "type": "event"
    },
    {
      "anonymous": false,
      "inputs": [
        {
          "indexed": true,
          "internalType": "address",
          "name": "_to",
          "type": "address"
        },
        {
          "indexed": false,
          "internalType": "uint256",
          "name": "_tokenId",
          "type": "uint256"
        }
      ],
      "name": "Mint",
      "type": "event"
    },
    {
      "anonymous": false,
      "inputs": [
        {
          "indexed": true,
          "internalType": "address",
          "name": "previousOwner",
          "type": "address"
        },
        {
          "indexed": true,
          "internalType": "address",
          "name": "newOwner",
          "type": "address"
        }
      ],
      "name": "OwnershipTransferred",
      "type": "event"
    },
    {
      "anonymous": false,
      "inputs": [
        {
          "indexed": true,
          "internalType": "address",
          "name": "from",
          "type": "address"
        },
        {
          "indexed": true,
          "internalType": "address",
          "name": "to",
          "type": "address"
        },
        {
          "indexed": true,
          "internalType": "uint256",
          "name": "tokenId",
          "type": "uint256"
        }
      ],
      "name": "Transfer",
      "type": "event"
    },
    {
      "inputs": [
        {
          "internalType": "address",
          "name": "_addMinter",
          "type": "address"
        }
      ],
      "name": "addMinter",
      "outputs": [
        {
          "internalType": "bool",
          "name": "",
          "type": "bool"
        }
      ],
      "stateMutability": "nonpayable",
      "type": "function"
    },
    {
      "inputs": [
        {
          "internalType": "address",
          "name": "to",
          "type": "address"
        },
        {
          "internalType": "uint256",
          "name": "tokenId",
          "type": "uint256"
        }
      ],
      "name": "approve",
      "outputs": [],
      "stateMutability": "nonpayable",
      "type": "function"
    },
    {
      "inputs": [
        {
          "internalType": "address",
          "name": "owner",
          "type": "address"
        }
      ],
      "name": "balanceOf",
      "outputs": [
        {
          "internalType": "uint256",
          "name": "",
          "type": "uint256"
        }
      ],
      "stateMutability": "view",
      "type": "function"
    },
    {
      "inputs": [],
      "name": "baseURI",
      "outputs": [
        {
          "internalType": "string",
          "name": "",
          "type": "string"
        }
      ],
      "stateMutability": "view",
      "type": "function"
    },
    {
      "inputs": [
        {
          "internalType": "address",
          "name": "_delMinter",
          "type": "address"
        }
      ],
      "name": "delMinter",
      "outputs": [
        {
          "internalType": "bool",
          "name": "",
          "type": "bool"
        }
      ],
      "stateMutability": "nonpayable",
      "type": "function"
    },
    {
      "inputs": [
        {
          "internalType": "uint256",
          "name": "tokenId",
          "type": "uint256"
        }
      ],
      "name": "getApproved",
      "outputs": [
        {
          "internalType": "address",
          "name": "",
          "type": "address"
        }
      ],
      "stateMutability": "view",
      "type": "function"
    },
    {
      "inputs": [
        {
          "internalType": "uint256",
          "name": "_index",
          "type": "uint256"
        }
      ],
      "name": "getMinter",
      "outputs": [
        {
          "internalType": "address",
          "name": "",
          "type": "address"
        }
      ],
      "stateMutability": "view",
      "type": "function"
    },
    {
      "inputs": [],
      "name": "getMinterLength",
      "outputs": [
        {
          "internalType": "uint256",
          "name": "",
          "type": "uint256"
        }
      ],
      "stateMutability": "view",
      "type": "function"
    },
    {
      "inputs": [
        {
          "internalType": "uint256",
          "name": "",
          "type": "uint256"
        }
      ],
      "name": "id2NFTDetailInfoMap",
      "outputs": [
        {
          "internalType": "uint256",
          "name": "id",
          "type": "uint256"
        },
        {
          "internalType": "uint256",
          "name": "time",
          "type": "uint256"
        },
        {
          "internalType": "uint256",
          "name": "inAmount",
          "type": "uint256"
        },
        {
          "internalType": "uint256",
          "name": "outAmount",
          "type": "uint256"
        },
        {
          "internalType": "uint256",
          "name": "orderNFTId",
          "type": "uint256"
        }
      ],
      "stateMutability": "view",
      "type": "function"
    },
    {
      "inputs": [
        {
          "internalType": "address",
          "name": "owner",
          "type": "address"
        },
        {
          "internalType": "address",
          "name": "operator",
          "type": "address"
        }
      ],
      "name": "isApprovedForAll",
      "outputs": [
        {
          "internalType": "bool",
          "name": "",
          "type": "bool"
        }
      ],
      "stateMutability": "view",
      "type": "function"
    },
    {
      "inputs": [
        {
          "internalType": "address",
          "name": "account",
          "type": "address"
        }
      ],
      "name": "isMinter",
      "outputs": [
        {
          "internalType": "bool",
          "name": "",
          "type": "bool"
        }
      ],
      "stateMutability": "view",
      "type": "function"
    },
    {
      "inputs": [],
      "name": "name",
      "outputs": [
        {
          "internalType": "string",
          "name": "",
          "type": "string"
        }
      ],
      "stateMutability": "view",
      "type": "function"
    },
    {
      "inputs": [],
      "name": "nftId",
      "outputs": [
        {
          "internalType": "uint256",
          "name": "",
          "type": "uint256"
        }
      ],
      "stateMutability": "view",
      "type": "function"
    },
    {
      "inputs": [],
      "name": "orderNFT",
      "outputs": [
        {
          "internalType": "contract IOrderNFT",
          "name": "",
          "type": "address"
        }
      ],
      "stateMutability": "view",
      "type": "function"
    },
    {
      "inputs": [],
      "name": "owner",
      "outputs": [
        {
          "internalType": "address",
          "name": "",
          "type": "address"
        }
      ],
      "stateMutability": "view",
      "type": "function"
    },
    {
      "inputs": [
        {
          "internalType": "uint256",
          "name": "tokenId",
          "type": "uint256"
        }
      ],
      "name": "ownerOf",
      "outputs": [
        {
          "internalType": "address",
          "name": "",
          "type": "address"
        }
      ],
      "stateMutability": "view",
      "type": "function"
    },
    {
      "inputs": [],
      "name": "renounceOwnership",
      "outputs": [],
      "stateMutability": "nonpayable",
      "type": "function"
    },
    {
      "inputs": [
        {
          "internalType": "address",
          "name": "from",
          "type": "address"
        },
        {
          "internalType": "address",
          "name": "to",
          "type": "address"
        },
        {
          "internalType": "uint256",
          "name": "tokenId",
          "type": "uint256"
        }
      ],
      "name": "safeTransferFrom",
      "outputs": [],
      "stateMutability": "nonpayable",
      "type": "function"
    },
    {
      "inputs": [
        {
          "internalType": "address",
          "name": "from",
          "type": "address"
        },
        {
          "internalType": "address",
          "name": "to",
          "type": "address"
        },
        {
          "internalType": "uint256",
          "name": "tokenId",
          "type": "uint256"
        },
        {
          "internalType": "bytes",
          "name": "_data",
          "type": "bytes"
        }
      ],
      "name": "safeTransferFrom",
      "outputs": [],
      "stateMutability": "nonpayable",
      "type": "function"
    },
    {
      "inputs": [
        {
          "internalType": "address",
          "name": "operator",
          "type": "address"
        },
        {
          "internalType": "bool",
          "name": "approved",
          "type": "bool"
        }
      ],
      "name": "setApprovalForAll",
      "outputs": [],
      "stateMutability": "nonpayable",
      "type": "function"
    },
    {
      "inputs": [
        {
          "internalType": "bytes4",
          "name": "interfaceId",
          "type": "bytes4"
        }
      ],
      "name": "supportsInterface",
      "outputs": [
        {
          "internalType": "bool",
          "name": "",
          "type": "bool"
        }
      ],
      "stateMutability": "view",
      "type": "function"
    },
    {
      "inputs": [],
      "name": "symbol",
      "outputs": [
        {
          "internalType": "string",
          "name": "",
          "type": "string"
        }
      ],
      "stateMutability": "view",
      "type": "function"
    },
    {
      "inputs": [
        {
          "internalType": "uint256",
          "name": "index",
          "type": "uint256"
        }
      ],
      "name": "tokenByIndex",
      "outputs": [
        {
          "internalType": "uint256",
          "name": "",
          "type": "uint256"
        }
      ],
      "stateMutability": "view",
      "type": "function"
    },
    {
      "inputs": [
        {
          "internalType": "address",
          "name": "owner",
          "type": "address"
        },
        {
          "internalType": "uint256",
          "name": "index",
          "type": "uint256"
        }
      ],
      "name": "tokenOfOwnerByIndex",
      "outputs": [
        {
          "internalType": "uint256",
          "name": "",
          "type": "uint256"
        }
      ],
      "stateMutability": "view",
      "type": "function"
    },
    {
      "inputs": [
        {
          "internalType": "uint256",
          "name": "tokenId",
          "type": "uint256"
        }
      ],
      "name": "tokenURI",
      "outputs": [
        {
          "internalType": "string",
          "name": "",
          "type": "string"
        }
      ],
      "stateMutability": "view",
      "type": "function"
    },
    {
      "inputs": [],
      "name": "totalSupply",
      "outputs": [
        {
          "internalType": "uint256",
          "name": "",
          "type": "uint256"
        }
      ],
      "stateMutability": "view",
      "type": "function"
    },
    {
      "inputs": [
        {
          "internalType": "address",
          "name": "from",
          "type": "address"
        },
        {
          "internalType": "address",
          "name": "to",
          "type": "address"
        },
        {
          "internalType": "uint256",
          "name": "tokenId",
          "type": "uint256"
        }
      ],
      "name": "transferFrom",
      "outputs": [],
      "stateMutability": "nonpayable",
      "type": "function"
    },
    {
      "inputs": [
        {
          "internalType": "address",
          "name": "newOwner",
          "type": "address"
        }
      ],
      "name": "transferOwnership",
      "outputs": [],
      "stateMutability": "nonpayable",
      "type": "function"
    },
    {
      "inputs": [
        {
          "internalType": "address",
          "name": "_orderNFT",
          "type": "address"
        }
      ],
      "name": "setOrderNFT",
      "outputs": [],
      "stateMutability": "nonpayable",
      "type": "function"
    },
    {
      "inputs": [
        {
          "internalType": "address",
          "name": "_nftOwner",
          "type": "address"
        },
        {
          "internalType": "uint256",
          "name": "_inAmount",
          "type": "uint256"
        },
        {
          "internalType": "uint256",
          "name": "_outAmount",
          "type": "uint256"
        },
        {
          "internalType": "uint256",
          "name": "_orderNFTId",
          "type": "uint256"
        }
      ],
      "name": "mint",
      "outputs": [
        {
          "internalType": "uint256",
          "name": "",
          "type": "uint256"
        }
      ],
      "stateMutability": "nonpayable",
      "type": "function"
    },
    {
      "inputs": [
        {
          "internalType": "uint256",
          "name": "_nftId",
          "type": "uint256"
        }
      ],
      "name": "getOrderDetailInfo",
      "outputs": [
        {
          "components": [
            {
              "internalType": "uint256",
              "name": "id",
              "type": "uint256"
            },
            {
              "internalType": "uint256",
              "name": "time",
              "type": "uint256"
            },
            {
              "internalType": "uint256",
              "name": "inAmount",
              "type": "uint256"
            },
            {
              "internalType": "uint256",
              "name": "outAmount",
              "type": "uint256"
            },
            {
              "internalType": "uint256",
              "name": "orderNFTId",
              "type": "uint256"
            }
          ],
          "internalType": "struct NFTDetailInfo",
          "name": "nftDetailInfo",
          "type": "tuple"
        }
      ],
      "stateMutability": "view",
      "type": "function"
    }
  ],
  "bytecode": "0x60806040526000600d553480156200001657600080fd5b5060405180604001604052806011815260200170109bd89bc813dc99195c8811195d185a5b607a1b815250604051806040016040528060058152602001641093d50b5160da1b8152506000620000716200013760201b60201c565b600080546001600160a01b0319166001600160a01b0383169081178255604051929350917f8be0079c531659141344cd1fd0a4f28419497f9722a3daafe3b4186f6b6457e0908290a350620000cd6301ffc9a760e01b6200013b565b8151620000e290600990602085019062000196565b508051620000f890600a90602084019062000196565b506200010b6380ac58cd60e01b6200013b565b6200011d635b5e139f60e01b6200013b565b6200012f63780e9d6360e01b6200013b565b505062000269565b3390565b6001600160e01b03198082161415620001715760405162461bcd60e51b8152600401620001689062000232565b60405180910390fd5b6001600160e01b0319166000908152600360205260409020805460ff19166001179055565b828054600181600116156101000203166002900490600052602060002090601f016020900481019282601f10620001d957805160ff191683800117855562000209565b8280016001018555821562000209579182015b8281111562000209578251825591602001919060010190620001ec565b50620002179291506200021b565b5090565b5b808211156200021757600081556001016200021c565b6020808252601c908201527f4552433136353a20696e76616c696420696e7465726661636520696400000000604082015260600190565b61236180620002796000396000f3fe608060405234801561001057600080fd5b50600436106101e55760003560e01c80636352211e1161010f578063a647e8ec116100a2578063c87b56dd11610071578063c87b56dd146103f0578063d4d728da14610403578063e985e9c51461040b578063f2fde38b1461041e576101e5565b8063a647e8ec146103af578063aa271e1a146103c2578063b88d4fde146103d5578063c6bc5182146103e8576101e5565b80638da5cb5b116100de5780638da5cb5b1461037957806395d89b4114610381578063983b2d5614610389578063a22cb4651461039c576101e5565b80636352211e146103435780636c0360eb1461035657806370a082311461035e578063715018a614610371576101e5565b806323b872dd11610187578063493362141161015657806349336214146102ea578063494d60e51461030a5780634f6ccce71461031d5780635b7121f814610330576101e5565b806323b872dd1461028d5780632f745c59146102a05780633c49695d146102b357806342842e0e146102d7576101e5565b8063081812fc116101c3578063081812fc1461023d578063095ea7b31461025d57806318160ddd1461027257806323338b881461027a576101e5565b806301ffc9a7146101ea5780630323aac71461021357806306fdde0314610228575b600080fd5b6101fd6101f8366004611a75565b610431565b60405161020a9190611bdf565b60405180910390f35b61021b610454565b60405161020a919061224a565b610230610465565b60405161020a9190611bea565b61025061024b366004611aad565b6104fb565b60405161020a9190611b8e565b61027061026b366004611a11565b610547565b005b61021b6105df565b6101fd610288366004611881565b6105eb565b61027061029b3660046118d0565b610659565b61021b6102ae366004611a11565b610691565b6102c66102c1366004611aad565b6106ba565b60405161020a959493929190612253565b6102706102e53660046118d0565b6106e9565b6102fd6102f8366004611aad565b610704565b60405161020a9190612210565b610270610318366004611881565b610780565b61021b61032b366004611aad565b6107d7565b61025061033e366004611aad565b6107ed565b610250610351366004611aad565b610859565b610230610881565b61021b61036c366004611881565b6108e2565b61027061092b565b6102506109aa565b6102306109b9565b6101fd610397366004611881565b610a1a565b6102706103aa3660046119d6565b610a82565b61021b6103bd366004611a3b565b610b50565b6101fd6103d0366004611881565b610c3b565b6102706103e3366004611910565b610c48565b61021b610c87565b6102306103fe366004611aad565b610c8d565b610250610dd7565b6101fd61041936600461189c565b610de6565b61027061042c366004611881565b610e14565b6001600160e01b0319811660009081526003602052604090205460ff165b919050565b60006104606001610eca565b905090565b60098054604080516020601f60026000196101006001881615020190951694909404938401819004810282018101909252828152606093909290918301828280156104f15780601f106104c6576101008083540402835291602001916104f1565b820191906000526020600020905b8154815290600101906020018083116104d457829003601f168201915b5050505050905090565b600061050682610ed5565b61052b5760405162461bcd60e51b815260040161052290611fe8565b60405180910390fd5b506000908152600760205260409020546001600160a01b031690565b600061055282610859565b9050806001600160a01b0316836001600160a01b031614156105865760405162461bcd60e51b815260040161052290612101565b806001600160a01b0316610598610ee2565b6001600160a01b031614806105b457506105b481610419610ee2565b6105d05760405162461bcd60e51b815260040161052290611e5c565b6105da8383610ee6565b505050565b60006104606005610eca565b60006105f5610ee2565b6000546001600160a01b039081169116146106225760405162461bcd60e51b815260040161052290612034565b6001600160a01b0382166106485760405162461bcd60e51b815260040161052290612142565b610653600183610f54565b92915050565b61066a610664610ee2565b82610f69565b6106865760405162461bcd60e51b815260040161052290612188565b6105da838383610fe6565b6001600160a01b03821660009081526004602052604081206106b390836110f4565b9392505050565b600f60205260009081526040902080546001820154600283015460038401546004909401549293919290919085565b6105da83838360405180602001604052806000815250610c48565b61070c61183b565b61071582610ed5565b6107315760405162461bcd60e51b815260040161052290611dd5565b506000908152600f6020908152604091829020825160a0810184528154815260018201549281019290925260028101549282019290925260038201546060820152600490910154608082015290565b610788610ee2565b6000546001600160a01b039081169116146107b55760405162461bcd60e51b815260040161052290612034565b600e80546001600160a01b0319166001600160a01b0392909216919091179055565b6000806107e5600584611100565b509392505050565b60006107f7610ee2565b6000546001600160a01b039081169116146108245760405162461bcd60e51b815260040161052290612034565b600161082e610454565b0382111561084e5760405162461bcd60e51b815260040161052290611eb9565b6106536001836110f4565b600061065382604051806060016040528060298152602001612303602991396005919061111c565b600c8054604080516020601f60026000196101006001881615020190951694909404938401819004810282018101909252828152606093909290918301828280156104f15780601f106104c6576101008083540402835291602001916104f1565b60006001600160a01b03821661090a5760405162461bcd60e51b815260040161052290611ef0565b6001600160a01b038216600090815260046020526040902061065390610eca565b610933610ee2565b6000546001600160a01b039081169116146109605760405162461bcd60e51b815260040161052290612034565b600080546040516001600160a01b03909116907f8be0079c531659141344cd1fd0a4f28419497f9722a3daafe3b4186f6b6457e0908390a3600080546001600160a01b0319169055565b6000546001600160a01b031690565b600a8054604080516020601f60026000196101006001881615020190951694909404938401819004810282018101909252828152606093909290918301828280156104f15780601f106104c6576101008083540402835291602001916104f1565b6000610a24610ee2565b6000546001600160a01b03908116911614610a515760405162461bcd60e51b815260040161052290612034565b6001600160a01b038216610a775760405162461bcd60e51b815260040161052290611e16565b610653600183611129565b610a8a610ee2565b6001600160a01b0316826001600160a01b03161415610abb5760405162461bcd60e51b815260040161052290611d52565b8060086000610ac8610ee2565b6001600160a01b03908116825260208083019390935260409182016000908120918716808252919093529120805460ff191692151592909217909155610b0c610ee2565b6001600160a01b03167f17307eab39ab6107e8899845ad3d59bd9653f200f220920489ca2b5937696c3183604051610b449190611bdf565b60405180910390a35050565b6000610b5b33610c3b565b610b775760405162461bcd60e51b815260040161052290611f7c565b600d805460010190819055610b8d90869061113e565b6040805160a081018252600d80548083524260208085019182528486018a8152606086018a8152608087018a81526000958652600f9093529387902095518655915160018601559051600285015590516003840155516004909201919091555490516001600160a01b038716917f0f6798a560793a54c3bcfe86a93cde1e73087d944c0ea20544137d412139688591610c26919061224a565b60405180910390a250600d545b949350505050565b600061065360018361115c565b610c59610c53610ee2565b83610f69565b610c755760405162461bcd60e51b815260040161052290612188565b610c8184848484611171565b50505050565b600d5481565b6060610c9882610ed5565b610cb45760405162461bcd60e51b8152600401610522906120b2565b6000828152600b602090815260409182902080548351601f6002600019610100600186161502019093169290920491820184900484028101840190945280845260609392830182828015610d495780601f10610d1e57610100808354040283529160200191610d49565b820191906000526020600020905b815481529060010190602001808311610d2c57829003601f168201915b5050600c5493945050505060026000196101006001841615020190911604610d7257905061044f565b805115610da457600c81604051602001610d8d929190611b0d565b60405160208183030381529060405291505061044f565b600c610daf846111a4565b604051602001610dc0929190611b0d565b604051602081830303815290604052915050919050565b600e546001600160a01b031681565b6001600160a01b03918216600090815260086020908152604080832093909416825291909152205460ff1690565b610e1c610ee2565b6000546001600160a01b03908116911614610e495760405162461bcd60e51b815260040161052290612034565b6001600160a01b038116610e6f5760405162461bcd60e51b815260040161052290611c91565b600080546040516001600160a01b03808516939216917f8be0079c531659141344cd1fd0a4f28419497f9722a3daafe3b4186f6b6457e091a3600080546001600160a01b0319166001600160a01b0392909216919091179055565b60006106538261127f565b6000610653600583611283565b3390565b600081815260076020526040902080546001600160a01b0319166001600160a01b0384169081179091558190610f1b82610859565b6001600160a01b03167f8c5be1e5ebec7d5bd14f71427d1e84f3dd0314c0f7b2291e5b200ac8c7c3b92560405160405180910390a45050565b60006106b3836001600160a01b03841661128f565b6000610f7482610ed5565b610f905760405162461bcd60e51b815260040161052290611d89565b6000610f9b83610859565b9050806001600160a01b0316846001600160a01b03161480610fd65750836001600160a01b0316610fcb846104fb565b6001600160a01b0316145b80610c335750610c338185610de6565b826001600160a01b0316610ff982610859565b6001600160a01b03161461101f5760405162461bcd60e51b815260040161052290612069565b6001600160a01b0382166110455760405162461bcd60e51b815260040161052290611d0e565b6110508383836105da565b61105b600082610ee6565b6001600160a01b038316600090815260046020526040902061107d9082611355565b506001600160a01b03821660009081526004602052604090206110a09082611361565b506110ad6005828461136d565b5080826001600160a01b0316846001600160a01b03167fddf252ad1be2c89b69c2b068fc378daa952ba7f163c4a11628f55a4df523b3ef60405160405180910390a4505050565b60006106b38383611383565b600080808061110f86866113c8565b9097909650945050505050565b6000610c33848484611424565b60006106b3836001600160a01b038416611483565b6111588282604051806020016040528060008152506114cd565b5050565b60006106b3836001600160a01b038416611500565b61117c848484610fe6565b61118884848484611518565b610c815760405162461bcd60e51b815260040161052290611c3f565b6060816111c957506040805180820190915260018152600360fc1b602082015261044f565b8160005b81156111e157600101600a820491506111cd565b60608167ffffffffffffffff811180156111fa57600080fd5b506040519080825280601f01601f191660200182016040528015611225576020820181803683370190505b50859350905060001982015b831561127657600a840660300160f81b8282806001900393508151811061125457fe5b60200101906001600160f81b031916908160001a905350600a84049350611231565b50949350505050565b5490565b60006106b38383611500565b6000818152600183016020526040812054801561134b57835460001980830191908101906000908790839081106112c257fe5b90600052602060002001549050808760000184815481106112df57fe5b60009182526020808320909101929092558281526001898101909252604090209084019055865487908061130f57fe5b60019003818190600052602060002001600090559055866001016000878152602001908152602001600020600090556001945050505050610653565b6000915050610653565b60006106b3838361128f565b60006106b38383611483565b6000610c3384846001600160a01b0385166115f7565b815460009082106113a65760405162461bcd60e51b815260040161052290611bfd565b8260000182815481106113b557fe5b9060005260206000200154905092915050565b8154600090819083106113ed5760405162461bcd60e51b815260040161052290611f3a565b60008460000184815481106113fe57fe5b906000526020600020906002020190508060000154816001015492509250509250929050565b600082815260018401602052604081205482816114545760405162461bcd60e51b81526004016105229190611bea565b5084600001600182038154811061146757fe5b9060005260206000209060020201600101549150509392505050565b600061148f8383611500565b6114c557508154600181810184556000848152602080822090930184905584548482528286019093526040902091909155610653565b506000610653565b6114d7838361168e565b6114e46000848484611518565b6105da5760405162461bcd60e51b815260040161052290611c3f565b60009081526001919091016020526040902054151590565b600061152c846001600160a01b0316611752565b61153857506001610c33565b60606115c0630a85bd0160e11b61154d610ee2565b8887876040516024016115639493929190611ba2565b604051602081830303815290604052906001600160e01b0319166020820180516001600160e01b0383818316178352505050506040518060600160405280603281526020016122d1603291396001600160a01b0388169190611758565b90506000818060200190518101906115d89190611a91565b6001600160e01b031916630a85bd0160e11b1492505050949350505050565b60008281526001840160205260408120548061165c5750506040805180820182528381526020808201848152865460018181018955600089815284812095516002909302909501918255915190820155865486845281880190925292909120556106b3565b8285600001600183038154811061166f57fe5b90600052602060002090600202016001018190555060009150506106b3565b6001600160a01b0382166116b45760405162461bcd60e51b815260040161052290611fb3565b6116bd81610ed5565b156116da5760405162461bcd60e51b815260040161052290611cd7565b6116e6600083836105da565b6001600160a01b03821660009081526004602052604090206117089082611361565b506117156005828461136d565b5060405181906001600160a01b038416906000907fddf252ad1be2c89b69c2b068fc378daa952ba7f163c4a11628f55a4df523b3ef908290a45050565b3b151590565b6060610c3384846000858561176c85611752565b6117885760405162461bcd60e51b8152600401610522906121d9565b60006060866001600160a01b031685876040516117a59190611af1565b60006040518083038185875af1925050503d80600081146117e2576040519150601f19603f3d011682016040523d82523d6000602084013e6117e7565b606091505b50915091506117f7828286611802565b979650505050505050565b606083156118115750816106b3565b8251156118215782518084602001fd5b8160405162461bcd60e51b81526004016105229190611bea565b6040518060a0016040528060008152602001600081526020016000815260200160008152602001600081525090565b80356001600160a01b038116811461065357600080fd5b600060208284031215611892578081fd5b6106b3838361186a565b600080604083850312156118ae578081fd5b6118b8848461186a565b91506118c7846020850161186a565b90509250929050565b6000806000606084860312156118e4578081fd5b83356118ef816122a2565b925060208401356118ff816122a2565b929592945050506040919091013590565b60008060008060808587031215611925578081fd5b61192f868661186a565b9350602061193f8782880161186a565b935060408601359250606086013567ffffffffffffffff80821115611962578384fd5b818801915088601f830112611975578384fd5b813581811115611983578485fd5b604051601f8201601f19168101850183811182821017156119a2578687fd5b60405281815283820185018b10156119b8578586fd5b81858501868301379081019093019390935250939692955090935050565b600080604083850312156119e8578182fd5b6119f2848461186a565b915060208301358015158114611a06578182fd5b809150509250929050565b60008060408385031215611a23578182fd5b611a2d848461186a565b946020939093013593505050565b60008060008060808587031215611a50578384fd5b8435611a5b816122a2565b966020860135965060408601359560600135945092505050565b600060208284031215611a86578081fd5b81356106b3816122ba565b600060208284031215611aa2578081fd5b81516106b3816122ba565b600060208284031215611abe578081fd5b5035919050565b60008151808452611add816020860160208601612276565b601f01601f19169290920160200192915050565b60008251611b03818460208701612276565b9190910192915050565b6000808454600180821660008114611b2c5760018114611b4357611b72565b60ff198316865260028304607f1686019350611b72565b600283048886526020808720875b83811015611b6a5781548a820152908501908201611b51565b505050860193505b5050508351611b85818360208801612276565b01949350505050565b6001600160a01b0391909116815260200190565b6001600160a01b0385811682528416602082015260408101839052608060608201819052600090611bd590830184611ac5565b9695505050505050565b901515815260200190565b6000602082526106b36020830184611ac5565b60208082526022908201527f456e756d657261626c655365743a20696e646578206f7574206f6620626f756e604082015261647360f01b606082015260800190565b60208082526032908201527f4552433732313a207472616e7366657220746f206e6f6e20455243373231526560408201527131b2b4bb32b91034b6b83632b6b2b73a32b960711b606082015260800190565b60208082526026908201527f4f776e61626c653a206e6577206f776e657220697320746865207a65726f206160408201526564647265737360d01b606082015260800190565b6020808252601c908201527f4552433732313a20746f6b656e20616c7265616479206d696e74656400000000604082015260600190565b60208082526024908201527f4552433732313a207472616e7366657220746f20746865207a65726f206164646040820152637265737360e01b606082015260800190565b60208082526019908201527f4552433732313a20617070726f766520746f2063616c6c657200000000000000604082015260600190565b6020808252602c908201527f4552433732313a206f70657261746f7220717565727920666f72206e6f6e657860408201526b34b9ba32b73a103a37b5b2b760a11b606082015260800190565b60208082526021908201527f4f7264657244657461696c4e46543a206e6674206973206e6f742065786973746040820152601760f91b606082015260800190565b60208082526026908201527f546f6d4361743a205f6164644d696e74657220697320746865207a65726f206160408201526564647265737360d01b606082015260800190565b60208082526038908201527f4552433732313a20617070726f76652063616c6c6572206973206e6f74206f7760408201527f6e6572206e6f7220617070726f76656420666f7220616c6c0000000000000000606082015260800190565b6020808252601b908201527f546f6d4361743a20696e646578206f7574206f6620626f756e64730000000000604082015260600190565b6020808252602a908201527f4552433732313a2062616c616e636520717565727920666f7220746865207a65604082015269726f206164647265737360b01b606082015260800190565b60208082526022908201527f456e756d657261626c654d61703a20696e646578206f7574206f6620626f756e604082015261647360f01b606082015260800190565b60208082526018908201527f63616c6c6572206973206e6f7420746865206d696e7465720000000000000000604082015260600190565b6020808252818101527f4552433732313a206d696e7420746f20746865207a65726f2061646472657373604082015260600190565b6020808252602c908201527f4552433732313a20617070726f76656420717565727920666f72206e6f6e657860408201526b34b9ba32b73a103a37b5b2b760a11b606082015260800190565b6020808252818101527f4f776e61626c653a2063616c6c6572206973206e6f7420746865206f776e6572604082015260600190565b60208082526029908201527f4552433732313a207472616e73666572206f6620746f6b656e2074686174206960408201526839903737ba1037bbb760b91b606082015260800190565b6020808252602f908201527f4552433732314d657461646174613a2055524920717565727920666f72206e6f60408201526e3732bc34b9ba32b73a103a37b5b2b760891b606082015260800190565b60208082526021908201527f4552433732313a20617070726f76616c20746f2063757272656e74206f776e656040820152603960f91b606082015260800190565b60208082526026908201527f546f6d4361743a205f64656c4d696e74657220697320746865207a65726f206160408201526564647265737360d01b606082015260800190565b60208082526031908201527f4552433732313a207472616e736665722063616c6c6572206973206e6f74206f6040820152701ddb995c881b9bdc88185c1c1c9bdd9959607a1b606082015260800190565b6020808252601d908201527f416464726573733a2063616c6c20746f206e6f6e2d636f6e7472616374000000604082015260600190565b600060a082019050825182526020830151602083015260408301516040830152606083015160608301526080830151608083015292915050565b90815260200190565b948552602085019390935260408401919091526060830152608082015260a00190565b60005b83811015612291578181015183820152602001612279565b83811115610c815750506000910152565b6001600160a01b03811681146122b757600080fd5b50565b6001600160e01b0319811681146122b757600080fdfe4552433732313a207472616e7366657220746f206e6f6e20455243373231526563656976657220696d706c656d656e7465724552433732313a206f776e657220717565727920666f72206e6f6e6578697374656e7420746f6b656ea264697066735822122079440007bb29b84d05339a9ed8339b7ebe319cb2008b355c99a88da992aa321664736f6c634300060c0033",
  "immutableReferences": {},
  "source": "// SPDX-License-Identifier: MIT\npragma solidity ^0.6.0;\npragma experimental ABIEncoderV2;\n\nimport \"./Minter.sol\";\nimport \"./BasicStruct.sol\";\n\nstruct NFTDetailInfo {\n    uint256 id;\n    uint256 time;            // \n    uint256 inAmount;        // inAmountinAmounttokentoken\n    uint256 outAmount;\n    uint256 orderNFTId;      // \n}\n\ninterface IOrderDetailNFT is IERC721 {\n    function transferOwnership(address newOwner) external;\n    function addMinter(address _addMinter) external returns (bool);\n    function mint(address _nftOwner, uint256 _inAmount, uint256 _outAmount, uint256 _orderNFTId, SwapPool _swapPool, address[3] memory _path) external returns (uint256);\n    function totalSupply() external returns(uint256);\n    function getOrderDetailInfo(uint256 _nftId) view external returns(NFTDetailInfo memory nftDetailInfo);\n}\n\ncontract OrderDetailNFT is Minter, ERC721 {\n    using EnumerableSet for EnumerableSet.UintSet;\n    using SafeMath for uint256;\n    \n    uint256 public nftId = 0;\n    IOrderNFT public orderNFT;\n    mapping(uint256 => NFTDetailInfo) public id2NFTDetailInfoMap;\n    \n    event Mint(address indexed _to, uint256 _tokenId);\n    \n    constructor() ERC721(\"Bobo Order Detail\", \"BOT-D\")  public {\n    }        \n    \n    function setOrderNFT(address _orderNFT) public onlyOwner {\n        orderNFT = IOrderNFT(_orderNFT);\n    }\n    \n    function mint(address _nftOwner, uint256 _inAmount, uint256 _outAmount, uint256 _orderNFTId) public onlyMinter returns (uint256) {\n        nftId++;\n        \n        _safeMint(_nftOwner, nftId);\n        \n        id2NFTDetailInfoMap[nftId] = NFTDetailInfo(nftId, now, _inAmount, _outAmount, _orderNFTId);\n        \n        //orderNFT.bindDetailNFT(_orderNFTId, nftId);\n        \n        emit Mint(_nftOwner, nftId);\n        return nftId;\n    }\n\n    function getOrderDetailInfo(uint256 _nftId) view public returns(NFTDetailInfo memory nftDetailInfo) {\n        require( _exists(_nftId), \"OrderDetailNFT: nft is not exist.\");\n        return id2NFTDetailInfoMap[_nftId];\n    }\n}",
  "sourcePath": "/Users/mryu/blockchain/bobo-metaverse/boboswap-contract/contracts/common/OrderDetailNFT.sol",
  "compiler": {
    "name": "solc",
    "version": "0.6.12+commit.27d51765.Emscripten.clang"
  },
  "schemaVersion": "3.4.3",
  "updatedAt": "2021-10-22T07:48:09.756Z",
  "networkType": "ethereum",
  "devdoc": {
    "kind": "dev",
    "methods": {
      "approve(address,uint256)": {
        "details": "See {IERC721-approve}."
      },
      "balanceOf(address)": {
        "details": "See {IERC721-balanceOf}."
      },
      "baseURI()": {
        "details": "Returns the base URI set via {_setBaseURI}. This will be automatically added as a prefix in {tokenURI} to each token's URI, or to the token ID if no specific URI is set for that token ID."
      },
      "getApproved(uint256)": {
        "details": "See {IERC721-getApproved}."
      },
      "isApprovedForAll(address,address)": {
        "details": "See {IERC721-isApprovedForAll}."
      },
      "name()": {
        "details": "See {IERC721Metadata-name}."
      },
      "owner()": {
        "details": "Returns the address of the current owner."
      },
      "ownerOf(uint256)": {
        "details": "See {IERC721-ownerOf}."
      },
      "renounceOwnership()": {
        "details": "Leaves the contract without owner. It will not be possible to call `onlyOwner` functions anymore. Can only be called by the current owner. NOTE: Renouncing ownership will leave the contract without an owner, thereby removing any functionality that is only available to the owner."
      },
      "safeTransferFrom(address,address,uint256)": {
        "details": "See {IERC721-safeTransferFrom}."
      },
      "safeTransferFrom(address,address,uint256,bytes)": {
        "details": "See {IERC721-safeTransferFrom}."
      },
      "setApprovalForAll(address,bool)": {
        "details": "See {IERC721-setApprovalForAll}."
      },
      "supportsInterface(bytes4)": {
        "details": "See {IERC165-supportsInterface}. Time complexity O(1), guaranteed to always use less than 30 000 gas."
      },
      "symbol()": {
        "details": "See {IERC721Metadata-symbol}."
      },
      "tokenByIndex(uint256)": {
        "details": "See {IERC721Enumerable-tokenByIndex}."
      },
      "tokenOfOwnerByIndex(address,uint256)": {
        "details": "See {IERC721Enumerable-tokenOfOwnerByIndex}."
      },
      "tokenURI(uint256)": {
        "details": "See {IERC721Metadata-tokenURI}."
      },
      "totalSupply()": {
        "details": "See {IERC721Enumerable-totalSupply}."
      },
      "transferFrom(address,address,uint256)": {
        "details": "See {IERC721-transferFrom}."
      },
      "transferOwnership(address)": {
        "details": "Transfers ownership of the contract to a new account (`newOwner`). Can only be called by the current owner."
      }
    },
    "version": 1
  },
  "userdoc": {
    "kind": "user",
    "methods": {},
    "version": 1
  }
}