{
  "contractName": "Strategy",
  "abi": [
    {
      "anonymous": false,
      "inputs": [
        {
          "indexed": true,
          "internalType": "address",
          "name": "previousOwner",
          "type": "address"
        },
        {
          "indexed": true,
          "internalType": "address",
          "name": "newOwner",
          "type": "address"
        }
      ],
      "name": "OwnershipTransferred",
      "type": "event"
    },
    {
      "inputs": [],
      "name": "USDC",
      "outputs": [
        {
          "internalType": "address",
          "name": "",
          "type": "address"
        }
      ],
      "stateMutability": "view",
      "type": "function"
    },
    {
      "inputs": [],
      "name": "USDT",
      "outputs": [
        {
          "internalType": "address",
          "name": "",
          "type": "address"
        }
      ],
      "stateMutability": "view",
      "type": "function"
    },
    {
      "inputs": [],
      "name": "owner",
      "outputs": [
        {
          "internalType": "address",
          "name": "",
          "type": "address"
        }
      ],
      "stateMutability": "view",
      "type": "function"
    },
    {
      "inputs": [],
      "name": "renounceOwnership",
      "outputs": [],
      "stateMutability": "nonpayable",
      "type": "function"
    },
    {
      "inputs": [
        {
          "internalType": "address",
          "name": "",
          "type": "address"
        }
      ],
      "name": "sharesTotalMap",
      "outputs": [
        {
          "internalType": "uint256",
          "name": "",
          "type": "uint256"
        }
      ],
      "stateMutability": "view",
      "type": "function"
    },
    {
      "inputs": [
        {
          "internalType": "address",
          "name": "newOwner",
          "type": "address"
        }
      ],
      "name": "transferOwnership",
      "outputs": [],
      "stateMutability": "nonpayable",
      "type": "function"
    },
    {
      "inputs": [
        {
          "internalType": "address",
          "name": "",
          "type": "address"
        }
      ],
      "name": "wantLockedTotalMap",
      "outputs": [
        {
          "internalType": "uint256",
          "name": "",
          "type": "uint256"
        }
      ],
      "stateMutability": "view",
      "type": "function"
    },
    {
      "inputs": [
        {
          "internalType": "uint256",
          "name": "_wantAmt",
          "type": "uint256"
        },
        {
          "internalType": "address",
          "name": "_wantAddr",
          "type": "address"
        }
      ],
      "name": "deposit",
      "outputs": [
        {
          "internalType": "uint256",
          "name": "",
          "type": "uint256"
        }
      ],
      "stateMutability": "nonpayable",
      "type": "function"
    },
    {
      "inputs": [
        {
          "internalType": "uint256",
          "name": "_wantAmt",
          "type": "uint256"
        },
        {
          "internalType": "address",
          "name": "_wantAddr",
          "type": "address"
        }
      ],
      "name": "withdraw",
      "outputs": [
        {
          "internalType": "uint256",
          "name": "",
          "type": "uint256"
        }
      ],
      "stateMutability": "nonpayable",
      "type": "function"
    },
    {
      "inputs": [
        {
          "internalType": "uint256",
          "name": "_earnAmt",
          "type": "uint256"
        }
      ],
      "name": "earn",
      "outputs": [],
      "stateMutability": "nonpayable",
      "type": "function"
    }
  ],
  "bytecode": "0x608060405234801561001057600080fd5b50600061001b61006e565b600080546001600160a01b0319166001600160a01b0383169081178255604051929350917f8be0079c531659141344cd1fd0a4f28419497f9722a3daafe3b4186f6b6457e0908290a35060018055610072565b3390565b61109d806100816000396000f3fe608060405234801561001057600080fd5b506004361061009d5760003560e01c806389a302711161006657806389a30271146101625780638da5cb5b14610186578063c54e44eb1461018e578063e65a011714610196578063f2fde38b146101b35761009d565b8062f714ce146100a257806308668e26146100e05780632321b3ca146101065780636e553f651461012c578063715018a614610158575b600080fd5b6100ce600480360360408110156100b857600080fd5b50803590602001356001600160a01b03166101d9565b60408051918252519081900360200190f35b6100ce600480360360208110156100f657600080fd5b50356001600160a01b031661058b565b6100ce6004803603602081101561011c57600080fd5b50356001600160a01b031661059d565b6100ce6004803603604081101561014257600080fd5b50803590602001356001600160a01b03166105af565b610160610692565b005b61016a610746565b604080516001600160a01b039092168252519081900360200190f35b61016a61075e565b61016a61076d565b610160600480360360208110156101ac57600080fd5b5035610785565b610160600480360360208110156101c957600080fd5b50356001600160a01b0316610993565b60006101e3610a9d565b6000546001600160a01b03908116911614610245576040805162461bcd60e51b815260206004820181905260248201527f4f776e61626c653a2063616c6c6572206973206e6f7420746865206f776e6572604482015290519081900360640190fd5b6002600154141561029d576040805162461bcd60e51b815260206004820152601f60248201527f5265656e7472616e637947756172643a207265656e7472616e742063616c6c00604482015290519081900360640190fd5b6002600155826102f4576040805162461bcd60e51b815260206004820152601e60248201527f53747261744d6174696353757368693a205f77616e74416d74203c3d20300000604482015290519081900360640190fd5b82826001600160a01b03166370a08231306040518263ffffffff1660e01b815260040180826001600160a01b0316815260200191505060206040518083038186803b15801561034257600080fd5b505afa158015610356573d6000803e3d6000fd5b505050506040513d602081101561036c57600080fd5b505110156103c1576040805162461bcd60e51b815260206004820152601c60248201527f53747261744d6174696353757368693a204e4f5420656e6f7567682e00000000604482015290519081900360640190fd5b6040805163a9059cbb60e01b815233600482015260248101859052905184916001600160a01b0385169163a9059cbb916044808201926020929091908290030181600087803b15801561041357600080fd5b505af1158015610427573d6000803e3d6000fd5b505050506040513d602081101561043d57600080fd5b50506001600160a01b03831660009081526002602090815260408083205460039092528220546104799190610473908590610aa1565b90610b01565b6001600160a01b0385166000908152600360205260409020549091506104a0908390610aa1565b6001600160a01b0385166000908152600260205260409020546104c4908390610aa1565b10156104d8576104d5816001610b43565b90505b6001600160a01b03841660009081526003602052604090205481111561051357506001600160a01b0383166000908152600360205260409020545b6001600160a01b0384166000908152600360205260409020546105369082610b9d565b6001600160a01b0385166000908152600360209081526040808320939093556002905220546105659083610b9d565b6001600160a01b0385166000908152600260205260409020559150506001805592915050565b60026020526000908152604090205481565b60036020526000908152604090205481565b60006105c66001600160a01b038316333086610bdf565b6001600160a01b03821660009081526002602052604090205483901561061e576001600160a01b03831660009081526002602090815260408083205460039092529091205461061b9190610473908790610aa1565b90505b6001600160a01b0383166000908152600360205260409020546106419082610b43565b6001600160a01b0384166000908152600360209081526040808320939093556002905220546106709085610b43565b6001600160a01b03841660009081526002602052604090205590505b92915050565b61069a610a9d565b6000546001600160a01b039081169116146106fc576040805162461bcd60e51b815260206004820181905260248201527f4f776e61626c653a2063616c6c6572206973206e6f7420746865206f776e6572604482015290519081900360640190fd5b600080546040516001600160a01b03909116907f8be0079c531659141344cd1fd0a4f28419497f9722a3daafe3b4186f6b6457e0908390a3600080546001600160a01b0319169055565b737b050d28603a33e036a642033b76d633d657433281565b6000546001600160a01b031690565b7340af8f1383474bcb11496c302ea309dba24c846081565b604080516323b872dd60e01b81523360048201523060248201526044810183905290517340af8f1383474bcb11496c302ea309dba24c8460916323b872dd9160648083019260209291908290030181600087803b1580156107e557600080fd5b505af11580156107f9573d6000803e3d6000fd5b505050506040513d602081101561080f57600080fd5b5050604080516323b872dd60e01b8152336004820152306024820152604481018390529051737b050d28603a33e036a642033b76d633d6574332916323b872dd9160648083019260209291908290030181600087803b15801561087157600080fd5b505af1158015610885573d6000803e3d6000fd5b505050506040513d602081101561089b57600080fd5b50507340af8f1383474bcb11496c302ea309dba24c846060005260026020527fb1b683575c1b3702cce06237e16206b505653e197959715728f7f29fca83da60546108e69082610b43565b60026020527fb1b683575c1b3702cce06237e16206b505653e197959715728f7f29fca83da6055737b050d28603a33e036a642033b76d633d65743326000527f796251ecef1739a4ae97e97b427358fae2b62d3d2a38f0666c2efae0fde0b703546109519082610b43565b737b050d28603a33e036a642033b76d633d657433260005260026020527f796251ecef1739a4ae97e97b427358fae2b62d3d2a38f0666c2efae0fde0b7035550565b61099b610a9d565b6000546001600160a01b039081169116146109fd576040805162461bcd60e51b815260206004820181905260248201527f4f776e61626c653a2063616c6c6572206973206e6f7420746865206f776e6572604482015290519081900360640190fd5b6001600160a01b038116610a425760405162461bcd60e51b8152600401808060200182810382526026815260200180610fd16026913960400191505060405180910390fd5b600080546040516001600160a01b03808516939216917f8be0079c531659141344cd1fd0a4f28419497f9722a3daafe3b4186f6b6457e091a3600080546001600160a01b0319166001600160a01b0392909216919091179055565b3390565b600082610ab05750600061068c565b82820282848281610abd57fe5b0414610afa5760405162461bcd60e51b815260040180806020018281038252602181526020018061101d6021913960400191505060405180910390fd5b9392505050565b6000610afa83836040518060400160405280601a81526020017f536166654d6174683a206469766973696f6e206279207a65726f000000000000815250610c3f565b600082820183811015610afa576040805162461bcd60e51b815260206004820152601b60248201527f536166654d6174683a206164646974696f6e206f766572666c6f770000000000604482015290519081900360640190fd5b6000610afa83836040518060400160405280601e81526020017f536166654d6174683a207375627472616374696f6e206f766572666c6f770000815250610ce1565b604080516001600160a01b0380861660248301528416604482015260648082018490528251808303909101815260849091019091526020810180516001600160e01b03166323b872dd60e01b179052610c39908590610d3b565b50505050565b60008183610ccb5760405162461bcd60e51b81526004018080602001828103825283818151815260200191508051906020019080838360005b83811015610c90578181015183820152602001610c78565b50505050905090810190601f168015610cbd5780820380516001836020036101000a031916815260200191505b509250505060405180910390fd5b506000838581610cd757fe5b0495945050505050565b60008184841115610d335760405162461bcd60e51b8152602060048201818152835160248401528351909283926044909101919085019080838360008315610c90578181015183820152602001610c78565b505050900390565b6060610d90826040518060400160405280602081526020017f5361666545524332303a206c6f772d6c6576656c2063616c6c206661696c6564815250856001600160a01b0316610df19092919063ffffffff16565b805190915015610dec57808060200190516020811015610daf57600080fd5b5051610dec5760405162461bcd60e51b815260040180806020018281038252602a81526020018061103e602a913960400191505060405180910390fd5b505050565b6060610e008484600085610e08565b949350505050565b606082471015610e495760405162461bcd60e51b8152600401808060200182810382526026815260200180610ff76026913960400191505060405180910390fd5b610e5285610f64565b610ea3576040805162461bcd60e51b815260206004820152601d60248201527f416464726573733a2063616c6c20746f206e6f6e2d636f6e7472616374000000604482015290519081900360640190fd5b60006060866001600160a01b031685876040518082805190602001908083835b60208310610ee25780518252601f199092019160209182019101610ec3565b6001836020036101000a03801982511681845116808217855250505050505090500191505060006040518083038185875af1925050503d8060008114610f44576040519150601f19603f3d011682016040523d82523d6000602084013e610f49565b606091505b5091509150610f59828286610f6a565b979650505050505050565b3b151590565b60608315610f79575081610afa565b825115610f895782518084602001fd5b60405162461bcd60e51b8152602060048201818152845160248401528451859391928392604401919085019080838360008315610c90578181015183820152602001610c7856fe4f776e61626c653a206e6577206f776e657220697320746865207a65726f2061646472657373416464726573733a20696e73756666696369656e742062616c616e636520666f722063616c6c536166654d6174683a206d756c7469706c69636174696f6e206f766572666c6f775361666545524332303a204552433230206f7065726174696f6e20646964206e6f742073756363656564a264697066735822122036d1594eaccf76032eb6fe1d09853afaa8f365fe36fe1468b9a3360f5cb181be64736f6c634300060c0033",
  "immutableReferences": {},
  "source": "// SPDX-License-Identifier: MIT\npragma solidity 0.6.12;\n\n\nimport \"../common/BasicStruct.sol\";\n\ncontract Strategy is Ownable, ReentrancyGuard {\n\n    using SafeMath for uint256;\n    using Strings for uint256;\n    using SafeERC20 for IERC20;\n\n    address public constant USDT = 0x40aF8F1383474BCb11496c302Ea309DBA24C8460; // decimals = 6\n    address public constant USDC = 0x7B050D28603a33e036a642033B76D633d6574332; // decimals = 6\n         \n    mapping(address => uint256) public wantLockedTotalMap;  \n    mapping(address => uint256) public sharesTotalMap; \n\n    // Transfer want tokens boboFarm -> strategy\n    function deposit(uint256 _wantAmt, address _wantAddr) external returns (uint256) {\n        IERC20(_wantAddr).safeTransferFrom(\n            address(msg.sender),\n            address(this),\n            _wantAmt\n        );\n\n        // \n        uint256 sharesAdded = _wantAmt;\n        if (wantLockedTotalMap[_wantAddr] > 0) {\n            sharesAdded = _wantAmt\n                .mul(sharesTotalMap[_wantAddr])\n                .div(wantLockedTotalMap[_wantAddr]);\n        }\n        sharesTotalMap[_wantAddr] = sharesTotalMap[_wantAddr].add(sharesAdded);\n        wantLockedTotalMap[_wantAddr] = wantLockedTotalMap[_wantAddr].add(_wantAmt);\n        \n        return sharesAdded;\n    }\n\n    // Transfer want tokens strategy -> boboFarm\n    function withdraw(uint256 _wantAmt, address _wantAddr) public onlyOwner nonReentrant returns (uint256) {\n        require(_wantAmt > 0, \"StratMaticSushi: _wantAmt <= 0\");\n        \n        require(ERC20(_wantAddr).balanceOf(address(this)) >= _wantAmt, \"StratMaticSushi: NOT enough.\");\n        uint256 realAmount = _wantAmt;        \n        IERC20(_wantAddr).transfer(msg.sender, realAmount);\n\n        // 2. 计算出用户占有的股份数，从总数中减去        \n        uint256 sharesRemoved = realAmount.mul(sharesTotalMap[_wantAddr]).div(wantLockedTotalMap[_wantAddr]);\n        if (sharesRemoved.mul(wantLockedTotalMap[_wantAddr]) < realAmount.mul(sharesTotalMap[_wantAddr])) {\n            sharesRemoved = sharesRemoved.add(1);\n        }\n        if (sharesRemoved > sharesTotalMap[_wantAddr]) {\n            sharesRemoved = sharesTotalMap[_wantAddr];\n        }\n        sharesTotalMap[_wantAddr] = sharesTotalMap[_wantAddr].sub(sharesRemoved);\n        wantLockedTotalMap[_wantAddr] = wantLockedTotalMap[_wantAddr].sub(realAmount);\n\n        return sharesRemoved;\n    }\n\n        // Main want token compounding function\n    function earn(uint256 _earnAmt) external {\n        IERC20(USDT).transferFrom(msg.sender, address(this), _earnAmt);\n        IERC20(USDC).transferFrom(msg.sender, address(this), _earnAmt);\n\n        wantLockedTotalMap[USDT] = wantLockedTotalMap[USDT].add(_earnAmt);\n        wantLockedTotalMap[USDC] = wantLockedTotalMap[USDC].add(_earnAmt);\n    }\n}",
  "sourcePath": "/Users/mryu/blockchain/bobo-metaverse/boboswap-contract/contracts/Aurora/StratOnAurora.sol",
  "compiler": {
    "name": "solc",
    "version": "0.6.12+commit.27d51765.Emscripten.clang"
  },
  "schemaVersion": "3.4.3",
  "updatedAt": "2021-09-19T12:33:59.633Z",
  "devdoc": {
    "kind": "dev",
    "methods": {
      "owner()": {
        "details": "Returns the address of the current owner."
      },
      "renounceOwnership()": {
        "details": "Leaves the contract without owner. It will not be possible to call `onlyOwner` functions anymore. Can only be called by the current owner. NOTE: Renouncing ownership will leave the contract without an owner, thereby removing any functionality that is only available to the owner."
      },
      "transferOwnership(address)": {
        "details": "Transfers ownership of the contract to a new account (`newOwner`). Can only be called by the current owner."
      }
    },
    "version": 1
  },
  "userdoc": {
    "kind": "user",
    "methods": {},
    "version": 1
  }
}