{
  "contractName": "Strat4Arb",
  "abi": [
    {
      "inputs": [
        {
          "internalType": "address",
          "name": "_boboAddr",
          "type": "address"
        },
        {
          "internalType": "address",
          "name": "_boboFarmer",
          "type": "address"
        }
      ],
      "stateMutability": "nonpayable",
      "type": "constructor"
    },
    {
      "anonymous": false,
      "inputs": [
        {
          "indexed": true,
          "internalType": "address",
          "name": "previousOwner",
          "type": "address"
        },
        {
          "indexed": true,
          "internalType": "address",
          "name": "newOwner",
          "type": "address"
        }
      ],
      "name": "OwnershipTransferred",
      "type": "event"
    },
    {
      "inputs": [],
      "name": "BOBO",
      "outputs": [
        {
          "internalType": "address",
          "name": "",
          "type": "address"
        }
      ],
      "stateMutability": "view",
      "type": "function"
    },
    {
      "inputs": [],
      "name": "BasePercent",
      "outputs": [
        {
          "internalType": "uint256",
          "name": "",
          "type": "uint256"
        }
      ],
      "stateMutability": "view",
      "type": "function"
    },
    {
      "inputs": [],
      "name": "SUSHI",
      "outputs": [
        {
          "internalType": "address",
          "name": "",
          "type": "address"
        }
      ],
      "stateMutability": "view",
      "type": "function"
    },
    {
      "inputs": [],
      "name": "USDC",
      "outputs": [
        {
          "internalType": "address",
          "name": "",
          "type": "address"
        }
      ],
      "stateMutability": "view",
      "type": "function"
    },
    {
      "inputs": [],
      "name": "USDT",
      "outputs": [
        {
          "internalType": "address",
          "name": "",
          "type": "address"
        }
      ],
      "stateMutability": "view",
      "type": "function"
    },
    {
      "inputs": [],
      "name": "WMATIC",
      "outputs": [
        {
          "internalType": "address",
          "name": "",
          "type": "address"
        }
      ],
      "stateMutability": "view",
      "type": "function"
    },
    {
      "inputs": [],
      "name": "burnedBOBORate",
      "outputs": [
        {
          "internalType": "uint256",
          "name": "",
          "type": "uint256"
        }
      ],
      "stateMutability": "view",
      "type": "function"
    },
    {
      "inputs": [],
      "name": "burnedBOBORateUL",
      "outputs": [
        {
          "internalType": "uint256",
          "name": "",
          "type": "uint256"
        }
      ],
      "stateMutability": "view",
      "type": "function"
    },
    {
      "inputs": [],
      "name": "burnedTokenAddress",
      "outputs": [
        {
          "internalType": "address",
          "name": "",
          "type": "address"
        }
      ],
      "stateMutability": "view",
      "type": "function"
    },
    {
      "inputs": [],
      "name": "curFactory",
      "outputs": [
        {
          "internalType": "address",
          "name": "",
          "type": "address"
        }
      ],
      "stateMutability": "view",
      "type": "function"
    },
    {
      "inputs": [],
      "name": "curMasterChef",
      "outputs": [
        {
          "internalType": "address",
          "name": "",
          "type": "address"
        }
      ],
      "stateMutability": "view",
      "type": "function"
    },
    {
      "inputs": [
        {
          "internalType": "address",
          "name": "",
          "type": "address"
        },
        {
          "internalType": "address",
          "name": "",
          "type": "address"
        }
      ],
      "name": "curPidMap",
      "outputs": [
        {
          "internalType": "uint256",
          "name": "",
          "type": "uint256"
        }
      ],
      "stateMutability": "view",
      "type": "function"
    },
    {
      "inputs": [],
      "name": "curRouter",
      "outputs": [
        {
          "internalType": "address",
          "name": "",
          "type": "address"
        }
      ],
      "stateMutability": "view",
      "type": "function"
    },
    {
      "inputs": [],
      "name": "deadAddr",
      "outputs": [
        {
          "internalType": "address",
          "name": "",
          "type": "address"
        }
      ],
      "stateMutability": "view",
      "type": "function"
    },
    {
      "inputs": [],
      "name": "devFundAddr",
      "outputs": [
        {
          "internalType": "address",
          "name": "",
          "type": "address"
        }
      ],
      "stateMutability": "view",
      "type": "function"
    },
    {
      "inputs": [],
      "name": "devFundFee",
      "outputs": [
        {
          "internalType": "uint256",
          "name": "",
          "type": "uint256"
        }
      ],
      "stateMutability": "view",
      "type": "function"
    },
    {
      "inputs": [],
      "name": "devFundFeeUL",
      "outputs": [
        {
          "internalType": "uint256",
          "name": "",
          "type": "uint256"
        }
      ],
      "stateMutability": "view",
      "type": "function"
    },
    {
      "inputs": [],
      "name": "earnedTokenOne",
      "outputs": [
        {
          "internalType": "address",
          "name": "",
          "type": "address"
        }
      ],
      "stateMutability": "view",
      "type": "function"
    },
    {
      "inputs": [],
      "name": "earnedTokenTwo",
      "outputs": [
        {
          "internalType": "address",
          "name": "",
          "type": "address"
        }
      ],
      "stateMutability": "view",
      "type": "function"
    },
    {
      "inputs": [],
      "name": "govAddress",
      "outputs": [
        {
          "internalType": "address",
          "name": "",
          "type": "address"
        }
      ],
      "stateMutability": "view",
      "type": "function"
    },
    {
      "inputs": [],
      "name": "minFarmAmount",
      "outputs": [
        {
          "internalType": "uint256",
          "name": "",
          "type": "uint256"
        }
      ],
      "stateMutability": "view",
      "type": "function"
    },
    {
      "inputs": [],
      "name": "owner",
      "outputs": [
        {
          "internalType": "address",
          "name": "",
          "type": "address"
        }
      ],
      "stateMutability": "view",
      "type": "function"
    },
    {
      "inputs": [],
      "name": "renounceOwnership",
      "outputs": [],
      "stateMutability": "nonpayable",
      "type": "function"
    },
    {
      "inputs": [
        {
          "internalType": "address",
          "name": "",
          "type": "address"
        }
      ],
      "name": "sharesTotalMap",
      "outputs": [
        {
          "internalType": "uint256",
          "name": "",
          "type": "uint256"
        }
      ],
      "stateMutability": "view",
      "type": "function"
    },
    {
      "inputs": [],
      "name": "sushiFactory",
      "outputs": [
        {
          "internalType": "address",
          "name": "",
          "type": "address"
        }
      ],
      "stateMutability": "view",
      "type": "function"
    },
    {
      "inputs": [],
      "name": "sushiMasterChef",
      "outputs": [
        {
          "internalType": "address",
          "name": "",
          "type": "address"
        }
      ],
      "stateMutability": "view",
      "type": "function"
    },
    {
      "inputs": [],
      "name": "sushiRouter",
      "outputs": [
        {
          "internalType": "address",
          "name": "",
          "type": "address"
        }
      ],
      "stateMutability": "view",
      "type": "function"
    },
    {
      "inputs": [],
      "name": "totalBurnedBOT",
      "outputs": [
        {
          "internalType": "uint256",
          "name": "",
          "type": "uint256"
        }
      ],
      "stateMutability": "view",
      "type": "function"
    },
    {
      "inputs": [
        {
          "internalType": "address",
          "name": "newOwner",
          "type": "address"
        }
      ],
      "name": "transferOwnership",
      "outputs": [],
      "stateMutability": "nonpayable",
      "type": "function"
    },
    {
      "inputs": [
        {
          "internalType": "address",
          "name": "",
          "type": "address"
        }
      ],
      "name": "wantLockedTotalMap",
      "outputs": [
        {
          "internalType": "uint256",
          "name": "",
          "type": "uint256"
        }
      ],
      "stateMutability": "view",
      "type": "function"
    },
    {
      "inputs": [
        {
          "internalType": "address",
          "name": "_tokenAddr",
          "type": "address"
        },
        {
          "internalType": "uint256",
          "name": "_totalShare",
          "type": "uint256"
        },
        {
          "internalType": "uint256",
          "name": "_totalLocked",
          "type": "uint256"
        }
      ],
      "name": "initTotalShareAndLocked",
      "outputs": [],
      "stateMutability": "nonpayable",
      "type": "function"
    },
    {
      "inputs": [
        {
          "internalType": "address",
          "name": "_tokenAddr",
          "type": "address"
        }
      ],
      "name": "clearAndTransferTokens",
      "outputs": [
        {
          "internalType": "uint256",
          "name": "",
          "type": "uint256"
        },
        {
          "internalType": "uint256",
          "name": "",
          "type": "uint256"
        }
      ],
      "stateMutability": "nonpayable",
      "type": "function"
    },
    {
      "inputs": [
        {
          "internalType": "address",
          "name": "_factory",
          "type": "address"
        },
        {
          "internalType": "address",
          "name": "_router",
          "type": "address"
        },
        {
          "internalType": "address",
          "name": "_masterChef",
          "type": "address"
        },
        {
          "internalType": "address",
          "name": "_earnedTokenAddrOne",
          "type": "address"
        },
        {
          "internalType": "address",
          "name": "_earnedTokenAddrTwo",
          "type": "address"
        },
        {
          "internalType": "address[]",
          "name": "_token0s",
          "type": "address[]"
        },
        {
          "internalType": "address[]",
          "name": "_token1s",
          "type": "address[]"
        },
        {
          "internalType": "uint256[]",
          "name": "_pids",
          "type": "uint256[]"
        }
      ],
      "name": "setNewSwapInfo",
      "outputs": [],
      "stateMutability": "nonpayable",
      "type": "function"
    },
    {
      "inputs": [
        {
          "internalType": "address",
          "name": "_token0",
          "type": "address"
        },
        {
          "internalType": "address",
          "name": "_token1",
          "type": "address"
        }
      ],
      "name": "getBalances",
      "outputs": [
        {
          "internalType": "uint256",
          "name": "",
          "type": "uint256"
        },
        {
          "internalType": "uint256",
          "name": "",
          "type": "uint256"
        }
      ],
      "stateMutability": "view",
      "type": "function"
    },
    {
      "inputs": [
        {
          "internalType": "uint256",
          "name": "_wantAmt",
          "type": "uint256"
        },
        {
          "internalType": "address",
          "name": "_wantAddr",
          "type": "address"
        }
      ],
      "name": "deposit",
      "outputs": [
        {
          "internalType": "uint256",
          "name": "",
          "type": "uint256"
        }
      ],
      "stateMutability": "nonpayable",
      "type": "function"
    },
    {
      "inputs": [],
      "name": "farm",
      "outputs": [],
      "stateMutability": "nonpayable",
      "type": "function"
    },
    {
      "inputs": [],
      "name": "earn",
      "outputs": [],
      "stateMutability": "nonpayable",
      "type": "function"
    },
    {
      "inputs": [
        {
          "internalType": "uint256",
          "name": "_wantAmt",
          "type": "uint256"
        },
        {
          "internalType": "address",
          "name": "_wantAddr",
          "type": "address"
        }
      ],
      "name": "withdraw",
      "outputs": [
        {
          "internalType": "uint256",
          "name": "",
          "type": "uint256"
        }
      ],
      "stateMutability": "nonpayable",
      "type": "function"
    },
    {
      "inputs": [
        {
          "internalType": "uint256",
          "name": "_devFundFee",
          "type": "uint256"
        }
      ],
      "name": "setDevFundFee",
      "outputs": [],
      "stateMutability": "nonpayable",
      "type": "function"
    },
    {
      "inputs": [
        {
          "internalType": "uint256",
          "name": "_burnedBOBORate",
          "type": "uint256"
        }
      ],
      "name": "setBurnedBoboRate",
      "outputs": [],
      "stateMutability": "nonpayable",
      "type": "function"
    },
    {
      "inputs": [
        {
          "internalType": "address",
          "name": "_govAddress",
          "type": "address"
        }
      ],
      "name": "setGov",
      "outputs": [],
      "stateMutability": "nonpayable",
      "type": "function"
    },
    {
      "inputs": [
        {
          "internalType": "address",
          "name": "_devFundAddr",
          "type": "address"
        }
      ],
      "name": "setDevFundAddr",
      "outputs": [],
      "stateMutability": "nonpayable",
      "type": "function"
    },
    {
      "inputs": [
        {
          "internalType": "address",
          "name": "_addToken",
          "type": "address"
        }
      ],
      "name": "addFarmToken",
      "outputs": [
        {
          "internalType": "bool",
          "name": "",
          "type": "bool"
        }
      ],
      "stateMutability": "nonpayable",
      "type": "function"
    },
    {
      "inputs": [
        {
          "internalType": "address",
          "name": "_delToken",
          "type": "address"
        }
      ],
      "name": "delFarmToken",
      "outputs": [
        {
          "internalType": "bool",
          "name": "",
          "type": "bool"
        }
      ],
      "stateMutability": "nonpayable",
      "type": "function"
    },
    {
      "inputs": [],
      "name": "getFarmTokenLength",
      "outputs": [
        {
          "internalType": "uint256",
          "name": "",
          "type": "uint256"
        }
      ],
      "stateMutability": "view",
      "type": "function"
    },
    {
      "inputs": [
        {
          "internalType": "address",
          "name": "_farmToken",
          "type": "address"
        }
      ],
      "name": "isFarmToken",
      "outputs": [
        {
          "internalType": "bool",
          "name": "",
          "type": "bool"
        }
      ],
      "stateMutability": "view",
      "type": "function"
    },
    {
      "inputs": [
        {
          "internalType": "uint256",
          "name": "_index",
          "type": "uint256"
        }
      ],
      "name": "getFarmToken",
      "outputs": [
        {
          "internalType": "address",
          "name": "",
          "type": "address"
        }
      ],
      "stateMutability": "view",
      "type": "function"
    }
  ],
  "bytecode": "0x6080604052620f4240600355600480546001600160a01b0319908116730d500b1d8e8ef31e21c99d1db9a6444d3adf127017909155600580548216730b3f868e0be5597d5db7feb59e1cadbb0fdda50a179055600780548216731b02da8cb0d097eb8d57a175b88c7d8b4799750617905560088054821673c35dadb65012ec5796536bd9864ed8773abc74c417905560098054909116730769fd68dfb93167989c6f7254cd0d766fb2841f1790556000601055611388601355348015620000c557600080fd5b506040516200517d3803806200517d83398181016040526040811015620000eb57600080fd5b50805160209091015160006200010062000260565b600080546001600160a01b0319166001600160a01b038316908117825560405192935091600080516020620050fd833981519152908290a35060018055600b8054336001600160a01b031991821681179092556012805482169092179091556002805482166001600160a01b038516908117909155600680549092161790556200019e73c2132d05d31c914a87c6611c10748aeb04b58e8f62000264565b50620001be732791bca1f2de4661ed88a30c99a7a9449aa8417462000264565b5060087f0a3a08017c49ad668498c8ee5f94e1b27b01dd1c4a8943c33595d55475312b6081905573c2132d05d31c914a87c6611c10748aeb04b58e8f6000527f474004c7927b2560dd97c5daeafd0716bb5ab37068c353c099c4171ac04e85226020527fd4f88f3872da3c1ea3dc9d8a09c2badf7a7b6d96e99da64c5de886aa4b746116556200024e81620002e5565b62000258620003e3565b505062000a41565b3390565b600b546000906001600160a01b03163314620002c7576040805162461bcd60e51b815260206004820152601560248201527f53747261744d6174696353757368693a2021676f760000000000000000000000604482015290519081900360640190fd5b620002df600c83620005ab60201b62001d1d1760201c565b92915050565b620002ef62000260565b6000546001600160a01b0390811691161462000352576040805162461bcd60e51b815260206004820181905260248201527f4f776e61626c653a2063616c6c6572206973206e6f7420746865206f776e6572604482015290519081900360640190fd5b6001600160a01b038116620003995760405162461bcd60e51b8152600401808060200182810382526026815260200180620050b16026913960400191505060405180910390fd5b600080546040516001600160a01b0380851693921691600080516020620050fd83398151915291a3600080546001600160a01b0319166001600160a01b0392909216919091179055565b6007546200041f9073c2132d05d31c914a87c6611c10748aeb04b58e8f906001600160a01b0316600019620005c9602090811b62001d3217901c565b6007546200045b90732791bca1f2de4661ed88a30c99a7a9449aa84174906001600160a01b0316600019620005c9602090811b62001d3217901c565b6007546200049790730b3f868e0be5597d5db7feb59e1cadbb0fdda50a906001600160a01b0316600019620005c9602090811b62001d3217901c565b600754620004d390730d500b1d8e8ef31e21c99d1db9a6444d3adf1270906001600160a01b0316600019620005c9602090811b62001d3217901c565b6008546040805163e6a4390560e01b815273c2132d05d31c914a87c6611c10748aeb04b58e8f6004820152732791bca1f2de4661ed88a30c99a7a9449aa84174602482015290516000926001600160a01b03169163e6a43905916044808301926020929190829003018186803b1580156200054d57600080fd5b505afa15801562000562573d6000803e3d6000fd5b505050506040513d60208110156200057957600080fd5b5051600754909150620005a8906001600160a01b038084169116600019620005c9602090811b62001d3217901c565b50565b6000620005c2836001600160a01b038416620006ed565b9392505050565b80158062000653575060408051636eb1769f60e11b81523060048201526001600160a01b03848116602483015291519185169163dd62ed3e91604480820192602092909190829003018186803b1580156200062357600080fd5b505afa15801562000638573d6000803e3d6000fd5b505050506040513d60208110156200064f57600080fd5b5051155b620006905760405162461bcd60e51b8152600401808060200182810382526036815260200180620051476036913960400191505060405180910390fd5b604080516001600160a01b038416602482015260448082018490528251808303909101815260649091019091526020810180516001600160e01b0390811663095ea7b360e01b17909152620006e89185916200073c16565b505050565b6000620006fb8383620007f8565b6200073357508154600181810184556000848152602080822090930184905584548482528286019093526040902091909155620002df565b506000620002df565b606062000798826040518060400160405280602081526020017f5361666545524332303a206c6f772d6c6576656c2063616c6c206661696c6564815250856001600160a01b03166200081060201b62001e4a179092919060201c565b805190915015620006e857808060200190516020811015620007b957600080fd5b5051620006e85760405162461bcd60e51b815260040180806020018281038252602a8152602001806200511d602a913960400191505060405180910390fd5b60009081526001919091016020526040902054151590565b606062000821848460008562000829565b949350505050565b6060824710156200086c5760405162461bcd60e51b8152600401808060200182810382526026815260200180620050d76026913960400191505060405180910390fd5b620008778562000991565b620008c9576040805162461bcd60e51b815260206004820152601d60248201527f416464726573733a2063616c6c20746f206e6f6e2d636f6e7472616374000000604482015290519081900360640190fd5b60006060866001600160a01b031685876040518082805190602001908083835b602083106200090a5780518252601f199092019160209182019101620008e9565b6001836020036101000a03801982511681845116808217855250505050505090500191505060006040518083038185875af1925050503d80600081146200096e576040519150601f19603f3d011682016040523d82523d6000602084013e62000973565b606091505b5090925090506200098682828662000997565b979650505050505050565b3b151590565b60608315620009a8575081620005c2565b825115620009b95782518084602001fd5b8160405162461bcd60e51b81526004018080602001828103825283818151815260200191508051906020019080838360005b8381101562000a05578181015183820152602001620009eb565b50505050905090810190601f16801562000a335780820380516001836020036101000a031916815260200191505b509250505060405180910390fd5b6146608062000a516000396000f3fe608060405234801561001057600080fd5b50600436106102945760003560e01c80637d5bb27211610167578063ab560e10116100ce578063cfad57a211610087578063cfad57a2146107be578063d389800f146107e4578063db22d399146107ec578063ded33561146107f4578063f14869161461081a578063f2fde38b1461082257610294565b8063ab560e1014610770578063adb92d9c14610778578063b51f01b214610780578063b635b8ae146107a6578063c54e44eb146107ae578063c9bbd04a146107b657610294565b8063937ab63a11610120578063937ab63a14610740578063969ce1db146107485780639a0381cb146107505780639eedc49214610758578063a2eddfb814610760578063a59625241461076857610294565b80637d5bb2721461050657806389a302711461050e5780638b814ff8146105165780638d3b5ed8146106ed5780638da5cb5b1461071b57806390358db61461072357610294565b806346008a071161020b5780636e553f65116101c45780636e553f65146104445780637068d3cf14610470578063715018a6146104aa57806377537937146104b2578063781c74d0146104d85780637cdcd2fe146104fe57610294565b806346008a07146103ff5780634d95cad91461040757806350f0522c1461040f5780636bba77d0146104175780636d13582c1461041f5780636e4ae94e1461042757610294565b80630bdf862a1161025d5780630bdf862a1461039c5780630e7e2dd9146103a457806314e6ac09146103ac57806322984b24146103c95780632321b3ca146103d157806336e9332d146103f757610294565b8062f714ce14610299578063021bdc62146102d7578063045d46c2146102fb578063082ceeb31461034257806308668e2614610376575b600080fd5b6102c5600480360360408110156102af57600080fd5b50803590602001356001600160a01b0316610848565b60408051918252519081900360200190f35b6102df610b62565b604080516001600160a01b039092168252519081900360200190f35b6103296004803603604081101561031157600080fd5b506001600160a01b0381358116916020013516610b71565b6040805192835260208301919091528051918290030190f35b6103746004803603606081101561035857600080fd5b506001600160a01b038135169060208101359060400135610e6d565b005b6102c56004803603602081101561038c57600080fd5b50356001600160a01b0316610eed565b6102c5610eff565b6102c5610f05565b610374600480360360208110156103c257600080fd5b5035610f0b565b6102df610f9f565b6102c5600480360360208110156103e757600080fd5b50356001600160a01b0316610fb7565b610374610fc9565b6102df611034565b6102df611043565b6102c561105b565b6102c5611061565b6102df611072565b6102df6004803603602081101561043d57600080fd5b503561108a565b6102c56004803603604081101561045a57600080fd5b50803590602001356001600160a01b031661114a565b6104966004803603602081101561048657600080fd5b50356001600160a01b03166112e5565b604080519115158252519081900360200190f35b610374611340565b610329600480360360208110156104c857600080fd5b50356001600160a01b03166113e2565b610496600480360360208110156104ee57600080fd5b50356001600160a01b031661162e565b6102df61163b565b6102c561164a565b6102df611650565b610374600480360361010081101561052d57600080fd5b6001600160a01b03823581169260208101358216926040820135831692606083013581169260808101359091169181019060c0810160a0820135600160201b81111561057857600080fd5b82018360208201111561058a57600080fd5b803590602001918460208302840111600160201b831117156105ab57600080fd5b9190808060200260200160405190810160405280939291908181526020018383602002808284376000920191909152509295949360208101935035915050600160201b8111156105fa57600080fd5b82018360208201111561060c57600080fd5b803590602001918460208302840111600160201b8311171561062d57600080fd5b9190808060200260200160405190810160405280939291908181526020018383602002808284376000920191909152509295949360208101935035915050600160201b81111561067c57600080fd5b82018360208201111561068e57600080fd5b803590602001918460208302840111600160201b831117156106af57600080fd5b919080806020026020016040519081016040528093929190818152602001838360200280828437600092019190915250929550611668945050505050565b6102c56004803603604081101561070357600080fd5b506001600160a01b038135811691602001351661193e565b6102df61195b565b6103746004803603602081101561073957600080fd5b503561196a565b6102df6119fe565b6102df611a0d565b6102c5611a1c565b6102c5611a22565b6102df611a28565b6102df611a37565b6102df611a3d565b6102df611a55565b6104966004803603602081101561079657600080fd5b50356001600160a01b0316611a64565b6102c5611abf565b6102df611ac5565b6102df611add565b610374600480360360208110156107d457600080fd5b50356001600160a01b0316611af5565b610374611b64565b6102df611b98565b6103746004803603602081101561080a57600080fd5b50356001600160a01b0316611ba7565b6102df611c16565b6103746004803603602081101561083857600080fd5b50356001600160a01b0316611c25565b6000610852611e61565b6000546001600160a01b039081169116146108a2576040805162461bcd60e51b815260206004820181905260248201526000805160206145ab833981519152604482015290519081900360640190fd5b600260015414156108fa576040805162461bcd60e51b815260206004820152601f60248201527f5265656e7472616e637947756172643a207265656e7472616e742063616c6c00604482015290519081900360640190fd5b600260015582610951576040805162461bcd60e51b815260206004820152601e60248201527f53747261744d6174696353757368693a205f77616e74416d74203c3d20300000604482015290519081900360640190fd5b61095a8261162e565b6109ab576040805162461bcd60e51b815260206004820181905260248201527f53747261744d6174696353757368693a204e4f54206661726d20746f6b656e2e604482015290519081900360640190fd5b60006001600160a01b03831673c2132d05d31c914a87c6611c10748aeb04b58e8f146109eb5773c2132d05d31c914a87c6611c10748aeb04b58e8f610a01565b732791bca1f2de4661ed88a30c99a7a9449aa841745b90506000610a10858584611e65565b6001600160a01b0385166000908152600e6020908152604080832054600f9092528220549293509091610a4f9190610a499085906123ff565b90612458565b6001600160a01b0386166000908152600f6020526040902054909150610a769083906123ff565b6001600160a01b0386166000908152600e6020526040902054610a9a9083906123ff565b1015610aae57610aab81600161249a565b90505b6001600160a01b0385166000908152600f6020526040902054811115610ae957506001600160a01b0384166000908152600f60205260409020545b6001600160a01b0385166000908152600f6020526040902054610b0c90826124f4565b6001600160a01b0386166000908152600f6020908152604080832093909355600e90522054610b3b90836124f4565b6001600160a01b0386166000908152600e6020526040902055925050506001805592915050565b6004546001600160a01b031681565b6008546040805163e6a4390560e01b81526001600160a01b038581166004830152848116602483015291516000938493849391169163e6a4390591604480820192602092909190829003018186803b158015610bcc57600080fd5b505afa158015610be0573d6000803e3d6000fd5b505050506040513d6020811015610bf657600080fd5b5051604080516318160ddd60e01b815290519192506000916001600160a01b038416916318160ddd916004808301926020929190829003018186803b158015610c3e57600080fd5b505afa158015610c52573d6000803e3d6000fd5b505050506040513d6020811015610c6857600080fd5b50516009546001600160a01b038881166000908152600a602090815260408083208b851684529091528082205481516393f1a40b60e01b815260048101919091523060248201528151959650919492909316926393f1a40b92604480840193829003018186803b158015610cdb57600080fd5b505afa158015610cef573d6000803e3d6000fd5b505050506040513d6040811015610d0557600080fd5b505160408051630240bc6b60e21b8152905191925060009182916001600160a01b03871691630902f1ac91600480820192606092909190829003018186803b158015610d5057600080fd5b505afa158015610d64573d6000803e3d6000fd5b505050506040513d6060811015610d7a57600080fd5b50805160209182015160408051630dfe168160e01b815290516dffffffffffffffffffffffffffff93841696509290911693506000926001600160a01b03891692630dfe1681926004808201939291829003018186803b158015610ddd57600080fd5b505afa158015610df1573d6000803e3d6000fd5b505050506040513d6020811015610e0757600080fd5b505190506001600160a01b03808216908b161415610e4a57610e2d85610a4985876123ff565b610e3b86610a4985886123ff565b97509750505050505050610e66565b610e5885610a4984876123ff565b610e3b86610a4986886123ff565b9250929050565b610e75611e61565b6000546001600160a01b03908116911614610ec5576040805162461bcd60e51b815260206004820181905260248201526000805160206145ab833981519152604482015290519081900360640190fd5b6001600160a01b039092166000908152600f6020908152604080832093909355600e90522055565b600e6020526000908152604090205481565b60105481565b6107d081565b600b546001600160a01b03163314610f58576040805162461bcd60e51b815260206004820152601560248201526000805160206144bc833981519152604482015290519081900360640190fd5b6107d0811115610f9a576040805162461bcd60e51b81526020600482015260086024820152670e8dede40d0d2ced60c31b604482015290519081900360640190fd5b601355565b73c35dadb65012ec5796536bd9864ed8773abc74c481565b600f6020526000908152604090205481565b60026001541415611021576040805162461bcd60e51b815260206004820152601f60248201527f5265656e7472616e637947756172643a207265656e7472616e742063616c6c00604482015290519081900360640190fd5b600260015561102e612536565b60018055565b600b546001600160a01b031681565b730d500b1d8e8ef31e21c99d1db9a6444d3adf127081565b60115481565b600061106d600c612568565b905090565b731b02da8cb0d097eb8d57a175b88c7d8b4799750681565b600b546000906001600160a01b031633146110da576040805162461bcd60e51b815260206004820152601560248201526000805160206144bc833981519152604482015290519081900360640190fd5b60016110e4611061565b03821115611139576040805162461bcd60e51b815260206004820181905260248201527f537461744d647843616b653a20696e646578206f7574206f6620626f756e6473604482015290519081900360640190fd5b611144600c83612573565b92915050565b6000611154611e61565b6000546001600160a01b039081169116146111a4576040805162461bcd60e51b815260206004820181905260248201526000805160206145ab833981519152604482015290519081900360640190fd5b6111ad8261162e565b6111fe576040805162461bcd60e51b815260206004820181905260248201527f53747261744d6174696353757368693a204e4f54206661726d20746f6b656e2e604482015290519081900360640190fd5b6112136001600160a01b03831633308661257f565b6001600160a01b0382166000908152600e602052604090205483901561126b576001600160a01b0383166000908152600e6020908152604080832054600f909252909120546112689190610a499087906123ff565b90505b6001600160a01b0383166000908152600f602052604090205461128e908261249a565b6001600160a01b0384166000908152600f6020908152604080832093909355600e905220546112bd908561249a565b6001600160a01b0384166000908152600e60205260409020556112de612536565b9392505050565b600b546000906001600160a01b03163314611335576040805162461bcd60e51b815260206004820152601560248201526000805160206144bc833981519152604482015290519081900360640190fd5b611144600c836125df565b611348611e61565b6000546001600160a01b03908116911614611398576040805162461bcd60e51b815260206004820181905260248201526000805160206145ab833981519152604482015290519081900360640190fd5b600080546040516001600160a01b03909116907f8be0079c531659141344cd1fd0a4f28419497f9722a3daafe3b4186f6b6457e0908390a3600080546001600160a01b0319169055565b6000806113ed611e61565b6000546001600160a01b0390811691161461143d576040805162461bcd60e51b815260206004820181905260248201526000805160206145ab833981519152604482015290519081900360640190fd5b6114468361162e565b611497576040805162461bcd60e51b815260206004820181905260248201527f53747261744d6174696353757368693a204e4f54206661726d20746f6b656e2e604482015290519081900360640190fd5b60006001600160a01b03841673c2132d05d31c914a87c6611c10748aeb04b58e8f146114d75773c2132d05d31c914a87c6611c10748aeb04b58e8f6114ed565b732791bca1f2de4661ed88a30c99a7a9449aa841745b90506114f984826125f4565b6115038482613558565b6000846001600160a01b03166370a08231306040518263ffffffff1660e01b815260040180826001600160a01b0316815260200191505060206040518083038186803b15801561155257600080fd5b505afa158015611566573d6000803e3d6000fd5b505050506040513d602081101561157c57600080fd5b505190508015611602576040805163a9059cbb60e01b81523360048201526024810183905290516001600160a01b0387169163a9059cbb9160448083019260209291908290030181600087803b1580156115d557600080fd5b505af11580156115e9573d6000803e3d6000fd5b505050506040513d60208110156115ff57600080fd5b50505b505050506001600160a01b03166000908152600f6020908152604080832054600e909252909120549091565b6000611144600c83613730565b6005546001600160a01b031681565b611f4081565b732791bca1f2de4661ed88a30c99a7a9449aa8417481565b600b546001600160a01b031633146116b5576040805162461bcd60e51b815260206004820152601560248201526000805160206144bc833981519152604482015290519081900360640190fd5b6008546001600160a01b038981169116148015906116e157506007546001600160a01b03888116911614155b80156116fb57506009546001600160a01b03878116911614155b6117365760405162461bcd60e51b81526004018080602001828103825260398152602001806144376039913960400191505060405180910390fd5b81518351148015611748575080518351145b6117835760405162461bcd60e51b81526004018080602001828103825260488152602001806144dc6048913960600191505060405180910390fd5b6117b573c2132d05d31c914a87c6611c10748aeb04b58e8f732791bca1f2de4661ed88a30c99a7a9449aa84174613558565b600880546001600160a01b03199081166001600160a01b038b8116919091179092556007805482168a84161790556009805482168984161790556004805482168884161790556005805490911691861691909117905560005b81518110156119235781818151811061182357fe5b6020026020010151600a600086848151811061183b57fe5b60200260200101516001600160a01b03166001600160a01b03168152602001908152602001600020600085848151811061187157fe5b60200260200101516001600160a01b03166001600160a01b03168152602001908152602001600020819055508181815181106118a957fe5b6020026020010151600a60008584815181106118c157fe5b60200260200101516001600160a01b03166001600160a01b0316815260200190815260200160002060008684815181106118f757fe5b6020908102919091018101516001600160a01b031682528101919091526040016000205560010161180e565b5061192c613745565b611934612536565b5050505050505050565b600a60209081526000928352604080842090915290825290205481565b6000546001600160a01b031690565b600b546001600160a01b031633146119b7576040805162461bcd60e51b815260206004820152601560248201526000805160206144bc833981519152604482015290519081900360640190fd5b611f408111156119f9576040805162461bcd60e51b81526020600482015260086024820152670e8dede40d0d2ced60c31b604482015290519081900360640190fd5b601055565b6002546001600160a01b031681565b6009546001600160a01b031681565b60035481565b61271081565b6008546001600160a01b031681565b61dead81565b730b3f868e0be5597d5db7feb59e1cadbb0fdda50a81565b6007546001600160a01b031681565b600b546000906001600160a01b03163314611ab4576040805162461bcd60e51b815260206004820152601560248201526000805160206144bc833981519152604482015290519081900360640190fd5b611144600c83611d1d565b60135481565b73c2132d05d31c914a87c6611c10748aeb04b58e8f81565b730769fd68dfb93167989c6f7254cd0d766fb2841f81565b600b546001600160a01b03163314611b42576040805162461bcd60e51b815260206004820152601560248201526000805160206144bc833981519152604482015290519081900360640190fd5b600b80546001600160a01b0319166001600160a01b0392909216919091179055565b611b9673c2132d05d31c914a87c6611c10748aeb04b58e8f732791bca1f2de4661ed88a30c99a7a9449aa841746125f4565b565b6012546001600160a01b031681565b600b546001600160a01b03163314611bf4576040805162461bcd60e51b815260206004820152601560248201526000805160206144bc833981519152604482015290519081900360640190fd5b601280546001600160a01b0319166001600160a01b0392909216919091179055565b6006546001600160a01b031681565b611c2d611e61565b6000546001600160a01b03908116911614611c7d576040805162461bcd60e51b815260206004820181905260248201526000805160206145ab833981519152604482015290519081900360640190fd5b6001600160a01b038116611cc25760405162461bcd60e51b81526004018080602001828103825260268152602001806144706026913960400191505060405180910390fd5b600080546040516001600160a01b03808516939216917f8be0079c531659141344cd1fd0a4f28419497f9722a3daafe3b4186f6b6457e091a3600080546001600160a01b0319166001600160a01b0392909216919091179055565b60006112de836001600160a01b0384166138c4565b801580611db8575060408051636eb1769f60e11b81523060048201526001600160a01b03848116602483015291519185169163dd62ed3e91604480820192602092909190829003018186803b158015611d8a57600080fd5b505afa158015611d9e573d6000803e3d6000fd5b505050506040513d6020811015611db457600080fd5b5051155b611df35760405162461bcd60e51b81526004018080602001828103825260368152602001806145f56036913960400191505060405180910390fd5b604080516001600160a01b038416602482015260448082018490528251808303909101815260649091019091526020810180516001600160e01b031663095ea7b360e01b179052611e4590849061390e565b505050565b6060611e5984846000856139bf565b949350505050565b3390565b600080836001600160a01b03166370a08231306040518263ffffffff1660e01b815260040180826001600160a01b0316815260200191505060206040518083038186803b158015611eb557600080fd5b505afa158015611ec9573d6000803e3d6000fd5b505050506040513d6020811015611edf57600080fd5b50519050848110156123e257846000611ef88686610b71565b509050818110611fce57611f0e82828888613b1b565b86866001600160a01b03166370a08231306040518263ffffffff1660e01b815260040180826001600160a01b0316815260200191505060206040518083038186803b158015611f5c57600080fd5b505afa158015611f70573d6000803e3d6000fd5b505050506040513d6020811015611f8657600080fd5b50511015611fc55760405162461bcd60e51b815260040180806020018281038252603b815260200180614570603b913960400191505060405180910390fd5b60009150611fed565b8015611fed57611fe081828888613b1b565b611fea82826124f4565b91505b81156123df57600754604080518082019091526001600160a01b03878116825288811660208301526060921690631f00ca7490859061202b90613d15565b6040518363ffffffff1660e01b81526004018083815260200180602001828103825283818151815260200191508051906020019060200280838360005b83811015612080578181015183820152602001612068565b50505050905001935050505060006040518083038186803b1580156120a457600080fd5b505afa1580156120b8573d6000803e3d6000fd5b505050506040513d6000823e601f3d908101601f1916820160405260208110156120e157600080fd5b8101908080516040519392919084600160201b82111561210057600080fd5b90830190602082018581111561211557600080fd5b82518660208202830111600160201b8211171561213157600080fd5b82525081516020918201928201910280838360005b8381101561215e578181015183820152602001612146565b5050505090500160405250505090506000866001600160a01b03166370a08231306040518263ffffffff1660e01b815260040180826001600160a01b0316815260200191505060206040518083038186803b1580156121bc57600080fd5b505afa1580156121d0573d6000803e3d6000fd5b505050506040513d60208110156121e657600080fd5b5051825190915082906000906121f857fe5b602002602001015181101561223e5760405162461bcd60e51b815260040180806020018281038252602b815260200180614524602b913960400191505060405180910390fd5b600754604080518082019091526001600160a01b0389811682528a8116602083015290911690638803dbee9086906000199061227990613d15565b30426040518663ffffffff1660e01b81526004018086815260200185815260200180602001846001600160a01b03168152602001838152602001828103825285818151815260200191508051906020019060200280838360005b838110156122eb5781810151838201526020016122d3565b505050509050019650505050505050600060405180830381600087803b15801561231457600080fd5b505af1158015612328573d6000803e3d6000fd5b505050506040513d6000823e601f3d908101601f19168201604052602081101561235157600080fd5b8101908080516040519392919084600160201b82111561237057600080fd5b90830190602082018581111561238557600080fd5b82518660208202830111600160201b821117156123a157600080fd5b82525081516020918201928201910280838360005b838110156123ce5781810151838201526020016123b6565b505050509050016040525050505050505b50505b6123f66001600160a01b0385163387613d84565b50929392505050565b60008261240e57506000611144565b8282028284828161241b57fe5b04146112de5760405162461bcd60e51b815260040180806020018281038252602181526020018061454f6021913960400191505060405180910390fd5b60006112de83836040518060400160405280601a81526020017f536166654d6174683a206469766973696f6e206279207a65726f000000000000815250613dd6565b6000828201838110156112de576040805162461bcd60e51b815260206004820152601b60248201527f536166654d6174683a206164646974696f6e206f766572666c6f770000000000604482015290519081900360640190fd5b60006112de83836040518060400160405280601e81526020017f536166654d6174683a207375627472616374696f6e206f766572666c6f770000815250613e78565b611b9673c2132d05d31c914a87c6611c10748aeb04b58e8f732791bca1f2de4661ed88a30c99a7a9449aa84174613ed2565b6000611144826141f7565b60006112de83836141fb565b604080516001600160a01b0380861660248301528416604482015260648082018490528251808303909101815260849091019091526020810180516001600160e01b03166323b872dd60e01b1790526125d990859061390e565b50505050565b60006112de836001600160a01b03841661425f565b6009546001600160a01b038381166000908152600a602090815260408083208685168452909152808220548151630c7e663b60e11b8152600481019190915230602482015290519193849316916318fccc7691604480820192869290919082900301818387803b15801561266757600080fd5b505af115801561267b573d6000803e3d6000fd5b505060048054604080516370a0823160e01b81523093810193909352516001600160a01b0390911693506370a0823192506024808301926020929190829003018186803b1580156126cb57600080fd5b505afa1580156126df573d6000803e3d6000fd5b505050506040513d60208110156126f557600080fd5b5051600554604080516370a0823160e01b815230600482015290519294506001600160a01b03909116916370a0823191602480820192602092909190829003018186803b15801561274557600080fd5b505afa158015612759573d6000803e3d6000fd5b505050506040513d602081101561276f57600080fd5b5051601354601054919250600091612795919061278f90612710906124f4565b906124f4565b905060006127a9612710610a4986856123ff565b905060006127bd612710610a4986866123ff565b90506000876001600160a01b03166370a08231306040518263ffffffff1660e01b815260040180826001600160a01b0316815260200191505060206040518083038186803b15801561280e57600080fd5b505afa158015612822573d6000803e3d6000fd5b505050506040513d602081101561283857600080fd5b5051604080516370a0823160e01b815230600482015290519192506000916001600160a01b038a16916370a08231916024808301926020929190829003018186803b15801561288657600080fd5b505afa15801561289a573d6000803e3d6000fd5b505050506040513d60208110156128b057600080fd5b505190508315612c18576007546001600160a01b03166338ed17396128d6866002612458565b604080518082019091526004546001600160a01b0390811682528d16602082015260009061290390613d15565b30426040518663ffffffff1660e01b81526004018086815260200185815260200180602001846001600160a01b03168152602001838152602001828103825285818151815260200191508051906020019060200280838360005b8381101561297557818101518382015260200161295d565b505050509050019650505050505050600060405180830381600087803b15801561299e57600080fd5b505af11580156129b2573d6000803e3d6000fd5b505050506040513d6000823e601f3d908101601f1916820160405260208110156129db57600080fd5b8101908080516040519392919084600160201b8211156129fa57600080fd5b908301906020820185811115612a0f57600080fd5b82518660208202830111600160201b82111715612a2b57600080fd5b82525081516020918201928201910280838360005b83811015612a58578181015183820152602001612a40565b505050509190910160405250506007546001600160a01b031692506338ed17399150612a879050866002612458565b604080518082019091526004546001600160a01b0390811682528c166020820152600090612ab490613d15565b30426040518663ffffffff1660e01b81526004018086815260200185815260200180602001846001600160a01b03168152602001838152602001828103825285818151815260200191508051906020019060200280838360005b83811015612b26578181015183820152602001612b0e565b505050509050019650505050505050600060405180830381600087803b158015612b4f57600080fd5b505af1158015612b63573d6000803e3d6000fd5b505050506040513d6000823e601f3d908101601f191682016040526020811015612b8c57600080fd5b8101908080516040519392919084600160201b821115612bab57600080fd5b908301906020820185811115612bc057600080fd5b82518660208202830111600160201b82111715612bdc57600080fd5b82525081516020918201928201910280838360005b83811015612c09578181015183820152602001612bf1565b50505050905001604052505050505b8215612f7c576007546001600160a01b03166338ed1739612c3a856002612458565b604080518082019091526005546001600160a01b0390811682528d166020820152600090612c6790613d15565b30426040518663ffffffff1660e01b81526004018086815260200185815260200180602001846001600160a01b03168152602001838152602001828103825285818151815260200191508051906020019060200280838360005b83811015612cd9578181015183820152602001612cc1565b505050509050019650505050505050600060405180830381600087803b158015612d0257600080fd5b505af1158015612d16573d6000803e3d6000fd5b505050506040513d6000823e601f3d908101601f191682016040526020811015612d3f57600080fd5b8101908080516040519392919084600160201b821115612d5e57600080fd5b908301906020820185811115612d7357600080fd5b82518660208202830111600160201b82111715612d8f57600080fd5b82525081516020918201928201910280838360005b83811015612dbc578181015183820152602001612da4565b505050509190910160405250506007546001600160a01b031692506338ed17399150612deb9050856002612458565b604080518082019091526005546001600160a01b0390811682528c166020820152600090612e1890613d15565b30426040518663ffffffff1660e01b81526004018086815260200185815260200180602001846001600160a01b03168152602001838152602001828103825285818151815260200191508051906020019060200280838360005b83811015612e8a578181015183820152602001612e72565b505050509050019650505050505050600060405180830381600087803b158015612eb357600080fd5b505af1158015612ec7573d6000803e3d6000fd5b505050506040513d6000823e601f3d908101601f191682016040526020811015612ef057600080fd5b8101908080516040519392919084600160201b821115612f0f57600080fd5b908301906020820185811115612f2457600080fd5b82518660208202830111600160201b82111715612f4057600080fd5b82525081516020918201928201910280838360005b83811015612f6d578181015183820152602001612f55565b50505050905001604052505050505b6000896001600160a01b03166370a08231306040518263ffffffff1660e01b815260040180826001600160a01b0316815260200191505060206040518083038186803b158015612fcb57600080fd5b505afa158015612fdf573d6000803e3d6000fd5b505050506040513d6020811015612ff557600080fd5b5051604080516370a0823160e01b815230600482015290519192506000916001600160a01b038c16916370a08231916024808301926020929190829003018186803b15801561304357600080fd5b505afa158015613057573d6000803e3d6000fd5b505050506040513d602081101561306d57600080fd5b5051905061309d61307e83866124f4565b6001600160a01b038d166000908152600e60205260409020549061249a565b6001600160a01b038c166000908152600e60205260409020556130e26130c382856124f4565b6001600160a01b038c166000908152600e60205260409020549061249a565b6001600160a01b038b166000908152600e60205260409020556131058b8b613ed2565b601054600090156132ed5761312b612710610a496010548d6123ff90919063ffffffff16565b600754604080516060810182526004546001600160a01b03908116825273c2132d05d31c914a87c6611c10748aeb04b58e8f602083015260025481169282019290925292935016906338ed173990839060009061318790614325565b61dead426040518663ffffffff1660e01b81526004018086815260200185815260200180602001846001600160a01b03168152602001838152602001828103825285818151815260200191508051906020019060200280838360005b838110156131fb5781810151838201526020016131e3565b505050509050019650505050505050600060405180830381600087803b15801561322457600080fd5b505af1158015613238573d6000803e3d6000fd5b505050506040513d6000823e601f3d908101601f19168201604052602081101561326157600080fd5b8101908080516040519392919084600160201b82111561328057600080fd5b90830190602082018581111561329557600080fd5b82518660208202830111600160201b821117156132b157600080fd5b82525081516020918201928201910280838360005b838110156132de5781810151838201526020016132c6565b50505050905001604052505050505b601054600090156134d557613313612710610a496010548e6123ff90919063ffffffff16565b600754604080516060810182526005546001600160a01b03908116825273c2132d05d31c914a87c6611c10748aeb04b58e8f602083015260025481169282019290925292935016906338ed173990839060009061336f90614325565b61dead426040518663ffffffff1660e01b81526004018086815260200185815260200180602001846001600160a01b03168152602001838152602001828103825285818151815260200191508051906020019060200280838360005b838110156133e35781810151838201526020016133cb565b505050509050019650505050505050600060405180830381600087803b15801561340c57600080fd5b505af1158015613420573d6000803e3d6000fd5b505050506040513d6000823e601f3d908101601f19168201604052602081101561344957600080fd5b8101908080516040519392919084600160201b82111561346857600080fd5b90830190602082018581111561347d57600080fd5b82518660208202830111600160201b8211171561349957600080fd5b82525081516020918201928201910280838360005b838110156134c65781810151838201526020016134ae565b50505050905001604052505050505b60006134e58361278f8e8c6124f4565b9050801561350a5760125460045461350a916001600160a01b03918216911683613d84565b600061351a8361278f8e8c6124f4565b9050801561353f5760125460055461353f916001600160a01b03918216911683613d84565b613547612536565b505050505050505050505050505050565b6009546001600160a01b038381166000908152600a6020908152604080832086851684529091528082205481516393f1a40b60e01b815260048101919091523060248201528151929493909316926393f1a40b9260448083019392829003018186803b1580156135c757600080fd5b505afa1580156135db573d6000803e3d6000fd5b505050506040513d60408110156135f157600080fd5b505190508015611e45576009546001600160a01b038481166000908152600a60209081526040808320878516845290915280822054815163d1abb90760e01b81526004810191909152602481018690523060448201529051929093169263d1abb907926064808301939282900301818387803b15801561367057600080fd5b505af1158015613684573d6000803e3d6000fd5b505060075460408051635d5155ef60e11b81526001600160a01b038881166004830152878116602483015260448201879052600060648301819052608483018190523060a48401524260c4840152835191909416955063baa2abde945060e48083019491928390030190829087803b1580156136ff57600080fd5b505af1158015613713573d6000803e3d6000fd5b505050506040513d604081101561372957600080fd5b5050505050565b60006112de836001600160a01b038416614390565b6007546137739073c2132d05d31c914a87c6611c10748aeb04b58e8f906001600160a01b0316600019611d32565b6007546137a190732791bca1f2de4661ed88a30c99a7a9449aa84174906001600160a01b0316600019611d32565b6007546137cf90730b3f868e0be5597d5db7feb59e1cadbb0fdda50a906001600160a01b0316600019611d32565b6007546137fd90730d500b1d8e8ef31e21c99d1db9a6444d3adf1270906001600160a01b0316600019611d32565b6008546040805163e6a4390560e01b815273c2132d05d31c914a87c6611c10748aeb04b58e8f6004820152732791bca1f2de4661ed88a30c99a7a9449aa84174602482015290516000926001600160a01b03169163e6a43905916044808301926020929190829003018186803b15801561387657600080fd5b505afa15801561388a573d6000803e3d6000fd5b505050506040513d60208110156138a057600080fd5b50516007549091506138c1906001600160a01b038084169116600019611d32565b50565b60006138d08383614390565b61390657508154600181810184556000848152602080822090930184905584548482528286019093526040902091909155611144565b506000611144565b6060613963826040518060400160405280602081526020017f5361666545524332303a206c6f772d6c6576656c2063616c6c206661696c6564815250856001600160a01b0316611e4a9092919063ffffffff16565b805190915015611e455780806020019051602081101561398257600080fd5b5051611e455760405162461bcd60e51b815260040180806020018281038252602a8152602001806145cb602a913960400191505060405180910390fd5b606082471015613a005760405162461bcd60e51b81526004018080602001828103825260268152602001806144966026913960400191505060405180910390fd5b613a09856143a8565b613a5a576040805162461bcd60e51b815260206004820152601d60248201527f416464726573733a2063616c6c20746f206e6f6e2d636f6e7472616374000000604482015290519081900360640190fd5b60006060866001600160a01b031685876040518082805190602001908083835b60208310613a995780518252601f199092019160209182019101613a7a565b6001836020036101000a03801982511681845116808217855250505050505090500191505060006040518083038185875af1925050503d8060008114613afb576040519150601f19603f3d011682016040523d82523d6000602084013e613b00565b606091505b5091509150613b108282866143ae565b979650505050505050565b6009546001600160a01b038381166000908152600a6020908152604080832086851684529091528082205481516393f1a40b60e01b815260048101919091523060248201528151929493909316926393f1a40b9260448083019392829003018186803b158015613b8a57600080fd5b505afa158015613b9e573d6000803e3d6000fd5b505050506040513d6040811015613bb457600080fd5b505190506000613bc885610a4988856123ff565b9050613bda6064610a498360656123ff565b905081811115613be75750805b6009546001600160a01b038581166000908152600a60209081526040808320888516845290915280822054815163d1abb90760e01b81526004810191909152602481018690523060448201529051929093169263d1abb907926064808301939282900301818387803b158015613c5c57600080fd5b505af1158015613c70573d6000803e3d6000fd5b505060075460408051635d5155ef60e11b81526001600160a01b038981166004830152888116602483015260448201879052600060648301819052608483018190523060a48401524260c4840152835191909416955063baa2abde945060e48083019491928390030190829087803b158015613ceb57600080fd5b505af1158015613cff573d6000803e3d6000fd5b505050506040513d604081101561193457600080fd5b604080516002808252606080830184529260208301908036833701905050905060005b6002811015613d7e57828160028110613d4d57fe5b6020020151828281518110613d5e57fe5b6001600160a01b0390921660209283029190910190910152600101613d38565b50919050565b604080516001600160a01b038416602482015260448082018490528251808303909101815260649091019091526020810180516001600160e01b031663a9059cbb60e01b179052611e4590849061390e565b60008183613e625760405162461bcd60e51b81526004018080602001828103825283818151815260200191508051906020019080838360005b83811015613e27578181015183820152602001613e0f565b50505050905090810190601f168015613e545780820380516001836020036101000a031916815260200191505b509250505060405180910390fd5b506000838581613e6e57fe5b0495945050505050565b60008184841115613eca5760405162461bcd60e51b8152602060048201818152835160248401528351909283926044909101919085019080838360008315613e27578181015183820152602001613e0f565b505050900390565b6000826001600160a01b03166370a08231306040518263ffffffff1660e01b815260040180826001600160a01b0316815260200191505060206040518083038186803b158015613f2157600080fd5b505afa158015613f35573d6000803e3d6000fd5b505050506040513d6020811015613f4b57600080fd5b5051604080516370a0823160e01b815230600482015290519192506000916001600160a01b038516916370a08231916024808301926020929190829003018186803b158015613f9957600080fd5b505afa158015613fad573d6000803e3d6000fd5b505050506040513d6020811015613fc357600080fd5b505160035490915082118015613fda575060035481115b801561400a57506001600160a01b038085166000908152600a602090815260408083209387168352929052205415155b156125d9576007546040805162e8e33760e81b81526001600160a01b0387811660048301528681166024830152604482018690526064820185905260006084830181905260a483018190523060c48401524260e484015292519293169163e8e33700916101048082019260609290919082900301818787803b15801561408f57600080fd5b505af11580156140a3573d6000803e3d6000fd5b505050506040513d60608110156140b957600080fd5b50604090810151600854825163e6a4390560e01b81526001600160a01b038981166004830152888116602483015293519294506000939091169163e6a4390591604480820192602092909190829003018186803b15801561411957600080fd5b505afa15801561412d573d6000803e3d6000fd5b505050506040513d602081101561414357600080fd5b5051600954909150614162906001600160a01b03808416911684611d32565b6009546001600160a01b038781166000908152600a602090815260408083208a85168452909152808220548151638dbdbe6d60e01b815260048101919091526024810187905230604482015290519290931692638dbdbe6d926064808301939282900301818387803b1580156141d757600080fd5b505af11580156141eb573d6000803e3d6000fd5b50505050505050505050565b5490565b8154600090821061423d5760405162461bcd60e51b81526004018080602001828103825260228152602001806144156022913960400191505060405180910390fd5b82600001828154811061424c57fe5b9060005260206000200154905092915050565b6000818152600183016020526040812054801561431b578354600019808301919081019060009087908390811061429257fe5b90600052602060002001549050808760000184815481106142af57fe5b6000918252602080832090910192909255828152600189810190925260409020908401905586548790806142df57fe5b60019003818190600052602060002001600090559055866001016000878152602001908152602001600020600090556001945050505050611144565b6000915050611144565b6040805160038082526080820190925260609160208201838036833701905050905060005b6003811015613d7e5782816003811061435f57fe5b602002015182828151811061437057fe5b6001600160a01b039092166020928302919091019091015260010161434a565b60009081526001919091016020526040902054151590565b3b151590565b606083156143bd5750816112de565b8251156143cd5782518084602001fd5b60405162461bcd60e51b8152602060048201818152845160248401528451859391928392604401919085019080838360008315613e27578181015183820152602001613e0f56fe456e756d657261626c655365743a20696e646578206f7574206f6620626f756e647353747261744d6174696353757368693a206e6577206164647265737365732063616e204e4f542062652061732073616d65206173206f6c642e4f776e61626c653a206e6577206f776e657220697320746865207a65726f2061646472657373416464726573733a20696e73756666696369656e742062616c616e636520666f722063616c6c53747261744d6174696353757368693a2021676f76000000000000000000000053747261744d617469635375736869204552524f523a20746f6b656e30732c746f6b656e317320616e64207069647327206c656e6774682073686f756c6420626520657175616c2e53747261744d6174696353757368693a206c65667420616d6f756e74206973204e4f5420656e6f75676821536166654d6174683a206d756c7469706c69636174696f6e206f766572666c6f7753747261744d6174696353757368693a20746f6b656e20616d6f756e74206973204e4f5420656e6f7567682061667465722072656d6f7665204c504f776e61626c653a2063616c6c6572206973206e6f7420746865206f776e65725361666545524332303a204552433230206f7065726174696f6e20646964206e6f7420737563636565645361666545524332303a20617070726f76652066726f6d206e6f6e2d7a65726f20746f206e6f6e2d7a65726f20616c6c6f77616e6365a26469706673582212205105d6a064947cfd9e13015de20ff1ac55bde0c616ca451f4cad0ca6dfd4e43f64736f6c634300060c00334f776e61626c653a206e6577206f776e657220697320746865207a65726f2061646472657373416464726573733a20696e73756666696369656e742062616c616e636520666f722063616c6c8be0079c531659141344cd1fd0a4f28419497f9722a3daafe3b4186f6b6457e05361666545524332303a204552433230206f7065726174696f6e20646964206e6f7420737563636565645361666545524332303a20617070726f76652066726f6d206e6f6e2d7a65726f20746f206e6f6e2d7a65726f20616c6c6f77616e6365",
  "immutableReferences": {},
  "source": "// SPDX-License-Identifier: MIT\npragma solidity 0.6.12;\n\n\nimport \"../common/BasicStruct.sol\";\nimport \"../SwapInterfaces.sol\";\n\n//  quickSwap\n//  sushiSwap => matic&sushi\ncontract Strat4Arb is Ownable, ReentrancyGuard {\n    using SafeMath for uint256;\n    using Strings for uint256;\n    using SafeERC20 for IERC20;\n    using EnumerableSet for EnumerableSet.AddressSet;\n\n    address public BOBO;\n\n    address public constant sushiFactory = 0xc35DADB65012eC5796536bD9864eD8773aBc74C4;\n    address public constant sushiRouter = 0x1b02dA8Cb0d097eB8D57A175b88c7D8b47997506;\n    address public constant sushiMasterChef = 0x0769fd68dFb93167989C6f7254cd0D766Fb2841F;   // APY    \n\n    address public constant USDT = 0xc2132D05D31c914a87C6611C10748AEb04B58e8F;\n    address public constant USDC = 0x2791Bca1f2de4661ED88A30C99A7a9449Aa84174;\n    address public constant WMATIC = 0x0d500B1d8E8eF31E21C99d1Db9A6444d3ADf1270;\n    address public constant SUSHI = 0x0b3F868E0BE5597D5DB7fEB59E1CADBb0fdDa50a;\n    \n    address public constant deadAddr = 0x000000000000000000000000000000000000dEaD; \n\n    uint256 public minFarmAmount = 1e6;\n    address public earnedTokenOne = WMATIC;             // \n    address public earnedTokenTwo = SUSHI;             // \n    address public burnedTokenAddress;          // \n    \n    address public curRouter = sushiRouter;\n    address public curFactory = sushiFactory;\n\n    address public curMasterChef = sushiMasterChef;\n    mapping(address => mapping(address => uint256)) public curPidMap;\n\n    address public govAddress; \n    EnumerableSet.AddressSet private allowedFarmTokenSet;\n\n    mapping(address => uint256) public wantLockedTotalMap;  \n    mapping(address => uint256) public sharesTotalMap; \n\n    \n    uint256 public constant BasePercent = 10000;\n    // BOBO\n    uint256 public burnedBOBORate = 0;\n    uint256 public constant burnedBOBORateUL = 8000;\n    uint256 public totalBurnedBOT;\n\n    // 50%10%\n    address public devFundAddr;\n    uint256 public devFundFee = 5000; \n    uint256 public constant devFundFeeUL = 2000;\n\n    modifier onlyGov() {\n        require(msg.sender == govAddress, \"StratMaticSushi: !gov\");\n        _;\n    }\n\n    constructor(\n        address _boboAddr,\n        address _boboFarmer\n    ) public {\n        govAddress = msg.sender;\n        devFundAddr = msg.sender;\n        BOBO = _boboAddr;\n        burnedTokenAddress = _boboAddr;\n        \n        addFarmToken(USDT);\n        addFarmToken(USDC);\n        \n        // belows are all pids of Pancake masterchef, and MDEX is [USDT][BUSD] = 0x20;[USDT][USDC] = 0x21;[BUSD][USDC] = 0;       \n        curPidMap[USDT][USDC] = 0x08;\n        curPidMap[USDC][USDT] = 0x08;\n\n        transferOwnership(_boboFarmer);\n        setAllowedBalance();\n    }\n    \n    // farmer\n    function initTotalShareAndLocked(address _tokenAddr, uint256 _totalShare, uint256 _totalLocked) external onlyOwner {\n        sharesTotalMap[_tokenAddr] = _totalShare;\n        wantLockedTotalMap[_tokenAddr] = _totalLocked;\n    }\n    // farmer\n    function clearAndTransferTokens(address _tokenAddr) external onlyOwner returns(uint256, uint256) {\n        require(isFarmToken(_tokenAddr), \"StratMaticSushi: NOT farm token.\");\n        address anotherToken = _tokenAddr == USDT ? USDC : USDT;\n        claimRewardAndCompound(_tokenAddr, anotherToken);\n\n        withdrawAllLP(_tokenAddr, anotherToken);\n\n        uint256 amount = IERC20(_tokenAddr).balanceOf(address(this));\n        if (amount > 0)\n            IERC20(_tokenAddr).transfer(msg.sender, amount);\n\n        return (sharesTotalMap[_tokenAddr], wantLockedTotalMap[_tokenAddr]);\n    }\n    \n    // \n    function setNewSwapInfo(address _factory, address _router, address _masterChef, \n                            address _earnedTokenAddrOne, address _earnedTokenAddrTwo, \n                            address[] memory _token0s, address[] memory _token1s, uint256[] memory _pids) external onlyGov {\n        require(_factory != curFactory && _router != curRouter && _masterChef != curMasterChef, \"StratMaticSushi: new addresses can NOT be as same as old.\");\n        require(_token0s.length == _token1s.length && _token0s.length == _pids.length, \"StratMaticSushi ERROR: token0s,token1s and pids' length should be equal.\");\n        \n        withdrawAllLP(USDT, USDC);\n        \n        curFactory = _factory;\n        curRouter = _router;\n        curMasterChef = _masterChef;\n        earnedTokenOne = _earnedTokenAddrOne;\n        earnedTokenTwo = _earnedTokenAddrTwo;\n        \n        for(uint256 i = 0; i < _pids.length; i++) {\n            curPidMap[_token0s[i]][_token1s[i]] = _pids[i];\n            curPidMap[_token1s[i]][_token0s[i]] = _pids[i];\n        }\n        \n        setAllowedBalance();\n        \n        _farm();\n    }\n\n    function setAllowedBalance() private {\n        IERC20(USDT).safeApprove(curRouter, uint256(-1));\n        IERC20(USDC).safeApprove(curRouter, uint256(-1));\n        IERC20(SUSHI).safeApprove(curRouter, uint256(-1));\n        IERC20(WMATIC).safeApprove(curRouter, uint256(-1));\n        address pairAddr = ICommonFactory(curFactory).getPair(USDT, USDC);\n        IERC20(pairAddr).safeApprove(curRouter, uint256(-1));\n    }\n    \n    // \n    function getBalances(address _token0, address _token1) public view returns(uint256, uint256) {        \n        address pairAddr = ICommonFactory(curFactory).getPair(_token0, _token1);\n        uint256 totalLPBalance = ICommonPair(pairAddr).totalSupply();\n        uint256 myLPBalance = 0;\n        (myLPBalance, ) = ICommonMasterChef(curMasterChef).userInfo(curPidMap[_token0][_token1], address(this));\n\n        (uint256 reserve0, uint256 reserve1, ) = ICommonPair(pairAddr).getReserves();\n        address token0 = ICommonPair(pairAddr).token0();\n        if (token0 == _token0) {\n            return (reserve0.mul(myLPBalance).div(totalLPBalance), reserve1.mul(myLPBalance).div(totalLPBalance));\n        } else {\n            return (reserve1.mul(myLPBalance).div(totalLPBalance), reserve0.mul(myLPBalance).div(totalLPBalance));\n        }\n    }\n\n    // Farm\n    function deposit(uint256 _wantAmt, address _wantAddr) public onlyOwner returns (uint256) {\n        require(isFarmToken(_wantAddr), \"StratMaticSushi: NOT farm token.\");\n        // want\n        IERC20(_wantAddr).safeTransferFrom(\n            address(msg.sender),\n            address(this),\n            _wantAmt\n        );\n\n        // \n        uint256 sharesAdded = _wantAmt;\n        if (wantLockedTotalMap[_wantAddr] > 0) {\n            sharesAdded = _wantAmt\n                .mul(sharesTotalMap[_wantAddr])\n                .div(wantLockedTotalMap[_wantAddr]);\n        }\n        sharesTotalMap[_wantAddr] = sharesTotalMap[_wantAddr].add(sharesAdded);\n        wantLockedTotalMap[_wantAddr] = wantLockedTotalMap[_wantAddr].add(_wantAmt);\n        \n        _farm();\n\n        return sharesAdded;\n    }\n\n    // USDC-USDT LPMDEX\n    // \n    function farm() public nonReentrant {\n        _farm();\n    }\n\n    // USDT/BUSD/USDC\n    function _farm() internal {\n        addLiquidAndFarm(USDT, USDC);\n    }\n    \n    // tokenLP\n    function addLiquidAndFarm(address _tokenA, address _tokenB) internal {\n        uint256 tokenABalance = IERC20(_tokenA).balanceOf(address(this));\n        uint256 tokenBBalance = IERC20(_tokenB).balanceOf(address(this));\n        \n        if (tokenABalance > minFarmAmount && tokenBBalance > minFarmAmount && curPidMap[_tokenA][_tokenB] > 0) {                \n            (,,uint256 liquidity) = ICommonRouter(curRouter).addLiquidity(_tokenA, _tokenB, tokenABalance, tokenBBalance, 0, 0, address(this), now);\n            \n            address pairAddr = ICommonFactory(curFactory).getPair(_tokenA, _tokenB);\n            IERC20(pairAddr).safeApprove(\n                curMasterChef,\n                liquidity\n            );\n            ICommonMasterChef(curMasterChef).deposit(curPidMap[_tokenA][_tokenB], liquidity, address(this));\n        }\n    }\n    \n    function convertThreePath(address[3] memory path) private pure returns(address[] memory newPath) {\n        newPath = new address[](path.length);\n        for (uint256 i = 0; i < path.length; i++) {\n            newPath[i] = path[i];\n        }\n    }\n    \n    function convertTwoPath(address[2] memory path) private pure returns(address[] memory newPath) {\n        newPath = new address[](path.length);\n        for (uint256 i = 0; i < path.length; i++) {\n            newPath[i] = path[i];\n        }\n    }\n    // tokenLPcake/MDX\n    function claimRewardAndCompound(address _tokenA, address _tokenB) internal {\n        uint256 earnedAmountTokenOne = 0;\n        uint256 earnedAmountTokenTwo = 0;\n        \n        // 0: WMATIC&SUSHI\n        ICommonMasterChef(curMasterChef).harvest(curPidMap[_tokenA][_tokenB], address(this));  \n        earnedAmountTokenOne = IERC20(earnedTokenOne).balanceOf(address(this));\n        earnedAmountTokenTwo = IERC20(earnedTokenTwo).balanceOf(address(this));\n        \n        // 1: LP\n        uint256 compoundRate = BasePercent.sub(burnedBOBORate).sub(devFundFee);\n\n        uint256 compoundAmountTokenOne = earnedAmountTokenOne.mul(compoundRate).div(BasePercent);\n        uint256 compoundAmountTokenTwo = earnedAmountTokenTwo.mul(compoundRate).div(BasePercent);\n\n        uint256 tokenABalance = IERC20(_tokenA).balanceOf(address(this));\n        uint256 tokenBBalance = IERC20(_tokenB).balanceOf(address(this));\n        \n        // ONE(sushi)TokenAUSDTTokenBUSDC\n        if (compoundAmountTokenOne > 0) {\n            ICommonRouter(curRouter)\n                .swapExactTokensForTokens(\n                compoundAmountTokenOne.div(2),\n                0,\n                convertTwoPath([earnedTokenOne, _tokenA]),\n                address(this),\n                now\n            );\n            ICommonRouter(curRouter)\n                .swapExactTokensForTokens(\n                compoundAmountTokenOne.div(2),\n                0,\n                convertTwoPath([earnedTokenOne, _tokenB]),\n                address(this),\n                now\n            );\n        }\n        // TWO(matic)TokenAUSDTTokenBUSDC\n        if (compoundAmountTokenTwo > 0) {\n            ICommonRouter(curRouter)\n                .swapExactTokensForTokens(\n                compoundAmountTokenTwo.div(2),\n                0,\n                convertTwoPath([earnedTokenTwo, _tokenA]),\n                address(this),\n                now\n            );\n            ICommonRouter(curRouter)\n                .swapExactTokensForTokens(\n                compoundAmountTokenTwo.div(2),\n                0,\n                convertTwoPath([earnedTokenTwo, _tokenB]),\n                address(this),\n                now\n            );\n        }\n\n        uint256 tokenANewBalance = IERC20(_tokenA).balanceOf(address(this));\n        uint256 tokenBNewBalance = IERC20(_tokenB).balanceOf(address(this));\n        \n        // USDTUSDCwantLockedTotalMap\n        wantLockedTotalMap[_tokenA] = wantLockedTotalMap[_tokenA].add(tokenANewBalance.sub(tokenABalance));\n        wantLockedTotalMap[_tokenB] = wantLockedTotalMap[_tokenB].add(tokenBNewBalance.sub(tokenBBalance));\n\n        addLiquidAndFarm(_tokenA, _tokenB);\n\n        // 2: Bobo\n        uint256 burnedAmountTokenOne = 0;\n        if (burnedBOBORate > 0) {\n            burnedAmountTokenOne = earnedAmountTokenOne.mul(burnedBOBORate).div(BasePercent);\n            ICommonRouter(curRouter)\n                .swapExactTokensForTokens(\n                    burnedAmountTokenOne,\n                    0,\n                    convertThreePath([earnedTokenOne, USDT, BOBO]),\n                    deadAddr,\n                    now\n            );\n        }\n\n        uint256 burnedAmountTokenTwo = 0;\n        if (burnedBOBORate > 0) {\n            burnedAmountTokenTwo = earnedAmountTokenOne.mul(burnedBOBORate).div(BasePercent);\n            ICommonRouter(curRouter)\n                .swapExactTokensForTokens(\n                    burnedAmountTokenTwo,\n                    0,\n                    convertThreePath([earnedTokenTwo, USDT, BOBO]),\n                    deadAddr,\n                    now\n            );\n        }\n        \n        // 3\n        uint256 leftAmountTokenOne = earnedAmountTokenOne.sub(compoundAmountTokenOne).sub(burnedAmountTokenOne);\n        if (leftAmountTokenOne > 0)\n            IERC20(earnedTokenOne).safeTransfer(devFundAddr, leftAmountTokenOne);\n\n        uint256 leftAmountTokenTwo = earnedAmountTokenTwo.sub(compoundAmountTokenTwo).sub(burnedAmountTokenTwo);\n        if (leftAmountTokenTwo > 0)\n            IERC20(earnedTokenTwo).safeTransfer(devFundAddr, leftAmountTokenTwo);\n\n        // 4\n        _farm();\n    }\n\n    function earn() public {\n        claimRewardAndCompound(USDT, USDC);\n    }\n\n    // LPtokentokenfarmer\n    function withdrawOneToken(uint256 _wantAmt, address _withdrawToken, address _peerToken) internal returns(uint256) {\n        uint256 curAmount = IERC20(_withdrawToken).balanceOf(address(this));\n        if (curAmount < _wantAmt) {\n            uint256 restAmountOut = _wantAmt;\n            (uint256 amount0, ) = getBalances(_withdrawToken, _peerToken);  // token\n\n            // token\n            if (amount0 >= restAmountOut) {\n                // uint256 preAmount = IERC20(_withdrawToken).balanceOf(address(this));\n                // withdrawToken0FromLP(restAmountOut, amount0, _withdrawToken, _peerToken);\n                // uint256 afterAmount = IERC20(_withdrawToken).balanceOf(address(this));\n                // string memory restAmountOutStr = restAmountOut.toString();\n                // string memory realAmountOutStr = afterAmount.sub(preAmount).toString();\n                // string memory outString = string(abi.encodePacked(\"StratMaticSushi: token amount is NOT enough after remove LP,\", restAmountOutStr, \",\", realAmountOutStr));\n\n                withdrawToken0FromLP(restAmountOut, amount0, _withdrawToken, _peerToken);\n                require(IERC20(_withdrawToken).balanceOf(address(this)) >= _wantAmt, \"StratMaticSushi: token amount is NOT enough after remove LP\");\n                restAmountOut = 0;\n            } else if (amount0 > 0) {\n                withdrawToken0FromLP(amount0, amount0, _withdrawToken, _peerToken);  // \n                restAmountOut = restAmountOut.sub(amount0);\n            }\n            if (restAmountOut > 0) {\n                uint256[] memory amounts = ICommonRouter(curRouter).getAmountsIn(restAmountOut, convertTwoPath([_peerToken, _withdrawToken]));\n                uint256 curPeerTokenAmount = IERC20(_peerToken).balanceOf(address(this));\n                require(curPeerTokenAmount >= amounts[0], \"StratMaticSushi: left amount is NOT enough!\");\n                ICommonRouter(curRouter)\n                    .swapTokensForExactTokens(\n                        restAmountOut,\n                        uint256(-1),\n                        convertTwoPath([_peerToken, _withdrawToken]),\n                        address(this),\n                        now\n                );\n            }\n        }\n        \n        IERC20(_withdrawToken).safeTransfer(msg.sender, _wantAmt);\n        return _wantAmt;\n    }\n\n\n    // LP_withrawAmounttoken0\n    // 1: LP\n    // 2: LPtoken0token1\n    function withdrawToken0FromLP(uint256 _withrawAmount, uint256 _totalAmount, address _token0, address _token1) internal {\n        uint256 myLPBalance = 0;\n        (myLPBalance, ) = ICommonMasterChef(curMasterChef).userInfo(curPidMap[_token0][_token1], address(this));\n\n        uint256 withdrawLPBalance = _withrawAmount.mul(myLPBalance).div(_totalAmount);\n        withdrawLPBalance = withdrawLPBalance.mul(101).div(100); // 1/100\n        if (withdrawLPBalance > myLPBalance) withdrawLPBalance = myLPBalance;\n        // LP tokenWMATIC&Sushiearnusdtusdc\n        ICommonMasterChef(curMasterChef).withdrawAndHarvest(curPidMap[_token0][_token1], withdrawLPBalance, address(this));  \n\n        ICommonRouter(curRouter).removeLiquidity(\n            _token0,\n            _token1,\n            withdrawLPBalance,\n            0,\n            0,\n            address(this),\n            now\n        );\n    }\n    // LPTOKEN0&TOKEN1\n    function withdrawAllLP(address _token0, address _token1) internal {\n        (uint256 myLPBalance, ) = ICommonMasterChef(curMasterChef).userInfo(curPidMap[_token0][_token1], address(this));\n        \n        if (myLPBalance > 0) {\n            // WMATICLP token\n            ICommonMasterChef(curMasterChef).withdrawAndHarvest(curPidMap[_token0][_token1], myLPBalance, address(this));\n    \n            ICommonRouter(curRouter).removeLiquidity(\n                _token0,\n                _token1,\n                myLPBalance,\n                0,\n                0,\n                address(this),\n                now\n            );\n        }\n    }\n\n\n    // \n    // 1. MDEXMDX\n    // 2. \n    // 3. MDXbot\n    function withdraw(uint256 _wantAmt, address _wantAddr) public onlyOwner nonReentrant returns (uint256) {\n        require(_wantAmt > 0, \"StratMaticSushi: _wantAmt <= 0\");\n        require(isFarmToken(_wantAddr), \"StratMaticSushi: NOT farm token.\");\n        \n        address token0 = _wantAddr == USDT ?  USDC : USDT;\n        uint256 realAmount = withdrawOneToken(_wantAmt, _wantAddr, token0);        \n\n        // 2.         \n        uint256 sharesRemoved = realAmount.mul(sharesTotalMap[_wantAddr]).div(wantLockedTotalMap[_wantAddr]);\n        if (sharesRemoved.mul(wantLockedTotalMap[_wantAddr]) < realAmount.mul(sharesTotalMap[_wantAddr])) {\n            sharesRemoved = sharesRemoved.add(1);\n        }\n        if (sharesRemoved > sharesTotalMap[_wantAddr]) {\n            sharesRemoved = sharesTotalMap[_wantAddr];\n        }\n        sharesTotalMap[_wantAddr] = sharesTotalMap[_wantAddr].sub(sharesRemoved);\n        wantLockedTotalMap[_wantAddr] = wantLockedTotalMap[_wantAddr].sub(realAmount);\n\n        return sharesRemoved;\n    }\n\n    function setDevFundFee(uint256 _devFundFee) public onlyGov {\n        require(_devFundFee <= devFundFeeUL, \"too high\");\n        devFundFee = _devFundFee;\n    }\n\n    function setBurnedBoboRate(uint256 _burnedBOBORate) public onlyGov {\n        require(_burnedBOBORate <= burnedBOBORateUL, \"too high\");\n        burnedBOBORate = _burnedBOBORate;\n    }\n\n    function setGov(address _govAddress) public onlyGov {\n        govAddress = _govAddress;\n    }\n\n    function setDevFundAddr(address _devFundAddr) public onlyGov {\n        devFundAddr = _devFundAddr;\n    }\n    \n    function addFarmToken(address _addToken) public onlyGov returns (bool) {\n        return EnumerableSet.add(allowedFarmTokenSet, _addToken);\n    }\n\n    function delFarmToken(address _delToken) public onlyGov returns (bool) {\n        return EnumerableSet.remove(allowedFarmTokenSet, _delToken);\n    }\n\n    function getFarmTokenLength() public view returns (uint256) {\n        return EnumerableSet.length(allowedFarmTokenSet);\n    }\n\n    function isFarmToken(address _farmToken) public view returns (bool) {\n        return EnumerableSet.contains(allowedFarmTokenSet, _farmToken);\n    }\n\n    function getFarmToken(uint256 _index) public view onlyGov returns (address){\n        require(_index <= getFarmTokenLength() - 1, \"StatMdxCake: index out of bounds\");\n        return EnumerableSet.at(allowedFarmTokenSet, _index);\n    }\n\n    // function getBackToken(address _tokenAddr) public {\n    //     ERC20(_tokenAddr).transfer(msg.sender, ERC20(_tokenAddr).balanceOf(address(this)));\n    // }\n}",
  "sourcePath": "/Users/mryu/blockchain/bobo-metaverse/boboswap-contract/contracts/Arbitrum/StratOnArb.sol",
  "compiler": {
    "name": "solc",
    "version": "0.6.12+commit.27d51765.Emscripten.clang"
  },
  "schemaVersion": "3.4.3",
  "updatedAt": "2021-10-20T12:34:30.299Z",
  "devdoc": {
    "kind": "dev",
    "methods": {
      "owner()": {
        "details": "Returns the address of the current owner."
      },
      "renounceOwnership()": {
        "details": "Leaves the contract without owner. It will not be possible to call `onlyOwner` functions anymore. Can only be called by the current owner. NOTE: Renouncing ownership will leave the contract without an owner, thereby removing any functionality that is only available to the owner."
      },
      "transferOwnership(address)": {
        "details": "Transfers ownership of the contract to a new account (`newOwner`). Can only be called by the current owner."
      }
    },
    "version": 1
  },
  "userdoc": {
    "kind": "user",
    "methods": {},
    "version": 1
  }
}